{
  "_format": "hh-sol-artifact-1",
  "contractName": "EscrowERC20",
  "sourceName": "contracts/EscrowERC20.sol",
  "abi": [
    {
      "inputs": [],
      "stateMutability": "nonpayable",
      "type": "constructor"
    },
    {
      "inputs": [
        {
          "internalType": "bytes32",
          "name": "_symbol",
          "type": "bytes32"
        },
        {
          "internalType": "address",
          "name": "_tokenAddress",
          "type": "address"
        }
      ],
      "name": "allowToken",
      "outputs": [],
      "stateMutability": "nonpayable",
      "type": "function"
    },
    {
      "inputs": [
        {
          "internalType": "bytes32",
          "name": "",
          "type": "bytes32"
        }
      ],
      "name": "allowedTokens",
      "outputs": [
        {
          "internalType": "address",
          "name": "",
          "type": "address"
        }
      ],
      "stateMutability": "view",
      "type": "function"
    },
    {
      "inputs": [
        {
          "internalType": "address",
          "name": "",
          "type": "address"
        },
        {
          "internalType": "bytes32",
          "name": "",
          "type": "bytes32"
        }
      ],
      "name": "balances",
      "outputs": [
        {
          "internalType": "uint256",
          "name": "",
          "type": "uint256"
        }
      ],
      "stateMutability": "view",
      "type": "function"
    },
    {
      "inputs": [
        {
          "internalType": "uint256",
          "name": "_amount",
          "type": "uint256"
        },
        {
          "internalType": "bytes32",
          "name": "_symbol",
          "type": "bytes32"
        },
        {
          "internalType": "address",
          "name": "_receiver",
          "type": "address"
        }
      ],
      "name": "deposit",
      "outputs": [
        {
          "internalType": "uint256",
          "name": "",
          "type": "uint256"
        }
      ],
      "stateMutability": "nonpayable",
      "type": "function"
    },
    {
      "inputs": [
        {
          "internalType": "uint256",
          "name": "transactionId",
          "type": "uint256"
        }
      ],
      "name": "rollback",
      "outputs": [],
      "stateMutability": "nonpayable",
      "type": "function"
    },
    {
      "inputs": [
        {
          "internalType": "uint256",
          "name": "_amount",
          "type": "uint256"
        },
        {
          "internalType": "bytes32",
          "name": "_symbol",
          "type": "bytes32"
        }
      ],
      "name": "withdraw",
      "outputs": [],
      "stateMutability": "nonpayable",
      "type": "function"
    }
  ],
  "bytecode": "0x608060405234801561001057600080fd5b5033600160006101000a81548173ffffffffffffffffffffffffffffffffffffffff021916908373ffffffffffffffffffffffffffffffffffffffff160217905550610f7a806100616000396000f3fe608060405234801561001057600080fd5b50600436106100625760003560e01c80630da9da20146100675780631f14df691461008357806339585088146100b357806372f89493146100e35780639b7cfed214610113578063a8d2021a1461012f575b600080fd5b610081600480360381019061007c9190610ab4565b61014b565b005b61009d600480360381019061009891906109ea565b610421565b6040516100aa9190610d0d565b60405180910390f35b6100cd60048036038101906100c89190610b19565b610446565b6040516100da9190610d0d565b60405180910390f35b6100fd60048036038101906100f89190610a4f565b61069a565b60405161010a9190610c12565b60405180910390f35b61012d60048036038101906101289190610a78565b6106cd565b005b61014960048036038101906101449190610add565b6107b3565b005b60006004600083815260200190815260200160002060010160009054906101000a900473ffffffffffffffffffffffffffffffffffffffff1690506000600460008481526020019081526020016000206003015490506000600460008581526020019081526020016000206002015490503373ffffffffffffffffffffffffffffffffffffffff166004600086815260200190815260200160002060000160009054906101000a900473ffffffffffffffffffffffffffffffffffffffff1673ffffffffffffffffffffffffffffffffffffffff1614610260576040517f08c379a000000000000000000000000000000000000000000000000000000000815260040161025790610c8d565b60405180910390fd5b81600360008573ffffffffffffffffffffffffffffffffffffffff1673ffffffffffffffffffffffffffffffffffffffff16815260200190815260200160002060008381526020019081526020016000205410156102f3576040517f08c379a00000000000000000000000000000000000000000000000000000000081526004016102ea90610cad565b60405180910390fd5b81600360008573ffffffffffffffffffffffffffffffffffffffff1673ffffffffffffffffffffffffffffffffffffffff168152602001908152602001600020600083815260200190815260200160002060008282546103539190610d8f565b925050819055506002600082815260200190815260200160002060009054906101000a900473ffffffffffffffffffffffffffffffffffffffff1673ffffffffffffffffffffffffffffffffffffffff1663a9059cbb33846040518363ffffffff1660e01b81526004016103c8929190610c64565b602060405180830381600087803b1580156103e257600080fd5b505af11580156103f6573d6000803e3d6000fd5b505050506040513d601f19601f8201168201806040525081019061041a9190610a26565b5050505050565b6003602052816000526040600020602052806000526040600020600091509150505481565b600083600360008473ffffffffffffffffffffffffffffffffffffffff1673ffffffffffffffffffffffffffffffffffffffff168152602001908152602001600020600085815260200190815260200160002060008282546104a89190610d39565b925050819055506002600084815260200190815260200160002060009054906101000a900473ffffffffffffffffffffffffffffffffffffffff1673ffffffffffffffffffffffffffffffffffffffff166323b872dd3330876040518463ffffffff1660e01b815260040161051f93929190610c2d565b602060405180830381600087803b15801561053957600080fd5b505af115801561054d573d6000803e3d6000fd5b505050506040513d601f19601f820116820180604052508101906105719190610a26565b50600061057e6000610972565b905060405180608001604052803373ffffffffffffffffffffffffffffffffffffffff1681526020018473ffffffffffffffffffffffffffffffffffffffff168152602001858152602001868152506004600083815260200190815260200160002060008201518160000160006101000a81548173ffffffffffffffffffffffffffffffffffffffff021916908373ffffffffffffffffffffffffffffffffffffffff16021790555060208201518160010160006101000a81548173ffffffffffffffffffffffffffffffffffffffff021916908373ffffffffffffffffffffffffffffffffffffffff160217905550604082015181600201556060820151816003015590505061068f6000610980565b809150509392505050565b60026020528060005260406000206000915054906101000a900473ffffffffffffffffffffffffffffffffffffffff1681565b600160009054906101000a900473ffffffffffffffffffffffffffffffffffffffff1673ffffffffffffffffffffffffffffffffffffffff163373ffffffffffffffffffffffffffffffffffffffff161461075d576040517f08c379a000000000000000000000000000000000000000000000000000000000815260040161075490610ccd565b60405180910390fd5b806002600084815260200190815260200160002060006101000a81548173ffffffffffffffffffffffffffffffffffffffff021916908373ffffffffffffffffffffffffffffffffffffffff1602179055505050565b81600360003373ffffffffffffffffffffffffffffffffffffffff1673ffffffffffffffffffffffffffffffffffffffff1681526020019081526020016000206000838152602001908152602001600020541015610846576040517f08c379a000000000000000000000000000000000000000000000000000000000815260040161083d90610ced565b60405180910390fd5b81600360003373ffffffffffffffffffffffffffffffffffffffff1673ffffffffffffffffffffffffffffffffffffffff168152602001908152602001600020600083815260200190815260200160002060008282546108a69190610d8f565b925050819055506002600082815260200190815260200160002060009054906101000a900473ffffffffffffffffffffffffffffffffffffffff1673ffffffffffffffffffffffffffffffffffffffff1663a9059cbb33846040518363ffffffff1660e01b815260040161091b929190610c64565b602060405180830381600087803b15801561093557600080fd5b505af1158015610949573d6000803e3d6000fd5b505050506040513d601f19601f8201168201806040525081019061096d9190610a26565b505050565b600081600001549050919050565b6001816000016000828254019250508190555050565b6000813590506109a581610ee8565b92915050565b6000815190506109ba81610eff565b92915050565b6000813590506109cf81610f16565b92915050565b6000813590506109e481610f2d565b92915050565b600080604083850312156109fd57600080fd5b6000610a0b85828601610996565b9250506020610a1c858286016109c0565b9150509250929050565b600060208284031215610a3857600080fd5b6000610a46848285016109ab565b91505092915050565b600060208284031215610a6157600080fd5b6000610a6f848285016109c0565b91505092915050565b60008060408385031215610a8b57600080fd5b6000610a99858286016109c0565b9250506020610aaa85828601610996565b9150509250929050565b600060208284031215610ac657600080fd5b6000610ad4848285016109d5565b91505092915050565b60008060408385031215610af057600080fd5b6000610afe858286016109d5565b9250506020610b0f858286016109c0565b9150509250929050565b600080600060608486031215610b2e57600080fd5b6000610b3c868287016109d5565b9350506020610b4d868287016109c0565b9250506040610b5e86828701610996565b9150509250925092565b610b7181610dc3565b82525050565b6000610b84600c83610d28565b9150610b8f82610e44565b602082019050919050565b6000610ba7601283610d28565b9150610bb282610e6d565b602082019050919050565b6000610bca601183610d28565b9150610bd582610e96565b602082019050919050565b6000610bed601183610d28565b9150610bf882610ebf565b602082019050919050565b610c0c81610e0b565b82525050565b6000602082019050610c276000830184610b68565b92915050565b6000606082019050610c426000830186610b68565b610c4f6020830185610b68565b610c5c6040830184610c03565b949350505050565b6000604082019050610c796000830185610b68565b610c866020830184610c03565b9392505050565b60006020820190508181036000830152610ca681610b77565b9050919050565b60006020820190508181036000830152610cc681610b9a565b9050919050565b60006020820190508181036000830152610ce681610bbd565b9050919050565b60006020820190508181036000830152610d0681610be0565b9050919050565b6000602082019050610d226000830184610c03565b92915050565b600082825260208201905092915050565b6000610d4482610e0b565b9150610d4f83610e0b565b9250827fffffffffffffffffffffffffffffffffffffffffffffffffffffffffffffffff03821115610d8457610d83610e15565b5b828201905092915050565b6000610d9a82610e0b565b9150610da583610e0b565b925082821015610db857610db7610e15565b5b828203905092915050565b6000610dce82610deb565b9050919050565b60008115159050919050565b6000819050919050565b600073ffffffffffffffffffffffffffffffffffffffff82169050919050565b6000819050919050565b7f4e487b7100000000000000000000000000000000000000000000000000000000600052601160045260246000fd5b7f4e6f7420612073656e6465720000000000000000000000000000000000000000600082015250565b7f496e73756666696369656e742066756e64730000000000000000000000000000600082015250565b7f4f6e6c7920666f7220616e206f776e6572000000000000000000000000000000600082015250565b7f496e737566666963656e742066756e6473000000000000000000000000000000600082015250565b610ef181610dc3565b8114610efc57600080fd5b50565b610f0881610dd5565b8114610f1357600080fd5b50565b610f1f81610de1565b8114610f2a57600080fd5b50565b610f3681610e0b565b8114610f4157600080fd5b5056fea2646970667358221220e5c66b33603535cd9064b590a8bb6f8ec253865f2032c8978dbea7ad113af06364736f6c63430008040033",
  "linkReferences": {},
  "deployedLinkReferences": {}
}