{
  "_format": "hh-sol-artifact-1",
  "contractName": "Staking",
  "sourceName": "contracts/Staker2.sol",
  "abi": [
    {
      "inputs": [],
      "stateMutability": "nonpayable",
      "type": "constructor"
    },
    {
      "inputs": [
        {
          "internalType": "address",
          "name": "",
          "type": "address"
        },
        {
          "internalType": "bytes32",
          "name": "",
          "type": "bytes32"
        }
      ],
      "name": "accountBalances",
      "outputs": [
        {
          "internalType": "uint256",
          "name": "",
          "type": "uint256"
        }
      ],
      "stateMutability": "view",
      "type": "function"
    },
    {
      "inputs": [
        {
          "internalType": "uint256",
          "name": "amount",
          "type": "uint256"
        },
        {
          "internalType": "bytes32",
          "name": "symbol",
          "type": "bytes32"
        }
      ],
      "name": "depositTokens",
      "outputs": [],
      "stateMutability": "nonpayable",
      "type": "function"
    },
    {
      "inputs": [
        {
          "internalType": "bytes32",
          "name": "token",
          "type": "bytes32"
        }
      ],
      "name": "getWhitelistedTokenAddresses",
      "outputs": [
        {
          "internalType": "address",
          "name": "",
          "type": "address"
        }
      ],
      "stateMutability": "view",
      "type": "function"
    },
    {
      "inputs": [
        {
          "internalType": "bytes32",
          "name": "symbol",
          "type": "bytes32"
        },
        {
          "internalType": "address",
          "name": "tokenAddress",
          "type": "address"
        }
      ],
      "name": "whitelistToken",
      "outputs": [],
      "stateMutability": "nonpayable",
      "type": "function"
    },
    {
      "inputs": [
        {
          "internalType": "bytes32",
          "name": "",
          "type": "bytes32"
        }
      ],
      "name": "whitelistedTokens",
      "outputs": [
        {
          "internalType": "address",
          "name": "",
          "type": "address"
        }
      ],
      "stateMutability": "view",
      "type": "function"
    },
    {
      "inputs": [
        {
          "internalType": "uint256",
          "name": "amount",
          "type": "uint256"
        },
        {
          "internalType": "bytes32",
          "name": "symbol",
          "type": "bytes32"
        }
      ],
      "name": "withdrawTokens",
      "outputs": [],
      "stateMutability": "nonpayable",
      "type": "function"
    }
  ],
  "bytecode": "0x608060405234801561001057600080fd5b50336000806101000a81548173ffffffffffffffffffffffffffffffffffffffff021916908373ffffffffffffffffffffffffffffffffffffffff160217905550610a45806100606000396000f3fe608060405234801561001057600080fd5b50600436106100625760003560e01c8063069fdaae146100675780633586932b146100835780638f97994b146100b3578063aa3d9a15146100cf578063d15b223e146100ff578063e64fe3661461011b575b600080fd5b610081600480360381019061007c9190610693565b61014b565b005b61009d6004803603810190610098919061066a565b61022f565b6040516100aa919061076f565b60405180910390f35b6100cd60048036038101906100c891906106cf565b61026c565b005b6100e960048036038101906100e4919061066a565b61042b565b6040516100f6919061076f565b60405180910390f35b610119600480360381019061011491906106cf565b61045e565b005b61013560048036038101906101309190610605565b61058c565b604051610142919061082a565b60405180910390f35b60008054906101000a900473ffffffffffffffffffffffffffffffffffffffff1673ffffffffffffffffffffffffffffffffffffffff163373ffffffffffffffffffffffffffffffffffffffff16146101d9576040517f08c379a00000000000000000000000000000000000000000000000000000000081526004016101d0906107ea565b60405180910390fd5b806001600084815260200190815260200160002060006101000a81548173ffffffffffffffffffffffffffffffffffffffff021916908373ffffffffffffffffffffffffffffffffffffffff1602179055505050565b60006001600083815260200190815260200160002060009054906101000a900473ffffffffffffffffffffffffffffffffffffffff169050919050565b81600260003373ffffffffffffffffffffffffffffffffffffffff1673ffffffffffffffffffffffffffffffffffffffff16815260200190815260200160002060008381526020019081526020016000205410156102ff576040517f08c379a00000000000000000000000000000000000000000000000000000000081526004016102f69061080a565b60405180910390fd5b81600260003373ffffffffffffffffffffffffffffffffffffffff1673ffffffffffffffffffffffffffffffffffffffff1681526020019081526020016000206000838152602001908152602001600020600082825461035f91906108ac565b925050819055506001600082815260200190815260200160002060009054906101000a900473ffffffffffffffffffffffffffffffffffffffff1673ffffffffffffffffffffffffffffffffffffffff1663a9059cbb33846040518363ffffffff1660e01b81526004016103d49291906107c1565b602060405180830381600087803b1580156103ee57600080fd5b505af1158015610402573d6000803e3d6000fd5b505050506040513d601f19601f820116820180604052508101906104269190610641565b505050565b60016020528060005260406000206000915054906101000a900473ffffffffffffffffffffffffffffffffffffffff1681565b81600260003373ffffffffffffffffffffffffffffffffffffffff1673ffffffffffffffffffffffffffffffffffffffff168152602001908152602001600020600083815260200190815260200160002060008282546104be9190610856565b925050819055506001600082815260200190815260200160002060009054906101000a900473ffffffffffffffffffffffffffffffffffffffff1673ffffffffffffffffffffffffffffffffffffffff166323b872dd3330856040518463ffffffff1660e01b81526004016105359392919061078a565b602060405180830381600087803b15801561054f57600080fd5b505af1158015610563573d6000803e3d6000fd5b505050506040513d601f19601f820116820180604052508101906105879190610641565b505050565b6002602052816000526040600020602052806000526040600020600091509150505481565b6000813590506105c0816109b3565b92915050565b6000815190506105d5816109ca565b92915050565b6000813590506105ea816109e1565b92915050565b6000813590506105ff816109f8565b92915050565b6000806040838503121561061857600080fd5b6000610626858286016105b1565b9250506020610637858286016105db565b9150509250929050565b60006020828403121561065357600080fd5b6000610661848285016105c6565b91505092915050565b60006020828403121561067c57600080fd5b600061068a848285016105db565b91505092915050565b600080604083850312156106a657600080fd5b60006106b4858286016105db565b92505060206106c5858286016105b1565b9150509250929050565b600080604083850312156106e257600080fd5b60006106f0858286016105f0565b9250506020610701858286016105db565b9150509250929050565b610714816108e0565b82525050565b6000610727601b83610845565b915061073282610961565b602082019050919050565b600061074a601183610845565b91506107558261098a565b602082019050919050565b61076981610928565b82525050565b6000602082019050610784600083018461070b565b92915050565b600060608201905061079f600083018661070b565b6107ac602083018561070b565b6107b96040830184610760565b949350505050565b60006040820190506107d6600083018561070b565b6107e36020830184610760565b9392505050565b600060208201905081810360008301526108038161071a565b9050919050565b600060208201905081810360008301526108238161073d565b9050919050565b600060208201905061083f6000830184610760565b92915050565b600082825260208201905092915050565b600061086182610928565b915061086c83610928565b9250827fffffffffffffffffffffffffffffffffffffffffffffffffffffffffffffffff038211156108a1576108a0610932565b5b828201905092915050565b60006108b782610928565b91506108c283610928565b9250828210156108d5576108d4610932565b5b828203905092915050565b60006108eb82610908565b9050919050565b60008115159050919050565b6000819050919050565b600073ffffffffffffffffffffffffffffffffffffffff82169050919050565b6000819050919050565b7f4e487b7100000000000000000000000000000000000000000000000000000000600052601160045260246000fd5b7f546869732066756e6374696f6e206973206e6f74207075626c69630000000000600082015250565b7f496e737566666963656e742066756e6473000000000000000000000000000000600082015250565b6109bc816108e0565b81146109c757600080fd5b50565b6109d3816108f2565b81146109de57600080fd5b50565b6109ea816108fe565b81146109f557600080fd5b50565b610a0181610928565b8114610a0c57600080fd5b5056fea264697066735822122069e812b483d8f499595309687e7f4e5fe0621aad20035e402598b39b533237ab64736f6c63430008040033",
  "linkReferences": {},
  "deployedLinkReferences": {}
}