{
  "_format": "hh-sol-artifact-1",
  "contractName": "EscrowERC721",
  "sourceName": "contracts/EscrowERC721.sol",
  "abi": [
    {
      "inputs": [
        {
          "internalType": "contract IERC721",
          "name": "_token",
          "type": "address"
        }
      ],
      "stateMutability": "nonpayable",
      "type": "constructor"
    },
    {
      "inputs": [
        {
          "internalType": "address",
          "name": "_receiver",
          "type": "address"
        },
        {
          "internalType": "uint256",
          "name": "_itemId",
          "type": "uint256"
        }
      ],
      "name": "deposit",
      "outputs": [
        {
          "internalType": "uint256",
          "name": "",
          "type": "uint256"
        }
      ],
      "stateMutability": "nonpayable",
      "type": "function"
    },
    {
      "inputs": [
        {
          "internalType": "uint256",
          "name": "",
          "type": "uint256"
        }
      ],
      "name": "items",
      "outputs": [
        {
          "internalType": "address",
          "name": "sender",
          "type": "address"
        },
        {
          "internalType": "address",
          "name": "receiver",
          "type": "address"
        },
        {
          "internalType": "uint256",
          "name": "itemId",
          "type": "uint256"
        }
      ],
      "stateMutability": "view",
      "type": "function"
    },
    {
      "inputs": [
        {
          "internalType": "uint256",
          "name": "transactionId",
          "type": "uint256"
        }
      ],
      "name": "rollback",
      "outputs": [],
      "stateMutability": "nonpayable",
      "type": "function"
    },
    {
      "inputs": [
        {
          "internalType": "uint256",
          "name": "_id",
          "type": "uint256"
        }
      ],
      "name": "withdraw",
      "outputs": [],
      "stateMutability": "nonpayable",
      "type": "function"
    }
  ],
  "bytecode": "0x608060405234801561001057600080fd5b50604051610b40380380610b408339818101604052810190610032919061008e565b80600160006101000a81548173ffffffffffffffffffffffffffffffffffffffff021916908373ffffffffffffffffffffffffffffffffffffffff16021790555050610112565b600081519050610088816100fb565b92915050565b6000602082840312156100a057600080fd5b60006100ae84828501610079565b91505092915050565b60006100c2826100db565b9050919050565b60006100d4826100b7565b9050919050565b600073ffffffffffffffffffffffffffffffffffffffff82169050919050565b610104816100c9565b811461010f57600080fd5b50565b610a1f806101216000396000f3fe608060405234801561001057600080fd5b506004361061004c5760003560e01c80630da9da20146100515780632e1a7d4d1461006d57806347e7ef2414610089578063bfb231d2146100b9575b600080fd5b61006b600480360381019061006691906107fd565b6100eb565b005b610087600480360381019061008291906107fd565b6102b1565b005b6100a3600480360381019061009e91906107c1565b610409565b6040516100b09190610901565b60405180910390f35b6100d360048036038101906100ce91906107fd565b6106cb565b6040516100e29392919061088a565b60405180910390f35b60006002600083815260200190815260200160002060000160009054906101000a900473ffffffffffffffffffffffffffffffffffffffff1690506000600260008481526020019081526020016000206002015490503373ffffffffffffffffffffffffffffffffffffffff168273ffffffffffffffffffffffffffffffffffffffff16146101af576040517f08c379a00000000000000000000000000000000000000000000000000000000081526004016101a6906108c1565b60405180910390fd5b60026000828152602001908152602001600020600080820160006101000a81549073ffffffffffffffffffffffffffffffffffffffff02191690556001820160006101000a81549073ffffffffffffffffffffffffffffffffffffffff021916905560028201600090555050600160009054906101000a900473ffffffffffffffffffffffffffffffffffffffff1673ffffffffffffffffffffffffffffffffffffffff166323b872dd3084846040518463ffffffff1660e01b815260040161027a9392919061088a565b600060405180830381600087803b15801561029457600080fd5b505af11580156102a8573d6000803e3d6000fd5b50505050505050565b60006002600083815260200190815260200160002060010160009054906101000a900473ffffffffffffffffffffffffffffffffffffffff16905060006002600084815260200190815260200160002060020154905060026000848152602001908152602001600020600080820160006101000a81549073ffffffffffffffffffffffffffffffffffffffff02191690556001820160006101000a81549073ffffffffffffffffffffffffffffffffffffffff021916905560028201600090555050600160009054906101000a900473ffffffffffffffffffffffffffffffffffffffff1673ffffffffffffffffffffffffffffffffffffffff166323b872dd3084846040518463ffffffff1660e01b81526004016103d29392919061088a565b600060405180830381600087803b1580156103ec57600080fd5b505af1158015610400573d6000803e3d6000fd5b50505050505050565b6000600160009054906101000a900473ffffffffffffffffffffffffffffffffffffffff1673ffffffffffffffffffffffffffffffffffffffff16636352211e836040518263ffffffff1660e01b81526004016104669190610901565b60206040518083038186803b15801561047e57600080fd5b505afa158015610492573d6000803e3d6000fd5b505050506040513d601f19601f820116820180604052508101906104b69190610798565b73ffffffffffffffffffffffffffffffffffffffff163373ffffffffffffffffffffffffffffffffffffffff1614610523576040517f08c379a000000000000000000000000000000000000000000000000000000000815260040161051a906108e1565b60405180910390fd5b600061052f6000610735565b9050600160009054906101000a900473ffffffffffffffffffffffffffffffffffffffff1673ffffffffffffffffffffffffffffffffffffffff166323b872dd3330866040518463ffffffff1660e01b81526004016105909392919061088a565b600060405180830381600087803b1580156105aa57600080fd5b505af11580156105be573d6000803e3d6000fd5b5050505060405180606001604052803373ffffffffffffffffffffffffffffffffffffffff1681526020018573ffffffffffffffffffffffffffffffffffffffff168152602001848152506002600083815260200190815260200160002060008201518160000160006101000a81548173ffffffffffffffffffffffffffffffffffffffff021916908373ffffffffffffffffffffffffffffffffffffffff16021790555060208201518160010160006101000a81548173ffffffffffffffffffffffffffffffffffffffff021916908373ffffffffffffffffffffffffffffffffffffffff160217905550604082015181600201559050506106c16000610743565b8091505092915050565b60026020528060005260406000206000915090508060000160009054906101000a900473ffffffffffffffffffffffffffffffffffffffff16908060010160009054906101000a900473ffffffffffffffffffffffffffffffffffffffff16908060020154905083565b600081600001549050919050565b6001816000016000828254019250508190555050565b600081359050610768816109bb565b92915050565b60008151905061077d816109bb565b92915050565b600081359050610792816109d2565b92915050565b6000602082840312156107aa57600080fd5b60006107b88482850161076e565b91505092915050565b600080604083850312156107d457600080fd5b60006107e285828601610759565b92505060206107f385828601610783565b9150509250929050565b60006020828403121561080f57600080fd5b600061081d84828501610783565b91505092915050565b61082f8161092d565b82525050565b6000610842600c8361091c565b915061084d82610969565b602082019050919050565b6000610865600c8361091c565b915061087082610992565b602082019050919050565b6108848161095f565b82525050565b600060608201905061089f6000830186610826565b6108ac6020830185610826565b6108b9604083018461087b565b949350505050565b600060208201905081810360008301526108da81610835565b9050919050565b600060208201905081810360008301526108fa81610858565b9050919050565b6000602082019050610916600083018461087b565b92915050565b600082825260208201905092915050565b60006109388261093f565b9050919050565b600073ffffffffffffffffffffffffffffffffffffffff82169050919050565b6000819050919050565b7f4e6f7420612073656e6465720000000000000000000000000000000000000000600082015250565b7f4e6f7420616e206f776e65720000000000000000000000000000000000000000600082015250565b6109c48161092d565b81146109cf57600080fd5b50565b6109db8161095f565b81146109e657600080fd5b5056fea26469706673582212201d7a25eec70d897973f52707d11b7a7e8545e1bc5a7764ceb9fb6dd1acd174d964736f6c63430008040033",
  "linkReferences": {},
  "deployedLinkReferences": {}
}