{
  "_format": "hh-sol-artifact-1",
  "contractName": "Staker",
  "sourceName": "contracts/Staker.sol",
  "abi": [
    {
      "inputs": [
        {
          "internalType": "address",
          "name": "_walletAddress",
          "type": "address"
        },
        {
          "internalType": "address",
          "name": "_erc20Address",
          "type": "address"
        },
        {
          "internalType": "address",
          "name": "_erc721Address",
          "type": "address"
        },
        {
          "components": [
            {
              "components": [
                {
                  "internalType": "uint256",
                  "name": "chance",
                  "type": "uint256"
                },
                {
                  "internalType": "uint256",
                  "name": "drop",
                  "type": "uint256"
                }
              ],
              "internalType": "struct Staker.Tier",
              "name": "t1",
              "type": "tuple"
            },
            {
              "components": [
                {
                  "internalType": "uint256",
                  "name": "chance",
                  "type": "uint256"
                },
                {
                  "internalType": "uint256",
                  "name": "drop",
                  "type": "uint256"
                }
              ],
              "internalType": "struct Staker.Tier",
              "name": "t2",
              "type": "tuple"
            },
            {
              "components": [
                {
                  "internalType": "uint256",
                  "name": "chance",
                  "type": "uint256"
                },
                {
                  "internalType": "uint256",
                  "name": "drop",
                  "type": "uint256"
                }
              ],
              "internalType": "struct Staker.Tier",
              "name": "t3",
              "type": "tuple"
            },
            {
              "components": [
                {
                  "internalType": "uint256",
                  "name": "chance",
                  "type": "uint256"
                },
                {
                  "internalType": "uint256",
                  "name": "drop",
                  "type": "uint256"
                }
              ],
              "internalType": "struct Staker.Tier",
              "name": "t4",
              "type": "tuple"
            },
            {
              "components": [
                {
                  "internalType": "uint256",
                  "name": "chance",
                  "type": "uint256"
                },
                {
                  "internalType": "uint256",
                  "name": "drop",
                  "type": "uint256"
                }
              ],
              "internalType": "struct Staker.Tier",
              "name": "t5",
              "type": "tuple"
            }
          ],
          "internalType": "struct Staker.Tiers",
          "name": "_tiers",
          "type": "tuple"
        }
      ],
      "stateMutability": "nonpayable",
      "type": "constructor"
    },
    {
      "anonymous": false,
      "inputs": [
        {
          "indexed": true,
          "internalType": "address",
          "name": "sender",
          "type": "address"
        },
        {
          "indexed": false,
          "internalType": "uint256",
          "name": "amount",
          "type": "uint256"
        },
        {
          "indexed": false,
          "internalType": "uint256",
          "name": "random",
          "type": "uint256"
        }
      ],
      "name": "Airdrop",
      "type": "event"
    },
    {
      "anonymous": false,
      "inputs": [
        {
          "indexed": true,
          "internalType": "address",
          "name": "sender",
          "type": "address"
        },
        {
          "indexed": false,
          "internalType": "uint256",
          "name": "amount",
          "type": "uint256"
        },
        {
          "indexed": false,
          "internalType": "uint256",
          "name": "period",
          "type": "uint256"
        },
        {
          "indexed": false,
          "internalType": "uint256",
          "name": "points",
          "type": "uint256"
        }
      ],
      "name": "ERC20Staked",
      "type": "event"
    },
    {
      "anonymous": false,
      "inputs": [
        {
          "indexed": true,
          "internalType": "address",
          "name": "sender",
          "type": "address"
        }
      ],
      "name": "ERC20Withdraw",
      "type": "event"
    },
    {
      "anonymous": false,
      "inputs": [
        {
          "indexed": true,
          "internalType": "address",
          "name": "sender",
          "type": "address"
        },
        {
          "indexed": false,
          "internalType": "uint256",
          "name": "tokenId",
          "type": "uint256"
        },
        {
          "indexed": false,
          "internalType": "uint256",
          "name": "period",
          "type": "uint256"
        },
        {
          "indexed": false,
          "internalType": "uint256",
          "name": "points",
          "type": "uint256"
        }
      ],
      "name": "ERC721Staked",
      "type": "event"
    },
    {
      "anonymous": false,
      "inputs": [
        {
          "indexed": true,
          "internalType": "address",
          "name": "sender",
          "type": "address"
        }
      ],
      "name": "ERC721Withdraw",
      "type": "event"
    },
    {
      "anonymous": false,
      "inputs": [
        {
          "indexed": true,
          "internalType": "address",
          "name": "previousOwner",
          "type": "address"
        },
        {
          "indexed": true,
          "internalType": "address",
          "name": "newOwner",
          "type": "address"
        }
      ],
      "name": "OwnershipTransferred",
      "type": "event"
    },
    {
      "anonymous": false,
      "inputs": [
        {
          "indexed": true,
          "internalType": "address",
          "name": "addr",
          "type": "address"
        },
        {
          "indexed": false,
          "internalType": "string",
          "name": "name",
          "type": "string"
        },
        {
          "indexed": false,
          "internalType": "uint256",
          "name": "startTime",
          "type": "uint256"
        },
        {
          "indexed": false,
          "internalType": "uint256",
          "name": "stopTime",
          "type": "uint256"
        },
        {
          "indexed": false,
          "internalType": "uint256",
          "name": "supply",
          "type": "uint256"
        }
      ],
      "name": "ProjectAdded",
      "type": "event"
    },
    {
      "anonymous": false,
      "inputs": [
        {
          "indexed": true,
          "internalType": "address",
          "name": "addr",
          "type": "address"
        }
      ],
      "name": "ProjectDeleted",
      "type": "event"
    },
    {
      "inputs": [],
      "name": "DAY",
      "outputs": [
        {
          "internalType": "uint256",
          "name": "",
          "type": "uint256"
        }
      ],
      "stateMutability": "view",
      "type": "function"
    },
    {
      "inputs": [],
      "name": "MONTH",
      "outputs": [
        {
          "internalType": "uint256",
          "name": "",
          "type": "uint256"
        }
      ],
      "stateMutability": "view",
      "type": "function"
    },
    {
      "inputs": [],
      "name": "YEAR",
      "outputs": [
        {
          "internalType": "uint256",
          "name": "",
          "type": "uint256"
        }
      ],
      "stateMutability": "view",
      "type": "function"
    },
    {
      "inputs": [
        {
          "internalType": "string",
          "name": "_name",
          "type": "string"
        },
        {
          "internalType": "address",
          "name": "_addr",
          "type": "address"
        },
        {
          "internalType": "uint256",
          "name": "_startTimestamp",
          "type": "uint256"
        },
        {
          "internalType": "uint256",
          "name": "_stopTimestamp",
          "type": "uint256"
        },
        {
          "internalType": "uint256",
          "name": "_supply",
          "type": "uint256"
        }
      ],
      "name": "addProject",
      "outputs": [],
      "stateMutability": "nonpayable",
      "type": "function"
    },
    {
      "inputs": [],
      "name": "airdrop",
      "outputs": [],
      "stateMutability": "nonpayable",
      "type": "function"
    },
    {
      "inputs": [
        {
          "internalType": "address",
          "name": "_project",
          "type": "address"
        }
      ],
      "name": "checkProject",
      "outputs": [],
      "stateMutability": "view",
      "type": "function"
    },
    {
      "inputs": [
        {
          "internalType": "address",
          "name": "_addr",
          "type": "address"
        }
      ],
      "name": "getPoints",
      "outputs": [
        {
          "internalType": "uint256",
          "name": "",
          "type": "uint256"
        }
      ],
      "stateMutability": "view",
      "type": "function"
    },
    {
      "inputs": [],
      "name": "getTimestamp",
      "outputs": [
        {
          "internalType": "uint256",
          "name": "",
          "type": "uint256"
        }
      ],
      "stateMutability": "view",
      "type": "function"
    },
    {
      "inputs": [
        {
          "internalType": "address",
          "name": "_staker",
          "type": "address"
        }
      ],
      "name": "getTotalERC20Stakes",
      "outputs": [
        {
          "internalType": "uint256",
          "name": "",
          "type": "uint256"
        }
      ],
      "stateMutability": "view",
      "type": "function"
    },
    {
      "inputs": [],
      "name": "owner",
      "outputs": [
        {
          "internalType": "address",
          "name": "",
          "type": "address"
        }
      ],
      "stateMutability": "view",
      "type": "function"
    },
    {
      "inputs": [
        {
          "internalType": "address",
          "name": "_addr",
          "type": "address"
        }
      ],
      "name": "removeProject",
      "outputs": [],
      "stateMutability": "nonpayable",
      "type": "function"
    },
    {
      "inputs": [],
      "name": "renounceOwnership",
      "outputs": [],
      "stateMutability": "nonpayable",
      "type": "function"
    },
    {
      "inputs": [
        {
          "internalType": "address",
          "name": "_project",
          "type": "address"
        },
        {
          "internalType": "uint256",
          "name": "_stake",
          "type": "uint256"
        },
        {
          "internalType": "uint256",
          "name": "_period",
          "type": "uint256"
        }
      ],
      "name": "stakeERC20",
      "outputs": [],
      "stateMutability": "nonpayable",
      "type": "function"
    },
    {
      "inputs": [
        {
          "internalType": "address",
          "name": "_project",
          "type": "address"
        },
        {
          "internalType": "uint256",
          "name": "_tokenId",
          "type": "uint256"
        },
        {
          "internalType": "uint256",
          "name": "_period",
          "type": "uint256"
        }
      ],
      "name": "stakeERC721",
      "outputs": [],
      "stateMutability": "nonpayable",
      "type": "function"
    },
    {
      "inputs": [
        {
          "internalType": "address",
          "name": "newOwner",
          "type": "address"
        }
      ],
      "name": "transferOwnership",
      "outputs": [],
      "stateMutability": "nonpayable",
      "type": "function"
    },
    {
      "inputs": [],
      "name": "withdrawERC20",
      "outputs": [],
      "stateMutability": "nonpayable",
      "type": "function"
    },
    {
      "inputs": [],
      "name": "withdrawERC721",
      "outputs": [],
      "stateMutability": "nonpayable",
      "type": "function"
    }
  ],
  "bytecode": "0x60806040523480156200001157600080fd5b5060405162003ed338038062003ed38339818101604052810190620000379190620003b0565b620000576200004b620001cc60201b60201c565b620001d460201b60201c565b6001808190555083600f60006101000a81548173ffffffffffffffffffffffffffffffffffffffff021916908373ffffffffffffffffffffffffffffffffffffffff16021790555082600d60006101000a81548173ffffffffffffffffffffffffffffffffffffffff021916908373ffffffffffffffffffffffffffffffffffffffff16021790555081600e60006101000a81548173ffffffffffffffffffffffffffffffffffffffff021916908373ffffffffffffffffffffffffffffffffffffffff1602179055508060036000820151816000016000820151816000015560208201518160010155505060208201518160020160008201518160000155602082015181600101555050604082015181600401600082015181600001556020820151816001015550506060820151816006016000820151816000015560208201518160010155505060808201518160080160008201518160000155602082015181600101555050905050505050506200052e565b600033905090565b60008060009054906101000a900473ffffffffffffffffffffffffffffffffffffffff169050816000806101000a81548173ffffffffffffffffffffffffffffffffffffffff021916908373ffffffffffffffffffffffffffffffffffffffff1602179055508173ffffffffffffffffffffffffffffffffffffffff168173ffffffffffffffffffffffffffffffffffffffff167f8be0079c531659141344cd1fd0a4f28419497f9722a3daafe3b4186f6b6457e060405160405180910390a35050565b600081519050620002a981620004fa565b92915050565b600060408284031215620002c257600080fd5b620002ce60406200041d565b90506000620002e08482850162000399565b6000830152506020620002f68482850162000399565b60208301525092915050565b600061014082840312156200031657600080fd5b6200032260a06200041d565b905060006200033484828501620002af565b60008301525060406200034a84828501620002af565b60208301525060806200036084828501620002af565b60408301525060c06200037684828501620002af565b6060830152506101006200038d84828501620002af565b60808301525092915050565b600081519050620003aa8162000514565b92915050565b6000806000806101a08587031215620003c857600080fd5b6000620003d88782880162000298565b9450506020620003eb8782880162000298565b9350506040620003fe8782880162000298565b9250506060620004118782880162000302565b91505092959194509250565b6000620004296200043c565b905062000437828262000484565b919050565b6000604051905090565b600062000453826200045a565b9050919050565b600073ffffffffffffffffffffffffffffffffffffffff82169050919050565b6000819050919050565b6200048f82620004e9565b810181811067ffffffffffffffff82111715620004b157620004b0620004ba565b5b80604052505050565b7f4e487b7100000000000000000000000000000000000000000000000000000000600052604160045260246000fd5b6000601f19601f8301169050919050565b620005058162000446565b81146200051157600080fd5b50565b6200051f816200047a565b81146200052b57600080fd5b50565b613995806200053e6000396000f3fe608060405234801561001057600080fd5b506004361061010b5760003560e01c80637c251468116100a257806393be60f41161007157806393be60f414610246578063a144681714610262578063d5999a5c1461026c578063ee204abb1461028a578063f2fde38b146102ba5761010b565b80637c251468146101be57806383914540146101ee5780638d4a9e851461020c5780638da5cb5b146102285761010b565b80632ed6d5e8116100de5780632ed6d5e8146101845780633884d6351461018e578063621519c014610198578063715018a6146101b45761010b565b80630c0ad29914610110578063188ec3561461012c578063269cc8f11461014a57806327cfe85614610166575b600080fd5b61012a60048036038101906101259190612f42565b6102d6565b005b6101346104ee565b604051610141919061338d565b60405180910390f35b610164600480360381019061015f9190612f42565b6104fe565b005b61016e6105b5565b60405161017b919061338d565b60405180910390f35b61018c6105ba565b005b6101966109fe565b005b6101b260048036038101906101ad9190612f6b565b610dec565b005b6101bc61128b565b005b6101d860048036038101906101d39190612f42565b61129f565b6040516101e5919061338d565b60405180910390f35b6101f661143f565b604051610203919061338d565b60405180910390f35b61022660048036038101906102219190612f6b565b611447565b005b610230611976565b60405161023d9190613206565b60405180910390f35b610260600480360381019061025b9190612fe3565b61199f565b005b61026a611b03565b005b610274611e81565b604051610281919061338d565b60405180910390f35b6102a4600480360381019061029f9190612f42565b611e88565b6040516102b1919061338d565b60405180910390f35b6102d460048036038101906102cf9190612f42565b611ed9565b005b6102de611f5d565b6000806102ea83611fdb565b9150915081156104e95760026001600280549050610308919061355b565b8154811061033f577f4e487b7100000000000000000000000000000000000000000000000000000000600052603260045260246000fd5b906000526020600020906005020160028281548110610387577f4e487b7100000000000000000000000000000000000000000000000000000000600052603260045260246000fd5b906000526020600020906005020160008201816000019080546103a990613619565b6103b492919061296d565b506001820160009054906101000a900473ffffffffffffffffffffffffffffffffffffffff168160010160006101000a81548173ffffffffffffffffffffffffffffffffffffffff021916908373ffffffffffffffffffffffffffffffffffffffff16021790555060028201548160020155600382015481600301556004820154816004015590505060026001600280549050610451919061355b565b81548110610488577f4e487b7100000000000000000000000000000000000000000000000000000000600052603260045260246000fd5b9060005260206000209060050201600080820160006104a791906129fa565b6001820160006101000a81549073ffffffffffffffffffffffffffffffffffffffff021916905560028201600090556003820160009055600482016000905550505b505050565b60006104f8611f5d565b42905090565b600061050982611fdb565b5090508061054c576040517f08c379a00000000000000000000000000000000000000000000000000000000081526004016105439061332d565b60405180910390fd5b6000610557836120be565b905042816040015111158015610571575042816060015110155b6105b0576040517f08c379a00000000000000000000000000000000000000000000000000000000081526004016105a79061334d565b60405180910390fd5b505050565b600c81565b60026001541415610600576040517f08c379a00000000000000000000000000000000000000000000000000000000081526004016105f79061336d565b60405180910390fd5b60026001819055506000601260003373ffffffffffffffffffffffffffffffffffffffff1673ffffffffffffffffffffffffffffffffffffffff168152602001908152602001600020805480602002602001604051908101604052809291908181526020016000905b8282101561070f57838290600052602060002090600402016040518060800160405290816000820160009054906101000a900473ffffffffffffffffffffffffffffffffffffffff1673ffffffffffffffffffffffffffffffffffffffff1673ffffffffffffffffffffffffffffffffffffffff168152602001600182015481526020016002820154815260200160038201548152505081526020019060010190610669565b50505050905060008082511115610952576000805b83518110156107ed5742848281518110610767577f4e487b7100000000000000000000000000000000000000000000000000000000600052603260045260246000fd5b602002602001015160400151116107d9578381815181106107b1577f4e487b7100000000000000000000000000000000000000000000000000000000600052603260045260246000fd5b602002602001015160200151826107c8919061347a565b915082806107d59061367c565b9350505b6001816107e6919061347a565b9050610724565b50600d60009054906101000a900473ffffffffffffffffffffffffffffffffffffffff1673ffffffffffffffffffffffffffffffffffffffff1663095ea7b333836040518363ffffffff1660e01b815260040161084b929190613258565b602060405180830381600087803b15801561086557600080fd5b505af1158015610879573d6000803e3d6000fd5b505050506040513d601f19601f8201168201806040525081019061089d9190612fba565b50600d60009054906101000a900473ffffffffffffffffffffffffffffffffffffffff1673ffffffffffffffffffffffffffffffffffffffff166323b872dd3033846040518463ffffffff1660e01b81526004016108fd93929190613221565b602060405180830381600087803b15801561091757600080fd5b505af115801561092b573d6000803e3d6000fd5b505050506040513d601f19601f8201168201806040525081019061094f9190612fba565b50505b81518114156109f357601260003373ffffffffffffffffffffffffffffffffffffffff1673ffffffffffffffffffffffffffffffffffffffff16815260200190815260200160002060006109a69190612a3a565b6109af33612307565b3373ffffffffffffffffffffffffffffffffffffffff167fe4f56a6242bdc53b3c612356895ac6c921dd7a93c3ba097ccf191380d481927660405160405180910390a25b505060018081905550565b601460003373ffffffffffffffffffffffffffffffffffffffff1673ffffffffffffffffffffffffffffffffffffffff16815260200190815260200160002054421015610a80576040517f08c379a0000000000000000000000000000000000000000000000000000000008152600401610a77906132ed565b60405180910390fd5b6000610a8c60646123b0565b90506000601660003373ffffffffffffffffffffffffffffffffffffffff1673ffffffffffffffffffffffffffffffffffffffff16815260200190815260200160002054905060006001821415610afd576003600801600001548311610af85760036008016001015490505b610bc8565b600182118015610b0e575060058211155b15610b33576003600601600001548311610b2e5760036006016001015490505b610bc7565b600582118015610b445750600a8211155b15610b69576003600401600001548311610b645760036004016001015490505b610bc6565b600a82118015610b7a5750600f8211155b15610b9f576003600201600001548311610b9a5760036002016001015490505b610bc5565b6014821115610bc4576003600001600001548311610bc35760036000016001015490505b5b5b5b5b5b3373ffffffffffffffffffffffffffffffffffffffff167fada993ad066837289fe186cd37227aa338d27519a8a1547472ecb9831486d2728285604051610c109291906133a8565b60405180910390a26000610c82601560003373ffffffffffffffffffffffffffffffffffffffff1673ffffffffffffffffffffffffffffffffffffffff16815260200190815260200160002060009054906101000a900473ffffffffffffffffffffffffffffffffffffffff166120be565b9050600082118015610c98575080608001518211155b15610de657806020015173ffffffffffffffffffffffffffffffffffffffff1663095ea7b333846040518363ffffffff1660e01b8152600401610cdc929190613258565b602060405180830381600087803b158015610cf657600080fd5b505af1158015610d0a573d6000803e3d6000fd5b505050506040513d601f19601f82011682018060405250810190610d2e9190612fba565b50806020015173ffffffffffffffffffffffffffffffffffffffff166323b872dd600f60009054906101000a900473ffffffffffffffffffffffffffffffffffffffff1633856040518463ffffffff1660e01b8152600401610d9293929190613221565b602060405180830381600087803b158015610dac57600080fd5b505af1158015610dc0573d6000803e3d6000fd5b505050506040513d601f19601f82011682018060405250810190610de49190612fba565b505b50505050565b60026001541415610e32576040517f08c379a0000000000000000000000000000000000000000000000000000000008152600401610e299061336d565b60405180910390fd5b6002600181905550610e43836104fe565b82601560003373ffffffffffffffffffffffffffffffffffffffff1673ffffffffffffffffffffffffffffffffffffffff16815260200190815260200160002060006101000a81548173ffffffffffffffffffffffffffffffffffffffff021916908373ffffffffffffffffffffffffffffffffffffffff160217905550600e60009054906101000a900473ffffffffffffffffffffffffffffffffffffffff1673ffffffffffffffffffffffffffffffffffffffff166323b872dd3330856040518463ffffffff1660e01b8152600401610f2093929190613221565b600060405180830381600087803b158015610f3a57600080fd5b505af1158015610f4e573d6000803e3d6000fd5b50505050610f5b336123f2565b6000601360003373ffffffffffffffffffffffffffffffffffffffff1673ffffffffffffffffffffffffffffffffffffffff1681526020019081526020016000209050806040518060a001604052808673ffffffffffffffffffffffffffffffffffffffff168152602001858152602001600015158152602001600e600c610fe39190613501565b42610fee919061347a565b815260200142815250908060018154018082558091505060019003906000526020600020906005020160009091909190915060008201518160000160006101000a81548173ffffffffffffffffffffffffffffffffffffffff021916908373ffffffffffffffffffffffffffffffffffffffff1602179055506020820151816001015560408201518160020160006101000a81548160ff0219169083151502179055506060820151816003015560808201518160040155505080601360003373ffffffffffffffffffffffffffffffffffffffff1673ffffffffffffffffffffffffffffffffffffffff1681526020019081526020016000209080546110f5929190612a5e565b50816001601660003373ffffffffffffffffffffffffffffffffffffffff1673ffffffffffffffffffffffffffffffffffffffff16815260200190815260200160002054611143919061347a565b61114d919061347a565b601660003373ffffffffffffffffffffffffffffffffffffffff1673ffffffffffffffffffffffffffffffffffffffff168152602001908152602001600020819055506228de808261119f9190613501565b426111aa919061347a565b601460003373ffffffffffffffffffffffffffffffffffffffff1673ffffffffffffffffffffffffffffffffffffffff168152602001908152602001600020819055503373ffffffffffffffffffffffffffffffffffffffff167f9cd91c6d6d7422237c88bee3bd5a079214f14626ff726777477a7917c9cf12c38484601660003373ffffffffffffffffffffffffffffffffffffffff1673ffffffffffffffffffffffffffffffffffffffff16815260200190815260200160002054604051611276939291906133d1565b60405180910390a25060018081905550505050565b611293611f5d565b61129d60006124f4565b565b60006112a9611f5d565b6000601260008473ffffffffffffffffffffffffffffffffffffffff1673ffffffffffffffffffffffffffffffffffffffff168152602001908152602001600020805480602002602001604051908101604052809291908181526020016000905b828210156113b057838290600052602060002090600402016040518060800160405290816000820160009054906101000a900473ffffffffffffffffffffffffffffffffffffffff1673ffffffffffffffffffffffffffffffffffffffff1673ffffffffffffffffffffffffffffffffffffffff16815260200160018201548152602001600282015481526020016003820154815250508152602001906001019061130a565b505050509050600080825111156114355760005b825181101561143357828181518110611406577f4e487b7100000000000000000000000000000000000000000000000000000000600052603260045260246000fd5b6020026020010151602001518261141d919061347a565b915060018161142c919061347a565b90506113c4565b505b8092505050919050565b6301ea6e0081565b6002600154141561148d576040517f08c379a00000000000000000000000000000000000000000000000000000000081526004016114849061336d565b60405180910390fd5b600260018190555061149e836104fe565b82601560003373ffffffffffffffffffffffffffffffffffffffff1673ffffffffffffffffffffffffffffffffffffffff16815260200190815260200160002060006101000a81548173ffffffffffffffffffffffffffffffffffffffff021916908373ffffffffffffffffffffffffffffffffffffffff160217905550600d60009054906101000a900473ffffffffffffffffffffffffffffffffffffffff1673ffffffffffffffffffffffffffffffffffffffff166323b872dd3330856040518463ffffffff1660e01b815260040161157b93929190613221565b602060405180830381600087803b15801561159557600080fd5b505af11580156115a9573d6000803e3d6000fd5b505050506040513d601f19601f820116820180604052508101906115cd9190612fba565b506115d7336125b8565b6000601260003373ffffffffffffffffffffffffffffffffffffffff1673ffffffffffffffffffffffffffffffffffffffff16815260200190815260200160002090508060405180608001604052808673ffffffffffffffffffffffffffffffffffffffff168152602001858152602001600e600c6116569190613501565b42611661919061347a565b815260200142815250908060018154018082558091505060019003906000526020600020906004020160009091909190915060008201518160000160006101000a81548173ffffffffffffffffffffffffffffffffffffffff021916908373ffffffffffffffffffffffffffffffffffffffff160217905550602082015181600101556040820151816002015560608201518160030155505080601260003373ffffffffffffffffffffffffffffffffffffffff1673ffffffffffffffffffffffffffffffffffffffff168152602001908152602001600020908054611748929190612b68565b50600080601460003373ffffffffffffffffffffffffffffffffffffffff1673ffffffffffffffffffffffffffffffffffffffff1681526020019081526020016000205411156117d557601460003373ffffffffffffffffffffffffffffffffffffffff1673ffffffffffffffffffffffffffffffffffffffff1681526020019081526020016000205490505b826032856117e391906134d0565b601660003373ffffffffffffffffffffffffffffffffffffffff1673ffffffffffffffffffffffffffffffffffffffff1681526020019081526020016000205461182d919061347a565b611837919061347a565b601660003373ffffffffffffffffffffffffffffffffffffffff1673ffffffffffffffffffffffffffffffffffffffff168152602001908152602001600020819055506228de80836118899190613501565b42611894919061347a565b601460003373ffffffffffffffffffffffffffffffffffffffff1673ffffffffffffffffffffffffffffffffffffffff168152602001908152602001600020819055503373ffffffffffffffffffffffffffffffffffffffff167f58dbc96c9da52b3fd7e6ca4a438f836257f99d60b676129a5a3fafb4b895eb9c8585601660003373ffffffffffffffffffffffffffffffffffffffff1673ffffffffffffffffffffffffffffffffffffffff16815260200190815260200160002054604051611960939291906133d1565b60405180910390a2505060018081905550505050565b60008060009054906101000a900473ffffffffffffffffffffffffffffffffffffffff16905090565b6119a7611f5d565b60006119b285611fdb565b50905080611afb5760026040518060a001604052808881526020018773ffffffffffffffffffffffffffffffffffffffff1681526020018681526020018581526020018481525090806001815401808255809150506001900390600052602060002090600502016000909190919091506000820151816000019080519060200190611a3e929190612c45565b5060208201518160010160006101000a81548173ffffffffffffffffffffffffffffffffffffffff021916908373ffffffffffffffffffffffffffffffffffffffff16021790555060408201518160020155606082015181600301556080820151816004015550508473ffffffffffffffffffffffffffffffffffffffff167feeefb10c79d9d9a761166f6f973300044ec4f22296c5921a11fb40212af1560f87868686604051611af29493929190613281565b60405180910390a25b505050505050565b60026001541415611b49576040517f08c379a0000000000000000000000000000000000000000000000000000000008152600401611b409061336d565b60405180910390fd5b60026001819055506000601360003373ffffffffffffffffffffffffffffffffffffffff1673ffffffffffffffffffffffffffffffffffffffff168152602001908152602001600020805480602002602001604051908101604052809291908181526020016000905b82821015611c7357838290600052602060002090600502016040518060a00160405290816000820160009054906101000a900473ffffffffffffffffffffffffffffffffffffffff1673ffffffffffffffffffffffffffffffffffffffff1673ffffffffffffffffffffffffffffffffffffffff168152602001600182015481526020016002820160009054906101000a900460ff161515151581526020016003820154815260200160048201548152505081526020019060010190611bb2565b50505050905060008082511115611dd55760005b8251811015611dd35742838281518110611cca577f4e487b7100000000000000000000000000000000000000000000000000000000600052603260045260246000fd5b60200260200101516060015111611dbf57600e60009054906101000a900473ffffffffffffffffffffffffffffffffffffffff1673ffffffffffffffffffffffffffffffffffffffff166323b872dd3033868581518110611d54577f4e487b7100000000000000000000000000000000000000000000000000000000600052603260045260246000fd5b6020026020010151602001516040518463ffffffff1660e01b8152600401611d7e93929190613221565b600060405180830381600087803b158015611d9857600080fd5b505af1158015611dac573d6000803e3d6000fd5b505050508180611dbb9061367c565b9250505b600181611dcc919061347a565b9050611c87565b505b8151811415611e7657601360003373ffffffffffffffffffffffffffffffffffffffff1673ffffffffffffffffffffffffffffffffffffffff1681526020019081526020016000206000611e299190612ccb565b611e32336126ba565b3373ffffffffffffffffffffffffffffffffffffffff167f08b119709ed5630c28097f16778d52e1201918b2eb3d395b509f8c7ff15af42d60405160405180910390a25b505060018081905550565b6228de8081565b6000611e92611f5d565b601660008373ffffffffffffffffffffffffffffffffffffffff1673ffffffffffffffffffffffffffffffffffffffff168152602001908152602001600020549050919050565b611ee1611f5d565b600073ffffffffffffffffffffffffffffffffffffffff168173ffffffffffffffffffffffffffffffffffffffff161415611f51576040517f08c379a0000000000000000000000000000000000000000000000000000000008152600401611f48906132cd565b60405180910390fd5b611f5a816124f4565b50565b611f65612763565b73ffffffffffffffffffffffffffffffffffffffff16611f83611976565b73ffffffffffffffffffffffffffffffffffffffff1614611fd9576040517f08c379a0000000000000000000000000000000000000000000000000000000008152600401611fd09061330d565b60405180910390fd5b565b60008060008060005b6002805490508110156120b0578573ffffffffffffffffffffffffffffffffffffffff1660028281548110612042577f4e487b7100000000000000000000000000000000000000000000000000000000600052603260045260246000fd5b906000526020600020906005020160010160009054906101000a900473ffffffffffffffffffffffffffffffffffffffff1673ffffffffffffffffffffffffffffffffffffffff16141561209c57600192508091506120b0565b6001816120a9919061347a565b9050611fe4565b508181935093505050915091565b6120c6612cef565b60006120d183611fdb565b50905080156123005760005b6002805490508110156122fe578373ffffffffffffffffffffffffffffffffffffffff166002828154811061213b577f4e487b7100000000000000000000000000000000000000000000000000000000600052603260045260246000fd5b906000526020600020906005020160010160009054906101000a900473ffffffffffffffffffffffffffffffffffffffff1673ffffffffffffffffffffffffffffffffffffffff1614156122eb57600281815481106121c3577f4e487b7100000000000000000000000000000000000000000000000000000000600052603260045260246000fd5b90600052602060002090600502016040518060a00160405290816000820180546121ec90613619565b80601f016020809104026020016040519081016040528092919081815260200182805461221890613619565b80156122655780601f1061223a57610100808354040283529160200191612265565b820191906000526020600020905b81548152906001019060200180831161224857829003601f168201915b505050505081526020016001820160009054906101000a900473ffffffffffffffffffffffffffffffffffffffff1673ffffffffffffffffffffffffffffffffffffffff1673ffffffffffffffffffffffffffffffffffffffff168152602001600282015481526020016003820154815260200160048201548152505092505050612302565b80806122f69061367c565b9150506120dd565b505b505b919050565b61239781601080548060200260200160405190810160405280929190818152602001828054801561238d57602002820191906000526020600020905b8160009054906101000a900473ffffffffffffffffffffffffffffffffffffffff1673ffffffffffffffffffffffffffffffffffffffff1681526020019060010190808311612343575b505050505061276b565b601090805190602001906123ac929190612d34565b5050565b6000814244336040516020016123c8939291906131c9565b6040516020818303038152906040528051906020012060001c6123eb91906136f3565b9050919050565b600061248482601180548060200260200160405190810160405280929190818152602001828054801561247a57602002820191906000526020600020905b8160009054906101000a900473ffffffffffffffffffffffffffffffffffffffff1673ffffffffffffffffffffffffffffffffffffffff1681526020019060010190808311612430575b50505050506128b9565b509050806124f0576011829080600181540180825580915050600190039060005260206000200160009091909190916101000a81548173ffffffffffffffffffffffffffffffffffffffff021916908373ffffffffffffffffffffffffffffffffffffffff1602179055505b5050565b60008060009054906101000a900473ffffffffffffffffffffffffffffffffffffffff169050816000806101000a81548173ffffffffffffffffffffffffffffffffffffffff021916908373ffffffffffffffffffffffffffffffffffffffff1602179055508173ffffffffffffffffffffffffffffffffffffffff168173ffffffffffffffffffffffffffffffffffffffff167f8be0079c531659141344cd1fd0a4f28419497f9722a3daafe3b4186f6b6457e060405160405180910390a35050565b600061264a82601080548060200260200160405190810160405280929190818152602001828054801561264057602002820191906000526020600020905b8160009054906101000a900473ffffffffffffffffffffffffffffffffffffffff1673ffffffffffffffffffffffffffffffffffffffff16815260200190600101908083116125f6575b50505050506128b9565b509050806126b6576010829080600181540180825580915050600190039060005260206000200160009091909190916101000a81548173ffffffffffffffffffffffffffffffffffffffff021916908373ffffffffffffffffffffffffffffffffffffffff1602179055505b5050565b61274a81601180548060200260200160405190810160405280929190818152602001828054801561274057602002820191906000526020600020905b8160009054906101000a900473ffffffffffffffffffffffffffffffffffffffff1673ffffffffffffffffffffffffffffffffffffffff16815260200190600101908083116126f6575b505050505061276b565b6011908051906020019061275f929190612d34565b5050565b600033905090565b606060008061277a85856128b9565b9150915081156128ae578360018551612793919061355b565b815181106127ca577f4e487b7100000000000000000000000000000000000000000000000000000000600052603260045260246000fd5b602002602001015184828151811061280b577f4e487b7100000000000000000000000000000000000000000000000000000000600052603260045260246000fd5b602002602001019073ffffffffffffffffffffffffffffffffffffffff16908173ffffffffffffffffffffffffffffffffffffffff16815250508360018551612854919061355b565b8151811061288b577f4e487b7100000000000000000000000000000000000000000000000000000000600052603260045260246000fd5b60200260200101600073ffffffffffffffffffffffffffffffffffffffff168152505b839250505092915050565b60008060005b835181101561295d57838181518110612901577f4e487b7100000000000000000000000000000000000000000000000000000000600052603260045260246000fd5b602002602001015173ffffffffffffffffffffffffffffffffffffffff168573ffffffffffffffffffffffffffffffffffffffff161415612949576001819250925050612966565b600181612956919061347a565b90506128bf565b50600080915091505b9250929050565b82805461297990613619565b90600052602060002090601f01602090048101928261299b57600085556129e9565b82601f106129ac57805485556129e9565b828001600101855582156129e957600052602060002091601f016020900482015b828111156129e85782548255916001019190600101906129cd565b5b5090506129f69190612dbe565b5090565b508054612a0690613619565b6000825580601f10612a185750612a37565b601f016020900490600052602060002090810190612a369190612dbe565b5b50565b5080546000825560040290600052602060002090810190612a5b9190612ddb565b50565b828054828255906000526020600020906005028101928215612b575760005260206000209160050282015b82811115612b565782826000820160009054906101000a900473ffffffffffffffffffffffffffffffffffffffff168160000160006101000a81548173ffffffffffffffffffffffffffffffffffffffff021916908373ffffffffffffffffffffffffffffffffffffffff160217905550600182015481600101556002820160009054906101000a900460ff168160020160006101000a81548160ff0219169083151502179055506003820154816003015560048201548160040155505091600501919060050190612a89565b5b509050612b649190612e31565b5090565b828054828255906000526020600020906004028101928215612c345760005260206000209160040282015b82811115612c335782826000820160009054906101000a900473ffffffffffffffffffffffffffffffffffffffff168160000160006101000a81548173ffffffffffffffffffffffffffffffffffffffff021916908373ffffffffffffffffffffffffffffffffffffffff160217905550600182015481600101556002820154816002015560038201548160030155505091600401919060040190612b93565b5b509050612c419190612ddb565b5090565b828054612c5190613619565b90600052602060002090601f016020900481019282612c735760008555612cba565b82601f10612c8c57805160ff1916838001178555612cba565b82800160010185558215612cba579182015b82811115612cb9578251825591602001919060010190612c9e565b5b509050612cc79190612dbe565b5090565b5080546000825560050290600052602060002090810190612cec9190612e31565b50565b6040518060a0016040528060608152602001600073ffffffffffffffffffffffffffffffffffffffff1681526020016000815260200160008152602001600081525090565b828054828255906000526020600020908101928215612dad579160200282015b82811115612dac5782518260006101000a81548173ffffffffffffffffffffffffffffffffffffffff021916908373ffffffffffffffffffffffffffffffffffffffff16021790555091602001919060010190612d54565b5b509050612dba9190612dbe565b5090565b5b80821115612dd7576000816000905550600101612dbf565b5090565b5b80821115612e2d57600080820160006101000a81549073ffffffffffffffffffffffffffffffffffffffff021916905560018201600090556002820160009055600382016000905550600401612ddc565b5090565b5b80821115612e9757600080820160006101000a81549073ffffffffffffffffffffffffffffffffffffffff021916905560018201600090556002820160006101000a81549060ff02191690556003820160009055600482016000905550600501612e32565b5090565b6000612eae612ea98461342d565b613408565b905082815260208101848484011115612ec657600080fd5b612ed18482856135d7565b509392505050565b600081359050612ee88161391a565b92915050565b600081519050612efd81613931565b92915050565b600082601f830112612f1457600080fd5b8135612f24848260208601612e9b565b91505092915050565b600081359050612f3c81613948565b92915050565b600060208284031215612f5457600080fd5b6000612f6284828501612ed9565b91505092915050565b600080600060608486031215612f8057600080fd5b6000612f8e86828701612ed9565b9350506020612f9f86828701612f2d565b9250506040612fb086828701612f2d565b9150509250925092565b600060208284031215612fcc57600080fd5b6000612fda84828501612eee565b91505092915050565b600080600080600060a08688031215612ffb57600080fd5b600086013567ffffffffffffffff81111561301557600080fd5b61302188828901612f03565b955050602061303288828901612ed9565b945050604061304388828901612f2d565b935050606061305488828901612f2d565b925050608061306588828901612f2d565b9150509295509295909350565b61307b8161358f565b82525050565b61309261308d8261358f565b6136c5565b82525050565b60006130a38261345e565b6130ad8185613469565b93506130bd8185602086016135e6565b6130c6816137e0565b840191505092915050565b60006130de602683613469565b91506130e9826137fe565b604082019050919050565b6000613101601583613469565b915061310c8261384d565b602082019050919050565b6000613124602083613469565b915061312f82613876565b602082019050919050565b6000613147601283613469565b91506131528261389f565b602082019050919050565b600061316a601283613469565b9150613175826138c8565b602082019050919050565b600061318d601f83613469565b9150613198826138f1565b602082019050919050565b6131ac816135cd565b82525050565b6131c36131be826135cd565b6136e9565b82525050565b60006131d582866131b2565b6020820191506131e582856131b2565b6020820191506131f58284613081565b601482019150819050949350505050565b600060208201905061321b6000830184613072565b92915050565b60006060820190506132366000830186613072565b6132436020830185613072565b61325060408301846131a3565b949350505050565b600060408201905061326d6000830185613072565b61327a60208301846131a3565b9392505050565b6000608082019050818103600083015261329b8187613098565b90506132aa60208301866131a3565b6132b760408301856131a3565b6132c460608301846131a3565b95945050505050565b600060208201905081810360008301526132e6816130d1565b9050919050565b60006020820190508181036000830152613306816130f4565b9050919050565b6000602082019050818103600083015261332681613117565b9050919050565b600060208201905081810360008301526133468161313a565b9050919050565b600060208201905081810360008301526133668161315d565b9050919050565b6000602082019050818103600083015261338681613180565b9050919050565b60006020820190506133a260008301846131a3565b92915050565b60006040820190506133bd60008301856131a3565b6133ca60208301846131a3565b9392505050565b60006060820190506133e660008301866131a3565b6133f360208301856131a3565b61340060408301846131a3565b949350505050565b6000613412613423565b905061341e828261364b565b919050565b6000604051905090565b600067ffffffffffffffff821115613448576134476137b1565b5b613451826137e0565b9050602081019050919050565b600081519050919050565b600082825260208201905092915050565b6000613485826135cd565b9150613490836135cd565b9250827fffffffffffffffffffffffffffffffffffffffffffffffffffffffffffffffff038211156134c5576134c4613724565b5b828201905092915050565b60006134db826135cd565b91506134e6836135cd565b9250826134f6576134f5613753565b5b828204905092915050565b600061350c826135cd565b9150613517836135cd565b9250817fffffffffffffffffffffffffffffffffffffffffffffffffffffffffffffffff04831182151516156135505761354f613724565b5b828202905092915050565b6000613566826135cd565b9150613571836135cd565b92508282101561358457613583613724565b5b828203905092915050565b600061359a826135ad565b9050919050565b60008115159050919050565b600073ffffffffffffffffffffffffffffffffffffffff82169050919050565b6000819050919050565b82818337600083830152505050565b60005b838110156136045780820151818401526020810190506135e9565b83811115613613576000848401525b50505050565b6000600282049050600182168061363157607f821691505b6020821081141561364557613644613782565b5b50919050565b613654826137e0565b810181811067ffffffffffffffff82111715613673576136726137b1565b5b80604052505050565b6000613687826135cd565b91507fffffffffffffffffffffffffffffffffffffffffffffffffffffffffffffffff8214156136ba576136b9613724565b5b600182019050919050565b60006136d0826136d7565b9050919050565b60006136e2826137f1565b9050919050565b6000819050919050565b60006136fe826135cd565b9150613709836135cd565b92508261371957613718613753565b5b828206905092915050565b7f4e487b7100000000000000000000000000000000000000000000000000000000600052601160045260246000fd5b7f4e487b7100000000000000000000000000000000000000000000000000000000600052601260045260246000fd5b7f4e487b7100000000000000000000000000000000000000000000000000000000600052602260045260246000fd5b7f4e487b7100000000000000000000000000000000000000000000000000000000600052604160045260246000fd5b6000601f19601f8301169050919050565b60008160601b9050919050565b7f4f776e61626c653a206e6577206f776e657220697320746865207a65726f206160008201527f6464726573730000000000000000000000000000000000000000000000000000602082015250565b7f41697264726f70206e6f7420617661696c61626c650000000000000000000000600082015250565b7f4f776e61626c653a2063616c6c6572206973206e6f7420746865206f776e6572600082015250565b7f50726f6a656374206e6f74206578697374210000000000000000000000000000600082015250565b7f50726f6a65637420697320636c6f736564210000000000000000000000000000600082015250565b7f5265656e7472616e637947756172643a207265656e7472616e742063616c6c00600082015250565b6139238161358f565b811461392e57600080fd5b50565b61393a816135a1565b811461394557600080fd5b50565b613951816135cd565b811461395c57600080fd5b5056fea264697066735822122091dd31b4cb6c2b0731df7389bc01cc1f235e9db311fe72ef9aed95c7b21198e264736f6c63430008040033",
  "linkReferences": {},
  "deployedLinkReferences": {}
}