{
  "_format": "hh-sol-artifact-1",
  "contractName": "XcNFT",
  "sourceName": "contracts/XcNFT.sol",
  "abi": [
    {
      "inputs": [
        {
          "internalType": "string",
          "name": "_name",
          "type": "string"
        },
        {
          "internalType": "string",
          "name": "_symbol",
          "type": "string"
        },
        {
          "internalType": "string",
          "name": "_initBaseURI",
          "type": "string"
        }
      ],
      "stateMutability": "nonpayable",
      "type": "constructor"
    },
    {
      "anonymous": false,
      "inputs": [
        {
          "indexed": true,
          "internalType": "address",
          "name": "owner",
          "type": "address"
        },
        {
          "indexed": true,
          "internalType": "address",
          "name": "approved",
          "type": "address"
        },
        {
          "indexed": true,
          "internalType": "uint256",
          "name": "tokenId",
          "type": "uint256"
        }
      ],
      "name": "Approval",
      "type": "event"
    },
    {
      "anonymous": false,
      "inputs": [
        {
          "indexed": true,
          "internalType": "address",
          "name": "owner",
          "type": "address"
        },
        {
          "indexed": true,
          "internalType": "address",
          "name": "operator",
          "type": "address"
        },
        {
          "indexed": false,
          "internalType": "bool",
          "name": "approved",
          "type": "bool"
        }
      ],
      "name": "ApprovalForAll",
      "type": "event"
    },
    {
      "anonymous": false,
      "inputs": [
        {
          "indexed": true,
          "internalType": "address",
          "name": "previousOwner",
          "type": "address"
        },
        {
          "indexed": true,
          "internalType": "address",
          "name": "newOwner",
          "type": "address"
        }
      ],
      "name": "OwnershipTransferred",
      "type": "event"
    },
    {
      "anonymous": false,
      "inputs": [
        {
          "indexed": true,
          "internalType": "address",
          "name": "from",
          "type": "address"
        },
        {
          "indexed": true,
          "internalType": "address",
          "name": "to",
          "type": "address"
        },
        {
          "indexed": true,
          "internalType": "uint256",
          "name": "tokenId",
          "type": "uint256"
        }
      ],
      "name": "Transfer",
      "type": "event"
    },
    {
      "inputs": [
        {
          "internalType": "address",
          "name": "to",
          "type": "address"
        },
        {
          "internalType": "uint256",
          "name": "tokenId",
          "type": "uint256"
        }
      ],
      "name": "approve",
      "outputs": [],
      "stateMutability": "nonpayable",
      "type": "function"
    },
    {
      "inputs": [
        {
          "internalType": "address",
          "name": "owner",
          "type": "address"
        }
      ],
      "name": "balanceOf",
      "outputs": [
        {
          "internalType": "uint256",
          "name": "",
          "type": "uint256"
        }
      ],
      "stateMutability": "view",
      "type": "function"
    },
    {
      "inputs": [],
      "name": "baseExtension",
      "outputs": [
        {
          "internalType": "string",
          "name": "",
          "type": "string"
        }
      ],
      "stateMutability": "view",
      "type": "function"
    },
    {
      "inputs": [],
      "name": "baseURI",
      "outputs": [
        {
          "internalType": "string",
          "name": "",
          "type": "string"
        }
      ],
      "stateMutability": "view",
      "type": "function"
    },
    {
      "inputs": [
        {
          "internalType": "uint256",
          "name": "tokenId",
          "type": "uint256"
        }
      ],
      "name": "getApproved",
      "outputs": [
        {
          "internalType": "address",
          "name": "",
          "type": "address"
        }
      ],
      "stateMutability": "view",
      "type": "function"
    },
    {
      "inputs": [
        {
          "internalType": "address",
          "name": "owner",
          "type": "address"
        },
        {
          "internalType": "address",
          "name": "operator",
          "type": "address"
        }
      ],
      "name": "isApprovedForAll",
      "outputs": [
        {
          "internalType": "bool",
          "name": "",
          "type": "bool"
        }
      ],
      "stateMutability": "view",
      "type": "function"
    },
    {
      "inputs": [],
      "name": "maxMintAmount",
      "outputs": [
        {
          "internalType": "uint256",
          "name": "",
          "type": "uint256"
        }
      ],
      "stateMutability": "view",
      "type": "function"
    },
    {
      "inputs": [],
      "name": "maxSupply",
      "outputs": [
        {
          "internalType": "uint256",
          "name": "",
          "type": "uint256"
        }
      ],
      "stateMutability": "view",
      "type": "function"
    },
    {
      "inputs": [
        {
          "internalType": "address",
          "name": "_to",
          "type": "address"
        },
        {
          "internalType": "uint256",
          "name": "_mintAmount",
          "type": "uint256"
        }
      ],
      "name": "mint",
      "outputs": [],
      "stateMutability": "payable",
      "type": "function"
    },
    {
      "inputs": [],
      "name": "name",
      "outputs": [
        {
          "internalType": "string",
          "name": "",
          "type": "string"
        }
      ],
      "stateMutability": "view",
      "type": "function"
    },
    {
      "inputs": [],
      "name": "owner",
      "outputs": [
        {
          "internalType": "address",
          "name": "",
          "type": "address"
        }
      ],
      "stateMutability": "view",
      "type": "function"
    },
    {
      "inputs": [
        {
          "internalType": "uint256",
          "name": "tokenId",
          "type": "uint256"
        }
      ],
      "name": "ownerOf",
      "outputs": [
        {
          "internalType": "address",
          "name": "",
          "type": "address"
        }
      ],
      "stateMutability": "view",
      "type": "function"
    },
    {
      "inputs": [
        {
          "internalType": "bool",
          "name": "_state",
          "type": "bool"
        }
      ],
      "name": "pause",
      "outputs": [],
      "stateMutability": "nonpayable",
      "type": "function"
    },
    {
      "inputs": [],
      "name": "paused",
      "outputs": [
        {
          "internalType": "bool",
          "name": "",
          "type": "bool"
        }
      ],
      "stateMutability": "view",
      "type": "function"
    },
    {
      "inputs": [],
      "name": "renounceOwnership",
      "outputs": [],
      "stateMutability": "nonpayable",
      "type": "function"
    },
    {
      "inputs": [
        {
          "internalType": "address",
          "name": "from",
          "type": "address"
        },
        {
          "internalType": "address",
          "name": "to",
          "type": "address"
        },
        {
          "internalType": "uint256",
          "name": "tokenId",
          "type": "uint256"
        }
      ],
      "name": "safeTransferFrom",
      "outputs": [],
      "stateMutability": "nonpayable",
      "type": "function"
    },
    {
      "inputs": [
        {
          "internalType": "address",
          "name": "from",
          "type": "address"
        },
        {
          "internalType": "address",
          "name": "to",
          "type": "address"
        },
        {
          "internalType": "uint256",
          "name": "tokenId",
          "type": "uint256"
        },
        {
          "internalType": "bytes",
          "name": "data",
          "type": "bytes"
        }
      ],
      "name": "safeTransferFrom",
      "outputs": [],
      "stateMutability": "nonpayable",
      "type": "function"
    },
    {
      "inputs": [
        {
          "internalType": "address",
          "name": "operator",
          "type": "address"
        },
        {
          "internalType": "bool",
          "name": "approved",
          "type": "bool"
        }
      ],
      "name": "setApprovalForAll",
      "outputs": [],
      "stateMutability": "nonpayable",
      "type": "function"
    },
    {
      "inputs": [
        {
          "internalType": "string",
          "name": "_newBaseExtension",
          "type": "string"
        }
      ],
      "name": "setBaseExtension",
      "outputs": [],
      "stateMutability": "nonpayable",
      "type": "function"
    },
    {
      "inputs": [
        {
          "internalType": "string",
          "name": "_newBaseURI",
          "type": "string"
        }
      ],
      "name": "setBaseURI",
      "outputs": [],
      "stateMutability": "nonpayable",
      "type": "function"
    },
    {
      "inputs": [
        {
          "internalType": "uint256",
          "name": "_newmaxMintAmount",
          "type": "uint256"
        }
      ],
      "name": "setmaxMintAmount",
      "outputs": [],
      "stateMutability": "nonpayable",
      "type": "function"
    },
    {
      "inputs": [
        {
          "internalType": "bytes4",
          "name": "interfaceId",
          "type": "bytes4"
        }
      ],
      "name": "supportsInterface",
      "outputs": [
        {
          "internalType": "bool",
          "name": "",
          "type": "bool"
        }
      ],
      "stateMutability": "view",
      "type": "function"
    },
    {
      "inputs": [],
      "name": "symbol",
      "outputs": [
        {
          "internalType": "string",
          "name": "",
          "type": "string"
        }
      ],
      "stateMutability": "view",
      "type": "function"
    },
    {
      "inputs": [
        {
          "internalType": "uint256",
          "name": "index",
          "type": "uint256"
        }
      ],
      "name": "tokenByIndex",
      "outputs": [
        {
          "internalType": "uint256",
          "name": "",
          "type": "uint256"
        }
      ],
      "stateMutability": "view",
      "type": "function"
    },
    {
      "inputs": [
        {
          "internalType": "address",
          "name": "owner",
          "type": "address"
        },
        {
          "internalType": "uint256",
          "name": "index",
          "type": "uint256"
        }
      ],
      "name": "tokenOfOwnerByIndex",
      "outputs": [
        {
          "internalType": "uint256",
          "name": "",
          "type": "uint256"
        }
      ],
      "stateMutability": "view",
      "type": "function"
    },
    {
      "inputs": [
        {
          "internalType": "uint256",
          "name": "tokenId",
          "type": "uint256"
        }
      ],
      "name": "tokenURI",
      "outputs": [
        {
          "internalType": "string",
          "name": "",
          "type": "string"
        }
      ],
      "stateMutability": "view",
      "type": "function"
    },
    {
      "inputs": [],
      "name": "totalSupply",
      "outputs": [
        {
          "internalType": "uint256",
          "name": "",
          "type": "uint256"
        }
      ],
      "stateMutability": "view",
      "type": "function"
    },
    {
      "inputs": [
        {
          "internalType": "address",
          "name": "from",
          "type": "address"
        },
        {
          "internalType": "address",
          "name": "to",
          "type": "address"
        },
        {
          "internalType": "uint256",
          "name": "tokenId",
          "type": "uint256"
        }
      ],
      "name": "transferFrom",
      "outputs": [],
      "stateMutability": "nonpayable",
      "type": "function"
    },
    {
      "inputs": [
        {
          "internalType": "address",
          "name": "newOwner",
          "type": "address"
        }
      ],
      "name": "transferOwnership",
      "outputs": [],
      "stateMutability": "nonpayable",
      "type": "function"
    },
    {
      "inputs": [
        {
          "internalType": "address",
          "name": "_owner",
          "type": "address"
        }
      ],
      "name": "walletOfOwner",
      "outputs": [
        {
          "internalType": "uint256[]",
          "name": "",
          "type": "uint256[]"
        }
      ],
      "stateMutability": "view",
      "type": "function"
    },
    {
      "inputs": [],
      "name": "withdraw",
      "outputs": [],
      "stateMutability": "payable",
      "type": "function"
    }
  ],
  "bytecode": "0x60806040526040518060400160405280600581526020017f2e6a736f6e000000000000000000000000000000000000000000000000000000815250600c908051906020019062000051929190620002d0565b506103e8600d556003600e556000600f60006101000a81548160ff0219169083151502179055503480156200008557600080fd5b506040516200424d3803806200424d8339818101604052810190620000ab9190620003f2565b82828160009080519060200190620000c5929190620002d0565b508060019080519060200190620000de929190620002d0565b50505062000101620000f56200011b60201b60201c565b6200012360201b60201c565b6200011281620001e960201b60201c565b50505062000686565b600033905090565b6000600a60009054906101000a900473ffffffffffffffffffffffffffffffffffffffff16905081600a60006101000a81548173ffffffffffffffffffffffffffffffffffffffff021916908373ffffffffffffffffffffffffffffffffffffffff1602179055508173ffffffffffffffffffffffffffffffffffffffff168173ffffffffffffffffffffffffffffffffffffffff167f8be0079c531659141344cd1fd0a4f28419497f9722a3daafe3b4186f6b6457e060405160405180910390a35050565b620001f96200021560201b60201c565b80600b908051906020019062000211929190620002d0565b5050565b620002256200011b60201b60201c565b73ffffffffffffffffffffffffffffffffffffffff166200024b620002a660201b60201c565b73ffffffffffffffffffffffffffffffffffffffff1614620002a4576040517f08c379a00000000000000000000000000000000000000000000000000000000081526004016200029b90620004ba565b60405180910390fd5b565b6000600a60009054906101000a900473ffffffffffffffffffffffffffffffffffffffff16905090565b828054620002de9062000582565b90600052602060002090601f0160209004810192826200030257600085556200034e565b82601f106200031d57805160ff19168380011785556200034e565b828001600101855582156200034e579182015b828111156200034d57825182559160200191906001019062000330565b5b5090506200035d919062000361565b5090565b5b808211156200037c57600081600090555060010162000362565b5090565b600062000397620003918462000505565b620004dc565b905082815260208101848484011115620003b057600080fd5b620003bd8482856200054c565b509392505050565b600082601f830112620003d757600080fd5b8151620003e984826020860162000380565b91505092915050565b6000806000606084860312156200040857600080fd5b600084015167ffffffffffffffff8111156200042357600080fd5b6200043186828701620003c5565b935050602084015167ffffffffffffffff8111156200044f57600080fd5b6200045d86828701620003c5565b925050604084015167ffffffffffffffff8111156200047b57600080fd5b6200048986828701620003c5565b9150509250925092565b6000620004a26020836200053b565b9150620004af826200065d565b602082019050919050565b60006020820190508181036000830152620004d58162000493565b9050919050565b6000620004e8620004fb565b9050620004f68282620005b8565b919050565b6000604051905090565b600067ffffffffffffffff8211156200052357620005226200061d565b5b6200052e826200064c565b9050602081019050919050565b600082825260208201905092915050565b60005b838110156200056c5780820151818401526020810190506200054f565b838111156200057c576000848401525b50505050565b600060028204905060018216806200059b57607f821691505b60208210811415620005b257620005b1620005ee565b5b50919050565b620005c3826200064c565b810181811067ffffffffffffffff82111715620005e557620005e46200061d565b5b80604052505050565b7f4e487b7100000000000000000000000000000000000000000000000000000000600052602260045260246000fd5b7f4e487b7100000000000000000000000000000000000000000000000000000000600052604160045260246000fd5b6000601f19601f8301169050919050565b7f4f776e61626c653a2063616c6c6572206973206e6f7420746865206f776e6572600082015250565b613bb780620006966000396000f3fe6080604052600436106101d85760003560e01c80635c975abb11610102578063a22cb46511610095578063d5abeb0111610064578063d5abeb01146106a2578063da3ef23f146106cd578063e985e9c5146106f6578063f2fde38b14610733576101d8565b8063a22cb465146105e8578063b88d4fde14610611578063c66828621461063a578063c87b56dd14610665576101d8565b8063715018a6116100d1578063715018a6146105525780637f00c7a6146105695780638da5cb5b1461059257806395d89b41146105bd576101d8565b80635c975abb146104825780636352211e146104ad5780636c0360eb146104ea57806370a0823114610515576101d8565b806323b872dd1161017a57806342842e0e1161014957806342842e0e146103b6578063438b6300146103df5780634f6ccce71461041c57806355f804b314610459576101d8565b806323b872dd1461032a5780632f745c59146103535780633ccfd60b1461039057806340c10f191461039a576101d8565b8063081812fc116101b6578063081812fc1461026e578063095ea7b3146102ab57806318160ddd146102d4578063239c70ae146102ff576101d8565b806301ffc9a7146101dd57806302329a291461021a57806306fdde0314610243575b600080fd5b3480156101e957600080fd5b5061020460048036038101906101ff9190612aee565b61075c565b6040516102119190613068565b60405180910390f35b34801561022657600080fd5b50610241600480360381019061023c9190612ac5565b6107d6565b005b34801561024f57600080fd5b506102586107fb565b6040516102659190613083565b60405180910390f35b34801561027a57600080fd5b5061029560048036038101906102909190612b81565b61088d565b6040516102a29190612fdf565b60405180910390f35b3480156102b757600080fd5b506102d260048036038101906102cd9190612a89565b6108d3565b005b3480156102e057600080fd5b506102e96109eb565b6040516102f691906132a5565b60405180910390f35b34801561030b57600080fd5b506103146109f8565b60405161032191906132a5565b60405180910390f35b34801561033657600080fd5b50610351600480360381019061034c9190612983565b6109fe565b005b34801561035f57600080fd5b5061037a60048036038101906103759190612a89565b610a5e565b60405161038791906132a5565b60405180910390f35b610398610b03565b005b6103b460048036038101906103af9190612a89565b610b4b565b005b3480156103c257600080fd5b506103dd60048036038101906103d89190612983565b610be3565b005b3480156103eb57600080fd5b506104066004803603810190610401919061291e565b610c03565b6040516104139190613046565b60405180910390f35b34801561042857600080fd5b50610443600480360381019061043e9190612b81565b610cfd565b60405161045091906132a5565b60405180910390f35b34801561046557600080fd5b50610480600480360381019061047b9190612b40565b610d94565b005b34801561048e57600080fd5b50610497610db6565b6040516104a49190613068565b60405180910390f35b3480156104b957600080fd5b506104d460048036038101906104cf9190612b81565b610dc9565b6040516104e19190612fdf565b60405180910390f35b3480156104f657600080fd5b506104ff610e7b565b60405161050c9190613083565b60405180910390f35b34801561052157600080fd5b5061053c6004803603810190610537919061291e565b610f09565b60405161054991906132a5565b60405180910390f35b34801561055e57600080fd5b50610567610fc1565b005b34801561057557600080fd5b50610590600480360381019061058b9190612b81565b610fd5565b005b34801561059e57600080fd5b506105a7610fe7565b6040516105b49190612fdf565b60405180910390f35b3480156105c957600080fd5b506105d2611011565b6040516105df9190613083565b60405180910390f35b3480156105f457600080fd5b5061060f600480360381019061060a9190612a4d565b6110a3565b005b34801561061d57600080fd5b50610638600480360381019061063391906129d2565b6110b9565b005b34801561064657600080fd5b5061064f61111b565b60405161065c9190613083565b60405180910390f35b34801561067157600080fd5b5061068c60048036038101906106879190612b81565b6111a9565b6040516106999190613083565b60405180910390f35b3480156106ae57600080fd5b506106b7611253565b6040516106c491906132a5565b60405180910390f35b3480156106d957600080fd5b506106f460048036038101906106ef9190612b40565b611259565b005b34801561070257600080fd5b5061071d60048036038101906107189190612947565b61127b565b60405161072a9190613068565b60405180910390f35b34801561073f57600080fd5b5061075a6004803603810190610755919061291e565b61130f565b005b60007f780e9d63000000000000000000000000000000000000000000000000000000007bffffffffffffffffffffffffffffffffffffffffffffffffffffffff1916827bffffffffffffffffffffffffffffffffffffffffffffffffffffffff191614806107cf57506107ce82611393565b5b9050919050565b6107de611475565b80600f60006101000a81548160ff02191690831515021790555050565b60606000805461080a90613549565b80601f016020809104026020016040519081016040528092919081815260200182805461083690613549565b80156108835780601f1061085857610100808354040283529160200191610883565b820191906000526020600020905b81548152906001019060200180831161086657829003601f168201915b5050505050905090565b6000610898826114f3565b6004600083815260200190815260200160002060009054906101000a900473ffffffffffffffffffffffffffffffffffffffff169050919050565b60006108de82610dc9565b90508073ffffffffffffffffffffffffffffffffffffffff168373ffffffffffffffffffffffffffffffffffffffff16141561094f576040517f08c379a000000000000000000000000000000000000000000000000000000000815260040161094690613245565b60405180910390fd5b8073ffffffffffffffffffffffffffffffffffffffff1661096e61153e565b73ffffffffffffffffffffffffffffffffffffffff16148061099d575061099c8161099761153e565b61127b565b5b6109dc576040517f08c379a00000000000000000000000000000000000000000000000000000000081526004016109d3906131a5565b60405180910390fd5b6109e68383611546565b505050565b6000600880549050905090565b600e5481565b610a0f610a0961153e565b826115ff565b610a4e576040517f08c379a0000000000000000000000000000000000000000000000000000000008152600401610a4590613285565b60405180910390fd5b610a59838383611694565b505050565b6000610a6983610f09565b8210610aaa576040517f08c379a0000000000000000000000000000000000000000000000000000000008152600401610aa1906130a5565b60405180910390fd5b600660008473ffffffffffffffffffffffffffffffffffffffff1673ffffffffffffffffffffffffffffffffffffffff168152602001908152602001600020600083815260200190815260200160002054905092915050565b610b0b611475565b3373ffffffffffffffffffffffffffffffffffffffff166108fc479081150290604051600060405180830381858888f19350505050610b4957600080fd5b565b6000610b556109eb565b9050600f60009054906101000a900460ff1615610b7157600080fd5b60008211610b7e57600080fd5b600e54821115610b8d57600080fd5b600d548282610b9c91906133d8565b1115610ba757600080fd5b6000600190505b828111610bdd57610bca848284610bc591906133d8565b6118fb565b8080610bd5906135ac565b915050610bae565b50505050565b610bfe838383604051806020016040528060008152506110b9565b505050565b60606000610c1083610f09565b905060008167ffffffffffffffff811115610c54577f4e487b7100000000000000000000000000000000000000000000000000000000600052604160045260246000fd5b604051908082528060200260200182016040528015610c825781602001602082028036833780820191505090505b50905060005b82811015610cf257610c9a8582610a5e565b828281518110610cd3577f4e487b7100000000000000000000000000000000000000000000000000000000600052603260045260246000fd5b6020026020010181815250508080610cea906135ac565b915050610c88565b508092505050919050565b6000610d076109eb565b8210610d48576040517f08c379a0000000000000000000000000000000000000000000000000000000008152600401610d3f90613265565b60405180910390fd5b60088281548110610d82577f4e487b7100000000000000000000000000000000000000000000000000000000600052603260045260246000fd5b90600052602060002001549050919050565b610d9c611475565b80600b9080519060200190610db2929190612742565b5050565b600f60009054906101000a900460ff1681565b6000806002600084815260200190815260200160002060009054906101000a900473ffffffffffffffffffffffffffffffffffffffff169050600073ffffffffffffffffffffffffffffffffffffffff168173ffffffffffffffffffffffffffffffffffffffff161415610e72576040517f08c379a0000000000000000000000000000000000000000000000000000000008152600401610e6990613225565b60405180910390fd5b80915050919050565b600b8054610e8890613549565b80601f0160208091040260200160405190810160405280929190818152602001828054610eb490613549565b8015610f015780601f10610ed657610100808354040283529160200191610f01565b820191906000526020600020905b815481529060010190602001808311610ee457829003601f168201915b505050505081565b60008073ffffffffffffffffffffffffffffffffffffffff168273ffffffffffffffffffffffffffffffffffffffff161415610f7a576040517f08c379a0000000000000000000000000000000000000000000000000000000008152600401610f7190613185565b60405180910390fd5b600360008373ffffffffffffffffffffffffffffffffffffffff1673ffffffffffffffffffffffffffffffffffffffff168152602001908152602001600020549050919050565b610fc9611475565b610fd36000611919565b565b610fdd611475565b80600e8190555050565b6000600a60009054906101000a900473ffffffffffffffffffffffffffffffffffffffff16905090565b60606001805461102090613549565b80601f016020809104026020016040519081016040528092919081815260200182805461104c90613549565b80156110995780601f1061106e57610100808354040283529160200191611099565b820191906000526020600020905b81548152906001019060200180831161107c57829003601f168201915b5050505050905090565b6110b56110ae61153e565b83836119df565b5050565b6110ca6110c461153e565b836115ff565b611109576040517f08c379a000000000000000000000000000000000000000000000000000000000815260040161110090613285565b60405180910390fd5b61111584848484611b4c565b50505050565b600c805461112890613549565b80601f016020809104026020016040519081016040528092919081815260200182805461115490613549565b80156111a15780601f10611176576101008083540402835291602001916111a1565b820191906000526020600020905b81548152906001019060200180831161118457829003601f168201915b505050505081565b60606111b482611ba8565b6111f3576040517f08c379a00000000000000000000000000000000000000000000000000000000081526004016111ea90613205565b60405180910390fd5b60006111fd611c14565b9050600081511161121d576040518060200160405280600081525061124b565b8061122784611ca6565b600c60405160200161123b93929190612fae565b6040516020818303038152906040525b915050919050565b600d5481565b611261611475565b80600c9080519060200190611277929190612742565b5050565b6000600560008473ffffffffffffffffffffffffffffffffffffffff1673ffffffffffffffffffffffffffffffffffffffff16815260200190815260200160002060008373ffffffffffffffffffffffffffffffffffffffff1673ffffffffffffffffffffffffffffffffffffffff16815260200190815260200160002060009054906101000a900460ff16905092915050565b611317611475565b600073ffffffffffffffffffffffffffffffffffffffff168173ffffffffffffffffffffffffffffffffffffffff161415611387576040517f08c379a000000000000000000000000000000000000000000000000000000000815260040161137e906130e5565b60405180910390fd5b61139081611919565b50565b60007f80ac58cd000000000000000000000000000000000000000000000000000000007bffffffffffffffffffffffffffffffffffffffffffffffffffffffff1916827bffffffffffffffffffffffffffffffffffffffffffffffffffffffff1916148061145e57507f5b5e139f000000000000000000000000000000000000000000000000000000007bffffffffffffffffffffffffffffffffffffffffffffffffffffffff1916827bffffffffffffffffffffffffffffffffffffffffffffffffffffffff1916145b8061146e575061146d82611e53565b5b9050919050565b61147d61153e565b73ffffffffffffffffffffffffffffffffffffffff1661149b610fe7565b73ffffffffffffffffffffffffffffffffffffffff16146114f1576040517f08c379a00000000000000000000000000000000000000000000000000000000081526004016114e8906131e5565b60405180910390fd5b565b6114fc81611ba8565b61153b576040517f08c379a000000000000000000000000000000000000000000000000000000000815260040161153290613225565b60405180910390fd5b50565b600033905090565b816004600083815260200190815260200160002060006101000a81548173ffffffffffffffffffffffffffffffffffffffff021916908373ffffffffffffffffffffffffffffffffffffffff160217905550808273ffffffffffffffffffffffffffffffffffffffff166115b983610dc9565b73ffffffffffffffffffffffffffffffffffffffff167f8c5be1e5ebec7d5bd14f71427d1e84f3dd0314c0f7b2291e5b200ac8c7c3b92560405160405180910390a45050565b60008061160b83610dc9565b90508073ffffffffffffffffffffffffffffffffffffffff168473ffffffffffffffffffffffffffffffffffffffff16148061164d575061164c818561127b565b5b8061168b57508373ffffffffffffffffffffffffffffffffffffffff166116738461088d565b73ffffffffffffffffffffffffffffffffffffffff16145b91505092915050565b8273ffffffffffffffffffffffffffffffffffffffff166116b482610dc9565b73ffffffffffffffffffffffffffffffffffffffff161461170a576040517f08c379a000000000000000000000000000000000000000000000000000000000815260040161170190613105565b60405180910390fd5b600073ffffffffffffffffffffffffffffffffffffffff168273ffffffffffffffffffffffffffffffffffffffff16141561177a576040517f08c379a000000000000000000000000000000000000000000000000000000000815260040161177190613145565b60405180910390fd5b611785838383611ebd565b611790600082611546565b6001600360008573ffffffffffffffffffffffffffffffffffffffff1673ffffffffffffffffffffffffffffffffffffffff16815260200190815260200160002060008282546117e0919061345f565b925050819055506001600360008473ffffffffffffffffffffffffffffffffffffffff1673ffffffffffffffffffffffffffffffffffffffff168152602001908152602001600020600082825461183791906133d8565b92505081905550816002600083815260200190815260200160002060006101000a81548173ffffffffffffffffffffffffffffffffffffffff021916908373ffffffffffffffffffffffffffffffffffffffff160217905550808273ffffffffffffffffffffffffffffffffffffffff168473ffffffffffffffffffffffffffffffffffffffff167fddf252ad1be2c89b69c2b068fc378daa952ba7f163c4a11628f55a4df523b3ef60405160405180910390a46118f6838383611fd1565b505050565b611915828260405180602001604052806000815250611fd6565b5050565b6000600a60009054906101000a900473ffffffffffffffffffffffffffffffffffffffff16905081600a60006101000a81548173ffffffffffffffffffffffffffffffffffffffff021916908373ffffffffffffffffffffffffffffffffffffffff1602179055508173ffffffffffffffffffffffffffffffffffffffff168173ffffffffffffffffffffffffffffffffffffffff167f8be0079c531659141344cd1fd0a4f28419497f9722a3daafe3b4186f6b6457e060405160405180910390a35050565b8173ffffffffffffffffffffffffffffffffffffffff168373ffffffffffffffffffffffffffffffffffffffff161415611a4e576040517f08c379a0000000000000000000000000000000000000000000000000000000008152600401611a4590613165565b60405180910390fd5b80600560008573ffffffffffffffffffffffffffffffffffffffff1673ffffffffffffffffffffffffffffffffffffffff16815260200190815260200160002060008473ffffffffffffffffffffffffffffffffffffffff1673ffffffffffffffffffffffffffffffffffffffff16815260200190815260200160002060006101000a81548160ff0219169083151502179055508173ffffffffffffffffffffffffffffffffffffffff168373ffffffffffffffffffffffffffffffffffffffff167f17307eab39ab6107e8899845ad3d59bd9653f200f220920489ca2b5937696c3183604051611b3f9190613068565b60405180910390a3505050565b611b57848484611694565b611b6384848484612031565b611ba2576040517f08c379a0000000000000000000000000000000000000000000000000000000008152600401611b99906130c5565b60405180910390fd5b50505050565b60008073ffffffffffffffffffffffffffffffffffffffff166002600084815260200190815260200160002060009054906101000a900473ffffffffffffffffffffffffffffffffffffffff1673ffffffffffffffffffffffffffffffffffffffff1614159050919050565b6060600b8054611c2390613549565b80601f0160208091040260200160405190810160405280929190818152602001828054611c4f90613549565b8015611c9c5780601f10611c7157610100808354040283529160200191611c9c565b820191906000526020600020905b815481529060010190602001808311611c7f57829003601f168201915b5050505050905090565b60606000821415611cee576040518060400160405280600181526020017f30000000000000000000000000000000000000000000000000000000000000008152509050611e4e565b600082905060005b60008214611d20578080611d09906135ac565b915050600a82611d19919061342e565b9150611cf6565b60008167ffffffffffffffff811115611d62577f4e487b7100000000000000000000000000000000000000000000000000000000600052604160045260246000fd5b6040519080825280601f01601f191660200182016040528015611d945781602001600182028036833780820191505090505b5090505b60008514611e4757600182611dad919061345f565b9150600a85611dbc91906135f5565b6030611dc891906133d8565b60f81b818381518110611e04577f4e487b7100000000000000000000000000000000000000000000000000000000600052603260045260246000fd5b60200101907effffffffffffffffffffffffffffffffffffffffffffffffffffffffffffff1916908160001a905350600a85611e40919061342e565b9450611d98565b8093505050505b919050565b60007f01ffc9a7000000000000000000000000000000000000000000000000000000007bffffffffffffffffffffffffffffffffffffffffffffffffffffffff1916827bffffffffffffffffffffffffffffffffffffffffffffffffffffffff1916149050919050565b611ec88383836121c8565b600073ffffffffffffffffffffffffffffffffffffffff168373ffffffffffffffffffffffffffffffffffffffff161415611f0b57611f06816121cd565b611f4a565b8173ffffffffffffffffffffffffffffffffffffffff168373ffffffffffffffffffffffffffffffffffffffff1614611f4957611f488382612216565b5b5b600073ffffffffffffffffffffffffffffffffffffffff168273ffffffffffffffffffffffffffffffffffffffff161415611f8d57611f8881612383565b611fcc565b8273ffffffffffffffffffffffffffffffffffffffff168273ffffffffffffffffffffffffffffffffffffffff1614611fcb57611fca82826124c6565b5b5b505050565b505050565b611fe08383612545565b611fed6000848484612031565b61202c576040517f08c379a0000000000000000000000000000000000000000000000000000000008152600401612023906130c5565b60405180910390fd5b505050565b60006120528473ffffffffffffffffffffffffffffffffffffffff1661271f565b156121bb578373ffffffffffffffffffffffffffffffffffffffff1663150b7a0261207b61153e565b8786866040518563ffffffff1660e01b815260040161209d9493929190612ffa565b602060405180830381600087803b1580156120b757600080fd5b505af19250505080156120e857506040513d601f19601f820116820180604052508101906120e59190612b17565b60015b61216b573d8060008114612118576040519150601f19603f3d011682016040523d82523d6000602084013e61211d565b606091505b50600081511415612163576040517f08c379a000000000000000000000000000000000000000000000000000000000815260040161215a906130c5565b60405180910390fd5b805181602001fd5b63150b7a0260e01b7bffffffffffffffffffffffffffffffffffffffffffffffffffffffff1916817bffffffffffffffffffffffffffffffffffffffffffffffffffffffff1916149150506121c0565b600190505b949350505050565b505050565b6008805490506009600083815260200190815260200160002081905550600881908060018154018082558091505060019003906000526020600020016000909190919091505550565b6000600161222384610f09565b61222d919061345f565b9050600060076000848152602001908152602001600020549050818114612312576000600660008673ffffffffffffffffffffffffffffffffffffffff1673ffffffffffffffffffffffffffffffffffffffff168152602001908152602001600020600084815260200190815260200160002054905080600660008773ffffffffffffffffffffffffffffffffffffffff1673ffffffffffffffffffffffffffffffffffffffff168152602001908152602001600020600084815260200190815260200160002081905550816007600083815260200190815260200160002081905550505b6007600084815260200190815260200160002060009055600660008573ffffffffffffffffffffffffffffffffffffffff1673ffffffffffffffffffffffffffffffffffffffff16815260200190815260200160002060008381526020019081526020016000206000905550505050565b60006001600880549050612397919061345f565b90506000600960008481526020019081526020016000205490506000600883815481106123ed577f4e487b7100000000000000000000000000000000000000000000000000000000600052603260045260246000fd5b906000526020600020015490508060088381548110612435577f4e487b7100000000000000000000000000000000000000000000000000000000600052603260045260246000fd5b9060005260206000200181905550816009600083815260200190815260200160002081905550600960008581526020019081526020016000206000905560088054806124aa577f4e487b7100000000000000000000000000000000000000000000000000000000600052603160045260246000fd5b6001900381819060005260206000200160009055905550505050565b60006124d183610f09565b905081600660008573ffffffffffffffffffffffffffffffffffffffff1673ffffffffffffffffffffffffffffffffffffffff168152602001908152602001600020600083815260200190815260200160002081905550806007600084815260200190815260200160002081905550505050565b600073ffffffffffffffffffffffffffffffffffffffff168273ffffffffffffffffffffffffffffffffffffffff1614156125b5576040517f08c379a00000000000000000000000000000000000000000000000000000000081526004016125ac906131c5565b60405180910390fd5b6125be81611ba8565b156125fe576040517f08c379a00000000000000000000000000000000000000000000000000000000081526004016125f590613125565b60405180910390fd5b61260a60008383611ebd565b6001600360008473ffffffffffffffffffffffffffffffffffffffff1673ffffffffffffffffffffffffffffffffffffffff168152602001908152602001600020600082825461265a91906133d8565b92505081905550816002600083815260200190815260200160002060006101000a81548173ffffffffffffffffffffffffffffffffffffffff021916908373ffffffffffffffffffffffffffffffffffffffff160217905550808273ffffffffffffffffffffffffffffffffffffffff16600073ffffffffffffffffffffffffffffffffffffffff167fddf252ad1be2c89b69c2b068fc378daa952ba7f163c4a11628f55a4df523b3ef60405160405180910390a461271b60008383611fd1565b5050565b6000808273ffffffffffffffffffffffffffffffffffffffff163b119050919050565b82805461274e90613549565b90600052602060002090601f01602090048101928261277057600085556127b7565b82601f1061278957805160ff19168380011785556127b7565b828001600101855582156127b7579182015b828111156127b657825182559160200191906001019061279b565b5b5090506127c491906127c8565b5090565b5b808211156127e15760008160009055506001016127c9565b5090565b60006127f86127f3846132e5565b6132c0565b90508281526020810184848401111561281057600080fd5b61281b848285613507565b509392505050565b600061283661283184613316565b6132c0565b90508281526020810184848401111561284e57600080fd5b612859848285613507565b509392505050565b60008135905061287081613b25565b92915050565b60008135905061288581613b3c565b92915050565b60008135905061289a81613b53565b92915050565b6000815190506128af81613b53565b92915050565b600082601f8301126128c657600080fd5b81356128d68482602086016127e5565b91505092915050565b600082601f8301126128f057600080fd5b8135612900848260208601612823565b91505092915050565b60008135905061291881613b6a565b92915050565b60006020828403121561293057600080fd5b600061293e84828501612861565b91505092915050565b6000806040838503121561295a57600080fd5b600061296885828601612861565b925050602061297985828601612861565b9150509250929050565b60008060006060848603121561299857600080fd5b60006129a686828701612861565b93505060206129b786828701612861565b92505060406129c886828701612909565b9150509250925092565b600080600080608085870312156129e857600080fd5b60006129f687828801612861565b9450506020612a0787828801612861565b9350506040612a1887828801612909565b925050606085013567ffffffffffffffff811115612a3557600080fd5b612a41878288016128b5565b91505092959194509250565b60008060408385031215612a6057600080fd5b6000612a6e85828601612861565b9250506020612a7f85828601612876565b9150509250929050565b60008060408385031215612a9c57600080fd5b6000612aaa85828601612861565b9250506020612abb85828601612909565b9150509250929050565b600060208284031215612ad757600080fd5b6000612ae584828501612876565b91505092915050565b600060208284031215612b0057600080fd5b6000612b0e8482850161288b565b91505092915050565b600060208284031215612b2957600080fd5b6000612b37848285016128a0565b91505092915050565b600060208284031215612b5257600080fd5b600082013567ffffffffffffffff811115612b6c57600080fd5b612b78848285016128df565b91505092915050565b600060208284031215612b9357600080fd5b6000612ba184828501612909565b91505092915050565b6000612bb68383612f90565b60208301905092915050565b612bcb81613493565b82525050565b6000612bdc8261336c565b612be6818561339a565b9350612bf183613347565b8060005b83811015612c22578151612c098882612baa565b9750612c148361338d565b925050600181019050612bf5565b5085935050505092915050565b612c38816134a5565b82525050565b6000612c4982613377565b612c5381856133ab565b9350612c63818560208601613516565b612c6c816136e2565b840191505092915050565b6000612c8282613382565b612c8c81856133bc565b9350612c9c818560208601613516565b612ca5816136e2565b840191505092915050565b6000612cbb82613382565b612cc581856133cd565b9350612cd5818560208601613516565b80840191505092915050565b60008154612cee81613549565b612cf881866133cd565b94506001821660008114612d135760018114612d2457612d57565b60ff19831686528186019350612d57565b612d2d85613357565b60005b83811015612d4f57815481890152600182019150602081019050612d30565b838801955050505b50505092915050565b6000612d6d602b836133bc565b9150612d78826136f3565b604082019050919050565b6000612d906032836133bc565b9150612d9b82613742565b604082019050919050565b6000612db36026836133bc565b9150612dbe82613791565b604082019050919050565b6000612dd66025836133bc565b9150612de1826137e0565b604082019050919050565b6000612df9601c836133bc565b9150612e048261382f565b602082019050919050565b6000612e1c6024836133bc565b9150612e2782613858565b604082019050919050565b6000612e3f6019836133bc565b9150612e4a826138a7565b602082019050919050565b6000612e626029836133bc565b9150612e6d826138d0565b604082019050919050565b6000612e85603e836133bc565b9150612e908261391f565b604082019050919050565b6000612ea86020836133bc565b9150612eb38261396e565b602082019050919050565b6000612ecb6020836133bc565b9150612ed682613997565b602082019050919050565b6000612eee602f836133bc565b9150612ef9826139c0565b604082019050919050565b6000612f116018836133bc565b9150612f1c82613a0f565b602082019050919050565b6000612f346021836133bc565b9150612f3f82613a38565b604082019050919050565b6000612f57602c836133bc565b9150612f6282613a87565b604082019050919050565b6000612f7a602e836133bc565b9150612f8582613ad6565b604082019050919050565b612f99816134fd565b82525050565b612fa8816134fd565b82525050565b6000612fba8286612cb0565b9150612fc68285612cb0565b9150612fd28284612ce1565b9150819050949350505050565b6000602082019050612ff46000830184612bc2565b92915050565b600060808201905061300f6000830187612bc2565b61301c6020830186612bc2565b6130296040830185612f9f565b818103606083015261303b8184612c3e565b905095945050505050565b600060208201905081810360008301526130608184612bd1565b905092915050565b600060208201905061307d6000830184612c2f565b92915050565b6000602082019050818103600083015261309d8184612c77565b905092915050565b600060208201905081810360008301526130be81612d60565b9050919050565b600060208201905081810360008301526130de81612d83565b9050919050565b600060208201905081810360008301526130fe81612da6565b9050919050565b6000602082019050818103600083015261311e81612dc9565b9050919050565b6000602082019050818103600083015261313e81612dec565b9050919050565b6000602082019050818103600083015261315e81612e0f565b9050919050565b6000602082019050818103600083015261317e81612e32565b9050919050565b6000602082019050818103600083015261319e81612e55565b9050919050565b600060208201905081810360008301526131be81612e78565b9050919050565b600060208201905081810360008301526131de81612e9b565b9050919050565b600060208201905081810360008301526131fe81612ebe565b9050919050565b6000602082019050818103600083015261321e81612ee1565b9050919050565b6000602082019050818103600083015261323e81612f04565b9050919050565b6000602082019050818103600083015261325e81612f27565b9050919050565b6000602082019050818103600083015261327e81612f4a565b9050919050565b6000602082019050818103600083015261329e81612f6d565b9050919050565b60006020820190506132ba6000830184612f9f565b92915050565b60006132ca6132db565b90506132d6828261357b565b919050565b6000604051905090565b600067ffffffffffffffff821115613300576132ff6136b3565b5b613309826136e2565b9050602081019050919050565b600067ffffffffffffffff821115613331576133306136b3565b5b61333a826136e2565b9050602081019050919050565b6000819050602082019050919050565b60008190508160005260206000209050919050565b600081519050919050565b600081519050919050565b600081519050919050565b6000602082019050919050565b600082825260208201905092915050565b600082825260208201905092915050565b600082825260208201905092915050565b600081905092915050565b60006133e3826134fd565b91506133ee836134fd565b9250827fffffffffffffffffffffffffffffffffffffffffffffffffffffffffffffffff0382111561342357613422613626565b5b828201905092915050565b6000613439826134fd565b9150613444836134fd565b92508261345457613453613655565b5b828204905092915050565b600061346a826134fd565b9150613475836134fd565b92508282101561348857613487613626565b5b828203905092915050565b600061349e826134dd565b9050919050565b60008115159050919050565b60007fffffffff0000000000000000000000000000000000000000000000000000000082169050919050565b600073ffffffffffffffffffffffffffffffffffffffff82169050919050565b6000819050919050565b82818337600083830152505050565b60005b83811015613534578082015181840152602081019050613519565b83811115613543576000848401525b50505050565b6000600282049050600182168061356157607f821691505b6020821081141561357557613574613684565b5b50919050565b613584826136e2565b810181811067ffffffffffffffff821117156135a3576135a26136b3565b5b80604052505050565b60006135b7826134fd565b91507fffffffffffffffffffffffffffffffffffffffffffffffffffffffffffffffff8214156135ea576135e9613626565b5b600182019050919050565b6000613600826134fd565b915061360b836134fd565b92508261361b5761361a613655565b5b828206905092915050565b7f4e487b7100000000000000000000000000000000000000000000000000000000600052601160045260246000fd5b7f4e487b7100000000000000000000000000000000000000000000000000000000600052601260045260246000fd5b7f4e487b7100000000000000000000000000000000000000000000000000000000600052602260045260246000fd5b7f4e487b7100000000000000000000000000000000000000000000000000000000600052604160045260246000fd5b6000601f19601f8301169050919050565b7f455243373231456e756d657261626c653a206f776e657220696e646578206f7560008201527f74206f6620626f756e6473000000000000000000000000000000000000000000602082015250565b7f4552433732313a207472616e7366657220746f206e6f6e20455243373231526560008201527f63656976657220696d706c656d656e7465720000000000000000000000000000602082015250565b7f4f776e61626c653a206e6577206f776e657220697320746865207a65726f206160008201527f6464726573730000000000000000000000000000000000000000000000000000602082015250565b7f4552433732313a207472616e736665722066726f6d20696e636f72726563742060008201527f6f776e6572000000000000000000000000000000000000000000000000000000602082015250565b7f4552433732313a20746f6b656e20616c7265616479206d696e74656400000000600082015250565b7f4552433732313a207472616e7366657220746f20746865207a65726f2061646460008201527f7265737300000000000000000000000000000000000000000000000000000000602082015250565b7f4552433732313a20617070726f766520746f2063616c6c657200000000000000600082015250565b7f4552433732313a2061646472657373207a65726f206973206e6f74206120766160008201527f6c6964206f776e65720000000000000000000000000000000000000000000000602082015250565b7f4552433732313a20617070726f76652063616c6c6572206973206e6f7420746f60008201527f6b656e206f776e6572206e6f7220617070726f76656420666f7220616c6c0000602082015250565b7f4552433732313a206d696e7420746f20746865207a65726f2061646472657373600082015250565b7f4f776e61626c653a2063616c6c6572206973206e6f7420746865206f776e6572600082015250565b7f4552433732314d657461646174613a2055524920717565727920666f72206e6f60008201527f6e6578697374656e7420746f6b656e0000000000000000000000000000000000602082015250565b7f4552433732313a20696e76616c696420746f6b656e2049440000000000000000600082015250565b7f4552433732313a20617070726f76616c20746f2063757272656e74206f776e6560008201527f7200000000000000000000000000000000000000000000000000000000000000602082015250565b7f455243373231456e756d657261626c653a20676c6f62616c20696e646578206f60008201527f7574206f6620626f756e64730000000000000000000000000000000000000000602082015250565b7f4552433732313a2063616c6c6572206973206e6f7420746f6b656e206f776e6560008201527f72206e6f7220617070726f766564000000000000000000000000000000000000602082015250565b613b2e81613493565b8114613b3957600080fd5b50565b613b45816134a5565b8114613b5057600080fd5b50565b613b5c816134b1565b8114613b6757600080fd5b50565b613b73816134fd565b8114613b7e57600080fd5b5056fea2646970667358221220c38246a8d61f7e989e5aec4241a837a988b90a601715931591380048125305f164736f6c63430008040033",
  "linkReferences": {},
  "deployedLinkReferences": {}
}