{
	"contracts/EscrowERC20.sol": {
		"EscrowERC20": {
			"abi": [
				{
					"inputs": [
						{
							"internalType": "address",
							"name": "_token_addr",
							"type": "address"
						}
					],
					"stateMutability": "nonpayable",
					"type": "constructor"
				},
				{
					"anonymous": false,
					"inputs": [
						{
							"indexed": false,
							"internalType": "uint256",
							"name": "amount",
							"type": "uint256"
						}
					],
					"name": "ReceiverBalance",
					"type": "event"
				},
				{
					"anonymous": false,
					"inputs": [
						{
							"indexed": false,
							"internalType": "uint256",
							"name": "amount",
							"type": "uint256"
						}
					],
					"name": "SenderBalance",
					"type": "event"
				},
				{
					"inputs": [
						{
							"internalType": "address",
							"name": "",
							"type": "address"
						},
						{
							"internalType": "address",
							"name": "",
							"type": "address"
						}
					],
					"name": "balance",
					"outputs": [
						{
							"internalType": "uint256",
							"name": "",
							"type": "uint256"
						}
					],
					"stateMutability": "view",
					"type": "function"
				},
				{
					"inputs": [
						{
							"internalType": "address",
							"name": "_receiver",
							"type": "address"
						},
						{
							"internalType": "uint256",
							"name": "_amount",
							"type": "uint256"
						}
					],
					"name": "deposit",
					"outputs": [],
					"stateMutability": "nonpayable",
					"type": "function"
				},
				{
					"inputs": [],
					"name": "token",
					"outputs": [
						{
							"internalType": "contract IERC20",
							"name": "",
							"type": "address"
						}
					],
					"stateMutability": "view",
					"type": "function"
				}
			],
			"devdoc": {
				"kind": "dev",
				"methods": {},
				"version": 1
			},
			"evm": {
				"assembly": "    /* \"contracts/EscrowERC20.sol\":123:753  contract EscrowERC20 {... */\n  mstore(0x40, 0x80)\n    /* \"contracts/EscrowERC20.sol\":245:322  constructor(address _token_addr) {... */\n  callvalue\n  dup1\n  iszero\n  tag_1\n  jumpi\n  0x00\n  dup1\n  revert\ntag_1:\n  pop\n  mload(0x40)\n  sub(codesize, bytecodeSize)\n  dup1\n  bytecodeSize\n  dup4\n  codecopy\n  dup2\n  dup2\n  add\n  0x40\n  mstore\n  dup2\n  add\n  swap1\n  tag_2\n  swap2\n  swap1\n  tag_3\n  jump\t// in\ntag_2:\n    /* \"contracts/EscrowERC20.sol\":303:314  _token_addr */\n  dup1\n    /* \"contracts/EscrowERC20.sol\":288:293  token */\n  0x00\n  dup1\n    /* \"contracts/EscrowERC20.sol\":288:315  token = IERC20(_token_addr) */\n  0x0100\n  exp\n  dup2\n  sload\n  dup2\n  0xffffffffffffffffffffffffffffffffffffffff\n  mul\n  not\n  and\n  swap1\n  dup4\n  0xffffffffffffffffffffffffffffffffffffffff\n  and\n  mul\n  or\n  swap1\n  sstore\n  pop\n    /* \"contracts/EscrowERC20.sol\":245:322  constructor(address _token_addr) {... */\n  pop\n    /* \"contracts/EscrowERC20.sol\":123:753  contract EscrowERC20 {... */\n  jump(tag_6)\n    /* \"#utility.yul\":7:150   */\ntag_8:\n    /* \"#utility.yul\":64:69   */\n  0x00\n    /* \"#utility.yul\":95:101   */\n  dup2\n    /* \"#utility.yul\":89:102   */\n  mload\n    /* \"#utility.yul\":80:102   */\n  swap1\n  pop\n    /* \"#utility.yul\":111:144   */\n  tag_10\n    /* \"#utility.yul\":138:143   */\n  dup2\n    /* \"#utility.yul\":111:144   */\n  tag_11\n  jump\t// in\ntag_10:\n    /* \"#utility.yul\":7:150   */\n  swap3\n  swap2\n  pop\n  pop\n  jump\t// out\n    /* \"#utility.yul\":156:507   */\ntag_3:\n    /* \"#utility.yul\":226:232   */\n  0x00\n    /* \"#utility.yul\":275:277   */\n  0x20\n    /* \"#utility.yul\":263:272   */\n  dup3\n    /* \"#utility.yul\":254:261   */\n  dup5\n    /* \"#utility.yul\":250:273   */\n  sub\n    /* \"#utility.yul\":246:278   */\n  slt\n    /* \"#utility.yul\":243:362   */\n  iszero\n  tag_13\n  jumpi\n    /* \"#utility.yul\":281:360   */\n  tag_14\n  tag_15\n  jump\t// in\ntag_14:\n    /* \"#utility.yul\":243:362   */\ntag_13:\n    /* \"#utility.yul\":401:402   */\n  0x00\n    /* \"#utility.yul\":426:490   */\n  tag_16\n    /* \"#utility.yul\":482:489   */\n  dup5\n    /* \"#utility.yul\":473:479   */\n  dup3\n    /* \"#utility.yul\":462:471   */\n  dup6\n    /* \"#utility.yul\":458:480   */\n  add\n    /* \"#utility.yul\":426:490   */\n  tag_8\n  jump\t// in\ntag_16:\n    /* \"#utility.yul\":416:490   */\n  swap2\n  pop\n    /* \"#utility.yul\":372:500   */\n  pop\n    /* \"#utility.yul\":156:507   */\n  swap3\n  swap2\n  pop\n  pop\n  jump\t// out\n    /* \"#utility.yul\":594:690   */\ntag_19:\n    /* \"#utility.yul\":631:638   */\n  0x00\n    /* \"#utility.yul\":660:684   */\n  tag_21\n    /* \"#utility.yul\":678:683   */\n  dup3\n    /* \"#utility.yul\":660:684   */\n  tag_22\n  jump\t// in\ntag_21:\n    /* \"#utility.yul\":649:684   */\n  swap1\n  pop\n    /* \"#utility.yul\":594:690   */\n  swap2\n  swap1\n  pop\n  jump\t// out\n    /* \"#utility.yul\":696:822   */\ntag_22:\n    /* \"#utility.yul\":733:740   */\n  0x00\n    /* \"#utility.yul\":773:815   */\n  0xffffffffffffffffffffffffffffffffffffffff\n    /* \"#utility.yul\":766:771   */\n  dup3\n    /* \"#utility.yul\":762:816   */\n  and\n    /* \"#utility.yul\":751:816   */\n  swap1\n  pop\n    /* \"#utility.yul\":696:822   */\n  swap2\n  swap1\n  pop\n  jump\t// out\n    /* \"#utility.yul\":951:1068   */\ntag_15:\n    /* \"#utility.yul\":1060:1061   */\n  0x00\n    /* \"#utility.yul\":1057:1058   */\n  dup1\n    /* \"#utility.yul\":1050:1062   */\n  revert\n    /* \"#utility.yul\":1074:1196   */\ntag_11:\n    /* \"#utility.yul\":1147:1171   */\n  tag_28\n    /* \"#utility.yul\":1165:1170   */\n  dup2\n    /* \"#utility.yul\":1147:1171   */\n  tag_19\n  jump\t// in\ntag_28:\n    /* \"#utility.yul\":1140:1145   */\n  dup2\n    /* \"#utility.yul\":1137:1172   */\n  eq\n    /* \"#utility.yul\":1127:1190   */\n  tag_29\n  jumpi\n    /* \"#utility.yul\":1186:1187   */\n  0x00\n    /* \"#utility.yul\":1183:1184   */\n  dup1\n    /* \"#utility.yul\":1176:1188   */\n  revert\n    /* \"#utility.yul\":1127:1190   */\ntag_29:\n    /* \"#utility.yul\":1074:1196   */\n  pop\n  jump\t// out\n    /* \"contracts/EscrowERC20.sol\":123:753  contract EscrowERC20 {... */\ntag_6:\n  dataSize(sub_0)\n  dup1\n  dataOffset(sub_0)\n  0x00\n  codecopy\n  0x00\n  return\nstop\n\nsub_0: assembly {\n        /* \"contracts/EscrowERC20.sol\":123:753  contract EscrowERC20 {... */\n      mstore(0x40, 0x80)\n      callvalue\n      dup1\n      iszero\n      tag_1\n      jumpi\n      0x00\n      dup1\n      revert\n    tag_1:\n      pop\n      jumpi(tag_2, lt(calldatasize, 0x04))\n      shr(0xe0, calldataload(0x00))\n      dup1\n      0x47e7ef24\n      eq\n      tag_3\n      jumpi\n      dup1\n      0xb203bb99\n      eq\n      tag_4\n      jumpi\n      dup1\n      0xfc0c546a\n      eq\n      tag_5\n      jumpi\n    tag_2:\n      0x00\n      dup1\n      revert\n        /* \"contracts/EscrowERC20.sol\":413:751  function deposit(address _receiver, uint _amount) public {... */\n    tag_3:\n      tag_6\n      0x04\n      dup1\n      calldatasize\n      sub\n      dup2\n      add\n      swap1\n      tag_7\n      swap2\n      swap1\n      tag_8\n      jump\t// in\n    tag_7:\n      tag_9\n      jump\t// in\n    tag_6:\n      stop\n        /* \"contracts/EscrowERC20.sol\":175:238  mapping(address => mapping (address => uint256)) public balance */\n    tag_4:\n      tag_10\n      0x04\n      dup1\n      calldatasize\n      sub\n      dup2\n      add\n      swap1\n      tag_11\n      swap2\n      swap1\n      tag_12\n      jump\t// in\n    tag_11:\n      tag_13\n      jump\t// in\n    tag_10:\n      mload(0x40)\n      tag_14\n      swap2\n      swap1\n      tag_15\n      jump\t// in\n    tag_14:\n      mload(0x40)\n      dup1\n      swap2\n      sub\n      swap1\n      return\n        /* \"contracts/EscrowERC20.sol\":150:169  IERC20 public token */\n    tag_5:\n      tag_16\n      tag_17\n      jump\t// in\n    tag_16:\n      mload(0x40)\n      tag_18\n      swap2\n      swap1\n      tag_19\n      jump\t// in\n    tag_18:\n      mload(0x40)\n      dup1\n      swap2\n      sub\n      swap1\n      return\n        /* \"contracts/EscrowERC20.sol\":413:751  function deposit(address _receiver, uint _amount) public {... */\n    tag_9:\n        /* \"contracts/EscrowERC20.sol\":485:528  ReceiverBalance(token.balanceOf(_receiver)) */\n      0xd6d1e514f535bf359ef2d264a3e62439f84e441b14c40cb1a3795f79c510a210\n        /* \"contracts/EscrowERC20.sol\":501:506  token */\n      0x00\n      dup1\n      sload\n      swap1\n      0x0100\n      exp\n      swap1\n      div\n      0xffffffffffffffffffffffffffffffffffffffff\n      and\n        /* \"contracts/EscrowERC20.sol\":501:516  token.balanceOf */\n      0xffffffffffffffffffffffffffffffffffffffff\n      and\n      0x70a08231\n        /* \"contracts/EscrowERC20.sol\":517:526  _receiver */\n      dup5\n        /* \"contracts/EscrowERC20.sol\":501:527  token.balanceOf(_receiver) */\n      mload(0x40)\n      dup3\n      0xffffffff\n      and\n      0xe0\n      shl\n      dup2\n      mstore\n      0x04\n      add\n      tag_21\n      swap2\n      swap1\n      tag_22\n      jump\t// in\n    tag_21:\n      0x20\n      mload(0x40)\n      dup1\n      dup4\n      sub\n      dup2\n      dup7\n      dup1\n      extcodesize\n      iszero\n      dup1\n      iszero\n      tag_23\n      jumpi\n      0x00\n      dup1\n      revert\n    tag_23:\n      pop\n      gas\n      staticcall\n      iszero\n      dup1\n      iszero\n      tag_25\n      jumpi\n      returndatasize\n      0x00\n      dup1\n      returndatacopy\n      revert(0x00, returndatasize)\n    tag_25:\n      pop\n      pop\n      pop\n      pop\n      mload(0x40)\n      returndatasize\n      not(0x1f)\n      0x1f\n      dup3\n      add\n      and\n      dup3\n      add\n      dup1\n      0x40\n      mstore\n      pop\n      dup2\n      add\n      swap1\n      tag_26\n      swap2\n      swap1\n      tag_27\n      jump\t// in\n    tag_26:\n        /* \"contracts/EscrowERC20.sol\":485:528  ReceiverBalance(token.balanceOf(_receiver)) */\n      mload(0x40)\n      tag_28\n      swap2\n      swap1\n      tag_15\n      jump\t// in\n    tag_28:\n      mload(0x40)\n      dup1\n      swap2\n      sub\n      swap1\n      log1\n        /* \"contracts/EscrowERC20.sol\":543:585  SenderBalance(token.balanceOf(msg.sender)) */\n      0x4e5795e368b20daeeaab5537a0c3fb50f8e52de5991bf80c41dc32b861433f08\n        /* \"contracts/EscrowERC20.sol\":557:562  token */\n      0x00\n      dup1\n      sload\n      swap1\n      0x0100\n      exp\n      swap1\n      div\n      0xffffffffffffffffffffffffffffffffffffffff\n      and\n        /* \"contracts/EscrowERC20.sol\":557:572  token.balanceOf */\n      0xffffffffffffffffffffffffffffffffffffffff\n      and\n      0x70a08231\n        /* \"contracts/EscrowERC20.sol\":573:583  msg.sender */\n      caller\n        /* \"contracts/EscrowERC20.sol\":557:584  token.balanceOf(msg.sender) */\n      mload(0x40)\n      dup3\n      0xffffffff\n      and\n      0xe0\n      shl\n      dup2\n      mstore\n      0x04\n      add\n      tag_29\n      swap2\n      swap1\n      tag_22\n      jump\t// in\n    tag_29:\n      0x20\n      mload(0x40)\n      dup1\n      dup4\n      sub\n      dup2\n      dup7\n      dup1\n      extcodesize\n      iszero\n      dup1\n      iszero\n      tag_30\n      jumpi\n      0x00\n      dup1\n      revert\n    tag_30:\n      pop\n      gas\n      staticcall\n      iszero\n      dup1\n      iszero\n      tag_32\n      jumpi\n      returndatasize\n      0x00\n      dup1\n      returndatacopy\n      revert(0x00, returndatasize)\n    tag_32:\n      pop\n      pop\n      pop\n      pop\n      mload(0x40)\n      returndatasize\n      not(0x1f)\n      0x1f\n      dup3\n      add\n      and\n      dup3\n      add\n      dup1\n      0x40\n      mstore\n      pop\n      dup2\n      add\n      swap1\n      tag_33\n      swap2\n      swap1\n      tag_27\n      jump\t// in\n    tag_33:\n        /* \"contracts/EscrowERC20.sol\":543:585  SenderBalance(token.balanceOf(msg.sender)) */\n      mload(0x40)\n      tag_34\n      swap2\n      swap1\n      tag_15\n      jump\t// in\n    tag_34:\n      mload(0x40)\n      dup1\n      swap2\n      sub\n      swap1\n      log1\n        /* \"contracts/EscrowERC20.sol\":595:600  token */\n      0x00\n      dup1\n      sload\n      swap1\n      0x0100\n      exp\n      swap1\n      div\n      0xffffffffffffffffffffffffffffffffffffffff\n      and\n        /* \"contracts/EscrowERC20.sol\":595:609  token.transfer */\n      0xffffffffffffffffffffffffffffffffffffffff\n      and\n      0xa9059cbb\n        /* \"contracts/EscrowERC20.sol\":610:619  _receiver */\n      dup4\n        /* \"contracts/EscrowERC20.sol\":621:628  _amount */\n      dup4\n        /* \"contracts/EscrowERC20.sol\":595:629  token.transfer(_receiver, _amount) */\n      mload(0x40)\n      dup4\n      0xffffffff\n      and\n      0xe0\n      shl\n      dup2\n      mstore\n      0x04\n      add\n      tag_35\n      swap3\n      swap2\n      swap1\n      tag_36\n      jump\t// in\n    tag_35:\n      0x20\n      mload(0x40)\n      dup1\n      dup4\n      sub\n      dup2\n      0x00\n      dup8\n      dup1\n      extcodesize\n      iszero\n      dup1\n      iszero\n      tag_37\n      jumpi\n      0x00\n      dup1\n      revert\n    tag_37:\n      pop\n      gas\n      call\n      iszero\n      dup1\n      iszero\n      tag_39\n      jumpi\n      returndatasize\n      0x00\n      dup1\n      returndatacopy\n      revert(0x00, returndatasize)\n    tag_39:\n      pop\n      pop\n      pop\n      pop\n      mload(0x40)\n      returndatasize\n      not(0x1f)\n      0x1f\n      dup3\n      add\n      and\n      dup3\n      add\n      dup1\n      0x40\n      mstore\n      pop\n      dup2\n      add\n      swap1\n      tag_40\n      swap2\n      swap1\n      tag_41\n      jump\t// in\n    tag_40:\n      pop\n        /* \"contracts/EscrowERC20.sol\":644:687  ReceiverBalance(token.balanceOf(_receiver)) */\n      0xd6d1e514f535bf359ef2d264a3e62439f84e441b14c40cb1a3795f79c510a210\n        /* \"contracts/EscrowERC20.sol\":660:665  token */\n      0x00\n      dup1\n      sload\n      swap1\n      0x0100\n      exp\n      swap1\n      div\n      0xffffffffffffffffffffffffffffffffffffffff\n      and\n        /* \"contracts/EscrowERC20.sol\":660:675  token.balanceOf */\n      0xffffffffffffffffffffffffffffffffffffffff\n      and\n      0x70a08231\n        /* \"contracts/EscrowERC20.sol\":676:685  _receiver */\n      dup5\n        /* \"contracts/EscrowERC20.sol\":660:686  token.balanceOf(_receiver) */\n      mload(0x40)\n      dup3\n      0xffffffff\n      and\n      0xe0\n      shl\n      dup2\n      mstore\n      0x04\n      add\n      tag_42\n      swap2\n      swap1\n      tag_22\n      jump\t// in\n    tag_42:\n      0x20\n      mload(0x40)\n      dup1\n      dup4\n      sub\n      dup2\n      dup7\n      dup1\n      extcodesize\n      iszero\n      dup1\n      iszero\n      tag_43\n      jumpi\n      0x00\n      dup1\n      revert\n    tag_43:\n      pop\n      gas\n      staticcall\n      iszero\n      dup1\n      iszero\n      tag_45\n      jumpi\n      returndatasize\n      0x00\n      dup1\n      returndatacopy\n      revert(0x00, returndatasize)\n    tag_45:\n      pop\n      pop\n      pop\n      pop\n      mload(0x40)\n      returndatasize\n      not(0x1f)\n      0x1f\n      dup3\n      add\n      and\n      dup3\n      add\n      dup1\n      0x40\n      mstore\n      pop\n      dup2\n      add\n      swap1\n      tag_46\n      swap2\n      swap1\n      tag_27\n      jump\t// in\n    tag_46:\n        /* \"contracts/EscrowERC20.sol\":644:687  ReceiverBalance(token.balanceOf(_receiver)) */\n      mload(0x40)\n      tag_47\n      swap2\n      swap1\n      tag_15\n      jump\t// in\n    tag_47:\n      mload(0x40)\n      dup1\n      swap2\n      sub\n      swap1\n      log1\n        /* \"contracts/EscrowERC20.sol\":702:744  SenderBalance(token.balanceOf(msg.sender)) */\n      0x4e5795e368b20daeeaab5537a0c3fb50f8e52de5991bf80c41dc32b861433f08\n        /* \"contracts/EscrowERC20.sol\":716:721  token */\n      0x00\n      dup1\n      sload\n      swap1\n      0x0100\n      exp\n      swap1\n      div\n      0xffffffffffffffffffffffffffffffffffffffff\n      and\n        /* \"contracts/EscrowERC20.sol\":716:731  token.balanceOf */\n      0xffffffffffffffffffffffffffffffffffffffff\n      and\n      0x70a08231\n        /* \"contracts/EscrowERC20.sol\":732:742  msg.sender */\n      caller\n        /* \"contracts/EscrowERC20.sol\":716:743  token.balanceOf(msg.sender) */\n      mload(0x40)\n      dup3\n      0xffffffff\n      and\n      0xe0\n      shl\n      dup2\n      mstore\n      0x04\n      add\n      tag_48\n      swap2\n      swap1\n      tag_22\n      jump\t// in\n    tag_48:\n      0x20\n      mload(0x40)\n      dup1\n      dup4\n      sub\n      dup2\n      dup7\n      dup1\n      extcodesize\n      iszero\n      dup1\n      iszero\n      tag_49\n      jumpi\n      0x00\n      dup1\n      revert\n    tag_49:\n      pop\n      gas\n      staticcall\n      iszero\n      dup1\n      iszero\n      tag_51\n      jumpi\n      returndatasize\n      0x00\n      dup1\n      returndatacopy\n      revert(0x00, returndatasize)\n    tag_51:\n      pop\n      pop\n      pop\n      pop\n      mload(0x40)\n      returndatasize\n      not(0x1f)\n      0x1f\n      dup3\n      add\n      and\n      dup3\n      add\n      dup1\n      0x40\n      mstore\n      pop\n      dup2\n      add\n      swap1\n      tag_52\n      swap2\n      swap1\n      tag_27\n      jump\t// in\n    tag_52:\n        /* \"contracts/EscrowERC20.sol\":702:744  SenderBalance(token.balanceOf(msg.sender)) */\n      mload(0x40)\n      tag_53\n      swap2\n      swap1\n      tag_15\n      jump\t// in\n    tag_53:\n      mload(0x40)\n      dup1\n      swap2\n      sub\n      swap1\n      log1\n        /* \"contracts/EscrowERC20.sol\":413:751  function deposit(address _receiver, uint _amount) public {... */\n      pop\n      pop\n      jump\t// out\n        /* \"contracts/EscrowERC20.sol\":175:238  mapping(address => mapping (address => uint256)) public balance */\n    tag_13:\n      mstore(0x20, 0x01)\n      dup2\n      0x00\n      mstore\n      mstore(0x20, keccak256(0x00, 0x40))\n      dup1\n      0x00\n      mstore\n      keccak256(0x00, 0x40)\n      0x00\n      swap2\n      pop\n      swap2\n      pop\n      pop\n      sload\n      dup2\n      jump\t// out\n        /* \"contracts/EscrowERC20.sol\":150:169  IERC20 public token */\n    tag_17:\n      0x00\n      dup1\n      sload\n      swap1\n      0x0100\n      exp\n      swap1\n      div\n      0xffffffffffffffffffffffffffffffffffffffff\n      and\n      dup2\n      jump\t// out\n        /* \"#utility.yul\":7:146   */\n    tag_55:\n        /* \"#utility.yul\":53:58   */\n      0x00\n        /* \"#utility.yul\":91:97   */\n      dup2\n        /* \"#utility.yul\":78:98   */\n      calldataload\n        /* \"#utility.yul\":69:98   */\n      swap1\n      pop\n        /* \"#utility.yul\":107:140   */\n      tag_57\n        /* \"#utility.yul\":134:139   */\n      dup2\n        /* \"#utility.yul\":107:140   */\n      tag_58\n      jump\t// in\n    tag_57:\n        /* \"#utility.yul\":7:146   */\n      swap3\n      swap2\n      pop\n      pop\n      jump\t// out\n        /* \"#utility.yul\":152:289   */\n    tag_59:\n        /* \"#utility.yul\":206:211   */\n      0x00\n        /* \"#utility.yul\":237:243   */\n      dup2\n        /* \"#utility.yul\":231:244   */\n      mload\n        /* \"#utility.yul\":222:244   */\n      swap1\n      pop\n        /* \"#utility.yul\":253:283   */\n      tag_61\n        /* \"#utility.yul\":277:282   */\n      dup2\n        /* \"#utility.yul\":253:283   */\n      tag_62\n      jump\t// in\n    tag_61:\n        /* \"#utility.yul\":152:289   */\n      swap3\n      swap2\n      pop\n      pop\n      jump\t// out\n        /* \"#utility.yul\":295:434   */\n    tag_63:\n        /* \"#utility.yul\":341:346   */\n      0x00\n        /* \"#utility.yul\":379:385   */\n      dup2\n        /* \"#utility.yul\":366:386   */\n      calldataload\n        /* \"#utility.yul\":357:386   */\n      swap1\n      pop\n        /* \"#utility.yul\":395:428   */\n      tag_65\n        /* \"#utility.yul\":422:427   */\n      dup2\n        /* \"#utility.yul\":395:428   */\n      tag_66\n      jump\t// in\n    tag_65:\n        /* \"#utility.yul\":295:434   */\n      swap3\n      swap2\n      pop\n      pop\n      jump\t// out\n        /* \"#utility.yul\":440:583   */\n    tag_67:\n        /* \"#utility.yul\":497:502   */\n      0x00\n        /* \"#utility.yul\":528:534   */\n      dup2\n        /* \"#utility.yul\":522:535   */\n      mload\n        /* \"#utility.yul\":513:535   */\n      swap1\n      pop\n        /* \"#utility.yul\":544:577   */\n      tag_69\n        /* \"#utility.yul\":571:576   */\n      dup2\n        /* \"#utility.yul\":544:577   */\n      tag_66\n      jump\t// in\n    tag_69:\n        /* \"#utility.yul\":440:583   */\n      swap3\n      swap2\n      pop\n      pop\n      jump\t// out\n        /* \"#utility.yul\":589:1063   */\n    tag_12:\n        /* \"#utility.yul\":657:663   */\n      0x00\n        /* \"#utility.yul\":665:671   */\n      dup1\n        /* \"#utility.yul\":714:716   */\n      0x40\n        /* \"#utility.yul\":702:711   */\n      dup4\n        /* \"#utility.yul\":693:700   */\n      dup6\n        /* \"#utility.yul\":689:712   */\n      sub\n        /* \"#utility.yul\":685:717   */\n      slt\n        /* \"#utility.yul\":682:801   */\n      iszero\n      tag_71\n      jumpi\n        /* \"#utility.yul\":720:799   */\n      tag_72\n      tag_73\n      jump\t// in\n    tag_72:\n        /* \"#utility.yul\":682:801   */\n    tag_71:\n        /* \"#utility.yul\":840:841   */\n      0x00\n        /* \"#utility.yul\":865:918   */\n      tag_74\n        /* \"#utility.yul\":910:917   */\n      dup6\n        /* \"#utility.yul\":901:907   */\n      dup3\n        /* \"#utility.yul\":890:899   */\n      dup7\n        /* \"#utility.yul\":886:908   */\n      add\n        /* \"#utility.yul\":865:918   */\n      tag_55\n      jump\t// in\n    tag_74:\n        /* \"#utility.yul\":855:918   */\n      swap3\n      pop\n        /* \"#utility.yul\":811:928   */\n      pop\n        /* \"#utility.yul\":967:969   */\n      0x20\n        /* \"#utility.yul\":993:1046   */\n      tag_75\n        /* \"#utility.yul\":1038:1045   */\n      dup6\n        /* \"#utility.yul\":1029:1035   */\n      dup3\n        /* \"#utility.yul\":1018:1027   */\n      dup7\n        /* \"#utility.yul\":1014:1036   */\n      add\n        /* \"#utility.yul\":993:1046   */\n      tag_55\n      jump\t// in\n    tag_75:\n        /* \"#utility.yul\":983:1046   */\n      swap2\n      pop\n        /* \"#utility.yul\":938:1056   */\n      pop\n        /* \"#utility.yul\":589:1063   */\n      swap3\n      pop\n      swap3\n      swap1\n      pop\n      jump\t// out\n        /* \"#utility.yul\":1069:1543   */\n    tag_8:\n        /* \"#utility.yul\":1137:1143   */\n      0x00\n        /* \"#utility.yul\":1145:1151   */\n      dup1\n        /* \"#utility.yul\":1194:1196   */\n      0x40\n        /* \"#utility.yul\":1182:1191   */\n      dup4\n        /* \"#utility.yul\":1173:1180   */\n      dup6\n        /* \"#utility.yul\":1169:1192   */\n      sub\n        /* \"#utility.yul\":1165:1197   */\n      slt\n        /* \"#utility.yul\":1162:1281   */\n      iszero\n      tag_77\n      jumpi\n        /* \"#utility.yul\":1200:1279   */\n      tag_78\n      tag_73\n      jump\t// in\n    tag_78:\n        /* \"#utility.yul\":1162:1281   */\n    tag_77:\n        /* \"#utility.yul\":1320:1321   */\n      0x00\n        /* \"#utility.yul\":1345:1398   */\n      tag_79\n        /* \"#utility.yul\":1390:1397   */\n      dup6\n        /* \"#utility.yul\":1381:1387   */\n      dup3\n        /* \"#utility.yul\":1370:1379   */\n      dup7\n        /* \"#utility.yul\":1366:1388   */\n      add\n        /* \"#utility.yul\":1345:1398   */\n      tag_55\n      jump\t// in\n    tag_79:\n        /* \"#utility.yul\":1335:1398   */\n      swap3\n      pop\n        /* \"#utility.yul\":1291:1408   */\n      pop\n        /* \"#utility.yul\":1447:1449   */\n      0x20\n        /* \"#utility.yul\":1473:1526   */\n      tag_80\n        /* \"#utility.yul\":1518:1525   */\n      dup6\n        /* \"#utility.yul\":1509:1515   */\n      dup3\n        /* \"#utility.yul\":1498:1507   */\n      dup7\n        /* \"#utility.yul\":1494:1516   */\n      add\n        /* \"#utility.yul\":1473:1526   */\n      tag_63\n      jump\t// in\n    tag_80:\n        /* \"#utility.yul\":1463:1526   */\n      swap2\n      pop\n        /* \"#utility.yul\":1418:1536   */\n      pop\n        /* \"#utility.yul\":1069:1543   */\n      swap3\n      pop\n      swap3\n      swap1\n      pop\n      jump\t// out\n        /* \"#utility.yul\":1549:1894   */\n    tag_41:\n        /* \"#utility.yul\":1616:1622   */\n      0x00\n        /* \"#utility.yul\":1665:1667   */\n      0x20\n        /* \"#utility.yul\":1653:1662   */\n      dup3\n        /* \"#utility.yul\":1644:1651   */\n      dup5\n        /* \"#utility.yul\":1640:1663   */\n      sub\n        /* \"#utility.yul\":1636:1668   */\n      slt\n        /* \"#utility.yul\":1633:1752   */\n      iszero\n      tag_82\n      jumpi\n        /* \"#utility.yul\":1671:1750   */\n      tag_83\n      tag_73\n      jump\t// in\n    tag_83:\n        /* \"#utility.yul\":1633:1752   */\n    tag_82:\n        /* \"#utility.yul\":1791:1792   */\n      0x00\n        /* \"#utility.yul\":1816:1877   */\n      tag_84\n        /* \"#utility.yul\":1869:1876   */\n      dup5\n        /* \"#utility.yul\":1860:1866   */\n      dup3\n        /* \"#utility.yul\":1849:1858   */\n      dup6\n        /* \"#utility.yul\":1845:1867   */\n      add\n        /* \"#utility.yul\":1816:1877   */\n      tag_59\n      jump\t// in\n    tag_84:\n        /* \"#utility.yul\":1806:1877   */\n      swap2\n      pop\n        /* \"#utility.yul\":1762:1887   */\n      pop\n        /* \"#utility.yul\":1549:1894   */\n      swap3\n      swap2\n      pop\n      pop\n      jump\t// out\n        /* \"#utility.yul\":1900:2251   */\n    tag_27:\n        /* \"#utility.yul\":1970:1976   */\n      0x00\n        /* \"#utility.yul\":2019:2021   */\n      0x20\n        /* \"#utility.yul\":2007:2016   */\n      dup3\n        /* \"#utility.yul\":1998:2005   */\n      dup5\n        /* \"#utility.yul\":1994:2017   */\n      sub\n        /* \"#utility.yul\":1990:2022   */\n      slt\n        /* \"#utility.yul\":1987:2106   */\n      iszero\n      tag_86\n      jumpi\n        /* \"#utility.yul\":2025:2104   */\n      tag_87\n      tag_73\n      jump\t// in\n    tag_87:\n        /* \"#utility.yul\":1987:2106   */\n    tag_86:\n        /* \"#utility.yul\":2145:2146   */\n      0x00\n        /* \"#utility.yul\":2170:2234   */\n      tag_88\n        /* \"#utility.yul\":2226:2233   */\n      dup5\n        /* \"#utility.yul\":2217:2223   */\n      dup3\n        /* \"#utility.yul\":2206:2215   */\n      dup6\n        /* \"#utility.yul\":2202:2224   */\n      add\n        /* \"#utility.yul\":2170:2234   */\n      tag_67\n      jump\t// in\n    tag_88:\n        /* \"#utility.yul\":2160:2234   */\n      swap2\n      pop\n        /* \"#utility.yul\":2116:2244   */\n      pop\n        /* \"#utility.yul\":1900:2251   */\n      swap3\n      swap2\n      pop\n      pop\n      jump\t// out\n        /* \"#utility.yul\":2257:2375   */\n    tag_89:\n        /* \"#utility.yul\":2344:2368   */\n      tag_91\n        /* \"#utility.yul\":2362:2367   */\n      dup2\n        /* \"#utility.yul\":2344:2368   */\n      tag_92\n      jump\t// in\n    tag_91:\n        /* \"#utility.yul\":2339:2342   */\n      dup3\n        /* \"#utility.yul\":2332:2369   */\n      mstore\n        /* \"#utility.yul\":2257:2375   */\n      pop\n      pop\n      jump\t// out\n        /* \"#utility.yul\":2381:2538   */\n    tag_93:\n        /* \"#utility.yul\":2481:2531   */\n      tag_95\n        /* \"#utility.yul\":2525:2530   */\n      dup2\n        /* \"#utility.yul\":2481:2531   */\n      tag_96\n      jump\t// in\n    tag_95:\n        /* \"#utility.yul\":2476:2479   */\n      dup3\n        /* \"#utility.yul\":2469:2532   */\n      mstore\n        /* \"#utility.yul\":2381:2538   */\n      pop\n      pop\n      jump\t// out\n        /* \"#utility.yul\":2544:2662   */\n    tag_97:\n        /* \"#utility.yul\":2631:2655   */\n      tag_99\n        /* \"#utility.yul\":2649:2654   */\n      dup2\n        /* \"#utility.yul\":2631:2655   */\n      tag_100\n      jump\t// in\n    tag_99:\n        /* \"#utility.yul\":2626:2629   */\n      dup3\n        /* \"#utility.yul\":2619:2656   */\n      mstore\n        /* \"#utility.yul\":2544:2662   */\n      pop\n      pop\n      jump\t// out\n        /* \"#utility.yul\":2668:2890   */\n    tag_22:\n        /* \"#utility.yul\":2761:2765   */\n      0x00\n        /* \"#utility.yul\":2799:2801   */\n      0x20\n        /* \"#utility.yul\":2788:2797   */\n      dup3\n        /* \"#utility.yul\":2784:2802   */\n      add\n        /* \"#utility.yul\":2776:2802   */\n      swap1\n      pop\n        /* \"#utility.yul\":2812:2883   */\n      tag_102\n        /* \"#utility.yul\":2880:2881   */\n      0x00\n        /* \"#utility.yul\":2869:2878   */\n      dup4\n        /* \"#utility.yul\":2865:2882   */\n      add\n        /* \"#utility.yul\":2856:2862   */\n      dup5\n        /* \"#utility.yul\":2812:2883   */\n      tag_89\n      jump\t// in\n    tag_102:\n        /* \"#utility.yul\":2668:2890   */\n      swap3\n      swap2\n      pop\n      pop\n      jump\t// out\n        /* \"#utility.yul\":2896:3228   */\n    tag_36:\n        /* \"#utility.yul\":3017:3021   */\n      0x00\n        /* \"#utility.yul\":3055:3057   */\n      0x40\n        /* \"#utility.yul\":3044:3053   */\n      dup3\n        /* \"#utility.yul\":3040:3058   */\n      add\n        /* \"#utility.yul\":3032:3058   */\n      swap1\n      pop\n        /* \"#utility.yul\":3068:3139   */\n      tag_104\n        /* \"#utility.yul\":3136:3137   */\n      0x00\n        /* \"#utility.yul\":3125:3134   */\n      dup4\n        /* \"#utility.yul\":3121:3138   */\n      add\n        /* \"#utility.yul\":3112:3118   */\n      dup6\n        /* \"#utility.yul\":3068:3139   */\n      tag_89\n      jump\t// in\n    tag_104:\n        /* \"#utility.yul\":3149:3221   */\n      tag_105\n        /* \"#utility.yul\":3217:3219   */\n      0x20\n        /* \"#utility.yul\":3206:3215   */\n      dup4\n        /* \"#utility.yul\":3202:3220   */\n      add\n        /* \"#utility.yul\":3193:3199   */\n      dup5\n        /* \"#utility.yul\":3149:3221   */\n      tag_97\n      jump\t// in\n    tag_105:\n        /* \"#utility.yul\":2896:3228   */\n      swap4\n      swap3\n      pop\n      pop\n      pop\n      jump\t// out\n        /* \"#utility.yul\":3234:3482   */\n    tag_19:\n        /* \"#utility.yul\":3340:3344   */\n      0x00\n        /* \"#utility.yul\":3378:3380   */\n      0x20\n        /* \"#utility.yul\":3367:3376   */\n      dup3\n        /* \"#utility.yul\":3363:3381   */\n      add\n        /* \"#utility.yul\":3355:3381   */\n      swap1\n      pop\n        /* \"#utility.yul\":3391:3475   */\n      tag_107\n        /* \"#utility.yul\":3472:3473   */\n      0x00\n        /* \"#utility.yul\":3461:3470   */\n      dup4\n        /* \"#utility.yul\":3457:3474   */\n      add\n        /* \"#utility.yul\":3448:3454   */\n      dup5\n        /* \"#utility.yul\":3391:3475   */\n      tag_93\n      jump\t// in\n    tag_107:\n        /* \"#utility.yul\":3234:3482   */\n      swap3\n      swap2\n      pop\n      pop\n      jump\t// out\n        /* \"#utility.yul\":3488:3710   */\n    tag_15:\n        /* \"#utility.yul\":3581:3585   */\n      0x00\n        /* \"#utility.yul\":3619:3621   */\n      0x20\n        /* \"#utility.yul\":3608:3617   */\n      dup3\n        /* \"#utility.yul\":3604:3622   */\n      add\n        /* \"#utility.yul\":3596:3622   */\n      swap1\n      pop\n        /* \"#utility.yul\":3632:3703   */\n      tag_109\n        /* \"#utility.yul\":3700:3701   */\n      0x00\n        /* \"#utility.yul\":3689:3698   */\n      dup4\n        /* \"#utility.yul\":3685:3702   */\n      add\n        /* \"#utility.yul\":3676:3682   */\n      dup5\n        /* \"#utility.yul\":3632:3703   */\n      tag_97\n      jump\t// in\n    tag_109:\n        /* \"#utility.yul\":3488:3710   */\n      swap3\n      swap2\n      pop\n      pop\n      jump\t// out\n        /* \"#utility.yul\":3797:3893   */\n    tag_92:\n        /* \"#utility.yul\":3834:3841   */\n      0x00\n        /* \"#utility.yul\":3863:3887   */\n      tag_113\n        /* \"#utility.yul\":3881:3886   */\n      dup3\n        /* \"#utility.yul\":3863:3887   */\n      tag_114\n      jump\t// in\n    tag_113:\n        /* \"#utility.yul\":3852:3887   */\n      swap1\n      pop\n        /* \"#utility.yul\":3797:3893   */\n      swap2\n      swap1\n      pop\n      jump\t// out\n        /* \"#utility.yul\":3899:3989   */\n    tag_115:\n        /* \"#utility.yul\":3933:3940   */\n      0x00\n        /* \"#utility.yul\":3976:3981   */\n      dup2\n        /* \"#utility.yul\":3969:3982   */\n      iszero\n        /* \"#utility.yul\":3962:3983   */\n      iszero\n        /* \"#utility.yul\":3951:3983   */\n      swap1\n      pop\n        /* \"#utility.yul\":3899:3989   */\n      swap2\n      swap1\n      pop\n      jump\t// out\n        /* \"#utility.yul\":3995:4121   */\n    tag_114:\n        /* \"#utility.yul\":4032:4039   */\n      0x00\n        /* \"#utility.yul\":4072:4114   */\n      0xffffffffffffffffffffffffffffffffffffffff\n        /* \"#utility.yul\":4065:4070   */\n      dup3\n        /* \"#utility.yul\":4061:4115   */\n      and\n        /* \"#utility.yul\":4050:4115   */\n      swap1\n      pop\n        /* \"#utility.yul\":3995:4121   */\n      swap2\n      swap1\n      pop\n      jump\t// out\n        /* \"#utility.yul\":4127:4204   */\n    tag_100:\n        /* \"#utility.yul\":4164:4171   */\n      0x00\n        /* \"#utility.yul\":4193:4198   */\n      dup2\n        /* \"#utility.yul\":4182:4198   */\n      swap1\n      pop\n        /* \"#utility.yul\":4127:4204   */\n      swap2\n      swap1\n      pop\n      jump\t// out\n        /* \"#utility.yul\":4210:4349   */\n    tag_96:\n        /* \"#utility.yul\":4273:4282   */\n      0x00\n        /* \"#utility.yul\":4306:4343   */\n      tag_120\n        /* \"#utility.yul\":4337:4342   */\n      dup3\n        /* \"#utility.yul\":4306:4343   */\n      tag_121\n      jump\t// in\n    tag_120:\n        /* \"#utility.yul\":4293:4343   */\n      swap1\n      pop\n        /* \"#utility.yul\":4210:4349   */\n      swap2\n      swap1\n      pop\n      jump\t// out\n        /* \"#utility.yul\":4355:4481   */\n    tag_121:\n        /* \"#utility.yul\":4405:4414   */\n      0x00\n        /* \"#utility.yul\":4438:4475   */\n      tag_123\n        /* \"#utility.yul\":4469:4474   */\n      dup3\n        /* \"#utility.yul\":4438:4475   */\n      tag_124\n      jump\t// in\n    tag_123:\n        /* \"#utility.yul\":4425:4475   */\n      swap1\n      pop\n        /* \"#utility.yul\":4355:4481   */\n      swap2\n      swap1\n      pop\n      jump\t// out\n        /* \"#utility.yul\":4487:4600   */\n    tag_124:\n        /* \"#utility.yul\":4537:4546   */\n      0x00\n        /* \"#utility.yul\":4570:4594   */\n      tag_126\n        /* \"#utility.yul\":4588:4593   */\n      dup3\n        /* \"#utility.yul\":4570:4594   */\n      tag_114\n      jump\t// in\n    tag_126:\n        /* \"#utility.yul\":4557:4594   */\n      swap1\n      pop\n        /* \"#utility.yul\":4487:4600   */\n      swap2\n      swap1\n      pop\n      jump\t// out\n        /* \"#utility.yul\":4729:4846   */\n    tag_73:\n        /* \"#utility.yul\":4838:4839   */\n      0x00\n        /* \"#utility.yul\":4835:4836   */\n      dup1\n        /* \"#utility.yul\":4828:4840   */\n      revert\n        /* \"#utility.yul\":4852:4974   */\n    tag_58:\n        /* \"#utility.yul\":4925:4949   */\n      tag_131\n        /* \"#utility.yul\":4943:4948   */\n      dup2\n        /* \"#utility.yul\":4925:4949   */\n      tag_92\n      jump\t// in\n    tag_131:\n        /* \"#utility.yul\":4918:4923   */\n      dup2\n        /* \"#utility.yul\":4915:4950   */\n      eq\n        /* \"#utility.yul\":4905:4968   */\n      tag_132\n      jumpi\n        /* \"#utility.yul\":4964:4965   */\n      0x00\n        /* \"#utility.yul\":4961:4962   */\n      dup1\n        /* \"#utility.yul\":4954:4966   */\n      revert\n        /* \"#utility.yul\":4905:4968   */\n    tag_132:\n        /* \"#utility.yul\":4852:4974   */\n      pop\n      jump\t// out\n        /* \"#utility.yul\":4980:5096   */\n    tag_62:\n        /* \"#utility.yul\":5050:5071   */\n      tag_134\n        /* \"#utility.yul\":5065:5070   */\n      dup2\n        /* \"#utility.yul\":5050:5071   */\n      tag_115\n      jump\t// in\n    tag_134:\n        /* \"#utility.yul\":5043:5048   */\n      dup2\n        /* \"#utility.yul\":5040:5072   */\n      eq\n        /* \"#utility.yul\":5030:5090   */\n      tag_135\n      jumpi\n        /* \"#utility.yul\":5086:5087   */\n      0x00\n        /* \"#utility.yul\":5083:5084   */\n      dup1\n        /* \"#utility.yul\":5076:5088   */\n      revert\n        /* \"#utility.yul\":5030:5090   */\n    tag_135:\n        /* \"#utility.yul\":4980:5096   */\n      pop\n      jump\t// out\n        /* \"#utility.yul\":5102:5224   */\n    tag_66:\n        /* \"#utility.yul\":5175:5199   */\n      tag_137\n        /* \"#utility.yul\":5193:5198   */\n      dup2\n        /* \"#utility.yul\":5175:5199   */\n      tag_100\n      jump\t// in\n    tag_137:\n        /* \"#utility.yul\":5168:5173   */\n      dup2\n        /* \"#utility.yul\":5165:5200   */\n      eq\n        /* \"#utility.yul\":5155:5218   */\n      tag_138\n      jumpi\n        /* \"#utility.yul\":5214:5215   */\n      0x00\n        /* \"#utility.yul\":5211:5212   */\n      dup1\n        /* \"#utility.yul\":5204:5216   */\n      revert\n        /* \"#utility.yul\":5155:5218   */\n    tag_138:\n        /* \"#utility.yul\":5102:5224   */\n      pop\n      jump\t// out\n\n    auxdata: 0xa2646970667358221220bde3e3bd1b9a18df29674dea473f167252085d7935470f0b4af093276a95601964736f6c63430008070033\n}\n",
				"bytecode": {
					"linkReferences": {},
					"object": "608060405234801561001057600080fd5b506040516109113803806109118339818101604052810190610032919061008d565b806000806101000a81548173ffffffffffffffffffffffffffffffffffffffff021916908373ffffffffffffffffffffffffffffffffffffffff16021790555050610108565b600081519050610087816100f1565b92915050565b6000602082840312156100a3576100a26100ec565b5b60006100b184828501610078565b91505092915050565b60006100c5826100cc565b9050919050565b600073ffffffffffffffffffffffffffffffffffffffff82169050919050565b600080fd5b6100fa816100ba565b811461010557600080fd5b50565b6107fa806101176000396000f3fe608060405234801561001057600080fd5b50600436106100415760003560e01c806347e7ef2414610046578063b203bb9914610062578063fc0c546a14610092575b600080fd5b610060600480360381019061005b91906105bb565b6100b0565b005b61007c6004803603810190610077919061057b565b6104de565b60405161008991906106e1565b60405180910390f35b61009a610503565b6040516100a791906106c6565b60405180910390f35b7fd6d1e514f535bf359ef2d264a3e62439f84e441b14c40cb1a3795f79c510a21060008054906101000a900473ffffffffffffffffffffffffffffffffffffffff1673ffffffffffffffffffffffffffffffffffffffff166370a08231846040518263ffffffff1660e01b815260040161012a9190610682565b60206040518083038186803b15801561014257600080fd5b505afa158015610156573d6000803e3d6000fd5b505050506040513d601f19601f8201168201806040525081019061017a9190610628565b60405161018791906106e1565b60405180910390a17f4e5795e368b20daeeaab5537a0c3fb50f8e52de5991bf80c41dc32b861433f0860008054906101000a900473ffffffffffffffffffffffffffffffffffffffff1673ffffffffffffffffffffffffffffffffffffffff166370a08231336040518263ffffffff1660e01b81526004016102099190610682565b60206040518083038186803b15801561022157600080fd5b505afa158015610235573d6000803e3d6000fd5b505050506040513d601f19601f820116820180604052508101906102599190610628565b60405161026691906106e1565b60405180910390a160008054906101000a900473ffffffffffffffffffffffffffffffffffffffff1673ffffffffffffffffffffffffffffffffffffffff1663a9059cbb83836040518363ffffffff1660e01b81526004016102c992919061069d565b602060405180830381600087803b1580156102e357600080fd5b505af11580156102f7573d6000803e3d6000fd5b505050506040513d601f19601f8201168201806040525081019061031b91906105fb565b507fd6d1e514f535bf359ef2d264a3e62439f84e441b14c40cb1a3795f79c510a21060008054906101000a900473ffffffffffffffffffffffffffffffffffffffff1673ffffffffffffffffffffffffffffffffffffffff166370a08231846040518263ffffffff1660e01b81526004016103969190610682565b60206040518083038186803b1580156103ae57600080fd5b505afa1580156103c2573d6000803e3d6000fd5b505050506040513d601f19601f820116820180604052508101906103e69190610628565b6040516103f391906106e1565b60405180910390a17f4e5795e368b20daeeaab5537a0c3fb50f8e52de5991bf80c41dc32b861433f0860008054906101000a900473ffffffffffffffffffffffffffffffffffffffff1673ffffffffffffffffffffffffffffffffffffffff166370a08231336040518263ffffffff1660e01b81526004016104759190610682565b60206040518083038186803b15801561048d57600080fd5b505afa1580156104a1573d6000803e3d6000fd5b505050506040513d601f19601f820116820180604052508101906104c59190610628565b6040516104d291906106e1565b60405180910390a15050565b6001602052816000526040600020602052806000526040600020600091509150505481565b60008054906101000a900473ffffffffffffffffffffffffffffffffffffffff1681565b6000813590506105368161077f565b92915050565b60008151905061054b81610796565b92915050565b600081359050610560816107ad565b92915050565b600081519050610575816107ad565b92915050565b600080604083850312156105925761059161077a565b5b60006105a085828601610527565b92505060206105b185828601610527565b9150509250929050565b600080604083850312156105d2576105d161077a565b5b60006105e085828601610527565b92505060206105f185828601610551565b9150509250929050565b6000602082840312156106115761061061077a565b5b600061061f8482850161053c565b91505092915050565b60006020828403121561063e5761063d61077a565b5b600061064c84828501610566565b91505092915050565b61065e816106fc565b82525050565b61066d81610744565b82525050565b61067c8161073a565b82525050565b60006020820190506106976000830184610655565b92915050565b60006040820190506106b26000830185610655565b6106bf6020830184610673565b9392505050565b60006020820190506106db6000830184610664565b92915050565b60006020820190506106f66000830184610673565b92915050565b60006107078261071a565b9050919050565b60008115159050919050565b600073ffffffffffffffffffffffffffffffffffffffff82169050919050565b6000819050919050565b600061074f82610756565b9050919050565b600061076182610768565b9050919050565b60006107738261071a565b9050919050565b600080fd5b610788816106fc565b811461079357600080fd5b50565b61079f8161070e565b81146107aa57600080fd5b50565b6107b68161073a565b81146107c157600080fd5b5056fea2646970667358221220bde3e3bd1b9a18df29674dea473f167252085d7935470f0b4af093276a95601964736f6c63430008070033",
					"opcodes": "PUSH1 0x80 PUSH1 0x40 MSTORE CALLVALUE DUP1 ISZERO PUSH2 0x10 JUMPI PUSH1 0x0 DUP1 REVERT JUMPDEST POP PUSH1 0x40 MLOAD PUSH2 0x911 CODESIZE SUB DUP1 PUSH2 0x911 DUP4 CODECOPY DUP2 DUP2 ADD PUSH1 0x40 MSTORE DUP2 ADD SWAP1 PUSH2 0x32 SWAP2 SWAP1 PUSH2 0x8D JUMP JUMPDEST DUP1 PUSH1 0x0 DUP1 PUSH2 0x100 EXP DUP2 SLOAD DUP2 PUSH20 0xFFFFFFFFFFFFFFFFFFFFFFFFFFFFFFFFFFFFFFFF MUL NOT AND SWAP1 DUP4 PUSH20 0xFFFFFFFFFFFFFFFFFFFFFFFFFFFFFFFFFFFFFFFF AND MUL OR SWAP1 SSTORE POP POP PUSH2 0x108 JUMP JUMPDEST PUSH1 0x0 DUP2 MLOAD SWAP1 POP PUSH2 0x87 DUP2 PUSH2 0xF1 JUMP JUMPDEST SWAP3 SWAP2 POP POP JUMP JUMPDEST PUSH1 0x0 PUSH1 0x20 DUP3 DUP5 SUB SLT ISZERO PUSH2 0xA3 JUMPI PUSH2 0xA2 PUSH2 0xEC JUMP JUMPDEST JUMPDEST PUSH1 0x0 PUSH2 0xB1 DUP5 DUP3 DUP6 ADD PUSH2 0x78 JUMP JUMPDEST SWAP2 POP POP SWAP3 SWAP2 POP POP JUMP JUMPDEST PUSH1 0x0 PUSH2 0xC5 DUP3 PUSH2 0xCC JUMP JUMPDEST SWAP1 POP SWAP2 SWAP1 POP JUMP JUMPDEST PUSH1 0x0 PUSH20 0xFFFFFFFFFFFFFFFFFFFFFFFFFFFFFFFFFFFFFFFF DUP3 AND SWAP1 POP SWAP2 SWAP1 POP JUMP JUMPDEST PUSH1 0x0 DUP1 REVERT JUMPDEST PUSH2 0xFA DUP2 PUSH2 0xBA JUMP JUMPDEST DUP2 EQ PUSH2 0x105 JUMPI PUSH1 0x0 DUP1 REVERT JUMPDEST POP JUMP JUMPDEST PUSH2 0x7FA DUP1 PUSH2 0x117 PUSH1 0x0 CODECOPY PUSH1 0x0 RETURN INVALID PUSH1 0x80 PUSH1 0x40 MSTORE CALLVALUE DUP1 ISZERO PUSH2 0x10 JUMPI PUSH1 0x0 DUP1 REVERT JUMPDEST POP PUSH1 0x4 CALLDATASIZE LT PUSH2 0x41 JUMPI PUSH1 0x0 CALLDATALOAD PUSH1 0xE0 SHR DUP1 PUSH4 0x47E7EF24 EQ PUSH2 0x46 JUMPI DUP1 PUSH4 0xB203BB99 EQ PUSH2 0x62 JUMPI DUP1 PUSH4 0xFC0C546A EQ PUSH2 0x92 JUMPI JUMPDEST PUSH1 0x0 DUP1 REVERT JUMPDEST PUSH2 0x60 PUSH1 0x4 DUP1 CALLDATASIZE SUB DUP2 ADD SWAP1 PUSH2 0x5B SWAP2 SWAP1 PUSH2 0x5BB JUMP JUMPDEST PUSH2 0xB0 JUMP JUMPDEST STOP JUMPDEST PUSH2 0x7C PUSH1 0x4 DUP1 CALLDATASIZE SUB DUP2 ADD SWAP1 PUSH2 0x77 SWAP2 SWAP1 PUSH2 0x57B JUMP JUMPDEST PUSH2 0x4DE JUMP JUMPDEST PUSH1 0x40 MLOAD PUSH2 0x89 SWAP2 SWAP1 PUSH2 0x6E1 JUMP JUMPDEST PUSH1 0x40 MLOAD DUP1 SWAP2 SUB SWAP1 RETURN JUMPDEST PUSH2 0x9A PUSH2 0x503 JUMP JUMPDEST PUSH1 0x40 MLOAD PUSH2 0xA7 SWAP2 SWAP1 PUSH2 0x6C6 JUMP JUMPDEST PUSH1 0x40 MLOAD DUP1 SWAP2 SUB SWAP1 RETURN JUMPDEST PUSH32 0xD6D1E514F535BF359EF2D264A3E62439F84E441B14C40CB1A3795F79C510A210 PUSH1 0x0 DUP1 SLOAD SWAP1 PUSH2 0x100 EXP SWAP1 DIV PUSH20 0xFFFFFFFFFFFFFFFFFFFFFFFFFFFFFFFFFFFFFFFF AND PUSH20 0xFFFFFFFFFFFFFFFFFFFFFFFFFFFFFFFFFFFFFFFF AND PUSH4 0x70A08231 DUP5 PUSH1 0x40 MLOAD DUP3 PUSH4 0xFFFFFFFF AND PUSH1 0xE0 SHL DUP2 MSTORE PUSH1 0x4 ADD PUSH2 0x12A SWAP2 SWAP1 PUSH2 0x682 JUMP JUMPDEST PUSH1 0x20 PUSH1 0x40 MLOAD DUP1 DUP4 SUB DUP2 DUP7 DUP1 EXTCODESIZE ISZERO DUP1 ISZERO PUSH2 0x142 JUMPI PUSH1 0x0 DUP1 REVERT JUMPDEST POP GAS STATICCALL ISZERO DUP1 ISZERO PUSH2 0x156 JUMPI RETURNDATASIZE PUSH1 0x0 DUP1 RETURNDATACOPY RETURNDATASIZE PUSH1 0x0 REVERT JUMPDEST POP POP POP POP PUSH1 0x40 MLOAD RETURNDATASIZE PUSH1 0x1F NOT PUSH1 0x1F DUP3 ADD AND DUP3 ADD DUP1 PUSH1 0x40 MSTORE POP DUP2 ADD SWAP1 PUSH2 0x17A SWAP2 SWAP1 PUSH2 0x628 JUMP JUMPDEST PUSH1 0x40 MLOAD PUSH2 0x187 SWAP2 SWAP1 PUSH2 0x6E1 JUMP JUMPDEST PUSH1 0x40 MLOAD DUP1 SWAP2 SUB SWAP1 LOG1 PUSH32 0x4E5795E368B20DAEEAAB5537A0C3FB50F8E52DE5991BF80C41DC32B861433F08 PUSH1 0x0 DUP1 SLOAD SWAP1 PUSH2 0x100 EXP SWAP1 DIV PUSH20 0xFFFFFFFFFFFFFFFFFFFFFFFFFFFFFFFFFFFFFFFF AND PUSH20 0xFFFFFFFFFFFFFFFFFFFFFFFFFFFFFFFFFFFFFFFF AND PUSH4 0x70A08231 CALLER PUSH1 0x40 MLOAD DUP3 PUSH4 0xFFFFFFFF AND PUSH1 0xE0 SHL DUP2 MSTORE PUSH1 0x4 ADD PUSH2 0x209 SWAP2 SWAP1 PUSH2 0x682 JUMP JUMPDEST PUSH1 0x20 PUSH1 0x40 MLOAD DUP1 DUP4 SUB DUP2 DUP7 DUP1 EXTCODESIZE ISZERO DUP1 ISZERO PUSH2 0x221 JUMPI PUSH1 0x0 DUP1 REVERT JUMPDEST POP GAS STATICCALL ISZERO DUP1 ISZERO PUSH2 0x235 JUMPI RETURNDATASIZE PUSH1 0x0 DUP1 RETURNDATACOPY RETURNDATASIZE PUSH1 0x0 REVERT JUMPDEST POP POP POP POP PUSH1 0x40 MLOAD RETURNDATASIZE PUSH1 0x1F NOT PUSH1 0x1F DUP3 ADD AND DUP3 ADD DUP1 PUSH1 0x40 MSTORE POP DUP2 ADD SWAP1 PUSH2 0x259 SWAP2 SWAP1 PUSH2 0x628 JUMP JUMPDEST PUSH1 0x40 MLOAD PUSH2 0x266 SWAP2 SWAP1 PUSH2 0x6E1 JUMP JUMPDEST PUSH1 0x40 MLOAD DUP1 SWAP2 SUB SWAP1 LOG1 PUSH1 0x0 DUP1 SLOAD SWAP1 PUSH2 0x100 EXP SWAP1 DIV PUSH20 0xFFFFFFFFFFFFFFFFFFFFFFFFFFFFFFFFFFFFFFFF AND PUSH20 0xFFFFFFFFFFFFFFFFFFFFFFFFFFFFFFFFFFFFFFFF AND PUSH4 0xA9059CBB DUP4 DUP4 PUSH1 0x40 MLOAD DUP4 PUSH4 0xFFFFFFFF AND PUSH1 0xE0 SHL DUP2 MSTORE PUSH1 0x4 ADD PUSH2 0x2C9 SWAP3 SWAP2 SWAP1 PUSH2 0x69D JUMP JUMPDEST PUSH1 0x20 PUSH1 0x40 MLOAD DUP1 DUP4 SUB DUP2 PUSH1 0x0 DUP8 DUP1 EXTCODESIZE ISZERO DUP1 ISZERO PUSH2 0x2E3 JUMPI PUSH1 0x0 DUP1 REVERT JUMPDEST POP GAS CALL ISZERO DUP1 ISZERO PUSH2 0x2F7 JUMPI RETURNDATASIZE PUSH1 0x0 DUP1 RETURNDATACOPY RETURNDATASIZE PUSH1 0x0 REVERT JUMPDEST POP POP POP POP PUSH1 0x40 MLOAD RETURNDATASIZE PUSH1 0x1F NOT PUSH1 0x1F DUP3 ADD AND DUP3 ADD DUP1 PUSH1 0x40 MSTORE POP DUP2 ADD SWAP1 PUSH2 0x31B SWAP2 SWAP1 PUSH2 0x5FB JUMP JUMPDEST POP PUSH32 0xD6D1E514F535BF359EF2D264A3E62439F84E441B14C40CB1A3795F79C510A210 PUSH1 0x0 DUP1 SLOAD SWAP1 PUSH2 0x100 EXP SWAP1 DIV PUSH20 0xFFFFFFFFFFFFFFFFFFFFFFFFFFFFFFFFFFFFFFFF AND PUSH20 0xFFFFFFFFFFFFFFFFFFFFFFFFFFFFFFFFFFFFFFFF AND PUSH4 0x70A08231 DUP5 PUSH1 0x40 MLOAD DUP3 PUSH4 0xFFFFFFFF AND PUSH1 0xE0 SHL DUP2 MSTORE PUSH1 0x4 ADD PUSH2 0x396 SWAP2 SWAP1 PUSH2 0x682 JUMP JUMPDEST PUSH1 0x20 PUSH1 0x40 MLOAD DUP1 DUP4 SUB DUP2 DUP7 DUP1 EXTCODESIZE ISZERO DUP1 ISZERO PUSH2 0x3AE JUMPI PUSH1 0x0 DUP1 REVERT JUMPDEST POP GAS STATICCALL ISZERO DUP1 ISZERO PUSH2 0x3C2 JUMPI RETURNDATASIZE PUSH1 0x0 DUP1 RETURNDATACOPY RETURNDATASIZE PUSH1 0x0 REVERT JUMPDEST POP POP POP POP PUSH1 0x40 MLOAD RETURNDATASIZE PUSH1 0x1F NOT PUSH1 0x1F DUP3 ADD AND DUP3 ADD DUP1 PUSH1 0x40 MSTORE POP DUP2 ADD SWAP1 PUSH2 0x3E6 SWAP2 SWAP1 PUSH2 0x628 JUMP JUMPDEST PUSH1 0x40 MLOAD PUSH2 0x3F3 SWAP2 SWAP1 PUSH2 0x6E1 JUMP JUMPDEST PUSH1 0x40 MLOAD DUP1 SWAP2 SUB SWAP1 LOG1 PUSH32 0x4E5795E368B20DAEEAAB5537A0C3FB50F8E52DE5991BF80C41DC32B861433F08 PUSH1 0x0 DUP1 SLOAD SWAP1 PUSH2 0x100 EXP SWAP1 DIV PUSH20 0xFFFFFFFFFFFFFFFFFFFFFFFFFFFFFFFFFFFFFFFF AND PUSH20 0xFFFFFFFFFFFFFFFFFFFFFFFFFFFFFFFFFFFFFFFF AND PUSH4 0x70A08231 CALLER PUSH1 0x40 MLOAD DUP3 PUSH4 0xFFFFFFFF AND PUSH1 0xE0 SHL DUP2 MSTORE PUSH1 0x4 ADD PUSH2 0x475 SWAP2 SWAP1 PUSH2 0x682 JUMP JUMPDEST PUSH1 0x20 PUSH1 0x40 MLOAD DUP1 DUP4 SUB DUP2 DUP7 DUP1 EXTCODESIZE ISZERO DUP1 ISZERO PUSH2 0x48D JUMPI PUSH1 0x0 DUP1 REVERT JUMPDEST POP GAS STATICCALL ISZERO DUP1 ISZERO PUSH2 0x4A1 JUMPI RETURNDATASIZE PUSH1 0x0 DUP1 RETURNDATACOPY RETURNDATASIZE PUSH1 0x0 REVERT JUMPDEST POP POP POP POP PUSH1 0x40 MLOAD RETURNDATASIZE PUSH1 0x1F NOT PUSH1 0x1F DUP3 ADD AND DUP3 ADD DUP1 PUSH1 0x40 MSTORE POP DUP2 ADD SWAP1 PUSH2 0x4C5 SWAP2 SWAP1 PUSH2 0x628 JUMP JUMPDEST PUSH1 0x40 MLOAD PUSH2 0x4D2 SWAP2 SWAP1 PUSH2 0x6E1 JUMP JUMPDEST PUSH1 0x40 MLOAD DUP1 SWAP2 SUB SWAP1 LOG1 POP POP JUMP JUMPDEST PUSH1 0x1 PUSH1 0x20 MSTORE DUP2 PUSH1 0x0 MSTORE PUSH1 0x40 PUSH1 0x0 KECCAK256 PUSH1 0x20 MSTORE DUP1 PUSH1 0x0 MSTORE PUSH1 0x40 PUSH1 0x0 KECCAK256 PUSH1 0x0 SWAP2 POP SWAP2 POP POP SLOAD DUP2 JUMP JUMPDEST PUSH1 0x0 DUP1 SLOAD SWAP1 PUSH2 0x100 EXP SWAP1 DIV PUSH20 0xFFFFFFFFFFFFFFFFFFFFFFFFFFFFFFFFFFFFFFFF AND DUP2 JUMP JUMPDEST PUSH1 0x0 DUP2 CALLDATALOAD SWAP1 POP PUSH2 0x536 DUP2 PUSH2 0x77F JUMP JUMPDEST SWAP3 SWAP2 POP POP JUMP JUMPDEST PUSH1 0x0 DUP2 MLOAD SWAP1 POP PUSH2 0x54B DUP2 PUSH2 0x796 JUMP JUMPDEST SWAP3 SWAP2 POP POP JUMP JUMPDEST PUSH1 0x0 DUP2 CALLDATALOAD SWAP1 POP PUSH2 0x560 DUP2 PUSH2 0x7AD JUMP JUMPDEST SWAP3 SWAP2 POP POP JUMP JUMPDEST PUSH1 0x0 DUP2 MLOAD SWAP1 POP PUSH2 0x575 DUP2 PUSH2 0x7AD JUMP JUMPDEST SWAP3 SWAP2 POP POP JUMP JUMPDEST PUSH1 0x0 DUP1 PUSH1 0x40 DUP4 DUP6 SUB SLT ISZERO PUSH2 0x592 JUMPI PUSH2 0x591 PUSH2 0x77A JUMP JUMPDEST JUMPDEST PUSH1 0x0 PUSH2 0x5A0 DUP6 DUP3 DUP7 ADD PUSH2 0x527 JUMP JUMPDEST SWAP3 POP POP PUSH1 0x20 PUSH2 0x5B1 DUP6 DUP3 DUP7 ADD PUSH2 0x527 JUMP JUMPDEST SWAP2 POP POP SWAP3 POP SWAP3 SWAP1 POP JUMP JUMPDEST PUSH1 0x0 DUP1 PUSH1 0x40 DUP4 DUP6 SUB SLT ISZERO PUSH2 0x5D2 JUMPI PUSH2 0x5D1 PUSH2 0x77A JUMP JUMPDEST JUMPDEST PUSH1 0x0 PUSH2 0x5E0 DUP6 DUP3 DUP7 ADD PUSH2 0x527 JUMP JUMPDEST SWAP3 POP POP PUSH1 0x20 PUSH2 0x5F1 DUP6 DUP3 DUP7 ADD PUSH2 0x551 JUMP JUMPDEST SWAP2 POP POP SWAP3 POP SWAP3 SWAP1 POP JUMP JUMPDEST PUSH1 0x0 PUSH1 0x20 DUP3 DUP5 SUB SLT ISZERO PUSH2 0x611 JUMPI PUSH2 0x610 PUSH2 0x77A JUMP JUMPDEST JUMPDEST PUSH1 0x0 PUSH2 0x61F DUP5 DUP3 DUP6 ADD PUSH2 0x53C JUMP JUMPDEST SWAP2 POP POP SWAP3 SWAP2 POP POP JUMP JUMPDEST PUSH1 0x0 PUSH1 0x20 DUP3 DUP5 SUB SLT ISZERO PUSH2 0x63E JUMPI PUSH2 0x63D PUSH2 0x77A JUMP JUMPDEST JUMPDEST PUSH1 0x0 PUSH2 0x64C DUP5 DUP3 DUP6 ADD PUSH2 0x566 JUMP JUMPDEST SWAP2 POP POP SWAP3 SWAP2 POP POP JUMP JUMPDEST PUSH2 0x65E DUP2 PUSH2 0x6FC JUMP JUMPDEST DUP3 MSTORE POP POP JUMP JUMPDEST PUSH2 0x66D DUP2 PUSH2 0x744 JUMP JUMPDEST DUP3 MSTORE POP POP JUMP JUMPDEST PUSH2 0x67C DUP2 PUSH2 0x73A JUMP JUMPDEST DUP3 MSTORE POP POP JUMP JUMPDEST PUSH1 0x0 PUSH1 0x20 DUP3 ADD SWAP1 POP PUSH2 0x697 PUSH1 0x0 DUP4 ADD DUP5 PUSH2 0x655 JUMP JUMPDEST SWAP3 SWAP2 POP POP JUMP JUMPDEST PUSH1 0x0 PUSH1 0x40 DUP3 ADD SWAP1 POP PUSH2 0x6B2 PUSH1 0x0 DUP4 ADD DUP6 PUSH2 0x655 JUMP JUMPDEST PUSH2 0x6BF PUSH1 0x20 DUP4 ADD DUP5 PUSH2 0x673 JUMP JUMPDEST SWAP4 SWAP3 POP POP POP JUMP JUMPDEST PUSH1 0x0 PUSH1 0x20 DUP3 ADD SWAP1 POP PUSH2 0x6DB PUSH1 0x0 DUP4 ADD DUP5 PUSH2 0x664 JUMP JUMPDEST SWAP3 SWAP2 POP POP JUMP JUMPDEST PUSH1 0x0 PUSH1 0x20 DUP3 ADD SWAP1 POP PUSH2 0x6F6 PUSH1 0x0 DUP4 ADD DUP5 PUSH2 0x673 JUMP JUMPDEST SWAP3 SWAP2 POP POP JUMP JUMPDEST PUSH1 0x0 PUSH2 0x707 DUP3 PUSH2 0x71A JUMP JUMPDEST SWAP1 POP SWAP2 SWAP1 POP JUMP JUMPDEST PUSH1 0x0 DUP2 ISZERO ISZERO SWAP1 POP SWAP2 SWAP1 POP JUMP JUMPDEST PUSH1 0x0 PUSH20 0xFFFFFFFFFFFFFFFFFFFFFFFFFFFFFFFFFFFFFFFF DUP3 AND SWAP1 POP SWAP2 SWAP1 POP JUMP JUMPDEST PUSH1 0x0 DUP2 SWAP1 POP SWAP2 SWAP1 POP JUMP JUMPDEST PUSH1 0x0 PUSH2 0x74F DUP3 PUSH2 0x756 JUMP JUMPDEST SWAP1 POP SWAP2 SWAP1 POP JUMP JUMPDEST PUSH1 0x0 PUSH2 0x761 DUP3 PUSH2 0x768 JUMP JUMPDEST SWAP1 POP SWAP2 SWAP1 POP JUMP JUMPDEST PUSH1 0x0 PUSH2 0x773 DUP3 PUSH2 0x71A JUMP JUMPDEST SWAP1 POP SWAP2 SWAP1 POP JUMP JUMPDEST PUSH1 0x0 DUP1 REVERT JUMPDEST PUSH2 0x788 DUP2 PUSH2 0x6FC JUMP JUMPDEST DUP2 EQ PUSH2 0x793 JUMPI PUSH1 0x0 DUP1 REVERT JUMPDEST POP JUMP JUMPDEST PUSH2 0x79F DUP2 PUSH2 0x70E JUMP JUMPDEST DUP2 EQ PUSH2 0x7AA JUMPI PUSH1 0x0 DUP1 REVERT JUMPDEST POP JUMP JUMPDEST PUSH2 0x7B6 DUP2 PUSH2 0x73A JUMP JUMPDEST DUP2 EQ PUSH2 0x7C1 JUMPI PUSH1 0x0 DUP1 REVERT JUMPDEST POP JUMP INVALID LOG2 PUSH5 0x6970667358 0x22 SLT KECCAK256 0xBD 0xE3 0xE3 0xBD SHL SWAP11 XOR 0xDF 0x29 PUSH8 0x4DEA473F16725208 0x5D PUSH26 0x35470F0B4AF093276A95601964736F6C63430008070033000000 "
				},
				"gasEstimates": {
					"creation": {
						"codeDepositCost": "408400",
						"executionCost": "infinite",
						"totalCost": "infinite"
					},
					"external": {
						"balance(address,address)": "infinite",
						"deposit(address,uint256)": "infinite",
						"token()": "2619"
					}
				},
				"methodIdentifiers": {
					"balance(address,address)": "b203bb99",
					"deposit(address,uint256)": "47e7ef24",
					"token()": "fc0c546a"
				}
			},
			"storageLayout": {
				"storage": [
					{
						"astId": 83,
						"contract": "contracts/EscrowERC20.sol:EscrowERC20",
						"label": "token",
						"offset": 0,
						"slot": "0",
						"type": "t_contract(IERC20)77"
					},
					{
						"astId": 89,
						"contract": "contracts/EscrowERC20.sol:EscrowERC20",
						"label": "balance",
						"offset": 0,
						"slot": "1",
						"type": "t_mapping(t_address,t_mapping(t_address,t_uint256))"
					}
				],
				"types": {
					"t_address": {
						"encoding": "inplace",
						"label": "address",
						"numberOfBytes": "20"
					},
					"t_contract(IERC20)77": {
						"encoding": "inplace",
						"label": "contract IERC20",
						"numberOfBytes": "20"
					},
					"t_mapping(t_address,t_mapping(t_address,t_uint256))": {
						"encoding": "mapping",
						"key": "t_address",
						"label": "mapping(address => mapping(address => uint256))",
						"numberOfBytes": "32",
						"value": "t_mapping(t_address,t_uint256)"
					},
					"t_mapping(t_address,t_uint256)": {
						"encoding": "mapping",
						"key": "t_address",
						"label": "mapping(address => uint256)",
						"numberOfBytes": "32",
						"value": "t_uint256"
					},
					"t_uint256": {
						"encoding": "inplace",
						"label": "uint256",
						"numberOfBytes": "32"
					}
				}
			},
			"userdoc": {
				"kind": "user",
				"methods": {},
				"version": 1
			}
		}
	}
}