{
	"contracts/Escrow.sol": {
		"Escrow": {
			"abi": [
				{
					"inputs": [
						{
							"internalType": "address",
							"name": "ERC20Address",
							"type": "address"
						}
					],
					"stateMutability": "nonpayable",
					"type": "constructor"
				},
				{
					"anonymous": false,
					"inputs": [
						{
							"indexed": false,
							"internalType": "address",
							"name": "receiver",
							"type": "address"
						},
						{
							"indexed": false,
							"internalType": "uint256",
							"name": "amount",
							"type": "uint256"
						}
					],
					"name": "Withdraw",
					"type": "event"
				},
				{
					"stateMutability": "payable",
					"type": "fallback"
				},
				{
					"inputs": [
						{
							"internalType": "bytes32",
							"name": "",
							"type": "bytes32"
						}
					],
					"name": "ERC20_balances",
					"outputs": [
						{
							"internalType": "uint256",
							"name": "",
							"type": "uint256"
						}
					],
					"stateMutability": "view",
					"type": "function"
				},
				{
					"inputs": [],
					"name": "_token",
					"outputs": [
						{
							"internalType": "contract IERC20",
							"name": "",
							"type": "address"
						}
					],
					"stateMutability": "view",
					"type": "function"
				},
				{
					"inputs": [
						{
							"internalType": "address",
							"name": "",
							"type": "address"
						}
					],
					"name": "balances",
					"outputs": [
						{
							"internalType": "uint256",
							"name": "",
							"type": "uint256"
						}
					],
					"stateMutability": "view",
					"type": "function"
				},
				{
					"inputs": [
						{
							"internalType": "address payable",
							"name": "_receiver",
							"type": "address"
						}
					],
					"name": "deposit",
					"outputs": [],
					"stateMutability": "payable",
					"type": "function"
				},
				{
					"inputs": [
						{
							"internalType": "bytes32",
							"name": "trx_hash",
							"type": "bytes32"
						},
						{
							"internalType": "uint256",
							"name": "amount",
							"type": "uint256"
						}
					],
					"name": "depositERC20",
					"outputs": [],
					"stateMutability": "nonpayable",
					"type": "function"
				},
				{
					"inputs": [
						{
							"internalType": "uint256",
							"name": "amount",
							"type": "uint256"
						}
					],
					"name": "getERC20Hash",
					"outputs": [
						{
							"internalType": "bytes32",
							"name": "result",
							"type": "bytes32"
						}
					],
					"stateMutability": "view",
					"type": "function"
				},
				{
					"inputs": [
						{
							"internalType": "address",
							"name": "_addr",
							"type": "address"
						}
					],
					"name": "getbalancesByAddr",
					"outputs": [
						{
							"internalType": "uint256",
							"name": "_amount",
							"type": "uint256"
						}
					],
					"stateMutability": "view",
					"type": "function"
				},
				{
					"inputs": [],
					"name": "withdraw",
					"outputs": [],
					"stateMutability": "payable",
					"type": "function"
				},
				{
					"stateMutability": "payable",
					"type": "receive"
				}
			],
			"devdoc": {
				"kind": "dev",
				"methods": {},
				"version": 1
			},
			"evm": {
				"assembly": "    /* \"contracts/Escrow.sol\":123:1803  contract Escrow {... */\n  mstore(0x40, 0x80)\n    /* \"contracts/Escrow.sol\":172:285  constructor(address ERC20Address) {... */\n  callvalue\n  dup1\n  iszero\n  tag_1\n  jumpi\n  0x00\n  dup1\n  revert\ntag_1:\n  pop\n  mload(0x40)\n  sub(codesize, bytecodeSize)\n  dup1\n  bytecodeSize\n  dup4\n  codecopy\n  dup2\n  dup2\n  add\n  0x40\n  mstore\n  dup2\n  add\n  swap1\n  tag_2\n  swap2\n  swap1\n  tag_3\n  jump\t// in\ntag_2:\n    /* \"contracts/Escrow.sol\":238:239  0 */\n  0x00\n    /* \"contracts/Escrow.sol\":216:235  ERC20_deposit_count */\n  0x03\n    /* \"contracts/Escrow.sol\":216:239  ERC20_deposit_count = 0 */\n  dup2\n  swap1\n  sstore\n  pop\n    /* \"contracts/Escrow.sol\":265:277  ERC20Address */\n  dup1\n    /* \"contracts/Escrow.sol\":249:255  _token */\n  0x00\n  dup1\n    /* \"contracts/Escrow.sol\":249:278  _token = IERC20(ERC20Address) */\n  0x0100\n  exp\n  dup2\n  sload\n  dup2\n  0xffffffffffffffffffffffffffffffffffffffff\n  mul\n  not\n  and\n  swap1\n  dup4\n  0xffffffffffffffffffffffffffffffffffffffff\n  and\n  mul\n  or\n  swap1\n  sstore\n  pop\n    /* \"contracts/Escrow.sol\":172:285  constructor(address ERC20Address) {... */\n  pop\n    /* \"contracts/Escrow.sol\":123:1803  contract Escrow {... */\n  jump(tag_6)\n    /* \"#utility.yul\":7:150   */\ntag_8:\n    /* \"#utility.yul\":64:69   */\n  0x00\n    /* \"#utility.yul\":95:101   */\n  dup2\n    /* \"#utility.yul\":89:102   */\n  mload\n    /* \"#utility.yul\":80:102   */\n  swap1\n  pop\n    /* \"#utility.yul\":111:144   */\n  tag_10\n    /* \"#utility.yul\":138:143   */\n  dup2\n    /* \"#utility.yul\":111:144   */\n  tag_11\n  jump\t// in\ntag_10:\n    /* \"#utility.yul\":7:150   */\n  swap3\n  swap2\n  pop\n  pop\n  jump\t// out\n    /* \"#utility.yul\":156:507   */\ntag_3:\n    /* \"#utility.yul\":226:232   */\n  0x00\n    /* \"#utility.yul\":275:277   */\n  0x20\n    /* \"#utility.yul\":263:272   */\n  dup3\n    /* \"#utility.yul\":254:261   */\n  dup5\n    /* \"#utility.yul\":250:273   */\n  sub\n    /* \"#utility.yul\":246:278   */\n  slt\n    /* \"#utility.yul\":243:362   */\n  iszero\n  tag_13\n  jumpi\n    /* \"#utility.yul\":281:360   */\n  tag_14\n  tag_15\n  jump\t// in\ntag_14:\n    /* \"#utility.yul\":243:362   */\ntag_13:\n    /* \"#utility.yul\":401:402   */\n  0x00\n    /* \"#utility.yul\":426:490   */\n  tag_16\n    /* \"#utility.yul\":482:489   */\n  dup5\n    /* \"#utility.yul\":473:479   */\n  dup3\n    /* \"#utility.yul\":462:471   */\n  dup6\n    /* \"#utility.yul\":458:480   */\n  add\n    /* \"#utility.yul\":426:490   */\n  tag_8\n  jump\t// in\ntag_16:\n    /* \"#utility.yul\":416:490   */\n  swap2\n  pop\n    /* \"#utility.yul\":372:500   */\n  pop\n    /* \"#utility.yul\":156:507   */\n  swap3\n  swap2\n  pop\n  pop\n  jump\t// out\n    /* \"#utility.yul\":594:690   */\ntag_19:\n    /* \"#utility.yul\":631:638   */\n  0x00\n    /* \"#utility.yul\":660:684   */\n  tag_21\n    /* \"#utility.yul\":678:683   */\n  dup3\n    /* \"#utility.yul\":660:684   */\n  tag_22\n  jump\t// in\ntag_21:\n    /* \"#utility.yul\":649:684   */\n  swap1\n  pop\n    /* \"#utility.yul\":594:690   */\n  swap2\n  swap1\n  pop\n  jump\t// out\n    /* \"#utility.yul\":696:822   */\ntag_22:\n    /* \"#utility.yul\":733:740   */\n  0x00\n    /* \"#utility.yul\":773:815   */\n  0xffffffffffffffffffffffffffffffffffffffff\n    /* \"#utility.yul\":766:771   */\n  dup3\n    /* \"#utility.yul\":762:816   */\n  and\n    /* \"#utility.yul\":751:816   */\n  swap1\n  pop\n    /* \"#utility.yul\":696:822   */\n  swap2\n  swap1\n  pop\n  jump\t// out\n    /* \"#utility.yul\":951:1068   */\ntag_15:\n    /* \"#utility.yul\":1060:1061   */\n  0x00\n    /* \"#utility.yul\":1057:1058   */\n  dup1\n    /* \"#utility.yul\":1050:1062   */\n  revert\n    /* \"#utility.yul\":1074:1196   */\ntag_11:\n    /* \"#utility.yul\":1147:1171   */\n  tag_28\n    /* \"#utility.yul\":1165:1170   */\n  dup2\n    /* \"#utility.yul\":1147:1171   */\n  tag_19\n  jump\t// in\ntag_28:\n    /* \"#utility.yul\":1140:1145   */\n  dup2\n    /* \"#utility.yul\":1137:1172   */\n  eq\n    /* \"#utility.yul\":1127:1190   */\n  tag_29\n  jumpi\n    /* \"#utility.yul\":1186:1187   */\n  0x00\n    /* \"#utility.yul\":1183:1184   */\n  dup1\n    /* \"#utility.yul\":1176:1188   */\n  revert\n    /* \"#utility.yul\":1127:1190   */\ntag_29:\n    /* \"#utility.yul\":1074:1196   */\n  pop\n  jump\t// out\n    /* \"contracts/Escrow.sol\":123:1803  contract Escrow {... */\ntag_6:\n  dataSize(sub_0)\n  dup1\n  dataOffset(sub_0)\n  0x00\n  codecopy\n  0x00\n  return\nstop\n\nsub_0: assembly {\n        /* \"contracts/Escrow.sol\":123:1803  contract Escrow {... */\n      mstore(0x40, 0x80)\n      jumpi(tag_1, lt(calldatasize, 0x04))\n      shr(0xe0, calldataload(0x00))\n      dup1\n      0xb8330d10\n      gt\n      tag_11\n      jumpi\n      dup1\n      0xb8330d10\n      eq\n      tag_7\n      jumpi\n      dup1\n      0xddeabdbe\n      eq\n      tag_8\n      jumpi\n      dup1\n      0xecd0c0c3\n      eq\n      tag_9\n      jumpi\n      dup1\n      0xf340fa01\n      eq\n      tag_10\n      jumpi\n      jump(tag_2)\n    tag_11:\n      dup1\n      0x27e235e3\n      eq\n      tag_3\n      jumpi\n      dup1\n      0x3ccfd60b\n      eq\n      tag_4\n      jumpi\n      dup1\n      0x5187658d\n      eq\n      tag_5\n      jumpi\n      dup1\n      0x5e53ee21\n      eq\n      tag_6\n      jumpi\n      jump(tag_2)\n    tag_1:\n      jumpi(tag_2, calldatasize)\n        /* \"contracts/Escrow.sol\":539:548  msg.value */\n      callvalue\n        /* \"contracts/Escrow.sol\":515:523  balances */\n      0x01\n        /* \"contracts/Escrow.sol\":515:535  balances[msg.sender] */\n      0x00\n        /* \"contracts/Escrow.sol\":524:534  msg.sender */\n      caller\n        /* \"contracts/Escrow.sol\":515:535  balances[msg.sender] */\n      0xffffffffffffffffffffffffffffffffffffffff\n      and\n      0xffffffffffffffffffffffffffffffffffffffff\n      and\n      dup2\n      mstore\n      0x20\n      add\n      swap1\n      dup2\n      mstore\n      0x20\n      add\n      0x00\n      keccak256\n      0x00\n        /* \"contracts/Escrow.sol\":515:548  balances[msg.sender] += msg.value */\n      dup3\n      dup3\n      sload\n      tag_14\n      swap2\n      swap1\n      tag_15\n      jump\t// in\n    tag_14:\n      swap3\n      pop\n      pop\n      dup2\n      swap1\n      sstore\n      pop\n        /* \"contracts/Escrow.sol\":123:1803  contract Escrow {... */\n      stop\n    tag_2:\n        /* \"contracts/Escrow.sol\":599:627  deposit(payable(msg.sender)) */\n      tag_18\n        /* \"contracts/Escrow.sol\":615:625  msg.sender */\n      caller\n        /* \"contracts/Escrow.sol\":599:606  deposit */\n      tag_19\n        /* \"contracts/Escrow.sol\":599:627  deposit(payable(msg.sender)) */\n      jump\t// in\n    tag_18:\n        /* \"contracts/Escrow.sol\":123:1803  contract Escrow {... */\n      stop\n        /* \"contracts/Escrow.sol\":291:332  mapping (address => uint) public balances */\n    tag_3:\n      callvalue\n      dup1\n      iszero\n      tag_20\n      jumpi\n      0x00\n      dup1\n      revert\n    tag_20:\n      pop\n      tag_21\n      0x04\n      dup1\n      calldatasize\n      sub\n      dup2\n      add\n      swap1\n      tag_22\n      swap2\n      swap1\n      tag_23\n      jump\t// in\n    tag_22:\n      tag_24\n      jump\t// in\n    tag_21:\n      mload(0x40)\n      tag_25\n      swap2\n      swap1\n      tag_26\n      jump\t// in\n    tag_25:\n      mload(0x40)\n      dup1\n      swap2\n      sub\n      swap1\n      return\n        /* \"contracts/Escrow.sol\":1302:1513  function withdraw() external payable {... */\n    tag_4:\n      tag_27\n      tag_28\n      jump\t// in\n    tag_27:\n      stop\n        /* \"contracts/Escrow.sol\":1519:1632  function getbalancesByAddr(address _addr) public view returns(uint _amount) {... */\n    tag_5:\n      callvalue\n      dup1\n      iszero\n      tag_29\n      jumpi\n      0x00\n      dup1\n      revert\n    tag_29:\n      pop\n      tag_30\n      0x04\n      dup1\n      calldatasize\n      sub\n      dup2\n      add\n      swap1\n      tag_31\n      swap2\n      swap1\n      tag_23\n      jump\t// in\n    tag_31:\n      tag_32\n      jump\t// in\n    tag_30:\n      mload(0x40)\n      tag_33\n      swap2\n      swap1\n      tag_26\n      jump\t// in\n    tag_33:\n      mload(0x40)\n      dup1\n      swap2\n      sub\n      swap1\n      return\n        /* \"contracts/Escrow.sol\":1638:1801  function getERC20Hash(uint amount) public view returns(bytes32 result) {... */\n    tag_6:\n      callvalue\n      dup1\n      iszero\n      tag_34\n      jumpi\n      0x00\n      dup1\n      revert\n    tag_34:\n      pop\n      tag_35\n      0x04\n      dup1\n      calldatasize\n      sub\n      dup2\n      add\n      swap1\n      tag_36\n      swap2\n      swap1\n      tag_37\n      jump\t// in\n    tag_36:\n      tag_38\n      jump\t// in\n    tag_35:\n      mload(0x40)\n      tag_39\n      swap2\n      swap1\n      tag_40\n      jump\t// in\n    tag_39:\n      mload(0x40)\n      dup1\n      swap2\n      sub\n      swap1\n      return\n        /* \"contracts/Escrow.sol\":339:389  mapping (bytes32 => uint256) public ERC20_balances */\n    tag_7:\n      callvalue\n      dup1\n      iszero\n      tag_41\n      jumpi\n      0x00\n      dup1\n      revert\n    tag_41:\n      pop\n      tag_42\n      0x04\n      dup1\n      calldatasize\n      sub\n      dup2\n      add\n      swap1\n      tag_43\n      swap2\n      swap1\n      tag_44\n      jump\t// in\n    tag_43:\n      tag_45\n      jump\t// in\n    tag_42:\n      mload(0x40)\n      tag_46\n      swap2\n      swap1\n      tag_26\n      jump\t// in\n    tag_46:\n      mload(0x40)\n      dup1\n      swap2\n      sub\n      swap1\n      return\n        /* \"contracts/Escrow.sol\":833:1296  function depositERC20(bytes32 trx_hash, uint amount) external {... */\n    tag_8:\n      callvalue\n      dup1\n      iszero\n      tag_47\n      jumpi\n      0x00\n      dup1\n      revert\n    tag_47:\n      pop\n      tag_48\n      0x04\n      dup1\n      calldatasize\n      sub\n      dup2\n      add\n      swap1\n      tag_49\n      swap2\n      swap1\n      tag_50\n      jump\t// in\n    tag_49:\n      tag_51\n      jump\t// in\n    tag_48:\n      stop\n        /* \"contracts/Escrow.sol\":145:165  IERC20 public _token */\n    tag_9:\n      callvalue\n      dup1\n      iszero\n      tag_52\n      jumpi\n      0x00\n      dup1\n      revert\n    tag_52:\n      pop\n      tag_53\n      tag_54\n      jump\t// in\n    tag_53:\n      mload(0x40)\n      tag_55\n      swap2\n      swap1\n      tag_56\n      jump\t// in\n    tag_55:\n      mload(0x40)\n      dup1\n      swap2\n      sub\n      swap1\n      return\n        /* \"contracts/Escrow.sol\":640:827  function deposit(address payable _receiver) public payable {... */\n    tag_10:\n      tag_57\n      0x04\n      dup1\n      calldatasize\n      sub\n      dup2\n      add\n      swap1\n      tag_58\n      swap2\n      swap1\n      tag_59\n      jump\t// in\n    tag_58:\n      tag_19\n      jump\t// in\n    tag_57:\n      stop\n    tag_19:\n        /* \"contracts/Escrow.sol\":730:736  100e18 */\n      0x056bc75e2d63100000\n        /* \"contracts/Escrow.sol\":717:726  msg.value */\n      callvalue\n        /* \"contracts/Escrow.sol\":717:736  msg.value <= 100e18 */\n      gt\n      iszero\n        /* \"contracts/Escrow.sol\":709:778  require(msg.value <= 100e18, \"You can not send more than 100 ethers\") */\n      tag_61\n      jumpi\n      mload(0x40)\n      0x08c379a000000000000000000000000000000000000000000000000000000000\n      dup2\n      mstore\n      0x04\n      add\n      tag_62\n      swap1\n      tag_63\n      jump\t// in\n    tag_62:\n      mload(0x40)\n      dup1\n      swap2\n      sub\n      swap1\n      revert\n    tag_61:\n        /* \"contracts/Escrow.sol\":811:820  msg.value */\n      callvalue\n        /* \"contracts/Escrow.sol\":788:796  balances */\n      0x01\n        /* \"contracts/Escrow.sol\":788:807  balances[_receiver] */\n      0x00\n        /* \"contracts/Escrow.sol\":797:806  _receiver */\n      dup4\n        /* \"contracts/Escrow.sol\":788:807  balances[_receiver] */\n      0xffffffffffffffffffffffffffffffffffffffff\n      and\n      0xffffffffffffffffffffffffffffffffffffffff\n      and\n      dup2\n      mstore\n      0x20\n      add\n      swap1\n      dup2\n      mstore\n      0x20\n      add\n      0x00\n      keccak256\n      0x00\n        /* \"contracts/Escrow.sol\":788:820  balances[_receiver] += msg.value */\n      dup3\n      dup3\n      sload\n      tag_64\n      swap2\n      swap1\n      tag_15\n      jump\t// in\n    tag_64:\n      swap3\n      pop\n      pop\n      dup2\n      swap1\n      sstore\n      pop\n        /* \"contracts/Escrow.sol\":640:827  function deposit(address payable _receiver) public payable {... */\n      pop\n      jump\t// out\n        /* \"contracts/Escrow.sol\":291:332  mapping (address => uint) public balances */\n    tag_24:\n      mstore(0x20, 0x01)\n      dup1\n      0x00\n      mstore\n      keccak256(0x00, 0x40)\n      0x00\n      swap2\n      pop\n      swap1\n      pop\n      sload\n      dup2\n      jump\t// out\n        /* \"contracts/Escrow.sol\":1302:1513  function withdraw() external payable {... */\n    tag_28:\n        /* \"contracts/Escrow.sol\":1349:1360  uint amount */\n      0x00\n        /* \"contracts/Escrow.sol\":1363:1371  balances */\n      0x01\n        /* \"contracts/Escrow.sol\":1363:1383  balances[msg.sender] */\n      0x00\n        /* \"contracts/Escrow.sol\":1372:1382  msg.sender */\n      caller\n        /* \"contracts/Escrow.sol\":1363:1383  balances[msg.sender] */\n      0xffffffffffffffffffffffffffffffffffffffff\n      and\n      0xffffffffffffffffffffffffffffffffffffffff\n      and\n      dup2\n      mstore\n      0x20\n      add\n      swap1\n      dup2\n      mstore\n      0x20\n      add\n      0x00\n      keccak256\n      sload\n        /* \"contracts/Escrow.sol\":1349:1383  uint amount = balances[msg.sender] */\n      swap1\n      pop\n        /* \"contracts/Escrow.sol\":1416:1417  0 */\n      0x00\n        /* \"contracts/Escrow.sol\":1393:1401  balances */\n      0x01\n        /* \"contracts/Escrow.sol\":1393:1413  balances[msg.sender] */\n      0x00\n        /* \"contracts/Escrow.sol\":1402:1412  msg.sender */\n      caller\n        /* \"contracts/Escrow.sol\":1393:1413  balances[msg.sender] */\n      0xffffffffffffffffffffffffffffffffffffffff\n      and\n      0xffffffffffffffffffffffffffffffffffffffff\n      and\n      dup2\n      mstore\n      0x20\n      add\n      swap1\n      dup2\n      mstore\n      0x20\n      add\n      0x00\n      keccak256\n        /* \"contracts/Escrow.sol\":1393:1417  balances[msg.sender] = 0 */\n      dup2\n      swap1\n      sstore\n      pop\n        /* \"contracts/Escrow.sol\":1435:1445  msg.sender */\n      caller\n        /* \"contracts/Escrow.sol\":1427:1455  payable(msg.sender).transfer */\n      0xffffffffffffffffffffffffffffffffffffffff\n      and\n        /* \"contracts/Escrow.sol\":1427:1463  payable(msg.sender).transfer(amount) */\n      0x08fc\n        /* \"contracts/Escrow.sol\":1456:1462  amount */\n      dup3\n        /* \"contracts/Escrow.sol\":1427:1463  payable(msg.sender).transfer(amount) */\n      swap1\n      dup2\n      iszero\n      mul\n      swap1\n      mload(0x40)\n      0x00\n      mload(0x40)\n      dup1\n      dup4\n      sub\n      dup2\n      dup6\n      dup9\n      dup9\n      call\n      swap4\n      pop\n      pop\n      pop\n      pop\n      iszero\n      dup1\n      iszero\n      tag_67\n      jumpi\n      returndatasize\n      0x00\n      dup1\n      returndatacopy\n      revert(0x00, returndatasize)\n    tag_67:\n      pop\n        /* \"contracts/Escrow.sol\":1478:1506  Withdraw(msg.sender, amount) */\n      0x884edad9ce6fa2440d8a54cc123490eb96d2768479d49ff9c7366125a9424364\n        /* \"contracts/Escrow.sol\":1487:1497  msg.sender */\n      caller\n        /* \"contracts/Escrow.sol\":1499:1505  amount */\n      dup3\n        /* \"contracts/Escrow.sol\":1478:1506  Withdraw(msg.sender, amount) */\n      mload(0x40)\n      tag_68\n      swap3\n      swap2\n      swap1\n      tag_69\n      jump\t// in\n    tag_68:\n      mload(0x40)\n      dup1\n      swap2\n      sub\n      swap1\n      log1\n        /* \"contracts/Escrow.sol\":1339:1513  {... */\n      pop\n        /* \"contracts/Escrow.sol\":1302:1513  function withdraw() external payable {... */\n      jump\t// out\n        /* \"contracts/Escrow.sol\":1519:1632  function getbalancesByAddr(address _addr) public view returns(uint _amount) {... */\n    tag_32:\n        /* \"contracts/Escrow.sol\":1581:1593  uint _amount */\n      0x00\n        /* \"contracts/Escrow.sol\":1610:1618  balances */\n      0x01\n        /* \"contracts/Escrow.sol\":1610:1625  balances[_addr] */\n      0x00\n        /* \"contracts/Escrow.sol\":1619:1624  _addr */\n      dup4\n        /* \"contracts/Escrow.sol\":1610:1625  balances[_addr] */\n      0xffffffffffffffffffffffffffffffffffffffff\n      and\n      0xffffffffffffffffffffffffffffffffffffffff\n      and\n      dup2\n      mstore\n      0x20\n      add\n      swap1\n      dup2\n      mstore\n      0x20\n      add\n      0x00\n      keccak256\n      sload\n        /* \"contracts/Escrow.sol\":1603:1625  return balances[_addr] */\n      swap1\n      pop\n        /* \"contracts/Escrow.sol\":1519:1632  function getbalancesByAddr(address _addr) public view returns(uint _amount) {... */\n      swap2\n      swap1\n      pop\n      jump\t// out\n        /* \"contracts/Escrow.sol\":1638:1801  function getERC20Hash(uint amount) public view returns(bytes32 result) {... */\n    tag_38:\n        /* \"contracts/Escrow.sol\":1693:1707  bytes32 result */\n      0x00\n        /* \"contracts/Escrow.sol\":1753:1763  msg.sender */\n      caller\n        /* \"contracts/Escrow.sol\":1765:1784  ERC20_deposit_count */\n      sload(0x03)\n        /* \"contracts/Escrow.sol\":1786:1792  amount */\n      dup4\n        /* \"contracts/Escrow.sol\":1736:1793  abi.encodePacked(msg.sender, ERC20_deposit_count, amount) */\n      add(0x20, mload(0x40))\n      tag_72\n      swap4\n      swap3\n      swap2\n      swap1\n      tag_73\n      jump\t// in\n    tag_72:\n      mload(0x40)\n      0x20\n      dup2\n      dup4\n      sub\n      sub\n      dup2\n      mstore\n      swap1\n      0x40\n      mstore\n        /* \"contracts/Escrow.sol\":1726:1794  keccak256(abi.encodePacked(msg.sender, ERC20_deposit_count, amount)) */\n      dup1\n      mload\n      swap1\n      0x20\n      add\n      keccak256\n        /* \"contracts/Escrow.sol\":1719:1794  return keccak256(abi.encodePacked(msg.sender, ERC20_deposit_count, amount)) */\n      swap1\n      pop\n        /* \"contracts/Escrow.sol\":1638:1801  function getERC20Hash(uint amount) public view returns(bytes32 result) {... */\n      swap2\n      swap1\n      pop\n      jump\t// out\n        /* \"contracts/Escrow.sol\":339:389  mapping (bytes32 => uint256) public ERC20_balances */\n    tag_45:\n      mstore(0x20, 0x02)\n      dup1\n      0x00\n      mstore\n      keccak256(0x00, 0x40)\n      0x00\n      swap2\n      pop\n      swap1\n      pop\n      sload\n      dup2\n      jump\t// out\n        /* \"contracts/Escrow.sol\":833:1296  function depositERC20(bytes32 trx_hash, uint amount) external {... */\n    tag_51:\n        /* \"contracts/Escrow.sol\":928:929  0 */\n      0x00\n        /* \"contracts/Escrow.sol\":913:929  trx_hash[0] != 0 */\n      0xf8\n      shl\n        /* \"contracts/Escrow.sol\":913:921  trx_hash */\n      dup3\n        /* \"contracts/Escrow.sol\":922:923  0 */\n      0x00\n        /* \"contracts/Escrow.sol\":913:924  trx_hash[0] */\n      0x20\n      dup2\n      lt\n      tag_75\n      jumpi\n      tag_76\n      tag_77\n      jump\t// in\n    tag_76:\n    tag_75:\n      byte\n      0xf8\n      shl\n        /* \"contracts/Escrow.sol\":913:929  trx_hash[0] != 0 */\n      not(0xffffffffffffffffffffffffffffffffffffffffffffffffffffffffffffff)\n      and\n      eq\n      iszero\n        /* \"contracts/Escrow.sol\":905:967  require(trx_hash[0] != 0, \"Transaction hash cannot be empty!\") */\n      tag_78\n      jumpi\n      mload(0x40)\n      0x08c379a000000000000000000000000000000000000000000000000000000000\n      dup2\n      mstore\n      0x04\n      add\n      tag_79\n      swap1\n      tag_80\n      jump\t// in\n    tag_79:\n      mload(0x40)\n      dup1\n      swap2\n      sub\n      swap1\n      revert\n    tag_78:\n        /* \"contracts/Escrow.sol\":995:996  0 */\n      0x00\n        /* \"contracts/Escrow.sol\":985:991  amount */\n      dup2\n        /* \"contracts/Escrow.sol\":985:996  amount != 0 */\n      eq\n      iszero\n        /* \"contracts/Escrow.sol\":977:1036  require(amount != 0, \"Escrow amount cannot be equal to 0!\") */\n      tag_81\n      jumpi\n      mload(0x40)\n      0x08c379a000000000000000000000000000000000000000000000000000000000\n      dup2\n      mstore\n      0x04\n      add\n      tag_82\n      swap1\n      tag_83\n      jump\t// in\n    tag_82:\n      mload(0x40)\n      dup1\n      swap2\n      sub\n      swap1\n      revert\n    tag_81:\n        /* \"contracts/Escrow.sol\":1082:1083  0 */\n      0x00\n        /* \"contracts/Escrow.sol\":1054:1068  ERC20_balances */\n      0x02\n        /* \"contracts/Escrow.sol\":1054:1078  ERC20_balances[trx_hash] */\n      0x00\n        /* \"contracts/Escrow.sol\":1069:1077  trx_hash */\n      dup5\n        /* \"contracts/Escrow.sol\":1054:1078  ERC20_balances[trx_hash] */\n      dup2\n      mstore\n      0x20\n      add\n      swap1\n      dup2\n      mstore\n      0x20\n      add\n      0x00\n      keccak256\n      sload\n        /* \"contracts/Escrow.sol\":1054:1083  ERC20_balances[trx_hash] == 0 */\n      eq\n        /* \"contracts/Escrow.sol\":1046:1111  require(ERC20_balances[trx_hash] == 0, \"Hash is already in use!\") */\n      tag_84\n      jumpi\n      mload(0x40)\n      0x08c379a000000000000000000000000000000000000000000000000000000000\n      dup2\n      mstore\n      0x04\n      add\n      tag_85\n      swap1\n      tag_86\n      jump\t// in\n    tag_85:\n      mload(0x40)\n      dup1\n      swap2\n      sub\n      swap1\n      revert\n    tag_84:\n        /* \"contracts/Escrow.sol\":1129:1135  _token */\n      0x00\n      dup1\n      sload\n      swap1\n      0x0100\n      exp\n      swap1\n      div\n      0xffffffffffffffffffffffffffffffffffffffff\n      and\n        /* \"contracts/Escrow.sol\":1129:1148  _token.transferFrom */\n      0xffffffffffffffffffffffffffffffffffffffff\n      and\n      0x23b872dd\n        /* \"contracts/Escrow.sol\":1149:1159  msg.sender */\n      caller\n        /* \"contracts/Escrow.sol\":1169:1173  this */\n      address\n        /* \"contracts/Escrow.sol\":1176:1182  amount */\n      dup5\n        /* \"contracts/Escrow.sol\":1129:1183  _token.transferFrom(msg.sender, address(this), amount) */\n      mload(0x40)\n      dup5\n      0xffffffff\n      and\n      0xe0\n      shl\n      dup2\n      mstore\n      0x04\n      add\n      tag_87\n      swap4\n      swap3\n      swap2\n      swap1\n      tag_88\n      jump\t// in\n    tag_87:\n      0x20\n      mload(0x40)\n      dup1\n      dup4\n      sub\n      dup2\n      0x00\n      dup8\n      dup1\n      extcodesize\n      iszero\n      dup1\n      iszero\n      tag_89\n      jumpi\n      0x00\n      dup1\n      revert\n    tag_89:\n      pop\n      gas\n      call\n      iszero\n      dup1\n      iszero\n      tag_91\n      jumpi\n      returndatasize\n      0x00\n      dup1\n      returndatacopy\n      revert(0x00, returndatasize)\n    tag_91:\n      pop\n      pop\n      pop\n      pop\n      mload(0x40)\n      returndatasize\n      not(0x1f)\n      0x1f\n      dup3\n      add\n      and\n      dup3\n      add\n      dup1\n      0x40\n      mstore\n      pop\n      dup2\n      add\n      swap1\n      tag_92\n      swap2\n      swap1\n      tag_93\n      jump\t// in\n    tag_92:\n        /* \"contracts/Escrow.sol\":1121:1214  require(_token.transferFrom(msg.sender, address(this), amount), \"Transfer to escrow failed!\") */\n      tag_94\n      jumpi\n      mload(0x40)\n      0x08c379a000000000000000000000000000000000000000000000000000000000\n      dup2\n      mstore\n      0x04\n      add\n      tag_95\n      swap1\n      tag_96\n      jump\t// in\n    tag_95:\n      mload(0x40)\n      dup1\n      swap2\n      sub\n      swap1\n      revert\n    tag_94:\n        /* \"contracts/Escrow.sol\":1252:1258  amount */\n      dup1\n        /* \"contracts/Escrow.sol\":1225:1239  ERC20_balances */\n      0x02\n        /* \"contracts/Escrow.sol\":1225:1249  ERC20_balances[trx_hash] */\n      0x00\n        /* \"contracts/Escrow.sol\":1240:1248  trx_hash */\n      dup5\n        /* \"contracts/Escrow.sol\":1225:1249  ERC20_balances[trx_hash] */\n      dup2\n      mstore\n      0x20\n      add\n      swap1\n      dup2\n      mstore\n      0x20\n      add\n      0x00\n      keccak256\n        /* \"contracts/Escrow.sol\":1225:1258  ERC20_balances[trx_hash] = amount */\n      dup2\n      swap1\n      sstore\n      pop\n        /* \"contracts/Escrow.sol\":1268:1287  ERC20_deposit_count */\n      0x03\n      0x00\n        /* \"contracts/Escrow.sol\":1268:1289  ERC20_deposit_count++ */\n      dup2\n      sload\n      dup1\n      swap3\n      swap2\n      swap1\n      tag_97\n      swap1\n      tag_98\n      jump\t// in\n    tag_97:\n      swap2\n      swap1\n      pop\n      sstore\n      pop\n        /* \"contracts/Escrow.sol\":833:1296  function depositERC20(bytes32 trx_hash, uint amount) external {... */\n      pop\n      pop\n      jump\t// out\n        /* \"contracts/Escrow.sol\":145:165  IERC20 public _token */\n    tag_54:\n      0x00\n      dup1\n      sload\n      swap1\n      0x0100\n      exp\n      swap1\n      div\n      0xffffffffffffffffffffffffffffffffffffffff\n      and\n      dup2\n      jump\t// out\n        /* \"#utility.yul\":7:146   */\n    tag_100:\n        /* \"#utility.yul\":53:58   */\n      0x00\n        /* \"#utility.yul\":91:97   */\n      dup2\n        /* \"#utility.yul\":78:98   */\n      calldataload\n        /* \"#utility.yul\":69:98   */\n      swap1\n      pop\n        /* \"#utility.yul\":107:140   */\n      tag_102\n        /* \"#utility.yul\":134:139   */\n      dup2\n        /* \"#utility.yul\":107:140   */\n      tag_103\n      jump\t// in\n    tag_102:\n        /* \"#utility.yul\":7:146   */\n      swap3\n      swap2\n      pop\n      pop\n      jump\t// out\n        /* \"#utility.yul\":152:307   */\n    tag_104:\n        /* \"#utility.yul\":206:211   */\n      0x00\n        /* \"#utility.yul\":244:250   */\n      dup2\n        /* \"#utility.yul\":231:251   */\n      calldataload\n        /* \"#utility.yul\":222:251   */\n      swap1\n      pop\n        /* \"#utility.yul\":260:301   */\n      tag_106\n        /* \"#utility.yul\":295:300   */\n      dup2\n        /* \"#utility.yul\":260:301   */\n      tag_107\n      jump\t// in\n    tag_106:\n        /* \"#utility.yul\":152:307   */\n      swap3\n      swap2\n      pop\n      pop\n      jump\t// out\n        /* \"#utility.yul\":313:450   */\n    tag_108:\n        /* \"#utility.yul\":367:372   */\n      0x00\n        /* \"#utility.yul\":398:404   */\n      dup2\n        /* \"#utility.yul\":392:405   */\n      mload\n        /* \"#utility.yul\":383:405   */\n      swap1\n      pop\n        /* \"#utility.yul\":414:444   */\n      tag_110\n        /* \"#utility.yul\":438:443   */\n      dup2\n        /* \"#utility.yul\":414:444   */\n      tag_111\n      jump\t// in\n    tag_110:\n        /* \"#utility.yul\":313:450   */\n      swap3\n      swap2\n      pop\n      pop\n      jump\t// out\n        /* \"#utility.yul\":456:595   */\n    tag_112:\n        /* \"#utility.yul\":502:507   */\n      0x00\n        /* \"#utility.yul\":540:546   */\n      dup2\n        /* \"#utility.yul\":527:547   */\n      calldataload\n        /* \"#utility.yul\":518:547   */\n      swap1\n      pop\n        /* \"#utility.yul\":556:589   */\n      tag_114\n        /* \"#utility.yul\":583:588   */\n      dup2\n        /* \"#utility.yul\":556:589   */\n      tag_115\n      jump\t// in\n    tag_114:\n        /* \"#utility.yul\":456:595   */\n      swap3\n      swap2\n      pop\n      pop\n      jump\t// out\n        /* \"#utility.yul\":601:740   */\n    tag_116:\n        /* \"#utility.yul\":647:652   */\n      0x00\n        /* \"#utility.yul\":685:691   */\n      dup2\n        /* \"#utility.yul\":672:692   */\n      calldataload\n        /* \"#utility.yul\":663:692   */\n      swap1\n      pop\n        /* \"#utility.yul\":701:734   */\n      tag_118\n        /* \"#utility.yul\":728:733   */\n      dup2\n        /* \"#utility.yul\":701:734   */\n      tag_119\n      jump\t// in\n    tag_118:\n        /* \"#utility.yul\":601:740   */\n      swap3\n      swap2\n      pop\n      pop\n      jump\t// out\n        /* \"#utility.yul\":746:1075   */\n    tag_23:\n        /* \"#utility.yul\":805:811   */\n      0x00\n        /* \"#utility.yul\":854:856   */\n      0x20\n        /* \"#utility.yul\":842:851   */\n      dup3\n        /* \"#utility.yul\":833:840   */\n      dup5\n        /* \"#utility.yul\":829:852   */\n      sub\n        /* \"#utility.yul\":825:857   */\n      slt\n        /* \"#utility.yul\":822:941   */\n      iszero\n      tag_121\n      jumpi\n        /* \"#utility.yul\":860:939   */\n      tag_122\n      tag_123\n      jump\t// in\n    tag_122:\n        /* \"#utility.yul\":822:941   */\n    tag_121:\n        /* \"#utility.yul\":980:981   */\n      0x00\n        /* \"#utility.yul\":1005:1058   */\n      tag_124\n        /* \"#utility.yul\":1050:1057   */\n      dup5\n        /* \"#utility.yul\":1041:1047   */\n      dup3\n        /* \"#utility.yul\":1030:1039   */\n      dup6\n        /* \"#utility.yul\":1026:1048   */\n      add\n        /* \"#utility.yul\":1005:1058   */\n      tag_100\n      jump\t// in\n    tag_124:\n        /* \"#utility.yul\":995:1058   */\n      swap2\n      pop\n        /* \"#utility.yul\":951:1068   */\n      pop\n        /* \"#utility.yul\":746:1075   */\n      swap3\n      swap2\n      pop\n      pop\n      jump\t// out\n        /* \"#utility.yul\":1081:1426   */\n    tag_59:\n        /* \"#utility.yul\":1148:1154   */\n      0x00\n        /* \"#utility.yul\":1197:1199   */\n      0x20\n        /* \"#utility.yul\":1185:1194   */\n      dup3\n        /* \"#utility.yul\":1176:1183   */\n      dup5\n        /* \"#utility.yul\":1172:1195   */\n      sub\n        /* \"#utility.yul\":1168:1200   */\n      slt\n        /* \"#utility.yul\":1165:1284   */\n      iszero\n      tag_126\n      jumpi\n        /* \"#utility.yul\":1203:1282   */\n      tag_127\n      tag_123\n      jump\t// in\n    tag_127:\n        /* \"#utility.yul\":1165:1284   */\n    tag_126:\n        /* \"#utility.yul\":1323:1324   */\n      0x00\n        /* \"#utility.yul\":1348:1409   */\n      tag_128\n        /* \"#utility.yul\":1401:1408   */\n      dup5\n        /* \"#utility.yul\":1392:1398   */\n      dup3\n        /* \"#utility.yul\":1381:1390   */\n      dup6\n        /* \"#utility.yul\":1377:1399   */\n      add\n        /* \"#utility.yul\":1348:1409   */\n      tag_104\n      jump\t// in\n    tag_128:\n        /* \"#utility.yul\":1338:1409   */\n      swap2\n      pop\n        /* \"#utility.yul\":1294:1419   */\n      pop\n        /* \"#utility.yul\":1081:1426   */\n      swap3\n      swap2\n      pop\n      pop\n      jump\t// out\n        /* \"#utility.yul\":1432:1777   */\n    tag_93:\n        /* \"#utility.yul\":1499:1505   */\n      0x00\n        /* \"#utility.yul\":1548:1550   */\n      0x20\n        /* \"#utility.yul\":1536:1545   */\n      dup3\n        /* \"#utility.yul\":1527:1534   */\n      dup5\n        /* \"#utility.yul\":1523:1546   */\n      sub\n        /* \"#utility.yul\":1519:1551   */\n      slt\n        /* \"#utility.yul\":1516:1635   */\n      iszero\n      tag_130\n      jumpi\n        /* \"#utility.yul\":1554:1633   */\n      tag_131\n      tag_123\n      jump\t// in\n    tag_131:\n        /* \"#utility.yul\":1516:1635   */\n    tag_130:\n        /* \"#utility.yul\":1674:1675   */\n      0x00\n        /* \"#utility.yul\":1699:1760   */\n      tag_132\n        /* \"#utility.yul\":1752:1759   */\n      dup5\n        /* \"#utility.yul\":1743:1749   */\n      dup3\n        /* \"#utility.yul\":1732:1741   */\n      dup6\n        /* \"#utility.yul\":1728:1750   */\n      add\n        /* \"#utility.yul\":1699:1760   */\n      tag_108\n      jump\t// in\n    tag_132:\n        /* \"#utility.yul\":1689:1760   */\n      swap2\n      pop\n        /* \"#utility.yul\":1645:1770   */\n      pop\n        /* \"#utility.yul\":1432:1777   */\n      swap3\n      swap2\n      pop\n      pop\n      jump\t// out\n        /* \"#utility.yul\":1783:2112   */\n    tag_44:\n        /* \"#utility.yul\":1842:1848   */\n      0x00\n        /* \"#utility.yul\":1891:1893   */\n      0x20\n        /* \"#utility.yul\":1879:1888   */\n      dup3\n        /* \"#utility.yul\":1870:1877   */\n      dup5\n        /* \"#utility.yul\":1866:1889   */\n      sub\n        /* \"#utility.yul\":1862:1894   */\n      slt\n        /* \"#utility.yul\":1859:1978   */\n      iszero\n      tag_134\n      jumpi\n        /* \"#utility.yul\":1897:1976   */\n      tag_135\n      tag_123\n      jump\t// in\n    tag_135:\n        /* \"#utility.yul\":1859:1978   */\n    tag_134:\n        /* \"#utility.yul\":2017:2018   */\n      0x00\n        /* \"#utility.yul\":2042:2095   */\n      tag_136\n        /* \"#utility.yul\":2087:2094   */\n      dup5\n        /* \"#utility.yul\":2078:2084   */\n      dup3\n        /* \"#utility.yul\":2067:2076   */\n      dup6\n        /* \"#utility.yul\":2063:2085   */\n      add\n        /* \"#utility.yul\":2042:2095   */\n      tag_112\n      jump\t// in\n    tag_136:\n        /* \"#utility.yul\":2032:2095   */\n      swap2\n      pop\n        /* \"#utility.yul\":1988:2105   */\n      pop\n        /* \"#utility.yul\":1783:2112   */\n      swap3\n      swap2\n      pop\n      pop\n      jump\t// out\n        /* \"#utility.yul\":2118:2592   */\n    tag_50:\n        /* \"#utility.yul\":2186:2192   */\n      0x00\n        /* \"#utility.yul\":2194:2200   */\n      dup1\n        /* \"#utility.yul\":2243:2245   */\n      0x40\n        /* \"#utility.yul\":2231:2240   */\n      dup4\n        /* \"#utility.yul\":2222:2229   */\n      dup6\n        /* \"#utility.yul\":2218:2241   */\n      sub\n        /* \"#utility.yul\":2214:2246   */\n      slt\n        /* \"#utility.yul\":2211:2330   */\n      iszero\n      tag_138\n      jumpi\n        /* \"#utility.yul\":2249:2328   */\n      tag_139\n      tag_123\n      jump\t// in\n    tag_139:\n        /* \"#utility.yul\":2211:2330   */\n    tag_138:\n        /* \"#utility.yul\":2369:2370   */\n      0x00\n        /* \"#utility.yul\":2394:2447   */\n      tag_140\n        /* \"#utility.yul\":2439:2446   */\n      dup6\n        /* \"#utility.yul\":2430:2436   */\n      dup3\n        /* \"#utility.yul\":2419:2428   */\n      dup7\n        /* \"#utility.yul\":2415:2437   */\n      add\n        /* \"#utility.yul\":2394:2447   */\n      tag_112\n      jump\t// in\n    tag_140:\n        /* \"#utility.yul\":2384:2447   */\n      swap3\n      pop\n        /* \"#utility.yul\":2340:2457   */\n      pop\n        /* \"#utility.yul\":2496:2498   */\n      0x20\n        /* \"#utility.yul\":2522:2575   */\n      tag_141\n        /* \"#utility.yul\":2567:2574   */\n      dup6\n        /* \"#utility.yul\":2558:2564   */\n      dup3\n        /* \"#utility.yul\":2547:2556   */\n      dup7\n        /* \"#utility.yul\":2543:2565   */\n      add\n        /* \"#utility.yul\":2522:2575   */\n      tag_116\n      jump\t// in\n    tag_141:\n        /* \"#utility.yul\":2512:2575   */\n      swap2\n      pop\n        /* \"#utility.yul\":2467:2585   */\n      pop\n        /* \"#utility.yul\":2118:2592   */\n      swap3\n      pop\n      swap3\n      swap1\n      pop\n      jump\t// out\n        /* \"#utility.yul\":2598:2927   */\n    tag_37:\n        /* \"#utility.yul\":2657:2663   */\n      0x00\n        /* \"#utility.yul\":2706:2708   */\n      0x20\n        /* \"#utility.yul\":2694:2703   */\n      dup3\n        /* \"#utility.yul\":2685:2692   */\n      dup5\n        /* \"#utility.yul\":2681:2704   */\n      sub\n        /* \"#utility.yul\":2677:2709   */\n      slt\n        /* \"#utility.yul\":2674:2793   */\n      iszero\n      tag_143\n      jumpi\n        /* \"#utility.yul\":2712:2791   */\n      tag_144\n      tag_123\n      jump\t// in\n    tag_144:\n        /* \"#utility.yul\":2674:2793   */\n    tag_143:\n        /* \"#utility.yul\":2832:2833   */\n      0x00\n        /* \"#utility.yul\":2857:2910   */\n      tag_145\n        /* \"#utility.yul\":2902:2909   */\n      dup5\n        /* \"#utility.yul\":2893:2899   */\n      dup3\n        /* \"#utility.yul\":2882:2891   */\n      dup6\n        /* \"#utility.yul\":2878:2900   */\n      add\n        /* \"#utility.yul\":2857:2910   */\n      tag_116\n      jump\t// in\n    tag_145:\n        /* \"#utility.yul\":2847:2910   */\n      swap2\n      pop\n        /* \"#utility.yul\":2803:2920   */\n      pop\n        /* \"#utility.yul\":2598:2927   */\n      swap3\n      swap2\n      pop\n      pop\n      jump\t// out\n        /* \"#utility.yul\":2933:3051   */\n    tag_146:\n        /* \"#utility.yul\":3020:3044   */\n      tag_148\n        /* \"#utility.yul\":3038:3043   */\n      dup2\n        /* \"#utility.yul\":3020:3044   */\n      tag_149\n      jump\t// in\n    tag_148:\n        /* \"#utility.yul\":3015:3018   */\n      dup3\n        /* \"#utility.yul\":3008:3045   */\n      mstore\n        /* \"#utility.yul\":2933:3051   */\n      pop\n      pop\n      jump\t// out\n        /* \"#utility.yul\":3057:3214   */\n    tag_150:\n        /* \"#utility.yul\":3162:3207   */\n      tag_152\n        /* \"#utility.yul\":3182:3206   */\n      tag_153\n        /* \"#utility.yul\":3200:3205   */\n      dup3\n        /* \"#utility.yul\":3182:3206   */\n      tag_149\n      jump\t// in\n    tag_153:\n        /* \"#utility.yul\":3162:3207   */\n      tag_154\n      jump\t// in\n    tag_152:\n        /* \"#utility.yul\":3157:3160   */\n      dup3\n        /* \"#utility.yul\":3150:3208   */\n      mstore\n        /* \"#utility.yul\":3057:3214   */\n      pop\n      pop\n      jump\t// out\n        /* \"#utility.yul\":3220:3338   */\n    tag_155:\n        /* \"#utility.yul\":3307:3331   */\n      tag_157\n        /* \"#utility.yul\":3325:3330   */\n      dup2\n        /* \"#utility.yul\":3307:3331   */\n      tag_158\n      jump\t// in\n    tag_157:\n        /* \"#utility.yul\":3302:3305   */\n      dup3\n        /* \"#utility.yul\":3295:3332   */\n      mstore\n        /* \"#utility.yul\":3220:3338   */\n      pop\n      pop\n      jump\t// out\n        /* \"#utility.yul\":3344:3501   */\n    tag_159:\n        /* \"#utility.yul\":3444:3494   */\n      tag_161\n        /* \"#utility.yul\":3488:3493   */\n      dup2\n        /* \"#utility.yul\":3444:3494   */\n      tag_162\n      jump\t// in\n    tag_161:\n        /* \"#utility.yul\":3439:3442   */\n      dup3\n        /* \"#utility.yul\":3432:3495   */\n      mstore\n        /* \"#utility.yul\":3344:3501   */\n      pop\n      pop\n      jump\t// out\n        /* \"#utility.yul\":3507:3873   */\n    tag_163:\n        /* \"#utility.yul\":3649:3652   */\n      0x00\n        /* \"#utility.yul\":3670:3737   */\n      tag_165\n        /* \"#utility.yul\":3734:3736   */\n      0x21\n        /* \"#utility.yul\":3729:3732   */\n      dup4\n        /* \"#utility.yul\":3670:3737   */\n      tag_166\n      jump\t// in\n    tag_165:\n        /* \"#utility.yul\":3663:3737   */\n      swap2\n      pop\n        /* \"#utility.yul\":3746:3839   */\n      tag_167\n        /* \"#utility.yul\":3835:3838   */\n      dup3\n        /* \"#utility.yul\":3746:3839   */\n      tag_168\n      jump\t// in\n    tag_167:\n        /* \"#utility.yul\":3864:3866   */\n      0x40\n        /* \"#utility.yul\":3859:3862   */\n      dup3\n        /* \"#utility.yul\":3855:3867   */\n      add\n        /* \"#utility.yul\":3848:3867   */\n      swap1\n      pop\n        /* \"#utility.yul\":3507:3873   */\n      swap2\n      swap1\n      pop\n      jump\t// out\n        /* \"#utility.yul\":3879:4245   */\n    tag_169:\n        /* \"#utility.yul\":4021:4024   */\n      0x00\n        /* \"#utility.yul\":4042:4109   */\n      tag_171\n        /* \"#utility.yul\":4106:4108   */\n      0x25\n        /* \"#utility.yul\":4101:4104   */\n      dup4\n        /* \"#utility.yul\":4042:4109   */\n      tag_166\n      jump\t// in\n    tag_171:\n        /* \"#utility.yul\":4035:4109   */\n      swap2\n      pop\n        /* \"#utility.yul\":4118:4211   */\n      tag_172\n        /* \"#utility.yul\":4207:4210   */\n      dup3\n        /* \"#utility.yul\":4118:4211   */\n      tag_173\n      jump\t// in\n    tag_172:\n        /* \"#utility.yul\":4236:4238   */\n      0x40\n        /* \"#utility.yul\":4231:4234   */\n      dup3\n        /* \"#utility.yul\":4227:4239   */\n      add\n        /* \"#utility.yul\":4220:4239   */\n      swap1\n      pop\n        /* \"#utility.yul\":3879:4245   */\n      swap2\n      swap1\n      pop\n      jump\t// out\n        /* \"#utility.yul\":4251:4617   */\n    tag_174:\n        /* \"#utility.yul\":4393:4396   */\n      0x00\n        /* \"#utility.yul\":4414:4481   */\n      tag_176\n        /* \"#utility.yul\":4478:4480   */\n      0x1a\n        /* \"#utility.yul\":4473:4476   */\n      dup4\n        /* \"#utility.yul\":4414:4481   */\n      tag_166\n      jump\t// in\n    tag_176:\n        /* \"#utility.yul\":4407:4481   */\n      swap2\n      pop\n        /* \"#utility.yul\":4490:4583   */\n      tag_177\n        /* \"#utility.yul\":4579:4582   */\n      dup3\n        /* \"#utility.yul\":4490:4583   */\n      tag_178\n      jump\t// in\n    tag_177:\n        /* \"#utility.yul\":4608:4610   */\n      0x20\n        /* \"#utility.yul\":4603:4606   */\n      dup3\n        /* \"#utility.yul\":4599:4611   */\n      add\n        /* \"#utility.yul\":4592:4611   */\n      swap1\n      pop\n        /* \"#utility.yul\":4251:4617   */\n      swap2\n      swap1\n      pop\n      jump\t// out\n        /* \"#utility.yul\":4623:4989   */\n    tag_179:\n        /* \"#utility.yul\":4765:4768   */\n      0x00\n        /* \"#utility.yul\":4786:4853   */\n      tag_181\n        /* \"#utility.yul\":4850:4852   */\n      0x23\n        /* \"#utility.yul\":4845:4848   */\n      dup4\n        /* \"#utility.yul\":4786:4853   */\n      tag_166\n      jump\t// in\n    tag_181:\n        /* \"#utility.yul\":4779:4853   */\n      swap2\n      pop\n        /* \"#utility.yul\":4862:4955   */\n      tag_182\n        /* \"#utility.yul\":4951:4954   */\n      dup3\n        /* \"#utility.yul\":4862:4955   */\n      tag_183\n      jump\t// in\n    tag_182:\n        /* \"#utility.yul\":4980:4982   */\n      0x40\n        /* \"#utility.yul\":4975:4978   */\n      dup3\n        /* \"#utility.yul\":4971:4983   */\n      add\n        /* \"#utility.yul\":4964:4983   */\n      swap1\n      pop\n        /* \"#utility.yul\":4623:4989   */\n      swap2\n      swap1\n      pop\n      jump\t// out\n        /* \"#utility.yul\":4995:5361   */\n    tag_184:\n        /* \"#utility.yul\":5137:5140   */\n      0x00\n        /* \"#utility.yul\":5158:5225   */\n      tag_186\n        /* \"#utility.yul\":5222:5224   */\n      0x17\n        /* \"#utility.yul\":5217:5220   */\n      dup4\n        /* \"#utility.yul\":5158:5225   */\n      tag_166\n      jump\t// in\n    tag_186:\n        /* \"#utility.yul\":5151:5225   */\n      swap2\n      pop\n        /* \"#utility.yul\":5234:5327   */\n      tag_187\n        /* \"#utility.yul\":5323:5326   */\n      dup3\n        /* \"#utility.yul\":5234:5327   */\n      tag_188\n      jump\t// in\n    tag_187:\n        /* \"#utility.yul\":5352:5354   */\n      0x20\n        /* \"#utility.yul\":5347:5350   */\n      dup3\n        /* \"#utility.yul\":5343:5355   */\n      add\n        /* \"#utility.yul\":5336:5355   */\n      swap1\n      pop\n        /* \"#utility.yul\":4995:5361   */\n      swap2\n      swap1\n      pop\n      jump\t// out\n        /* \"#utility.yul\":5367:5485   */\n    tag_189:\n        /* \"#utility.yul\":5454:5478   */\n      tag_191\n        /* \"#utility.yul\":5472:5477   */\n      dup2\n        /* \"#utility.yul\":5454:5478   */\n      tag_192\n      jump\t// in\n    tag_191:\n        /* \"#utility.yul\":5449:5452   */\n      dup3\n        /* \"#utility.yul\":5442:5479   */\n      mstore\n        /* \"#utility.yul\":5367:5485   */\n      pop\n      pop\n      jump\t// out\n        /* \"#utility.yul\":5491:5648   */\n    tag_193:\n        /* \"#utility.yul\":5596:5641   */\n      tag_195\n        /* \"#utility.yul\":5616:5640   */\n      tag_196\n        /* \"#utility.yul\":5634:5639   */\n      dup3\n        /* \"#utility.yul\":5616:5640   */\n      tag_192\n      jump\t// in\n    tag_196:\n        /* \"#utility.yul\":5596:5641   */\n      tag_197\n      jump\t// in\n    tag_195:\n        /* \"#utility.yul\":5591:5594   */\n      dup3\n        /* \"#utility.yul\":5584:5642   */\n      mstore\n        /* \"#utility.yul\":5491:5648   */\n      pop\n      pop\n      jump\t// out\n        /* \"#utility.yul\":5654:6192   */\n    tag_73:\n        /* \"#utility.yul\":5822:5825   */\n      0x00\n        /* \"#utility.yul\":5837:5912   */\n      tag_199\n        /* \"#utility.yul\":5908:5911   */\n      dup3\n        /* \"#utility.yul\":5899:5905   */\n      dup7\n        /* \"#utility.yul\":5837:5912   */\n      tag_150\n      jump\t// in\n    tag_199:\n        /* \"#utility.yul\":5937:5939   */\n      0x14\n        /* \"#utility.yul\":5932:5935   */\n      dup3\n        /* \"#utility.yul\":5928:5940   */\n      add\n        /* \"#utility.yul\":5921:5940   */\n      swap2\n      pop\n        /* \"#utility.yul\":5950:6025   */\n      tag_200\n        /* \"#utility.yul\":6021:6024   */\n      dup3\n        /* \"#utility.yul\":6012:6018   */\n      dup6\n        /* \"#utility.yul\":5950:6025   */\n      tag_193\n      jump\t// in\n    tag_200:\n        /* \"#utility.yul\":6050:6052   */\n      0x20\n        /* \"#utility.yul\":6045:6048   */\n      dup3\n        /* \"#utility.yul\":6041:6053   */\n      add\n        /* \"#utility.yul\":6034:6053   */\n      swap2\n      pop\n        /* \"#utility.yul\":6063:6138   */\n      tag_201\n        /* \"#utility.yul\":6134:6137   */\n      dup3\n        /* \"#utility.yul\":6125:6131   */\n      dup5\n        /* \"#utility.yul\":6063:6138   */\n      tag_193\n      jump\t// in\n    tag_201:\n        /* \"#utility.yul\":6163:6165   */\n      0x20\n        /* \"#utility.yul\":6158:6161   */\n      dup3\n        /* \"#utility.yul\":6154:6166   */\n      add\n        /* \"#utility.yul\":6147:6166   */\n      swap2\n      pop\n        /* \"#utility.yul\":6183:6186   */\n      dup2\n        /* \"#utility.yul\":6176:6186   */\n      swap1\n      pop\n        /* \"#utility.yul\":5654:6192   */\n      swap5\n      swap4\n      pop\n      pop\n      pop\n      pop\n      jump\t// out\n        /* \"#utility.yul\":6198:6640   */\n    tag_88:\n        /* \"#utility.yul\":6347:6351   */\n      0x00\n        /* \"#utility.yul\":6385:6387   */\n      0x60\n        /* \"#utility.yul\":6374:6383   */\n      dup3\n        /* \"#utility.yul\":6370:6388   */\n      add\n        /* \"#utility.yul\":6362:6388   */\n      swap1\n      pop\n        /* \"#utility.yul\":6398:6469   */\n      tag_203\n        /* \"#utility.yul\":6466:6467   */\n      0x00\n        /* \"#utility.yul\":6455:6464   */\n      dup4\n        /* \"#utility.yul\":6451:6468   */\n      add\n        /* \"#utility.yul\":6442:6448   */\n      dup7\n        /* \"#utility.yul\":6398:6469   */\n      tag_146\n      jump\t// in\n    tag_203:\n        /* \"#utility.yul\":6479:6551   */\n      tag_204\n        /* \"#utility.yul\":6547:6549   */\n      0x20\n        /* \"#utility.yul\":6536:6545   */\n      dup4\n        /* \"#utility.yul\":6532:6550   */\n      add\n        /* \"#utility.yul\":6523:6529   */\n      dup6\n        /* \"#utility.yul\":6479:6551   */\n      tag_146\n      jump\t// in\n    tag_204:\n        /* \"#utility.yul\":6561:6633   */\n      tag_205\n        /* \"#utility.yul\":6629:6631   */\n      0x40\n        /* \"#utility.yul\":6618:6627   */\n      dup4\n        /* \"#utility.yul\":6614:6632   */\n      add\n        /* \"#utility.yul\":6605:6611   */\n      dup5\n        /* \"#utility.yul\":6561:6633   */\n      tag_189\n      jump\t// in\n    tag_205:\n        /* \"#utility.yul\":6198:6640   */\n      swap5\n      swap4\n      pop\n      pop\n      pop\n      pop\n      jump\t// out\n        /* \"#utility.yul\":6646:6978   */\n    tag_69:\n        /* \"#utility.yul\":6767:6771   */\n      0x00\n        /* \"#utility.yul\":6805:6807   */\n      0x40\n        /* \"#utility.yul\":6794:6803   */\n      dup3\n        /* \"#utility.yul\":6790:6808   */\n      add\n        /* \"#utility.yul\":6782:6808   */\n      swap1\n      pop\n        /* \"#utility.yul\":6818:6889   */\n      tag_207\n        /* \"#utility.yul\":6886:6887   */\n      0x00\n        /* \"#utility.yul\":6875:6884   */\n      dup4\n        /* \"#utility.yul\":6871:6888   */\n      add\n        /* \"#utility.yul\":6862:6868   */\n      dup6\n        /* \"#utility.yul\":6818:6889   */\n      tag_146\n      jump\t// in\n    tag_207:\n        /* \"#utility.yul\":6899:6971   */\n      tag_208\n        /* \"#utility.yul\":6967:6969   */\n      0x20\n        /* \"#utility.yul\":6956:6965   */\n      dup4\n        /* \"#utility.yul\":6952:6970   */\n      add\n        /* \"#utility.yul\":6943:6949   */\n      dup5\n        /* \"#utility.yul\":6899:6971   */\n      tag_189\n      jump\t// in\n    tag_208:\n        /* \"#utility.yul\":6646:6978   */\n      swap4\n      swap3\n      pop\n      pop\n      pop\n      jump\t// out\n        /* \"#utility.yul\":6984:7206   */\n    tag_40:\n        /* \"#utility.yul\":7077:7081   */\n      0x00\n        /* \"#utility.yul\":7115:7117   */\n      0x20\n        /* \"#utility.yul\":7104:7113   */\n      dup3\n        /* \"#utility.yul\":7100:7118   */\n      add\n        /* \"#utility.yul\":7092:7118   */\n      swap1\n      pop\n        /* \"#utility.yul\":7128:7199   */\n      tag_210\n        /* \"#utility.yul\":7196:7197   */\n      0x00\n        /* \"#utility.yul\":7185:7194   */\n      dup4\n        /* \"#utility.yul\":7181:7198   */\n      add\n        /* \"#utility.yul\":7172:7178   */\n      dup5\n        /* \"#utility.yul\":7128:7199   */\n      tag_155\n      jump\t// in\n    tag_210:\n        /* \"#utility.yul\":6984:7206   */\n      swap3\n      swap2\n      pop\n      pop\n      jump\t// out\n        /* \"#utility.yul\":7212:7460   */\n    tag_56:\n        /* \"#utility.yul\":7318:7322   */\n      0x00\n        /* \"#utility.yul\":7356:7358   */\n      0x20\n        /* \"#utility.yul\":7345:7354   */\n      dup3\n        /* \"#utility.yul\":7341:7359   */\n      add\n        /* \"#utility.yul\":7333:7359   */\n      swap1\n      pop\n        /* \"#utility.yul\":7369:7453   */\n      tag_212\n        /* \"#utility.yul\":7450:7451   */\n      0x00\n        /* \"#utility.yul\":7439:7448   */\n      dup4\n        /* \"#utility.yul\":7435:7452   */\n      add\n        /* \"#utility.yul\":7426:7432   */\n      dup5\n        /* \"#utility.yul\":7369:7453   */\n      tag_159\n      jump\t// in\n    tag_212:\n        /* \"#utility.yul\":7212:7460   */\n      swap3\n      swap2\n      pop\n      pop\n      jump\t// out\n        /* \"#utility.yul\":7466:7885   */\n    tag_80:\n        /* \"#utility.yul\":7632:7636   */\n      0x00\n        /* \"#utility.yul\":7670:7672   */\n      0x20\n        /* \"#utility.yul\":7659:7668   */\n      dup3\n        /* \"#utility.yul\":7655:7673   */\n      add\n        /* \"#utility.yul\":7647:7673   */\n      swap1\n      pop\n        /* \"#utility.yul\":7719:7728   */\n      dup2\n        /* \"#utility.yul\":7713:7717   */\n      dup2\n        /* \"#utility.yul\":7709:7729   */\n      sub\n        /* \"#utility.yul\":7705:7706   */\n      0x00\n        /* \"#utility.yul\":7694:7703   */\n      dup4\n        /* \"#utility.yul\":7690:7707   */\n      add\n        /* \"#utility.yul\":7683:7730   */\n      mstore\n        /* \"#utility.yul\":7747:7878   */\n      tag_214\n        /* \"#utility.yul\":7873:7877   */\n      dup2\n        /* \"#utility.yul\":7747:7878   */\n      tag_163\n      jump\t// in\n    tag_214:\n        /* \"#utility.yul\":7739:7878   */\n      swap1\n      pop\n        /* \"#utility.yul\":7466:7885   */\n      swap2\n      swap1\n      pop\n      jump\t// out\n        /* \"#utility.yul\":7891:8310   */\n    tag_63:\n        /* \"#utility.yul\":8057:8061   */\n      0x00\n        /* \"#utility.yul\":8095:8097   */\n      0x20\n        /* \"#utility.yul\":8084:8093   */\n      dup3\n        /* \"#utility.yul\":8080:8098   */\n      add\n        /* \"#utility.yul\":8072:8098   */\n      swap1\n      pop\n        /* \"#utility.yul\":8144:8153   */\n      dup2\n        /* \"#utility.yul\":8138:8142   */\n      dup2\n        /* \"#utility.yul\":8134:8154   */\n      sub\n        /* \"#utility.yul\":8130:8131   */\n      0x00\n        /* \"#utility.yul\":8119:8128   */\n      dup4\n        /* \"#utility.yul\":8115:8132   */\n      add\n        /* \"#utility.yul\":8108:8155   */\n      mstore\n        /* \"#utility.yul\":8172:8303   */\n      tag_216\n        /* \"#utility.yul\":8298:8302   */\n      dup2\n        /* \"#utility.yul\":8172:8303   */\n      tag_169\n      jump\t// in\n    tag_216:\n        /* \"#utility.yul\":8164:8303   */\n      swap1\n      pop\n        /* \"#utility.yul\":7891:8310   */\n      swap2\n      swap1\n      pop\n      jump\t// out\n        /* \"#utility.yul\":8316:8735   */\n    tag_96:\n        /* \"#utility.yul\":8482:8486   */\n      0x00\n        /* \"#utility.yul\":8520:8522   */\n      0x20\n        /* \"#utility.yul\":8509:8518   */\n      dup3\n        /* \"#utility.yul\":8505:8523   */\n      add\n        /* \"#utility.yul\":8497:8523   */\n      swap1\n      pop\n        /* \"#utility.yul\":8569:8578   */\n      dup2\n        /* \"#utility.yul\":8563:8567   */\n      dup2\n        /* \"#utility.yul\":8559:8579   */\n      sub\n        /* \"#utility.yul\":8555:8556   */\n      0x00\n        /* \"#utility.yul\":8544:8553   */\n      dup4\n        /* \"#utility.yul\":8540:8557   */\n      add\n        /* \"#utility.yul\":8533:8580   */\n      mstore\n        /* \"#utility.yul\":8597:8728   */\n      tag_218\n        /* \"#utility.yul\":8723:8727   */\n      dup2\n        /* \"#utility.yul\":8597:8728   */\n      tag_174\n      jump\t// in\n    tag_218:\n        /* \"#utility.yul\":8589:8728   */\n      swap1\n      pop\n        /* \"#utility.yul\":8316:8735   */\n      swap2\n      swap1\n      pop\n      jump\t// out\n        /* \"#utility.yul\":8741:9160   */\n    tag_83:\n        /* \"#utility.yul\":8907:8911   */\n      0x00\n        /* \"#utility.yul\":8945:8947   */\n      0x20\n        /* \"#utility.yul\":8934:8943   */\n      dup3\n        /* \"#utility.yul\":8930:8948   */\n      add\n        /* \"#utility.yul\":8922:8948   */\n      swap1\n      pop\n        /* \"#utility.yul\":8994:9003   */\n      dup2\n        /* \"#utility.yul\":8988:8992   */\n      dup2\n        /* \"#utility.yul\":8984:9004   */\n      sub\n        /* \"#utility.yul\":8980:8981   */\n      0x00\n        /* \"#utility.yul\":8969:8978   */\n      dup4\n        /* \"#utility.yul\":8965:8982   */\n      add\n        /* \"#utility.yul\":8958:9005   */\n      mstore\n        /* \"#utility.yul\":9022:9153   */\n      tag_220\n        /* \"#utility.yul\":9148:9152   */\n      dup2\n        /* \"#utility.yul\":9022:9153   */\n      tag_179\n      jump\t// in\n    tag_220:\n        /* \"#utility.yul\":9014:9153   */\n      swap1\n      pop\n        /* \"#utility.yul\":8741:9160   */\n      swap2\n      swap1\n      pop\n      jump\t// out\n        /* \"#utility.yul\":9166:9585   */\n    tag_86:\n        /* \"#utility.yul\":9332:9336   */\n      0x00\n        /* \"#utility.yul\":9370:9372   */\n      0x20\n        /* \"#utility.yul\":9359:9368   */\n      dup3\n        /* \"#utility.yul\":9355:9373   */\n      add\n        /* \"#utility.yul\":9347:9373   */\n      swap1\n      pop\n        /* \"#utility.yul\":9419:9428   */\n      dup2\n        /* \"#utility.yul\":9413:9417   */\n      dup2\n        /* \"#utility.yul\":9409:9429   */\n      sub\n        /* \"#utility.yul\":9405:9406   */\n      0x00\n        /* \"#utility.yul\":9394:9403   */\n      dup4\n        /* \"#utility.yul\":9390:9407   */\n      add\n        /* \"#utility.yul\":9383:9430   */\n      mstore\n        /* \"#utility.yul\":9447:9578   */\n      tag_222\n        /* \"#utility.yul\":9573:9577   */\n      dup2\n        /* \"#utility.yul\":9447:9578   */\n      tag_184\n      jump\t// in\n    tag_222:\n        /* \"#utility.yul\":9439:9578   */\n      swap1\n      pop\n        /* \"#utility.yul\":9166:9585   */\n      swap2\n      swap1\n      pop\n      jump\t// out\n        /* \"#utility.yul\":9591:9813   */\n    tag_26:\n        /* \"#utility.yul\":9684:9688   */\n      0x00\n        /* \"#utility.yul\":9722:9724   */\n      0x20\n        /* \"#utility.yul\":9711:9720   */\n      dup3\n        /* \"#utility.yul\":9707:9725   */\n      add\n        /* \"#utility.yul\":9699:9725   */\n      swap1\n      pop\n        /* \"#utility.yul\":9735:9806   */\n      tag_224\n        /* \"#utility.yul\":9803:9804   */\n      0x00\n        /* \"#utility.yul\":9792:9801   */\n      dup4\n        /* \"#utility.yul\":9788:9805   */\n      add\n        /* \"#utility.yul\":9779:9785   */\n      dup5\n        /* \"#utility.yul\":9735:9806   */\n      tag_189\n      jump\t// in\n    tag_224:\n        /* \"#utility.yul\":9591:9813   */\n      swap3\n      swap2\n      pop\n      pop\n      jump\t// out\n        /* \"#utility.yul\":9900:10069   */\n    tag_166:\n        /* \"#utility.yul\":9984:9995   */\n      0x00\n        /* \"#utility.yul\":10018:10024   */\n      dup3\n        /* \"#utility.yul\":10013:10016   */\n      dup3\n        /* \"#utility.yul\":10006:10025   */\n      mstore\n        /* \"#utility.yul\":10058:10062   */\n      0x20\n        /* \"#utility.yul\":10053:10056   */\n      dup3\n        /* \"#utility.yul\":10049:10063   */\n      add\n        /* \"#utility.yul\":10034:10063   */\n      swap1\n      pop\n        /* \"#utility.yul\":9900:10069   */\n      swap3\n      swap2\n      pop\n      pop\n      jump\t// out\n        /* \"#utility.yul\":10075:10380   */\n    tag_15:\n        /* \"#utility.yul\":10115:10118   */\n      0x00\n        /* \"#utility.yul\":10134:10154   */\n      tag_229\n        /* \"#utility.yul\":10152:10153   */\n      dup3\n        /* \"#utility.yul\":10134:10154   */\n      tag_192\n      jump\t// in\n    tag_229:\n        /* \"#utility.yul\":10129:10154   */\n      swap2\n      pop\n        /* \"#utility.yul\":10168:10188   */\n      tag_230\n        /* \"#utility.yul\":10186:10187   */\n      dup4\n        /* \"#utility.yul\":10168:10188   */\n      tag_192\n      jump\t// in\n    tag_230:\n        /* \"#utility.yul\":10163:10188   */\n      swap3\n      pop\n        /* \"#utility.yul\":10322:10323   */\n      dup3\n        /* \"#utility.yul\":10254:10320   */\n      0xffffffffffffffffffffffffffffffffffffffffffffffffffffffffffffffff\n        /* \"#utility.yul\":10250:10324   */\n      sub\n        /* \"#utility.yul\":10247:10248   */\n      dup3\n        /* \"#utility.yul\":10244:10325   */\n      gt\n        /* \"#utility.yul\":10241:10348   */\n      iszero\n      tag_231\n      jumpi\n        /* \"#utility.yul\":10328:10346   */\n      tag_232\n      tag_233\n      jump\t// in\n    tag_232:\n        /* \"#utility.yul\":10241:10348   */\n    tag_231:\n        /* \"#utility.yul\":10372:10373   */\n      dup3\n        /* \"#utility.yul\":10369:10370   */\n      dup3\n        /* \"#utility.yul\":10365:10374   */\n      add\n        /* \"#utility.yul\":10358:10374   */\n      swap1\n      pop\n        /* \"#utility.yul\":10075:10380   */\n      swap3\n      swap2\n      pop\n      pop\n      jump\t// out\n        /* \"#utility.yul\":10386:10482   */\n    tag_149:\n        /* \"#utility.yul\":10423:10430   */\n      0x00\n        /* \"#utility.yul\":10452:10476   */\n      tag_235\n        /* \"#utility.yul\":10470:10475   */\n      dup3\n        /* \"#utility.yul\":10452:10476   */\n      tag_236\n      jump\t// in\n    tag_235:\n        /* \"#utility.yul\":10441:10476   */\n      swap1\n      pop\n        /* \"#utility.yul\":10386:10482   */\n      swap2\n      swap1\n      pop\n      jump\t// out\n        /* \"#utility.yul\":10488:10592   */\n    tag_237:\n        /* \"#utility.yul\":10533:10540   */\n      0x00\n        /* \"#utility.yul\":10562:10586   */\n      tag_239\n        /* \"#utility.yul\":10580:10585   */\n      dup3\n        /* \"#utility.yul\":10562:10586   */\n      tag_236\n      jump\t// in\n    tag_239:\n        /* \"#utility.yul\":10551:10586   */\n      swap1\n      pop\n        /* \"#utility.yul\":10488:10592   */\n      swap2\n      swap1\n      pop\n      jump\t// out\n        /* \"#utility.yul\":10598:10688   */\n    tag_240:\n        /* \"#utility.yul\":10632:10639   */\n      0x00\n        /* \"#utility.yul\":10675:10680   */\n      dup2\n        /* \"#utility.yul\":10668:10681   */\n      iszero\n        /* \"#utility.yul\":10661:10682   */\n      iszero\n        /* \"#utility.yul\":10650:10682   */\n      swap1\n      pop\n        /* \"#utility.yul\":10598:10688   */\n      swap2\n      swap1\n      pop\n      jump\t// out\n        /* \"#utility.yul\":10694:10771   */\n    tag_158:\n        /* \"#utility.yul\":10731:10738   */\n      0x00\n        /* \"#utility.yul\":10760:10765   */\n      dup2\n        /* \"#utility.yul\":10749:10765   */\n      swap1\n      pop\n        /* \"#utility.yul\":10694:10771   */\n      swap2\n      swap1\n      pop\n      jump\t// out\n        /* \"#utility.yul\":10777:10903   */\n    tag_236:\n        /* \"#utility.yul\":10814:10821   */\n      0x00\n        /* \"#utility.yul\":10854:10896   */\n      0xffffffffffffffffffffffffffffffffffffffff\n        /* \"#utility.yul\":10847:10852   */\n      dup3\n        /* \"#utility.yul\":10843:10897   */\n      and\n        /* \"#utility.yul\":10832:10897   */\n      swap1\n      pop\n        /* \"#utility.yul\":10777:10903   */\n      swap2\n      swap1\n      pop\n      jump\t// out\n        /* \"#utility.yul\":10909:10986   */\n    tag_192:\n        /* \"#utility.yul\":10946:10953   */\n      0x00\n        /* \"#utility.yul\":10975:10980   */\n      dup2\n        /* \"#utility.yul\":10964:10980   */\n      swap1\n      pop\n        /* \"#utility.yul\":10909:10986   */\n      swap2\n      swap1\n      pop\n      jump\t// out\n        /* \"#utility.yul\":10992:11131   */\n    tag_162:\n        /* \"#utility.yul\":11055:11064   */\n      0x00\n        /* \"#utility.yul\":11088:11125   */\n      tag_246\n        /* \"#utility.yul\":11119:11124   */\n      dup3\n        /* \"#utility.yul\":11088:11125   */\n      tag_247\n      jump\t// in\n    tag_246:\n        /* \"#utility.yul\":11075:11125   */\n      swap1\n      pop\n        /* \"#utility.yul\":10992:11131   */\n      swap2\n      swap1\n      pop\n      jump\t// out\n        /* \"#utility.yul\":11137:11263   */\n    tag_247:\n        /* \"#utility.yul\":11187:11196   */\n      0x00\n        /* \"#utility.yul\":11220:11257   */\n      tag_249\n        /* \"#utility.yul\":11251:11256   */\n      dup3\n        /* \"#utility.yul\":11220:11257   */\n      tag_250\n      jump\t// in\n    tag_249:\n        /* \"#utility.yul\":11207:11257   */\n      swap1\n      pop\n        /* \"#utility.yul\":11137:11263   */\n      swap2\n      swap1\n      pop\n      jump\t// out\n        /* \"#utility.yul\":11269:11382   */\n    tag_250:\n        /* \"#utility.yul\":11319:11328   */\n      0x00\n        /* \"#utility.yul\":11352:11376   */\n      tag_252\n        /* \"#utility.yul\":11370:11375   */\n      dup3\n        /* \"#utility.yul\":11352:11376   */\n      tag_236\n      jump\t// in\n    tag_252:\n        /* \"#utility.yul\":11339:11376   */\n      swap1\n      pop\n        /* \"#utility.yul\":11269:11382   */\n      swap2\n      swap1\n      pop\n      jump\t// out\n        /* \"#utility.yul\":11388:11621   */\n    tag_98:\n        /* \"#utility.yul\":11427:11430   */\n      0x00\n        /* \"#utility.yul\":11450:11474   */\n      tag_254\n        /* \"#utility.yul\":11468:11473   */\n      dup3\n        /* \"#utility.yul\":11450:11474   */\n      tag_192\n      jump\t// in\n    tag_254:\n        /* \"#utility.yul\":11441:11474   */\n      swap2\n      pop\n        /* \"#utility.yul\":11496:11562   */\n      0xffffffffffffffffffffffffffffffffffffffffffffffffffffffffffffffff\n        /* \"#utility.yul\":11489:11494   */\n      dup3\n        /* \"#utility.yul\":11486:11563   */\n      eq\n        /* \"#utility.yul\":11483:11586   */\n      iszero\n      tag_255\n      jumpi\n        /* \"#utility.yul\":11566:11584   */\n      tag_256\n      tag_233\n      jump\t// in\n    tag_256:\n        /* \"#utility.yul\":11483:11586   */\n    tag_255:\n        /* \"#utility.yul\":11613:11614   */\n      0x01\n        /* \"#utility.yul\":11606:11611   */\n      dup3\n        /* \"#utility.yul\":11602:11615   */\n      add\n        /* \"#utility.yul\":11595:11615   */\n      swap1\n      pop\n        /* \"#utility.yul\":11388:11621   */\n      swap2\n      swap1\n      pop\n      jump\t// out\n        /* \"#utility.yul\":11627:11727   */\n    tag_154:\n        /* \"#utility.yul\":11666:11673   */\n      0x00\n        /* \"#utility.yul\":11695:11721   */\n      tag_258\n        /* \"#utility.yul\":11715:11720   */\n      dup3\n        /* \"#utility.yul\":11695:11721   */\n      tag_259\n      jump\t// in\n    tag_258:\n        /* \"#utility.yul\":11684:11721   */\n      swap1\n      pop\n        /* \"#utility.yul\":11627:11727   */\n      swap2\n      swap1\n      pop\n      jump\t// out\n        /* \"#utility.yul\":11733:11827   */\n    tag_259:\n        /* \"#utility.yul\":11772:11779   */\n      0x00\n        /* \"#utility.yul\":11801:11821   */\n      tag_261\n        /* \"#utility.yul\":11815:11820   */\n      dup3\n        /* \"#utility.yul\":11801:11821   */\n      tag_262\n      jump\t// in\n    tag_261:\n        /* \"#utility.yul\":11790:11821   */\n      swap1\n      pop\n        /* \"#utility.yul\":11733:11827   */\n      swap2\n      swap1\n      pop\n      jump\t// out\n        /* \"#utility.yul\":11833:11912   */\n    tag_197:\n        /* \"#utility.yul\":11872:11879   */\n      0x00\n        /* \"#utility.yul\":11901:11906   */\n      dup2\n        /* \"#utility.yul\":11890:11906   */\n      swap1\n      pop\n        /* \"#utility.yul\":11833:11912   */\n      swap2\n      swap1\n      pop\n      jump\t// out\n        /* \"#utility.yul\":11918:12098   */\n    tag_233:\n        /* \"#utility.yul\":11966:12043   */\n      0x4e487b7100000000000000000000000000000000000000000000000000000000\n        /* \"#utility.yul\":11963:11964   */\n      0x00\n        /* \"#utility.yul\":11956:12044   */\n      mstore\n        /* \"#utility.yul\":12063:12067   */\n      0x11\n        /* \"#utility.yul\":12060:12061   */\n      0x04\n        /* \"#utility.yul\":12053:12068   */\n      mstore\n        /* \"#utility.yul\":12087:12091   */\n      0x24\n        /* \"#utility.yul\":12084:12085   */\n      0x00\n        /* \"#utility.yul\":12077:12092   */\n      revert\n        /* \"#utility.yul\":12104:12284   */\n    tag_77:\n        /* \"#utility.yul\":12152:12229   */\n      0x4e487b7100000000000000000000000000000000000000000000000000000000\n        /* \"#utility.yul\":12149:12150   */\n      0x00\n        /* \"#utility.yul\":12142:12230   */\n      mstore\n        /* \"#utility.yul\":12249:12253   */\n      0x32\n        /* \"#utility.yul\":12246:12247   */\n      0x04\n        /* \"#utility.yul\":12239:12254   */\n      mstore\n        /* \"#utility.yul\":12273:12277   */\n      0x24\n        /* \"#utility.yul\":12270:12271   */\n      0x00\n        /* \"#utility.yul\":12263:12278   */\n      revert\n        /* \"#utility.yul\":12413:12530   */\n    tag_123:\n        /* \"#utility.yul\":12522:12523   */\n      0x00\n        /* \"#utility.yul\":12519:12520   */\n      dup1\n        /* \"#utility.yul\":12512:12524   */\n      revert\n        /* \"#utility.yul\":12536:12630   */\n    tag_262:\n        /* \"#utility.yul\":12569:12577   */\n      0x00\n        /* \"#utility.yul\":12617:12622   */\n      dup2\n        /* \"#utility.yul\":12613:12615   */\n      0x60\n        /* \"#utility.yul\":12609:12623   */\n      shl\n        /* \"#utility.yul\":12588:12623   */\n      swap1\n      pop\n        /* \"#utility.yul\":12536:12630   */\n      swap2\n      swap1\n      pop\n      jump\t// out\n        /* \"#utility.yul\":12636:12856   */\n    tag_168:\n        /* \"#utility.yul\":12776:12810   */\n      0x5472616e73616374696f6e20686173682063616e6e6f7420626520656d707479\n        /* \"#utility.yul\":12772:12773   */\n      0x00\n        /* \"#utility.yul\":12764:12770   */\n      dup3\n        /* \"#utility.yul\":12760:12774   */\n      add\n        /* \"#utility.yul\":12753:12811   */\n      mstore\n        /* \"#utility.yul\":12845:12848   */\n      0x2100000000000000000000000000000000000000000000000000000000000000\n        /* \"#utility.yul\":12840:12842   */\n      0x20\n        /* \"#utility.yul\":12832:12838   */\n      dup3\n        /* \"#utility.yul\":12828:12843   */\n      add\n        /* \"#utility.yul\":12821:12849   */\n      mstore\n        /* \"#utility.yul\":12636:12856   */\n      pop\n      jump\t// out\n        /* \"#utility.yul\":12862:13086   */\n    tag_173:\n        /* \"#utility.yul\":13002:13036   */\n      0x596f752063616e206e6f742073656e64206d6f7265207468616e203130302065\n        /* \"#utility.yul\":12998:12999   */\n      0x00\n        /* \"#utility.yul\":12990:12996   */\n      dup3\n        /* \"#utility.yul\":12986:13000   */\n      add\n        /* \"#utility.yul\":12979:13037   */\n      mstore\n        /* \"#utility.yul\":13071:13078   */\n      0x7468657273000000000000000000000000000000000000000000000000000000\n        /* \"#utility.yul\":13066:13068   */\n      0x20\n        /* \"#utility.yul\":13058:13064   */\n      dup3\n        /* \"#utility.yul\":13054:13069   */\n      add\n        /* \"#utility.yul\":13047:13079   */\n      mstore\n        /* \"#utility.yul\":12862:13086   */\n      pop\n      jump\t// out\n        /* \"#utility.yul\":13092:13268   */\n    tag_178:\n        /* \"#utility.yul\":13232:13260   */\n      0x5472616e7366657220746f20657363726f77206661696c656421000000000000\n        /* \"#utility.yul\":13228:13229   */\n      0x00\n        /* \"#utility.yul\":13220:13226   */\n      dup3\n        /* \"#utility.yul\":13216:13230   */\n      add\n        /* \"#utility.yul\":13209:13261   */\n      mstore\n        /* \"#utility.yul\":13092:13268   */\n      pop\n      jump\t// out\n        /* \"#utility.yul\":13274:13496   */\n    tag_183:\n        /* \"#utility.yul\":13414:13448   */\n      0x457363726f7720616d6f756e742063616e6e6f7420626520657175616c20746f\n        /* \"#utility.yul\":13410:13411   */\n      0x00\n        /* \"#utility.yul\":13402:13408   */\n      dup3\n        /* \"#utility.yul\":13398:13412   */\n      add\n        /* \"#utility.yul\":13391:13449   */\n      mstore\n        /* \"#utility.yul\":13483:13488   */\n      0x2030210000000000000000000000000000000000000000000000000000000000\n        /* \"#utility.yul\":13478:13480   */\n      0x20\n        /* \"#utility.yul\":13470:13476   */\n      dup3\n        /* \"#utility.yul\":13466:13481   */\n      add\n        /* \"#utility.yul\":13459:13489   */\n      mstore\n        /* \"#utility.yul\":13274:13496   */\n      pop\n      jump\t// out\n        /* \"#utility.yul\":13502:13675   */\n    tag_188:\n        /* \"#utility.yul\":13642:13667   */\n      0x4861736820697320616c726561647920696e2075736521000000000000000000\n        /* \"#utility.yul\":13638:13639   */\n      0x00\n        /* \"#utility.yul\":13630:13636   */\n      dup3\n        /* \"#utility.yul\":13626:13640   */\n      add\n        /* \"#utility.yul\":13619:13668   */\n      mstore\n        /* \"#utility.yul\":13502:13675   */\n      pop\n      jump\t// out\n        /* \"#utility.yul\":13681:13803   */\n    tag_103:\n        /* \"#utility.yul\":13754:13778   */\n      tag_276\n        /* \"#utility.yul\":13772:13777   */\n      dup2\n        /* \"#utility.yul\":13754:13778   */\n      tag_149\n      jump\t// in\n    tag_276:\n        /* \"#utility.yul\":13747:13752   */\n      dup2\n        /* \"#utility.yul\":13744:13779   */\n      eq\n        /* \"#utility.yul\":13734:13797   */\n      tag_277\n      jumpi\n        /* \"#utility.yul\":13793:13794   */\n      0x00\n        /* \"#utility.yul\":13790:13791   */\n      dup1\n        /* \"#utility.yul\":13783:13795   */\n      revert\n        /* \"#utility.yul\":13734:13797   */\n    tag_277:\n        /* \"#utility.yul\":13681:13803   */\n      pop\n      jump\t// out\n        /* \"#utility.yul\":13809:13947   */\n    tag_107:\n        /* \"#utility.yul\":13890:13922   */\n      tag_279\n        /* \"#utility.yul\":13916:13921   */\n      dup2\n        /* \"#utility.yul\":13890:13922   */\n      tag_237\n      jump\t// in\n    tag_279:\n        /* \"#utility.yul\":13883:13888   */\n      dup2\n        /* \"#utility.yul\":13880:13923   */\n      eq\n        /* \"#utility.yul\":13870:13941   */\n      tag_280\n      jumpi\n        /* \"#utility.yul\":13937:13938   */\n      0x00\n        /* \"#utility.yul\":13934:13935   */\n      dup1\n        /* \"#utility.yul\":13927:13939   */\n      revert\n        /* \"#utility.yul\":13870:13941   */\n    tag_280:\n        /* \"#utility.yul\":13809:13947   */\n      pop\n      jump\t// out\n        /* \"#utility.yul\":13953:14069   */\n    tag_111:\n        /* \"#utility.yul\":14023:14044   */\n      tag_282\n        /* \"#utility.yul\":14038:14043   */\n      dup2\n        /* \"#utility.yul\":14023:14044   */\n      tag_240\n      jump\t// in\n    tag_282:\n        /* \"#utility.yul\":14016:14021   */\n      dup2\n        /* \"#utility.yul\":14013:14045   */\n      eq\n        /* \"#utility.yul\":14003:14063   */\n      tag_283\n      jumpi\n        /* \"#utility.yul\":14059:14060   */\n      0x00\n        /* \"#utility.yul\":14056:14057   */\n      dup1\n        /* \"#utility.yul\":14049:14061   */\n      revert\n        /* \"#utility.yul\":14003:14063   */\n    tag_283:\n        /* \"#utility.yul\":13953:14069   */\n      pop\n      jump\t// out\n        /* \"#utility.yul\":14075:14197   */\n    tag_115:\n        /* \"#utility.yul\":14148:14172   */\n      tag_285\n        /* \"#utility.yul\":14166:14171   */\n      dup2\n        /* \"#utility.yul\":14148:14172   */\n      tag_158\n      jump\t// in\n    tag_285:\n        /* \"#utility.yul\":14141:14146   */\n      dup2\n        /* \"#utility.yul\":14138:14173   */\n      eq\n        /* \"#utility.yul\":14128:14191   */\n      tag_286\n      jumpi\n        /* \"#utility.yul\":14187:14188   */\n      0x00\n        /* \"#utility.yul\":14184:14185   */\n      dup1\n        /* \"#utility.yul\":14177:14189   */\n      revert\n        /* \"#utility.yul\":14128:14191   */\n    tag_286:\n        /* \"#utility.yul\":14075:14197   */\n      pop\n      jump\t// out\n        /* \"#utility.yul\":14203:14325   */\n    tag_119:\n        /* \"#utility.yul\":14276:14300   */\n      tag_288\n        /* \"#utility.yul\":14294:14299   */\n      dup2\n        /* \"#utility.yul\":14276:14300   */\n      tag_192\n      jump\t// in\n    tag_288:\n        /* \"#utility.yul\":14269:14274   */\n      dup2\n        /* \"#utility.yul\":14266:14301   */\n      eq\n        /* \"#utility.yul\":14256:14319   */\n      tag_289\n      jumpi\n        /* \"#utility.yul\":14315:14316   */\n      0x00\n        /* \"#utility.yul\":14312:14313   */\n      dup1\n        /* \"#utility.yul\":14305:14317   */\n      revert\n        /* \"#utility.yul\":14256:14319   */\n    tag_289:\n        /* \"#utility.yul\":14203:14325   */\n      pop\n      jump\t// out\n\n    auxdata: 0xa2646970667358221220058c5a3aad1d9e91c90563e0f80c49264c48413df1829ce37cbc49388d4182b664736f6c63430008070033\n}\n",
				"bytecode": {
					"linkReferences": {},
					"object": "608060405234801561001057600080fd5b50604051620010383803806200103883398181016040528101906100349190610097565b6000600381905550806000806101000a81548173ffffffffffffffffffffffffffffffffffffffff021916908373ffffffffffffffffffffffffffffffffffffffff16021790555050610112565b600081519050610091816100fb565b92915050565b6000602082840312156100ad576100ac6100f6565b5b60006100bb84828501610082565b91505092915050565b60006100cf826100d6565b9050919050565b600073ffffffffffffffffffffffffffffffffffffffff82169050919050565b600080fd5b610104816100c4565b811461010f57600080fd5b50565b610f1680620001226000396000f3fe60806040526004361061007f5760003560e01c8063b8330d101161004e578063b8330d10146101a8578063ddeabdbe146101e5578063ecd0c0c31461020e578063f340fa0114610239576100dc565b806327e235e3146100e75780633ccfd60b146101245780635187658d1461012e5780635e53ee211461016b576100dc565b366100dc5734600160003373ffffffffffffffffffffffffffffffffffffffff1673ffffffffffffffffffffffffffffffffffffffff16815260200190815260200160002060008282546100d39190610b57565b92505081905550005b6100e533610255565b005b3480156100f357600080fd5b5061010e6004803603810190610109919061077e565b6102fa565b60405161011b9190610b2b565b60405180910390f35b61012c610312565b005b34801561013a57600080fd5b506101556004803603810190610150919061077e565b61041e565b6040516101629190610b2b565b60405180910390f35b34801561017757600080fd5b50610192600480360381019061018d9190610872565b610467565b60405161019f9190610a55565b60405180910390f35b3480156101b457600080fd5b506101cf60048036038101906101ca9190610805565b61049d565b6040516101dc9190610b2b565b60405180910390f35b3480156101f157600080fd5b5061020c60048036038101906102079190610832565b6104b5565b005b34801561021a57600080fd5b506102236106f1565b6040516102309190610a70565b60405180910390f35b610253600480360381019061024e91906107ab565b610255565b005b68056bc75e2d631000003411156102a1576040517f08c379a000000000000000000000000000000000000000000000000000000000815260040161029890610aab565b60405180910390fd5b34600160008373ffffffffffffffffffffffffffffffffffffffff1673ffffffffffffffffffffffffffffffffffffffff16815260200190815260200160002060008282546102f09190610b57565b9250508190555050565b60016020528060005260406000206000915090505481565b6000600160003373ffffffffffffffffffffffffffffffffffffffff1673ffffffffffffffffffffffffffffffffffffffff1681526020019081526020016000205490506000600160003373ffffffffffffffffffffffffffffffffffffffff1673ffffffffffffffffffffffffffffffffffffffff168152602001908152602001600020819055503373ffffffffffffffffffffffffffffffffffffffff166108fc829081150290604051600060405180830381858888f193505050501580156103e1573d6000803e3d6000fd5b507f884edad9ce6fa2440d8a54cc123490eb96d2768479d49ff9c7366125a94243643382604051610413929190610a2c565b60405180910390a150565b6000600160008373ffffffffffffffffffffffffffffffffffffffff1673ffffffffffffffffffffffffffffffffffffffff168152602001908152602001600020549050919050565b60003360035483604051602001610480939291906109b8565b604051602081830303815290604052805190602001209050919050565b60026020528060005260406000206000915090505481565b600060f81b826000602081106104ce576104cd610ced565b5b1a60f81b7effffffffffffffffffffffffffffffffffffffffffffffffffffffffffffff19161415610535576040517f08c379a000000000000000000000000000000000000000000000000000000000815260040161052c90610a8b565b60405180910390fd5b6000811415610579576040517f08c379a000000000000000000000000000000000000000000000000000000000815260040161057090610aeb565b60405180910390fd5b60006002600084815260200190815260200160002054146105cf576040517f08c379a00000000000000000000000000000000000000000000000000000000081526004016105c690610b0b565b60405180910390fd5b60008054906101000a900473ffffffffffffffffffffffffffffffffffffffff1673ffffffffffffffffffffffffffffffffffffffff166323b872dd3330846040518463ffffffff1660e01b815260040161062c939291906109f5565b602060405180830381600087803b15801561064657600080fd5b505af115801561065a573d6000803e3d6000fd5b505050506040513d601f19601f8201168201806040525081019061067e91906107d8565b6106bd576040517f08c379a00000000000000000000000000000000000000000000000000000000081526004016106b490610acb565b60405180910390fd5b806002600084815260200190815260200160002081905550600360008154809291906106e890610c47565b91905055505050565b60008054906101000a900473ffffffffffffffffffffffffffffffffffffffff1681565b60008135905061072481610e6d565b92915050565b60008135905061073981610e84565b92915050565b60008151905061074e81610e9b565b92915050565b60008135905061076381610eb2565b92915050565b60008135905061077881610ec9565b92915050565b60006020828403121561079457610793610d1c565b5b60006107a284828501610715565b91505092915050565b6000602082840312156107c1576107c0610d1c565b5b60006107cf8482850161072a565b91505092915050565b6000602082840312156107ee576107ed610d1c565b5b60006107fc8482850161073f565b91505092915050565b60006020828403121561081b5761081a610d1c565b5b600061082984828501610754565b91505092915050565b6000806040838503121561084957610848610d1c565b5b600061085785828601610754565b925050602061086885828601610769565b9150509250929050565b60006020828403121561088857610887610d1c565b5b600061089684828501610769565b91505092915050565b6108a881610bad565b82525050565b6108bf6108ba82610bad565b610c90565b82525050565b6108ce81610bdd565b82525050565b6108dd81610c11565b82525050565b60006108f0602183610b46565b91506108fb82610d2e565b604082019050919050565b6000610913602583610b46565b915061091e82610d7d565b604082019050919050565b6000610936601a83610b46565b915061094182610dcc565b602082019050919050565b6000610959602383610b46565b915061096482610df5565b604082019050919050565b600061097c601783610b46565b915061098782610e44565b602082019050919050565b61099b81610c07565b82525050565b6109b26109ad82610c07565b610cb4565b82525050565b60006109c482866108ae565b6014820191506109d482856109a1565b6020820191506109e482846109a1565b602082019150819050949350505050565b6000606082019050610a0a600083018661089f565b610a17602083018561089f565b610a246040830184610992565b949350505050565b6000604082019050610a41600083018561089f565b610a4e6020830184610992565b9392505050565b6000602082019050610a6a60008301846108c5565b92915050565b6000602082019050610a8560008301846108d4565b92915050565b60006020820190508181036000830152610aa4816108e3565b9050919050565b60006020820190508181036000830152610ac481610906565b9050919050565b60006020820190508181036000830152610ae481610929565b9050919050565b60006020820190508181036000830152610b048161094c565b9050919050565b60006020820190508181036000830152610b248161096f565b9050919050565b6000602082019050610b406000830184610992565b92915050565b600082825260208201905092915050565b6000610b6282610c07565b9150610b6d83610c07565b9250827fffffffffffffffffffffffffffffffffffffffffffffffffffffffffffffffff03821115610ba257610ba1610cbe565b5b828201905092915050565b6000610bb882610be7565b9050919050565b6000610bca82610be7565b9050919050565b60008115159050919050565b6000819050919050565b600073ffffffffffffffffffffffffffffffffffffffff82169050919050565b6000819050919050565b6000610c1c82610c23565b9050919050565b6000610c2e82610c35565b9050919050565b6000610c4082610be7565b9050919050565b6000610c5282610c07565b91507fffffffffffffffffffffffffffffffffffffffffffffffffffffffffffffffff821415610c8557610c84610cbe565b5b600182019050919050565b6000610c9b82610ca2565b9050919050565b6000610cad82610d21565b9050919050565b6000819050919050565b7f4e487b7100000000000000000000000000000000000000000000000000000000600052601160045260246000fd5b7f4e487b7100000000000000000000000000000000000000000000000000000000600052603260045260246000fd5b600080fd5b60008160601b9050919050565b7f5472616e73616374696f6e20686173682063616e6e6f7420626520656d70747960008201527f2100000000000000000000000000000000000000000000000000000000000000602082015250565b7f596f752063616e206e6f742073656e64206d6f7265207468616e20313030206560008201527f7468657273000000000000000000000000000000000000000000000000000000602082015250565b7f5472616e7366657220746f20657363726f77206661696c656421000000000000600082015250565b7f457363726f7720616d6f756e742063616e6e6f7420626520657175616c20746f60008201527f2030210000000000000000000000000000000000000000000000000000000000602082015250565b7f4861736820697320616c726561647920696e2075736521000000000000000000600082015250565b610e7681610bad565b8114610e8157600080fd5b50565b610e8d81610bbf565b8114610e9857600080fd5b50565b610ea481610bd1565b8114610eaf57600080fd5b50565b610ebb81610bdd565b8114610ec657600080fd5b50565b610ed281610c07565b8114610edd57600080fd5b5056fea2646970667358221220058c5a3aad1d9e91c90563e0f80c49264c48413df1829ce37cbc49388d4182b664736f6c63430008070033",
					"opcodes": "PUSH1 0x80 PUSH1 0x40 MSTORE CALLVALUE DUP1 ISZERO PUSH2 0x10 JUMPI PUSH1 0x0 DUP1 REVERT JUMPDEST POP PUSH1 0x40 MLOAD PUSH3 0x1038 CODESIZE SUB DUP1 PUSH3 0x1038 DUP4 CODECOPY DUP2 DUP2 ADD PUSH1 0x40 MSTORE DUP2 ADD SWAP1 PUSH2 0x34 SWAP2 SWAP1 PUSH2 0x97 JUMP JUMPDEST PUSH1 0x0 PUSH1 0x3 DUP2 SWAP1 SSTORE POP DUP1 PUSH1 0x0 DUP1 PUSH2 0x100 EXP DUP2 SLOAD DUP2 PUSH20 0xFFFFFFFFFFFFFFFFFFFFFFFFFFFFFFFFFFFFFFFF MUL NOT AND SWAP1 DUP4 PUSH20 0xFFFFFFFFFFFFFFFFFFFFFFFFFFFFFFFFFFFFFFFF AND MUL OR SWAP1 SSTORE POP POP PUSH2 0x112 JUMP JUMPDEST PUSH1 0x0 DUP2 MLOAD SWAP1 POP PUSH2 0x91 DUP2 PUSH2 0xFB JUMP JUMPDEST SWAP3 SWAP2 POP POP JUMP JUMPDEST PUSH1 0x0 PUSH1 0x20 DUP3 DUP5 SUB SLT ISZERO PUSH2 0xAD JUMPI PUSH2 0xAC PUSH2 0xF6 JUMP JUMPDEST JUMPDEST PUSH1 0x0 PUSH2 0xBB DUP5 DUP3 DUP6 ADD PUSH2 0x82 JUMP JUMPDEST SWAP2 POP POP SWAP3 SWAP2 POP POP JUMP JUMPDEST PUSH1 0x0 PUSH2 0xCF DUP3 PUSH2 0xD6 JUMP JUMPDEST SWAP1 POP SWAP2 SWAP1 POP JUMP JUMPDEST PUSH1 0x0 PUSH20 0xFFFFFFFFFFFFFFFFFFFFFFFFFFFFFFFFFFFFFFFF DUP3 AND SWAP1 POP SWAP2 SWAP1 POP JUMP JUMPDEST PUSH1 0x0 DUP1 REVERT JUMPDEST PUSH2 0x104 DUP2 PUSH2 0xC4 JUMP JUMPDEST DUP2 EQ PUSH2 0x10F JUMPI PUSH1 0x0 DUP1 REVERT JUMPDEST POP JUMP JUMPDEST PUSH2 0xF16 DUP1 PUSH3 0x122 PUSH1 0x0 CODECOPY PUSH1 0x0 RETURN INVALID PUSH1 0x80 PUSH1 0x40 MSTORE PUSH1 0x4 CALLDATASIZE LT PUSH2 0x7F JUMPI PUSH1 0x0 CALLDATALOAD PUSH1 0xE0 SHR DUP1 PUSH4 0xB8330D10 GT PUSH2 0x4E JUMPI DUP1 PUSH4 0xB8330D10 EQ PUSH2 0x1A8 JUMPI DUP1 PUSH4 0xDDEABDBE EQ PUSH2 0x1E5 JUMPI DUP1 PUSH4 0xECD0C0C3 EQ PUSH2 0x20E JUMPI DUP1 PUSH4 0xF340FA01 EQ PUSH2 0x239 JUMPI PUSH2 0xDC JUMP JUMPDEST DUP1 PUSH4 0x27E235E3 EQ PUSH2 0xE7 JUMPI DUP1 PUSH4 0x3CCFD60B EQ PUSH2 0x124 JUMPI DUP1 PUSH4 0x5187658D EQ PUSH2 0x12E JUMPI DUP1 PUSH4 0x5E53EE21 EQ PUSH2 0x16B JUMPI PUSH2 0xDC JUMP JUMPDEST CALLDATASIZE PUSH2 0xDC JUMPI CALLVALUE PUSH1 0x1 PUSH1 0x0 CALLER PUSH20 0xFFFFFFFFFFFFFFFFFFFFFFFFFFFFFFFFFFFFFFFF AND PUSH20 0xFFFFFFFFFFFFFFFFFFFFFFFFFFFFFFFFFFFFFFFF AND DUP2 MSTORE PUSH1 0x20 ADD SWAP1 DUP2 MSTORE PUSH1 0x20 ADD PUSH1 0x0 KECCAK256 PUSH1 0x0 DUP3 DUP3 SLOAD PUSH2 0xD3 SWAP2 SWAP1 PUSH2 0xB57 JUMP JUMPDEST SWAP3 POP POP DUP2 SWAP1 SSTORE POP STOP JUMPDEST PUSH2 0xE5 CALLER PUSH2 0x255 JUMP JUMPDEST STOP JUMPDEST CALLVALUE DUP1 ISZERO PUSH2 0xF3 JUMPI PUSH1 0x0 DUP1 REVERT JUMPDEST POP PUSH2 0x10E PUSH1 0x4 DUP1 CALLDATASIZE SUB DUP2 ADD SWAP1 PUSH2 0x109 SWAP2 SWAP1 PUSH2 0x77E JUMP JUMPDEST PUSH2 0x2FA JUMP JUMPDEST PUSH1 0x40 MLOAD PUSH2 0x11B SWAP2 SWAP1 PUSH2 0xB2B JUMP JUMPDEST PUSH1 0x40 MLOAD DUP1 SWAP2 SUB SWAP1 RETURN JUMPDEST PUSH2 0x12C PUSH2 0x312 JUMP JUMPDEST STOP JUMPDEST CALLVALUE DUP1 ISZERO PUSH2 0x13A JUMPI PUSH1 0x0 DUP1 REVERT JUMPDEST POP PUSH2 0x155 PUSH1 0x4 DUP1 CALLDATASIZE SUB DUP2 ADD SWAP1 PUSH2 0x150 SWAP2 SWAP1 PUSH2 0x77E JUMP JUMPDEST PUSH2 0x41E JUMP JUMPDEST PUSH1 0x40 MLOAD PUSH2 0x162 SWAP2 SWAP1 PUSH2 0xB2B JUMP JUMPDEST PUSH1 0x40 MLOAD DUP1 SWAP2 SUB SWAP1 RETURN JUMPDEST CALLVALUE DUP1 ISZERO PUSH2 0x177 JUMPI PUSH1 0x0 DUP1 REVERT JUMPDEST POP PUSH2 0x192 PUSH1 0x4 DUP1 CALLDATASIZE SUB DUP2 ADD SWAP1 PUSH2 0x18D SWAP2 SWAP1 PUSH2 0x872 JUMP JUMPDEST PUSH2 0x467 JUMP JUMPDEST PUSH1 0x40 MLOAD PUSH2 0x19F SWAP2 SWAP1 PUSH2 0xA55 JUMP JUMPDEST PUSH1 0x40 MLOAD DUP1 SWAP2 SUB SWAP1 RETURN JUMPDEST CALLVALUE DUP1 ISZERO PUSH2 0x1B4 JUMPI PUSH1 0x0 DUP1 REVERT JUMPDEST POP PUSH2 0x1CF PUSH1 0x4 DUP1 CALLDATASIZE SUB DUP2 ADD SWAP1 PUSH2 0x1CA SWAP2 SWAP1 PUSH2 0x805 JUMP JUMPDEST PUSH2 0x49D JUMP JUMPDEST PUSH1 0x40 MLOAD PUSH2 0x1DC SWAP2 SWAP1 PUSH2 0xB2B JUMP JUMPDEST PUSH1 0x40 MLOAD DUP1 SWAP2 SUB SWAP1 RETURN JUMPDEST CALLVALUE DUP1 ISZERO PUSH2 0x1F1 JUMPI PUSH1 0x0 DUP1 REVERT JUMPDEST POP PUSH2 0x20C PUSH1 0x4 DUP1 CALLDATASIZE SUB DUP2 ADD SWAP1 PUSH2 0x207 SWAP2 SWAP1 PUSH2 0x832 JUMP JUMPDEST PUSH2 0x4B5 JUMP JUMPDEST STOP JUMPDEST CALLVALUE DUP1 ISZERO PUSH2 0x21A JUMPI PUSH1 0x0 DUP1 REVERT JUMPDEST POP PUSH2 0x223 PUSH2 0x6F1 JUMP JUMPDEST PUSH1 0x40 MLOAD PUSH2 0x230 SWAP2 SWAP1 PUSH2 0xA70 JUMP JUMPDEST PUSH1 0x40 MLOAD DUP1 SWAP2 SUB SWAP1 RETURN JUMPDEST PUSH2 0x253 PUSH1 0x4 DUP1 CALLDATASIZE SUB DUP2 ADD SWAP1 PUSH2 0x24E SWAP2 SWAP1 PUSH2 0x7AB JUMP JUMPDEST PUSH2 0x255 JUMP JUMPDEST STOP JUMPDEST PUSH9 0x56BC75E2D63100000 CALLVALUE GT ISZERO PUSH2 0x2A1 JUMPI PUSH1 0x40 MLOAD PUSH32 0x8C379A000000000000000000000000000000000000000000000000000000000 DUP2 MSTORE PUSH1 0x4 ADD PUSH2 0x298 SWAP1 PUSH2 0xAAB JUMP JUMPDEST PUSH1 0x40 MLOAD DUP1 SWAP2 SUB SWAP1 REVERT JUMPDEST CALLVALUE PUSH1 0x1 PUSH1 0x0 DUP4 PUSH20 0xFFFFFFFFFFFFFFFFFFFFFFFFFFFFFFFFFFFFFFFF AND PUSH20 0xFFFFFFFFFFFFFFFFFFFFFFFFFFFFFFFFFFFFFFFF AND DUP2 MSTORE PUSH1 0x20 ADD SWAP1 DUP2 MSTORE PUSH1 0x20 ADD PUSH1 0x0 KECCAK256 PUSH1 0x0 DUP3 DUP3 SLOAD PUSH2 0x2F0 SWAP2 SWAP1 PUSH2 0xB57 JUMP JUMPDEST SWAP3 POP POP DUP2 SWAP1 SSTORE POP POP JUMP JUMPDEST PUSH1 0x1 PUSH1 0x20 MSTORE DUP1 PUSH1 0x0 MSTORE PUSH1 0x40 PUSH1 0x0 KECCAK256 PUSH1 0x0 SWAP2 POP SWAP1 POP SLOAD DUP2 JUMP JUMPDEST PUSH1 0x0 PUSH1 0x1 PUSH1 0x0 CALLER PUSH20 0xFFFFFFFFFFFFFFFFFFFFFFFFFFFFFFFFFFFFFFFF AND PUSH20 0xFFFFFFFFFFFFFFFFFFFFFFFFFFFFFFFFFFFFFFFF AND DUP2 MSTORE PUSH1 0x20 ADD SWAP1 DUP2 MSTORE PUSH1 0x20 ADD PUSH1 0x0 KECCAK256 SLOAD SWAP1 POP PUSH1 0x0 PUSH1 0x1 PUSH1 0x0 CALLER PUSH20 0xFFFFFFFFFFFFFFFFFFFFFFFFFFFFFFFFFFFFFFFF AND PUSH20 0xFFFFFFFFFFFFFFFFFFFFFFFFFFFFFFFFFFFFFFFF AND DUP2 MSTORE PUSH1 0x20 ADD SWAP1 DUP2 MSTORE PUSH1 0x20 ADD PUSH1 0x0 KECCAK256 DUP2 SWAP1 SSTORE POP CALLER PUSH20 0xFFFFFFFFFFFFFFFFFFFFFFFFFFFFFFFFFFFFFFFF AND PUSH2 0x8FC DUP3 SWAP1 DUP2 ISZERO MUL SWAP1 PUSH1 0x40 MLOAD PUSH1 0x0 PUSH1 0x40 MLOAD DUP1 DUP4 SUB DUP2 DUP6 DUP9 DUP9 CALL SWAP4 POP POP POP POP ISZERO DUP1 ISZERO PUSH2 0x3E1 JUMPI RETURNDATASIZE PUSH1 0x0 DUP1 RETURNDATACOPY RETURNDATASIZE PUSH1 0x0 REVERT JUMPDEST POP PUSH32 0x884EDAD9CE6FA2440D8A54CC123490EB96D2768479D49FF9C7366125A9424364 CALLER DUP3 PUSH1 0x40 MLOAD PUSH2 0x413 SWAP3 SWAP2 SWAP1 PUSH2 0xA2C JUMP JUMPDEST PUSH1 0x40 MLOAD DUP1 SWAP2 SUB SWAP1 LOG1 POP JUMP JUMPDEST PUSH1 0x0 PUSH1 0x1 PUSH1 0x0 DUP4 PUSH20 0xFFFFFFFFFFFFFFFFFFFFFFFFFFFFFFFFFFFFFFFF AND PUSH20 0xFFFFFFFFFFFFFFFFFFFFFFFFFFFFFFFFFFFFFFFF AND DUP2 MSTORE PUSH1 0x20 ADD SWAP1 DUP2 MSTORE PUSH1 0x20 ADD PUSH1 0x0 KECCAK256 SLOAD SWAP1 POP SWAP2 SWAP1 POP JUMP JUMPDEST PUSH1 0x0 CALLER PUSH1 0x3 SLOAD DUP4 PUSH1 0x40 MLOAD PUSH1 0x20 ADD PUSH2 0x480 SWAP4 SWAP3 SWAP2 SWAP1 PUSH2 0x9B8 JUMP JUMPDEST PUSH1 0x40 MLOAD PUSH1 0x20 DUP2 DUP4 SUB SUB DUP2 MSTORE SWAP1 PUSH1 0x40 MSTORE DUP1 MLOAD SWAP1 PUSH1 0x20 ADD KECCAK256 SWAP1 POP SWAP2 SWAP1 POP JUMP JUMPDEST PUSH1 0x2 PUSH1 0x20 MSTORE DUP1 PUSH1 0x0 MSTORE PUSH1 0x40 PUSH1 0x0 KECCAK256 PUSH1 0x0 SWAP2 POP SWAP1 POP SLOAD DUP2 JUMP JUMPDEST PUSH1 0x0 PUSH1 0xF8 SHL DUP3 PUSH1 0x0 PUSH1 0x20 DUP2 LT PUSH2 0x4CE JUMPI PUSH2 0x4CD PUSH2 0xCED JUMP JUMPDEST JUMPDEST BYTE PUSH1 0xF8 SHL PUSH31 0xFFFFFFFFFFFFFFFFFFFFFFFFFFFFFFFFFFFFFFFFFFFFFFFFFFFFFFFFFFFFFF NOT AND EQ ISZERO PUSH2 0x535 JUMPI PUSH1 0x40 MLOAD PUSH32 0x8C379A000000000000000000000000000000000000000000000000000000000 DUP2 MSTORE PUSH1 0x4 ADD PUSH2 0x52C SWAP1 PUSH2 0xA8B JUMP JUMPDEST PUSH1 0x40 MLOAD DUP1 SWAP2 SUB SWAP1 REVERT JUMPDEST PUSH1 0x0 DUP2 EQ ISZERO PUSH2 0x579 JUMPI PUSH1 0x40 MLOAD PUSH32 0x8C379A000000000000000000000000000000000000000000000000000000000 DUP2 MSTORE PUSH1 0x4 ADD PUSH2 0x570 SWAP1 PUSH2 0xAEB JUMP JUMPDEST PUSH1 0x40 MLOAD DUP1 SWAP2 SUB SWAP1 REVERT JUMPDEST PUSH1 0x0 PUSH1 0x2 PUSH1 0x0 DUP5 DUP2 MSTORE PUSH1 0x20 ADD SWAP1 DUP2 MSTORE PUSH1 0x20 ADD PUSH1 0x0 KECCAK256 SLOAD EQ PUSH2 0x5CF JUMPI PUSH1 0x40 MLOAD PUSH32 0x8C379A000000000000000000000000000000000000000000000000000000000 DUP2 MSTORE PUSH1 0x4 ADD PUSH2 0x5C6 SWAP1 PUSH2 0xB0B JUMP JUMPDEST PUSH1 0x40 MLOAD DUP1 SWAP2 SUB SWAP1 REVERT JUMPDEST PUSH1 0x0 DUP1 SLOAD SWAP1 PUSH2 0x100 EXP SWAP1 DIV PUSH20 0xFFFFFFFFFFFFFFFFFFFFFFFFFFFFFFFFFFFFFFFF AND PUSH20 0xFFFFFFFFFFFFFFFFFFFFFFFFFFFFFFFFFFFFFFFF AND PUSH4 0x23B872DD CALLER ADDRESS DUP5 PUSH1 0x40 MLOAD DUP5 PUSH4 0xFFFFFFFF AND PUSH1 0xE0 SHL DUP2 MSTORE PUSH1 0x4 ADD PUSH2 0x62C SWAP4 SWAP3 SWAP2 SWAP1 PUSH2 0x9F5 JUMP JUMPDEST PUSH1 0x20 PUSH1 0x40 MLOAD DUP1 DUP4 SUB DUP2 PUSH1 0x0 DUP8 DUP1 EXTCODESIZE ISZERO DUP1 ISZERO PUSH2 0x646 JUMPI PUSH1 0x0 DUP1 REVERT JUMPDEST POP GAS CALL ISZERO DUP1 ISZERO PUSH2 0x65A JUMPI RETURNDATASIZE PUSH1 0x0 DUP1 RETURNDATACOPY RETURNDATASIZE PUSH1 0x0 REVERT JUMPDEST POP POP POP POP PUSH1 0x40 MLOAD RETURNDATASIZE PUSH1 0x1F NOT PUSH1 0x1F DUP3 ADD AND DUP3 ADD DUP1 PUSH1 0x40 MSTORE POP DUP2 ADD SWAP1 PUSH2 0x67E SWAP2 SWAP1 PUSH2 0x7D8 JUMP JUMPDEST PUSH2 0x6BD JUMPI PUSH1 0x40 MLOAD PUSH32 0x8C379A000000000000000000000000000000000000000000000000000000000 DUP2 MSTORE PUSH1 0x4 ADD PUSH2 0x6B4 SWAP1 PUSH2 0xACB JUMP JUMPDEST PUSH1 0x40 MLOAD DUP1 SWAP2 SUB SWAP1 REVERT JUMPDEST DUP1 PUSH1 0x2 PUSH1 0x0 DUP5 DUP2 MSTORE PUSH1 0x20 ADD SWAP1 DUP2 MSTORE PUSH1 0x20 ADD PUSH1 0x0 KECCAK256 DUP2 SWAP1 SSTORE POP PUSH1 0x3 PUSH1 0x0 DUP2 SLOAD DUP1 SWAP3 SWAP2 SWAP1 PUSH2 0x6E8 SWAP1 PUSH2 0xC47 JUMP JUMPDEST SWAP2 SWAP1 POP SSTORE POP POP POP JUMP JUMPDEST PUSH1 0x0 DUP1 SLOAD SWAP1 PUSH2 0x100 EXP SWAP1 DIV PUSH20 0xFFFFFFFFFFFFFFFFFFFFFFFFFFFFFFFFFFFFFFFF AND DUP2 JUMP JUMPDEST PUSH1 0x0 DUP2 CALLDATALOAD SWAP1 POP PUSH2 0x724 DUP2 PUSH2 0xE6D JUMP JUMPDEST SWAP3 SWAP2 POP POP JUMP JUMPDEST PUSH1 0x0 DUP2 CALLDATALOAD SWAP1 POP PUSH2 0x739 DUP2 PUSH2 0xE84 JUMP JUMPDEST SWAP3 SWAP2 POP POP JUMP JUMPDEST PUSH1 0x0 DUP2 MLOAD SWAP1 POP PUSH2 0x74E DUP2 PUSH2 0xE9B JUMP JUMPDEST SWAP3 SWAP2 POP POP JUMP JUMPDEST PUSH1 0x0 DUP2 CALLDATALOAD SWAP1 POP PUSH2 0x763 DUP2 PUSH2 0xEB2 JUMP JUMPDEST SWAP3 SWAP2 POP POP JUMP JUMPDEST PUSH1 0x0 DUP2 CALLDATALOAD SWAP1 POP PUSH2 0x778 DUP2 PUSH2 0xEC9 JUMP JUMPDEST SWAP3 SWAP2 POP POP JUMP JUMPDEST PUSH1 0x0 PUSH1 0x20 DUP3 DUP5 SUB SLT ISZERO PUSH2 0x794 JUMPI PUSH2 0x793 PUSH2 0xD1C JUMP JUMPDEST JUMPDEST PUSH1 0x0 PUSH2 0x7A2 DUP5 DUP3 DUP6 ADD PUSH2 0x715 JUMP JUMPDEST SWAP2 POP POP SWAP3 SWAP2 POP POP JUMP JUMPDEST PUSH1 0x0 PUSH1 0x20 DUP3 DUP5 SUB SLT ISZERO PUSH2 0x7C1 JUMPI PUSH2 0x7C0 PUSH2 0xD1C JUMP JUMPDEST JUMPDEST PUSH1 0x0 PUSH2 0x7CF DUP5 DUP3 DUP6 ADD PUSH2 0x72A JUMP JUMPDEST SWAP2 POP POP SWAP3 SWAP2 POP POP JUMP JUMPDEST PUSH1 0x0 PUSH1 0x20 DUP3 DUP5 SUB SLT ISZERO PUSH2 0x7EE JUMPI PUSH2 0x7ED PUSH2 0xD1C JUMP JUMPDEST JUMPDEST PUSH1 0x0 PUSH2 0x7FC DUP5 DUP3 DUP6 ADD PUSH2 0x73F JUMP JUMPDEST SWAP2 POP POP SWAP3 SWAP2 POP POP JUMP JUMPDEST PUSH1 0x0 PUSH1 0x20 DUP3 DUP5 SUB SLT ISZERO PUSH2 0x81B JUMPI PUSH2 0x81A PUSH2 0xD1C JUMP JUMPDEST JUMPDEST PUSH1 0x0 PUSH2 0x829 DUP5 DUP3 DUP6 ADD PUSH2 0x754 JUMP JUMPDEST SWAP2 POP POP SWAP3 SWAP2 POP POP JUMP JUMPDEST PUSH1 0x0 DUP1 PUSH1 0x40 DUP4 DUP6 SUB SLT ISZERO PUSH2 0x849 JUMPI PUSH2 0x848 PUSH2 0xD1C JUMP JUMPDEST JUMPDEST PUSH1 0x0 PUSH2 0x857 DUP6 DUP3 DUP7 ADD PUSH2 0x754 JUMP JUMPDEST SWAP3 POP POP PUSH1 0x20 PUSH2 0x868 DUP6 DUP3 DUP7 ADD PUSH2 0x769 JUMP JUMPDEST SWAP2 POP POP SWAP3 POP SWAP3 SWAP1 POP JUMP JUMPDEST PUSH1 0x0 PUSH1 0x20 DUP3 DUP5 SUB SLT ISZERO PUSH2 0x888 JUMPI PUSH2 0x887 PUSH2 0xD1C JUMP JUMPDEST JUMPDEST PUSH1 0x0 PUSH2 0x896 DUP5 DUP3 DUP6 ADD PUSH2 0x769 JUMP JUMPDEST SWAP2 POP POP SWAP3 SWAP2 POP POP JUMP JUMPDEST PUSH2 0x8A8 DUP2 PUSH2 0xBAD JUMP JUMPDEST DUP3 MSTORE POP POP JUMP JUMPDEST PUSH2 0x8BF PUSH2 0x8BA DUP3 PUSH2 0xBAD JUMP JUMPDEST PUSH2 0xC90 JUMP JUMPDEST DUP3 MSTORE POP POP JUMP JUMPDEST PUSH2 0x8CE DUP2 PUSH2 0xBDD JUMP JUMPDEST DUP3 MSTORE POP POP JUMP JUMPDEST PUSH2 0x8DD DUP2 PUSH2 0xC11 JUMP JUMPDEST DUP3 MSTORE POP POP JUMP JUMPDEST PUSH1 0x0 PUSH2 0x8F0 PUSH1 0x21 DUP4 PUSH2 0xB46 JUMP JUMPDEST SWAP2 POP PUSH2 0x8FB DUP3 PUSH2 0xD2E JUMP JUMPDEST PUSH1 0x40 DUP3 ADD SWAP1 POP SWAP2 SWAP1 POP JUMP JUMPDEST PUSH1 0x0 PUSH2 0x913 PUSH1 0x25 DUP4 PUSH2 0xB46 JUMP JUMPDEST SWAP2 POP PUSH2 0x91E DUP3 PUSH2 0xD7D JUMP JUMPDEST PUSH1 0x40 DUP3 ADD SWAP1 POP SWAP2 SWAP1 POP JUMP JUMPDEST PUSH1 0x0 PUSH2 0x936 PUSH1 0x1A DUP4 PUSH2 0xB46 JUMP JUMPDEST SWAP2 POP PUSH2 0x941 DUP3 PUSH2 0xDCC JUMP JUMPDEST PUSH1 0x20 DUP3 ADD SWAP1 POP SWAP2 SWAP1 POP JUMP JUMPDEST PUSH1 0x0 PUSH2 0x959 PUSH1 0x23 DUP4 PUSH2 0xB46 JUMP JUMPDEST SWAP2 POP PUSH2 0x964 DUP3 PUSH2 0xDF5 JUMP JUMPDEST PUSH1 0x40 DUP3 ADD SWAP1 POP SWAP2 SWAP1 POP JUMP JUMPDEST PUSH1 0x0 PUSH2 0x97C PUSH1 0x17 DUP4 PUSH2 0xB46 JUMP JUMPDEST SWAP2 POP PUSH2 0x987 DUP3 PUSH2 0xE44 JUMP JUMPDEST PUSH1 0x20 DUP3 ADD SWAP1 POP SWAP2 SWAP1 POP JUMP JUMPDEST PUSH2 0x99B DUP2 PUSH2 0xC07 JUMP JUMPDEST DUP3 MSTORE POP POP JUMP JUMPDEST PUSH2 0x9B2 PUSH2 0x9AD DUP3 PUSH2 0xC07 JUMP JUMPDEST PUSH2 0xCB4 JUMP JUMPDEST DUP3 MSTORE POP POP JUMP JUMPDEST PUSH1 0x0 PUSH2 0x9C4 DUP3 DUP7 PUSH2 0x8AE JUMP JUMPDEST PUSH1 0x14 DUP3 ADD SWAP2 POP PUSH2 0x9D4 DUP3 DUP6 PUSH2 0x9A1 JUMP JUMPDEST PUSH1 0x20 DUP3 ADD SWAP2 POP PUSH2 0x9E4 DUP3 DUP5 PUSH2 0x9A1 JUMP JUMPDEST PUSH1 0x20 DUP3 ADD SWAP2 POP DUP2 SWAP1 POP SWAP5 SWAP4 POP POP POP POP JUMP JUMPDEST PUSH1 0x0 PUSH1 0x60 DUP3 ADD SWAP1 POP PUSH2 0xA0A PUSH1 0x0 DUP4 ADD DUP7 PUSH2 0x89F JUMP JUMPDEST PUSH2 0xA17 PUSH1 0x20 DUP4 ADD DUP6 PUSH2 0x89F JUMP JUMPDEST PUSH2 0xA24 PUSH1 0x40 DUP4 ADD DUP5 PUSH2 0x992 JUMP JUMPDEST SWAP5 SWAP4 POP POP POP POP JUMP JUMPDEST PUSH1 0x0 PUSH1 0x40 DUP3 ADD SWAP1 POP PUSH2 0xA41 PUSH1 0x0 DUP4 ADD DUP6 PUSH2 0x89F JUMP JUMPDEST PUSH2 0xA4E PUSH1 0x20 DUP4 ADD DUP5 PUSH2 0x992 JUMP JUMPDEST SWAP4 SWAP3 POP POP POP JUMP JUMPDEST PUSH1 0x0 PUSH1 0x20 DUP3 ADD SWAP1 POP PUSH2 0xA6A PUSH1 0x0 DUP4 ADD DUP5 PUSH2 0x8C5 JUMP JUMPDEST SWAP3 SWAP2 POP POP JUMP JUMPDEST PUSH1 0x0 PUSH1 0x20 DUP3 ADD SWAP1 POP PUSH2 0xA85 PUSH1 0x0 DUP4 ADD DUP5 PUSH2 0x8D4 JUMP JUMPDEST SWAP3 SWAP2 POP POP JUMP JUMPDEST PUSH1 0x0 PUSH1 0x20 DUP3 ADD SWAP1 POP DUP2 DUP2 SUB PUSH1 0x0 DUP4 ADD MSTORE PUSH2 0xAA4 DUP2 PUSH2 0x8E3 JUMP JUMPDEST SWAP1 POP SWAP2 SWAP1 POP JUMP JUMPDEST PUSH1 0x0 PUSH1 0x20 DUP3 ADD SWAP1 POP DUP2 DUP2 SUB PUSH1 0x0 DUP4 ADD MSTORE PUSH2 0xAC4 DUP2 PUSH2 0x906 JUMP JUMPDEST SWAP1 POP SWAP2 SWAP1 POP JUMP JUMPDEST PUSH1 0x0 PUSH1 0x20 DUP3 ADD SWAP1 POP DUP2 DUP2 SUB PUSH1 0x0 DUP4 ADD MSTORE PUSH2 0xAE4 DUP2 PUSH2 0x929 JUMP JUMPDEST SWAP1 POP SWAP2 SWAP1 POP JUMP JUMPDEST PUSH1 0x0 PUSH1 0x20 DUP3 ADD SWAP1 POP DUP2 DUP2 SUB PUSH1 0x0 DUP4 ADD MSTORE PUSH2 0xB04 DUP2 PUSH2 0x94C JUMP JUMPDEST SWAP1 POP SWAP2 SWAP1 POP JUMP JUMPDEST PUSH1 0x0 PUSH1 0x20 DUP3 ADD SWAP1 POP DUP2 DUP2 SUB PUSH1 0x0 DUP4 ADD MSTORE PUSH2 0xB24 DUP2 PUSH2 0x96F JUMP JUMPDEST SWAP1 POP SWAP2 SWAP1 POP JUMP JUMPDEST PUSH1 0x0 PUSH1 0x20 DUP3 ADD SWAP1 POP PUSH2 0xB40 PUSH1 0x0 DUP4 ADD DUP5 PUSH2 0x992 JUMP JUMPDEST SWAP3 SWAP2 POP POP JUMP JUMPDEST PUSH1 0x0 DUP3 DUP3 MSTORE PUSH1 0x20 DUP3 ADD SWAP1 POP SWAP3 SWAP2 POP POP JUMP JUMPDEST PUSH1 0x0 PUSH2 0xB62 DUP3 PUSH2 0xC07 JUMP JUMPDEST SWAP2 POP PUSH2 0xB6D DUP4 PUSH2 0xC07 JUMP JUMPDEST SWAP3 POP DUP3 PUSH32 0xFFFFFFFFFFFFFFFFFFFFFFFFFFFFFFFFFFFFFFFFFFFFFFFFFFFFFFFFFFFFFFFF SUB DUP3 GT ISZERO PUSH2 0xBA2 JUMPI PUSH2 0xBA1 PUSH2 0xCBE JUMP JUMPDEST JUMPDEST DUP3 DUP3 ADD SWAP1 POP SWAP3 SWAP2 POP POP JUMP JUMPDEST PUSH1 0x0 PUSH2 0xBB8 DUP3 PUSH2 0xBE7 JUMP JUMPDEST SWAP1 POP SWAP2 SWAP1 POP JUMP JUMPDEST PUSH1 0x0 PUSH2 0xBCA DUP3 PUSH2 0xBE7 JUMP JUMPDEST SWAP1 POP SWAP2 SWAP1 POP JUMP JUMPDEST PUSH1 0x0 DUP2 ISZERO ISZERO SWAP1 POP SWAP2 SWAP1 POP JUMP JUMPDEST PUSH1 0x0 DUP2 SWAP1 POP SWAP2 SWAP1 POP JUMP JUMPDEST PUSH1 0x0 PUSH20 0xFFFFFFFFFFFFFFFFFFFFFFFFFFFFFFFFFFFFFFFF DUP3 AND SWAP1 POP SWAP2 SWAP1 POP JUMP JUMPDEST PUSH1 0x0 DUP2 SWAP1 POP SWAP2 SWAP1 POP JUMP JUMPDEST PUSH1 0x0 PUSH2 0xC1C DUP3 PUSH2 0xC23 JUMP JUMPDEST SWAP1 POP SWAP2 SWAP1 POP JUMP JUMPDEST PUSH1 0x0 PUSH2 0xC2E DUP3 PUSH2 0xC35 JUMP JUMPDEST SWAP1 POP SWAP2 SWAP1 POP JUMP JUMPDEST PUSH1 0x0 PUSH2 0xC40 DUP3 PUSH2 0xBE7 JUMP JUMPDEST SWAP1 POP SWAP2 SWAP1 POP JUMP JUMPDEST PUSH1 0x0 PUSH2 0xC52 DUP3 PUSH2 0xC07 JUMP JUMPDEST SWAP2 POP PUSH32 0xFFFFFFFFFFFFFFFFFFFFFFFFFFFFFFFFFFFFFFFFFFFFFFFFFFFFFFFFFFFFFFFF DUP3 EQ ISZERO PUSH2 0xC85 JUMPI PUSH2 0xC84 PUSH2 0xCBE JUMP JUMPDEST JUMPDEST PUSH1 0x1 DUP3 ADD SWAP1 POP SWAP2 SWAP1 POP JUMP JUMPDEST PUSH1 0x0 PUSH2 0xC9B DUP3 PUSH2 0xCA2 JUMP JUMPDEST SWAP1 POP SWAP2 SWAP1 POP JUMP JUMPDEST PUSH1 0x0 PUSH2 0xCAD DUP3 PUSH2 0xD21 JUMP JUMPDEST SWAP1 POP SWAP2 SWAP1 POP JUMP JUMPDEST PUSH1 0x0 DUP2 SWAP1 POP SWAP2 SWAP1 POP JUMP JUMPDEST PUSH32 0x4E487B7100000000000000000000000000000000000000000000000000000000 PUSH1 0x0 MSTORE PUSH1 0x11 PUSH1 0x4 MSTORE PUSH1 0x24 PUSH1 0x0 REVERT JUMPDEST PUSH32 0x4E487B7100000000000000000000000000000000000000000000000000000000 PUSH1 0x0 MSTORE PUSH1 0x32 PUSH1 0x4 MSTORE PUSH1 0x24 PUSH1 0x0 REVERT JUMPDEST PUSH1 0x0 DUP1 REVERT JUMPDEST PUSH1 0x0 DUP2 PUSH1 0x60 SHL SWAP1 POP SWAP2 SWAP1 POP JUMP JUMPDEST PUSH32 0x5472616E73616374696F6E20686173682063616E6E6F7420626520656D707479 PUSH1 0x0 DUP3 ADD MSTORE PUSH32 0x2100000000000000000000000000000000000000000000000000000000000000 PUSH1 0x20 DUP3 ADD MSTORE POP JUMP JUMPDEST PUSH32 0x596F752063616E206E6F742073656E64206D6F7265207468616E203130302065 PUSH1 0x0 DUP3 ADD MSTORE PUSH32 0x7468657273000000000000000000000000000000000000000000000000000000 PUSH1 0x20 DUP3 ADD MSTORE POP JUMP JUMPDEST PUSH32 0x5472616E7366657220746F20657363726F77206661696C656421000000000000 PUSH1 0x0 DUP3 ADD MSTORE POP JUMP JUMPDEST PUSH32 0x457363726F7720616D6F756E742063616E6E6F7420626520657175616C20746F PUSH1 0x0 DUP3 ADD MSTORE PUSH32 0x2030210000000000000000000000000000000000000000000000000000000000 PUSH1 0x20 DUP3 ADD MSTORE POP JUMP JUMPDEST PUSH32 0x4861736820697320616C726561647920696E2075736521000000000000000000 PUSH1 0x0 DUP3 ADD MSTORE POP JUMP JUMPDEST PUSH2 0xE76 DUP2 PUSH2 0xBAD JUMP JUMPDEST DUP2 EQ PUSH2 0xE81 JUMPI PUSH1 0x0 DUP1 REVERT JUMPDEST POP JUMP JUMPDEST PUSH2 0xE8D DUP2 PUSH2 0xBBF JUMP JUMPDEST DUP2 EQ PUSH2 0xE98 JUMPI PUSH1 0x0 DUP1 REVERT JUMPDEST POP JUMP JUMPDEST PUSH2 0xEA4 DUP2 PUSH2 0xBD1 JUMP JUMPDEST DUP2 EQ PUSH2 0xEAF JUMPI PUSH1 0x0 DUP1 REVERT JUMPDEST POP JUMP JUMPDEST PUSH2 0xEBB DUP2 PUSH2 0xBDD JUMP JUMPDEST DUP2 EQ PUSH2 0xEC6 JUMPI PUSH1 0x0 DUP1 REVERT JUMPDEST POP JUMP JUMPDEST PUSH2 0xED2 DUP2 PUSH2 0xC07 JUMP JUMPDEST DUP2 EQ PUSH2 0xEDD JUMPI PUSH1 0x0 DUP1 REVERT JUMPDEST POP JUMP INVALID LOG2 PUSH5 0x6970667358 0x22 SLT KECCAK256 SDIV DUP13 GAS GASPRICE 0xAD SAR SWAP15 SWAP2 0xC9 SDIV PUSH4 0xE0F80C49 0x26 0x4C BASEFEE COINBASE RETURNDATASIZE CALL DUP3 SWAP13 0xE3 PUSH29 0xBC49388D4182B664736F6C634300080700330000000000000000000000 "
				},
				"gasEstimates": {
					"creation": {
						"codeDepositCost": "772400",
						"executionCost": "infinite",
						"totalCost": "infinite"
					},
					"external": {
						"": "infinite",
						"ERC20_balances(bytes32)": "2765",
						"_token()": "2641",
						"balances(address)": "2815",
						"deposit(address)": "infinite",
						"depositERC20(bytes32,uint256)": "infinite",
						"getERC20Hash(uint256)": "infinite",
						"getbalancesByAddr(address)": "2886",
						"withdraw()": "infinite"
					}
				},
				"methodIdentifiers": {
					"ERC20_balances(bytes32)": "b8330d10",
					"_token()": "ecd0c0c3",
					"balances(address)": "27e235e3",
					"deposit(address)": "f340fa01",
					"depositERC20(bytes32,uint256)": "ddeabdbe",
					"getERC20Hash(uint256)": "5e53ee21",
					"getbalancesByAddr(address)": "5187658d",
					"withdraw()": "3ccfd60b"
				}
			},
			"storageLayout": {
				"storage": [
					{
						"astId": 83,
						"contract": "contracts/Escrow.sol:Escrow",
						"label": "_token",
						"offset": 0,
						"slot": "0",
						"type": "t_contract(IERC20)77"
					},
					{
						"astId": 103,
						"contract": "contracts/Escrow.sol:Escrow",
						"label": "balances",
						"offset": 0,
						"slot": "1",
						"type": "t_mapping(t_address,t_uint256)"
					},
					{
						"astId": 107,
						"contract": "contracts/Escrow.sol:Escrow",
						"label": "ERC20_balances",
						"offset": 0,
						"slot": "2",
						"type": "t_mapping(t_bytes32,t_uint256)"
					},
					{
						"astId": 109,
						"contract": "contracts/Escrow.sol:Escrow",
						"label": "ERC20_deposit_count",
						"offset": 0,
						"slot": "3",
						"type": "t_uint256"
					}
				],
				"types": {
					"t_address": {
						"encoding": "inplace",
						"label": "address",
						"numberOfBytes": "20"
					},
					"t_bytes32": {
						"encoding": "inplace",
						"label": "bytes32",
						"numberOfBytes": "32"
					},
					"t_contract(IERC20)77": {
						"encoding": "inplace",
						"label": "contract IERC20",
						"numberOfBytes": "20"
					},
					"t_mapping(t_address,t_uint256)": {
						"encoding": "mapping",
						"key": "t_address",
						"label": "mapping(address => uint256)",
						"numberOfBytes": "32",
						"value": "t_uint256"
					},
					"t_mapping(t_bytes32,t_uint256)": {
						"encoding": "mapping",
						"key": "t_bytes32",
						"label": "mapping(bytes32 => uint256)",
						"numberOfBytes": "32",
						"value": "t_uint256"
					},
					"t_uint256": {
						"encoding": "inplace",
						"label": "uint256",
						"numberOfBytes": "32"
					}
				}
			},
			"userdoc": {
				"kind": "user",
				"methods": {},
				"version": 1
			}
		}
	}
}