{
	"contracts/EscrowERC721.sol": {
		"EscrowERC721": {
			"abi": [
				{
					"inputs": [
						{
							"internalType": "contract IERC721",
							"name": "_token",
							"type": "address"
						}
					],
					"stateMutability": "nonpayable",
					"type": "constructor"
				},
				{
					"inputs": [
						{
							"internalType": "address",
							"name": "_receiver",
							"type": "address"
						},
						{
							"internalType": "uint256",
							"name": "_itemId",
							"type": "uint256"
						}
					],
					"name": "deposit",
					"outputs": [],
					"stateMutability": "nonpayable",
					"type": "function"
				},
				{
					"inputs": [
						{
							"internalType": "uint256",
							"name": "",
							"type": "uint256"
						}
					],
					"name": "items",
					"outputs": [
						{
							"internalType": "address",
							"name": "sender",
							"type": "address"
						},
						{
							"internalType": "address",
							"name": "receiver",
							"type": "address"
						},
						{
							"internalType": "uint256",
							"name": "itemId",
							"type": "uint256"
						}
					],
					"stateMutability": "view",
					"type": "function"
				}
			],
			"devdoc": {
				"kind": "dev",
				"methods": {},
				"version": 1
			},
			"evm": {
				"assembly": "    /* \"contracts/EscrowERC721.sol\":178:945  contract EscrowERC721 {... */\n  mstore(0x40, 0x80)\n    /* \"contracts/EscrowERC721.sol\":463:522  constructor(IERC721 _token) {... */\n  callvalue\n  dup1\n  iszero\n  tag_1\n  jumpi\n  0x00\n  dup1\n  revert\ntag_1:\n  pop\n  mload(0x40)\n  sub(codesize, bytecodeSize)\n  dup1\n  bytecodeSize\n  dup4\n  codecopy\n  dup2\n  dup2\n  add\n  0x40\n  mstore\n  dup2\n  add\n  swap1\n  tag_2\n  swap2\n  swap1\n  tag_3\n  jump\t// in\ntag_2:\n    /* \"contracts/EscrowERC721.sol\":509:515  _token */\n  dup1\n    /* \"contracts/EscrowERC721.sol\":501:506  token */\n  0x01\n  0x00\n    /* \"contracts/EscrowERC721.sol\":501:515  token = _token */\n  0x0100\n  exp\n  dup2\n  sload\n  dup2\n  0xffffffffffffffffffffffffffffffffffffffff\n  mul\n  not\n  and\n  swap1\n  dup4\n  0xffffffffffffffffffffffffffffffffffffffff\n  and\n  mul\n  or\n  swap1\n  sstore\n  pop\n    /* \"contracts/EscrowERC721.sol\":463:522  constructor(IERC721 _token) {... */\n  pop\n    /* \"contracts/EscrowERC721.sol\":178:945  contract EscrowERC721 {... */\n  jump(tag_6)\n    /* \"#utility.yul\":7:180   */\ntag_8:\n    /* \"#utility.yul\":79:84   */\n  0x00\n    /* \"#utility.yul\":110:116   */\n  dup2\n    /* \"#utility.yul\":104:117   */\n  mload\n    /* \"#utility.yul\":95:117   */\n  swap1\n  pop\n    /* \"#utility.yul\":126:174   */\n  tag_10\n    /* \"#utility.yul\":168:173   */\n  dup2\n    /* \"#utility.yul\":126:174   */\n  tag_11\n  jump\t// in\ntag_10:\n    /* \"#utility.yul\":7:180   */\n  swap3\n  swap2\n  pop\n  pop\n  jump\t// out\n    /* \"#utility.yul\":186:567   */\ntag_3:\n    /* \"#utility.yul\":271:277   */\n  0x00\n    /* \"#utility.yul\":320:322   */\n  0x20\n    /* \"#utility.yul\":308:317   */\n  dup3\n    /* \"#utility.yul\":299:306   */\n  dup5\n    /* \"#utility.yul\":295:318   */\n  sub\n    /* \"#utility.yul\":291:323   */\n  slt\n    /* \"#utility.yul\":288:407   */\n  iszero\n  tag_13\n  jumpi\n    /* \"#utility.yul\":326:405   */\n  tag_14\n  tag_15\n  jump\t// in\ntag_14:\n    /* \"#utility.yul\":288:407   */\ntag_13:\n    /* \"#utility.yul\":446:447   */\n  0x00\n    /* \"#utility.yul\":471:550   */\n  tag_16\n    /* \"#utility.yul\":542:549   */\n  dup5\n    /* \"#utility.yul\":533:539   */\n  dup3\n    /* \"#utility.yul\":522:531   */\n  dup6\n    /* \"#utility.yul\":518:540   */\n  add\n    /* \"#utility.yul\":471:550   */\n  tag_8\n  jump\t// in\ntag_16:\n    /* \"#utility.yul\":461:550   */\n  swap2\n  pop\n    /* \"#utility.yul\":417:560   */\n  pop\n    /* \"#utility.yul\":186:567   */\n  swap3\n  swap2\n  pop\n  pop\n  jump\t// out\n    /* \"#utility.yul\":654:750   */\ntag_19:\n    /* \"#utility.yul\":691:698   */\n  0x00\n    /* \"#utility.yul\":720:744   */\n  tag_21\n    /* \"#utility.yul\":738:743   */\n  dup3\n    /* \"#utility.yul\":720:744   */\n  tag_22\n  jump\t// in\ntag_21:\n    /* \"#utility.yul\":709:744   */\n  swap1\n  pop\n    /* \"#utility.yul\":654:750   */\n  swap2\n  swap1\n  pop\n  jump\t// out\n    /* \"#utility.yul\":756:867   */\ntag_23:\n    /* \"#utility.yul\":808:815   */\n  0x00\n    /* \"#utility.yul\":837:861   */\n  tag_25\n    /* \"#utility.yul\":855:860   */\n  dup3\n    /* \"#utility.yul\":837:861   */\n  tag_19\n  jump\t// in\ntag_25:\n    /* \"#utility.yul\":826:861   */\n  swap1\n  pop\n    /* \"#utility.yul\":756:867   */\n  swap2\n  swap1\n  pop\n  jump\t// out\n    /* \"#utility.yul\":873:999   */\ntag_22:\n    /* \"#utility.yul\":910:917   */\n  0x00\n    /* \"#utility.yul\":950:992   */\n  0xffffffffffffffffffffffffffffffffffffffff\n    /* \"#utility.yul\":943:948   */\n  dup3\n    /* \"#utility.yul\":939:993   */\n  and\n    /* \"#utility.yul\":928:993   */\n  swap1\n  pop\n    /* \"#utility.yul\":873:999   */\n  swap2\n  swap1\n  pop\n  jump\t// out\n    /* \"#utility.yul\":1128:1245   */\ntag_15:\n    /* \"#utility.yul\":1237:1238   */\n  0x00\n    /* \"#utility.yul\":1234:1235   */\n  dup1\n    /* \"#utility.yul\":1227:1239   */\n  revert\n    /* \"#utility.yul\":1251:1403   */\ntag_11:\n    /* \"#utility.yul\":1339:1378   */\n  tag_31\n    /* \"#utility.yul\":1372:1377   */\n  dup2\n    /* \"#utility.yul\":1339:1378   */\n  tag_23\n  jump\t// in\ntag_31:\n    /* \"#utility.yul\":1332:1337   */\n  dup2\n    /* \"#utility.yul\":1329:1379   */\n  eq\n    /* \"#utility.yul\":1319:1397   */\n  tag_32\n  jumpi\n    /* \"#utility.yul\":1393:1394   */\n  0x00\n    /* \"#utility.yul\":1390:1391   */\n  dup1\n    /* \"#utility.yul\":1383:1395   */\n  revert\n    /* \"#utility.yul\":1319:1397   */\ntag_32:\n    /* \"#utility.yul\":1251:1403   */\n  pop\n  jump\t// out\n    /* \"contracts/EscrowERC721.sol\":178:945  contract EscrowERC721 {... */\ntag_6:\n  dataSize(sub_0)\n  dup1\n  dataOffset(sub_0)\n  0x00\n  codecopy\n  0x00\n  return\nstop\n\nsub_0: assembly {\n        /* \"contracts/EscrowERC721.sol\":178:945  contract EscrowERC721 {... */\n      mstore(0x40, 0x80)\n      callvalue\n      dup1\n      iszero\n      tag_1\n      jumpi\n      0x00\n      dup1\n      revert\n    tag_1:\n      pop\n      jumpi(tag_2, lt(calldatasize, 0x04))\n      shr(0xe0, calldataload(0x00))\n      dup1\n      0x47e7ef24\n      eq\n      tag_3\n      jumpi\n      dup1\n      0xbfb231d2\n      eq\n      tag_4\n      jumpi\n    tag_2:\n      0x00\n      dup1\n      revert\n        /* \"contracts/EscrowERC721.sol\":528:943  function deposit(address _receiver, uint256 _itemId) public {... */\n    tag_3:\n      tag_5\n      0x04\n      dup1\n      calldatasize\n      sub\n      dup2\n      add\n      swap1\n      tag_6\n      swap2\n      swap1\n      tag_7\n      jump\t// in\n    tag_6:\n      tag_8\n      jump\t// in\n    tag_5:\n      stop\n        /* \"contracts/EscrowERC721.sol\":413:456  mapping(uint256 => ERC721Item) public items */\n    tag_4:\n      tag_9\n      0x04\n      dup1\n      calldatasize\n      sub\n      dup2\n      add\n      swap1\n      tag_10\n      swap2\n      swap1\n      tag_11\n      jump\t// in\n    tag_10:\n      tag_12\n      jump\t// in\n    tag_9:\n      mload(0x40)\n      tag_13\n      swap4\n      swap3\n      swap2\n      swap1\n      tag_14\n      jump\t// in\n    tag_13:\n      mload(0x40)\n      dup1\n      swap2\n      sub\n      swap1\n      return\n        /* \"contracts/EscrowERC721.sol\":528:943  function deposit(address _receiver, uint256 _itemId) public {... */\n    tag_8:\n        /* \"contracts/EscrowERC721.sol\":620:625  token */\n      0x01\n      0x00\n      swap1\n      sload\n      swap1\n      0x0100\n      exp\n      swap1\n      div\n      0xffffffffffffffffffffffffffffffffffffffff\n      and\n        /* \"contracts/EscrowERC721.sol\":620:633  token.ownerOf */\n      0xffffffffffffffffffffffffffffffffffffffff\n      and\n      0x6352211e\n        /* \"contracts/EscrowERC721.sol\":634:641  _itemId */\n      dup3\n        /* \"contracts/EscrowERC721.sol\":620:642  token.ownerOf(_itemId) */\n      mload(0x40)\n      dup3\n      0xffffffff\n      and\n      0xe0\n      shl\n      dup2\n      mstore\n      0x04\n      add\n      tag_16\n      swap2\n      swap1\n      tag_17\n      jump\t// in\n    tag_16:\n      0x20\n      mload(0x40)\n      dup1\n      dup4\n      sub\n      dup2\n      dup7\n      dup1\n      extcodesize\n      iszero\n      dup1\n      iszero\n      tag_18\n      jumpi\n      0x00\n      dup1\n      revert\n    tag_18:\n      pop\n      gas\n      staticcall\n      iszero\n      dup1\n      iszero\n      tag_20\n      jumpi\n      returndatasize\n      0x00\n      dup1\n      returndatacopy\n      revert(0x00, returndatasize)\n    tag_20:\n      pop\n      pop\n      pop\n      pop\n      mload(0x40)\n      returndatasize\n      not(0x1f)\n      0x1f\n      dup3\n      add\n      and\n      dup3\n      add\n      dup1\n      0x40\n      mstore\n      pop\n      dup2\n      add\n      swap1\n      tag_21\n      swap2\n      swap1\n      tag_22\n      jump\t// in\n    tag_21:\n        /* \"contracts/EscrowERC721.sol\":606:642  msg.sender == token.ownerOf(_itemId) */\n      0xffffffffffffffffffffffffffffffffffffffff\n      and\n        /* \"contracts/EscrowERC721.sol\":606:616  msg.sender */\n      caller\n        /* \"contracts/EscrowERC721.sol\":606:642  msg.sender == token.ownerOf(_itemId) */\n      0xffffffffffffffffffffffffffffffffffffffff\n      and\n      eq\n        /* \"contracts/EscrowERC721.sol\":598:659  require(msg.sender == token.ownerOf(_itemId), \"Not an owner\") */\n      tag_23\n      jumpi\n      mload(0x40)\n      0x08c379a000000000000000000000000000000000000000000000000000000000\n      dup2\n      mstore\n      0x04\n      add\n      tag_24\n      swap1\n      tag_25\n      jump\t// in\n    tag_24:\n      mload(0x40)\n      dup1\n      swap2\n      sub\n      swap1\n      revert\n    tag_23:\n        /* \"contracts/EscrowERC721.sol\":670:691  _tokenIds.increment() */\n      tag_26\n        /* \"contracts/EscrowERC721.sol\":670:679  _tokenIds */\n      0x00\n        /* \"contracts/EscrowERC721.sol\":670:689  _tokenIds.increment */\n      tag_27\n        /* \"contracts/EscrowERC721.sol\":670:691  _tokenIds.increment() */\n      jump\t// in\n    tag_26:\n        /* \"contracts/EscrowERC721.sol\":702:712  uint256 id */\n      0x00\n        /* \"contracts/EscrowERC721.sol\":715:734  _tokenIds.current() */\n      tag_28\n        /* \"contracts/EscrowERC721.sol\":715:724  _tokenIds */\n      0x00\n        /* \"contracts/EscrowERC721.sol\":715:732  _tokenIds.current */\n      tag_29\n        /* \"contracts/EscrowERC721.sol\":715:734  _tokenIds.current() */\n      jump\t// in\n    tag_28:\n        /* \"contracts/EscrowERC721.sol\":702:734  uint256 id = _tokenIds.current() */\n      swap1\n      pop\n        /* \"contracts/EscrowERC721.sol\":744:749  token */\n      0x01\n      0x00\n      swap1\n      sload\n      swap1\n      0x0100\n      exp\n      swap1\n      div\n      0xffffffffffffffffffffffffffffffffffffffff\n      and\n        /* \"contracts/EscrowERC721.sol\":744:762  token.transferFrom */\n      0xffffffffffffffffffffffffffffffffffffffff\n      and\n      0x23b872dd\n        /* \"contracts/EscrowERC721.sol\":763:773  msg.sender */\n      caller\n        /* \"contracts/EscrowERC721.sol\":783:787  this */\n      address\n        /* \"contracts/EscrowERC721.sol\":790:797  _itemId */\n      dup6\n        /* \"contracts/EscrowERC721.sol\":744:798  token.transferFrom(msg.sender, address(this), _itemId) */\n      mload(0x40)\n      dup5\n      0xffffffff\n      and\n      0xe0\n      shl\n      dup2\n      mstore\n      0x04\n      add\n      tag_30\n      swap4\n      swap3\n      swap2\n      swap1\n      tag_14\n      jump\t// in\n    tag_30:\n      0x00\n      mload(0x40)\n      dup1\n      dup4\n      sub\n      dup2\n      0x00\n      dup8\n      dup1\n      extcodesize\n      iszero\n      dup1\n      iszero\n      tag_31\n      jumpi\n      0x00\n      dup1\n      revert\n    tag_31:\n      pop\n      gas\n      call\n      iszero\n      dup1\n      iszero\n      tag_33\n      jumpi\n      returndatasize\n      0x00\n      dup1\n      returndatacopy\n      revert(0x00, returndatasize)\n    tag_33:\n      pop\n      pop\n      pop\n      pop\n        /* \"contracts/EscrowERC721.sol\":820:936  ERC721Item({... */\n      mload(0x40)\n      dup1\n      0x60\n      add\n      0x40\n      mstore\n      dup1\n        /* \"contracts/EscrowERC721.sol\":853:863  msg.sender */\n      caller\n        /* \"contracts/EscrowERC721.sol\":820:936  ERC721Item({... */\n      0xffffffffffffffffffffffffffffffffffffffff\n      and\n      dup2\n      mstore\n      0x20\n      add\n        /* \"contracts/EscrowERC721.sol\":887:896  _receiver */\n      dup5\n        /* \"contracts/EscrowERC721.sol\":820:936  ERC721Item({... */\n      0xffffffffffffffffffffffffffffffffffffffff\n      and\n      dup2\n      mstore\n      0x20\n      add\n        /* \"contracts/EscrowERC721.sol\":918:925  _itemId */\n      dup4\n        /* \"contracts/EscrowERC721.sol\":820:936  ERC721Item({... */\n      dup2\n      mstore\n      pop\n        /* \"contracts/EscrowERC721.sol\":808:813  items */\n      0x02\n        /* \"contracts/EscrowERC721.sol\":808:817  items[id] */\n      0x00\n        /* \"contracts/EscrowERC721.sol\":814:816  id */\n      dup4\n        /* \"contracts/EscrowERC721.sol\":808:817  items[id] */\n      dup2\n      mstore\n      0x20\n      add\n      swap1\n      dup2\n      mstore\n      0x20\n      add\n      0x00\n      keccak256\n        /* \"contracts/EscrowERC721.sol\":808:936  items[id] = ERC721Item({... */\n      0x00\n      dup3\n      add\n      mload\n      dup2\n      0x00\n      add\n      exp(0x0100, 0x00)\n      dup2\n      sload\n      dup2\n      0xffffffffffffffffffffffffffffffffffffffff\n      mul\n      not\n      and\n      swap1\n      dup4\n      0xffffffffffffffffffffffffffffffffffffffff\n      and\n      mul\n      or\n      swap1\n      sstore\n      pop\n      0x20\n      dup3\n      add\n      mload\n      dup2\n      0x01\n      add\n      exp(0x0100, 0x00)\n      dup2\n      sload\n      dup2\n      0xffffffffffffffffffffffffffffffffffffffff\n      mul\n      not\n      and\n      swap1\n      dup4\n      0xffffffffffffffffffffffffffffffffffffffff\n      and\n      mul\n      or\n      swap1\n      sstore\n      pop\n      0x40\n      dup3\n      add\n      mload\n      dup2\n      0x02\n      add\n      sstore\n      swap1\n      pop\n      pop\n        /* \"contracts/EscrowERC721.sol\":588:943  {... */\n      pop\n        /* \"contracts/EscrowERC721.sol\":528:943  function deposit(address _receiver, uint256 _itemId) public {... */\n      pop\n      pop\n      jump\t// out\n        /* \"contracts/EscrowERC721.sol\":413:456  mapping(uint256 => ERC721Item) public items */\n    tag_12:\n      mstore(0x20, 0x02)\n      dup1\n      0x00\n      mstore\n      keccak256(0x00, 0x40)\n      0x00\n      swap2\n      pop\n      swap1\n      pop\n      dup1\n      0x00\n      add\n      0x00\n      swap1\n      sload\n      swap1\n      0x0100\n      exp\n      swap1\n      div\n      0xffffffffffffffffffffffffffffffffffffffff\n      and\n      swap1\n      dup1\n      0x01\n      add\n      0x00\n      swap1\n      sload\n      swap1\n      0x0100\n      exp\n      swap1\n      div\n      0xffffffffffffffffffffffffffffffffffffffff\n      and\n      swap1\n      dup1\n      0x02\n      add\n      sload\n      swap1\n      pop\n      dup4\n      jump\t// out\n        /* \"@openzeppelin/contracts/utils/Counters.sol\":945:1068  function increment(Counter storage counter) internal {... */\n    tag_27:\n        /* \"@openzeppelin/contracts/utils/Counters.sol\":1050:1051  1 */\n      0x01\n        /* \"@openzeppelin/contracts/utils/Counters.sol\":1032:1039  counter */\n      dup2\n        /* \"@openzeppelin/contracts/utils/Counters.sol\":1032:1046  counter._value */\n      0x00\n      add\n      0x00\n        /* \"@openzeppelin/contracts/utils/Counters.sol\":1032:1051  counter._value += 1 */\n      dup3\n      dup3\n      sload\n      add\n      swap3\n      pop\n      pop\n      dup2\n      swap1\n      sstore\n      pop\n        /* \"@openzeppelin/contracts/utils/Counters.sol\":945:1068  function increment(Counter storage counter) internal {... */\n      pop\n      jump\t// out\n        /* \"@openzeppelin/contracts/utils/Counters.sol\":827:939  function current(Counter storage counter) internal view returns (uint256) {... */\n    tag_29:\n        /* \"@openzeppelin/contracts/utils/Counters.sol\":892:899  uint256 */\n      0x00\n        /* \"@openzeppelin/contracts/utils/Counters.sol\":918:925  counter */\n      dup2\n        /* \"@openzeppelin/contracts/utils/Counters.sol\":918:932  counter._value */\n      0x00\n      add\n      sload\n        /* \"@openzeppelin/contracts/utils/Counters.sol\":911:932  return counter._value */\n      swap1\n      pop\n        /* \"@openzeppelin/contracts/utils/Counters.sol\":827:939  function current(Counter storage counter) internal view returns (uint256) {... */\n      swap2\n      swap1\n      pop\n      jump\t// out\n        /* \"#utility.yul\":7:146   */\n    tag_37:\n        /* \"#utility.yul\":53:58   */\n      0x00\n        /* \"#utility.yul\":91:97   */\n      dup2\n        /* \"#utility.yul\":78:98   */\n      calldataload\n        /* \"#utility.yul\":69:98   */\n      swap1\n      pop\n        /* \"#utility.yul\":107:140   */\n      tag_39\n        /* \"#utility.yul\":134:139   */\n      dup2\n        /* \"#utility.yul\":107:140   */\n      tag_40\n      jump\t// in\n    tag_39:\n        /* \"#utility.yul\":7:146   */\n      swap3\n      swap2\n      pop\n      pop\n      jump\t// out\n        /* \"#utility.yul\":152:295   */\n    tag_41:\n        /* \"#utility.yul\":209:214   */\n      0x00\n        /* \"#utility.yul\":240:246   */\n      dup2\n        /* \"#utility.yul\":234:247   */\n      mload\n        /* \"#utility.yul\":225:247   */\n      swap1\n      pop\n        /* \"#utility.yul\":256:289   */\n      tag_43\n        /* \"#utility.yul\":283:288   */\n      dup2\n        /* \"#utility.yul\":256:289   */\n      tag_40\n      jump\t// in\n    tag_43:\n        /* \"#utility.yul\":152:295   */\n      swap3\n      swap2\n      pop\n      pop\n      jump\t// out\n        /* \"#utility.yul\":301:440   */\n    tag_44:\n        /* \"#utility.yul\":347:352   */\n      0x00\n        /* \"#utility.yul\":385:391   */\n      dup2\n        /* \"#utility.yul\":372:392   */\n      calldataload\n        /* \"#utility.yul\":363:392   */\n      swap1\n      pop\n        /* \"#utility.yul\":401:434   */\n      tag_46\n        /* \"#utility.yul\":428:433   */\n      dup2\n        /* \"#utility.yul\":401:434   */\n      tag_47\n      jump\t// in\n    tag_46:\n        /* \"#utility.yul\":301:440   */\n      swap3\n      swap2\n      pop\n      pop\n      jump\t// out\n        /* \"#utility.yul\":446:797   */\n    tag_22:\n        /* \"#utility.yul\":516:522   */\n      0x00\n        /* \"#utility.yul\":565:567   */\n      0x20\n        /* \"#utility.yul\":553:562   */\n      dup3\n        /* \"#utility.yul\":544:551   */\n      dup5\n        /* \"#utility.yul\":540:563   */\n      sub\n        /* \"#utility.yul\":536:568   */\n      slt\n        /* \"#utility.yul\":533:652   */\n      iszero\n      tag_49\n      jumpi\n        /* \"#utility.yul\":571:650   */\n      tag_50\n      tag_51\n      jump\t// in\n    tag_50:\n        /* \"#utility.yul\":533:652   */\n    tag_49:\n        /* \"#utility.yul\":691:692   */\n      0x00\n        /* \"#utility.yul\":716:780   */\n      tag_52\n        /* \"#utility.yul\":772:779   */\n      dup5\n        /* \"#utility.yul\":763:769   */\n      dup3\n        /* \"#utility.yul\":752:761   */\n      dup6\n        /* \"#utility.yul\":748:770   */\n      add\n        /* \"#utility.yul\":716:780   */\n      tag_41\n      jump\t// in\n    tag_52:\n        /* \"#utility.yul\":706:780   */\n      swap2\n      pop\n        /* \"#utility.yul\":662:790   */\n      pop\n        /* \"#utility.yul\":446:797   */\n      swap3\n      swap2\n      pop\n      pop\n      jump\t// out\n        /* \"#utility.yul\":803:1277   */\n    tag_7:\n        /* \"#utility.yul\":871:877   */\n      0x00\n        /* \"#utility.yul\":879:885   */\n      dup1\n        /* \"#utility.yul\":928:930   */\n      0x40\n        /* \"#utility.yul\":916:925   */\n      dup4\n        /* \"#utility.yul\":907:914   */\n      dup6\n        /* \"#utility.yul\":903:926   */\n      sub\n        /* \"#utility.yul\":899:931   */\n      slt\n        /* \"#utility.yul\":896:1015   */\n      iszero\n      tag_54\n      jumpi\n        /* \"#utility.yul\":934:1013   */\n      tag_55\n      tag_51\n      jump\t// in\n    tag_55:\n        /* \"#utility.yul\":896:1015   */\n    tag_54:\n        /* \"#utility.yul\":1054:1055   */\n      0x00\n        /* \"#utility.yul\":1079:1132   */\n      tag_56\n        /* \"#utility.yul\":1124:1131   */\n      dup6\n        /* \"#utility.yul\":1115:1121   */\n      dup3\n        /* \"#utility.yul\":1104:1113   */\n      dup7\n        /* \"#utility.yul\":1100:1122   */\n      add\n        /* \"#utility.yul\":1079:1132   */\n      tag_37\n      jump\t// in\n    tag_56:\n        /* \"#utility.yul\":1069:1132   */\n      swap3\n      pop\n        /* \"#utility.yul\":1025:1142   */\n      pop\n        /* \"#utility.yul\":1181:1183   */\n      0x20\n        /* \"#utility.yul\":1207:1260   */\n      tag_57\n        /* \"#utility.yul\":1252:1259   */\n      dup6\n        /* \"#utility.yul\":1243:1249   */\n      dup3\n        /* \"#utility.yul\":1232:1241   */\n      dup7\n        /* \"#utility.yul\":1228:1250   */\n      add\n        /* \"#utility.yul\":1207:1260   */\n      tag_44\n      jump\t// in\n    tag_57:\n        /* \"#utility.yul\":1197:1260   */\n      swap2\n      pop\n        /* \"#utility.yul\":1152:1270   */\n      pop\n        /* \"#utility.yul\":803:1277   */\n      swap3\n      pop\n      swap3\n      swap1\n      pop\n      jump\t// out\n        /* \"#utility.yul\":1283:1612   */\n    tag_11:\n        /* \"#utility.yul\":1342:1348   */\n      0x00\n        /* \"#utility.yul\":1391:1393   */\n      0x20\n        /* \"#utility.yul\":1379:1388   */\n      dup3\n        /* \"#utility.yul\":1370:1377   */\n      dup5\n        /* \"#utility.yul\":1366:1389   */\n      sub\n        /* \"#utility.yul\":1362:1394   */\n      slt\n        /* \"#utility.yul\":1359:1478   */\n      iszero\n      tag_59\n      jumpi\n        /* \"#utility.yul\":1397:1476   */\n      tag_60\n      tag_51\n      jump\t// in\n    tag_60:\n        /* \"#utility.yul\":1359:1478   */\n    tag_59:\n        /* \"#utility.yul\":1517:1518   */\n      0x00\n        /* \"#utility.yul\":1542:1595   */\n      tag_61\n        /* \"#utility.yul\":1587:1594   */\n      dup5\n        /* \"#utility.yul\":1578:1584   */\n      dup3\n        /* \"#utility.yul\":1567:1576   */\n      dup6\n        /* \"#utility.yul\":1563:1585   */\n      add\n        /* \"#utility.yul\":1542:1595   */\n      tag_44\n      jump\t// in\n    tag_61:\n        /* \"#utility.yul\":1532:1595   */\n      swap2\n      pop\n        /* \"#utility.yul\":1488:1605   */\n      pop\n        /* \"#utility.yul\":1283:1612   */\n      swap3\n      swap2\n      pop\n      pop\n      jump\t// out\n        /* \"#utility.yul\":1618:1736   */\n    tag_62:\n        /* \"#utility.yul\":1705:1729   */\n      tag_64\n        /* \"#utility.yul\":1723:1728   */\n      dup2\n        /* \"#utility.yul\":1705:1729   */\n      tag_65\n      jump\t// in\n    tag_64:\n        /* \"#utility.yul\":1700:1703   */\n      dup3\n        /* \"#utility.yul\":1693:1730   */\n      mstore\n        /* \"#utility.yul\":1618:1736   */\n      pop\n      pop\n      jump\t// out\n        /* \"#utility.yul\":1742:2108   */\n    tag_66:\n        /* \"#utility.yul\":1884:1887   */\n      0x00\n        /* \"#utility.yul\":1905:1972   */\n      tag_68\n        /* \"#utility.yul\":1969:1971   */\n      0x0c\n        /* \"#utility.yul\":1964:1967   */\n      dup4\n        /* \"#utility.yul\":1905:1972   */\n      tag_69\n      jump\t// in\n    tag_68:\n        /* \"#utility.yul\":1898:1972   */\n      swap2\n      pop\n        /* \"#utility.yul\":1981:2074   */\n      tag_70\n        /* \"#utility.yul\":2070:2073   */\n      dup3\n        /* \"#utility.yul\":1981:2074   */\n      tag_71\n      jump\t// in\n    tag_70:\n        /* \"#utility.yul\":2099:2101   */\n      0x20\n        /* \"#utility.yul\":2094:2097   */\n      dup3\n        /* \"#utility.yul\":2090:2102   */\n      add\n        /* \"#utility.yul\":2083:2102   */\n      swap1\n      pop\n        /* \"#utility.yul\":1742:2108   */\n      swap2\n      swap1\n      pop\n      jump\t// out\n        /* \"#utility.yul\":2114:2232   */\n    tag_72:\n        /* \"#utility.yul\":2201:2225   */\n      tag_74\n        /* \"#utility.yul\":2219:2224   */\n      dup2\n        /* \"#utility.yul\":2201:2225   */\n      tag_75\n      jump\t// in\n    tag_74:\n        /* \"#utility.yul\":2196:2199   */\n      dup3\n        /* \"#utility.yul\":2189:2226   */\n      mstore\n        /* \"#utility.yul\":2114:2232   */\n      pop\n      pop\n      jump\t// out\n        /* \"#utility.yul\":2238:2680   */\n    tag_14:\n        /* \"#utility.yul\":2387:2391   */\n      0x00\n        /* \"#utility.yul\":2425:2427   */\n      0x60\n        /* \"#utility.yul\":2414:2423   */\n      dup3\n        /* \"#utility.yul\":2410:2428   */\n      add\n        /* \"#utility.yul\":2402:2428   */\n      swap1\n      pop\n        /* \"#utility.yul\":2438:2509   */\n      tag_77\n        /* \"#utility.yul\":2506:2507   */\n      0x00\n        /* \"#utility.yul\":2495:2504   */\n      dup4\n        /* \"#utility.yul\":2491:2508   */\n      add\n        /* \"#utility.yul\":2482:2488   */\n      dup7\n        /* \"#utility.yul\":2438:2509   */\n      tag_62\n      jump\t// in\n    tag_77:\n        /* \"#utility.yul\":2519:2591   */\n      tag_78\n        /* \"#utility.yul\":2587:2589   */\n      0x20\n        /* \"#utility.yul\":2576:2585   */\n      dup4\n        /* \"#utility.yul\":2572:2590   */\n      add\n        /* \"#utility.yul\":2563:2569   */\n      dup6\n        /* \"#utility.yul\":2519:2591   */\n      tag_62\n      jump\t// in\n    tag_78:\n        /* \"#utility.yul\":2601:2673   */\n      tag_79\n        /* \"#utility.yul\":2669:2671   */\n      0x40\n        /* \"#utility.yul\":2658:2667   */\n      dup4\n        /* \"#utility.yul\":2654:2672   */\n      add\n        /* \"#utility.yul\":2645:2651   */\n      dup5\n        /* \"#utility.yul\":2601:2673   */\n      tag_72\n      jump\t// in\n    tag_79:\n        /* \"#utility.yul\":2238:2680   */\n      swap5\n      swap4\n      pop\n      pop\n      pop\n      pop\n      jump\t// out\n        /* \"#utility.yul\":2686:3105   */\n    tag_25:\n        /* \"#utility.yul\":2852:2856   */\n      0x00\n        /* \"#utility.yul\":2890:2892   */\n      0x20\n        /* \"#utility.yul\":2879:2888   */\n      dup3\n        /* \"#utility.yul\":2875:2893   */\n      add\n        /* \"#utility.yul\":2867:2893   */\n      swap1\n      pop\n        /* \"#utility.yul\":2939:2948   */\n      dup2\n        /* \"#utility.yul\":2933:2937   */\n      dup2\n        /* \"#utility.yul\":2929:2949   */\n      sub\n        /* \"#utility.yul\":2925:2926   */\n      0x00\n        /* \"#utility.yul\":2914:2923   */\n      dup4\n        /* \"#utility.yul\":2910:2927   */\n      add\n        /* \"#utility.yul\":2903:2950   */\n      mstore\n        /* \"#utility.yul\":2967:3098   */\n      tag_81\n        /* \"#utility.yul\":3093:3097   */\n      dup2\n        /* \"#utility.yul\":2967:3098   */\n      tag_66\n      jump\t// in\n    tag_81:\n        /* \"#utility.yul\":2959:3098   */\n      swap1\n      pop\n        /* \"#utility.yul\":2686:3105   */\n      swap2\n      swap1\n      pop\n      jump\t// out\n        /* \"#utility.yul\":3111:3333   */\n    tag_17:\n        /* \"#utility.yul\":3204:3208   */\n      0x00\n        /* \"#utility.yul\":3242:3244   */\n      0x20\n        /* \"#utility.yul\":3231:3240   */\n      dup3\n        /* \"#utility.yul\":3227:3245   */\n      add\n        /* \"#utility.yul\":3219:3245   */\n      swap1\n      pop\n        /* \"#utility.yul\":3255:3326   */\n      tag_83\n        /* \"#utility.yul\":3323:3324   */\n      0x00\n        /* \"#utility.yul\":3312:3321   */\n      dup4\n        /* \"#utility.yul\":3308:3325   */\n      add\n        /* \"#utility.yul\":3299:3305   */\n      dup5\n        /* \"#utility.yul\":3255:3326   */\n      tag_72\n      jump\t// in\n    tag_83:\n        /* \"#utility.yul\":3111:3333   */\n      swap3\n      swap2\n      pop\n      pop\n      jump\t// out\n        /* \"#utility.yul\":3420:3589   */\n    tag_69:\n        /* \"#utility.yul\":3504:3515   */\n      0x00\n        /* \"#utility.yul\":3538:3544   */\n      dup3\n        /* \"#utility.yul\":3533:3536   */\n      dup3\n        /* \"#utility.yul\":3526:3545   */\n      mstore\n        /* \"#utility.yul\":3578:3582   */\n      0x20\n        /* \"#utility.yul\":3573:3576   */\n      dup3\n        /* \"#utility.yul\":3569:3583   */\n      add\n        /* \"#utility.yul\":3554:3583   */\n      swap1\n      pop\n        /* \"#utility.yul\":3420:3589   */\n      swap3\n      swap2\n      pop\n      pop\n      jump\t// out\n        /* \"#utility.yul\":3595:3691   */\n    tag_65:\n        /* \"#utility.yul\":3632:3639   */\n      0x00\n        /* \"#utility.yul\":3661:3685   */\n      tag_88\n        /* \"#utility.yul\":3679:3684   */\n      dup3\n        /* \"#utility.yul\":3661:3685   */\n      tag_89\n      jump\t// in\n    tag_88:\n        /* \"#utility.yul\":3650:3685   */\n      swap1\n      pop\n        /* \"#utility.yul\":3595:3691   */\n      swap2\n      swap1\n      pop\n      jump\t// out\n        /* \"#utility.yul\":3697:3823   */\n    tag_89:\n        /* \"#utility.yul\":3734:3741   */\n      0x00\n        /* \"#utility.yul\":3774:3816   */\n      0xffffffffffffffffffffffffffffffffffffffff\n        /* \"#utility.yul\":3767:3772   */\n      dup3\n        /* \"#utility.yul\":3763:3817   */\n      and\n        /* \"#utility.yul\":3752:3817   */\n      swap1\n      pop\n        /* \"#utility.yul\":3697:3823   */\n      swap2\n      swap1\n      pop\n      jump\t// out\n        /* \"#utility.yul\":3829:3906   */\n    tag_75:\n        /* \"#utility.yul\":3866:3873   */\n      0x00\n        /* \"#utility.yul\":3895:3900   */\n      dup2\n        /* \"#utility.yul\":3884:3900   */\n      swap1\n      pop\n        /* \"#utility.yul\":3829:3906   */\n      swap2\n      swap1\n      pop\n      jump\t// out\n        /* \"#utility.yul\":4035:4152   */\n    tag_51:\n        /* \"#utility.yul\":4144:4145   */\n      0x00\n        /* \"#utility.yul\":4141:4142   */\n      dup1\n        /* \"#utility.yul\":4134:4146   */\n      revert\n        /* \"#utility.yul\":4158:4320   */\n    tag_71:\n        /* \"#utility.yul\":4298:4312   */\n      0x4e6f7420616e206f776e65720000000000000000000000000000000000000000\n        /* \"#utility.yul\":4294:4295   */\n      0x00\n        /* \"#utility.yul\":4286:4292   */\n      dup3\n        /* \"#utility.yul\":4282:4296   */\n      add\n        /* \"#utility.yul\":4275:4313   */\n      mstore\n        /* \"#utility.yul\":4158:4320   */\n      pop\n      jump\t// out\n        /* \"#utility.yul\":4326:4448   */\n    tag_40:\n        /* \"#utility.yul\":4399:4423   */\n      tag_97\n        /* \"#utility.yul\":4417:4422   */\n      dup2\n        /* \"#utility.yul\":4399:4423   */\n      tag_65\n      jump\t// in\n    tag_97:\n        /* \"#utility.yul\":4392:4397   */\n      dup2\n        /* \"#utility.yul\":4389:4424   */\n      eq\n        /* \"#utility.yul\":4379:4442   */\n      tag_98\n      jumpi\n        /* \"#utility.yul\":4438:4439   */\n      0x00\n        /* \"#utility.yul\":4435:4436   */\n      dup1\n        /* \"#utility.yul\":4428:4440   */\n      revert\n        /* \"#utility.yul\":4379:4442   */\n    tag_98:\n        /* \"#utility.yul\":4326:4448   */\n      pop\n      jump\t// out\n        /* \"#utility.yul\":4454:4576   */\n    tag_47:\n        /* \"#utility.yul\":4527:4551   */\n      tag_100\n        /* \"#utility.yul\":4545:4550   */\n      dup2\n        /* \"#utility.yul\":4527:4551   */\n      tag_75\n      jump\t// in\n    tag_100:\n        /* \"#utility.yul\":4520:4525   */\n      dup2\n        /* \"#utility.yul\":4517:4552   */\n      eq\n        /* \"#utility.yul\":4507:4570   */\n      tag_101\n      jumpi\n        /* \"#utility.yul\":4566:4567   */\n      0x00\n        /* \"#utility.yul\":4563:4564   */\n      dup1\n        /* \"#utility.yul\":4556:4568   */\n      revert\n        /* \"#utility.yul\":4507:4570   */\n    tag_101:\n        /* \"#utility.yul\":4454:4576   */\n      pop\n      jump\t// out\n\n    auxdata: 0xa2646970667358221220bde115ffc93f9b77770b5364c628360877b00bf352eb95ed8fb647379bf3565a64736f6c63430008070033\n}\n",
				"bytecode": {
					"linkReferences": {},
					"object": "608060405234801561001057600080fd5b506040516107673803806107678339818101604052810190610032919061008e565b80600160006101000a81548173ffffffffffffffffffffffffffffffffffffffff021916908373ffffffffffffffffffffffffffffffffffffffff1602179055505061011b565b60008151905061008881610104565b92915050565b6000602082840312156100a4576100a36100ff565b5b60006100b284828501610079565b91505092915050565b60006100c6826100df565b9050919050565b60006100d8826100bb565b9050919050565b600073ffffffffffffffffffffffffffffffffffffffff82169050919050565b600080fd5b61010d816100cd565b811461011857600080fd5b50565b61063d8061012a6000396000f3fe608060405234801561001057600080fd5b50600436106100365760003560e01c806347e7ef241461003b578063bfb231d214610057575b600080fd5b6100556004803603810190610050919061043e565b610089565b005b610071600480360381019061006c919061047e565b610344565b604051610080939291906104ec565b60405180910390f35b600160009054906101000a900473ffffffffffffffffffffffffffffffffffffffff1673ffffffffffffffffffffffffffffffffffffffff16636352211e826040518263ffffffff1660e01b81526004016100e49190610543565b60206040518083038186803b1580156100fc57600080fd5b505afa158015610110573d6000803e3d6000fd5b505050506040513d601f19601f820116820180604052508101906101349190610411565b73ffffffffffffffffffffffffffffffffffffffff163373ffffffffffffffffffffffffffffffffffffffff16146101a1576040517f08c379a000000000000000000000000000000000000000000000000000000000815260040161019890610523565b60405180910390fd5b6101ab60006103ae565b60006101b760006103c4565b9050600160009054906101000a900473ffffffffffffffffffffffffffffffffffffffff1673ffffffffffffffffffffffffffffffffffffffff166323b872dd3330856040518463ffffffff1660e01b8152600401610218939291906104ec565b600060405180830381600087803b15801561023257600080fd5b505af1158015610246573d6000803e3d6000fd5b5050505060405180606001604052803373ffffffffffffffffffffffffffffffffffffffff1681526020018473ffffffffffffffffffffffffffffffffffffffff168152602001838152506002600083815260200190815260200160002060008201518160000160006101000a81548173ffffffffffffffffffffffffffffffffffffffff021916908373ffffffffffffffffffffffffffffffffffffffff16021790555060208201518160010160006101000a81548173ffffffffffffffffffffffffffffffffffffffff021916908373ffffffffffffffffffffffffffffffffffffffff16021790555060408201518160020155905050505050565b60026020528060005260406000206000915090508060000160009054906101000a900473ffffffffffffffffffffffffffffffffffffffff16908060010160009054906101000a900473ffffffffffffffffffffffffffffffffffffffff16908060020154905083565b6001816000016000828254019250508190555050565b600081600001549050919050565b6000813590506103e1816105d9565b92915050565b6000815190506103f6816105d9565b92915050565b60008135905061040b816105f0565b92915050565b600060208284031215610427576104266105ab565b5b6000610435848285016103e7565b91505092915050565b60008060408385031215610455576104546105ab565b5b6000610463858286016103d2565b9250506020610474858286016103fc565b9150509250929050565b600060208284031215610494576104936105ab565b5b60006104a2848285016103fc565b91505092915050565b6104b48161056f565b82525050565b60006104c7600c8361055e565b91506104d2826105b0565b602082019050919050565b6104e6816105a1565b82525050565b600060608201905061050160008301866104ab565b61050e60208301856104ab565b61051b60408301846104dd565b949350505050565b6000602082019050818103600083015261053c816104ba565b9050919050565b600060208201905061055860008301846104dd565b92915050565b600082825260208201905092915050565b600061057a82610581565b9050919050565b600073ffffffffffffffffffffffffffffffffffffffff82169050919050565b6000819050919050565b600080fd5b7f4e6f7420616e206f776e65720000000000000000000000000000000000000000600082015250565b6105e28161056f565b81146105ed57600080fd5b50565b6105f9816105a1565b811461060457600080fd5b5056fea2646970667358221220bde115ffc93f9b77770b5364c628360877b00bf352eb95ed8fb647379bf3565a64736f6c63430008070033",
					"opcodes": "PUSH1 0x80 PUSH1 0x40 MSTORE CALLVALUE DUP1 ISZERO PUSH2 0x10 JUMPI PUSH1 0x0 DUP1 REVERT JUMPDEST POP PUSH1 0x40 MLOAD PUSH2 0x767 CODESIZE SUB DUP1 PUSH2 0x767 DUP4 CODECOPY DUP2 DUP2 ADD PUSH1 0x40 MSTORE DUP2 ADD SWAP1 PUSH2 0x32 SWAP2 SWAP1 PUSH2 0x8E JUMP JUMPDEST DUP1 PUSH1 0x1 PUSH1 0x0 PUSH2 0x100 EXP DUP2 SLOAD DUP2 PUSH20 0xFFFFFFFFFFFFFFFFFFFFFFFFFFFFFFFFFFFFFFFF MUL NOT AND SWAP1 DUP4 PUSH20 0xFFFFFFFFFFFFFFFFFFFFFFFFFFFFFFFFFFFFFFFF AND MUL OR SWAP1 SSTORE POP POP PUSH2 0x11B JUMP JUMPDEST PUSH1 0x0 DUP2 MLOAD SWAP1 POP PUSH2 0x88 DUP2 PUSH2 0x104 JUMP JUMPDEST SWAP3 SWAP2 POP POP JUMP JUMPDEST PUSH1 0x0 PUSH1 0x20 DUP3 DUP5 SUB SLT ISZERO PUSH2 0xA4 JUMPI PUSH2 0xA3 PUSH2 0xFF JUMP JUMPDEST JUMPDEST PUSH1 0x0 PUSH2 0xB2 DUP5 DUP3 DUP6 ADD PUSH2 0x79 JUMP JUMPDEST SWAP2 POP POP SWAP3 SWAP2 POP POP JUMP JUMPDEST PUSH1 0x0 PUSH2 0xC6 DUP3 PUSH2 0xDF JUMP JUMPDEST SWAP1 POP SWAP2 SWAP1 POP JUMP JUMPDEST PUSH1 0x0 PUSH2 0xD8 DUP3 PUSH2 0xBB JUMP JUMPDEST SWAP1 POP SWAP2 SWAP1 POP JUMP JUMPDEST PUSH1 0x0 PUSH20 0xFFFFFFFFFFFFFFFFFFFFFFFFFFFFFFFFFFFFFFFF DUP3 AND SWAP1 POP SWAP2 SWAP1 POP JUMP JUMPDEST PUSH1 0x0 DUP1 REVERT JUMPDEST PUSH2 0x10D DUP2 PUSH2 0xCD JUMP JUMPDEST DUP2 EQ PUSH2 0x118 JUMPI PUSH1 0x0 DUP1 REVERT JUMPDEST POP JUMP JUMPDEST PUSH2 0x63D DUP1 PUSH2 0x12A PUSH1 0x0 CODECOPY PUSH1 0x0 RETURN INVALID PUSH1 0x80 PUSH1 0x40 MSTORE CALLVALUE DUP1 ISZERO PUSH2 0x10 JUMPI PUSH1 0x0 DUP1 REVERT JUMPDEST POP PUSH1 0x4 CALLDATASIZE LT PUSH2 0x36 JUMPI PUSH1 0x0 CALLDATALOAD PUSH1 0xE0 SHR DUP1 PUSH4 0x47E7EF24 EQ PUSH2 0x3B JUMPI DUP1 PUSH4 0xBFB231D2 EQ PUSH2 0x57 JUMPI JUMPDEST PUSH1 0x0 DUP1 REVERT JUMPDEST PUSH2 0x55 PUSH1 0x4 DUP1 CALLDATASIZE SUB DUP2 ADD SWAP1 PUSH2 0x50 SWAP2 SWAP1 PUSH2 0x43E JUMP JUMPDEST PUSH2 0x89 JUMP JUMPDEST STOP JUMPDEST PUSH2 0x71 PUSH1 0x4 DUP1 CALLDATASIZE SUB DUP2 ADD SWAP1 PUSH2 0x6C SWAP2 SWAP1 PUSH2 0x47E JUMP JUMPDEST PUSH2 0x344 JUMP JUMPDEST PUSH1 0x40 MLOAD PUSH2 0x80 SWAP4 SWAP3 SWAP2 SWAP1 PUSH2 0x4EC JUMP JUMPDEST PUSH1 0x40 MLOAD DUP1 SWAP2 SUB SWAP1 RETURN JUMPDEST PUSH1 0x1 PUSH1 0x0 SWAP1 SLOAD SWAP1 PUSH2 0x100 EXP SWAP1 DIV PUSH20 0xFFFFFFFFFFFFFFFFFFFFFFFFFFFFFFFFFFFFFFFF AND PUSH20 0xFFFFFFFFFFFFFFFFFFFFFFFFFFFFFFFFFFFFFFFF AND PUSH4 0x6352211E DUP3 PUSH1 0x40 MLOAD DUP3 PUSH4 0xFFFFFFFF AND PUSH1 0xE0 SHL DUP2 MSTORE PUSH1 0x4 ADD PUSH2 0xE4 SWAP2 SWAP1 PUSH2 0x543 JUMP JUMPDEST PUSH1 0x20 PUSH1 0x40 MLOAD DUP1 DUP4 SUB DUP2 DUP7 DUP1 EXTCODESIZE ISZERO DUP1 ISZERO PUSH2 0xFC JUMPI PUSH1 0x0 DUP1 REVERT JUMPDEST POP GAS STATICCALL ISZERO DUP1 ISZERO PUSH2 0x110 JUMPI RETURNDATASIZE PUSH1 0x0 DUP1 RETURNDATACOPY RETURNDATASIZE PUSH1 0x0 REVERT JUMPDEST POP POP POP POP PUSH1 0x40 MLOAD RETURNDATASIZE PUSH1 0x1F NOT PUSH1 0x1F DUP3 ADD AND DUP3 ADD DUP1 PUSH1 0x40 MSTORE POP DUP2 ADD SWAP1 PUSH2 0x134 SWAP2 SWAP1 PUSH2 0x411 JUMP JUMPDEST PUSH20 0xFFFFFFFFFFFFFFFFFFFFFFFFFFFFFFFFFFFFFFFF AND CALLER PUSH20 0xFFFFFFFFFFFFFFFFFFFFFFFFFFFFFFFFFFFFFFFF AND EQ PUSH2 0x1A1 JUMPI PUSH1 0x40 MLOAD PUSH32 0x8C379A000000000000000000000000000000000000000000000000000000000 DUP2 MSTORE PUSH1 0x4 ADD PUSH2 0x198 SWAP1 PUSH2 0x523 JUMP JUMPDEST PUSH1 0x40 MLOAD DUP1 SWAP2 SUB SWAP1 REVERT JUMPDEST PUSH2 0x1AB PUSH1 0x0 PUSH2 0x3AE JUMP JUMPDEST PUSH1 0x0 PUSH2 0x1B7 PUSH1 0x0 PUSH2 0x3C4 JUMP JUMPDEST SWAP1 POP PUSH1 0x1 PUSH1 0x0 SWAP1 SLOAD SWAP1 PUSH2 0x100 EXP SWAP1 DIV PUSH20 0xFFFFFFFFFFFFFFFFFFFFFFFFFFFFFFFFFFFFFFFF AND PUSH20 0xFFFFFFFFFFFFFFFFFFFFFFFFFFFFFFFFFFFFFFFF AND PUSH4 0x23B872DD CALLER ADDRESS DUP6 PUSH1 0x40 MLOAD DUP5 PUSH4 0xFFFFFFFF AND PUSH1 0xE0 SHL DUP2 MSTORE PUSH1 0x4 ADD PUSH2 0x218 SWAP4 SWAP3 SWAP2 SWAP1 PUSH2 0x4EC JUMP JUMPDEST PUSH1 0x0 PUSH1 0x40 MLOAD DUP1 DUP4 SUB DUP2 PUSH1 0x0 DUP8 DUP1 EXTCODESIZE ISZERO DUP1 ISZERO PUSH2 0x232 JUMPI PUSH1 0x0 DUP1 REVERT JUMPDEST POP GAS CALL ISZERO DUP1 ISZERO PUSH2 0x246 JUMPI RETURNDATASIZE PUSH1 0x0 DUP1 RETURNDATACOPY RETURNDATASIZE PUSH1 0x0 REVERT JUMPDEST POP POP POP POP PUSH1 0x40 MLOAD DUP1 PUSH1 0x60 ADD PUSH1 0x40 MSTORE DUP1 CALLER PUSH20 0xFFFFFFFFFFFFFFFFFFFFFFFFFFFFFFFFFFFFFFFF AND DUP2 MSTORE PUSH1 0x20 ADD DUP5 PUSH20 0xFFFFFFFFFFFFFFFFFFFFFFFFFFFFFFFFFFFFFFFF AND DUP2 MSTORE PUSH1 0x20 ADD DUP4 DUP2 MSTORE POP PUSH1 0x2 PUSH1 0x0 DUP4 DUP2 MSTORE PUSH1 0x20 ADD SWAP1 DUP2 MSTORE PUSH1 0x20 ADD PUSH1 0x0 KECCAK256 PUSH1 0x0 DUP3 ADD MLOAD DUP2 PUSH1 0x0 ADD PUSH1 0x0 PUSH2 0x100 EXP DUP2 SLOAD DUP2 PUSH20 0xFFFFFFFFFFFFFFFFFFFFFFFFFFFFFFFFFFFFFFFF MUL NOT AND SWAP1 DUP4 PUSH20 0xFFFFFFFFFFFFFFFFFFFFFFFFFFFFFFFFFFFFFFFF AND MUL OR SWAP1 SSTORE POP PUSH1 0x20 DUP3 ADD MLOAD DUP2 PUSH1 0x1 ADD PUSH1 0x0 PUSH2 0x100 EXP DUP2 SLOAD DUP2 PUSH20 0xFFFFFFFFFFFFFFFFFFFFFFFFFFFFFFFFFFFFFFFF MUL NOT AND SWAP1 DUP4 PUSH20 0xFFFFFFFFFFFFFFFFFFFFFFFFFFFFFFFFFFFFFFFF AND MUL OR SWAP1 SSTORE POP PUSH1 0x40 DUP3 ADD MLOAD DUP2 PUSH1 0x2 ADD SSTORE SWAP1 POP POP POP POP POP JUMP JUMPDEST PUSH1 0x2 PUSH1 0x20 MSTORE DUP1 PUSH1 0x0 MSTORE PUSH1 0x40 PUSH1 0x0 KECCAK256 PUSH1 0x0 SWAP2 POP SWAP1 POP DUP1 PUSH1 0x0 ADD PUSH1 0x0 SWAP1 SLOAD SWAP1 PUSH2 0x100 EXP SWAP1 DIV PUSH20 0xFFFFFFFFFFFFFFFFFFFFFFFFFFFFFFFFFFFFFFFF AND SWAP1 DUP1 PUSH1 0x1 ADD PUSH1 0x0 SWAP1 SLOAD SWAP1 PUSH2 0x100 EXP SWAP1 DIV PUSH20 0xFFFFFFFFFFFFFFFFFFFFFFFFFFFFFFFFFFFFFFFF AND SWAP1 DUP1 PUSH1 0x2 ADD SLOAD SWAP1 POP DUP4 JUMP JUMPDEST PUSH1 0x1 DUP2 PUSH1 0x0 ADD PUSH1 0x0 DUP3 DUP3 SLOAD ADD SWAP3 POP POP DUP2 SWAP1 SSTORE POP POP JUMP JUMPDEST PUSH1 0x0 DUP2 PUSH1 0x0 ADD SLOAD SWAP1 POP SWAP2 SWAP1 POP JUMP JUMPDEST PUSH1 0x0 DUP2 CALLDATALOAD SWAP1 POP PUSH2 0x3E1 DUP2 PUSH2 0x5D9 JUMP JUMPDEST SWAP3 SWAP2 POP POP JUMP JUMPDEST PUSH1 0x0 DUP2 MLOAD SWAP1 POP PUSH2 0x3F6 DUP2 PUSH2 0x5D9 JUMP JUMPDEST SWAP3 SWAP2 POP POP JUMP JUMPDEST PUSH1 0x0 DUP2 CALLDATALOAD SWAP1 POP PUSH2 0x40B DUP2 PUSH2 0x5F0 JUMP JUMPDEST SWAP3 SWAP2 POP POP JUMP JUMPDEST PUSH1 0x0 PUSH1 0x20 DUP3 DUP5 SUB SLT ISZERO PUSH2 0x427 JUMPI PUSH2 0x426 PUSH2 0x5AB JUMP JUMPDEST JUMPDEST PUSH1 0x0 PUSH2 0x435 DUP5 DUP3 DUP6 ADD PUSH2 0x3E7 JUMP JUMPDEST SWAP2 POP POP SWAP3 SWAP2 POP POP JUMP JUMPDEST PUSH1 0x0 DUP1 PUSH1 0x40 DUP4 DUP6 SUB SLT ISZERO PUSH2 0x455 JUMPI PUSH2 0x454 PUSH2 0x5AB JUMP JUMPDEST JUMPDEST PUSH1 0x0 PUSH2 0x463 DUP6 DUP3 DUP7 ADD PUSH2 0x3D2 JUMP JUMPDEST SWAP3 POP POP PUSH1 0x20 PUSH2 0x474 DUP6 DUP3 DUP7 ADD PUSH2 0x3FC JUMP JUMPDEST SWAP2 POP POP SWAP3 POP SWAP3 SWAP1 POP JUMP JUMPDEST PUSH1 0x0 PUSH1 0x20 DUP3 DUP5 SUB SLT ISZERO PUSH2 0x494 JUMPI PUSH2 0x493 PUSH2 0x5AB JUMP JUMPDEST JUMPDEST PUSH1 0x0 PUSH2 0x4A2 DUP5 DUP3 DUP6 ADD PUSH2 0x3FC JUMP JUMPDEST SWAP2 POP POP SWAP3 SWAP2 POP POP JUMP JUMPDEST PUSH2 0x4B4 DUP2 PUSH2 0x56F JUMP JUMPDEST DUP3 MSTORE POP POP JUMP JUMPDEST PUSH1 0x0 PUSH2 0x4C7 PUSH1 0xC DUP4 PUSH2 0x55E JUMP JUMPDEST SWAP2 POP PUSH2 0x4D2 DUP3 PUSH2 0x5B0 JUMP JUMPDEST PUSH1 0x20 DUP3 ADD SWAP1 POP SWAP2 SWAP1 POP JUMP JUMPDEST PUSH2 0x4E6 DUP2 PUSH2 0x5A1 JUMP JUMPDEST DUP3 MSTORE POP POP JUMP JUMPDEST PUSH1 0x0 PUSH1 0x60 DUP3 ADD SWAP1 POP PUSH2 0x501 PUSH1 0x0 DUP4 ADD DUP7 PUSH2 0x4AB JUMP JUMPDEST PUSH2 0x50E PUSH1 0x20 DUP4 ADD DUP6 PUSH2 0x4AB JUMP JUMPDEST PUSH2 0x51B PUSH1 0x40 DUP4 ADD DUP5 PUSH2 0x4DD JUMP JUMPDEST SWAP5 SWAP4 POP POP POP POP JUMP JUMPDEST PUSH1 0x0 PUSH1 0x20 DUP3 ADD SWAP1 POP DUP2 DUP2 SUB PUSH1 0x0 DUP4 ADD MSTORE PUSH2 0x53C DUP2 PUSH2 0x4BA JUMP JUMPDEST SWAP1 POP SWAP2 SWAP1 POP JUMP JUMPDEST PUSH1 0x0 PUSH1 0x20 DUP3 ADD SWAP1 POP PUSH2 0x558 PUSH1 0x0 DUP4 ADD DUP5 PUSH2 0x4DD JUMP JUMPDEST SWAP3 SWAP2 POP POP JUMP JUMPDEST PUSH1 0x0 DUP3 DUP3 MSTORE PUSH1 0x20 DUP3 ADD SWAP1 POP SWAP3 SWAP2 POP POP JUMP JUMPDEST PUSH1 0x0 PUSH2 0x57A DUP3 PUSH2 0x581 JUMP JUMPDEST SWAP1 POP SWAP2 SWAP1 POP JUMP JUMPDEST PUSH1 0x0 PUSH20 0xFFFFFFFFFFFFFFFFFFFFFFFFFFFFFFFFFFFFFFFF DUP3 AND SWAP1 POP SWAP2 SWAP1 POP JUMP JUMPDEST PUSH1 0x0 DUP2 SWAP1 POP SWAP2 SWAP1 POP JUMP JUMPDEST PUSH1 0x0 DUP1 REVERT JUMPDEST PUSH32 0x4E6F7420616E206F776E65720000000000000000000000000000000000000000 PUSH1 0x0 DUP3 ADD MSTORE POP JUMP JUMPDEST PUSH2 0x5E2 DUP2 PUSH2 0x56F JUMP JUMPDEST DUP2 EQ PUSH2 0x5ED JUMPI PUSH1 0x0 DUP1 REVERT JUMPDEST POP JUMP JUMPDEST PUSH2 0x5F9 DUP2 PUSH2 0x5A1 JUMP JUMPDEST DUP2 EQ PUSH2 0x604 JUMPI PUSH1 0x0 DUP1 REVERT JUMPDEST POP JUMP INVALID LOG2 PUSH5 0x6970667358 0x22 SLT KECCAK256 0xBD 0xE1 ISZERO SELFDESTRUCT 0xC9 EXTCODEHASH SWAP12 PUSH24 0x770B5364C628360877B00BF352EB95ED8FB647379BF3565A PUSH5 0x736F6C6343 STOP ADDMOD SMOD STOP CALLER "
				},
				"gasEstimates": {
					"creation": {
						"codeDepositCost": "319400",
						"executionCost": "infinite",
						"totalCost": "infinite"
					},
					"external": {
						"deposit(address,uint256)": "infinite",
						"items(uint256)": "infinite"
					}
				},
				"methodIdentifiers": {
					"deposit(address,uint256)": "47e7ef24",
					"items(uint256)": "bfb231d2"
				}
			},
			"storageLayout": {
				"storage": [
					{
						"astId": 212,
						"contract": "contracts/EscrowERC721.sol:EscrowERC721",
						"label": "_tokenIds",
						"offset": 0,
						"slot": "0",
						"type": "t_struct(Counter)121_storage"
					},
					{
						"astId": 215,
						"contract": "contracts/EscrowERC721.sol:EscrowERC721",
						"label": "token",
						"offset": 0,
						"slot": "1",
						"type": "t_contract(IERC721)115"
					},
					{
						"astId": 227,
						"contract": "contracts/EscrowERC721.sol:EscrowERC721",
						"label": "items",
						"offset": 0,
						"slot": "2",
						"type": "t_mapping(t_uint256,t_struct(ERC721Item)222_storage)"
					}
				],
				"types": {
					"t_address": {
						"encoding": "inplace",
						"label": "address",
						"numberOfBytes": "20"
					},
					"t_contract(IERC721)115": {
						"encoding": "inplace",
						"label": "contract IERC721",
						"numberOfBytes": "20"
					},
					"t_mapping(t_uint256,t_struct(ERC721Item)222_storage)": {
						"encoding": "mapping",
						"key": "t_uint256",
						"label": "mapping(uint256 => struct EscrowERC721.ERC721Item)",
						"numberOfBytes": "32",
						"value": "t_struct(ERC721Item)222_storage"
					},
					"t_struct(Counter)121_storage": {
						"encoding": "inplace",
						"label": "struct Counters.Counter",
						"members": [
							{
								"astId": 120,
								"contract": "contracts/EscrowERC721.sol:EscrowERC721",
								"label": "_value",
								"offset": 0,
								"slot": "0",
								"type": "t_uint256"
							}
						],
						"numberOfBytes": "32"
					},
					"t_struct(ERC721Item)222_storage": {
						"encoding": "inplace",
						"label": "struct EscrowERC721.ERC721Item",
						"members": [
							{
								"astId": 217,
								"contract": "contracts/EscrowERC721.sol:EscrowERC721",
								"label": "sender",
								"offset": 0,
								"slot": "0",
								"type": "t_address"
							},
							{
								"astId": 219,
								"contract": "contracts/EscrowERC721.sol:EscrowERC721",
								"label": "receiver",
								"offset": 0,
								"slot": "1",
								"type": "t_address"
							},
							{
								"astId": 221,
								"contract": "contracts/EscrowERC721.sol:EscrowERC721",
								"label": "itemId",
								"offset": 0,
								"slot": "2",
								"type": "t_uint256"
							}
						],
						"numberOfBytes": "96"
					},
					"t_uint256": {
						"encoding": "inplace",
						"label": "uint256",
						"numberOfBytes": "32"
					}
				}
			},
			"userdoc": {
				"kind": "user",
				"methods": {},
				"version": 1
			}
		}
	}
}