{
	"contracts/Escrow.sol": {
		"Escrow": {
			"abi": [
				{
					"anonymous": false,
					"inputs": [
						{
							"indexed": false,
							"internalType": "address",
							"name": "receiver",
							"type": "address"
						},
						{
							"indexed": false,
							"internalType": "uint256",
							"name": "amount",
							"type": "uint256"
						}
					],
					"name": "Withdraw",
					"type": "event"
				},
				{
					"stateMutability": "payable",
					"type": "fallback"
				},
				{
					"inputs": [
						{
							"internalType": "address",
							"name": "",
							"type": "address"
						}
					],
					"name": "balances",
					"outputs": [
						{
							"internalType": "uint256",
							"name": "",
							"type": "uint256"
						}
					],
					"stateMutability": "view",
					"type": "function"
				},
				{
					"inputs": [
						{
							"internalType": "address payable",
							"name": "_receiver",
							"type": "address"
						}
					],
					"name": "deposit",
					"outputs": [],
					"stateMutability": "payable",
					"type": "function"
				},
				{
					"inputs": [
						{
							"internalType": "address",
							"name": "_addr",
							"type": "address"
						}
					],
					"name": "getBalanceByAddr",
					"outputs": [
						{
							"internalType": "uint256",
							"name": "_amount",
							"type": "uint256"
						}
					],
					"stateMutability": "view",
					"type": "function"
				},
				{
					"inputs": [],
					"name": "withdraw",
					"outputs": [],
					"stateMutability": "payable",
					"type": "function"
				},
				{
					"stateMutability": "payable",
					"type": "receive"
				}
			],
			"devdoc": {
				"kind": "dev",
				"methods": {},
				"version": 1
			},
			"evm": {
				"assembly": "    /* \"contracts/Escrow.sol\":123:931  contract Escrow {... */\n  mstore(0x40, 0x80)\n  callvalue\n  dup1\n  iszero\n  tag_1\n  jumpi\n  0x00\n  dup1\n  revert\ntag_1:\n  pop\n  dataSize(sub_0)\n  dup1\n  dataOffset(sub_0)\n  0x00\n  codecopy\n  0x00\n  return\nstop\n\nsub_0: assembly {\n        /* \"contracts/Escrow.sol\":123:931  contract Escrow {... */\n      mstore(0x40, 0x80)\n      jumpi(tag_1, lt(calldatasize, 0x04))\n      shr(0xe0, calldataload(0x00))\n      dup1\n      0x27e235e3\n      eq\n      tag_3\n      jumpi\n      dup1\n      0x3ccfd60b\n      eq\n      tag_4\n      jumpi\n      dup1\n      0x944419db\n      eq\n      tag_5\n      jumpi\n      dup1\n      0xf340fa01\n      eq\n      tag_6\n      jumpi\n      jump(tag_2)\n    tag_1:\n      jumpi(tag_2, calldatasize)\n        /* \"contracts/Escrow.sol\":306:315  msg.value */\n      callvalue\n        /* \"contracts/Escrow.sol\":282:290  balances */\n      0x00\n        /* \"contracts/Escrow.sol\":282:302  balances[msg.sender] */\n      dup1\n        /* \"contracts/Escrow.sol\":291:301  msg.sender */\n      caller\n        /* \"contracts/Escrow.sol\":282:302  balances[msg.sender] */\n      0xffffffffffffffffffffffffffffffffffffffff\n      and\n      0xffffffffffffffffffffffffffffffffffffffff\n      and\n      dup2\n      mstore\n      0x20\n      add\n      swap1\n      dup2\n      mstore\n      0x20\n      add\n      0x00\n      keccak256\n      0x00\n        /* \"contracts/Escrow.sol\":282:315  balances[msg.sender] += msg.value */\n      dup3\n      dup3\n      sload\n      tag_9\n      swap2\n      swap1\n      tag_10\n      jump\t// in\n    tag_9:\n      swap3\n      pop\n      pop\n      dup2\n      swap1\n      sstore\n      pop\n        /* \"contracts/Escrow.sol\":123:931  contract Escrow {... */\n      stop\n    tag_2:\n        /* \"contracts/Escrow.sol\":366:394  deposit(payable(msg.sender)) */\n      tag_13\n        /* \"contracts/Escrow.sol\":382:392  msg.sender */\n      caller\n        /* \"contracts/Escrow.sol\":366:373  deposit */\n      tag_14\n        /* \"contracts/Escrow.sol\":366:394  deposit(payable(msg.sender)) */\n      jump\t// in\n    tag_13:\n        /* \"contracts/Escrow.sol\":123:931  contract Escrow {... */\n      stop\n        /* \"contracts/Escrow.sol\":145:186  mapping (address => uint) public balances */\n    tag_3:\n      callvalue\n      dup1\n      iszero\n      tag_15\n      jumpi\n      0x00\n      dup1\n      revert\n    tag_15:\n      pop\n      tag_16\n      0x04\n      dup1\n      calldatasize\n      sub\n      dup2\n      add\n      swap1\n      tag_17\n      swap2\n      swap1\n      tag_18\n      jump\t// in\n    tag_17:\n      tag_19\n      jump\t// in\n    tag_16:\n      mload(0x40)\n      tag_20\n      swap2\n      swap1\n      tag_21\n      jump\t// in\n    tag_20:\n      mload(0x40)\n      dup1\n      swap2\n      sub\n      swap1\n      return\n        /* \"contracts/Escrow.sol\":600:811  function withdraw() external payable {... */\n    tag_4:\n      tag_22\n      tag_23\n      jump\t// in\n    tag_22:\n      stop\n        /* \"contracts/Escrow.sol\":817:929  function getBalanceByAddr(address _addr) public view returns(uint _amount) {... */\n    tag_5:\n      callvalue\n      dup1\n      iszero\n      tag_24\n      jumpi\n      0x00\n      dup1\n      revert\n    tag_24:\n      pop\n      tag_25\n      0x04\n      dup1\n      calldatasize\n      sub\n      dup2\n      add\n      swap1\n      tag_26\n      swap2\n      swap1\n      tag_18\n      jump\t// in\n    tag_26:\n      tag_27\n      jump\t// in\n    tag_25:\n      mload(0x40)\n      tag_28\n      swap2\n      swap1\n      tag_21\n      jump\t// in\n    tag_28:\n      mload(0x40)\n      dup1\n      swap2\n      sub\n      swap1\n      return\n        /* \"contracts/Escrow.sol\":407:594  function deposit(address payable _receiver) public payable {... */\n    tag_6:\n      tag_29\n      0x04\n      dup1\n      calldatasize\n      sub\n      dup2\n      add\n      swap1\n      tag_30\n      swap2\n      swap1\n      tag_31\n      jump\t// in\n    tag_30:\n      tag_14\n      jump\t// in\n    tag_29:\n      stop\n    tag_14:\n        /* \"contracts/Escrow.sol\":497:503  100e18 */\n      0x056bc75e2d63100000\n        /* \"contracts/Escrow.sol\":484:493  msg.value */\n      callvalue\n        /* \"contracts/Escrow.sol\":484:503  msg.value <= 100e18 */\n      gt\n      iszero\n        /* \"contracts/Escrow.sol\":476:545  require(msg.value <= 100e18, \"You can not send more than 100 ethers\") */\n      tag_33\n      jumpi\n      mload(0x40)\n      0x08c379a000000000000000000000000000000000000000000000000000000000\n      dup2\n      mstore\n      0x04\n      add\n      tag_34\n      swap1\n      tag_35\n      jump\t// in\n    tag_34:\n      mload(0x40)\n      dup1\n      swap2\n      sub\n      swap1\n      revert\n    tag_33:\n        /* \"contracts/Escrow.sol\":578:587  msg.value */\n      callvalue\n        /* \"contracts/Escrow.sol\":555:563  balances */\n      0x00\n        /* \"contracts/Escrow.sol\":555:574  balances[_receiver] */\n      dup1\n        /* \"contracts/Escrow.sol\":564:573  _receiver */\n      dup4\n        /* \"contracts/Escrow.sol\":555:574  balances[_receiver] */\n      0xffffffffffffffffffffffffffffffffffffffff\n      and\n      0xffffffffffffffffffffffffffffffffffffffff\n      and\n      dup2\n      mstore\n      0x20\n      add\n      swap1\n      dup2\n      mstore\n      0x20\n      add\n      0x00\n      keccak256\n      0x00\n        /* \"contracts/Escrow.sol\":555:587  balances[_receiver] += msg.value */\n      dup3\n      dup3\n      sload\n      tag_36\n      swap2\n      swap1\n      tag_10\n      jump\t// in\n    tag_36:\n      swap3\n      pop\n      pop\n      dup2\n      swap1\n      sstore\n      pop\n        /* \"contracts/Escrow.sol\":407:594  function deposit(address payable _receiver) public payable {... */\n      pop\n      jump\t// out\n        /* \"contracts/Escrow.sol\":145:186  mapping (address => uint) public balances */\n    tag_19:\n      mstore(0x20, 0x00)\n      dup1\n      0x00\n      mstore\n      keccak256(0x00, 0x40)\n      0x00\n      swap2\n      pop\n      swap1\n      pop\n      sload\n      dup2\n      jump\t// out\n        /* \"contracts/Escrow.sol\":600:811  function withdraw() external payable {... */\n    tag_23:\n        /* \"contracts/Escrow.sol\":647:658  uint amount */\n      0x00\n        /* \"contracts/Escrow.sol\":661:669  balances */\n      dup1\n        /* \"contracts/Escrow.sol\":661:681  balances[msg.sender] */\n      0x00\n        /* \"contracts/Escrow.sol\":670:680  msg.sender */\n      caller\n        /* \"contracts/Escrow.sol\":661:681  balances[msg.sender] */\n      0xffffffffffffffffffffffffffffffffffffffff\n      and\n      0xffffffffffffffffffffffffffffffffffffffff\n      and\n      dup2\n      mstore\n      0x20\n      add\n      swap1\n      dup2\n      mstore\n      0x20\n      add\n      0x00\n      keccak256\n      sload\n        /* \"contracts/Escrow.sol\":647:681  uint amount = balances[msg.sender] */\n      swap1\n      pop\n        /* \"contracts/Escrow.sol\":714:715  0 */\n      0x00\n        /* \"contracts/Escrow.sol\":691:699  balances */\n      dup1\n        /* \"contracts/Escrow.sol\":691:711  balances[msg.sender] */\n      0x00\n        /* \"contracts/Escrow.sol\":700:710  msg.sender */\n      caller\n        /* \"contracts/Escrow.sol\":691:711  balances[msg.sender] */\n      0xffffffffffffffffffffffffffffffffffffffff\n      and\n      0xffffffffffffffffffffffffffffffffffffffff\n      and\n      dup2\n      mstore\n      0x20\n      add\n      swap1\n      dup2\n      mstore\n      0x20\n      add\n      0x00\n      keccak256\n        /* \"contracts/Escrow.sol\":691:715  balances[msg.sender] = 0 */\n      dup2\n      swap1\n      sstore\n      pop\n        /* \"contracts/Escrow.sol\":733:743  msg.sender */\n      caller\n        /* \"contracts/Escrow.sol\":725:753  payable(msg.sender).transfer */\n      0xffffffffffffffffffffffffffffffffffffffff\n      and\n        /* \"contracts/Escrow.sol\":725:761  payable(msg.sender).transfer(amount) */\n      0x08fc\n        /* \"contracts/Escrow.sol\":754:760  amount */\n      dup3\n        /* \"contracts/Escrow.sol\":725:761  payable(msg.sender).transfer(amount) */\n      swap1\n      dup2\n      iszero\n      mul\n      swap1\n      mload(0x40)\n      0x00\n      mload(0x40)\n      dup1\n      dup4\n      sub\n      dup2\n      dup6\n      dup9\n      dup9\n      call\n      swap4\n      pop\n      pop\n      pop\n      pop\n      iszero\n      dup1\n      iszero\n      tag_39\n      jumpi\n      returndatasize\n      0x00\n      dup1\n      returndatacopy\n      revert(0x00, returndatasize)\n    tag_39:\n      pop\n        /* \"contracts/Escrow.sol\":776:804  Withdraw(msg.sender, amount) */\n      0x884edad9ce6fa2440d8a54cc123490eb96d2768479d49ff9c7366125a9424364\n        /* \"contracts/Escrow.sol\":785:795  msg.sender */\n      caller\n        /* \"contracts/Escrow.sol\":797:803  amount */\n      dup3\n        /* \"contracts/Escrow.sol\":776:804  Withdraw(msg.sender, amount) */\n      mload(0x40)\n      tag_40\n      swap3\n      swap2\n      swap1\n      tag_41\n      jump\t// in\n    tag_40:\n      mload(0x40)\n      dup1\n      swap2\n      sub\n      swap1\n      log1\n        /* \"contracts/Escrow.sol\":637:811  {... */\n      pop\n        /* \"contracts/Escrow.sol\":600:811  function withdraw() external payable {... */\n      jump\t// out\n        /* \"contracts/Escrow.sol\":817:929  function getBalanceByAddr(address _addr) public view returns(uint _amount) {... */\n    tag_27:\n        /* \"contracts/Escrow.sol\":878:890  uint _amount */\n      0x00\n        /* \"contracts/Escrow.sol\":907:915  balances */\n      dup1\n        /* \"contracts/Escrow.sol\":907:922  balances[_addr] */\n      0x00\n        /* \"contracts/Escrow.sol\":916:921  _addr */\n      dup4\n        /* \"contracts/Escrow.sol\":907:922  balances[_addr] */\n      0xffffffffffffffffffffffffffffffffffffffff\n      and\n      0xffffffffffffffffffffffffffffffffffffffff\n      and\n      dup2\n      mstore\n      0x20\n      add\n      swap1\n      dup2\n      mstore\n      0x20\n      add\n      0x00\n      keccak256\n      sload\n        /* \"contracts/Escrow.sol\":900:922  return balances[_addr] */\n      swap1\n      pop\n        /* \"contracts/Escrow.sol\":817:929  function getBalanceByAddr(address _addr) public view returns(uint _amount) {... */\n      swap2\n      swap1\n      pop\n      jump\t// out\n        /* \"#utility.yul\":7:146   */\n    tag_44:\n        /* \"#utility.yul\":53:58   */\n      0x00\n        /* \"#utility.yul\":91:97   */\n      dup2\n        /* \"#utility.yul\":78:98   */\n      calldataload\n        /* \"#utility.yul\":69:98   */\n      swap1\n      pop\n        /* \"#utility.yul\":107:140   */\n      tag_46\n        /* \"#utility.yul\":134:139   */\n      dup2\n        /* \"#utility.yul\":107:140   */\n      tag_47\n      jump\t// in\n    tag_46:\n        /* \"#utility.yul\":7:146   */\n      swap3\n      swap2\n      pop\n      pop\n      jump\t// out\n        /* \"#utility.yul\":152:307   */\n    tag_48:\n        /* \"#utility.yul\":206:211   */\n      0x00\n        /* \"#utility.yul\":244:250   */\n      dup2\n        /* \"#utility.yul\":231:251   */\n      calldataload\n        /* \"#utility.yul\":222:251   */\n      swap1\n      pop\n        /* \"#utility.yul\":260:301   */\n      tag_50\n        /* \"#utility.yul\":295:300   */\n      dup2\n        /* \"#utility.yul\":260:301   */\n      tag_51\n      jump\t// in\n    tag_50:\n        /* \"#utility.yul\":152:307   */\n      swap3\n      swap2\n      pop\n      pop\n      jump\t// out\n        /* \"#utility.yul\":313:642   */\n    tag_18:\n        /* \"#utility.yul\":372:378   */\n      0x00\n        /* \"#utility.yul\":421:423   */\n      0x20\n        /* \"#utility.yul\":409:418   */\n      dup3\n        /* \"#utility.yul\":400:407   */\n      dup5\n        /* \"#utility.yul\":396:419   */\n      sub\n        /* \"#utility.yul\":392:424   */\n      slt\n        /* \"#utility.yul\":389:508   */\n      iszero\n      tag_53\n      jumpi\n        /* \"#utility.yul\":427:506   */\n      tag_54\n      tag_55\n      jump\t// in\n    tag_54:\n        /* \"#utility.yul\":389:508   */\n    tag_53:\n        /* \"#utility.yul\":547:548   */\n      0x00\n        /* \"#utility.yul\":572:625   */\n      tag_56\n        /* \"#utility.yul\":617:624   */\n      dup5\n        /* \"#utility.yul\":608:614   */\n      dup3\n        /* \"#utility.yul\":597:606   */\n      dup6\n        /* \"#utility.yul\":593:615   */\n      add\n        /* \"#utility.yul\":572:625   */\n      tag_44\n      jump\t// in\n    tag_56:\n        /* \"#utility.yul\":562:625   */\n      swap2\n      pop\n        /* \"#utility.yul\":518:635   */\n      pop\n        /* \"#utility.yul\":313:642   */\n      swap3\n      swap2\n      pop\n      pop\n      jump\t// out\n        /* \"#utility.yul\":648:993   */\n    tag_31:\n        /* \"#utility.yul\":715:721   */\n      0x00\n        /* \"#utility.yul\":764:766   */\n      0x20\n        /* \"#utility.yul\":752:761   */\n      dup3\n        /* \"#utility.yul\":743:750   */\n      dup5\n        /* \"#utility.yul\":739:762   */\n      sub\n        /* \"#utility.yul\":735:767   */\n      slt\n        /* \"#utility.yul\":732:851   */\n      iszero\n      tag_58\n      jumpi\n        /* \"#utility.yul\":770:849   */\n      tag_59\n      tag_55\n      jump\t// in\n    tag_59:\n        /* \"#utility.yul\":732:851   */\n    tag_58:\n        /* \"#utility.yul\":890:891   */\n      0x00\n        /* \"#utility.yul\":915:976   */\n      tag_60\n        /* \"#utility.yul\":968:975   */\n      dup5\n        /* \"#utility.yul\":959:965   */\n      dup3\n        /* \"#utility.yul\":948:957   */\n      dup6\n        /* \"#utility.yul\":944:966   */\n      add\n        /* \"#utility.yul\":915:976   */\n      tag_48\n      jump\t// in\n    tag_60:\n        /* \"#utility.yul\":905:976   */\n      swap2\n      pop\n        /* \"#utility.yul\":861:986   */\n      pop\n        /* \"#utility.yul\":648:993   */\n      swap3\n      swap2\n      pop\n      pop\n      jump\t// out\n        /* \"#utility.yul\":999:1117   */\n    tag_61:\n        /* \"#utility.yul\":1086:1110   */\n      tag_63\n        /* \"#utility.yul\":1104:1109   */\n      dup2\n        /* \"#utility.yul\":1086:1110   */\n      tag_64\n      jump\t// in\n    tag_63:\n        /* \"#utility.yul\":1081:1084   */\n      dup3\n        /* \"#utility.yul\":1074:1111   */\n      mstore\n        /* \"#utility.yul\":999:1117   */\n      pop\n      pop\n      jump\t// out\n        /* \"#utility.yul\":1123:1489   */\n    tag_65:\n        /* \"#utility.yul\":1265:1268   */\n      0x00\n        /* \"#utility.yul\":1286:1353   */\n      tag_67\n        /* \"#utility.yul\":1350:1352   */\n      0x25\n        /* \"#utility.yul\":1345:1348   */\n      dup4\n        /* \"#utility.yul\":1286:1353   */\n      tag_68\n      jump\t// in\n    tag_67:\n        /* \"#utility.yul\":1279:1353   */\n      swap2\n      pop\n        /* \"#utility.yul\":1362:1455   */\n      tag_69\n        /* \"#utility.yul\":1451:1454   */\n      dup3\n        /* \"#utility.yul\":1362:1455   */\n      tag_70\n      jump\t// in\n    tag_69:\n        /* \"#utility.yul\":1480:1482   */\n      0x40\n        /* \"#utility.yul\":1475:1478   */\n      dup3\n        /* \"#utility.yul\":1471:1483   */\n      add\n        /* \"#utility.yul\":1464:1483   */\n      swap1\n      pop\n        /* \"#utility.yul\":1123:1489   */\n      swap2\n      swap1\n      pop\n      jump\t// out\n        /* \"#utility.yul\":1495:1613   */\n    tag_71:\n        /* \"#utility.yul\":1582:1606   */\n      tag_73\n        /* \"#utility.yul\":1600:1605   */\n      dup2\n        /* \"#utility.yul\":1582:1606   */\n      tag_74\n      jump\t// in\n    tag_73:\n        /* \"#utility.yul\":1577:1580   */\n      dup3\n        /* \"#utility.yul\":1570:1607   */\n      mstore\n        /* \"#utility.yul\":1495:1613   */\n      pop\n      pop\n      jump\t// out\n        /* \"#utility.yul\":1619:1951   */\n    tag_41:\n        /* \"#utility.yul\":1740:1744   */\n      0x00\n        /* \"#utility.yul\":1778:1780   */\n      0x40\n        /* \"#utility.yul\":1767:1776   */\n      dup3\n        /* \"#utility.yul\":1763:1781   */\n      add\n        /* \"#utility.yul\":1755:1781   */\n      swap1\n      pop\n        /* \"#utility.yul\":1791:1862   */\n      tag_76\n        /* \"#utility.yul\":1859:1860   */\n      0x00\n        /* \"#utility.yul\":1848:1857   */\n      dup4\n        /* \"#utility.yul\":1844:1861   */\n      add\n        /* \"#utility.yul\":1835:1841   */\n      dup6\n        /* \"#utility.yul\":1791:1862   */\n      tag_61\n      jump\t// in\n    tag_76:\n        /* \"#utility.yul\":1872:1944   */\n      tag_77\n        /* \"#utility.yul\":1940:1942   */\n      0x20\n        /* \"#utility.yul\":1929:1938   */\n      dup4\n        /* \"#utility.yul\":1925:1943   */\n      add\n        /* \"#utility.yul\":1916:1922   */\n      dup5\n        /* \"#utility.yul\":1872:1944   */\n      tag_71\n      jump\t// in\n    tag_77:\n        /* \"#utility.yul\":1619:1951   */\n      swap4\n      swap3\n      pop\n      pop\n      pop\n      jump\t// out\n        /* \"#utility.yul\":1957:2376   */\n    tag_35:\n        /* \"#utility.yul\":2123:2127   */\n      0x00\n        /* \"#utility.yul\":2161:2163   */\n      0x20\n        /* \"#utility.yul\":2150:2159   */\n      dup3\n        /* \"#utility.yul\":2146:2164   */\n      add\n        /* \"#utility.yul\":2138:2164   */\n      swap1\n      pop\n        /* \"#utility.yul\":2210:2219   */\n      dup2\n        /* \"#utility.yul\":2204:2208   */\n      dup2\n        /* \"#utility.yul\":2200:2220   */\n      sub\n        /* \"#utility.yul\":2196:2197   */\n      0x00\n        /* \"#utility.yul\":2185:2194   */\n      dup4\n        /* \"#utility.yul\":2181:2198   */\n      add\n        /* \"#utility.yul\":2174:2221   */\n      mstore\n        /* \"#utility.yul\":2238:2369   */\n      tag_79\n        /* \"#utility.yul\":2364:2368   */\n      dup2\n        /* \"#utility.yul\":2238:2369   */\n      tag_65\n      jump\t// in\n    tag_79:\n        /* \"#utility.yul\":2230:2369   */\n      swap1\n      pop\n        /* \"#utility.yul\":1957:2376   */\n      swap2\n      swap1\n      pop\n      jump\t// out\n        /* \"#utility.yul\":2382:2604   */\n    tag_21:\n        /* \"#utility.yul\":2475:2479   */\n      0x00\n        /* \"#utility.yul\":2513:2515   */\n      0x20\n        /* \"#utility.yul\":2502:2511   */\n      dup3\n        /* \"#utility.yul\":2498:2516   */\n      add\n        /* \"#utility.yul\":2490:2516   */\n      swap1\n      pop\n        /* \"#utility.yul\":2526:2597   */\n      tag_81\n        /* \"#utility.yul\":2594:2595   */\n      0x00\n        /* \"#utility.yul\":2583:2592   */\n      dup4\n        /* \"#utility.yul\":2579:2596   */\n      add\n        /* \"#utility.yul\":2570:2576   */\n      dup5\n        /* \"#utility.yul\":2526:2597   */\n      tag_71\n      jump\t// in\n    tag_81:\n        /* \"#utility.yul\":2382:2604   */\n      swap3\n      swap2\n      pop\n      pop\n      jump\t// out\n        /* \"#utility.yul\":2691:2860   */\n    tag_68:\n        /* \"#utility.yul\":2775:2786   */\n      0x00\n        /* \"#utility.yul\":2809:2815   */\n      dup3\n        /* \"#utility.yul\":2804:2807   */\n      dup3\n        /* \"#utility.yul\":2797:2816   */\n      mstore\n        /* \"#utility.yul\":2849:2853   */\n      0x20\n        /* \"#utility.yul\":2844:2847   */\n      dup3\n        /* \"#utility.yul\":2840:2854   */\n      add\n        /* \"#utility.yul\":2825:2854   */\n      swap1\n      pop\n        /* \"#utility.yul\":2691:2860   */\n      swap3\n      swap2\n      pop\n      pop\n      jump\t// out\n        /* \"#utility.yul\":2866:3171   */\n    tag_10:\n        /* \"#utility.yul\":2906:2909   */\n      0x00\n        /* \"#utility.yul\":2925:2945   */\n      tag_86\n        /* \"#utility.yul\":2943:2944   */\n      dup3\n        /* \"#utility.yul\":2925:2945   */\n      tag_74\n      jump\t// in\n    tag_86:\n        /* \"#utility.yul\":2920:2945   */\n      swap2\n      pop\n        /* \"#utility.yul\":2959:2979   */\n      tag_87\n        /* \"#utility.yul\":2977:2978   */\n      dup4\n        /* \"#utility.yul\":2959:2979   */\n      tag_74\n      jump\t// in\n    tag_87:\n        /* \"#utility.yul\":2954:2979   */\n      swap3\n      pop\n        /* \"#utility.yul\":3113:3114   */\n      dup3\n        /* \"#utility.yul\":3045:3111   */\n      0xffffffffffffffffffffffffffffffffffffffffffffffffffffffffffffffff\n        /* \"#utility.yul\":3041:3115   */\n      sub\n        /* \"#utility.yul\":3038:3039   */\n      dup3\n        /* \"#utility.yul\":3035:3116   */\n      gt\n        /* \"#utility.yul\":3032:3139   */\n      iszero\n      tag_88\n      jumpi\n        /* \"#utility.yul\":3119:3137   */\n      tag_89\n      tag_90\n      jump\t// in\n    tag_89:\n        /* \"#utility.yul\":3032:3139   */\n    tag_88:\n        /* \"#utility.yul\":3163:3164   */\n      dup3\n        /* \"#utility.yul\":3160:3161   */\n      dup3\n        /* \"#utility.yul\":3156:3165   */\n      add\n        /* \"#utility.yul\":3149:3165   */\n      swap1\n      pop\n        /* \"#utility.yul\":2866:3171   */\n      swap3\n      swap2\n      pop\n      pop\n      jump\t// out\n        /* \"#utility.yul\":3177:3273   */\n    tag_64:\n        /* \"#utility.yul\":3214:3221   */\n      0x00\n        /* \"#utility.yul\":3243:3267   */\n      tag_92\n        /* \"#utility.yul\":3261:3266   */\n      dup3\n        /* \"#utility.yul\":3243:3267   */\n      tag_93\n      jump\t// in\n    tag_92:\n        /* \"#utility.yul\":3232:3267   */\n      swap1\n      pop\n        /* \"#utility.yul\":3177:3273   */\n      swap2\n      swap1\n      pop\n      jump\t// out\n        /* \"#utility.yul\":3279:3383   */\n    tag_94:\n        /* \"#utility.yul\":3324:3331   */\n      0x00\n        /* \"#utility.yul\":3353:3377   */\n      tag_96\n        /* \"#utility.yul\":3371:3376   */\n      dup3\n        /* \"#utility.yul\":3353:3377   */\n      tag_93\n      jump\t// in\n    tag_96:\n        /* \"#utility.yul\":3342:3377   */\n      swap1\n      pop\n        /* \"#utility.yul\":3279:3383   */\n      swap2\n      swap1\n      pop\n      jump\t// out\n        /* \"#utility.yul\":3389:3515   */\n    tag_93:\n        /* \"#utility.yul\":3426:3433   */\n      0x00\n        /* \"#utility.yul\":3466:3508   */\n      0xffffffffffffffffffffffffffffffffffffffff\n        /* \"#utility.yul\":3459:3464   */\n      dup3\n        /* \"#utility.yul\":3455:3509   */\n      and\n        /* \"#utility.yul\":3444:3509   */\n      swap1\n      pop\n        /* \"#utility.yul\":3389:3515   */\n      swap2\n      swap1\n      pop\n      jump\t// out\n        /* \"#utility.yul\":3521:3598   */\n    tag_74:\n        /* \"#utility.yul\":3558:3565   */\n      0x00\n        /* \"#utility.yul\":3587:3592   */\n      dup2\n        /* \"#utility.yul\":3576:3592   */\n      swap1\n      pop\n        /* \"#utility.yul\":3521:3598   */\n      swap2\n      swap1\n      pop\n      jump\t// out\n        /* \"#utility.yul\":3604:3784   */\n    tag_90:\n        /* \"#utility.yul\":3652:3729   */\n      0x4e487b7100000000000000000000000000000000000000000000000000000000\n        /* \"#utility.yul\":3649:3650   */\n      0x00\n        /* \"#utility.yul\":3642:3730   */\n      mstore\n        /* \"#utility.yul\":3749:3753   */\n      0x11\n        /* \"#utility.yul\":3746:3747   */\n      0x04\n        /* \"#utility.yul\":3739:3754   */\n      mstore\n        /* \"#utility.yul\":3773:3777   */\n      0x24\n        /* \"#utility.yul\":3770:3771   */\n      0x00\n        /* \"#utility.yul\":3763:3778   */\n      revert\n        /* \"#utility.yul\":3913:4030   */\n    tag_55:\n        /* \"#utility.yul\":4022:4023   */\n      0x00\n        /* \"#utility.yul\":4019:4020   */\n      dup1\n        /* \"#utility.yul\":4012:4024   */\n      revert\n        /* \"#utility.yul\":4036:4260   */\n    tag_70:\n        /* \"#utility.yul\":4176:4210   */\n      0x596f752063616e206e6f742073656e64206d6f7265207468616e203130302065\n        /* \"#utility.yul\":4172:4173   */\n      0x00\n        /* \"#utility.yul\":4164:4170   */\n      dup3\n        /* \"#utility.yul\":4160:4174   */\n      add\n        /* \"#utility.yul\":4153:4211   */\n      mstore\n        /* \"#utility.yul\":4245:4252   */\n      0x7468657273000000000000000000000000000000000000000000000000000000\n        /* \"#utility.yul\":4240:4242   */\n      0x20\n        /* \"#utility.yul\":4232:4238   */\n      dup3\n        /* \"#utility.yul\":4228:4243   */\n      add\n        /* \"#utility.yul\":4221:4253   */\n      mstore\n        /* \"#utility.yul\":4036:4260   */\n      pop\n      jump\t// out\n        /* \"#utility.yul\":4266:4388   */\n    tag_47:\n        /* \"#utility.yul\":4339:4363   */\n      tag_105\n        /* \"#utility.yul\":4357:4362   */\n      dup2\n        /* \"#utility.yul\":4339:4363   */\n      tag_64\n      jump\t// in\n    tag_105:\n        /* \"#utility.yul\":4332:4337   */\n      dup2\n        /* \"#utility.yul\":4329:4364   */\n      eq\n        /* \"#utility.yul\":4319:4382   */\n      tag_106\n      jumpi\n        /* \"#utility.yul\":4378:4379   */\n      0x00\n        /* \"#utility.yul\":4375:4376   */\n      dup1\n        /* \"#utility.yul\":4368:4380   */\n      revert\n        /* \"#utility.yul\":4319:4382   */\n    tag_106:\n        /* \"#utility.yul\":4266:4388   */\n      pop\n      jump\t// out\n        /* \"#utility.yul\":4394:4532   */\n    tag_51:\n        /* \"#utility.yul\":4475:4507   */\n      tag_108\n        /* \"#utility.yul\":4501:4506   */\n      dup2\n        /* \"#utility.yul\":4475:4507   */\n      tag_94\n      jump\t// in\n    tag_108:\n        /* \"#utility.yul\":4468:4473   */\n      dup2\n        /* \"#utility.yul\":4465:4508   */\n      eq\n        /* \"#utility.yul\":4455:4526   */\n      tag_109\n      jumpi\n        /* \"#utility.yul\":4522:4523   */\n      0x00\n        /* \"#utility.yul\":4519:4520   */\n      dup1\n        /* \"#utility.yul\":4512:4524   */\n      revert\n        /* \"#utility.yul\":4455:4526   */\n    tag_109:\n        /* \"#utility.yul\":4394:4532   */\n      pop\n      jump\t// out\n\n    auxdata: 0xa26469706673582212200c5839dc42e10f8a2c0991f9374a02b9cc52fa44172350bcb917a1a824f50a4b64736f6c63430008070033\n}\n",
				"bytecode": {
					"linkReferences": {},
					"object": "608060405234801561001057600080fd5b5061061d806100206000396000f3fe6080604052600436106100435760003560e01c806327e235e3146100aa5780633ccfd60b146100e7578063944419db146100f1578063f340fa011461012e5761009f565b3661009f57346000803373ffffffffffffffffffffffffffffffffffffffff1673ffffffffffffffffffffffffffffffffffffffff16815260200190815260200160002060008282546100969190610492565b92505081905550005b6100a83361014a565b005b3480156100b657600080fd5b506100d160048036038101906100cc9190610382565b6101ee565b6040516100de9190610466565b60405180910390f35b6100ef610206565b005b3480156100fd57600080fd5b5061011860048036038101906101139190610382565b610310565b6040516101259190610466565b60405180910390f35b610148600480360381019061014391906103af565b61014a565b005b68056bc75e2d63100000341115610196576040517f08c379a000000000000000000000000000000000000000000000000000000000815260040161018d90610446565b60405180910390fd5b346000808373ffffffffffffffffffffffffffffffffffffffff1673ffffffffffffffffffffffffffffffffffffffff16815260200190815260200160002060008282546101e49190610492565b9250508190555050565b60006020528060005260406000206000915090505481565b60008060003373ffffffffffffffffffffffffffffffffffffffff1673ffffffffffffffffffffffffffffffffffffffff16815260200190815260200160002054905060008060003373ffffffffffffffffffffffffffffffffffffffff1673ffffffffffffffffffffffffffffffffffffffff168152602001908152602001600020819055503373ffffffffffffffffffffffffffffffffffffffff166108fc829081150290604051600060405180830381858888f193505050501580156102d3573d6000803e3d6000fd5b507f884edad9ce6fa2440d8a54cc123490eb96d2768479d49ff9c7366125a9424364338260405161030592919061041d565b60405180910390a150565b60008060008373ffffffffffffffffffffffffffffffffffffffff1673ffffffffffffffffffffffffffffffffffffffff168152602001908152602001600020549050919050565b600081359050610367816105b9565b92915050565b60008135905061037c816105d0565b92915050565b60006020828403121561039857610397610565565b5b60006103a684828501610358565b91505092915050565b6000602082840312156103c5576103c4610565565b5b60006103d38482850161036d565b91505092915050565b6103e5816104e8565b82525050565b60006103f8602583610481565b91506104038261056a565b604082019050919050565b6104178161052c565b82525050565b600060408201905061043260008301856103dc565b61043f602083018461040e565b9392505050565b6000602082019050818103600083015261045f816103eb565b9050919050565b600060208201905061047b600083018461040e565b92915050565b600082825260208201905092915050565b600061049d8261052c565b91506104a88361052c565b9250827fffffffffffffffffffffffffffffffffffffffffffffffffffffffffffffffff038211156104dd576104dc610536565b5b828201905092915050565b60006104f38261050c565b9050919050565b60006105058261050c565b9050919050565b600073ffffffffffffffffffffffffffffffffffffffff82169050919050565b6000819050919050565b7f4e487b7100000000000000000000000000000000000000000000000000000000600052601160045260246000fd5b600080fd5b7f596f752063616e206e6f742073656e64206d6f7265207468616e20313030206560008201527f7468657273000000000000000000000000000000000000000000000000000000602082015250565b6105c2816104e8565b81146105cd57600080fd5b50565b6105d9816104fa565b81146105e457600080fd5b5056fea26469706673582212200c5839dc42e10f8a2c0991f9374a02b9cc52fa44172350bcb917a1a824f50a4b64736f6c63430008070033",
					"opcodes": "PUSH1 0x80 PUSH1 0x40 MSTORE CALLVALUE DUP1 ISZERO PUSH2 0x10 JUMPI PUSH1 0x0 DUP1 REVERT JUMPDEST POP PUSH2 0x61D DUP1 PUSH2 0x20 PUSH1 0x0 CODECOPY PUSH1 0x0 RETURN INVALID PUSH1 0x80 PUSH1 0x40 MSTORE PUSH1 0x4 CALLDATASIZE LT PUSH2 0x43 JUMPI PUSH1 0x0 CALLDATALOAD PUSH1 0xE0 SHR DUP1 PUSH4 0x27E235E3 EQ PUSH2 0xAA JUMPI DUP1 PUSH4 0x3CCFD60B EQ PUSH2 0xE7 JUMPI DUP1 PUSH4 0x944419DB EQ PUSH2 0xF1 JUMPI DUP1 PUSH4 0xF340FA01 EQ PUSH2 0x12E JUMPI PUSH2 0x9F JUMP JUMPDEST CALLDATASIZE PUSH2 0x9F JUMPI CALLVALUE PUSH1 0x0 DUP1 CALLER PUSH20 0xFFFFFFFFFFFFFFFFFFFFFFFFFFFFFFFFFFFFFFFF AND PUSH20 0xFFFFFFFFFFFFFFFFFFFFFFFFFFFFFFFFFFFFFFFF AND DUP2 MSTORE PUSH1 0x20 ADD SWAP1 DUP2 MSTORE PUSH1 0x20 ADD PUSH1 0x0 KECCAK256 PUSH1 0x0 DUP3 DUP3 SLOAD PUSH2 0x96 SWAP2 SWAP1 PUSH2 0x492 JUMP JUMPDEST SWAP3 POP POP DUP2 SWAP1 SSTORE POP STOP JUMPDEST PUSH2 0xA8 CALLER PUSH2 0x14A JUMP JUMPDEST STOP JUMPDEST CALLVALUE DUP1 ISZERO PUSH2 0xB6 JUMPI PUSH1 0x0 DUP1 REVERT JUMPDEST POP PUSH2 0xD1 PUSH1 0x4 DUP1 CALLDATASIZE SUB DUP2 ADD SWAP1 PUSH2 0xCC SWAP2 SWAP1 PUSH2 0x382 JUMP JUMPDEST PUSH2 0x1EE JUMP JUMPDEST PUSH1 0x40 MLOAD PUSH2 0xDE SWAP2 SWAP1 PUSH2 0x466 JUMP JUMPDEST PUSH1 0x40 MLOAD DUP1 SWAP2 SUB SWAP1 RETURN JUMPDEST PUSH2 0xEF PUSH2 0x206 JUMP JUMPDEST STOP JUMPDEST CALLVALUE DUP1 ISZERO PUSH2 0xFD JUMPI PUSH1 0x0 DUP1 REVERT JUMPDEST POP PUSH2 0x118 PUSH1 0x4 DUP1 CALLDATASIZE SUB DUP2 ADD SWAP1 PUSH2 0x113 SWAP2 SWAP1 PUSH2 0x382 JUMP JUMPDEST PUSH2 0x310 JUMP JUMPDEST PUSH1 0x40 MLOAD PUSH2 0x125 SWAP2 SWAP1 PUSH2 0x466 JUMP JUMPDEST PUSH1 0x40 MLOAD DUP1 SWAP2 SUB SWAP1 RETURN JUMPDEST PUSH2 0x148 PUSH1 0x4 DUP1 CALLDATASIZE SUB DUP2 ADD SWAP1 PUSH2 0x143 SWAP2 SWAP1 PUSH2 0x3AF JUMP JUMPDEST PUSH2 0x14A JUMP JUMPDEST STOP JUMPDEST PUSH9 0x56BC75E2D63100000 CALLVALUE GT ISZERO PUSH2 0x196 JUMPI PUSH1 0x40 MLOAD PUSH32 0x8C379A000000000000000000000000000000000000000000000000000000000 DUP2 MSTORE PUSH1 0x4 ADD PUSH2 0x18D SWAP1 PUSH2 0x446 JUMP JUMPDEST PUSH1 0x40 MLOAD DUP1 SWAP2 SUB SWAP1 REVERT JUMPDEST CALLVALUE PUSH1 0x0 DUP1 DUP4 PUSH20 0xFFFFFFFFFFFFFFFFFFFFFFFFFFFFFFFFFFFFFFFF AND PUSH20 0xFFFFFFFFFFFFFFFFFFFFFFFFFFFFFFFFFFFFFFFF AND DUP2 MSTORE PUSH1 0x20 ADD SWAP1 DUP2 MSTORE PUSH1 0x20 ADD PUSH1 0x0 KECCAK256 PUSH1 0x0 DUP3 DUP3 SLOAD PUSH2 0x1E4 SWAP2 SWAP1 PUSH2 0x492 JUMP JUMPDEST SWAP3 POP POP DUP2 SWAP1 SSTORE POP POP JUMP JUMPDEST PUSH1 0x0 PUSH1 0x20 MSTORE DUP1 PUSH1 0x0 MSTORE PUSH1 0x40 PUSH1 0x0 KECCAK256 PUSH1 0x0 SWAP2 POP SWAP1 POP SLOAD DUP2 JUMP JUMPDEST PUSH1 0x0 DUP1 PUSH1 0x0 CALLER PUSH20 0xFFFFFFFFFFFFFFFFFFFFFFFFFFFFFFFFFFFFFFFF AND PUSH20 0xFFFFFFFFFFFFFFFFFFFFFFFFFFFFFFFFFFFFFFFF AND DUP2 MSTORE PUSH1 0x20 ADD SWAP1 DUP2 MSTORE PUSH1 0x20 ADD PUSH1 0x0 KECCAK256 SLOAD SWAP1 POP PUSH1 0x0 DUP1 PUSH1 0x0 CALLER PUSH20 0xFFFFFFFFFFFFFFFFFFFFFFFFFFFFFFFFFFFFFFFF AND PUSH20 0xFFFFFFFFFFFFFFFFFFFFFFFFFFFFFFFFFFFFFFFF AND DUP2 MSTORE PUSH1 0x20 ADD SWAP1 DUP2 MSTORE PUSH1 0x20 ADD PUSH1 0x0 KECCAK256 DUP2 SWAP1 SSTORE POP CALLER PUSH20 0xFFFFFFFFFFFFFFFFFFFFFFFFFFFFFFFFFFFFFFFF AND PUSH2 0x8FC DUP3 SWAP1 DUP2 ISZERO MUL SWAP1 PUSH1 0x40 MLOAD PUSH1 0x0 PUSH1 0x40 MLOAD DUP1 DUP4 SUB DUP2 DUP6 DUP9 DUP9 CALL SWAP4 POP POP POP POP ISZERO DUP1 ISZERO PUSH2 0x2D3 JUMPI RETURNDATASIZE PUSH1 0x0 DUP1 RETURNDATACOPY RETURNDATASIZE PUSH1 0x0 REVERT JUMPDEST POP PUSH32 0x884EDAD9CE6FA2440D8A54CC123490EB96D2768479D49FF9C7366125A9424364 CALLER DUP3 PUSH1 0x40 MLOAD PUSH2 0x305 SWAP3 SWAP2 SWAP1 PUSH2 0x41D JUMP JUMPDEST PUSH1 0x40 MLOAD DUP1 SWAP2 SUB SWAP1 LOG1 POP JUMP JUMPDEST PUSH1 0x0 DUP1 PUSH1 0x0 DUP4 PUSH20 0xFFFFFFFFFFFFFFFFFFFFFFFFFFFFFFFFFFFFFFFF AND PUSH20 0xFFFFFFFFFFFFFFFFFFFFFFFFFFFFFFFFFFFFFFFF AND DUP2 MSTORE PUSH1 0x20 ADD SWAP1 DUP2 MSTORE PUSH1 0x20 ADD PUSH1 0x0 KECCAK256 SLOAD SWAP1 POP SWAP2 SWAP1 POP JUMP JUMPDEST PUSH1 0x0 DUP2 CALLDATALOAD SWAP1 POP PUSH2 0x367 DUP2 PUSH2 0x5B9 JUMP JUMPDEST SWAP3 SWAP2 POP POP JUMP JUMPDEST PUSH1 0x0 DUP2 CALLDATALOAD SWAP1 POP PUSH2 0x37C DUP2 PUSH2 0x5D0 JUMP JUMPDEST SWAP3 SWAP2 POP POP JUMP JUMPDEST PUSH1 0x0 PUSH1 0x20 DUP3 DUP5 SUB SLT ISZERO PUSH2 0x398 JUMPI PUSH2 0x397 PUSH2 0x565 JUMP JUMPDEST JUMPDEST PUSH1 0x0 PUSH2 0x3A6 DUP5 DUP3 DUP6 ADD PUSH2 0x358 JUMP JUMPDEST SWAP2 POP POP SWAP3 SWAP2 POP POP JUMP JUMPDEST PUSH1 0x0 PUSH1 0x20 DUP3 DUP5 SUB SLT ISZERO PUSH2 0x3C5 JUMPI PUSH2 0x3C4 PUSH2 0x565 JUMP JUMPDEST JUMPDEST PUSH1 0x0 PUSH2 0x3D3 DUP5 DUP3 DUP6 ADD PUSH2 0x36D JUMP JUMPDEST SWAP2 POP POP SWAP3 SWAP2 POP POP JUMP JUMPDEST PUSH2 0x3E5 DUP2 PUSH2 0x4E8 JUMP JUMPDEST DUP3 MSTORE POP POP JUMP JUMPDEST PUSH1 0x0 PUSH2 0x3F8 PUSH1 0x25 DUP4 PUSH2 0x481 JUMP JUMPDEST SWAP2 POP PUSH2 0x403 DUP3 PUSH2 0x56A JUMP JUMPDEST PUSH1 0x40 DUP3 ADD SWAP1 POP SWAP2 SWAP1 POP JUMP JUMPDEST PUSH2 0x417 DUP2 PUSH2 0x52C JUMP JUMPDEST DUP3 MSTORE POP POP JUMP JUMPDEST PUSH1 0x0 PUSH1 0x40 DUP3 ADD SWAP1 POP PUSH2 0x432 PUSH1 0x0 DUP4 ADD DUP6 PUSH2 0x3DC JUMP JUMPDEST PUSH2 0x43F PUSH1 0x20 DUP4 ADD DUP5 PUSH2 0x40E JUMP JUMPDEST SWAP4 SWAP3 POP POP POP JUMP JUMPDEST PUSH1 0x0 PUSH1 0x20 DUP3 ADD SWAP1 POP DUP2 DUP2 SUB PUSH1 0x0 DUP4 ADD MSTORE PUSH2 0x45F DUP2 PUSH2 0x3EB JUMP JUMPDEST SWAP1 POP SWAP2 SWAP1 POP JUMP JUMPDEST PUSH1 0x0 PUSH1 0x20 DUP3 ADD SWAP1 POP PUSH2 0x47B PUSH1 0x0 DUP4 ADD DUP5 PUSH2 0x40E JUMP JUMPDEST SWAP3 SWAP2 POP POP JUMP JUMPDEST PUSH1 0x0 DUP3 DUP3 MSTORE PUSH1 0x20 DUP3 ADD SWAP1 POP SWAP3 SWAP2 POP POP JUMP JUMPDEST PUSH1 0x0 PUSH2 0x49D DUP3 PUSH2 0x52C JUMP JUMPDEST SWAP2 POP PUSH2 0x4A8 DUP4 PUSH2 0x52C JUMP JUMPDEST SWAP3 POP DUP3 PUSH32 0xFFFFFFFFFFFFFFFFFFFFFFFFFFFFFFFFFFFFFFFFFFFFFFFFFFFFFFFFFFFFFFFF SUB DUP3 GT ISZERO PUSH2 0x4DD JUMPI PUSH2 0x4DC PUSH2 0x536 JUMP JUMPDEST JUMPDEST DUP3 DUP3 ADD SWAP1 POP SWAP3 SWAP2 POP POP JUMP JUMPDEST PUSH1 0x0 PUSH2 0x4F3 DUP3 PUSH2 0x50C JUMP JUMPDEST SWAP1 POP SWAP2 SWAP1 POP JUMP JUMPDEST PUSH1 0x0 PUSH2 0x505 DUP3 PUSH2 0x50C JUMP JUMPDEST SWAP1 POP SWAP2 SWAP1 POP JUMP JUMPDEST PUSH1 0x0 PUSH20 0xFFFFFFFFFFFFFFFFFFFFFFFFFFFFFFFFFFFFFFFF DUP3 AND SWAP1 POP SWAP2 SWAP1 POP JUMP JUMPDEST PUSH1 0x0 DUP2 SWAP1 POP SWAP2 SWAP1 POP JUMP JUMPDEST PUSH32 0x4E487B7100000000000000000000000000000000000000000000000000000000 PUSH1 0x0 MSTORE PUSH1 0x11 PUSH1 0x4 MSTORE PUSH1 0x24 PUSH1 0x0 REVERT JUMPDEST PUSH1 0x0 DUP1 REVERT JUMPDEST PUSH32 0x596F752063616E206E6F742073656E64206D6F7265207468616E203130302065 PUSH1 0x0 DUP3 ADD MSTORE PUSH32 0x7468657273000000000000000000000000000000000000000000000000000000 PUSH1 0x20 DUP3 ADD MSTORE POP JUMP JUMPDEST PUSH2 0x5C2 DUP2 PUSH2 0x4E8 JUMP JUMPDEST DUP2 EQ PUSH2 0x5CD JUMPI PUSH1 0x0 DUP1 REVERT JUMPDEST POP JUMP JUMPDEST PUSH2 0x5D9 DUP2 PUSH2 0x4FA JUMP JUMPDEST DUP2 EQ PUSH2 0x5E4 JUMPI PUSH1 0x0 DUP1 REVERT JUMPDEST POP JUMP INVALID LOG2 PUSH5 0x6970667358 0x22 SLT KECCAK256 0xC PC CODECOPY 0xDC TIMESTAMP 0xE1 0xF DUP11 0x2C MULMOD SWAP2 0xF9 CALLDATACOPY 0x4A MUL 0xB9 0xCC MSTORE STATICCALL DIFFICULTY OR 0x23 POP 0xBC 0xB9 OR LOG1 0xA8 0x24 CREATE2 EXP 0x4B PUSH5 0x736F6C6343 STOP ADDMOD SMOD STOP CALLER "
				},
				"gasEstimates": {
					"creation": {
						"codeDepositCost": "313000",
						"executionCost": "349",
						"totalCost": "313349"
					},
					"external": {
						"": "infinite",
						"balances(address)": "2792",
						"deposit(address)": "infinite",
						"getBalanceByAddr(address)": "2863",
						"withdraw()": "infinite"
					}
				},
				"methodIdentifiers": {
					"balances(address)": "27e235e3",
					"deposit(address)": "f340fa01",
					"getBalanceByAddr(address)": "944419db",
					"withdraw()": "3ccfd60b"
				}
			},
			"storageLayout": {
				"storage": [
					{
						"astId": 84,
						"contract": "contracts/Escrow.sol:Escrow",
						"label": "balances",
						"offset": 0,
						"slot": "0",
						"type": "t_mapping(t_address,t_uint256)"
					}
				],
				"types": {
					"t_address": {
						"encoding": "inplace",
						"label": "address",
						"numberOfBytes": "20"
					},
					"t_mapping(t_address,t_uint256)": {
						"encoding": "mapping",
						"key": "t_address",
						"label": "mapping(address => uint256)",
						"numberOfBytes": "32",
						"value": "t_uint256"
					},
					"t_uint256": {
						"encoding": "inplace",
						"label": "uint256",
						"numberOfBytes": "32"
					}
				}
			},
			"userdoc": {
				"kind": "user",
				"methods": {},
				"version": 1
			}
		}
	}
}