{
	"contracts/EscrowERC721.sol": {
		"EscrowERC721": {
			"abi": [
				{
					"inputs": [
						{
							"internalType": "contract IERC721",
							"name": "_token",
							"type": "address"
						}
					],
					"stateMutability": "nonpayable",
					"type": "constructor"
				},
				{
					"inputs": [
						{
							"internalType": "address",
							"name": "_receiver",
							"type": "address"
						},
						{
							"internalType": "uint256",
							"name": "_itemId",
							"type": "uint256"
						}
					],
					"name": "deposit",
					"outputs": [],
					"stateMutability": "nonpayable",
					"type": "function"
				},
				{
					"inputs": [
						{
							"internalType": "uint256",
							"name": "",
							"type": "uint256"
						}
					],
					"name": "items",
					"outputs": [
						{
							"internalType": "address",
							"name": "sender",
							"type": "address"
						},
						{
							"internalType": "address",
							"name": "receiver",
							"type": "address"
						},
						{
							"internalType": "uint256",
							"name": "itemId",
							"type": "uint256"
						}
					],
					"stateMutability": "view",
					"type": "function"
				},
				{
					"inputs": [
						{
							"internalType": "uint256",
							"name": "transactionId",
							"type": "uint256"
						}
					],
					"name": "rollback",
					"outputs": [],
					"stateMutability": "nonpayable",
					"type": "function"
				},
				{
					"inputs": [
						{
							"internalType": "uint256",
							"name": "_id",
							"type": "uint256"
						}
					],
					"name": "withdraw",
					"outputs": [],
					"stateMutability": "nonpayable",
					"type": "function"
				}
			],
			"devdoc": {
				"kind": "dev",
				"methods": {},
				"version": 1
			},
			"evm": {
				"assembly": "    /* \"contracts/EscrowERC721.sol\":178:1502  contract EscrowERC721 {... */\n  mstore(0x40, 0x80)\n    /* \"contracts/EscrowERC721.sol\":472:531  constructor(IERC721 _token) {... */\n  callvalue\n  dup1\n  iszero\n  tag_1\n  jumpi\n  0x00\n  dup1\n  revert\ntag_1:\n  pop\n  mload(0x40)\n  sub(codesize, bytecodeSize)\n  dup1\n  bytecodeSize\n  dup4\n  codecopy\n  dup2\n  dup2\n  add\n  0x40\n  mstore\n  dup2\n  add\n  swap1\n  tag_2\n  swap2\n  swap1\n  tag_3\n  jump\t// in\ntag_2:\n    /* \"contracts/EscrowERC721.sol\":518:524  _token */\n  dup1\n    /* \"contracts/EscrowERC721.sol\":510:515  token */\n  0x01\n  0x00\n    /* \"contracts/EscrowERC721.sol\":510:524  token = _token */\n  0x0100\n  exp\n  dup2\n  sload\n  dup2\n  0xffffffffffffffffffffffffffffffffffffffff\n  mul\n  not\n  and\n  swap1\n  dup4\n  0xffffffffffffffffffffffffffffffffffffffff\n  and\n  mul\n  or\n  swap1\n  sstore\n  pop\n    /* \"contracts/EscrowERC721.sol\":472:531  constructor(IERC721 _token) {... */\n  pop\n    /* \"contracts/EscrowERC721.sol\":178:1502  contract EscrowERC721 {... */\n  jump(tag_6)\n    /* \"#utility.yul\":7:180   */\ntag_8:\n    /* \"#utility.yul\":79:84   */\n  0x00\n    /* \"#utility.yul\":110:116   */\n  dup2\n    /* \"#utility.yul\":104:117   */\n  mload\n    /* \"#utility.yul\":95:117   */\n  swap1\n  pop\n    /* \"#utility.yul\":126:174   */\n  tag_10\n    /* \"#utility.yul\":168:173   */\n  dup2\n    /* \"#utility.yul\":126:174   */\n  tag_11\n  jump\t// in\ntag_10:\n    /* \"#utility.yul\":7:180   */\n  swap3\n  swap2\n  pop\n  pop\n  jump\t// out\n    /* \"#utility.yul\":186:567   */\ntag_3:\n    /* \"#utility.yul\":271:277   */\n  0x00\n    /* \"#utility.yul\":320:322   */\n  0x20\n    /* \"#utility.yul\":308:317   */\n  dup3\n    /* \"#utility.yul\":299:306   */\n  dup5\n    /* \"#utility.yul\":295:318   */\n  sub\n    /* \"#utility.yul\":291:323   */\n  slt\n    /* \"#utility.yul\":288:407   */\n  iszero\n  tag_13\n  jumpi\n    /* \"#utility.yul\":326:405   */\n  tag_14\n  tag_15\n  jump\t// in\ntag_14:\n    /* \"#utility.yul\":288:407   */\ntag_13:\n    /* \"#utility.yul\":446:447   */\n  0x00\n    /* \"#utility.yul\":471:550   */\n  tag_16\n    /* \"#utility.yul\":542:549   */\n  dup5\n    /* \"#utility.yul\":533:539   */\n  dup3\n    /* \"#utility.yul\":522:531   */\n  dup6\n    /* \"#utility.yul\":518:540   */\n  add\n    /* \"#utility.yul\":471:550   */\n  tag_8\n  jump\t// in\ntag_16:\n    /* \"#utility.yul\":461:550   */\n  swap2\n  pop\n    /* \"#utility.yul\":417:560   */\n  pop\n    /* \"#utility.yul\":186:567   */\n  swap3\n  swap2\n  pop\n  pop\n  jump\t// out\n    /* \"#utility.yul\":654:750   */\ntag_19:\n    /* \"#utility.yul\":691:698   */\n  0x00\n    /* \"#utility.yul\":720:744   */\n  tag_21\n    /* \"#utility.yul\":738:743   */\n  dup3\n    /* \"#utility.yul\":720:744   */\n  tag_22\n  jump\t// in\ntag_21:\n    /* \"#utility.yul\":709:744   */\n  swap1\n  pop\n    /* \"#utility.yul\":654:750   */\n  swap2\n  swap1\n  pop\n  jump\t// out\n    /* \"#utility.yul\":756:867   */\ntag_23:\n    /* \"#utility.yul\":808:815   */\n  0x00\n    /* \"#utility.yul\":837:861   */\n  tag_25\n    /* \"#utility.yul\":855:860   */\n  dup3\n    /* \"#utility.yul\":837:861   */\n  tag_19\n  jump\t// in\ntag_25:\n    /* \"#utility.yul\":826:861   */\n  swap1\n  pop\n    /* \"#utility.yul\":756:867   */\n  swap2\n  swap1\n  pop\n  jump\t// out\n    /* \"#utility.yul\":873:999   */\ntag_22:\n    /* \"#utility.yul\":910:917   */\n  0x00\n    /* \"#utility.yul\":950:992   */\n  0xffffffffffffffffffffffffffffffffffffffff\n    /* \"#utility.yul\":943:948   */\n  dup3\n    /* \"#utility.yul\":939:993   */\n  and\n    /* \"#utility.yul\":928:993   */\n  swap1\n  pop\n    /* \"#utility.yul\":873:999   */\n  swap2\n  swap1\n  pop\n  jump\t// out\n    /* \"#utility.yul\":1128:1245   */\ntag_15:\n    /* \"#utility.yul\":1237:1238   */\n  0x00\n    /* \"#utility.yul\":1234:1235   */\n  dup1\n    /* \"#utility.yul\":1227:1239   */\n  revert\n    /* \"#utility.yul\":1251:1403   */\ntag_11:\n    /* \"#utility.yul\":1339:1378   */\n  tag_31\n    /* \"#utility.yul\":1372:1377   */\n  dup2\n    /* \"#utility.yul\":1339:1378   */\n  tag_23\n  jump\t// in\ntag_31:\n    /* \"#utility.yul\":1332:1337   */\n  dup2\n    /* \"#utility.yul\":1329:1379   */\n  eq\n    /* \"#utility.yul\":1319:1397   */\n  tag_32\n  jumpi\n    /* \"#utility.yul\":1393:1394   */\n  0x00\n    /* \"#utility.yul\":1390:1391   */\n  dup1\n    /* \"#utility.yul\":1383:1395   */\n  revert\n    /* \"#utility.yul\":1319:1397   */\ntag_32:\n    /* \"#utility.yul\":1251:1403   */\n  pop\n  jump\t// out\n    /* \"contracts/EscrowERC721.sol\":178:1502  contract EscrowERC721 {... */\ntag_6:\n  dataSize(sub_0)\n  dup1\n  dataOffset(sub_0)\n  0x00\n  codecopy\n  0x00\n  return\nstop\n\nsub_0: assembly {\n        /* \"contracts/EscrowERC721.sol\":178:1502  contract EscrowERC721 {... */\n      mstore(0x40, 0x80)\n      callvalue\n      dup1\n      iszero\n      tag_1\n      jumpi\n      0x00\n      dup1\n      revert\n    tag_1:\n      pop\n      jumpi(tag_2, lt(calldatasize, 0x04))\n      shr(0xe0, calldataload(0x00))\n      dup1\n      0x0da9da20\n      eq\n      tag_3\n      jumpi\n      dup1\n      0x2e1a7d4d\n      eq\n      tag_4\n      jumpi\n      dup1\n      0x47e7ef24\n      eq\n      tag_5\n      jumpi\n      dup1\n      0xbfb231d2\n      eq\n      tag_6\n      jumpi\n    tag_2:\n      0x00\n      dup1\n      revert\n        /* \"contracts/EscrowERC721.sol\":1190:1500  function rollback(uint256 transactionId) public {... */\n    tag_3:\n      tag_7\n      0x04\n      dup1\n      calldatasize\n      sub\n      dup2\n      add\n      swap1\n      tag_8\n      swap2\n      swap1\n      tag_9\n      jump\t// in\n    tag_8:\n      tag_10\n      jump\t// in\n    tag_7:\n      stop\n        /* \"contracts/EscrowERC721.sol\":958:1184  function withdraw(uint256 _id) public {... */\n    tag_4:\n      tag_11\n      0x04\n      dup1\n      calldatasize\n      sub\n      dup2\n      add\n      swap1\n      tag_12\n      swap2\n      swap1\n      tag_9\n      jump\t// in\n    tag_12:\n      tag_13\n      jump\t// in\n    tag_11:\n      stop\n        /* \"contracts/EscrowERC721.sol\":537:952  function deposit(address _receiver, uint256 _itemId) public {... */\n    tag_5:\n      tag_14\n      0x04\n      dup1\n      calldatasize\n      sub\n      dup2\n      add\n      swap1\n      tag_15\n      swap2\n      swap1\n      tag_16\n      jump\t// in\n    tag_15:\n      tag_17\n      jump\t// in\n    tag_14:\n      stop\n        /* \"contracts/EscrowERC721.sol\":422:465  mapping(uint256 => ERC721Item) public items */\n    tag_6:\n      tag_18\n      0x04\n      dup1\n      calldatasize\n      sub\n      dup2\n      add\n      swap1\n      tag_19\n      swap2\n      swap1\n      tag_9\n      jump\t// in\n    tag_19:\n      tag_20\n      jump\t// in\n    tag_18:\n      mload(0x40)\n      tag_21\n      swap4\n      swap3\n      swap2\n      swap1\n      tag_22\n      jump\t// in\n    tag_21:\n      mload(0x40)\n      dup1\n      swap2\n      sub\n      swap1\n      return\n        /* \"contracts/EscrowERC721.sol\":1190:1500  function rollback(uint256 transactionId) public {... */\n    tag_10:\n        /* \"contracts/EscrowERC721.sol\":1248:1262  address sender */\n      0x00\n        /* \"contracts/EscrowERC721.sol\":1265:1270  items */\n      0x02\n        /* \"contracts/EscrowERC721.sol\":1265:1285  items[transactionId] */\n      0x00\n        /* \"contracts/EscrowERC721.sol\":1271:1284  transactionId */\n      dup4\n        /* \"contracts/EscrowERC721.sol\":1265:1285  items[transactionId] */\n      dup2\n      mstore\n      0x20\n      add\n      swap1\n      dup2\n      mstore\n      0x20\n      add\n      0x00\n      keccak256\n        /* \"contracts/EscrowERC721.sol\":1265:1292  items[transactionId].sender */\n      0x00\n      add\n      0x00\n      swap1\n      sload\n      swap1\n      0x0100\n      exp\n      swap1\n      div\n      0xffffffffffffffffffffffffffffffffffffffff\n      and\n        /* \"contracts/EscrowERC721.sol\":1248:1292  address sender = items[transactionId].sender */\n      swap1\n      pop\n        /* \"contracts/EscrowERC721.sol\":1302:1316  uint256 itemId */\n      0x00\n        /* \"contracts/EscrowERC721.sol\":1319:1324  items */\n      0x02\n        /* \"contracts/EscrowERC721.sol\":1319:1339  items[transactionId] */\n      0x00\n        /* \"contracts/EscrowERC721.sol\":1325:1338  transactionId */\n      dup5\n        /* \"contracts/EscrowERC721.sol\":1319:1339  items[transactionId] */\n      dup2\n      mstore\n      0x20\n      add\n      swap1\n      dup2\n      mstore\n      0x20\n      add\n      0x00\n      keccak256\n        /* \"contracts/EscrowERC721.sol\":1319:1346  items[transactionId].itemId */\n      0x02\n      add\n      sload\n        /* \"contracts/EscrowERC721.sol\":1302:1346  uint256 itemId = items[transactionId].itemId */\n      swap1\n      pop\n        /* \"contracts/EscrowERC721.sol\":1375:1385  msg.sender */\n      caller\n        /* \"contracts/EscrowERC721.sol\":1365:1385  sender == msg.sender */\n      0xffffffffffffffffffffffffffffffffffffffff\n      and\n        /* \"contracts/EscrowERC721.sol\":1365:1371  sender */\n      dup3\n        /* \"contracts/EscrowERC721.sol\":1365:1385  sender == msg.sender */\n      0xffffffffffffffffffffffffffffffffffffffff\n      and\n      eq\n        /* \"contracts/EscrowERC721.sol\":1357:1402  require(sender == msg.sender, \"Not a sender\") */\n      tag_24\n      jumpi\n      mload(0x40)\n      0x08c379a000000000000000000000000000000000000000000000000000000000\n      dup2\n      mstore\n      0x04\n      add\n      tag_25\n      swap1\n      tag_26\n      jump\t// in\n    tag_25:\n      mload(0x40)\n      dup1\n      swap2\n      sub\n      swap1\n      revert\n    tag_24:\n        /* \"contracts/EscrowERC721.sol\":1420:1425  items */\n      0x02\n        /* \"contracts/EscrowERC721.sol\":1420:1433  items[itemId] */\n      0x00\n        /* \"contracts/EscrowERC721.sol\":1426:1432  itemId */\n      dup3\n        /* \"contracts/EscrowERC721.sol\":1420:1433  items[itemId] */\n      dup2\n      mstore\n      0x20\n      add\n      swap1\n      dup2\n      mstore\n      0x20\n      add\n      0x00\n      keccak256\n      0x00\n        /* \"contracts/EscrowERC721.sol\":1413:1434  delete(items[itemId]) */\n      dup1\n      dup3\n      add\n      exp(0x0100, 0x00)\n      dup2\n      sload\n      swap1\n      0xffffffffffffffffffffffffffffffffffffffff\n      mul\n      not\n      and\n      swap1\n      sstore\n      0x01\n      dup3\n      add\n      exp(0x0100, 0x00)\n      dup2\n      sload\n      swap1\n      0xffffffffffffffffffffffffffffffffffffffff\n      mul\n      not\n      and\n      swap1\n      sstore\n      0x02\n      dup3\n      add\n      0x00\n      swap1\n      sstore\n      pop\n      pop\n        /* \"contracts/EscrowERC721.sol\":1444:1449  token */\n      0x01\n      0x00\n      swap1\n      sload\n      swap1\n      0x0100\n      exp\n      swap1\n      div\n      0xffffffffffffffffffffffffffffffffffffffff\n      and\n        /* \"contracts/EscrowERC721.sol\":1444:1462  token.transferFrom */\n      0xffffffffffffffffffffffffffffffffffffffff\n      and\n      0x23b872dd\n        /* \"contracts/EscrowERC721.sol\":1471:1475  this */\n      address\n        /* \"contracts/EscrowERC721.sol\":1478:1484  sender */\n      dup5\n        /* \"contracts/EscrowERC721.sol\":1486:1492  itemId */\n      dup5\n        /* \"contracts/EscrowERC721.sol\":1444:1493  token.transferFrom(address(this), sender, itemId) */\n      mload(0x40)\n      dup5\n      0xffffffff\n      and\n      0xe0\n      shl\n      dup2\n      mstore\n      0x04\n      add\n      tag_27\n      swap4\n      swap3\n      swap2\n      swap1\n      tag_22\n      jump\t// in\n    tag_27:\n      0x00\n      mload(0x40)\n      dup1\n      dup4\n      sub\n      dup2\n      0x00\n      dup8\n      dup1\n      extcodesize\n      iszero\n      dup1\n      iszero\n      tag_28\n      jumpi\n      0x00\n      dup1\n      revert\n    tag_28:\n      pop\n      gas\n      call\n      iszero\n      dup1\n      iszero\n      tag_30\n      jumpi\n      returndatasize\n      0x00\n      dup1\n      returndatacopy\n      revert(0x00, returndatasize)\n    tag_30:\n      pop\n      pop\n      pop\n      pop\n        /* \"contracts/EscrowERC721.sol\":1238:1500  {... */\n      pop\n      pop\n        /* \"contracts/EscrowERC721.sol\":1190:1500  function rollback(uint256 transactionId) public {... */\n      pop\n      jump\t// out\n        /* \"contracts/EscrowERC721.sol\":958:1184  function withdraw(uint256 _id) public {... */\n    tag_13:\n        /* \"contracts/EscrowERC721.sol\":1006:1022  address receiver */\n      0x00\n        /* \"contracts/EscrowERC721.sol\":1025:1030  items */\n      0x02\n        /* \"contracts/EscrowERC721.sol\":1025:1035  items[_id] */\n      0x00\n        /* \"contracts/EscrowERC721.sol\":1031:1034  _id */\n      dup4\n        /* \"contracts/EscrowERC721.sol\":1025:1035  items[_id] */\n      dup2\n      mstore\n      0x20\n      add\n      swap1\n      dup2\n      mstore\n      0x20\n      add\n      0x00\n      keccak256\n        /* \"contracts/EscrowERC721.sol\":1025:1044  items[_id].receiver */\n      0x01\n      add\n      0x00\n      swap1\n      sload\n      swap1\n      0x0100\n      exp\n      swap1\n      div\n      0xffffffffffffffffffffffffffffffffffffffff\n      and\n        /* \"contracts/EscrowERC721.sol\":1006:1044  address receiver = items[_id].receiver */\n      swap1\n      pop\n        /* \"contracts/EscrowERC721.sol\":1054:1068  uint256 itemId */\n      0x00\n        /* \"contracts/EscrowERC721.sol\":1071:1076  items */\n      0x02\n        /* \"contracts/EscrowERC721.sol\":1071:1081  items[_id] */\n      0x00\n        /* \"contracts/EscrowERC721.sol\":1077:1080  _id */\n      dup5\n        /* \"contracts/EscrowERC721.sol\":1071:1081  items[_id] */\n      dup2\n      mstore\n      0x20\n      add\n      swap1\n      dup2\n      mstore\n      0x20\n      add\n      0x00\n      keccak256\n        /* \"contracts/EscrowERC721.sol\":1071:1088  items[_id].itemId */\n      0x02\n      add\n      sload\n        /* \"contracts/EscrowERC721.sol\":1054:1088  uint256 itemId = items[_id].itemId */\n      swap1\n      pop\n        /* \"contracts/EscrowERC721.sol\":1105:1110  items */\n      0x02\n        /* \"contracts/EscrowERC721.sol\":1105:1115  items[_id] */\n      0x00\n        /* \"contracts/EscrowERC721.sol\":1111:1114  _id */\n      dup5\n        /* \"contracts/EscrowERC721.sol\":1105:1115  items[_id] */\n      dup2\n      mstore\n      0x20\n      add\n      swap1\n      dup2\n      mstore\n      0x20\n      add\n      0x00\n      keccak256\n      0x00\n        /* \"contracts/EscrowERC721.sol\":1098:1116  delete(items[_id]) */\n      dup1\n      dup3\n      add\n      exp(0x0100, 0x00)\n      dup2\n      sload\n      swap1\n      0xffffffffffffffffffffffffffffffffffffffff\n      mul\n      not\n      and\n      swap1\n      sstore\n      0x01\n      dup3\n      add\n      exp(0x0100, 0x00)\n      dup2\n      sload\n      swap1\n      0xffffffffffffffffffffffffffffffffffffffff\n      mul\n      not\n      and\n      swap1\n      sstore\n      0x02\n      dup3\n      add\n      0x00\n      swap1\n      sstore\n      pop\n      pop\n        /* \"contracts/EscrowERC721.sol\":1126:1131  token */\n      0x01\n      0x00\n      swap1\n      sload\n      swap1\n      0x0100\n      exp\n      swap1\n      div\n      0xffffffffffffffffffffffffffffffffffffffff\n      and\n        /* \"contracts/EscrowERC721.sol\":1126:1144  token.transferFrom */\n      0xffffffffffffffffffffffffffffffffffffffff\n      and\n      0x23b872dd\n        /* \"contracts/EscrowERC721.sol\":1153:1157  this */\n      address\n        /* \"contracts/EscrowERC721.sol\":1160:1168  receiver */\n      dup5\n        /* \"contracts/EscrowERC721.sol\":1170:1176  itemId */\n      dup5\n        /* \"contracts/EscrowERC721.sol\":1126:1177  token.transferFrom(address(this), receiver, itemId) */\n      mload(0x40)\n      dup5\n      0xffffffff\n      and\n      0xe0\n      shl\n      dup2\n      mstore\n      0x04\n      add\n      tag_32\n      swap4\n      swap3\n      swap2\n      swap1\n      tag_22\n      jump\t// in\n    tag_32:\n      0x00\n      mload(0x40)\n      dup1\n      dup4\n      sub\n      dup2\n      0x00\n      dup8\n      dup1\n      extcodesize\n      iszero\n      dup1\n      iszero\n      tag_33\n      jumpi\n      0x00\n      dup1\n      revert\n    tag_33:\n      pop\n      gas\n      call\n      iszero\n      dup1\n      iszero\n      tag_35\n      jumpi\n      returndatasize\n      0x00\n      dup1\n      returndatacopy\n      revert(0x00, returndatasize)\n    tag_35:\n      pop\n      pop\n      pop\n      pop\n        /* \"contracts/EscrowERC721.sol\":996:1184  {... */\n      pop\n      pop\n        /* \"contracts/EscrowERC721.sol\":958:1184  function withdraw(uint256 _id) public {... */\n      pop\n      jump\t// out\n        /* \"contracts/EscrowERC721.sol\":537:952  function deposit(address _receiver, uint256 _itemId) public {... */\n    tag_17:\n        /* \"contracts/EscrowERC721.sol\":629:634  token */\n      0x01\n      0x00\n      swap1\n      sload\n      swap1\n      0x0100\n      exp\n      swap1\n      div\n      0xffffffffffffffffffffffffffffffffffffffff\n      and\n        /* \"contracts/EscrowERC721.sol\":629:642  token.ownerOf */\n      0xffffffffffffffffffffffffffffffffffffffff\n      and\n      0x6352211e\n        /* \"contracts/EscrowERC721.sol\":643:650  _itemId */\n      dup3\n        /* \"contracts/EscrowERC721.sol\":629:651  token.ownerOf(_itemId) */\n      mload(0x40)\n      dup3\n      0xffffffff\n      and\n      0xe0\n      shl\n      dup2\n      mstore\n      0x04\n      add\n      tag_37\n      swap2\n      swap1\n      tag_38\n      jump\t// in\n    tag_37:\n      0x20\n      mload(0x40)\n      dup1\n      dup4\n      sub\n      dup2\n      dup7\n      dup1\n      extcodesize\n      iszero\n      dup1\n      iszero\n      tag_39\n      jumpi\n      0x00\n      dup1\n      revert\n    tag_39:\n      pop\n      gas\n      staticcall\n      iszero\n      dup1\n      iszero\n      tag_41\n      jumpi\n      returndatasize\n      0x00\n      dup1\n      returndatacopy\n      revert(0x00, returndatasize)\n    tag_41:\n      pop\n      pop\n      pop\n      pop\n      mload(0x40)\n      returndatasize\n      not(0x1f)\n      0x1f\n      dup3\n      add\n      and\n      dup3\n      add\n      dup1\n      0x40\n      mstore\n      pop\n      dup2\n      add\n      swap1\n      tag_42\n      swap2\n      swap1\n      tag_43\n      jump\t// in\n    tag_42:\n        /* \"contracts/EscrowERC721.sol\":615:651  msg.sender == token.ownerOf(_itemId) */\n      0xffffffffffffffffffffffffffffffffffffffff\n      and\n        /* \"contracts/EscrowERC721.sol\":615:625  msg.sender */\n      caller\n        /* \"contracts/EscrowERC721.sol\":615:651  msg.sender == token.ownerOf(_itemId) */\n      0xffffffffffffffffffffffffffffffffffffffff\n      and\n      eq\n        /* \"contracts/EscrowERC721.sol\":607:668  require(msg.sender == token.ownerOf(_itemId), \"Not an owner\") */\n      tag_44\n      jumpi\n      mload(0x40)\n      0x08c379a000000000000000000000000000000000000000000000000000000000\n      dup2\n      mstore\n      0x04\n      add\n      tag_45\n      swap1\n      tag_46\n      jump\t// in\n    tag_45:\n      mload(0x40)\n      dup1\n      swap2\n      sub\n      swap1\n      revert\n    tag_44:\n        /* \"contracts/EscrowERC721.sol\":679:700  _tokenIds.increment() */\n      tag_47\n        /* \"contracts/EscrowERC721.sol\":679:688  _tokenIds */\n      0x00\n        /* \"contracts/EscrowERC721.sol\":679:698  _tokenIds.increment */\n      tag_48\n        /* \"contracts/EscrowERC721.sol\":679:700  _tokenIds.increment() */\n      jump\t// in\n    tag_47:\n        /* \"contracts/EscrowERC721.sol\":711:721  uint256 id */\n      0x00\n        /* \"contracts/EscrowERC721.sol\":724:743  _tokenIds.current() */\n      tag_49\n        /* \"contracts/EscrowERC721.sol\":724:733  _tokenIds */\n      0x00\n        /* \"contracts/EscrowERC721.sol\":724:741  _tokenIds.current */\n      tag_50\n        /* \"contracts/EscrowERC721.sol\":724:743  _tokenIds.current() */\n      jump\t// in\n    tag_49:\n        /* \"contracts/EscrowERC721.sol\":711:743  uint256 id = _tokenIds.current() */\n      swap1\n      pop\n        /* \"contracts/EscrowERC721.sol\":753:758  token */\n      0x01\n      0x00\n      swap1\n      sload\n      swap1\n      0x0100\n      exp\n      swap1\n      div\n      0xffffffffffffffffffffffffffffffffffffffff\n      and\n        /* \"contracts/EscrowERC721.sol\":753:771  token.transferFrom */\n      0xffffffffffffffffffffffffffffffffffffffff\n      and\n      0x23b872dd\n        /* \"contracts/EscrowERC721.sol\":772:782  msg.sender */\n      caller\n        /* \"contracts/EscrowERC721.sol\":792:796  this */\n      address\n        /* \"contracts/EscrowERC721.sol\":799:806  _itemId */\n      dup6\n        /* \"contracts/EscrowERC721.sol\":753:807  token.transferFrom(msg.sender, address(this), _itemId) */\n      mload(0x40)\n      dup5\n      0xffffffff\n      and\n      0xe0\n      shl\n      dup2\n      mstore\n      0x04\n      add\n      tag_51\n      swap4\n      swap3\n      swap2\n      swap1\n      tag_22\n      jump\t// in\n    tag_51:\n      0x00\n      mload(0x40)\n      dup1\n      dup4\n      sub\n      dup2\n      0x00\n      dup8\n      dup1\n      extcodesize\n      iszero\n      dup1\n      iszero\n      tag_52\n      jumpi\n      0x00\n      dup1\n      revert\n    tag_52:\n      pop\n      gas\n      call\n      iszero\n      dup1\n      iszero\n      tag_54\n      jumpi\n      returndatasize\n      0x00\n      dup1\n      returndatacopy\n      revert(0x00, returndatasize)\n    tag_54:\n      pop\n      pop\n      pop\n      pop\n        /* \"contracts/EscrowERC721.sol\":829:945  ERC721Item({... */\n      mload(0x40)\n      dup1\n      0x60\n      add\n      0x40\n      mstore\n      dup1\n        /* \"contracts/EscrowERC721.sol\":862:872  msg.sender */\n      caller\n        /* \"contracts/EscrowERC721.sol\":829:945  ERC721Item({... */\n      0xffffffffffffffffffffffffffffffffffffffff\n      and\n      dup2\n      mstore\n      0x20\n      add\n        /* \"contracts/EscrowERC721.sol\":896:905  _receiver */\n      dup5\n        /* \"contracts/EscrowERC721.sol\":829:945  ERC721Item({... */\n      0xffffffffffffffffffffffffffffffffffffffff\n      and\n      dup2\n      mstore\n      0x20\n      add\n        /* \"contracts/EscrowERC721.sol\":927:934  _itemId */\n      dup4\n        /* \"contracts/EscrowERC721.sol\":829:945  ERC721Item({... */\n      dup2\n      mstore\n      pop\n        /* \"contracts/EscrowERC721.sol\":817:822  items */\n      0x02\n        /* \"contracts/EscrowERC721.sol\":817:826  items[id] */\n      0x00\n        /* \"contracts/EscrowERC721.sol\":823:825  id */\n      dup4\n        /* \"contracts/EscrowERC721.sol\":817:826  items[id] */\n      dup2\n      mstore\n      0x20\n      add\n      swap1\n      dup2\n      mstore\n      0x20\n      add\n      0x00\n      keccak256\n        /* \"contracts/EscrowERC721.sol\":817:945  items[id] = ERC721Item({... */\n      0x00\n      dup3\n      add\n      mload\n      dup2\n      0x00\n      add\n      exp(0x0100, 0x00)\n      dup2\n      sload\n      dup2\n      0xffffffffffffffffffffffffffffffffffffffff\n      mul\n      not\n      and\n      swap1\n      dup4\n      0xffffffffffffffffffffffffffffffffffffffff\n      and\n      mul\n      or\n      swap1\n      sstore\n      pop\n      0x20\n      dup3\n      add\n      mload\n      dup2\n      0x01\n      add\n      exp(0x0100, 0x00)\n      dup2\n      sload\n      dup2\n      0xffffffffffffffffffffffffffffffffffffffff\n      mul\n      not\n      and\n      swap1\n      dup4\n      0xffffffffffffffffffffffffffffffffffffffff\n      and\n      mul\n      or\n      swap1\n      sstore\n      pop\n      0x40\n      dup3\n      add\n      mload\n      dup2\n      0x02\n      add\n      sstore\n      swap1\n      pop\n      pop\n        /* \"contracts/EscrowERC721.sol\":597:952  {... */\n      pop\n        /* \"contracts/EscrowERC721.sol\":537:952  function deposit(address _receiver, uint256 _itemId) public {... */\n      pop\n      pop\n      jump\t// out\n        /* \"contracts/EscrowERC721.sol\":422:465  mapping(uint256 => ERC721Item) public items */\n    tag_20:\n      mstore(0x20, 0x02)\n      dup1\n      0x00\n      mstore\n      keccak256(0x00, 0x40)\n      0x00\n      swap2\n      pop\n      swap1\n      pop\n      dup1\n      0x00\n      add\n      0x00\n      swap1\n      sload\n      swap1\n      0x0100\n      exp\n      swap1\n      div\n      0xffffffffffffffffffffffffffffffffffffffff\n      and\n      swap1\n      dup1\n      0x01\n      add\n      0x00\n      swap1\n      sload\n      swap1\n      0x0100\n      exp\n      swap1\n      div\n      0xffffffffffffffffffffffffffffffffffffffff\n      and\n      swap1\n      dup1\n      0x02\n      add\n      sload\n      swap1\n      pop\n      dup4\n      jump\t// out\n        /* \"@openzeppelin/contracts/utils/Counters.sol\":945:1068  function increment(Counter storage counter) internal {... */\n    tag_48:\n        /* \"@openzeppelin/contracts/utils/Counters.sol\":1050:1051  1 */\n      0x01\n        /* \"@openzeppelin/contracts/utils/Counters.sol\":1032:1039  counter */\n      dup2\n        /* \"@openzeppelin/contracts/utils/Counters.sol\":1032:1046  counter._value */\n      0x00\n      add\n      0x00\n        /* \"@openzeppelin/contracts/utils/Counters.sol\":1032:1051  counter._value += 1 */\n      dup3\n      dup3\n      sload\n      add\n      swap3\n      pop\n      pop\n      dup2\n      swap1\n      sstore\n      pop\n        /* \"@openzeppelin/contracts/utils/Counters.sol\":945:1068  function increment(Counter storage counter) internal {... */\n      pop\n      jump\t// out\n        /* \"@openzeppelin/contracts/utils/Counters.sol\":827:939  function current(Counter storage counter) internal view returns (uint256) {... */\n    tag_50:\n        /* \"@openzeppelin/contracts/utils/Counters.sol\":892:899  uint256 */\n      0x00\n        /* \"@openzeppelin/contracts/utils/Counters.sol\":918:925  counter */\n      dup2\n        /* \"@openzeppelin/contracts/utils/Counters.sol\":918:932  counter._value */\n      0x00\n      add\n      sload\n        /* \"@openzeppelin/contracts/utils/Counters.sol\":911:932  return counter._value */\n      swap1\n      pop\n        /* \"@openzeppelin/contracts/utils/Counters.sol\":827:939  function current(Counter storage counter) internal view returns (uint256) {... */\n      swap2\n      swap1\n      pop\n      jump\t// out\n        /* \"#utility.yul\":7:146   */\n    tag_58:\n        /* \"#utility.yul\":53:58   */\n      0x00\n        /* \"#utility.yul\":91:97   */\n      dup2\n        /* \"#utility.yul\":78:98   */\n      calldataload\n        /* \"#utility.yul\":69:98   */\n      swap1\n      pop\n        /* \"#utility.yul\":107:140   */\n      tag_60\n        /* \"#utility.yul\":134:139   */\n      dup2\n        /* \"#utility.yul\":107:140   */\n      tag_61\n      jump\t// in\n    tag_60:\n        /* \"#utility.yul\":7:146   */\n      swap3\n      swap2\n      pop\n      pop\n      jump\t// out\n        /* \"#utility.yul\":152:295   */\n    tag_62:\n        /* \"#utility.yul\":209:214   */\n      0x00\n        /* \"#utility.yul\":240:246   */\n      dup2\n        /* \"#utility.yul\":234:247   */\n      mload\n        /* \"#utility.yul\":225:247   */\n      swap1\n      pop\n        /* \"#utility.yul\":256:289   */\n      tag_64\n        /* \"#utility.yul\":283:288   */\n      dup2\n        /* \"#utility.yul\":256:289   */\n      tag_61\n      jump\t// in\n    tag_64:\n        /* \"#utility.yul\":152:295   */\n      swap3\n      swap2\n      pop\n      pop\n      jump\t// out\n        /* \"#utility.yul\":301:440   */\n    tag_65:\n        /* \"#utility.yul\":347:352   */\n      0x00\n        /* \"#utility.yul\":385:391   */\n      dup2\n        /* \"#utility.yul\":372:392   */\n      calldataload\n        /* \"#utility.yul\":363:392   */\n      swap1\n      pop\n        /* \"#utility.yul\":401:434   */\n      tag_67\n        /* \"#utility.yul\":428:433   */\n      dup2\n        /* \"#utility.yul\":401:434   */\n      tag_68\n      jump\t// in\n    tag_67:\n        /* \"#utility.yul\":301:440   */\n      swap3\n      swap2\n      pop\n      pop\n      jump\t// out\n        /* \"#utility.yul\":446:797   */\n    tag_43:\n        /* \"#utility.yul\":516:522   */\n      0x00\n        /* \"#utility.yul\":565:567   */\n      0x20\n        /* \"#utility.yul\":553:562   */\n      dup3\n        /* \"#utility.yul\":544:551   */\n      dup5\n        /* \"#utility.yul\":540:563   */\n      sub\n        /* \"#utility.yul\":536:568   */\n      slt\n        /* \"#utility.yul\":533:652   */\n      iszero\n      tag_70\n      jumpi\n        /* \"#utility.yul\":571:650   */\n      tag_71\n      tag_72\n      jump\t// in\n    tag_71:\n        /* \"#utility.yul\":533:652   */\n    tag_70:\n        /* \"#utility.yul\":691:692   */\n      0x00\n        /* \"#utility.yul\":716:780   */\n      tag_73\n        /* \"#utility.yul\":772:779   */\n      dup5\n        /* \"#utility.yul\":763:769   */\n      dup3\n        /* \"#utility.yul\":752:761   */\n      dup6\n        /* \"#utility.yul\":748:770   */\n      add\n        /* \"#utility.yul\":716:780   */\n      tag_62\n      jump\t// in\n    tag_73:\n        /* \"#utility.yul\":706:780   */\n      swap2\n      pop\n        /* \"#utility.yul\":662:790   */\n      pop\n        /* \"#utility.yul\":446:797   */\n      swap3\n      swap2\n      pop\n      pop\n      jump\t// out\n        /* \"#utility.yul\":803:1277   */\n    tag_16:\n        /* \"#utility.yul\":871:877   */\n      0x00\n        /* \"#utility.yul\":879:885   */\n      dup1\n        /* \"#utility.yul\":928:930   */\n      0x40\n        /* \"#utility.yul\":916:925   */\n      dup4\n        /* \"#utility.yul\":907:914   */\n      dup6\n        /* \"#utility.yul\":903:926   */\n      sub\n        /* \"#utility.yul\":899:931   */\n      slt\n        /* \"#utility.yul\":896:1015   */\n      iszero\n      tag_75\n      jumpi\n        /* \"#utility.yul\":934:1013   */\n      tag_76\n      tag_72\n      jump\t// in\n    tag_76:\n        /* \"#utility.yul\":896:1015   */\n    tag_75:\n        /* \"#utility.yul\":1054:1055   */\n      0x00\n        /* \"#utility.yul\":1079:1132   */\n      tag_77\n        /* \"#utility.yul\":1124:1131   */\n      dup6\n        /* \"#utility.yul\":1115:1121   */\n      dup3\n        /* \"#utility.yul\":1104:1113   */\n      dup7\n        /* \"#utility.yul\":1100:1122   */\n      add\n        /* \"#utility.yul\":1079:1132   */\n      tag_58\n      jump\t// in\n    tag_77:\n        /* \"#utility.yul\":1069:1132   */\n      swap3\n      pop\n        /* \"#utility.yul\":1025:1142   */\n      pop\n        /* \"#utility.yul\":1181:1183   */\n      0x20\n        /* \"#utility.yul\":1207:1260   */\n      tag_78\n        /* \"#utility.yul\":1252:1259   */\n      dup6\n        /* \"#utility.yul\":1243:1249   */\n      dup3\n        /* \"#utility.yul\":1232:1241   */\n      dup7\n        /* \"#utility.yul\":1228:1250   */\n      add\n        /* \"#utility.yul\":1207:1260   */\n      tag_65\n      jump\t// in\n    tag_78:\n        /* \"#utility.yul\":1197:1260   */\n      swap2\n      pop\n        /* \"#utility.yul\":1152:1270   */\n      pop\n        /* \"#utility.yul\":803:1277   */\n      swap3\n      pop\n      swap3\n      swap1\n      pop\n      jump\t// out\n        /* \"#utility.yul\":1283:1612   */\n    tag_9:\n        /* \"#utility.yul\":1342:1348   */\n      0x00\n        /* \"#utility.yul\":1391:1393   */\n      0x20\n        /* \"#utility.yul\":1379:1388   */\n      dup3\n        /* \"#utility.yul\":1370:1377   */\n      dup5\n        /* \"#utility.yul\":1366:1389   */\n      sub\n        /* \"#utility.yul\":1362:1394   */\n      slt\n        /* \"#utility.yul\":1359:1478   */\n      iszero\n      tag_80\n      jumpi\n        /* \"#utility.yul\":1397:1476   */\n      tag_81\n      tag_72\n      jump\t// in\n    tag_81:\n        /* \"#utility.yul\":1359:1478   */\n    tag_80:\n        /* \"#utility.yul\":1517:1518   */\n      0x00\n        /* \"#utility.yul\":1542:1595   */\n      tag_82\n        /* \"#utility.yul\":1587:1594   */\n      dup5\n        /* \"#utility.yul\":1578:1584   */\n      dup3\n        /* \"#utility.yul\":1567:1576   */\n      dup6\n        /* \"#utility.yul\":1563:1585   */\n      add\n        /* \"#utility.yul\":1542:1595   */\n      tag_65\n      jump\t// in\n    tag_82:\n        /* \"#utility.yul\":1532:1595   */\n      swap2\n      pop\n        /* \"#utility.yul\":1488:1605   */\n      pop\n        /* \"#utility.yul\":1283:1612   */\n      swap3\n      swap2\n      pop\n      pop\n      jump\t// out\n        /* \"#utility.yul\":1618:1736   */\n    tag_83:\n        /* \"#utility.yul\":1705:1729   */\n      tag_85\n        /* \"#utility.yul\":1723:1728   */\n      dup2\n        /* \"#utility.yul\":1705:1729   */\n      tag_86\n      jump\t// in\n    tag_85:\n        /* \"#utility.yul\":1700:1703   */\n      dup3\n        /* \"#utility.yul\":1693:1730   */\n      mstore\n        /* \"#utility.yul\":1618:1736   */\n      pop\n      pop\n      jump\t// out\n        /* \"#utility.yul\":1742:2108   */\n    tag_87:\n        /* \"#utility.yul\":1884:1887   */\n      0x00\n        /* \"#utility.yul\":1905:1972   */\n      tag_89\n        /* \"#utility.yul\":1969:1971   */\n      0x0c\n        /* \"#utility.yul\":1964:1967   */\n      dup4\n        /* \"#utility.yul\":1905:1972   */\n      tag_90\n      jump\t// in\n    tag_89:\n        /* \"#utility.yul\":1898:1972   */\n      swap2\n      pop\n        /* \"#utility.yul\":1981:2074   */\n      tag_91\n        /* \"#utility.yul\":2070:2073   */\n      dup3\n        /* \"#utility.yul\":1981:2074   */\n      tag_92\n      jump\t// in\n    tag_91:\n        /* \"#utility.yul\":2099:2101   */\n      0x20\n        /* \"#utility.yul\":2094:2097   */\n      dup3\n        /* \"#utility.yul\":2090:2102   */\n      add\n        /* \"#utility.yul\":2083:2102   */\n      swap1\n      pop\n        /* \"#utility.yul\":1742:2108   */\n      swap2\n      swap1\n      pop\n      jump\t// out\n        /* \"#utility.yul\":2114:2480   */\n    tag_93:\n        /* \"#utility.yul\":2256:2259   */\n      0x00\n        /* \"#utility.yul\":2277:2344   */\n      tag_95\n        /* \"#utility.yul\":2341:2343   */\n      0x0c\n        /* \"#utility.yul\":2336:2339   */\n      dup4\n        /* \"#utility.yul\":2277:2344   */\n      tag_90\n      jump\t// in\n    tag_95:\n        /* \"#utility.yul\":2270:2344   */\n      swap2\n      pop\n        /* \"#utility.yul\":2353:2446   */\n      tag_96\n        /* \"#utility.yul\":2442:2445   */\n      dup3\n        /* \"#utility.yul\":2353:2446   */\n      tag_97\n      jump\t// in\n    tag_96:\n        /* \"#utility.yul\":2471:2473   */\n      0x20\n        /* \"#utility.yul\":2466:2469   */\n      dup3\n        /* \"#utility.yul\":2462:2474   */\n      add\n        /* \"#utility.yul\":2455:2474   */\n      swap1\n      pop\n        /* \"#utility.yul\":2114:2480   */\n      swap2\n      swap1\n      pop\n      jump\t// out\n        /* \"#utility.yul\":2486:2604   */\n    tag_98:\n        /* \"#utility.yul\":2573:2597   */\n      tag_100\n        /* \"#utility.yul\":2591:2596   */\n      dup2\n        /* \"#utility.yul\":2573:2597   */\n      tag_101\n      jump\t// in\n    tag_100:\n        /* \"#utility.yul\":2568:2571   */\n      dup3\n        /* \"#utility.yul\":2561:2598   */\n      mstore\n        /* \"#utility.yul\":2486:2604   */\n      pop\n      pop\n      jump\t// out\n        /* \"#utility.yul\":2610:3052   */\n    tag_22:\n        /* \"#utility.yul\":2759:2763   */\n      0x00\n        /* \"#utility.yul\":2797:2799   */\n      0x60\n        /* \"#utility.yul\":2786:2795   */\n      dup3\n        /* \"#utility.yul\":2782:2800   */\n      add\n        /* \"#utility.yul\":2774:2800   */\n      swap1\n      pop\n        /* \"#utility.yul\":2810:2881   */\n      tag_103\n        /* \"#utility.yul\":2878:2879   */\n      0x00\n        /* \"#utility.yul\":2867:2876   */\n      dup4\n        /* \"#utility.yul\":2863:2880   */\n      add\n        /* \"#utility.yul\":2854:2860   */\n      dup7\n        /* \"#utility.yul\":2810:2881   */\n      tag_83\n      jump\t// in\n    tag_103:\n        /* \"#utility.yul\":2891:2963   */\n      tag_104\n        /* \"#utility.yul\":2959:2961   */\n      0x20\n        /* \"#utility.yul\":2948:2957   */\n      dup4\n        /* \"#utility.yul\":2944:2962   */\n      add\n        /* \"#utility.yul\":2935:2941   */\n      dup6\n        /* \"#utility.yul\":2891:2963   */\n      tag_83\n      jump\t// in\n    tag_104:\n        /* \"#utility.yul\":2973:3045   */\n      tag_105\n        /* \"#utility.yul\":3041:3043   */\n      0x40\n        /* \"#utility.yul\":3030:3039   */\n      dup4\n        /* \"#utility.yul\":3026:3044   */\n      add\n        /* \"#utility.yul\":3017:3023   */\n      dup5\n        /* \"#utility.yul\":2973:3045   */\n      tag_98\n      jump\t// in\n    tag_105:\n        /* \"#utility.yul\":2610:3052   */\n      swap5\n      swap4\n      pop\n      pop\n      pop\n      pop\n      jump\t// out\n        /* \"#utility.yul\":3058:3477   */\n    tag_26:\n        /* \"#utility.yul\":3224:3228   */\n      0x00\n        /* \"#utility.yul\":3262:3264   */\n      0x20\n        /* \"#utility.yul\":3251:3260   */\n      dup3\n        /* \"#utility.yul\":3247:3265   */\n      add\n        /* \"#utility.yul\":3239:3265   */\n      swap1\n      pop\n        /* \"#utility.yul\":3311:3320   */\n      dup2\n        /* \"#utility.yul\":3305:3309   */\n      dup2\n        /* \"#utility.yul\":3301:3321   */\n      sub\n        /* \"#utility.yul\":3297:3298   */\n      0x00\n        /* \"#utility.yul\":3286:3295   */\n      dup4\n        /* \"#utility.yul\":3282:3299   */\n      add\n        /* \"#utility.yul\":3275:3322   */\n      mstore\n        /* \"#utility.yul\":3339:3470   */\n      tag_107\n        /* \"#utility.yul\":3465:3469   */\n      dup2\n        /* \"#utility.yul\":3339:3470   */\n      tag_87\n      jump\t// in\n    tag_107:\n        /* \"#utility.yul\":3331:3470   */\n      swap1\n      pop\n        /* \"#utility.yul\":3058:3477   */\n      swap2\n      swap1\n      pop\n      jump\t// out\n        /* \"#utility.yul\":3483:3902   */\n    tag_46:\n        /* \"#utility.yul\":3649:3653   */\n      0x00\n        /* \"#utility.yul\":3687:3689   */\n      0x20\n        /* \"#utility.yul\":3676:3685   */\n      dup3\n        /* \"#utility.yul\":3672:3690   */\n      add\n        /* \"#utility.yul\":3664:3690   */\n      swap1\n      pop\n        /* \"#utility.yul\":3736:3745   */\n      dup2\n        /* \"#utility.yul\":3730:3734   */\n      dup2\n        /* \"#utility.yul\":3726:3746   */\n      sub\n        /* \"#utility.yul\":3722:3723   */\n      0x00\n        /* \"#utility.yul\":3711:3720   */\n      dup4\n        /* \"#utility.yul\":3707:3724   */\n      add\n        /* \"#utility.yul\":3700:3747   */\n      mstore\n        /* \"#utility.yul\":3764:3895   */\n      tag_109\n        /* \"#utility.yul\":3890:3894   */\n      dup2\n        /* \"#utility.yul\":3764:3895   */\n      tag_93\n      jump\t// in\n    tag_109:\n        /* \"#utility.yul\":3756:3895   */\n      swap1\n      pop\n        /* \"#utility.yul\":3483:3902   */\n      swap2\n      swap1\n      pop\n      jump\t// out\n        /* \"#utility.yul\":3908:4130   */\n    tag_38:\n        /* \"#utility.yul\":4001:4005   */\n      0x00\n        /* \"#utility.yul\":4039:4041   */\n      0x20\n        /* \"#utility.yul\":4028:4037   */\n      dup3\n        /* \"#utility.yul\":4024:4042   */\n      add\n        /* \"#utility.yul\":4016:4042   */\n      swap1\n      pop\n        /* \"#utility.yul\":4052:4123   */\n      tag_111\n        /* \"#utility.yul\":4120:4121   */\n      0x00\n        /* \"#utility.yul\":4109:4118   */\n      dup4\n        /* \"#utility.yul\":4105:4122   */\n      add\n        /* \"#utility.yul\":4096:4102   */\n      dup5\n        /* \"#utility.yul\":4052:4123   */\n      tag_98\n      jump\t// in\n    tag_111:\n        /* \"#utility.yul\":3908:4130   */\n      swap3\n      swap2\n      pop\n      pop\n      jump\t// out\n        /* \"#utility.yul\":4217:4386   */\n    tag_90:\n        /* \"#utility.yul\":4301:4312   */\n      0x00\n        /* \"#utility.yul\":4335:4341   */\n      dup3\n        /* \"#utility.yul\":4330:4333   */\n      dup3\n        /* \"#utility.yul\":4323:4342   */\n      mstore\n        /* \"#utility.yul\":4375:4379   */\n      0x20\n        /* \"#utility.yul\":4370:4373   */\n      dup3\n        /* \"#utility.yul\":4366:4380   */\n      add\n        /* \"#utility.yul\":4351:4380   */\n      swap1\n      pop\n        /* \"#utility.yul\":4217:4386   */\n      swap3\n      swap2\n      pop\n      pop\n      jump\t// out\n        /* \"#utility.yul\":4392:4488   */\n    tag_86:\n        /* \"#utility.yul\":4429:4436   */\n      0x00\n        /* \"#utility.yul\":4458:4482   */\n      tag_116\n        /* \"#utility.yul\":4476:4481   */\n      dup3\n        /* \"#utility.yul\":4458:4482   */\n      tag_117\n      jump\t// in\n    tag_116:\n        /* \"#utility.yul\":4447:4482   */\n      swap1\n      pop\n        /* \"#utility.yul\":4392:4488   */\n      swap2\n      swap1\n      pop\n      jump\t// out\n        /* \"#utility.yul\":4494:4620   */\n    tag_117:\n        /* \"#utility.yul\":4531:4538   */\n      0x00\n        /* \"#utility.yul\":4571:4613   */\n      0xffffffffffffffffffffffffffffffffffffffff\n        /* \"#utility.yul\":4564:4569   */\n      dup3\n        /* \"#utility.yul\":4560:4614   */\n      and\n        /* \"#utility.yul\":4549:4614   */\n      swap1\n      pop\n        /* \"#utility.yul\":4494:4620   */\n      swap2\n      swap1\n      pop\n      jump\t// out\n        /* \"#utility.yul\":4626:4703   */\n    tag_101:\n        /* \"#utility.yul\":4663:4670   */\n      0x00\n        /* \"#utility.yul\":4692:4697   */\n      dup2\n        /* \"#utility.yul\":4681:4697   */\n      swap1\n      pop\n        /* \"#utility.yul\":4626:4703   */\n      swap2\n      swap1\n      pop\n      jump\t// out\n        /* \"#utility.yul\":4832:4949   */\n    tag_72:\n        /* \"#utility.yul\":4941:4942   */\n      0x00\n        /* \"#utility.yul\":4938:4939   */\n      dup1\n        /* \"#utility.yul\":4931:4943   */\n      revert\n        /* \"#utility.yul\":4955:5117   */\n    tag_92:\n        /* \"#utility.yul\":5095:5109   */\n      0x4e6f7420612073656e6465720000000000000000000000000000000000000000\n        /* \"#utility.yul\":5091:5092   */\n      0x00\n        /* \"#utility.yul\":5083:5089   */\n      dup3\n        /* \"#utility.yul\":5079:5093   */\n      add\n        /* \"#utility.yul\":5072:5110   */\n      mstore\n        /* \"#utility.yul\":4955:5117   */\n      pop\n      jump\t// out\n        /* \"#utility.yul\":5123:5285   */\n    tag_97:\n        /* \"#utility.yul\":5263:5277   */\n      0x4e6f7420616e206f776e65720000000000000000000000000000000000000000\n        /* \"#utility.yul\":5259:5260   */\n      0x00\n        /* \"#utility.yul\":5251:5257   */\n      dup3\n        /* \"#utility.yul\":5247:5261   */\n      add\n        /* \"#utility.yul\":5240:5278   */\n      mstore\n        /* \"#utility.yul\":5123:5285   */\n      pop\n      jump\t// out\n        /* \"#utility.yul\":5291:5413   */\n    tag_61:\n        /* \"#utility.yul\":5364:5388   */\n      tag_126\n        /* \"#utility.yul\":5382:5387   */\n      dup2\n        /* \"#utility.yul\":5364:5388   */\n      tag_86\n      jump\t// in\n    tag_126:\n        /* \"#utility.yul\":5357:5362   */\n      dup2\n        /* \"#utility.yul\":5354:5389   */\n      eq\n        /* \"#utility.yul\":5344:5407   */\n      tag_127\n      jumpi\n        /* \"#utility.yul\":5403:5404   */\n      0x00\n        /* \"#utility.yul\":5400:5401   */\n      dup1\n        /* \"#utility.yul\":5393:5405   */\n      revert\n        /* \"#utility.yul\":5344:5407   */\n    tag_127:\n        /* \"#utility.yul\":5291:5413   */\n      pop\n      jump\t// out\n        /* \"#utility.yul\":5419:5541   */\n    tag_68:\n        /* \"#utility.yul\":5492:5516   */\n      tag_129\n        /* \"#utility.yul\":5510:5515   */\n      dup2\n        /* \"#utility.yul\":5492:5516   */\n      tag_101\n      jump\t// in\n    tag_129:\n        /* \"#utility.yul\":5485:5490   */\n      dup2\n        /* \"#utility.yul\":5482:5517   */\n      eq\n        /* \"#utility.yul\":5472:5535   */\n      tag_130\n      jumpi\n        /* \"#utility.yul\":5531:5532   */\n      0x00\n        /* \"#utility.yul\":5528:5529   */\n      dup1\n        /* \"#utility.yul\":5521:5533   */\n      revert\n        /* \"#utility.yul\":5472:5535   */\n    tag_130:\n        /* \"#utility.yul\":5419:5541   */\n      pop\n      jump\t// out\n\n    auxdata: 0xa264697066735822122026511510a2d0b74970bc8a971bae4d402efeb9e69d8477ad3e206f529f3320c264736f6c63430008070033\n}\n",
				"bytecode": {
					"linkReferences": {},
					"object": "608060405234801561001057600080fd5b50604051610b3f380380610b3f8339818101604052810190610032919061008e565b80600160006101000a81548173ffffffffffffffffffffffffffffffffffffffff021916908373ffffffffffffffffffffffffffffffffffffffff1602179055505061011b565b60008151905061008881610104565b92915050565b6000602082840312156100a4576100a36100ff565b5b60006100b284828501610079565b91505092915050565b60006100c6826100df565b9050919050565b60006100d8826100bb565b9050919050565b600073ffffffffffffffffffffffffffffffffffffffff82169050919050565b600080fd5b61010d816100cd565b811461011857600080fd5b50565b610a158061012a6000396000f3fe608060405234801561001057600080fd5b506004361061004c5760003560e01c80630da9da20146100515780632e1a7d4d1461006d57806347e7ef2414610089578063bfb231d2146100a5575b600080fd5b61006b600480360381019061006691906107ea565b6100d7565b005b610087600480360381019061008291906107ea565b61029d565b005b6100a3600480360381019061009e91906107aa565b6103f5565b005b6100bf60048036038101906100ba91906107ea565b6106b0565b6040516100ce9392919061087b565b60405180910390f35b60006002600083815260200190815260200160002060000160009054906101000a900473ffffffffffffffffffffffffffffffffffffffff1690506000600260008481526020019081526020016000206002015490503373ffffffffffffffffffffffffffffffffffffffff168273ffffffffffffffffffffffffffffffffffffffff161461019b576040517f08c379a0000000000000000000000000000000000000000000000000000000008152600401610192906108b2565b60405180910390fd5b60026000828152602001908152602001600020600080820160006101000a81549073ffffffffffffffffffffffffffffffffffffffff02191690556001820160006101000a81549073ffffffffffffffffffffffffffffffffffffffff021916905560028201600090555050600160009054906101000a900473ffffffffffffffffffffffffffffffffffffffff1673ffffffffffffffffffffffffffffffffffffffff166323b872dd3084846040518463ffffffff1660e01b81526004016102669392919061087b565b600060405180830381600087803b15801561028057600080fd5b505af1158015610294573d6000803e3d6000fd5b50505050505050565b60006002600083815260200190815260200160002060010160009054906101000a900473ffffffffffffffffffffffffffffffffffffffff16905060006002600084815260200190815260200160002060020154905060026000848152602001908152602001600020600080820160006101000a81549073ffffffffffffffffffffffffffffffffffffffff02191690556001820160006101000a81549073ffffffffffffffffffffffffffffffffffffffff021916905560028201600090555050600160009054906101000a900473ffffffffffffffffffffffffffffffffffffffff1673ffffffffffffffffffffffffffffffffffffffff166323b872dd3084846040518463ffffffff1660e01b81526004016103be9392919061087b565b600060405180830381600087803b1580156103d857600080fd5b505af11580156103ec573d6000803e3d6000fd5b50505050505050565b600160009054906101000a900473ffffffffffffffffffffffffffffffffffffffff1673ffffffffffffffffffffffffffffffffffffffff16636352211e826040518263ffffffff1660e01b815260040161045091906108f2565b60206040518083038186803b15801561046857600080fd5b505afa15801561047c573d6000803e3d6000fd5b505050506040513d601f19601f820116820180604052508101906104a0919061077d565b73ffffffffffffffffffffffffffffffffffffffff163373ffffffffffffffffffffffffffffffffffffffff161461050d576040517f08c379a0000000000000000000000000000000000000000000000000000000008152600401610504906108d2565b60405180910390fd5b610517600061071a565b60006105236000610730565b9050600160009054906101000a900473ffffffffffffffffffffffffffffffffffffffff1673ffffffffffffffffffffffffffffffffffffffff166323b872dd3330856040518463ffffffff1660e01b81526004016105849392919061087b565b600060405180830381600087803b15801561059e57600080fd5b505af11580156105b2573d6000803e3d6000fd5b5050505060405180606001604052803373ffffffffffffffffffffffffffffffffffffffff1681526020018473ffffffffffffffffffffffffffffffffffffffff168152602001838152506002600083815260200190815260200160002060008201518160000160006101000a81548173ffffffffffffffffffffffffffffffffffffffff021916908373ffffffffffffffffffffffffffffffffffffffff16021790555060208201518160010160006101000a81548173ffffffffffffffffffffffffffffffffffffffff021916908373ffffffffffffffffffffffffffffffffffffffff16021790555060408201518160020155905050505050565b60026020528060005260406000206000915090508060000160009054906101000a900473ffffffffffffffffffffffffffffffffffffffff16908060010160009054906101000a900473ffffffffffffffffffffffffffffffffffffffff16908060020154905083565b6001816000016000828254019250508190555050565b600081600001549050919050565b60008135905061074d816109b1565b92915050565b600081519050610762816109b1565b92915050565b600081359050610777816109c8565b92915050565b6000602082840312156107935761079261095a565b5b60006107a184828501610753565b91505092915050565b600080604083850312156107c1576107c061095a565b5b60006107cf8582860161073e565b92505060206107e085828601610768565b9150509250929050565b600060208284031215610800576107ff61095a565b5b600061080e84828501610768565b91505092915050565b6108208161091e565b82525050565b6000610833600c8361090d565b915061083e8261095f565b602082019050919050565b6000610856600c8361090d565b915061086182610988565b602082019050919050565b61087581610950565b82525050565b60006060820190506108906000830186610817565b61089d6020830185610817565b6108aa604083018461086c565b949350505050565b600060208201905081810360008301526108cb81610826565b9050919050565b600060208201905081810360008301526108eb81610849565b9050919050565b6000602082019050610907600083018461086c565b92915050565b600082825260208201905092915050565b600061092982610930565b9050919050565b600073ffffffffffffffffffffffffffffffffffffffff82169050919050565b6000819050919050565b600080fd5b7f4e6f7420612073656e6465720000000000000000000000000000000000000000600082015250565b7f4e6f7420616e206f776e65720000000000000000000000000000000000000000600082015250565b6109ba8161091e565b81146109c557600080fd5b50565b6109d181610950565b81146109dc57600080fd5b5056fea264697066735822122026511510a2d0b74970bc8a971bae4d402efeb9e69d8477ad3e206f529f3320c264736f6c63430008070033",
					"opcodes": "PUSH1 0x80 PUSH1 0x40 MSTORE CALLVALUE DUP1 ISZERO PUSH2 0x10 JUMPI PUSH1 0x0 DUP1 REVERT JUMPDEST POP PUSH1 0x40 MLOAD PUSH2 0xB3F CODESIZE SUB DUP1 PUSH2 0xB3F DUP4 CODECOPY DUP2 DUP2 ADD PUSH1 0x40 MSTORE DUP2 ADD SWAP1 PUSH2 0x32 SWAP2 SWAP1 PUSH2 0x8E JUMP JUMPDEST DUP1 PUSH1 0x1 PUSH1 0x0 PUSH2 0x100 EXP DUP2 SLOAD DUP2 PUSH20 0xFFFFFFFFFFFFFFFFFFFFFFFFFFFFFFFFFFFFFFFF MUL NOT AND SWAP1 DUP4 PUSH20 0xFFFFFFFFFFFFFFFFFFFFFFFFFFFFFFFFFFFFFFFF AND MUL OR SWAP1 SSTORE POP POP PUSH2 0x11B JUMP JUMPDEST PUSH1 0x0 DUP2 MLOAD SWAP1 POP PUSH2 0x88 DUP2 PUSH2 0x104 JUMP JUMPDEST SWAP3 SWAP2 POP POP JUMP JUMPDEST PUSH1 0x0 PUSH1 0x20 DUP3 DUP5 SUB SLT ISZERO PUSH2 0xA4 JUMPI PUSH2 0xA3 PUSH2 0xFF JUMP JUMPDEST JUMPDEST PUSH1 0x0 PUSH2 0xB2 DUP5 DUP3 DUP6 ADD PUSH2 0x79 JUMP JUMPDEST SWAP2 POP POP SWAP3 SWAP2 POP POP JUMP JUMPDEST PUSH1 0x0 PUSH2 0xC6 DUP3 PUSH2 0xDF JUMP JUMPDEST SWAP1 POP SWAP2 SWAP1 POP JUMP JUMPDEST PUSH1 0x0 PUSH2 0xD8 DUP3 PUSH2 0xBB JUMP JUMPDEST SWAP1 POP SWAP2 SWAP1 POP JUMP JUMPDEST PUSH1 0x0 PUSH20 0xFFFFFFFFFFFFFFFFFFFFFFFFFFFFFFFFFFFFFFFF DUP3 AND SWAP1 POP SWAP2 SWAP1 POP JUMP JUMPDEST PUSH1 0x0 DUP1 REVERT JUMPDEST PUSH2 0x10D DUP2 PUSH2 0xCD JUMP JUMPDEST DUP2 EQ PUSH2 0x118 JUMPI PUSH1 0x0 DUP1 REVERT JUMPDEST POP JUMP JUMPDEST PUSH2 0xA15 DUP1 PUSH2 0x12A PUSH1 0x0 CODECOPY PUSH1 0x0 RETURN INVALID PUSH1 0x80 PUSH1 0x40 MSTORE CALLVALUE DUP1 ISZERO PUSH2 0x10 JUMPI PUSH1 0x0 DUP1 REVERT JUMPDEST POP PUSH1 0x4 CALLDATASIZE LT PUSH2 0x4C JUMPI PUSH1 0x0 CALLDATALOAD PUSH1 0xE0 SHR DUP1 PUSH4 0xDA9DA20 EQ PUSH2 0x51 JUMPI DUP1 PUSH4 0x2E1A7D4D EQ PUSH2 0x6D JUMPI DUP1 PUSH4 0x47E7EF24 EQ PUSH2 0x89 JUMPI DUP1 PUSH4 0xBFB231D2 EQ PUSH2 0xA5 JUMPI JUMPDEST PUSH1 0x0 DUP1 REVERT JUMPDEST PUSH2 0x6B PUSH1 0x4 DUP1 CALLDATASIZE SUB DUP2 ADD SWAP1 PUSH2 0x66 SWAP2 SWAP1 PUSH2 0x7EA JUMP JUMPDEST PUSH2 0xD7 JUMP JUMPDEST STOP JUMPDEST PUSH2 0x87 PUSH1 0x4 DUP1 CALLDATASIZE SUB DUP2 ADD SWAP1 PUSH2 0x82 SWAP2 SWAP1 PUSH2 0x7EA JUMP JUMPDEST PUSH2 0x29D JUMP JUMPDEST STOP JUMPDEST PUSH2 0xA3 PUSH1 0x4 DUP1 CALLDATASIZE SUB DUP2 ADD SWAP1 PUSH2 0x9E SWAP2 SWAP1 PUSH2 0x7AA JUMP JUMPDEST PUSH2 0x3F5 JUMP JUMPDEST STOP JUMPDEST PUSH2 0xBF PUSH1 0x4 DUP1 CALLDATASIZE SUB DUP2 ADD SWAP1 PUSH2 0xBA SWAP2 SWAP1 PUSH2 0x7EA JUMP JUMPDEST PUSH2 0x6B0 JUMP JUMPDEST PUSH1 0x40 MLOAD PUSH2 0xCE SWAP4 SWAP3 SWAP2 SWAP1 PUSH2 0x87B JUMP JUMPDEST PUSH1 0x40 MLOAD DUP1 SWAP2 SUB SWAP1 RETURN JUMPDEST PUSH1 0x0 PUSH1 0x2 PUSH1 0x0 DUP4 DUP2 MSTORE PUSH1 0x20 ADD SWAP1 DUP2 MSTORE PUSH1 0x20 ADD PUSH1 0x0 KECCAK256 PUSH1 0x0 ADD PUSH1 0x0 SWAP1 SLOAD SWAP1 PUSH2 0x100 EXP SWAP1 DIV PUSH20 0xFFFFFFFFFFFFFFFFFFFFFFFFFFFFFFFFFFFFFFFF AND SWAP1 POP PUSH1 0x0 PUSH1 0x2 PUSH1 0x0 DUP5 DUP2 MSTORE PUSH1 0x20 ADD SWAP1 DUP2 MSTORE PUSH1 0x20 ADD PUSH1 0x0 KECCAK256 PUSH1 0x2 ADD SLOAD SWAP1 POP CALLER PUSH20 0xFFFFFFFFFFFFFFFFFFFFFFFFFFFFFFFFFFFFFFFF AND DUP3 PUSH20 0xFFFFFFFFFFFFFFFFFFFFFFFFFFFFFFFFFFFFFFFF AND EQ PUSH2 0x19B JUMPI PUSH1 0x40 MLOAD PUSH32 0x8C379A000000000000000000000000000000000000000000000000000000000 DUP2 MSTORE PUSH1 0x4 ADD PUSH2 0x192 SWAP1 PUSH2 0x8B2 JUMP JUMPDEST PUSH1 0x40 MLOAD DUP1 SWAP2 SUB SWAP1 REVERT JUMPDEST PUSH1 0x2 PUSH1 0x0 DUP3 DUP2 MSTORE PUSH1 0x20 ADD SWAP1 DUP2 MSTORE PUSH1 0x20 ADD PUSH1 0x0 KECCAK256 PUSH1 0x0 DUP1 DUP3 ADD PUSH1 0x0 PUSH2 0x100 EXP DUP2 SLOAD SWAP1 PUSH20 0xFFFFFFFFFFFFFFFFFFFFFFFFFFFFFFFFFFFFFFFF MUL NOT AND SWAP1 SSTORE PUSH1 0x1 DUP3 ADD PUSH1 0x0 PUSH2 0x100 EXP DUP2 SLOAD SWAP1 PUSH20 0xFFFFFFFFFFFFFFFFFFFFFFFFFFFFFFFFFFFFFFFF MUL NOT AND SWAP1 SSTORE PUSH1 0x2 DUP3 ADD PUSH1 0x0 SWAP1 SSTORE POP POP PUSH1 0x1 PUSH1 0x0 SWAP1 SLOAD SWAP1 PUSH2 0x100 EXP SWAP1 DIV PUSH20 0xFFFFFFFFFFFFFFFFFFFFFFFFFFFFFFFFFFFFFFFF AND PUSH20 0xFFFFFFFFFFFFFFFFFFFFFFFFFFFFFFFFFFFFFFFF AND PUSH4 0x23B872DD ADDRESS DUP5 DUP5 PUSH1 0x40 MLOAD DUP5 PUSH4 0xFFFFFFFF AND PUSH1 0xE0 SHL DUP2 MSTORE PUSH1 0x4 ADD PUSH2 0x266 SWAP4 SWAP3 SWAP2 SWAP1 PUSH2 0x87B JUMP JUMPDEST PUSH1 0x0 PUSH1 0x40 MLOAD DUP1 DUP4 SUB DUP2 PUSH1 0x0 DUP8 DUP1 EXTCODESIZE ISZERO DUP1 ISZERO PUSH2 0x280 JUMPI PUSH1 0x0 DUP1 REVERT JUMPDEST POP GAS CALL ISZERO DUP1 ISZERO PUSH2 0x294 JUMPI RETURNDATASIZE PUSH1 0x0 DUP1 RETURNDATACOPY RETURNDATASIZE PUSH1 0x0 REVERT JUMPDEST POP POP POP POP POP POP POP JUMP JUMPDEST PUSH1 0x0 PUSH1 0x2 PUSH1 0x0 DUP4 DUP2 MSTORE PUSH1 0x20 ADD SWAP1 DUP2 MSTORE PUSH1 0x20 ADD PUSH1 0x0 KECCAK256 PUSH1 0x1 ADD PUSH1 0x0 SWAP1 SLOAD SWAP1 PUSH2 0x100 EXP SWAP1 DIV PUSH20 0xFFFFFFFFFFFFFFFFFFFFFFFFFFFFFFFFFFFFFFFF AND SWAP1 POP PUSH1 0x0 PUSH1 0x2 PUSH1 0x0 DUP5 DUP2 MSTORE PUSH1 0x20 ADD SWAP1 DUP2 MSTORE PUSH1 0x20 ADD PUSH1 0x0 KECCAK256 PUSH1 0x2 ADD SLOAD SWAP1 POP PUSH1 0x2 PUSH1 0x0 DUP5 DUP2 MSTORE PUSH1 0x20 ADD SWAP1 DUP2 MSTORE PUSH1 0x20 ADD PUSH1 0x0 KECCAK256 PUSH1 0x0 DUP1 DUP3 ADD PUSH1 0x0 PUSH2 0x100 EXP DUP2 SLOAD SWAP1 PUSH20 0xFFFFFFFFFFFFFFFFFFFFFFFFFFFFFFFFFFFFFFFF MUL NOT AND SWAP1 SSTORE PUSH1 0x1 DUP3 ADD PUSH1 0x0 PUSH2 0x100 EXP DUP2 SLOAD SWAP1 PUSH20 0xFFFFFFFFFFFFFFFFFFFFFFFFFFFFFFFFFFFFFFFF MUL NOT AND SWAP1 SSTORE PUSH1 0x2 DUP3 ADD PUSH1 0x0 SWAP1 SSTORE POP POP PUSH1 0x1 PUSH1 0x0 SWAP1 SLOAD SWAP1 PUSH2 0x100 EXP SWAP1 DIV PUSH20 0xFFFFFFFFFFFFFFFFFFFFFFFFFFFFFFFFFFFFFFFF AND PUSH20 0xFFFFFFFFFFFFFFFFFFFFFFFFFFFFFFFFFFFFFFFF AND PUSH4 0x23B872DD ADDRESS DUP5 DUP5 PUSH1 0x40 MLOAD DUP5 PUSH4 0xFFFFFFFF AND PUSH1 0xE0 SHL DUP2 MSTORE PUSH1 0x4 ADD PUSH2 0x3BE SWAP4 SWAP3 SWAP2 SWAP1 PUSH2 0x87B JUMP JUMPDEST PUSH1 0x0 PUSH1 0x40 MLOAD DUP1 DUP4 SUB DUP2 PUSH1 0x0 DUP8 DUP1 EXTCODESIZE ISZERO DUP1 ISZERO PUSH2 0x3D8 JUMPI PUSH1 0x0 DUP1 REVERT JUMPDEST POP GAS CALL ISZERO DUP1 ISZERO PUSH2 0x3EC JUMPI RETURNDATASIZE PUSH1 0x0 DUP1 RETURNDATACOPY RETURNDATASIZE PUSH1 0x0 REVERT JUMPDEST POP POP POP POP POP POP POP JUMP JUMPDEST PUSH1 0x1 PUSH1 0x0 SWAP1 SLOAD SWAP1 PUSH2 0x100 EXP SWAP1 DIV PUSH20 0xFFFFFFFFFFFFFFFFFFFFFFFFFFFFFFFFFFFFFFFF AND PUSH20 0xFFFFFFFFFFFFFFFFFFFFFFFFFFFFFFFFFFFFFFFF AND PUSH4 0x6352211E DUP3 PUSH1 0x40 MLOAD DUP3 PUSH4 0xFFFFFFFF AND PUSH1 0xE0 SHL DUP2 MSTORE PUSH1 0x4 ADD PUSH2 0x450 SWAP2 SWAP1 PUSH2 0x8F2 JUMP JUMPDEST PUSH1 0x20 PUSH1 0x40 MLOAD DUP1 DUP4 SUB DUP2 DUP7 DUP1 EXTCODESIZE ISZERO DUP1 ISZERO PUSH2 0x468 JUMPI PUSH1 0x0 DUP1 REVERT JUMPDEST POP GAS STATICCALL ISZERO DUP1 ISZERO PUSH2 0x47C JUMPI RETURNDATASIZE PUSH1 0x0 DUP1 RETURNDATACOPY RETURNDATASIZE PUSH1 0x0 REVERT JUMPDEST POP POP POP POP PUSH1 0x40 MLOAD RETURNDATASIZE PUSH1 0x1F NOT PUSH1 0x1F DUP3 ADD AND DUP3 ADD DUP1 PUSH1 0x40 MSTORE POP DUP2 ADD SWAP1 PUSH2 0x4A0 SWAP2 SWAP1 PUSH2 0x77D JUMP JUMPDEST PUSH20 0xFFFFFFFFFFFFFFFFFFFFFFFFFFFFFFFFFFFFFFFF AND CALLER PUSH20 0xFFFFFFFFFFFFFFFFFFFFFFFFFFFFFFFFFFFFFFFF AND EQ PUSH2 0x50D JUMPI PUSH1 0x40 MLOAD PUSH32 0x8C379A000000000000000000000000000000000000000000000000000000000 DUP2 MSTORE PUSH1 0x4 ADD PUSH2 0x504 SWAP1 PUSH2 0x8D2 JUMP JUMPDEST PUSH1 0x40 MLOAD DUP1 SWAP2 SUB SWAP1 REVERT JUMPDEST PUSH2 0x517 PUSH1 0x0 PUSH2 0x71A JUMP JUMPDEST PUSH1 0x0 PUSH2 0x523 PUSH1 0x0 PUSH2 0x730 JUMP JUMPDEST SWAP1 POP PUSH1 0x1 PUSH1 0x0 SWAP1 SLOAD SWAP1 PUSH2 0x100 EXP SWAP1 DIV PUSH20 0xFFFFFFFFFFFFFFFFFFFFFFFFFFFFFFFFFFFFFFFF AND PUSH20 0xFFFFFFFFFFFFFFFFFFFFFFFFFFFFFFFFFFFFFFFF AND PUSH4 0x23B872DD CALLER ADDRESS DUP6 PUSH1 0x40 MLOAD DUP5 PUSH4 0xFFFFFFFF AND PUSH1 0xE0 SHL DUP2 MSTORE PUSH1 0x4 ADD PUSH2 0x584 SWAP4 SWAP3 SWAP2 SWAP1 PUSH2 0x87B JUMP JUMPDEST PUSH1 0x0 PUSH1 0x40 MLOAD DUP1 DUP4 SUB DUP2 PUSH1 0x0 DUP8 DUP1 EXTCODESIZE ISZERO DUP1 ISZERO PUSH2 0x59E JUMPI PUSH1 0x0 DUP1 REVERT JUMPDEST POP GAS CALL ISZERO DUP1 ISZERO PUSH2 0x5B2 JUMPI RETURNDATASIZE PUSH1 0x0 DUP1 RETURNDATACOPY RETURNDATASIZE PUSH1 0x0 REVERT JUMPDEST POP POP POP POP PUSH1 0x40 MLOAD DUP1 PUSH1 0x60 ADD PUSH1 0x40 MSTORE DUP1 CALLER PUSH20 0xFFFFFFFFFFFFFFFFFFFFFFFFFFFFFFFFFFFFFFFF AND DUP2 MSTORE PUSH1 0x20 ADD DUP5 PUSH20 0xFFFFFFFFFFFFFFFFFFFFFFFFFFFFFFFFFFFFFFFF AND DUP2 MSTORE PUSH1 0x20 ADD DUP4 DUP2 MSTORE POP PUSH1 0x2 PUSH1 0x0 DUP4 DUP2 MSTORE PUSH1 0x20 ADD SWAP1 DUP2 MSTORE PUSH1 0x20 ADD PUSH1 0x0 KECCAK256 PUSH1 0x0 DUP3 ADD MLOAD DUP2 PUSH1 0x0 ADD PUSH1 0x0 PUSH2 0x100 EXP DUP2 SLOAD DUP2 PUSH20 0xFFFFFFFFFFFFFFFFFFFFFFFFFFFFFFFFFFFFFFFF MUL NOT AND SWAP1 DUP4 PUSH20 0xFFFFFFFFFFFFFFFFFFFFFFFFFFFFFFFFFFFFFFFF AND MUL OR SWAP1 SSTORE POP PUSH1 0x20 DUP3 ADD MLOAD DUP2 PUSH1 0x1 ADD PUSH1 0x0 PUSH2 0x100 EXP DUP2 SLOAD DUP2 PUSH20 0xFFFFFFFFFFFFFFFFFFFFFFFFFFFFFFFFFFFFFFFF MUL NOT AND SWAP1 DUP4 PUSH20 0xFFFFFFFFFFFFFFFFFFFFFFFFFFFFFFFFFFFFFFFF AND MUL OR SWAP1 SSTORE POP PUSH1 0x40 DUP3 ADD MLOAD DUP2 PUSH1 0x2 ADD SSTORE SWAP1 POP POP POP POP POP JUMP JUMPDEST PUSH1 0x2 PUSH1 0x20 MSTORE DUP1 PUSH1 0x0 MSTORE PUSH1 0x40 PUSH1 0x0 KECCAK256 PUSH1 0x0 SWAP2 POP SWAP1 POP DUP1 PUSH1 0x0 ADD PUSH1 0x0 SWAP1 SLOAD SWAP1 PUSH2 0x100 EXP SWAP1 DIV PUSH20 0xFFFFFFFFFFFFFFFFFFFFFFFFFFFFFFFFFFFFFFFF AND SWAP1 DUP1 PUSH1 0x1 ADD PUSH1 0x0 SWAP1 SLOAD SWAP1 PUSH2 0x100 EXP SWAP1 DIV PUSH20 0xFFFFFFFFFFFFFFFFFFFFFFFFFFFFFFFFFFFFFFFF AND SWAP1 DUP1 PUSH1 0x2 ADD SLOAD SWAP1 POP DUP4 JUMP JUMPDEST PUSH1 0x1 DUP2 PUSH1 0x0 ADD PUSH1 0x0 DUP3 DUP3 SLOAD ADD SWAP3 POP POP DUP2 SWAP1 SSTORE POP POP JUMP JUMPDEST PUSH1 0x0 DUP2 PUSH1 0x0 ADD SLOAD SWAP1 POP SWAP2 SWAP1 POP JUMP JUMPDEST PUSH1 0x0 DUP2 CALLDATALOAD SWAP1 POP PUSH2 0x74D DUP2 PUSH2 0x9B1 JUMP JUMPDEST SWAP3 SWAP2 POP POP JUMP JUMPDEST PUSH1 0x0 DUP2 MLOAD SWAP1 POP PUSH2 0x762 DUP2 PUSH2 0x9B1 JUMP JUMPDEST SWAP3 SWAP2 POP POP JUMP JUMPDEST PUSH1 0x0 DUP2 CALLDATALOAD SWAP1 POP PUSH2 0x777 DUP2 PUSH2 0x9C8 JUMP JUMPDEST SWAP3 SWAP2 POP POP JUMP JUMPDEST PUSH1 0x0 PUSH1 0x20 DUP3 DUP5 SUB SLT ISZERO PUSH2 0x793 JUMPI PUSH2 0x792 PUSH2 0x95A JUMP JUMPDEST JUMPDEST PUSH1 0x0 PUSH2 0x7A1 DUP5 DUP3 DUP6 ADD PUSH2 0x753 JUMP JUMPDEST SWAP2 POP POP SWAP3 SWAP2 POP POP JUMP JUMPDEST PUSH1 0x0 DUP1 PUSH1 0x40 DUP4 DUP6 SUB SLT ISZERO PUSH2 0x7C1 JUMPI PUSH2 0x7C0 PUSH2 0x95A JUMP JUMPDEST JUMPDEST PUSH1 0x0 PUSH2 0x7CF DUP6 DUP3 DUP7 ADD PUSH2 0x73E JUMP JUMPDEST SWAP3 POP POP PUSH1 0x20 PUSH2 0x7E0 DUP6 DUP3 DUP7 ADD PUSH2 0x768 JUMP JUMPDEST SWAP2 POP POP SWAP3 POP SWAP3 SWAP1 POP JUMP JUMPDEST PUSH1 0x0 PUSH1 0x20 DUP3 DUP5 SUB SLT ISZERO PUSH2 0x800 JUMPI PUSH2 0x7FF PUSH2 0x95A JUMP JUMPDEST JUMPDEST PUSH1 0x0 PUSH2 0x80E DUP5 DUP3 DUP6 ADD PUSH2 0x768 JUMP JUMPDEST SWAP2 POP POP SWAP3 SWAP2 POP POP JUMP JUMPDEST PUSH2 0x820 DUP2 PUSH2 0x91E JUMP JUMPDEST DUP3 MSTORE POP POP JUMP JUMPDEST PUSH1 0x0 PUSH2 0x833 PUSH1 0xC DUP4 PUSH2 0x90D JUMP JUMPDEST SWAP2 POP PUSH2 0x83E DUP3 PUSH2 0x95F JUMP JUMPDEST PUSH1 0x20 DUP3 ADD SWAP1 POP SWAP2 SWAP1 POP JUMP JUMPDEST PUSH1 0x0 PUSH2 0x856 PUSH1 0xC DUP4 PUSH2 0x90D JUMP JUMPDEST SWAP2 POP PUSH2 0x861 DUP3 PUSH2 0x988 JUMP JUMPDEST PUSH1 0x20 DUP3 ADD SWAP1 POP SWAP2 SWAP1 POP JUMP JUMPDEST PUSH2 0x875 DUP2 PUSH2 0x950 JUMP JUMPDEST DUP3 MSTORE POP POP JUMP JUMPDEST PUSH1 0x0 PUSH1 0x60 DUP3 ADD SWAP1 POP PUSH2 0x890 PUSH1 0x0 DUP4 ADD DUP7 PUSH2 0x817 JUMP JUMPDEST PUSH2 0x89D PUSH1 0x20 DUP4 ADD DUP6 PUSH2 0x817 JUMP JUMPDEST PUSH2 0x8AA PUSH1 0x40 DUP4 ADD DUP5 PUSH2 0x86C JUMP JUMPDEST SWAP5 SWAP4 POP POP POP POP JUMP JUMPDEST PUSH1 0x0 PUSH1 0x20 DUP3 ADD SWAP1 POP DUP2 DUP2 SUB PUSH1 0x0 DUP4 ADD MSTORE PUSH2 0x8CB DUP2 PUSH2 0x826 JUMP JUMPDEST SWAP1 POP SWAP2 SWAP1 POP JUMP JUMPDEST PUSH1 0x0 PUSH1 0x20 DUP3 ADD SWAP1 POP DUP2 DUP2 SUB PUSH1 0x0 DUP4 ADD MSTORE PUSH2 0x8EB DUP2 PUSH2 0x849 JUMP JUMPDEST SWAP1 POP SWAP2 SWAP1 POP JUMP JUMPDEST PUSH1 0x0 PUSH1 0x20 DUP3 ADD SWAP1 POP PUSH2 0x907 PUSH1 0x0 DUP4 ADD DUP5 PUSH2 0x86C JUMP JUMPDEST SWAP3 SWAP2 POP POP JUMP JUMPDEST PUSH1 0x0 DUP3 DUP3 MSTORE PUSH1 0x20 DUP3 ADD SWAP1 POP SWAP3 SWAP2 POP POP JUMP JUMPDEST PUSH1 0x0 PUSH2 0x929 DUP3 PUSH2 0x930 JUMP JUMPDEST SWAP1 POP SWAP2 SWAP1 POP JUMP JUMPDEST PUSH1 0x0 PUSH20 0xFFFFFFFFFFFFFFFFFFFFFFFFFFFFFFFFFFFFFFFF DUP3 AND SWAP1 POP SWAP2 SWAP1 POP JUMP JUMPDEST PUSH1 0x0 DUP2 SWAP1 POP SWAP2 SWAP1 POP JUMP JUMPDEST PUSH1 0x0 DUP1 REVERT JUMPDEST PUSH32 0x4E6F7420612073656E6465720000000000000000000000000000000000000000 PUSH1 0x0 DUP3 ADD MSTORE POP JUMP JUMPDEST PUSH32 0x4E6F7420616E206F776E65720000000000000000000000000000000000000000 PUSH1 0x0 DUP3 ADD MSTORE POP JUMP JUMPDEST PUSH2 0x9BA DUP2 PUSH2 0x91E JUMP JUMPDEST DUP2 EQ PUSH2 0x9C5 JUMPI PUSH1 0x0 DUP1 REVERT JUMPDEST POP JUMP JUMPDEST PUSH2 0x9D1 DUP2 PUSH2 0x950 JUMP JUMPDEST DUP2 EQ PUSH2 0x9DC JUMPI PUSH1 0x0 DUP1 REVERT JUMPDEST POP JUMP INVALID LOG2 PUSH5 0x6970667358 0x22 SLT KECCAK256 0x26 MLOAD ISZERO LT LOG2 0xD0 0xB7 0x49 PUSH17 0xBC8A971BAE4D402EFEB9E69D8477AD3E20 PUSH16 0x529F3320C264736F6C63430008070033 "
				},
				"gasEstimates": {
					"creation": {
						"codeDepositCost": "516200",
						"executionCost": "infinite",
						"totalCost": "infinite"
					},
					"external": {
						"deposit(address,uint256)": "infinite",
						"items(uint256)": "infinite",
						"rollback(uint256)": "infinite",
						"withdraw(uint256)": "infinite"
					}
				},
				"methodIdentifiers": {
					"deposit(address,uint256)": "47e7ef24",
					"items(uint256)": "bfb231d2",
					"rollback(uint256)": "0da9da20",
					"withdraw(uint256)": "2e1a7d4d"
				}
			},
			"storageLayout": {
				"storage": [
					{
						"astId": 212,
						"contract": "contracts/EscrowERC721.sol:EscrowERC721",
						"label": "_tokenIds",
						"offset": 0,
						"slot": "0",
						"type": "t_struct(Counter)121_storage"
					},
					{
						"astId": 215,
						"contract": "contracts/EscrowERC721.sol:EscrowERC721",
						"label": "token",
						"offset": 0,
						"slot": "1",
						"type": "t_contract(IERC721)115"
					},
					{
						"astId": 227,
						"contract": "contracts/EscrowERC721.sol:EscrowERC721",
						"label": "items",
						"offset": 0,
						"slot": "2",
						"type": "t_mapping(t_uint256,t_struct(ERC721Item)222_storage)"
					}
				],
				"types": {
					"t_address": {
						"encoding": "inplace",
						"label": "address",
						"numberOfBytes": "20"
					},
					"t_contract(IERC721)115": {
						"encoding": "inplace",
						"label": "contract IERC721",
						"numberOfBytes": "20"
					},
					"t_mapping(t_uint256,t_struct(ERC721Item)222_storage)": {
						"encoding": "mapping",
						"key": "t_uint256",
						"label": "mapping(uint256 => struct EscrowERC721.ERC721Item)",
						"numberOfBytes": "32",
						"value": "t_struct(ERC721Item)222_storage"
					},
					"t_struct(Counter)121_storage": {
						"encoding": "inplace",
						"label": "struct Counters.Counter",
						"members": [
							{
								"astId": 120,
								"contract": "contracts/EscrowERC721.sol:EscrowERC721",
								"label": "_value",
								"offset": 0,
								"slot": "0",
								"type": "t_uint256"
							}
						],
						"numberOfBytes": "32"
					},
					"t_struct(ERC721Item)222_storage": {
						"encoding": "inplace",
						"label": "struct EscrowERC721.ERC721Item",
						"members": [
							{
								"astId": 217,
								"contract": "contracts/EscrowERC721.sol:EscrowERC721",
								"label": "sender",
								"offset": 0,
								"slot": "0",
								"type": "t_address"
							},
							{
								"astId": 219,
								"contract": "contracts/EscrowERC721.sol:EscrowERC721",
								"label": "receiver",
								"offset": 0,
								"slot": "1",
								"type": "t_address"
							},
							{
								"astId": 221,
								"contract": "contracts/EscrowERC721.sol:EscrowERC721",
								"label": "itemId",
								"offset": 0,
								"slot": "2",
								"type": "t_uint256"
							}
						],
						"numberOfBytes": "96"
					},
					"t_uint256": {
						"encoding": "inplace",
						"label": "uint256",
						"numberOfBytes": "32"
					}
				}
			},
			"userdoc": {
				"kind": "user",
				"methods": {},
				"version": 1
			}
		}
	}
}