{
	"contracts/EscrowERC20.sol": {
		"EscrowERC20": {
			"abi": [
				{
					"inputs": [
						{
							"internalType": "address",
							"name": "ERC20Address",
							"type": "address"
						}
					],
					"stateMutability": "nonpayable",
					"type": "constructor"
				},
				{
					"inputs": [],
					"name": "_token",
					"outputs": [
						{
							"internalType": "contract IERC20",
							"name": "",
							"type": "address"
						}
					],
					"stateMutability": "view",
					"type": "function"
				},
				{
					"inputs": [
						{
							"internalType": "bytes32",
							"name": "",
							"type": "bytes32"
						}
					],
					"name": "balances",
					"outputs": [
						{
							"internalType": "uint256",
							"name": "",
							"type": "uint256"
						}
					],
					"stateMutability": "view",
					"type": "function"
				},
				{
					"inputs": [
						{
							"internalType": "bytes32",
							"name": "trx_hash",
							"type": "bytes32"
						},
						{
							"internalType": "uint256",
							"name": "amount",
							"type": "uint256"
						}
					],
					"name": "deposit",
					"outputs": [],
					"stateMutability": "nonpayable",
					"type": "function"
				},
				{
					"inputs": [
						{
							"internalType": "uint256",
							"name": "amount",
							"type": "uint256"
						}
					],
					"name": "getERC20Hash",
					"outputs": [
						{
							"internalType": "bytes32",
							"name": "result",
							"type": "bytes32"
						}
					],
					"stateMutability": "view",
					"type": "function"
				},
				{
					"inputs": [
						{
							"internalType": "bytes32",
							"name": "trx_hash",
							"type": "bytes32"
						}
					],
					"name": "withdraw",
					"outputs": [],
					"stateMutability": "nonpayable",
					"type": "function"
				}
			],
			"devdoc": {
				"kind": "dev",
				"methods": {},
				"version": 1
			},
			"evm": {
				"assembly": "    /* \"contracts/EscrowERC20.sol\":123:1317  contract EscrowERC20 {... */\n  mstore(0x40, 0x80)\n    /* \"contracts/EscrowERC20.sol\":251:358  constructor(address ERC20Address) {... */\n  callvalue\n  dup1\n  iszero\n  tag_1\n  jumpi\n  0x00\n  dup1\n  revert\ntag_1:\n  pop\n  mload(0x40)\n  sub(codesize, bytecodeSize)\n  dup1\n  bytecodeSize\n  dup4\n  codecopy\n  dup2\n  dup2\n  add\n  0x40\n  mstore\n  dup2\n  add\n  swap1\n  tag_2\n  swap2\n  swap1\n  tag_3\n  jump\t// in\ntag_2:\n    /* \"contracts/EscrowERC20.sol\":311:312  0 */\n  0x00\n    /* \"contracts/EscrowERC20.sol\":295:308  deposit_count */\n  0x02\n    /* \"contracts/EscrowERC20.sol\":295:312  deposit_count = 0 */\n  dup2\n  swap1\n  sstore\n  pop\n    /* \"contracts/EscrowERC20.sol\":338:350  ERC20Address */\n  dup1\n    /* \"contracts/EscrowERC20.sol\":322:328  _token */\n  0x00\n  dup1\n    /* \"contracts/EscrowERC20.sol\":322:351  _token = IERC20(ERC20Address) */\n  0x0100\n  exp\n  dup2\n  sload\n  dup2\n  0xffffffffffffffffffffffffffffffffffffffff\n  mul\n  not\n  and\n  swap1\n  dup4\n  0xffffffffffffffffffffffffffffffffffffffff\n  and\n  mul\n  or\n  swap1\n  sstore\n  pop\n    /* \"contracts/EscrowERC20.sol\":251:358  constructor(address ERC20Address) {... */\n  pop\n    /* \"contracts/EscrowERC20.sol\":123:1317  contract EscrowERC20 {... */\n  jump(tag_6)\n    /* \"#utility.yul\":7:150   */\ntag_8:\n    /* \"#utility.yul\":64:69   */\n  0x00\n    /* \"#utility.yul\":95:101   */\n  dup2\n    /* \"#utility.yul\":89:102   */\n  mload\n    /* \"#utility.yul\":80:102   */\n  swap1\n  pop\n    /* \"#utility.yul\":111:144   */\n  tag_10\n    /* \"#utility.yul\":138:143   */\n  dup2\n    /* \"#utility.yul\":111:144   */\n  tag_11\n  jump\t// in\ntag_10:\n    /* \"#utility.yul\":7:150   */\n  swap3\n  swap2\n  pop\n  pop\n  jump\t// out\n    /* \"#utility.yul\":156:507   */\ntag_3:\n    /* \"#utility.yul\":226:232   */\n  0x00\n    /* \"#utility.yul\":275:277   */\n  0x20\n    /* \"#utility.yul\":263:272   */\n  dup3\n    /* \"#utility.yul\":254:261   */\n  dup5\n    /* \"#utility.yul\":250:273   */\n  sub\n    /* \"#utility.yul\":246:278   */\n  slt\n    /* \"#utility.yul\":243:362   */\n  iszero\n  tag_13\n  jumpi\n    /* \"#utility.yul\":281:360   */\n  tag_14\n  tag_15\n  jump\t// in\ntag_14:\n    /* \"#utility.yul\":243:362   */\ntag_13:\n    /* \"#utility.yul\":401:402   */\n  0x00\n    /* \"#utility.yul\":426:490   */\n  tag_16\n    /* \"#utility.yul\":482:489   */\n  dup5\n    /* \"#utility.yul\":473:479   */\n  dup3\n    /* \"#utility.yul\":462:471   */\n  dup6\n    /* \"#utility.yul\":458:480   */\n  add\n    /* \"#utility.yul\":426:490   */\n  tag_8\n  jump\t// in\ntag_16:\n    /* \"#utility.yul\":416:490   */\n  swap2\n  pop\n    /* \"#utility.yul\":372:500   */\n  pop\n    /* \"#utility.yul\":156:507   */\n  swap3\n  swap2\n  pop\n  pop\n  jump\t// out\n    /* \"#utility.yul\":594:690   */\ntag_19:\n    /* \"#utility.yul\":631:638   */\n  0x00\n    /* \"#utility.yul\":660:684   */\n  tag_21\n    /* \"#utility.yul\":678:683   */\n  dup3\n    /* \"#utility.yul\":660:684   */\n  tag_22\n  jump\t// in\ntag_21:\n    /* \"#utility.yul\":649:684   */\n  swap1\n  pop\n    /* \"#utility.yul\":594:690   */\n  swap2\n  swap1\n  pop\n  jump\t// out\n    /* \"#utility.yul\":696:822   */\ntag_22:\n    /* \"#utility.yul\":733:740   */\n  0x00\n    /* \"#utility.yul\":773:815   */\n  0xffffffffffffffffffffffffffffffffffffffff\n    /* \"#utility.yul\":766:771   */\n  dup3\n    /* \"#utility.yul\":762:816   */\n  and\n    /* \"#utility.yul\":751:816   */\n  swap1\n  pop\n    /* \"#utility.yul\":696:822   */\n  swap2\n  swap1\n  pop\n  jump\t// out\n    /* \"#utility.yul\":951:1068   */\ntag_15:\n    /* \"#utility.yul\":1060:1061   */\n  0x00\n    /* \"#utility.yul\":1057:1058   */\n  dup1\n    /* \"#utility.yul\":1050:1062   */\n  revert\n    /* \"#utility.yul\":1074:1196   */\ntag_11:\n    /* \"#utility.yul\":1147:1171   */\n  tag_28\n    /* \"#utility.yul\":1165:1170   */\n  dup2\n    /* \"#utility.yul\":1147:1171   */\n  tag_19\n  jump\t// in\ntag_28:\n    /* \"#utility.yul\":1140:1145   */\n  dup2\n    /* \"#utility.yul\":1137:1172   */\n  eq\n    /* \"#utility.yul\":1127:1190   */\n  tag_29\n  jumpi\n    /* \"#utility.yul\":1186:1187   */\n  0x00\n    /* \"#utility.yul\":1183:1184   */\n  dup1\n    /* \"#utility.yul\":1176:1188   */\n  revert\n    /* \"#utility.yul\":1127:1190   */\ntag_29:\n    /* \"#utility.yul\":1074:1196   */\n  pop\n  jump\t// out\n    /* \"contracts/EscrowERC20.sol\":123:1317  contract EscrowERC20 {... */\ntag_6:\n  dataSize(sub_0)\n  dup1\n  dataOffset(sub_0)\n  0x00\n  codecopy\n  0x00\n  return\nstop\n\nsub_0: assembly {\n        /* \"contracts/EscrowERC20.sol\":123:1317  contract EscrowERC20 {... */\n      mstore(0x40, 0x80)\n      callvalue\n      dup1\n      iszero\n      tag_1\n      jumpi\n      0x00\n      dup1\n      revert\n    tag_1:\n      pop\n      jumpi(tag_2, lt(calldatasize, 0x04))\n      shr(0xe0, calldataload(0x00))\n      dup1\n      0x1de26e16\n      eq\n      tag_3\n      jumpi\n      dup1\n      0x5e53ee21\n      eq\n      tag_4\n      jumpi\n      dup1\n      0x8909aa3f\n      eq\n      tag_5\n      jumpi\n      dup1\n      0x8e19899e\n      eq\n      tag_6\n      jumpi\n      dup1\n      0xecd0c0c3\n      eq\n      tag_7\n      jumpi\n    tag_2:\n      0x00\n      dup1\n      revert\n        /* \"contracts/EscrowERC20.sol\":364:804  function deposit(bytes32 trx_hash, uint amount) external {... */\n    tag_3:\n      tag_8\n      0x04\n      dup1\n      calldatasize\n      sub\n      dup2\n      add\n      swap1\n      tag_9\n      swap2\n      swap1\n      tag_10\n      jump\t// in\n    tag_9:\n      tag_11\n      jump\t// in\n    tag_8:\n      stop\n        /* \"contracts/EscrowERC20.sol\":1158:1315  function getERC20Hash(uint amount) public view returns(bytes32 result) {... */\n    tag_4:\n      tag_12\n      0x04\n      dup1\n      calldatasize\n      sub\n      dup2\n      add\n      swap1\n      tag_13\n      swap2\n      swap1\n      tag_14\n      jump\t// in\n    tag_13:\n      tag_15\n      jump\t// in\n    tag_12:\n      mload(0x40)\n      tag_16\n      swap2\n      swap1\n      tag_17\n      jump\t// in\n    tag_16:\n      mload(0x40)\n      dup1\n      swap2\n      sub\n      swap1\n      return\n        /* \"contracts/EscrowERC20.sol\":176:220  mapping (bytes32 => uint256) public balances */\n    tag_5:\n      tag_18\n      0x04\n      dup1\n      calldatasize\n      sub\n      dup2\n      add\n      swap1\n      tag_19\n      swap2\n      swap1\n      tag_20\n      jump\t// in\n    tag_19:\n      tag_21\n      jump\t// in\n    tag_18:\n      mload(0x40)\n      tag_22\n      swap2\n      swap1\n      tag_23\n      jump\t// in\n    tag_22:\n      mload(0x40)\n      dup1\n      swap2\n      sub\n      swap1\n      return\n        /* \"contracts/EscrowERC20.sol\":810:1152  function withdraw(bytes32 trx_hash) external {... */\n    tag_6:\n      tag_24\n      0x04\n      dup1\n      calldatasize\n      sub\n      dup2\n      add\n      swap1\n      tag_25\n      swap2\n      swap1\n      tag_20\n      jump\t// in\n    tag_25:\n      tag_26\n      jump\t// in\n    tag_24:\n      stop\n        /* \"contracts/EscrowERC20.sol\":150:170  IERC20 public _token */\n    tag_7:\n      tag_27\n      tag_28\n      jump\t// in\n    tag_27:\n      mload(0x40)\n      tag_29\n      swap2\n      swap1\n      tag_30\n      jump\t// in\n    tag_29:\n      mload(0x40)\n      dup1\n      swap2\n      sub\n      swap1\n      return\n        /* \"contracts/EscrowERC20.sol\":364:804  function deposit(bytes32 trx_hash, uint amount) external {... */\n    tag_11:\n        /* \"contracts/EscrowERC20.sol\":454:455  0 */\n      0x00\n        /* \"contracts/EscrowERC20.sol\":439:455  trx_hash[0] != 0 */\n      0xf8\n      shl\n        /* \"contracts/EscrowERC20.sol\":439:447  trx_hash */\n      dup3\n        /* \"contracts/EscrowERC20.sol\":448:449  0 */\n      0x00\n        /* \"contracts/EscrowERC20.sol\":439:450  trx_hash[0] */\n      0x20\n      dup2\n      lt\n      tag_32\n      jumpi\n      tag_33\n      tag_34\n      jump\t// in\n    tag_33:\n    tag_32:\n      byte\n      0xf8\n      shl\n        /* \"contracts/EscrowERC20.sol\":439:455  trx_hash[0] != 0 */\n      not(0xffffffffffffffffffffffffffffffffffffffffffffffffffffffffffffff)\n      and\n      eq\n      iszero\n        /* \"contracts/EscrowERC20.sol\":431:493  require(trx_hash[0] != 0, \"Transaction hash cannot be empty!\") */\n      tag_35\n      jumpi\n      mload(0x40)\n      0x08c379a000000000000000000000000000000000000000000000000000000000\n      dup2\n      mstore\n      0x04\n      add\n      tag_36\n      swap1\n      tag_37\n      jump\t// in\n    tag_36:\n      mload(0x40)\n      dup1\n      swap2\n      sub\n      swap1\n      revert\n    tag_35:\n        /* \"contracts/EscrowERC20.sol\":521:522  0 */\n      0x00\n        /* \"contracts/EscrowERC20.sol\":511:517  amount */\n      dup2\n        /* \"contracts/EscrowERC20.sol\":511:522  amount != 0 */\n      eq\n      iszero\n        /* \"contracts/EscrowERC20.sol\":503:562  require(amount != 0, \"Escrow amount cannot be equal to 0!\") */\n      tag_38\n      jumpi\n      mload(0x40)\n      0x08c379a000000000000000000000000000000000000000000000000000000000\n      dup2\n      mstore\n      0x04\n      add\n      tag_39\n      swap1\n      tag_40\n      jump\t// in\n    tag_39:\n      mload(0x40)\n      dup1\n      swap2\n      sub\n      swap1\n      revert\n    tag_38:\n        /* \"contracts/EscrowERC20.sol\":602:603  0 */\n      0x00\n        /* \"contracts/EscrowERC20.sol\":580:588  balances */\n      0x01\n        /* \"contracts/EscrowERC20.sol\":580:598  balances[trx_hash] */\n      0x00\n        /* \"contracts/EscrowERC20.sol\":589:597  trx_hash */\n      dup5\n        /* \"contracts/EscrowERC20.sol\":580:598  balances[trx_hash] */\n      dup2\n      mstore\n      0x20\n      add\n      swap1\n      dup2\n      mstore\n      0x20\n      add\n      0x00\n      keccak256\n      sload\n        /* \"contracts/EscrowERC20.sol\":580:603  balances[trx_hash] == 0 */\n      eq\n        /* \"contracts/EscrowERC20.sol\":572:631  require(balances[trx_hash] == 0, \"Hash is already in use!\") */\n      tag_41\n      jumpi\n      mload(0x40)\n      0x08c379a000000000000000000000000000000000000000000000000000000000\n      dup2\n      mstore\n      0x04\n      add\n      tag_42\n      swap1\n      tag_43\n      jump\t// in\n    tag_42:\n      mload(0x40)\n      dup1\n      swap2\n      sub\n      swap1\n      revert\n    tag_41:\n        /* \"contracts/EscrowERC20.sol\":649:655  _token */\n      0x00\n      dup1\n      sload\n      swap1\n      0x0100\n      exp\n      swap1\n      div\n      0xffffffffffffffffffffffffffffffffffffffff\n      and\n        /* \"contracts/EscrowERC20.sol\":649:668  _token.transferFrom */\n      0xffffffffffffffffffffffffffffffffffffffff\n      and\n      0x23b872dd\n        /* \"contracts/EscrowERC20.sol\":669:679  msg.sender */\n      caller\n        /* \"contracts/EscrowERC20.sol\":689:693  this */\n      address\n        /* \"contracts/EscrowERC20.sol\":696:702  amount */\n      dup5\n        /* \"contracts/EscrowERC20.sol\":649:703  _token.transferFrom(msg.sender, address(this), amount) */\n      mload(0x40)\n      dup5\n      0xffffffff\n      and\n      0xe0\n      shl\n      dup2\n      mstore\n      0x04\n      add\n      tag_44\n      swap4\n      swap3\n      swap2\n      swap1\n      tag_45\n      jump\t// in\n    tag_44:\n      0x20\n      mload(0x40)\n      dup1\n      dup4\n      sub\n      dup2\n      0x00\n      dup8\n      dup1\n      extcodesize\n      iszero\n      dup1\n      iszero\n      tag_46\n      jumpi\n      0x00\n      dup1\n      revert\n    tag_46:\n      pop\n      gas\n      call\n      iszero\n      dup1\n      iszero\n      tag_48\n      jumpi\n      returndatasize\n      0x00\n      dup1\n      returndatacopy\n      revert(0x00, returndatasize)\n    tag_48:\n      pop\n      pop\n      pop\n      pop\n      mload(0x40)\n      returndatasize\n      not(0x1f)\n      0x1f\n      dup3\n      add\n      and\n      dup3\n      add\n      dup1\n      0x40\n      mstore\n      pop\n      dup2\n      add\n      swap1\n      tag_49\n      swap2\n      swap1\n      tag_50\n      jump\t// in\n    tag_49:\n        /* \"contracts/EscrowERC20.sol\":641:734  require(_token.transferFrom(msg.sender, address(this), amount), \"Transfer to escrow failed!\") */\n      tag_51\n      jumpi\n      mload(0x40)\n      0x08c379a000000000000000000000000000000000000000000000000000000000\n      dup2\n      mstore\n      0x04\n      add\n      tag_52\n      swap1\n      tag_53\n      jump\t// in\n    tag_52:\n      mload(0x40)\n      dup1\n      swap2\n      sub\n      swap1\n      revert\n    tag_51:\n        /* \"contracts/EscrowERC20.sol\":766:772  amount */\n      dup1\n        /* \"contracts/EscrowERC20.sol\":745:753  balances */\n      0x01\n        /* \"contracts/EscrowERC20.sol\":745:763  balances[trx_hash] */\n      0x00\n        /* \"contracts/EscrowERC20.sol\":754:762  trx_hash */\n      dup5\n        /* \"contracts/EscrowERC20.sol\":745:763  balances[trx_hash] */\n      dup2\n      mstore\n      0x20\n      add\n      swap1\n      dup2\n      mstore\n      0x20\n      add\n      0x00\n      keccak256\n        /* \"contracts/EscrowERC20.sol\":745:772  balances[trx_hash] = amount */\n      dup2\n      swap1\n      sstore\n      pop\n        /* \"contracts/EscrowERC20.sol\":782:795  deposit_count */\n      0x02\n      0x00\n        /* \"contracts/EscrowERC20.sol\":782:797  deposit_count++ */\n      dup2\n      sload\n      dup1\n      swap3\n      swap2\n      swap1\n      tag_54\n      swap1\n      tag_55\n      jump\t// in\n    tag_54:\n      swap2\n      swap1\n      pop\n      sstore\n      pop\n        /* \"contracts/EscrowERC20.sol\":364:804  function deposit(bytes32 trx_hash, uint amount) external {... */\n      pop\n      pop\n      jump\t// out\n        /* \"contracts/EscrowERC20.sol\":1158:1315  function getERC20Hash(uint amount) public view returns(bytes32 result) {... */\n    tag_15:\n        /* \"contracts/EscrowERC20.sol\":1213:1227  bytes32 result */\n      0x00\n        /* \"contracts/EscrowERC20.sol\":1273:1283  msg.sender */\n      caller\n        /* \"contracts/EscrowERC20.sol\":1285:1298  deposit_count */\n      sload(0x02)\n        /* \"contracts/EscrowERC20.sol\":1300:1306  amount */\n      dup4\n        /* \"contracts/EscrowERC20.sol\":1256:1307  abi.encodePacked(msg.sender, deposit_count, amount) */\n      add(0x20, mload(0x40))\n      tag_57\n      swap4\n      swap3\n      swap2\n      swap1\n      tag_58\n      jump\t// in\n    tag_57:\n      mload(0x40)\n      0x20\n      dup2\n      dup4\n      sub\n      sub\n      dup2\n      mstore\n      swap1\n      0x40\n      mstore\n        /* \"contracts/EscrowERC20.sol\":1246:1308  keccak256(abi.encodePacked(msg.sender, deposit_count, amount)) */\n      dup1\n      mload\n      swap1\n      0x20\n      add\n      keccak256\n        /* \"contracts/EscrowERC20.sol\":1239:1308  return keccak256(abi.encodePacked(msg.sender, deposit_count, amount)) */\n      swap1\n      pop\n        /* \"contracts/EscrowERC20.sol\":1158:1315  function getERC20Hash(uint amount) public view returns(bytes32 result) {... */\n      swap2\n      swap1\n      pop\n      jump\t// out\n        /* \"contracts/EscrowERC20.sol\":176:220  mapping (bytes32 => uint256) public balances */\n    tag_21:\n      mstore(0x20, 0x01)\n      dup1\n      0x00\n      mstore\n      keccak256(0x00, 0x40)\n      0x00\n      swap2\n      pop\n      swap1\n      pop\n      sload\n      dup2\n      jump\t// out\n        /* \"contracts/EscrowERC20.sol\":810:1152  function withdraw(bytes32 trx_hash) external {... */\n    tag_26:\n        /* \"contracts/EscrowERC20.sol\":888:889  0 */\n      0x00\n        /* \"contracts/EscrowERC20.sol\":873:889  trx_hash[0] != 0 */\n      0xf8\n      shl\n        /* \"contracts/EscrowERC20.sol\":873:881  trx_hash */\n      dup2\n        /* \"contracts/EscrowERC20.sol\":882:883  0 */\n      0x00\n        /* \"contracts/EscrowERC20.sol\":873:884  trx_hash[0] */\n      0x20\n      dup2\n      lt\n      tag_60\n      jumpi\n      tag_61\n      tag_34\n      jump\t// in\n    tag_61:\n    tag_60:\n      byte\n      0xf8\n      shl\n        /* \"contracts/EscrowERC20.sol\":873:889  trx_hash[0] != 0 */\n      not(0xffffffffffffffffffffffffffffffffffffffffffffffffffffffffffffff)\n      and\n      eq\n      iszero\n        /* \"contracts/EscrowERC20.sol\":865:928  require(trx_hash[0] != 0, \"Transaction hash can not be empty!\") */\n      tag_62\n      jumpi\n      mload(0x40)\n      0x08c379a000000000000000000000000000000000000000000000000000000000\n      dup2\n      mstore\n      0x04\n      add\n      tag_63\n      swap1\n      tag_64\n      jump\t// in\n    tag_63:\n      mload(0x40)\n      dup1\n      swap2\n      sub\n      swap1\n      revert\n    tag_62:\n        /* \"contracts/EscrowERC20.sol\":968:969  0 */\n      0x00\n        /* \"contracts/EscrowERC20.sol\":946:954  balances */\n      0x01\n        /* \"contracts/EscrowERC20.sol\":946:964  balances[trx_hash] */\n      0x00\n        /* \"contracts/EscrowERC20.sol\":955:963  trx_hash */\n      dup4\n        /* \"contracts/EscrowERC20.sol\":946:964  balances[trx_hash] */\n      dup2\n      mstore\n      0x20\n      add\n      swap1\n      dup2\n      mstore\n      0x20\n      add\n      0x00\n      keccak256\n      sload\n        /* \"contracts/EscrowERC20.sol\":946:969  balances[trx_hash] != 0 */\n      eq\n      iszero\n        /* \"contracts/EscrowERC20.sol\":938:1018  require(balances[trx_hash] != 0, \"Escrow with transaction hash does not exist.\") */\n      tag_65\n      jumpi\n      mload(0x40)\n      0x08c379a000000000000000000000000000000000000000000000000000000000\n      dup2\n      mstore\n      0x04\n      add\n      tag_66\n      swap1\n      tag_67\n      jump\t// in\n    tag_66:\n      mload(0x40)\n      dup1\n      swap2\n      sub\n      swap1\n      revert\n    tag_65:\n        /* \"contracts/EscrowERC20.sol\":1036:1042  _token */\n      0x00\n      dup1\n      sload\n      swap1\n      0x0100\n      exp\n      swap1\n      div\n      0xffffffffffffffffffffffffffffffffffffffff\n      and\n        /* \"contracts/EscrowERC20.sol\":1036:1051  _token.transfer */\n      0xffffffffffffffffffffffffffffffffffffffff\n      and\n      0xa9059cbb\n        /* \"contracts/EscrowERC20.sol\":1052:1062  msg.sender */\n      caller\n        /* \"contracts/EscrowERC20.sol\":1064:1072  balances */\n      0x01\n        /* \"contracts/EscrowERC20.sol\":1064:1082  balances[trx_hash] */\n      0x00\n        /* \"contracts/EscrowERC20.sol\":1073:1081  trx_hash */\n      dup6\n        /* \"contracts/EscrowERC20.sol\":1064:1082  balances[trx_hash] */\n      dup2\n      mstore\n      0x20\n      add\n      swap1\n      dup2\n      mstore\n      0x20\n      add\n      0x00\n      keccak256\n      sload\n        /* \"contracts/EscrowERC20.sol\":1036:1083  _token.transfer(msg.sender, balances[trx_hash]) */\n      mload(0x40)\n      dup4\n      0xffffffff\n      and\n      0xe0\n      shl\n      dup2\n      mstore\n      0x04\n      add\n      tag_68\n      swap3\n      swap2\n      swap1\n      tag_69\n      jump\t// in\n    tag_68:\n      0x20\n      mload(0x40)\n      dup1\n      dup4\n      sub\n      dup2\n      0x00\n      dup8\n      dup1\n      extcodesize\n      iszero\n      dup1\n      iszero\n      tag_70\n      jumpi\n      0x00\n      dup1\n      revert\n    tag_70:\n      pop\n      gas\n      call\n      iszero\n      dup1\n      iszero\n      tag_72\n      jumpi\n      returndatasize\n      0x00\n      dup1\n      returndatacopy\n      revert(0x00, returndatasize)\n    tag_72:\n      pop\n      pop\n      pop\n      pop\n      mload(0x40)\n      returndatasize\n      not(0x1f)\n      0x1f\n      dup3\n      add\n      and\n      dup3\n      add\n      dup1\n      0x40\n      mstore\n      pop\n      dup2\n      add\n      swap1\n      tag_73\n      swap2\n      swap1\n      tag_50\n      jump\t// in\n    tag_73:\n        /* \"contracts/EscrowERC20.sol\":1028:1112  require(_token.transfer(msg.sender, balances[trx_hash]), \"Escrow retrieval failed!\") */\n      tag_74\n      jumpi\n      mload(0x40)\n      0x08c379a000000000000000000000000000000000000000000000000000000000\n      dup2\n      mstore\n      0x04\n      add\n      tag_75\n      swap1\n      tag_76\n      jump\t// in\n    tag_75:\n      mload(0x40)\n      dup1\n      swap2\n      sub\n      swap1\n      revert\n    tag_74:\n        /* \"contracts/EscrowERC20.sol\":1144:1145  0 */\n      0x00\n        /* \"contracts/EscrowERC20.sol\":1123:1131  balances */\n      0x01\n        /* \"contracts/EscrowERC20.sol\":1123:1141  balances[trx_hash] */\n      0x00\n        /* \"contracts/EscrowERC20.sol\":1132:1140  trx_hash */\n      dup4\n        /* \"contracts/EscrowERC20.sol\":1123:1141  balances[trx_hash] */\n      dup2\n      mstore\n      0x20\n      add\n      swap1\n      dup2\n      mstore\n      0x20\n      add\n      0x00\n      keccak256\n        /* \"contracts/EscrowERC20.sol\":1123:1145  balances[trx_hash] = 0 */\n      dup2\n      swap1\n      sstore\n      pop\n        /* \"contracts/EscrowERC20.sol\":810:1152  function withdraw(bytes32 trx_hash) external {... */\n      pop\n      jump\t// out\n        /* \"contracts/EscrowERC20.sol\":150:170  IERC20 public _token */\n    tag_28:\n      0x00\n      dup1\n      sload\n      swap1\n      0x0100\n      exp\n      swap1\n      div\n      0xffffffffffffffffffffffffffffffffffffffff\n      and\n      dup2\n      jump\t// out\n        /* \"#utility.yul\":7:144   */\n    tag_78:\n        /* \"#utility.yul\":61:66   */\n      0x00\n        /* \"#utility.yul\":92:98   */\n      dup2\n        /* \"#utility.yul\":86:99   */\n      mload\n        /* \"#utility.yul\":77:99   */\n      swap1\n      pop\n        /* \"#utility.yul\":108:138   */\n      tag_80\n        /* \"#utility.yul\":132:137   */\n      dup2\n        /* \"#utility.yul\":108:138   */\n      tag_81\n      jump\t// in\n    tag_80:\n        /* \"#utility.yul\":7:144   */\n      swap3\n      swap2\n      pop\n      pop\n      jump\t// out\n        /* \"#utility.yul\":150:289   */\n    tag_82:\n        /* \"#utility.yul\":196:201   */\n      0x00\n        /* \"#utility.yul\":234:240   */\n      dup2\n        /* \"#utility.yul\":221:241   */\n      calldataload\n        /* \"#utility.yul\":212:241   */\n      swap1\n      pop\n        /* \"#utility.yul\":250:283   */\n      tag_84\n        /* \"#utility.yul\":277:282   */\n      dup2\n        /* \"#utility.yul\":250:283   */\n      tag_85\n      jump\t// in\n    tag_84:\n        /* \"#utility.yul\":150:289   */\n      swap3\n      swap2\n      pop\n      pop\n      jump\t// out\n        /* \"#utility.yul\":295:434   */\n    tag_86:\n        /* \"#utility.yul\":341:346   */\n      0x00\n        /* \"#utility.yul\":379:385   */\n      dup2\n        /* \"#utility.yul\":366:386   */\n      calldataload\n        /* \"#utility.yul\":357:386   */\n      swap1\n      pop\n        /* \"#utility.yul\":395:428   */\n      tag_88\n        /* \"#utility.yul\":422:427   */\n      dup2\n        /* \"#utility.yul\":395:428   */\n      tag_89\n      jump\t// in\n    tag_88:\n        /* \"#utility.yul\":295:434   */\n      swap3\n      swap2\n      pop\n      pop\n      jump\t// out\n        /* \"#utility.yul\":440:785   */\n    tag_50:\n        /* \"#utility.yul\":507:513   */\n      0x00\n        /* \"#utility.yul\":556:558   */\n      0x20\n        /* \"#utility.yul\":544:553   */\n      dup3\n        /* \"#utility.yul\":535:542   */\n      dup5\n        /* \"#utility.yul\":531:554   */\n      sub\n        /* \"#utility.yul\":527:559   */\n      slt\n        /* \"#utility.yul\":524:643   */\n      iszero\n      tag_91\n      jumpi\n        /* \"#utility.yul\":562:641   */\n      tag_92\n      tag_93\n      jump\t// in\n    tag_92:\n        /* \"#utility.yul\":524:643   */\n    tag_91:\n        /* \"#utility.yul\":682:683   */\n      0x00\n        /* \"#utility.yul\":707:768   */\n      tag_94\n        /* \"#utility.yul\":760:767   */\n      dup5\n        /* \"#utility.yul\":751:757   */\n      dup3\n        /* \"#utility.yul\":740:749   */\n      dup6\n        /* \"#utility.yul\":736:758   */\n      add\n        /* \"#utility.yul\":707:768   */\n      tag_78\n      jump\t// in\n    tag_94:\n        /* \"#utility.yul\":697:768   */\n      swap2\n      pop\n        /* \"#utility.yul\":653:778   */\n      pop\n        /* \"#utility.yul\":440:785   */\n      swap3\n      swap2\n      pop\n      pop\n      jump\t// out\n        /* \"#utility.yul\":791:1120   */\n    tag_20:\n        /* \"#utility.yul\":850:856   */\n      0x00\n        /* \"#utility.yul\":899:901   */\n      0x20\n        /* \"#utility.yul\":887:896   */\n      dup3\n        /* \"#utility.yul\":878:885   */\n      dup5\n        /* \"#utility.yul\":874:897   */\n      sub\n        /* \"#utility.yul\":870:902   */\n      slt\n        /* \"#utility.yul\":867:986   */\n      iszero\n      tag_96\n      jumpi\n        /* \"#utility.yul\":905:984   */\n      tag_97\n      tag_93\n      jump\t// in\n    tag_97:\n        /* \"#utility.yul\":867:986   */\n    tag_96:\n        /* \"#utility.yul\":1025:1026   */\n      0x00\n        /* \"#utility.yul\":1050:1103   */\n      tag_98\n        /* \"#utility.yul\":1095:1102   */\n      dup5\n        /* \"#utility.yul\":1086:1092   */\n      dup3\n        /* \"#utility.yul\":1075:1084   */\n      dup6\n        /* \"#utility.yul\":1071:1093   */\n      add\n        /* \"#utility.yul\":1050:1103   */\n      tag_82\n      jump\t// in\n    tag_98:\n        /* \"#utility.yul\":1040:1103   */\n      swap2\n      pop\n        /* \"#utility.yul\":996:1113   */\n      pop\n        /* \"#utility.yul\":791:1120   */\n      swap3\n      swap2\n      pop\n      pop\n      jump\t// out\n        /* \"#utility.yul\":1126:1600   */\n    tag_10:\n        /* \"#utility.yul\":1194:1200   */\n      0x00\n        /* \"#utility.yul\":1202:1208   */\n      dup1\n        /* \"#utility.yul\":1251:1253   */\n      0x40\n        /* \"#utility.yul\":1239:1248   */\n      dup4\n        /* \"#utility.yul\":1230:1237   */\n      dup6\n        /* \"#utility.yul\":1226:1249   */\n      sub\n        /* \"#utility.yul\":1222:1254   */\n      slt\n        /* \"#utility.yul\":1219:1338   */\n      iszero\n      tag_100\n      jumpi\n        /* \"#utility.yul\":1257:1336   */\n      tag_101\n      tag_93\n      jump\t// in\n    tag_101:\n        /* \"#utility.yul\":1219:1338   */\n    tag_100:\n        /* \"#utility.yul\":1377:1378   */\n      0x00\n        /* \"#utility.yul\":1402:1455   */\n      tag_102\n        /* \"#utility.yul\":1447:1454   */\n      dup6\n        /* \"#utility.yul\":1438:1444   */\n      dup3\n        /* \"#utility.yul\":1427:1436   */\n      dup7\n        /* \"#utility.yul\":1423:1445   */\n      add\n        /* \"#utility.yul\":1402:1455   */\n      tag_82\n      jump\t// in\n    tag_102:\n        /* \"#utility.yul\":1392:1455   */\n      swap3\n      pop\n        /* \"#utility.yul\":1348:1465   */\n      pop\n        /* \"#utility.yul\":1504:1506   */\n      0x20\n        /* \"#utility.yul\":1530:1583   */\n      tag_103\n        /* \"#utility.yul\":1575:1582   */\n      dup6\n        /* \"#utility.yul\":1566:1572   */\n      dup3\n        /* \"#utility.yul\":1555:1564   */\n      dup7\n        /* \"#utility.yul\":1551:1573   */\n      add\n        /* \"#utility.yul\":1530:1583   */\n      tag_86\n      jump\t// in\n    tag_103:\n        /* \"#utility.yul\":1520:1583   */\n      swap2\n      pop\n        /* \"#utility.yul\":1475:1593   */\n      pop\n        /* \"#utility.yul\":1126:1600   */\n      swap3\n      pop\n      swap3\n      swap1\n      pop\n      jump\t// out\n        /* \"#utility.yul\":1606:1935   */\n    tag_14:\n        /* \"#utility.yul\":1665:1671   */\n      0x00\n        /* \"#utility.yul\":1714:1716   */\n      0x20\n        /* \"#utility.yul\":1702:1711   */\n      dup3\n        /* \"#utility.yul\":1693:1700   */\n      dup5\n        /* \"#utility.yul\":1689:1712   */\n      sub\n        /* \"#utility.yul\":1685:1717   */\n      slt\n        /* \"#utility.yul\":1682:1801   */\n      iszero\n      tag_105\n      jumpi\n        /* \"#utility.yul\":1720:1799   */\n      tag_106\n      tag_93\n      jump\t// in\n    tag_106:\n        /* \"#utility.yul\":1682:1801   */\n    tag_105:\n        /* \"#utility.yul\":1840:1841   */\n      0x00\n        /* \"#utility.yul\":1865:1918   */\n      tag_107\n        /* \"#utility.yul\":1910:1917   */\n      dup5\n        /* \"#utility.yul\":1901:1907   */\n      dup3\n        /* \"#utility.yul\":1890:1899   */\n      dup6\n        /* \"#utility.yul\":1886:1908   */\n      add\n        /* \"#utility.yul\":1865:1918   */\n      tag_86\n      jump\t// in\n    tag_107:\n        /* \"#utility.yul\":1855:1918   */\n      swap2\n      pop\n        /* \"#utility.yul\":1811:1928   */\n      pop\n        /* \"#utility.yul\":1606:1935   */\n      swap3\n      swap2\n      pop\n      pop\n      jump\t// out\n        /* \"#utility.yul\":1941:2059   */\n    tag_108:\n        /* \"#utility.yul\":2028:2052   */\n      tag_110\n        /* \"#utility.yul\":2046:2051   */\n      dup2\n        /* \"#utility.yul\":2028:2052   */\n      tag_111\n      jump\t// in\n    tag_110:\n        /* \"#utility.yul\":2023:2026   */\n      dup3\n        /* \"#utility.yul\":2016:2053   */\n      mstore\n        /* \"#utility.yul\":1941:2059   */\n      pop\n      pop\n      jump\t// out\n        /* \"#utility.yul\":2065:2222   */\n    tag_112:\n        /* \"#utility.yul\":2170:2215   */\n      tag_114\n        /* \"#utility.yul\":2190:2214   */\n      tag_115\n        /* \"#utility.yul\":2208:2213   */\n      dup3\n        /* \"#utility.yul\":2190:2214   */\n      tag_111\n      jump\t// in\n    tag_115:\n        /* \"#utility.yul\":2170:2215   */\n      tag_116\n      jump\t// in\n    tag_114:\n        /* \"#utility.yul\":2165:2168   */\n      dup3\n        /* \"#utility.yul\":2158:2216   */\n      mstore\n        /* \"#utility.yul\":2065:2222   */\n      pop\n      pop\n      jump\t// out\n        /* \"#utility.yul\":2228:2346   */\n    tag_117:\n        /* \"#utility.yul\":2315:2339   */\n      tag_119\n        /* \"#utility.yul\":2333:2338   */\n      dup2\n        /* \"#utility.yul\":2315:2339   */\n      tag_120\n      jump\t// in\n    tag_119:\n        /* \"#utility.yul\":2310:2313   */\n      dup3\n        /* \"#utility.yul\":2303:2340   */\n      mstore\n        /* \"#utility.yul\":2228:2346   */\n      pop\n      pop\n      jump\t// out\n        /* \"#utility.yul\":2352:2509   */\n    tag_121:\n        /* \"#utility.yul\":2452:2502   */\n      tag_123\n        /* \"#utility.yul\":2496:2501   */\n      dup2\n        /* \"#utility.yul\":2452:2502   */\n      tag_124\n      jump\t// in\n    tag_123:\n        /* \"#utility.yul\":2447:2450   */\n      dup3\n        /* \"#utility.yul\":2440:2503   */\n      mstore\n        /* \"#utility.yul\":2352:2509   */\n      pop\n      pop\n      jump\t// out\n        /* \"#utility.yul\":2515:2881   */\n    tag_125:\n        /* \"#utility.yul\":2657:2660   */\n      0x00\n        /* \"#utility.yul\":2678:2745   */\n      tag_127\n        /* \"#utility.yul\":2742:2744   */\n      0x22\n        /* \"#utility.yul\":2737:2740   */\n      dup4\n        /* \"#utility.yul\":2678:2745   */\n      tag_128\n      jump\t// in\n    tag_127:\n        /* \"#utility.yul\":2671:2745   */\n      swap2\n      pop\n        /* \"#utility.yul\":2754:2847   */\n      tag_129\n        /* \"#utility.yul\":2843:2846   */\n      dup3\n        /* \"#utility.yul\":2754:2847   */\n      tag_130\n      jump\t// in\n    tag_129:\n        /* \"#utility.yul\":2872:2874   */\n      0x40\n        /* \"#utility.yul\":2867:2870   */\n      dup3\n        /* \"#utility.yul\":2863:2875   */\n      add\n        /* \"#utility.yul\":2856:2875   */\n      swap1\n      pop\n        /* \"#utility.yul\":2515:2881   */\n      swap2\n      swap1\n      pop\n      jump\t// out\n        /* \"#utility.yul\":2887:3253   */\n    tag_131:\n        /* \"#utility.yul\":3029:3032   */\n      0x00\n        /* \"#utility.yul\":3050:3117   */\n      tag_133\n        /* \"#utility.yul\":3114:3116   */\n      0x21\n        /* \"#utility.yul\":3109:3112   */\n      dup4\n        /* \"#utility.yul\":3050:3117   */\n      tag_128\n      jump\t// in\n    tag_133:\n        /* \"#utility.yul\":3043:3117   */\n      swap2\n      pop\n        /* \"#utility.yul\":3126:3219   */\n      tag_134\n        /* \"#utility.yul\":3215:3218   */\n      dup3\n        /* \"#utility.yul\":3126:3219   */\n      tag_135\n      jump\t// in\n    tag_134:\n        /* \"#utility.yul\":3244:3246   */\n      0x40\n        /* \"#utility.yul\":3239:3242   */\n      dup3\n        /* \"#utility.yul\":3235:3247   */\n      add\n        /* \"#utility.yul\":3228:3247   */\n      swap1\n      pop\n        /* \"#utility.yul\":2887:3253   */\n      swap2\n      swap1\n      pop\n      jump\t// out\n        /* \"#utility.yul\":3259:3625   */\n    tag_136:\n        /* \"#utility.yul\":3401:3404   */\n      0x00\n        /* \"#utility.yul\":3422:3489   */\n      tag_138\n        /* \"#utility.yul\":3486:3488   */\n      0x1a\n        /* \"#utility.yul\":3481:3484   */\n      dup4\n        /* \"#utility.yul\":3422:3489   */\n      tag_128\n      jump\t// in\n    tag_138:\n        /* \"#utility.yul\":3415:3489   */\n      swap2\n      pop\n        /* \"#utility.yul\":3498:3591   */\n      tag_139\n        /* \"#utility.yul\":3587:3590   */\n      dup3\n        /* \"#utility.yul\":3498:3591   */\n      tag_140\n      jump\t// in\n    tag_139:\n        /* \"#utility.yul\":3616:3618   */\n      0x20\n        /* \"#utility.yul\":3611:3614   */\n      dup3\n        /* \"#utility.yul\":3607:3619   */\n      add\n        /* \"#utility.yul\":3600:3619   */\n      swap1\n      pop\n        /* \"#utility.yul\":3259:3625   */\n      swap2\n      swap1\n      pop\n      jump\t// out\n        /* \"#utility.yul\":3631:3997   */\n    tag_141:\n        /* \"#utility.yul\":3773:3776   */\n      0x00\n        /* \"#utility.yul\":3794:3861   */\n      tag_143\n        /* \"#utility.yul\":3858:3860   */\n      0x2c\n        /* \"#utility.yul\":3853:3856   */\n      dup4\n        /* \"#utility.yul\":3794:3861   */\n      tag_128\n      jump\t// in\n    tag_143:\n        /* \"#utility.yul\":3787:3861   */\n      swap2\n      pop\n        /* \"#utility.yul\":3870:3963   */\n      tag_144\n        /* \"#utility.yul\":3959:3962   */\n      dup3\n        /* \"#utility.yul\":3870:3963   */\n      tag_145\n      jump\t// in\n    tag_144:\n        /* \"#utility.yul\":3988:3990   */\n      0x40\n        /* \"#utility.yul\":3983:3986   */\n      dup3\n        /* \"#utility.yul\":3979:3991   */\n      add\n        /* \"#utility.yul\":3972:3991   */\n      swap1\n      pop\n        /* \"#utility.yul\":3631:3997   */\n      swap2\n      swap1\n      pop\n      jump\t// out\n        /* \"#utility.yul\":4003:4369   */\n    tag_146:\n        /* \"#utility.yul\":4145:4148   */\n      0x00\n        /* \"#utility.yul\":4166:4233   */\n      tag_148\n        /* \"#utility.yul\":4230:4232   */\n      0x23\n        /* \"#utility.yul\":4225:4228   */\n      dup4\n        /* \"#utility.yul\":4166:4233   */\n      tag_128\n      jump\t// in\n    tag_148:\n        /* \"#utility.yul\":4159:4233   */\n      swap2\n      pop\n        /* \"#utility.yul\":4242:4335   */\n      tag_149\n        /* \"#utility.yul\":4331:4334   */\n      dup3\n        /* \"#utility.yul\":4242:4335   */\n      tag_150\n      jump\t// in\n    tag_149:\n        /* \"#utility.yul\":4360:4362   */\n      0x40\n        /* \"#utility.yul\":4355:4358   */\n      dup3\n        /* \"#utility.yul\":4351:4363   */\n      add\n        /* \"#utility.yul\":4344:4363   */\n      swap1\n      pop\n        /* \"#utility.yul\":4003:4369   */\n      swap2\n      swap1\n      pop\n      jump\t// out\n        /* \"#utility.yul\":4375:4741   */\n    tag_151:\n        /* \"#utility.yul\":4517:4520   */\n      0x00\n        /* \"#utility.yul\":4538:4605   */\n      tag_153\n        /* \"#utility.yul\":4602:4604   */\n      0x18\n        /* \"#utility.yul\":4597:4600   */\n      dup4\n        /* \"#utility.yul\":4538:4605   */\n      tag_128\n      jump\t// in\n    tag_153:\n        /* \"#utility.yul\":4531:4605   */\n      swap2\n      pop\n        /* \"#utility.yul\":4614:4707   */\n      tag_154\n        /* \"#utility.yul\":4703:4706   */\n      dup3\n        /* \"#utility.yul\":4614:4707   */\n      tag_155\n      jump\t// in\n    tag_154:\n        /* \"#utility.yul\":4732:4734   */\n      0x20\n        /* \"#utility.yul\":4727:4730   */\n      dup3\n        /* \"#utility.yul\":4723:4735   */\n      add\n        /* \"#utility.yul\":4716:4735   */\n      swap1\n      pop\n        /* \"#utility.yul\":4375:4741   */\n      swap2\n      swap1\n      pop\n      jump\t// out\n        /* \"#utility.yul\":4747:5113   */\n    tag_156:\n        /* \"#utility.yul\":4889:4892   */\n      0x00\n        /* \"#utility.yul\":4910:4977   */\n      tag_158\n        /* \"#utility.yul\":4974:4976   */\n      0x17\n        /* \"#utility.yul\":4969:4972   */\n      dup4\n        /* \"#utility.yul\":4910:4977   */\n      tag_128\n      jump\t// in\n    tag_158:\n        /* \"#utility.yul\":4903:4977   */\n      swap2\n      pop\n        /* \"#utility.yul\":4986:5079   */\n      tag_159\n        /* \"#utility.yul\":5075:5078   */\n      dup3\n        /* \"#utility.yul\":4986:5079   */\n      tag_160\n      jump\t// in\n    tag_159:\n        /* \"#utility.yul\":5104:5106   */\n      0x20\n        /* \"#utility.yul\":5099:5102   */\n      dup3\n        /* \"#utility.yul\":5095:5107   */\n      add\n        /* \"#utility.yul\":5088:5107   */\n      swap1\n      pop\n        /* \"#utility.yul\":4747:5113   */\n      swap2\n      swap1\n      pop\n      jump\t// out\n        /* \"#utility.yul\":5119:5237   */\n    tag_161:\n        /* \"#utility.yul\":5206:5230   */\n      tag_163\n        /* \"#utility.yul\":5224:5229   */\n      dup2\n        /* \"#utility.yul\":5206:5230   */\n      tag_164\n      jump\t// in\n    tag_163:\n        /* \"#utility.yul\":5201:5204   */\n      dup3\n        /* \"#utility.yul\":5194:5231   */\n      mstore\n        /* \"#utility.yul\":5119:5237   */\n      pop\n      pop\n      jump\t// out\n        /* \"#utility.yul\":5243:5400   */\n    tag_165:\n        /* \"#utility.yul\":5348:5393   */\n      tag_167\n        /* \"#utility.yul\":5368:5392   */\n      tag_168\n        /* \"#utility.yul\":5386:5391   */\n      dup3\n        /* \"#utility.yul\":5368:5392   */\n      tag_164\n      jump\t// in\n    tag_168:\n        /* \"#utility.yul\":5348:5393   */\n      tag_169\n      jump\t// in\n    tag_167:\n        /* \"#utility.yul\":5343:5346   */\n      dup3\n        /* \"#utility.yul\":5336:5394   */\n      mstore\n        /* \"#utility.yul\":5243:5400   */\n      pop\n      pop\n      jump\t// out\n        /* \"#utility.yul\":5406:5944   */\n    tag_58:\n        /* \"#utility.yul\":5574:5577   */\n      0x00\n        /* \"#utility.yul\":5589:5664   */\n      tag_171\n        /* \"#utility.yul\":5660:5663   */\n      dup3\n        /* \"#utility.yul\":5651:5657   */\n      dup7\n        /* \"#utility.yul\":5589:5664   */\n      tag_112\n      jump\t// in\n    tag_171:\n        /* \"#utility.yul\":5689:5691   */\n      0x14\n        /* \"#utility.yul\":5684:5687   */\n      dup3\n        /* \"#utility.yul\":5680:5692   */\n      add\n        /* \"#utility.yul\":5673:5692   */\n      swap2\n      pop\n        /* \"#utility.yul\":5702:5777   */\n      tag_172\n        /* \"#utility.yul\":5773:5776   */\n      dup3\n        /* \"#utility.yul\":5764:5770   */\n      dup6\n        /* \"#utility.yul\":5702:5777   */\n      tag_165\n      jump\t// in\n    tag_172:\n        /* \"#utility.yul\":5802:5804   */\n      0x20\n        /* \"#utility.yul\":5797:5800   */\n      dup3\n        /* \"#utility.yul\":5793:5805   */\n      add\n        /* \"#utility.yul\":5786:5805   */\n      swap2\n      pop\n        /* \"#utility.yul\":5815:5890   */\n      tag_173\n        /* \"#utility.yul\":5886:5889   */\n      dup3\n        /* \"#utility.yul\":5877:5883   */\n      dup5\n        /* \"#utility.yul\":5815:5890   */\n      tag_165\n      jump\t// in\n    tag_173:\n        /* \"#utility.yul\":5915:5917   */\n      0x20\n        /* \"#utility.yul\":5910:5913   */\n      dup3\n        /* \"#utility.yul\":5906:5918   */\n      add\n        /* \"#utility.yul\":5899:5918   */\n      swap2\n      pop\n        /* \"#utility.yul\":5935:5938   */\n      dup2\n        /* \"#utility.yul\":5928:5938   */\n      swap1\n      pop\n        /* \"#utility.yul\":5406:5944   */\n      swap5\n      swap4\n      pop\n      pop\n      pop\n      pop\n      jump\t// out\n        /* \"#utility.yul\":5950:6392   */\n    tag_45:\n        /* \"#utility.yul\":6099:6103   */\n      0x00\n        /* \"#utility.yul\":6137:6139   */\n      0x60\n        /* \"#utility.yul\":6126:6135   */\n      dup3\n        /* \"#utility.yul\":6122:6140   */\n      add\n        /* \"#utility.yul\":6114:6140   */\n      swap1\n      pop\n        /* \"#utility.yul\":6150:6221   */\n      tag_175\n        /* \"#utility.yul\":6218:6219   */\n      0x00\n        /* \"#utility.yul\":6207:6216   */\n      dup4\n        /* \"#utility.yul\":6203:6220   */\n      add\n        /* \"#utility.yul\":6194:6200   */\n      dup7\n        /* \"#utility.yul\":6150:6221   */\n      tag_108\n      jump\t// in\n    tag_175:\n        /* \"#utility.yul\":6231:6303   */\n      tag_176\n        /* \"#utility.yul\":6299:6301   */\n      0x20\n        /* \"#utility.yul\":6288:6297   */\n      dup4\n        /* \"#utility.yul\":6284:6302   */\n      add\n        /* \"#utility.yul\":6275:6281   */\n      dup6\n        /* \"#utility.yul\":6231:6303   */\n      tag_108\n      jump\t// in\n    tag_176:\n        /* \"#utility.yul\":6313:6385   */\n      tag_177\n        /* \"#utility.yul\":6381:6383   */\n      0x40\n        /* \"#utility.yul\":6370:6379   */\n      dup4\n        /* \"#utility.yul\":6366:6384   */\n      add\n        /* \"#utility.yul\":6357:6363   */\n      dup5\n        /* \"#utility.yul\":6313:6385   */\n      tag_161\n      jump\t// in\n    tag_177:\n        /* \"#utility.yul\":5950:6392   */\n      swap5\n      swap4\n      pop\n      pop\n      pop\n      pop\n      jump\t// out\n        /* \"#utility.yul\":6398:6730   */\n    tag_69:\n        /* \"#utility.yul\":6519:6523   */\n      0x00\n        /* \"#utility.yul\":6557:6559   */\n      0x40\n        /* \"#utility.yul\":6546:6555   */\n      dup3\n        /* \"#utility.yul\":6542:6560   */\n      add\n        /* \"#utility.yul\":6534:6560   */\n      swap1\n      pop\n        /* \"#utility.yul\":6570:6641   */\n      tag_179\n        /* \"#utility.yul\":6638:6639   */\n      0x00\n        /* \"#utility.yul\":6627:6636   */\n      dup4\n        /* \"#utility.yul\":6623:6640   */\n      add\n        /* \"#utility.yul\":6614:6620   */\n      dup6\n        /* \"#utility.yul\":6570:6641   */\n      tag_108\n      jump\t// in\n    tag_179:\n        /* \"#utility.yul\":6651:6723   */\n      tag_180\n        /* \"#utility.yul\":6719:6721   */\n      0x20\n        /* \"#utility.yul\":6708:6717   */\n      dup4\n        /* \"#utility.yul\":6704:6722   */\n      add\n        /* \"#utility.yul\":6695:6701   */\n      dup5\n        /* \"#utility.yul\":6651:6723   */\n      tag_161\n      jump\t// in\n    tag_180:\n        /* \"#utility.yul\":6398:6730   */\n      swap4\n      swap3\n      pop\n      pop\n      pop\n      jump\t// out\n        /* \"#utility.yul\":6736:6958   */\n    tag_17:\n        /* \"#utility.yul\":6829:6833   */\n      0x00\n        /* \"#utility.yul\":6867:6869   */\n      0x20\n        /* \"#utility.yul\":6856:6865   */\n      dup3\n        /* \"#utility.yul\":6852:6870   */\n      add\n        /* \"#utility.yul\":6844:6870   */\n      swap1\n      pop\n        /* \"#utility.yul\":6880:6951   */\n      tag_182\n        /* \"#utility.yul\":6948:6949   */\n      0x00\n        /* \"#utility.yul\":6937:6946   */\n      dup4\n        /* \"#utility.yul\":6933:6950   */\n      add\n        /* \"#utility.yul\":6924:6930   */\n      dup5\n        /* \"#utility.yul\":6880:6951   */\n      tag_117\n      jump\t// in\n    tag_182:\n        /* \"#utility.yul\":6736:6958   */\n      swap3\n      swap2\n      pop\n      pop\n      jump\t// out\n        /* \"#utility.yul\":6964:7212   */\n    tag_30:\n        /* \"#utility.yul\":7070:7074   */\n      0x00\n        /* \"#utility.yul\":7108:7110   */\n      0x20\n        /* \"#utility.yul\":7097:7106   */\n      dup3\n        /* \"#utility.yul\":7093:7111   */\n      add\n        /* \"#utility.yul\":7085:7111   */\n      swap1\n      pop\n        /* \"#utility.yul\":7121:7205   */\n      tag_184\n        /* \"#utility.yul\":7202:7203   */\n      0x00\n        /* \"#utility.yul\":7191:7200   */\n      dup4\n        /* \"#utility.yul\":7187:7204   */\n      add\n        /* \"#utility.yul\":7178:7184   */\n      dup5\n        /* \"#utility.yul\":7121:7205   */\n      tag_121\n      jump\t// in\n    tag_184:\n        /* \"#utility.yul\":6964:7212   */\n      swap3\n      swap2\n      pop\n      pop\n      jump\t// out\n        /* \"#utility.yul\":7218:7637   */\n    tag_64:\n        /* \"#utility.yul\":7384:7388   */\n      0x00\n        /* \"#utility.yul\":7422:7424   */\n      0x20\n        /* \"#utility.yul\":7411:7420   */\n      dup3\n        /* \"#utility.yul\":7407:7425   */\n      add\n        /* \"#utility.yul\":7399:7425   */\n      swap1\n      pop\n        /* \"#utility.yul\":7471:7480   */\n      dup2\n        /* \"#utility.yul\":7465:7469   */\n      dup2\n        /* \"#utility.yul\":7461:7481   */\n      sub\n        /* \"#utility.yul\":7457:7458   */\n      0x00\n        /* \"#utility.yul\":7446:7455   */\n      dup4\n        /* \"#utility.yul\":7442:7459   */\n      add\n        /* \"#utility.yul\":7435:7482   */\n      mstore\n        /* \"#utility.yul\":7499:7630   */\n      tag_186\n        /* \"#utility.yul\":7625:7629   */\n      dup2\n        /* \"#utility.yul\":7499:7630   */\n      tag_125\n      jump\t// in\n    tag_186:\n        /* \"#utility.yul\":7491:7630   */\n      swap1\n      pop\n        /* \"#utility.yul\":7218:7637   */\n      swap2\n      swap1\n      pop\n      jump\t// out\n        /* \"#utility.yul\":7643:8062   */\n    tag_37:\n        /* \"#utility.yul\":7809:7813   */\n      0x00\n        /* \"#utility.yul\":7847:7849   */\n      0x20\n        /* \"#utility.yul\":7836:7845   */\n      dup3\n        /* \"#utility.yul\":7832:7850   */\n      add\n        /* \"#utility.yul\":7824:7850   */\n      swap1\n      pop\n        /* \"#utility.yul\":7896:7905   */\n      dup2\n        /* \"#utility.yul\":7890:7894   */\n      dup2\n        /* \"#utility.yul\":7886:7906   */\n      sub\n        /* \"#utility.yul\":7882:7883   */\n      0x00\n        /* \"#utility.yul\":7871:7880   */\n      dup4\n        /* \"#utility.yul\":7867:7884   */\n      add\n        /* \"#utility.yul\":7860:7907   */\n      mstore\n        /* \"#utility.yul\":7924:8055   */\n      tag_188\n        /* \"#utility.yul\":8050:8054   */\n      dup2\n        /* \"#utility.yul\":7924:8055   */\n      tag_131\n      jump\t// in\n    tag_188:\n        /* \"#utility.yul\":7916:8055   */\n      swap1\n      pop\n        /* \"#utility.yul\":7643:8062   */\n      swap2\n      swap1\n      pop\n      jump\t// out\n        /* \"#utility.yul\":8068:8487   */\n    tag_53:\n        /* \"#utility.yul\":8234:8238   */\n      0x00\n        /* \"#utility.yul\":8272:8274   */\n      0x20\n        /* \"#utility.yul\":8261:8270   */\n      dup3\n        /* \"#utility.yul\":8257:8275   */\n      add\n        /* \"#utility.yul\":8249:8275   */\n      swap1\n      pop\n        /* \"#utility.yul\":8321:8330   */\n      dup2\n        /* \"#utility.yul\":8315:8319   */\n      dup2\n        /* \"#utility.yul\":8311:8331   */\n      sub\n        /* \"#utility.yul\":8307:8308   */\n      0x00\n        /* \"#utility.yul\":8296:8305   */\n      dup4\n        /* \"#utility.yul\":8292:8309   */\n      add\n        /* \"#utility.yul\":8285:8332   */\n      mstore\n        /* \"#utility.yul\":8349:8480   */\n      tag_190\n        /* \"#utility.yul\":8475:8479   */\n      dup2\n        /* \"#utility.yul\":8349:8480   */\n      tag_136\n      jump\t// in\n    tag_190:\n        /* \"#utility.yul\":8341:8480   */\n      swap1\n      pop\n        /* \"#utility.yul\":8068:8487   */\n      swap2\n      swap1\n      pop\n      jump\t// out\n        /* \"#utility.yul\":8493:8912   */\n    tag_67:\n        /* \"#utility.yul\":8659:8663   */\n      0x00\n        /* \"#utility.yul\":8697:8699   */\n      0x20\n        /* \"#utility.yul\":8686:8695   */\n      dup3\n        /* \"#utility.yul\":8682:8700   */\n      add\n        /* \"#utility.yul\":8674:8700   */\n      swap1\n      pop\n        /* \"#utility.yul\":8746:8755   */\n      dup2\n        /* \"#utility.yul\":8740:8744   */\n      dup2\n        /* \"#utility.yul\":8736:8756   */\n      sub\n        /* \"#utility.yul\":8732:8733   */\n      0x00\n        /* \"#utility.yul\":8721:8730   */\n      dup4\n        /* \"#utility.yul\":8717:8734   */\n      add\n        /* \"#utility.yul\":8710:8757   */\n      mstore\n        /* \"#utility.yul\":8774:8905   */\n      tag_192\n        /* \"#utility.yul\":8900:8904   */\n      dup2\n        /* \"#utility.yul\":8774:8905   */\n      tag_141\n      jump\t// in\n    tag_192:\n        /* \"#utility.yul\":8766:8905   */\n      swap1\n      pop\n        /* \"#utility.yul\":8493:8912   */\n      swap2\n      swap1\n      pop\n      jump\t// out\n        /* \"#utility.yul\":8918:9337   */\n    tag_40:\n        /* \"#utility.yul\":9084:9088   */\n      0x00\n        /* \"#utility.yul\":9122:9124   */\n      0x20\n        /* \"#utility.yul\":9111:9120   */\n      dup3\n        /* \"#utility.yul\":9107:9125   */\n      add\n        /* \"#utility.yul\":9099:9125   */\n      swap1\n      pop\n        /* \"#utility.yul\":9171:9180   */\n      dup2\n        /* \"#utility.yul\":9165:9169   */\n      dup2\n        /* \"#utility.yul\":9161:9181   */\n      sub\n        /* \"#utility.yul\":9157:9158   */\n      0x00\n        /* \"#utility.yul\":9146:9155   */\n      dup4\n        /* \"#utility.yul\":9142:9159   */\n      add\n        /* \"#utility.yul\":9135:9182   */\n      mstore\n        /* \"#utility.yul\":9199:9330   */\n      tag_194\n        /* \"#utility.yul\":9325:9329   */\n      dup2\n        /* \"#utility.yul\":9199:9330   */\n      tag_146\n      jump\t// in\n    tag_194:\n        /* \"#utility.yul\":9191:9330   */\n      swap1\n      pop\n        /* \"#utility.yul\":8918:9337   */\n      swap2\n      swap1\n      pop\n      jump\t// out\n        /* \"#utility.yul\":9343:9762   */\n    tag_76:\n        /* \"#utility.yul\":9509:9513   */\n      0x00\n        /* \"#utility.yul\":9547:9549   */\n      0x20\n        /* \"#utility.yul\":9536:9545   */\n      dup3\n        /* \"#utility.yul\":9532:9550   */\n      add\n        /* \"#utility.yul\":9524:9550   */\n      swap1\n      pop\n        /* \"#utility.yul\":9596:9605   */\n      dup2\n        /* \"#utility.yul\":9590:9594   */\n      dup2\n        /* \"#utility.yul\":9586:9606   */\n      sub\n        /* \"#utility.yul\":9582:9583   */\n      0x00\n        /* \"#utility.yul\":9571:9580   */\n      dup4\n        /* \"#utility.yul\":9567:9584   */\n      add\n        /* \"#utility.yul\":9560:9607   */\n      mstore\n        /* \"#utility.yul\":9624:9755   */\n      tag_196\n        /* \"#utility.yul\":9750:9754   */\n      dup2\n        /* \"#utility.yul\":9624:9755   */\n      tag_151\n      jump\t// in\n    tag_196:\n        /* \"#utility.yul\":9616:9755   */\n      swap1\n      pop\n        /* \"#utility.yul\":9343:9762   */\n      swap2\n      swap1\n      pop\n      jump\t// out\n        /* \"#utility.yul\":9768:10187   */\n    tag_43:\n        /* \"#utility.yul\":9934:9938   */\n      0x00\n        /* \"#utility.yul\":9972:9974   */\n      0x20\n        /* \"#utility.yul\":9961:9970   */\n      dup3\n        /* \"#utility.yul\":9957:9975   */\n      add\n        /* \"#utility.yul\":9949:9975   */\n      swap1\n      pop\n        /* \"#utility.yul\":10021:10030   */\n      dup2\n        /* \"#utility.yul\":10015:10019   */\n      dup2\n        /* \"#utility.yul\":10011:10031   */\n      sub\n        /* \"#utility.yul\":10007:10008   */\n      0x00\n        /* \"#utility.yul\":9996:10005   */\n      dup4\n        /* \"#utility.yul\":9992:10009   */\n      add\n        /* \"#utility.yul\":9985:10032   */\n      mstore\n        /* \"#utility.yul\":10049:10180   */\n      tag_198\n        /* \"#utility.yul\":10175:10179   */\n      dup2\n        /* \"#utility.yul\":10049:10180   */\n      tag_156\n      jump\t// in\n    tag_198:\n        /* \"#utility.yul\":10041:10180   */\n      swap1\n      pop\n        /* \"#utility.yul\":9768:10187   */\n      swap2\n      swap1\n      pop\n      jump\t// out\n        /* \"#utility.yul\":10193:10415   */\n    tag_23:\n        /* \"#utility.yul\":10286:10290   */\n      0x00\n        /* \"#utility.yul\":10324:10326   */\n      0x20\n        /* \"#utility.yul\":10313:10322   */\n      dup3\n        /* \"#utility.yul\":10309:10327   */\n      add\n        /* \"#utility.yul\":10301:10327   */\n      swap1\n      pop\n        /* \"#utility.yul\":10337:10408   */\n      tag_200\n        /* \"#utility.yul\":10405:10406   */\n      0x00\n        /* \"#utility.yul\":10394:10403   */\n      dup4\n        /* \"#utility.yul\":10390:10407   */\n      add\n        /* \"#utility.yul\":10381:10387   */\n      dup5\n        /* \"#utility.yul\":10337:10408   */\n      tag_161\n      jump\t// in\n    tag_200:\n        /* \"#utility.yul\":10193:10415   */\n      swap3\n      swap2\n      pop\n      pop\n      jump\t// out\n        /* \"#utility.yul\":10502:10671   */\n    tag_128:\n        /* \"#utility.yul\":10586:10597   */\n      0x00\n        /* \"#utility.yul\":10620:10626   */\n      dup3\n        /* \"#utility.yul\":10615:10618   */\n      dup3\n        /* \"#utility.yul\":10608:10627   */\n      mstore\n        /* \"#utility.yul\":10660:10664   */\n      0x20\n        /* \"#utility.yul\":10655:10658   */\n      dup3\n        /* \"#utility.yul\":10651:10665   */\n      add\n        /* \"#utility.yul\":10636:10665   */\n      swap1\n      pop\n        /* \"#utility.yul\":10502:10671   */\n      swap3\n      swap2\n      pop\n      pop\n      jump\t// out\n        /* \"#utility.yul\":10677:10773   */\n    tag_111:\n        /* \"#utility.yul\":10714:10721   */\n      0x00\n        /* \"#utility.yul\":10743:10767   */\n      tag_205\n        /* \"#utility.yul\":10761:10766   */\n      dup3\n        /* \"#utility.yul\":10743:10767   */\n      tag_206\n      jump\t// in\n    tag_205:\n        /* \"#utility.yul\":10732:10767   */\n      swap1\n      pop\n        /* \"#utility.yul\":10677:10773   */\n      swap2\n      swap1\n      pop\n      jump\t// out\n        /* \"#utility.yul\":10779:10869   */\n    tag_207:\n        /* \"#utility.yul\":10813:10820   */\n      0x00\n        /* \"#utility.yul\":10856:10861   */\n      dup2\n        /* \"#utility.yul\":10849:10862   */\n      iszero\n        /* \"#utility.yul\":10842:10863   */\n      iszero\n        /* \"#utility.yul\":10831:10863   */\n      swap1\n      pop\n        /* \"#utility.yul\":10779:10869   */\n      swap2\n      swap1\n      pop\n      jump\t// out\n        /* \"#utility.yul\":10875:10952   */\n    tag_120:\n        /* \"#utility.yul\":10912:10919   */\n      0x00\n        /* \"#utility.yul\":10941:10946   */\n      dup2\n        /* \"#utility.yul\":10930:10946   */\n      swap1\n      pop\n        /* \"#utility.yul\":10875:10952   */\n      swap2\n      swap1\n      pop\n      jump\t// out\n        /* \"#utility.yul\":10958:11084   */\n    tag_206:\n        /* \"#utility.yul\":10995:11002   */\n      0x00\n        /* \"#utility.yul\":11035:11077   */\n      0xffffffffffffffffffffffffffffffffffffffff\n        /* \"#utility.yul\":11028:11033   */\n      dup3\n        /* \"#utility.yul\":11024:11078   */\n      and\n        /* \"#utility.yul\":11013:11078   */\n      swap1\n      pop\n        /* \"#utility.yul\":10958:11084   */\n      swap2\n      swap1\n      pop\n      jump\t// out\n        /* \"#utility.yul\":11090:11167   */\n    tag_164:\n        /* \"#utility.yul\":11127:11134   */\n      0x00\n        /* \"#utility.yul\":11156:11161   */\n      dup2\n        /* \"#utility.yul\":11145:11161   */\n      swap1\n      pop\n        /* \"#utility.yul\":11090:11167   */\n      swap2\n      swap1\n      pop\n      jump\t// out\n        /* \"#utility.yul\":11173:11312   */\n    tag_124:\n        /* \"#utility.yul\":11236:11245   */\n      0x00\n        /* \"#utility.yul\":11269:11306   */\n      tag_213\n        /* \"#utility.yul\":11300:11305   */\n      dup3\n        /* \"#utility.yul\":11269:11306   */\n      tag_214\n      jump\t// in\n    tag_213:\n        /* \"#utility.yul\":11256:11306   */\n      swap1\n      pop\n        /* \"#utility.yul\":11173:11312   */\n      swap2\n      swap1\n      pop\n      jump\t// out\n        /* \"#utility.yul\":11318:11444   */\n    tag_214:\n        /* \"#utility.yul\":11368:11377   */\n      0x00\n        /* \"#utility.yul\":11401:11438   */\n      tag_216\n        /* \"#utility.yul\":11432:11437   */\n      dup3\n        /* \"#utility.yul\":11401:11438   */\n      tag_217\n      jump\t// in\n    tag_216:\n        /* \"#utility.yul\":11388:11438   */\n      swap1\n      pop\n        /* \"#utility.yul\":11318:11444   */\n      swap2\n      swap1\n      pop\n      jump\t// out\n        /* \"#utility.yul\":11450:11563   */\n    tag_217:\n        /* \"#utility.yul\":11500:11509   */\n      0x00\n        /* \"#utility.yul\":11533:11557   */\n      tag_219\n        /* \"#utility.yul\":11551:11556   */\n      dup3\n        /* \"#utility.yul\":11533:11557   */\n      tag_206\n      jump\t// in\n    tag_219:\n        /* \"#utility.yul\":11520:11557   */\n      swap1\n      pop\n        /* \"#utility.yul\":11450:11563   */\n      swap2\n      swap1\n      pop\n      jump\t// out\n        /* \"#utility.yul\":11569:11802   */\n    tag_55:\n        /* \"#utility.yul\":11608:11611   */\n      0x00\n        /* \"#utility.yul\":11631:11655   */\n      tag_221\n        /* \"#utility.yul\":11649:11654   */\n      dup3\n        /* \"#utility.yul\":11631:11655   */\n      tag_164\n      jump\t// in\n    tag_221:\n        /* \"#utility.yul\":11622:11655   */\n      swap2\n      pop\n        /* \"#utility.yul\":11677:11743   */\n      0xffffffffffffffffffffffffffffffffffffffffffffffffffffffffffffffff\n        /* \"#utility.yul\":11670:11675   */\n      dup3\n        /* \"#utility.yul\":11667:11744   */\n      eq\n        /* \"#utility.yul\":11664:11767   */\n      iszero\n      tag_222\n      jumpi\n        /* \"#utility.yul\":11747:11765   */\n      tag_223\n      tag_224\n      jump\t// in\n    tag_223:\n        /* \"#utility.yul\":11664:11767   */\n    tag_222:\n        /* \"#utility.yul\":11794:11795   */\n      0x01\n        /* \"#utility.yul\":11787:11792   */\n      dup3\n        /* \"#utility.yul\":11783:11796   */\n      add\n        /* \"#utility.yul\":11776:11796   */\n      swap1\n      pop\n        /* \"#utility.yul\":11569:11802   */\n      swap2\n      swap1\n      pop\n      jump\t// out\n        /* \"#utility.yul\":11808:11908   */\n    tag_116:\n        /* \"#utility.yul\":11847:11854   */\n      0x00\n        /* \"#utility.yul\":11876:11902   */\n      tag_226\n        /* \"#utility.yul\":11896:11901   */\n      dup3\n        /* \"#utility.yul\":11876:11902   */\n      tag_227\n      jump\t// in\n    tag_226:\n        /* \"#utility.yul\":11865:11902   */\n      swap1\n      pop\n        /* \"#utility.yul\":11808:11908   */\n      swap2\n      swap1\n      pop\n      jump\t// out\n        /* \"#utility.yul\":11914:12008   */\n    tag_227:\n        /* \"#utility.yul\":11953:11960   */\n      0x00\n        /* \"#utility.yul\":11982:12002   */\n      tag_229\n        /* \"#utility.yul\":11996:12001   */\n      dup3\n        /* \"#utility.yul\":11982:12002   */\n      tag_230\n      jump\t// in\n    tag_229:\n        /* \"#utility.yul\":11971:12002   */\n      swap1\n      pop\n        /* \"#utility.yul\":11914:12008   */\n      swap2\n      swap1\n      pop\n      jump\t// out\n        /* \"#utility.yul\":12014:12093   */\n    tag_169:\n        /* \"#utility.yul\":12053:12060   */\n      0x00\n        /* \"#utility.yul\":12082:12087   */\n      dup2\n        /* \"#utility.yul\":12071:12087   */\n      swap1\n      pop\n        /* \"#utility.yul\":12014:12093   */\n      swap2\n      swap1\n      pop\n      jump\t// out\n        /* \"#utility.yul\":12099:12279   */\n    tag_224:\n        /* \"#utility.yul\":12147:12224   */\n      0x4e487b7100000000000000000000000000000000000000000000000000000000\n        /* \"#utility.yul\":12144:12145   */\n      0x00\n        /* \"#utility.yul\":12137:12225   */\n      mstore\n        /* \"#utility.yul\":12244:12248   */\n      0x11\n        /* \"#utility.yul\":12241:12242   */\n      0x04\n        /* \"#utility.yul\":12234:12249   */\n      mstore\n        /* \"#utility.yul\":12268:12272   */\n      0x24\n        /* \"#utility.yul\":12265:12266   */\n      0x00\n        /* \"#utility.yul\":12258:12273   */\n      revert\n        /* \"#utility.yul\":12285:12465   */\n    tag_34:\n        /* \"#utility.yul\":12333:12410   */\n      0x4e487b7100000000000000000000000000000000000000000000000000000000\n        /* \"#utility.yul\":12330:12331   */\n      0x00\n        /* \"#utility.yul\":12323:12411   */\n      mstore\n        /* \"#utility.yul\":12430:12434   */\n      0x32\n        /* \"#utility.yul\":12427:12428   */\n      0x04\n        /* \"#utility.yul\":12420:12435   */\n      mstore\n        /* \"#utility.yul\":12454:12458   */\n      0x24\n        /* \"#utility.yul\":12451:12452   */\n      0x00\n        /* \"#utility.yul\":12444:12459   */\n      revert\n        /* \"#utility.yul\":12594:12711   */\n    tag_93:\n        /* \"#utility.yul\":12703:12704   */\n      0x00\n        /* \"#utility.yul\":12700:12701   */\n      dup1\n        /* \"#utility.yul\":12693:12705   */\n      revert\n        /* \"#utility.yul\":12717:12811   */\n    tag_230:\n        /* \"#utility.yul\":12750:12758   */\n      0x00\n        /* \"#utility.yul\":12798:12803   */\n      dup2\n        /* \"#utility.yul\":12794:12796   */\n      0x60\n        /* \"#utility.yul\":12790:12804   */\n      shl\n        /* \"#utility.yul\":12769:12804   */\n      swap1\n      pop\n        /* \"#utility.yul\":12717:12811   */\n      swap2\n      swap1\n      pop\n      jump\t// out\n        /* \"#utility.yul\":12817:13038   */\n    tag_130:\n        /* \"#utility.yul\":12957:12991   */\n      0x5472616e73616374696f6e20686173682063616e206e6f7420626520656d7074\n        /* \"#utility.yul\":12953:12954   */\n      0x00\n        /* \"#utility.yul\":12945:12951   */\n      dup3\n        /* \"#utility.yul\":12941:12955   */\n      add\n        /* \"#utility.yul\":12934:12992   */\n      mstore\n        /* \"#utility.yul\":13026:13030   */\n      0x7921000000000000000000000000000000000000000000000000000000000000\n        /* \"#utility.yul\":13021:13023   */\n      0x20\n        /* \"#utility.yul\":13013:13019   */\n      dup3\n        /* \"#utility.yul\":13009:13024   */\n      add\n        /* \"#utility.yul\":13002:13031   */\n      mstore\n        /* \"#utility.yul\":12817:13038   */\n      pop\n      jump\t// out\n        /* \"#utility.yul\":13044:13264   */\n    tag_135:\n        /* \"#utility.yul\":13184:13218   */\n      0x5472616e73616374696f6e20686173682063616e6e6f7420626520656d707479\n        /* \"#utility.yul\":13180:13181   */\n      0x00\n        /* \"#utility.yul\":13172:13178   */\n      dup3\n        /* \"#utility.yul\":13168:13182   */\n      add\n        /* \"#utility.yul\":13161:13219   */\n      mstore\n        /* \"#utility.yul\":13253:13256   */\n      0x2100000000000000000000000000000000000000000000000000000000000000\n        /* \"#utility.yul\":13248:13250   */\n      0x20\n        /* \"#utility.yul\":13240:13246   */\n      dup3\n        /* \"#utility.yul\":13236:13251   */\n      add\n        /* \"#utility.yul\":13229:13257   */\n      mstore\n        /* \"#utility.yul\":13044:13264   */\n      pop\n      jump\t// out\n        /* \"#utility.yul\":13270:13446   */\n    tag_140:\n        /* \"#utility.yul\":13410:13438   */\n      0x5472616e7366657220746f20657363726f77206661696c656421000000000000\n        /* \"#utility.yul\":13406:13407   */\n      0x00\n        /* \"#utility.yul\":13398:13404   */\n      dup3\n        /* \"#utility.yul\":13394:13408   */\n      add\n        /* \"#utility.yul\":13387:13439   */\n      mstore\n        /* \"#utility.yul\":13270:13446   */\n      pop\n      jump\t// out\n        /* \"#utility.yul\":13452:13683   */\n    tag_145:\n        /* \"#utility.yul\":13592:13626   */\n      0x457363726f772077697468207472616e73616374696f6e206861736820646f65\n        /* \"#utility.yul\":13588:13589   */\n      0x00\n        /* \"#utility.yul\":13580:13586   */\n      dup3\n        /* \"#utility.yul\":13576:13590   */\n      add\n        /* \"#utility.yul\":13569:13627   */\n      mstore\n        /* \"#utility.yul\":13661:13675   */\n      0x73206e6f742065786973742e0000000000000000000000000000000000000000\n        /* \"#utility.yul\":13656:13658   */\n      0x20\n        /* \"#utility.yul\":13648:13654   */\n      dup3\n        /* \"#utility.yul\":13644:13659   */\n      add\n        /* \"#utility.yul\":13637:13676   */\n      mstore\n        /* \"#utility.yul\":13452:13683   */\n      pop\n      jump\t// out\n        /* \"#utility.yul\":13689:13911   */\n    tag_150:\n        /* \"#utility.yul\":13829:13863   */\n      0x457363726f7720616d6f756e742063616e6e6f7420626520657175616c20746f\n        /* \"#utility.yul\":13825:13826   */\n      0x00\n        /* \"#utility.yul\":13817:13823   */\n      dup3\n        /* \"#utility.yul\":13813:13827   */\n      add\n        /* \"#utility.yul\":13806:13864   */\n      mstore\n        /* \"#utility.yul\":13898:13903   */\n      0x2030210000000000000000000000000000000000000000000000000000000000\n        /* \"#utility.yul\":13893:13895   */\n      0x20\n        /* \"#utility.yul\":13885:13891   */\n      dup3\n        /* \"#utility.yul\":13881:13896   */\n      add\n        /* \"#utility.yul\":13874:13904   */\n      mstore\n        /* \"#utility.yul\":13689:13911   */\n      pop\n      jump\t// out\n        /* \"#utility.yul\":13917:14091   */\n    tag_155:\n        /* \"#utility.yul\":14057:14083   */\n      0x457363726f772072657472696576616c206661696c6564210000000000000000\n        /* \"#utility.yul\":14053:14054   */\n      0x00\n        /* \"#utility.yul\":14045:14051   */\n      dup3\n        /* \"#utility.yul\":14041:14055   */\n      add\n        /* \"#utility.yul\":14034:14084   */\n      mstore\n        /* \"#utility.yul\":13917:14091   */\n      pop\n      jump\t// out\n        /* \"#utility.yul\":14097:14270   */\n    tag_160:\n        /* \"#utility.yul\":14237:14262   */\n      0x4861736820697320616c726561647920696e2075736521000000000000000000\n        /* \"#utility.yul\":14233:14234   */\n      0x00\n        /* \"#utility.yul\":14225:14231   */\n      dup3\n        /* \"#utility.yul\":14221:14235   */\n      add\n        /* \"#utility.yul\":14214:14263   */\n      mstore\n        /* \"#utility.yul\":14097:14270   */\n      pop\n      jump\t// out\n        /* \"#utility.yul\":14276:14392   */\n    tag_81:\n        /* \"#utility.yul\":14346:14367   */\n      tag_246\n        /* \"#utility.yul\":14361:14366   */\n      dup2\n        /* \"#utility.yul\":14346:14367   */\n      tag_207\n      jump\t// in\n    tag_246:\n        /* \"#utility.yul\":14339:14344   */\n      dup2\n        /* \"#utility.yul\":14336:14368   */\n      eq\n        /* \"#utility.yul\":14326:14386   */\n      tag_247\n      jumpi\n        /* \"#utility.yul\":14382:14383   */\n      0x00\n        /* \"#utility.yul\":14379:14380   */\n      dup1\n        /* \"#utility.yul\":14372:14384   */\n      revert\n        /* \"#utility.yul\":14326:14386   */\n    tag_247:\n        /* \"#utility.yul\":14276:14392   */\n      pop\n      jump\t// out\n        /* \"#utility.yul\":14398:14520   */\n    tag_85:\n        /* \"#utility.yul\":14471:14495   */\n      tag_249\n        /* \"#utility.yul\":14489:14494   */\n      dup2\n        /* \"#utility.yul\":14471:14495   */\n      tag_120\n      jump\t// in\n    tag_249:\n        /* \"#utility.yul\":14464:14469   */\n      dup2\n        /* \"#utility.yul\":14461:14496   */\n      eq\n        /* \"#utility.yul\":14451:14514   */\n      tag_250\n      jumpi\n        /* \"#utility.yul\":14510:14511   */\n      0x00\n        /* \"#utility.yul\":14507:14508   */\n      dup1\n        /* \"#utility.yul\":14500:14512   */\n      revert\n        /* \"#utility.yul\":14451:14514   */\n    tag_250:\n        /* \"#utility.yul\":14398:14520   */\n      pop\n      jump\t// out\n        /* \"#utility.yul\":14526:14648   */\n    tag_89:\n        /* \"#utility.yul\":14599:14623   */\n      tag_252\n        /* \"#utility.yul\":14617:14622   */\n      dup2\n        /* \"#utility.yul\":14599:14623   */\n      tag_164\n      jump\t// in\n    tag_252:\n        /* \"#utility.yul\":14592:14597   */\n      dup2\n        /* \"#utility.yul\":14589:14624   */\n      eq\n        /* \"#utility.yul\":14579:14642   */\n      tag_253\n      jumpi\n        /* \"#utility.yul\":14638:14639   */\n      0x00\n        /* \"#utility.yul\":14635:14636   */\n      dup1\n        /* \"#utility.yul\":14628:14640   */\n      revert\n        /* \"#utility.yul\":14579:14642   */\n    tag_253:\n        /* \"#utility.yul\":14526:14648   */\n      pop\n      jump\t// out\n\n    auxdata: 0xa2646970667358221220f384b5658c71f0e7082e8797cfb3167addfb3d1f0c5a428dc4f3fcee8e5b0df164736f6c63430008070033\n}\n",
				"bytecode": {
					"linkReferences": {},
					"object": "608060405234801561001057600080fd5b50604051610eb6380380610eb683398181016040528101906100329190610095565b6000600281905550806000806101000a81548173ffffffffffffffffffffffffffffffffffffffff021916908373ffffffffffffffffffffffffffffffffffffffff16021790555050610110565b60008151905061008f816100f9565b92915050565b6000602082840312156100ab576100aa6100f4565b5b60006100b984828501610080565b91505092915050565b60006100cd826100d4565b9050919050565b600073ffffffffffffffffffffffffffffffffffffffff82169050919050565b600080fd5b610102816100c2565b811461010d57600080fd5b50565b610d978061011f6000396000f3fe608060405234801561001057600080fd5b50600436106100575760003560e01c80631de26e161461005c5780635e53ee21146100785780638909aa3f146100a85780638e19899e146100d8578063ecd0c0c3146100f4575b600080fd5b6100766004803603810190610071919061064b565b610112565b005b610092600480360381019061008d919061068b565b61034e565b60405161009f91906108b4565b60405180910390f35b6100c260048036038101906100bd919061061e565b610384565b6040516100cf91906109ca565b60405180910390f35b6100f260048036038101906100ed919061061e565b61039c565b005b6100fc61058e565b60405161010991906108cf565b60405180910390f35b600060f81b8260006020811061012b5761012a610b24565b5b1a60f81b7effffffffffffffffffffffffffffffffffffffffffffffffffffffffffffff19161415610192576040517f08c379a00000000000000000000000000000000000000000000000000000000081526004016101899061090a565b60405180910390fd5b60008114156101d6576040517f08c379a00000000000000000000000000000000000000000000000000000000081526004016101cd9061096a565b60405180910390fd5b600060016000848152602001908152602001600020541461022c576040517f08c379a0000000000000000000000000000000000000000000000000000000008152600401610223906109aa565b60405180910390fd5b60008054906101000a900473ffffffffffffffffffffffffffffffffffffffff1673ffffffffffffffffffffffffffffffffffffffff166323b872dd3330846040518463ffffffff1660e01b815260040161028993929190610854565b602060405180830381600087803b1580156102a357600080fd5b505af11580156102b7573d6000803e3d6000fd5b505050506040513d601f19601f820116820180604052508101906102db91906105f1565b61031a576040517f08c379a00000000000000000000000000000000000000000000000000000000081526004016103119061092a565b60405180910390fd5b8060016000848152602001908152602001600020819055506002600081548092919061034590610a7e565b91905055505050565b6000336002548360405160200161036793929190610817565b604051602081830303815290604052805190602001209050919050565b60016020528060005260406000206000915090505481565b600060f81b816000602081106103b5576103b4610b24565b5b1a60f81b7effffffffffffffffffffffffffffffffffffffffffffffffffffffffffffff1916141561041c576040517f08c379a0000000000000000000000000000000000000000000000000000000008152600401610413906108ea565b60405180910390fd5b600060016000838152602001908152602001600020541415610473576040517f08c379a000000000000000000000000000000000000000000000000000000000815260040161046a9061094a565b60405180910390fd5b60008054906101000a900473ffffffffffffffffffffffffffffffffffffffff1673ffffffffffffffffffffffffffffffffffffffff1663a9059cbb3360016000858152602001908152602001600020546040518363ffffffff1660e01b81526004016104e192919061088b565b602060405180830381600087803b1580156104fb57600080fd5b505af115801561050f573d6000803e3d6000fd5b505050506040513d601f19601f8201168201806040525081019061053391906105f1565b610572576040517f08c379a00000000000000000000000000000000000000000000000000000000081526004016105699061098a565b60405180910390fd5b6000600160008381526020019081526020016000208190555050565b60008054906101000a900473ffffffffffffffffffffffffffffffffffffffff1681565b6000815190506105c181610d1c565b92915050565b6000813590506105d681610d33565b92915050565b6000813590506105eb81610d4a565b92915050565b60006020828403121561060757610606610b53565b5b6000610615848285016105b2565b91505092915050565b60006020828403121561063457610633610b53565b5b6000610642848285016105c7565b91505092915050565b6000806040838503121561066257610661610b53565b5b6000610670858286016105c7565b9250506020610681858286016105dc565b9150509250929050565b6000602082840312156106a1576106a0610b53565b5b60006106af848285016105dc565b91505092915050565b6106c1816109f6565b82525050565b6106d86106d3826109f6565b610ac7565b82525050565b6106e781610a14565b82525050565b6106f681610a48565b82525050565b60006107096022836109e5565b915061071482610b65565b604082019050919050565b600061072c6021836109e5565b915061073782610bb4565b604082019050919050565b600061074f601a836109e5565b915061075a82610c03565b602082019050919050565b6000610772602c836109e5565b915061077d82610c2c565b604082019050919050565b60006107956023836109e5565b91506107a082610c7b565b604082019050919050565b60006107b86018836109e5565b91506107c382610cca565b602082019050919050565b60006107db6017836109e5565b91506107e682610cf3565b602082019050919050565b6107fa81610a3e565b82525050565b61081161080c82610a3e565b610aeb565b82525050565b600061082382866106c7565b6014820191506108338285610800565b6020820191506108438284610800565b602082019150819050949350505050565b600060608201905061086960008301866106b8565b61087660208301856106b8565b61088360408301846107f1565b949350505050565b60006040820190506108a060008301856106b8565b6108ad60208301846107f1565b9392505050565b60006020820190506108c960008301846106de565b92915050565b60006020820190506108e460008301846106ed565b92915050565b60006020820190508181036000830152610903816106fc565b9050919050565b600060208201905081810360008301526109238161071f565b9050919050565b6000602082019050818103600083015261094381610742565b9050919050565b6000602082019050818103600083015261096381610765565b9050919050565b6000602082019050818103600083015261098381610788565b9050919050565b600060208201905081810360008301526109a3816107ab565b9050919050565b600060208201905081810360008301526109c3816107ce565b9050919050565b60006020820190506109df60008301846107f1565b92915050565b600082825260208201905092915050565b6000610a0182610a1e565b9050919050565b60008115159050919050565b6000819050919050565b600073ffffffffffffffffffffffffffffffffffffffff82169050919050565b6000819050919050565b6000610a5382610a5a565b9050919050565b6000610a6582610a6c565b9050919050565b6000610a7782610a1e565b9050919050565b6000610a8982610a3e565b91507fffffffffffffffffffffffffffffffffffffffffffffffffffffffffffffffff821415610abc57610abb610af5565b5b600182019050919050565b6000610ad282610ad9565b9050919050565b6000610ae482610b58565b9050919050565b6000819050919050565b7f4e487b7100000000000000000000000000000000000000000000000000000000600052601160045260246000fd5b7f4e487b7100000000000000000000000000000000000000000000000000000000600052603260045260246000fd5b600080fd5b60008160601b9050919050565b7f5472616e73616374696f6e20686173682063616e206e6f7420626520656d707460008201527f7921000000000000000000000000000000000000000000000000000000000000602082015250565b7f5472616e73616374696f6e20686173682063616e6e6f7420626520656d70747960008201527f2100000000000000000000000000000000000000000000000000000000000000602082015250565b7f5472616e7366657220746f20657363726f77206661696c656421000000000000600082015250565b7f457363726f772077697468207472616e73616374696f6e206861736820646f6560008201527f73206e6f742065786973742e0000000000000000000000000000000000000000602082015250565b7f457363726f7720616d6f756e742063616e6e6f7420626520657175616c20746f60008201527f2030210000000000000000000000000000000000000000000000000000000000602082015250565b7f457363726f772072657472696576616c206661696c6564210000000000000000600082015250565b7f4861736820697320616c726561647920696e2075736521000000000000000000600082015250565b610d2581610a08565b8114610d3057600080fd5b50565b610d3c81610a14565b8114610d4757600080fd5b50565b610d5381610a3e565b8114610d5e57600080fd5b5056fea2646970667358221220f384b5658c71f0e7082e8797cfb3167addfb3d1f0c5a428dc4f3fcee8e5b0df164736f6c63430008070033",
					"opcodes": "PUSH1 0x80 PUSH1 0x40 MSTORE CALLVALUE DUP1 ISZERO PUSH2 0x10 JUMPI PUSH1 0x0 DUP1 REVERT JUMPDEST POP PUSH1 0x40 MLOAD PUSH2 0xEB6 CODESIZE SUB DUP1 PUSH2 0xEB6 DUP4 CODECOPY DUP2 DUP2 ADD PUSH1 0x40 MSTORE DUP2 ADD SWAP1 PUSH2 0x32 SWAP2 SWAP1 PUSH2 0x95 JUMP JUMPDEST PUSH1 0x0 PUSH1 0x2 DUP2 SWAP1 SSTORE POP DUP1 PUSH1 0x0 DUP1 PUSH2 0x100 EXP DUP2 SLOAD DUP2 PUSH20 0xFFFFFFFFFFFFFFFFFFFFFFFFFFFFFFFFFFFFFFFF MUL NOT AND SWAP1 DUP4 PUSH20 0xFFFFFFFFFFFFFFFFFFFFFFFFFFFFFFFFFFFFFFFF AND MUL OR SWAP1 SSTORE POP POP PUSH2 0x110 JUMP JUMPDEST PUSH1 0x0 DUP2 MLOAD SWAP1 POP PUSH2 0x8F DUP2 PUSH2 0xF9 JUMP JUMPDEST SWAP3 SWAP2 POP POP JUMP JUMPDEST PUSH1 0x0 PUSH1 0x20 DUP3 DUP5 SUB SLT ISZERO PUSH2 0xAB JUMPI PUSH2 0xAA PUSH2 0xF4 JUMP JUMPDEST JUMPDEST PUSH1 0x0 PUSH2 0xB9 DUP5 DUP3 DUP6 ADD PUSH2 0x80 JUMP JUMPDEST SWAP2 POP POP SWAP3 SWAP2 POP POP JUMP JUMPDEST PUSH1 0x0 PUSH2 0xCD DUP3 PUSH2 0xD4 JUMP JUMPDEST SWAP1 POP SWAP2 SWAP1 POP JUMP JUMPDEST PUSH1 0x0 PUSH20 0xFFFFFFFFFFFFFFFFFFFFFFFFFFFFFFFFFFFFFFFF DUP3 AND SWAP1 POP SWAP2 SWAP1 POP JUMP JUMPDEST PUSH1 0x0 DUP1 REVERT JUMPDEST PUSH2 0x102 DUP2 PUSH2 0xC2 JUMP JUMPDEST DUP2 EQ PUSH2 0x10D JUMPI PUSH1 0x0 DUP1 REVERT JUMPDEST POP JUMP JUMPDEST PUSH2 0xD97 DUP1 PUSH2 0x11F PUSH1 0x0 CODECOPY PUSH1 0x0 RETURN INVALID PUSH1 0x80 PUSH1 0x40 MSTORE CALLVALUE DUP1 ISZERO PUSH2 0x10 JUMPI PUSH1 0x0 DUP1 REVERT JUMPDEST POP PUSH1 0x4 CALLDATASIZE LT PUSH2 0x57 JUMPI PUSH1 0x0 CALLDATALOAD PUSH1 0xE0 SHR DUP1 PUSH4 0x1DE26E16 EQ PUSH2 0x5C JUMPI DUP1 PUSH4 0x5E53EE21 EQ PUSH2 0x78 JUMPI DUP1 PUSH4 0x8909AA3F EQ PUSH2 0xA8 JUMPI DUP1 PUSH4 0x8E19899E EQ PUSH2 0xD8 JUMPI DUP1 PUSH4 0xECD0C0C3 EQ PUSH2 0xF4 JUMPI JUMPDEST PUSH1 0x0 DUP1 REVERT JUMPDEST PUSH2 0x76 PUSH1 0x4 DUP1 CALLDATASIZE SUB DUP2 ADD SWAP1 PUSH2 0x71 SWAP2 SWAP1 PUSH2 0x64B JUMP JUMPDEST PUSH2 0x112 JUMP JUMPDEST STOP JUMPDEST PUSH2 0x92 PUSH1 0x4 DUP1 CALLDATASIZE SUB DUP2 ADD SWAP1 PUSH2 0x8D SWAP2 SWAP1 PUSH2 0x68B JUMP JUMPDEST PUSH2 0x34E JUMP JUMPDEST PUSH1 0x40 MLOAD PUSH2 0x9F SWAP2 SWAP1 PUSH2 0x8B4 JUMP JUMPDEST PUSH1 0x40 MLOAD DUP1 SWAP2 SUB SWAP1 RETURN JUMPDEST PUSH2 0xC2 PUSH1 0x4 DUP1 CALLDATASIZE SUB DUP2 ADD SWAP1 PUSH2 0xBD SWAP2 SWAP1 PUSH2 0x61E JUMP JUMPDEST PUSH2 0x384 JUMP JUMPDEST PUSH1 0x40 MLOAD PUSH2 0xCF SWAP2 SWAP1 PUSH2 0x9CA JUMP JUMPDEST PUSH1 0x40 MLOAD DUP1 SWAP2 SUB SWAP1 RETURN JUMPDEST PUSH2 0xF2 PUSH1 0x4 DUP1 CALLDATASIZE SUB DUP2 ADD SWAP1 PUSH2 0xED SWAP2 SWAP1 PUSH2 0x61E JUMP JUMPDEST PUSH2 0x39C JUMP JUMPDEST STOP JUMPDEST PUSH2 0xFC PUSH2 0x58E JUMP JUMPDEST PUSH1 0x40 MLOAD PUSH2 0x109 SWAP2 SWAP1 PUSH2 0x8CF JUMP JUMPDEST PUSH1 0x40 MLOAD DUP1 SWAP2 SUB SWAP1 RETURN JUMPDEST PUSH1 0x0 PUSH1 0xF8 SHL DUP3 PUSH1 0x0 PUSH1 0x20 DUP2 LT PUSH2 0x12B JUMPI PUSH2 0x12A PUSH2 0xB24 JUMP JUMPDEST JUMPDEST BYTE PUSH1 0xF8 SHL PUSH31 0xFFFFFFFFFFFFFFFFFFFFFFFFFFFFFFFFFFFFFFFFFFFFFFFFFFFFFFFFFFFFFF NOT AND EQ ISZERO PUSH2 0x192 JUMPI PUSH1 0x40 MLOAD PUSH32 0x8C379A000000000000000000000000000000000000000000000000000000000 DUP2 MSTORE PUSH1 0x4 ADD PUSH2 0x189 SWAP1 PUSH2 0x90A JUMP JUMPDEST PUSH1 0x40 MLOAD DUP1 SWAP2 SUB SWAP1 REVERT JUMPDEST PUSH1 0x0 DUP2 EQ ISZERO PUSH2 0x1D6 JUMPI PUSH1 0x40 MLOAD PUSH32 0x8C379A000000000000000000000000000000000000000000000000000000000 DUP2 MSTORE PUSH1 0x4 ADD PUSH2 0x1CD SWAP1 PUSH2 0x96A JUMP JUMPDEST PUSH1 0x40 MLOAD DUP1 SWAP2 SUB SWAP1 REVERT JUMPDEST PUSH1 0x0 PUSH1 0x1 PUSH1 0x0 DUP5 DUP2 MSTORE PUSH1 0x20 ADD SWAP1 DUP2 MSTORE PUSH1 0x20 ADD PUSH1 0x0 KECCAK256 SLOAD EQ PUSH2 0x22C JUMPI PUSH1 0x40 MLOAD PUSH32 0x8C379A000000000000000000000000000000000000000000000000000000000 DUP2 MSTORE PUSH1 0x4 ADD PUSH2 0x223 SWAP1 PUSH2 0x9AA JUMP JUMPDEST PUSH1 0x40 MLOAD DUP1 SWAP2 SUB SWAP1 REVERT JUMPDEST PUSH1 0x0 DUP1 SLOAD SWAP1 PUSH2 0x100 EXP SWAP1 DIV PUSH20 0xFFFFFFFFFFFFFFFFFFFFFFFFFFFFFFFFFFFFFFFF AND PUSH20 0xFFFFFFFFFFFFFFFFFFFFFFFFFFFFFFFFFFFFFFFF AND PUSH4 0x23B872DD CALLER ADDRESS DUP5 PUSH1 0x40 MLOAD DUP5 PUSH4 0xFFFFFFFF AND PUSH1 0xE0 SHL DUP2 MSTORE PUSH1 0x4 ADD PUSH2 0x289 SWAP4 SWAP3 SWAP2 SWAP1 PUSH2 0x854 JUMP JUMPDEST PUSH1 0x20 PUSH1 0x40 MLOAD DUP1 DUP4 SUB DUP2 PUSH1 0x0 DUP8 DUP1 EXTCODESIZE ISZERO DUP1 ISZERO PUSH2 0x2A3 JUMPI PUSH1 0x0 DUP1 REVERT JUMPDEST POP GAS CALL ISZERO DUP1 ISZERO PUSH2 0x2B7 JUMPI RETURNDATASIZE PUSH1 0x0 DUP1 RETURNDATACOPY RETURNDATASIZE PUSH1 0x0 REVERT JUMPDEST POP POP POP POP PUSH1 0x40 MLOAD RETURNDATASIZE PUSH1 0x1F NOT PUSH1 0x1F DUP3 ADD AND DUP3 ADD DUP1 PUSH1 0x40 MSTORE POP DUP2 ADD SWAP1 PUSH2 0x2DB SWAP2 SWAP1 PUSH2 0x5F1 JUMP JUMPDEST PUSH2 0x31A JUMPI PUSH1 0x40 MLOAD PUSH32 0x8C379A000000000000000000000000000000000000000000000000000000000 DUP2 MSTORE PUSH1 0x4 ADD PUSH2 0x311 SWAP1 PUSH2 0x92A JUMP JUMPDEST PUSH1 0x40 MLOAD DUP1 SWAP2 SUB SWAP1 REVERT JUMPDEST DUP1 PUSH1 0x1 PUSH1 0x0 DUP5 DUP2 MSTORE PUSH1 0x20 ADD SWAP1 DUP2 MSTORE PUSH1 0x20 ADD PUSH1 0x0 KECCAK256 DUP2 SWAP1 SSTORE POP PUSH1 0x2 PUSH1 0x0 DUP2 SLOAD DUP1 SWAP3 SWAP2 SWAP1 PUSH2 0x345 SWAP1 PUSH2 0xA7E JUMP JUMPDEST SWAP2 SWAP1 POP SSTORE POP POP POP JUMP JUMPDEST PUSH1 0x0 CALLER PUSH1 0x2 SLOAD DUP4 PUSH1 0x40 MLOAD PUSH1 0x20 ADD PUSH2 0x367 SWAP4 SWAP3 SWAP2 SWAP1 PUSH2 0x817 JUMP JUMPDEST PUSH1 0x40 MLOAD PUSH1 0x20 DUP2 DUP4 SUB SUB DUP2 MSTORE SWAP1 PUSH1 0x40 MSTORE DUP1 MLOAD SWAP1 PUSH1 0x20 ADD KECCAK256 SWAP1 POP SWAP2 SWAP1 POP JUMP JUMPDEST PUSH1 0x1 PUSH1 0x20 MSTORE DUP1 PUSH1 0x0 MSTORE PUSH1 0x40 PUSH1 0x0 KECCAK256 PUSH1 0x0 SWAP2 POP SWAP1 POP SLOAD DUP2 JUMP JUMPDEST PUSH1 0x0 PUSH1 0xF8 SHL DUP2 PUSH1 0x0 PUSH1 0x20 DUP2 LT PUSH2 0x3B5 JUMPI PUSH2 0x3B4 PUSH2 0xB24 JUMP JUMPDEST JUMPDEST BYTE PUSH1 0xF8 SHL PUSH31 0xFFFFFFFFFFFFFFFFFFFFFFFFFFFFFFFFFFFFFFFFFFFFFFFFFFFFFFFFFFFFFF NOT AND EQ ISZERO PUSH2 0x41C JUMPI PUSH1 0x40 MLOAD PUSH32 0x8C379A000000000000000000000000000000000000000000000000000000000 DUP2 MSTORE PUSH1 0x4 ADD PUSH2 0x413 SWAP1 PUSH2 0x8EA JUMP JUMPDEST PUSH1 0x40 MLOAD DUP1 SWAP2 SUB SWAP1 REVERT JUMPDEST PUSH1 0x0 PUSH1 0x1 PUSH1 0x0 DUP4 DUP2 MSTORE PUSH1 0x20 ADD SWAP1 DUP2 MSTORE PUSH1 0x20 ADD PUSH1 0x0 KECCAK256 SLOAD EQ ISZERO PUSH2 0x473 JUMPI PUSH1 0x40 MLOAD PUSH32 0x8C379A000000000000000000000000000000000000000000000000000000000 DUP2 MSTORE PUSH1 0x4 ADD PUSH2 0x46A SWAP1 PUSH2 0x94A JUMP JUMPDEST PUSH1 0x40 MLOAD DUP1 SWAP2 SUB SWAP1 REVERT JUMPDEST PUSH1 0x0 DUP1 SLOAD SWAP1 PUSH2 0x100 EXP SWAP1 DIV PUSH20 0xFFFFFFFFFFFFFFFFFFFFFFFFFFFFFFFFFFFFFFFF AND PUSH20 0xFFFFFFFFFFFFFFFFFFFFFFFFFFFFFFFFFFFFFFFF AND PUSH4 0xA9059CBB CALLER PUSH1 0x1 PUSH1 0x0 DUP6 DUP2 MSTORE PUSH1 0x20 ADD SWAP1 DUP2 MSTORE PUSH1 0x20 ADD PUSH1 0x0 KECCAK256 SLOAD PUSH1 0x40 MLOAD DUP4 PUSH4 0xFFFFFFFF AND PUSH1 0xE0 SHL DUP2 MSTORE PUSH1 0x4 ADD PUSH2 0x4E1 SWAP3 SWAP2 SWAP1 PUSH2 0x88B JUMP JUMPDEST PUSH1 0x20 PUSH1 0x40 MLOAD DUP1 DUP4 SUB DUP2 PUSH1 0x0 DUP8 DUP1 EXTCODESIZE ISZERO DUP1 ISZERO PUSH2 0x4FB JUMPI PUSH1 0x0 DUP1 REVERT JUMPDEST POP GAS CALL ISZERO DUP1 ISZERO PUSH2 0x50F JUMPI RETURNDATASIZE PUSH1 0x0 DUP1 RETURNDATACOPY RETURNDATASIZE PUSH1 0x0 REVERT JUMPDEST POP POP POP POP PUSH1 0x40 MLOAD RETURNDATASIZE PUSH1 0x1F NOT PUSH1 0x1F DUP3 ADD AND DUP3 ADD DUP1 PUSH1 0x40 MSTORE POP DUP2 ADD SWAP1 PUSH2 0x533 SWAP2 SWAP1 PUSH2 0x5F1 JUMP JUMPDEST PUSH2 0x572 JUMPI PUSH1 0x40 MLOAD PUSH32 0x8C379A000000000000000000000000000000000000000000000000000000000 DUP2 MSTORE PUSH1 0x4 ADD PUSH2 0x569 SWAP1 PUSH2 0x98A JUMP JUMPDEST PUSH1 0x40 MLOAD DUP1 SWAP2 SUB SWAP1 REVERT JUMPDEST PUSH1 0x0 PUSH1 0x1 PUSH1 0x0 DUP4 DUP2 MSTORE PUSH1 0x20 ADD SWAP1 DUP2 MSTORE PUSH1 0x20 ADD PUSH1 0x0 KECCAK256 DUP2 SWAP1 SSTORE POP POP JUMP JUMPDEST PUSH1 0x0 DUP1 SLOAD SWAP1 PUSH2 0x100 EXP SWAP1 DIV PUSH20 0xFFFFFFFFFFFFFFFFFFFFFFFFFFFFFFFFFFFFFFFF AND DUP2 JUMP JUMPDEST PUSH1 0x0 DUP2 MLOAD SWAP1 POP PUSH2 0x5C1 DUP2 PUSH2 0xD1C JUMP JUMPDEST SWAP3 SWAP2 POP POP JUMP JUMPDEST PUSH1 0x0 DUP2 CALLDATALOAD SWAP1 POP PUSH2 0x5D6 DUP2 PUSH2 0xD33 JUMP JUMPDEST SWAP3 SWAP2 POP POP JUMP JUMPDEST PUSH1 0x0 DUP2 CALLDATALOAD SWAP1 POP PUSH2 0x5EB DUP2 PUSH2 0xD4A JUMP JUMPDEST SWAP3 SWAP2 POP POP JUMP JUMPDEST PUSH1 0x0 PUSH1 0x20 DUP3 DUP5 SUB SLT ISZERO PUSH2 0x607 JUMPI PUSH2 0x606 PUSH2 0xB53 JUMP JUMPDEST JUMPDEST PUSH1 0x0 PUSH2 0x615 DUP5 DUP3 DUP6 ADD PUSH2 0x5B2 JUMP JUMPDEST SWAP2 POP POP SWAP3 SWAP2 POP POP JUMP JUMPDEST PUSH1 0x0 PUSH1 0x20 DUP3 DUP5 SUB SLT ISZERO PUSH2 0x634 JUMPI PUSH2 0x633 PUSH2 0xB53 JUMP JUMPDEST JUMPDEST PUSH1 0x0 PUSH2 0x642 DUP5 DUP3 DUP6 ADD PUSH2 0x5C7 JUMP JUMPDEST SWAP2 POP POP SWAP3 SWAP2 POP POP JUMP JUMPDEST PUSH1 0x0 DUP1 PUSH1 0x40 DUP4 DUP6 SUB SLT ISZERO PUSH2 0x662 JUMPI PUSH2 0x661 PUSH2 0xB53 JUMP JUMPDEST JUMPDEST PUSH1 0x0 PUSH2 0x670 DUP6 DUP3 DUP7 ADD PUSH2 0x5C7 JUMP JUMPDEST SWAP3 POP POP PUSH1 0x20 PUSH2 0x681 DUP6 DUP3 DUP7 ADD PUSH2 0x5DC JUMP JUMPDEST SWAP2 POP POP SWAP3 POP SWAP3 SWAP1 POP JUMP JUMPDEST PUSH1 0x0 PUSH1 0x20 DUP3 DUP5 SUB SLT ISZERO PUSH2 0x6A1 JUMPI PUSH2 0x6A0 PUSH2 0xB53 JUMP JUMPDEST JUMPDEST PUSH1 0x0 PUSH2 0x6AF DUP5 DUP3 DUP6 ADD PUSH2 0x5DC JUMP JUMPDEST SWAP2 POP POP SWAP3 SWAP2 POP POP JUMP JUMPDEST PUSH2 0x6C1 DUP2 PUSH2 0x9F6 JUMP JUMPDEST DUP3 MSTORE POP POP JUMP JUMPDEST PUSH2 0x6D8 PUSH2 0x6D3 DUP3 PUSH2 0x9F6 JUMP JUMPDEST PUSH2 0xAC7 JUMP JUMPDEST DUP3 MSTORE POP POP JUMP JUMPDEST PUSH2 0x6E7 DUP2 PUSH2 0xA14 JUMP JUMPDEST DUP3 MSTORE POP POP JUMP JUMPDEST PUSH2 0x6F6 DUP2 PUSH2 0xA48 JUMP JUMPDEST DUP3 MSTORE POP POP JUMP JUMPDEST PUSH1 0x0 PUSH2 0x709 PUSH1 0x22 DUP4 PUSH2 0x9E5 JUMP JUMPDEST SWAP2 POP PUSH2 0x714 DUP3 PUSH2 0xB65 JUMP JUMPDEST PUSH1 0x40 DUP3 ADD SWAP1 POP SWAP2 SWAP1 POP JUMP JUMPDEST PUSH1 0x0 PUSH2 0x72C PUSH1 0x21 DUP4 PUSH2 0x9E5 JUMP JUMPDEST SWAP2 POP PUSH2 0x737 DUP3 PUSH2 0xBB4 JUMP JUMPDEST PUSH1 0x40 DUP3 ADD SWAP1 POP SWAP2 SWAP1 POP JUMP JUMPDEST PUSH1 0x0 PUSH2 0x74F PUSH1 0x1A DUP4 PUSH2 0x9E5 JUMP JUMPDEST SWAP2 POP PUSH2 0x75A DUP3 PUSH2 0xC03 JUMP JUMPDEST PUSH1 0x20 DUP3 ADD SWAP1 POP SWAP2 SWAP1 POP JUMP JUMPDEST PUSH1 0x0 PUSH2 0x772 PUSH1 0x2C DUP4 PUSH2 0x9E5 JUMP JUMPDEST SWAP2 POP PUSH2 0x77D DUP3 PUSH2 0xC2C JUMP JUMPDEST PUSH1 0x40 DUP3 ADD SWAP1 POP SWAP2 SWAP1 POP JUMP JUMPDEST PUSH1 0x0 PUSH2 0x795 PUSH1 0x23 DUP4 PUSH2 0x9E5 JUMP JUMPDEST SWAP2 POP PUSH2 0x7A0 DUP3 PUSH2 0xC7B JUMP JUMPDEST PUSH1 0x40 DUP3 ADD SWAP1 POP SWAP2 SWAP1 POP JUMP JUMPDEST PUSH1 0x0 PUSH2 0x7B8 PUSH1 0x18 DUP4 PUSH2 0x9E5 JUMP JUMPDEST SWAP2 POP PUSH2 0x7C3 DUP3 PUSH2 0xCCA JUMP JUMPDEST PUSH1 0x20 DUP3 ADD SWAP1 POP SWAP2 SWAP1 POP JUMP JUMPDEST PUSH1 0x0 PUSH2 0x7DB PUSH1 0x17 DUP4 PUSH2 0x9E5 JUMP JUMPDEST SWAP2 POP PUSH2 0x7E6 DUP3 PUSH2 0xCF3 JUMP JUMPDEST PUSH1 0x20 DUP3 ADD SWAP1 POP SWAP2 SWAP1 POP JUMP JUMPDEST PUSH2 0x7FA DUP2 PUSH2 0xA3E JUMP JUMPDEST DUP3 MSTORE POP POP JUMP JUMPDEST PUSH2 0x811 PUSH2 0x80C DUP3 PUSH2 0xA3E JUMP JUMPDEST PUSH2 0xAEB JUMP JUMPDEST DUP3 MSTORE POP POP JUMP JUMPDEST PUSH1 0x0 PUSH2 0x823 DUP3 DUP7 PUSH2 0x6C7 JUMP JUMPDEST PUSH1 0x14 DUP3 ADD SWAP2 POP PUSH2 0x833 DUP3 DUP6 PUSH2 0x800 JUMP JUMPDEST PUSH1 0x20 DUP3 ADD SWAP2 POP PUSH2 0x843 DUP3 DUP5 PUSH2 0x800 JUMP JUMPDEST PUSH1 0x20 DUP3 ADD SWAP2 POP DUP2 SWAP1 POP SWAP5 SWAP4 POP POP POP POP JUMP JUMPDEST PUSH1 0x0 PUSH1 0x60 DUP3 ADD SWAP1 POP PUSH2 0x869 PUSH1 0x0 DUP4 ADD DUP7 PUSH2 0x6B8 JUMP JUMPDEST PUSH2 0x876 PUSH1 0x20 DUP4 ADD DUP6 PUSH2 0x6B8 JUMP JUMPDEST PUSH2 0x883 PUSH1 0x40 DUP4 ADD DUP5 PUSH2 0x7F1 JUMP JUMPDEST SWAP5 SWAP4 POP POP POP POP JUMP JUMPDEST PUSH1 0x0 PUSH1 0x40 DUP3 ADD SWAP1 POP PUSH2 0x8A0 PUSH1 0x0 DUP4 ADD DUP6 PUSH2 0x6B8 JUMP JUMPDEST PUSH2 0x8AD PUSH1 0x20 DUP4 ADD DUP5 PUSH2 0x7F1 JUMP JUMPDEST SWAP4 SWAP3 POP POP POP JUMP JUMPDEST PUSH1 0x0 PUSH1 0x20 DUP3 ADD SWAP1 POP PUSH2 0x8C9 PUSH1 0x0 DUP4 ADD DUP5 PUSH2 0x6DE JUMP JUMPDEST SWAP3 SWAP2 POP POP JUMP JUMPDEST PUSH1 0x0 PUSH1 0x20 DUP3 ADD SWAP1 POP PUSH2 0x8E4 PUSH1 0x0 DUP4 ADD DUP5 PUSH2 0x6ED JUMP JUMPDEST SWAP3 SWAP2 POP POP JUMP JUMPDEST PUSH1 0x0 PUSH1 0x20 DUP3 ADD SWAP1 POP DUP2 DUP2 SUB PUSH1 0x0 DUP4 ADD MSTORE PUSH2 0x903 DUP2 PUSH2 0x6FC JUMP JUMPDEST SWAP1 POP SWAP2 SWAP1 POP JUMP JUMPDEST PUSH1 0x0 PUSH1 0x20 DUP3 ADD SWAP1 POP DUP2 DUP2 SUB PUSH1 0x0 DUP4 ADD MSTORE PUSH2 0x923 DUP2 PUSH2 0x71F JUMP JUMPDEST SWAP1 POP SWAP2 SWAP1 POP JUMP JUMPDEST PUSH1 0x0 PUSH1 0x20 DUP3 ADD SWAP1 POP DUP2 DUP2 SUB PUSH1 0x0 DUP4 ADD MSTORE PUSH2 0x943 DUP2 PUSH2 0x742 JUMP JUMPDEST SWAP1 POP SWAP2 SWAP1 POP JUMP JUMPDEST PUSH1 0x0 PUSH1 0x20 DUP3 ADD SWAP1 POP DUP2 DUP2 SUB PUSH1 0x0 DUP4 ADD MSTORE PUSH2 0x963 DUP2 PUSH2 0x765 JUMP JUMPDEST SWAP1 POP SWAP2 SWAP1 POP JUMP JUMPDEST PUSH1 0x0 PUSH1 0x20 DUP3 ADD SWAP1 POP DUP2 DUP2 SUB PUSH1 0x0 DUP4 ADD MSTORE PUSH2 0x983 DUP2 PUSH2 0x788 JUMP JUMPDEST SWAP1 POP SWAP2 SWAP1 POP JUMP JUMPDEST PUSH1 0x0 PUSH1 0x20 DUP3 ADD SWAP1 POP DUP2 DUP2 SUB PUSH1 0x0 DUP4 ADD MSTORE PUSH2 0x9A3 DUP2 PUSH2 0x7AB JUMP JUMPDEST SWAP1 POP SWAP2 SWAP1 POP JUMP JUMPDEST PUSH1 0x0 PUSH1 0x20 DUP3 ADD SWAP1 POP DUP2 DUP2 SUB PUSH1 0x0 DUP4 ADD MSTORE PUSH2 0x9C3 DUP2 PUSH2 0x7CE JUMP JUMPDEST SWAP1 POP SWAP2 SWAP1 POP JUMP JUMPDEST PUSH1 0x0 PUSH1 0x20 DUP3 ADD SWAP1 POP PUSH2 0x9DF PUSH1 0x0 DUP4 ADD DUP5 PUSH2 0x7F1 JUMP JUMPDEST SWAP3 SWAP2 POP POP JUMP JUMPDEST PUSH1 0x0 DUP3 DUP3 MSTORE PUSH1 0x20 DUP3 ADD SWAP1 POP SWAP3 SWAP2 POP POP JUMP JUMPDEST PUSH1 0x0 PUSH2 0xA01 DUP3 PUSH2 0xA1E JUMP JUMPDEST SWAP1 POP SWAP2 SWAP1 POP JUMP JUMPDEST PUSH1 0x0 DUP2 ISZERO ISZERO SWAP1 POP SWAP2 SWAP1 POP JUMP JUMPDEST PUSH1 0x0 DUP2 SWAP1 POP SWAP2 SWAP1 POP JUMP JUMPDEST PUSH1 0x0 PUSH20 0xFFFFFFFFFFFFFFFFFFFFFFFFFFFFFFFFFFFFFFFF DUP3 AND SWAP1 POP SWAP2 SWAP1 POP JUMP JUMPDEST PUSH1 0x0 DUP2 SWAP1 POP SWAP2 SWAP1 POP JUMP JUMPDEST PUSH1 0x0 PUSH2 0xA53 DUP3 PUSH2 0xA5A JUMP JUMPDEST SWAP1 POP SWAP2 SWAP1 POP JUMP JUMPDEST PUSH1 0x0 PUSH2 0xA65 DUP3 PUSH2 0xA6C JUMP JUMPDEST SWAP1 POP SWAP2 SWAP1 POP JUMP JUMPDEST PUSH1 0x0 PUSH2 0xA77 DUP3 PUSH2 0xA1E JUMP JUMPDEST SWAP1 POP SWAP2 SWAP1 POP JUMP JUMPDEST PUSH1 0x0 PUSH2 0xA89 DUP3 PUSH2 0xA3E JUMP JUMPDEST SWAP2 POP PUSH32 0xFFFFFFFFFFFFFFFFFFFFFFFFFFFFFFFFFFFFFFFFFFFFFFFFFFFFFFFFFFFFFFFF DUP3 EQ ISZERO PUSH2 0xABC JUMPI PUSH2 0xABB PUSH2 0xAF5 JUMP JUMPDEST JUMPDEST PUSH1 0x1 DUP3 ADD SWAP1 POP SWAP2 SWAP1 POP JUMP JUMPDEST PUSH1 0x0 PUSH2 0xAD2 DUP3 PUSH2 0xAD9 JUMP JUMPDEST SWAP1 POP SWAP2 SWAP1 POP JUMP JUMPDEST PUSH1 0x0 PUSH2 0xAE4 DUP3 PUSH2 0xB58 JUMP JUMPDEST SWAP1 POP SWAP2 SWAP1 POP JUMP JUMPDEST PUSH1 0x0 DUP2 SWAP1 POP SWAP2 SWAP1 POP JUMP JUMPDEST PUSH32 0x4E487B7100000000000000000000000000000000000000000000000000000000 PUSH1 0x0 MSTORE PUSH1 0x11 PUSH1 0x4 MSTORE PUSH1 0x24 PUSH1 0x0 REVERT JUMPDEST PUSH32 0x4E487B7100000000000000000000000000000000000000000000000000000000 PUSH1 0x0 MSTORE PUSH1 0x32 PUSH1 0x4 MSTORE PUSH1 0x24 PUSH1 0x0 REVERT JUMPDEST PUSH1 0x0 DUP1 REVERT JUMPDEST PUSH1 0x0 DUP2 PUSH1 0x60 SHL SWAP1 POP SWAP2 SWAP1 POP JUMP JUMPDEST PUSH32 0x5472616E73616374696F6E20686173682063616E206E6F7420626520656D7074 PUSH1 0x0 DUP3 ADD MSTORE PUSH32 0x7921000000000000000000000000000000000000000000000000000000000000 PUSH1 0x20 DUP3 ADD MSTORE POP JUMP JUMPDEST PUSH32 0x5472616E73616374696F6E20686173682063616E6E6F7420626520656D707479 PUSH1 0x0 DUP3 ADD MSTORE PUSH32 0x2100000000000000000000000000000000000000000000000000000000000000 PUSH1 0x20 DUP3 ADD MSTORE POP JUMP JUMPDEST PUSH32 0x5472616E7366657220746F20657363726F77206661696C656421000000000000 PUSH1 0x0 DUP3 ADD MSTORE POP JUMP JUMPDEST PUSH32 0x457363726F772077697468207472616E73616374696F6E206861736820646F65 PUSH1 0x0 DUP3 ADD MSTORE PUSH32 0x73206E6F742065786973742E0000000000000000000000000000000000000000 PUSH1 0x20 DUP3 ADD MSTORE POP JUMP JUMPDEST PUSH32 0x457363726F7720616D6F756E742063616E6E6F7420626520657175616C20746F PUSH1 0x0 DUP3 ADD MSTORE PUSH32 0x2030210000000000000000000000000000000000000000000000000000000000 PUSH1 0x20 DUP3 ADD MSTORE POP JUMP JUMPDEST PUSH32 0x457363726F772072657472696576616C206661696C6564210000000000000000 PUSH1 0x0 DUP3 ADD MSTORE POP JUMP JUMPDEST PUSH32 0x4861736820697320616C726561647920696E2075736521000000000000000000 PUSH1 0x0 DUP3 ADD MSTORE POP JUMP JUMPDEST PUSH2 0xD25 DUP2 PUSH2 0xA08 JUMP JUMPDEST DUP2 EQ PUSH2 0xD30 JUMPI PUSH1 0x0 DUP1 REVERT JUMPDEST POP JUMP JUMPDEST PUSH2 0xD3C DUP2 PUSH2 0xA14 JUMP JUMPDEST DUP2 EQ PUSH2 0xD47 JUMPI PUSH1 0x0 DUP1 REVERT JUMPDEST POP JUMP JUMPDEST PUSH2 0xD53 DUP2 PUSH2 0xA3E JUMP JUMPDEST DUP2 EQ PUSH2 0xD5E JUMPI PUSH1 0x0 DUP1 REVERT JUMPDEST POP JUMP INVALID LOG2 PUSH5 0x6970667358 0x22 SLT KECCAK256 RETURN DUP5 0xB5 PUSH6 0x8C71F0E7082E DUP8 SWAP8 0xCF 0xB3 AND PUSH27 0xDDFB3D1F0C5A428DC4F3FCEE8E5B0DF164736F6C63430008070033 "
				},
				"gasEstimates": {
					"creation": {
						"codeDepositCost": "695800",
						"executionCost": "infinite",
						"totalCost": "infinite"
					},
					"external": {
						"_token()": "2663",
						"balances(bytes32)": "2787",
						"deposit(bytes32,uint256)": "infinite",
						"getERC20Hash(uint256)": "infinite",
						"withdraw(bytes32)": "infinite"
					}
				},
				"methodIdentifiers": {
					"_token()": "ecd0c0c3",
					"balances(bytes32)": "8909aa3f",
					"deposit(bytes32,uint256)": "1de26e16",
					"getERC20Hash(uint256)": "5e53ee21",
					"withdraw(bytes32)": "8e19899e"
				}
			},
			"storageLayout": {
				"storage": [
					{
						"astId": 83,
						"contract": "contracts/EscrowERC20.sol:EscrowERC20",
						"label": "_token",
						"offset": 0,
						"slot": "0",
						"type": "t_contract(IERC20)77"
					},
					{
						"astId": 87,
						"contract": "contracts/EscrowERC20.sol:EscrowERC20",
						"label": "balances",
						"offset": 0,
						"slot": "1",
						"type": "t_mapping(t_bytes32,t_uint256)"
					},
					{
						"astId": 89,
						"contract": "contracts/EscrowERC20.sol:EscrowERC20",
						"label": "deposit_count",
						"offset": 0,
						"slot": "2",
						"type": "t_uint256"
					}
				],
				"types": {
					"t_bytes32": {
						"encoding": "inplace",
						"label": "bytes32",
						"numberOfBytes": "32"
					},
					"t_contract(IERC20)77": {
						"encoding": "inplace",
						"label": "contract IERC20",
						"numberOfBytes": "20"
					},
					"t_mapping(t_bytes32,t_uint256)": {
						"encoding": "mapping",
						"key": "t_bytes32",
						"label": "mapping(bytes32 => uint256)",
						"numberOfBytes": "32",
						"value": "t_uint256"
					},
					"t_uint256": {
						"encoding": "inplace",
						"label": "uint256",
						"numberOfBytes": "32"
					}
				}
			},
			"userdoc": {
				"kind": "user",
				"methods": {},
				"version": 1
			}
		}
	}
}