{
	"contracts/EscrowERC20.sol": {
		"EscrowERC20": {
			"abi": [
				{
					"inputs": [
						{
							"internalType": "address",
							"name": "_token_addr",
							"type": "address"
						}
					],
					"stateMutability": "nonpayable",
					"type": "constructor"
				},
				{
					"anonymous": false,
					"inputs": [
						{
							"indexed": false,
							"internalType": "uint256",
							"name": "amount",
							"type": "uint256"
						}
					],
					"name": "Bought",
					"type": "event"
				},
				{
					"inputs": [
						{
							"internalType": "address",
							"name": "",
							"type": "address"
						},
						{
							"internalType": "address",
							"name": "",
							"type": "address"
						}
					],
					"name": "balance",
					"outputs": [
						{
							"internalType": "uint256",
							"name": "",
							"type": "uint256"
						}
					],
					"stateMutability": "view",
					"type": "function"
				},
				{
					"inputs": [],
					"name": "buy",
					"outputs": [],
					"stateMutability": "payable",
					"type": "function"
				},
				{
					"inputs": [
						{
							"internalType": "address",
							"name": "_receiver",
							"type": "address"
						},
						{
							"internalType": "uint256",
							"name": "_amount",
							"type": "uint256"
						}
					],
					"name": "deposit",
					"outputs": [],
					"stateMutability": "nonpayable",
					"type": "function"
				},
				{
					"inputs": [],
					"name": "token",
					"outputs": [
						{
							"internalType": "contract IERC20",
							"name": "",
							"type": "address"
						}
					],
					"stateMutability": "view",
					"type": "function"
				}
			],
			"devdoc": {
				"kind": "dev",
				"methods": {},
				"version": 1
			},
			"evm": {
				"assembly": "    /* \"contracts/EscrowERC20.sol\":123:803  contract EscrowERC20 {... */\n  mstore(0x40, 0x80)\n    /* \"contracts/EscrowERC20.sol\":245:322  constructor(address _token_addr) {... */\n  callvalue\n  dup1\n  iszero\n  tag_1\n  jumpi\n  0x00\n  dup1\n  revert\ntag_1:\n  pop\n  mload(0x40)\n  sub(codesize, bytecodeSize)\n  dup1\n  bytecodeSize\n  dup4\n  codecopy\n  dup2\n  dup2\n  add\n  0x40\n  mstore\n  dup2\n  add\n  swap1\n  tag_2\n  swap2\n  swap1\n  tag_3\n  jump\t// in\ntag_2:\n    /* \"contracts/EscrowERC20.sol\":303:314  _token_addr */\n  dup1\n    /* \"contracts/EscrowERC20.sol\":288:293  token */\n  0x00\n  dup1\n    /* \"contracts/EscrowERC20.sol\":288:315  token = IERC20(_token_addr) */\n  0x0100\n  exp\n  dup2\n  sload\n  dup2\n  0xffffffffffffffffffffffffffffffffffffffff\n  mul\n  not\n  and\n  swap1\n  dup4\n  0xffffffffffffffffffffffffffffffffffffffff\n  and\n  mul\n  or\n  swap1\n  sstore\n  pop\n    /* \"contracts/EscrowERC20.sol\":245:322  constructor(address _token_addr) {... */\n  pop\n    /* \"contracts/EscrowERC20.sol\":123:803  contract EscrowERC20 {... */\n  jump(tag_6)\n    /* \"#utility.yul\":7:150   */\ntag_8:\n    /* \"#utility.yul\":64:69   */\n  0x00\n    /* \"#utility.yul\":95:101   */\n  dup2\n    /* \"#utility.yul\":89:102   */\n  mload\n    /* \"#utility.yul\":80:102   */\n  swap1\n  pop\n    /* \"#utility.yul\":111:144   */\n  tag_10\n    /* \"#utility.yul\":138:143   */\n  dup2\n    /* \"#utility.yul\":111:144   */\n  tag_11\n  jump\t// in\ntag_10:\n    /* \"#utility.yul\":7:150   */\n  swap3\n  swap2\n  pop\n  pop\n  jump\t// out\n    /* \"#utility.yul\":156:507   */\ntag_3:\n    /* \"#utility.yul\":226:232   */\n  0x00\n    /* \"#utility.yul\":275:277   */\n  0x20\n    /* \"#utility.yul\":263:272   */\n  dup3\n    /* \"#utility.yul\":254:261   */\n  dup5\n    /* \"#utility.yul\":250:273   */\n  sub\n    /* \"#utility.yul\":246:278   */\n  slt\n    /* \"#utility.yul\":243:362   */\n  iszero\n  tag_13\n  jumpi\n    /* \"#utility.yul\":281:360   */\n  tag_14\n  tag_15\n  jump\t// in\ntag_14:\n    /* \"#utility.yul\":243:362   */\ntag_13:\n    /* \"#utility.yul\":401:402   */\n  0x00\n    /* \"#utility.yul\":426:490   */\n  tag_16\n    /* \"#utility.yul\":482:489   */\n  dup5\n    /* \"#utility.yul\":473:479   */\n  dup3\n    /* \"#utility.yul\":462:471   */\n  dup6\n    /* \"#utility.yul\":458:480   */\n  add\n    /* \"#utility.yul\":426:490   */\n  tag_8\n  jump\t// in\ntag_16:\n    /* \"#utility.yul\":416:490   */\n  swap2\n  pop\n    /* \"#utility.yul\":372:500   */\n  pop\n    /* \"#utility.yul\":156:507   */\n  swap3\n  swap2\n  pop\n  pop\n  jump\t// out\n    /* \"#utility.yul\":594:690   */\ntag_19:\n    /* \"#utility.yul\":631:638   */\n  0x00\n    /* \"#utility.yul\":660:684   */\n  tag_21\n    /* \"#utility.yul\":678:683   */\n  dup3\n    /* \"#utility.yul\":660:684   */\n  tag_22\n  jump\t// in\ntag_21:\n    /* \"#utility.yul\":649:684   */\n  swap1\n  pop\n    /* \"#utility.yul\":594:690   */\n  swap2\n  swap1\n  pop\n  jump\t// out\n    /* \"#utility.yul\":696:822   */\ntag_22:\n    /* \"#utility.yul\":733:740   */\n  0x00\n    /* \"#utility.yul\":773:815   */\n  0xffffffffffffffffffffffffffffffffffffffff\n    /* \"#utility.yul\":766:771   */\n  dup3\n    /* \"#utility.yul\":762:816   */\n  and\n    /* \"#utility.yul\":751:816   */\n  swap1\n  pop\n    /* \"#utility.yul\":696:822   */\n  swap2\n  swap1\n  pop\n  jump\t// out\n    /* \"#utility.yul\":951:1068   */\ntag_15:\n    /* \"#utility.yul\":1060:1061   */\n  0x00\n    /* \"#utility.yul\":1057:1058   */\n  dup1\n    /* \"#utility.yul\":1050:1062   */\n  revert\n    /* \"#utility.yul\":1074:1196   */\ntag_11:\n    /* \"#utility.yul\":1147:1171   */\n  tag_28\n    /* \"#utility.yul\":1165:1170   */\n  dup2\n    /* \"#utility.yul\":1147:1171   */\n  tag_19\n  jump\t// in\ntag_28:\n    /* \"#utility.yul\":1140:1145   */\n  dup2\n    /* \"#utility.yul\":1137:1172   */\n  eq\n    /* \"#utility.yul\":1127:1190   */\n  tag_29\n  jumpi\n    /* \"#utility.yul\":1186:1187   */\n  0x00\n    /* \"#utility.yul\":1183:1184   */\n  dup1\n    /* \"#utility.yul\":1176:1188   */\n  revert\n    /* \"#utility.yul\":1127:1190   */\ntag_29:\n    /* \"#utility.yul\":1074:1196   */\n  pop\n  jump\t// out\n    /* \"contracts/EscrowERC20.sol\":123:803  contract EscrowERC20 {... */\ntag_6:\n  dataSize(sub_0)\n  dup1\n  dataOffset(sub_0)\n  0x00\n  codecopy\n  0x00\n  return\nstop\n\nsub_0: assembly {\n        /* \"contracts/EscrowERC20.sol\":123:803  contract EscrowERC20 {... */\n      mstore(0x40, 0x80)\n      jumpi(tag_1, lt(calldatasize, 0x04))\n      shr(0xe0, calldataload(0x00))\n      dup1\n      0x47e7ef24\n      eq\n      tag_2\n      jumpi\n      dup1\n      0xa6f2ae3a\n      eq\n      tag_3\n      jumpi\n      dup1\n      0xb203bb99\n      eq\n      tag_4\n      jumpi\n      dup1\n      0xfc0c546a\n      eq\n      tag_5\n      jumpi\n    tag_1:\n      0x00\n      dup1\n      revert\n        /* \"contracts/EscrowERC20.sol\":363:427  function deposit(address _receiver, uint _amount) public {... */\n    tag_2:\n      callvalue\n      dup1\n      iszero\n      tag_6\n      jumpi\n      0x00\n      dup1\n      revert\n    tag_6:\n      pop\n      tag_7\n      0x04\n      dup1\n      calldatasize\n      sub\n      dup2\n      add\n      swap1\n      tag_8\n      swap2\n      swap1\n      tag_9\n      jump\t// in\n    tag_8:\n      tag_10\n      jump\t// in\n    tag_7:\n      stop\n        /* \"contracts/EscrowERC20.sol\":433:800  function buy() payable public {... */\n    tag_3:\n      tag_11\n      tag_12\n      jump\t// in\n    tag_11:\n      stop\n        /* \"contracts/EscrowERC20.sol\":175:238  mapping(address => mapping (address => uint256)) public balance */\n    tag_4:\n      callvalue\n      dup1\n      iszero\n      tag_13\n      jumpi\n      0x00\n      dup1\n      revert\n    tag_13:\n      pop\n      tag_14\n      0x04\n      dup1\n      calldatasize\n      sub\n      dup2\n      add\n      swap1\n      tag_15\n      swap2\n      swap1\n      tag_16\n      jump\t// in\n    tag_15:\n      tag_17\n      jump\t// in\n    tag_14:\n      mload(0x40)\n      tag_18\n      swap2\n      swap1\n      tag_19\n      jump\t// in\n    tag_18:\n      mload(0x40)\n      dup1\n      swap2\n      sub\n      swap1\n      return\n        /* \"contracts/EscrowERC20.sol\":150:169  IERC20 public token */\n    tag_5:\n      callvalue\n      dup1\n      iszero\n      tag_20\n      jumpi\n      0x00\n      dup1\n      revert\n    tag_20:\n      pop\n      tag_21\n      tag_22\n      jump\t// in\n    tag_21:\n      mload(0x40)\n      tag_23\n      swap2\n      swap1\n      tag_24\n      jump\t// in\n    tag_23:\n      mload(0x40)\n      dup1\n      swap2\n      sub\n      swap1\n      return\n        /* \"contracts/EscrowERC20.sol\":363:427  function deposit(address _receiver, uint _amount) public {... */\n    tag_10:\n      pop\n      pop\n      jump\t// out\n        /* \"contracts/EscrowERC20.sol\":433:800  function buy() payable public {... */\n    tag_12:\n        /* \"contracts/EscrowERC20.sol\":473:492  uint256 amountTobuy */\n      0x00\n        /* \"contracts/EscrowERC20.sol\":495:504  msg.value */\n      callvalue\n        /* \"contracts/EscrowERC20.sol\":473:504  uint256 amountTobuy = msg.value */\n      swap1\n      pop\n        /* \"contracts/EscrowERC20.sol\":514:532  uint256 dexBalance */\n      0x00\n        /* \"contracts/EscrowERC20.sol\":535:540  token */\n      dup1\n      0x00\n      swap1\n      sload\n      swap1\n      0x0100\n      exp\n      swap1\n      div\n      0xffffffffffffffffffffffffffffffffffffffff\n      and\n        /* \"contracts/EscrowERC20.sol\":535:550  token.balanceOf */\n      0xffffffffffffffffffffffffffffffffffffffff\n      and\n      0x70a08231\n        /* \"contracts/EscrowERC20.sol\":559:563  this */\n      address\n        /* \"contracts/EscrowERC20.sol\":535:565  token.balanceOf(address(this)) */\n      mload(0x40)\n      dup3\n      0xffffffff\n      and\n      0xe0\n      shl\n      dup2\n      mstore\n      0x04\n      add\n      tag_27\n      swap2\n      swap1\n      tag_28\n      jump\t// in\n    tag_27:\n      0x20\n      mload(0x40)\n      dup1\n      dup4\n      sub\n      dup2\n      dup7\n      dup1\n      extcodesize\n      iszero\n      dup1\n      iszero\n      tag_29\n      jumpi\n      0x00\n      dup1\n      revert\n    tag_29:\n      pop\n      gas\n      staticcall\n      iszero\n      dup1\n      iszero\n      tag_31\n      jumpi\n      returndatasize\n      0x00\n      dup1\n      returndatacopy\n      revert(0x00, returndatasize)\n    tag_31:\n      pop\n      pop\n      pop\n      pop\n      mload(0x40)\n      returndatasize\n      not(0x1f)\n      0x1f\n      dup3\n      add\n      and\n      dup3\n      add\n      dup1\n      0x40\n      mstore\n      pop\n      dup2\n      add\n      swap1\n      tag_32\n      swap2\n      swap1\n      tag_33\n      jump\t// in\n    tag_32:\n        /* \"contracts/EscrowERC20.sol\":514:565  uint256 dexBalance = token.balanceOf(address(this)) */\n      swap1\n      pop\n        /* \"contracts/EscrowERC20.sol\":597:598  0 */\n      0x00\n        /* \"contracts/EscrowERC20.sol\":583:594  amountTobuy */\n      dup3\n        /* \"contracts/EscrowERC20.sol\":583:598  amountTobuy > 0 */\n      gt\n        /* \"contracts/EscrowERC20.sol\":575:630  require(amountTobuy > 0, \"You need to send some ether\") */\n      tag_34\n      jumpi\n      mload(0x40)\n      0x08c379a000000000000000000000000000000000000000000000000000000000\n      dup2\n      mstore\n      0x04\n      add\n      tag_35\n      swap1\n      tag_36\n      jump\t// in\n    tag_35:\n      mload(0x40)\n      dup1\n      swap2\n      sub\n      swap1\n      revert\n    tag_34:\n        /* \"contracts/EscrowERC20.sol\":663:673  dexBalance */\n      dup1\n        /* \"contracts/EscrowERC20.sol\":648:659  amountTobuy */\n      dup3\n        /* \"contracts/EscrowERC20.sol\":648:673  amountTobuy <= dexBalance */\n      gt\n      iszero\n        /* \"contracts/EscrowERC20.sol\":640:710  require(amountTobuy <= dexBalance, \"Not enough tokens in the reserve\") */\n      tag_37\n      jumpi\n      mload(0x40)\n      0x08c379a000000000000000000000000000000000000000000000000000000000\n      dup2\n      mstore\n      0x04\n      add\n      tag_38\n      swap1\n      tag_39\n      jump\t// in\n    tag_38:\n      mload(0x40)\n      dup1\n      swap2\n      sub\n      swap1\n      revert\n    tag_37:\n        /* \"contracts/EscrowERC20.sol\":720:725  token */\n      0x00\n      dup1\n      sload\n      swap1\n      0x0100\n      exp\n      swap1\n      div\n      0xffffffffffffffffffffffffffffffffffffffff\n      and\n        /* \"contracts/EscrowERC20.sol\":720:734  token.transfer */\n      0xffffffffffffffffffffffffffffffffffffffff\n      and\n      0xa9059cbb\n        /* \"contracts/EscrowERC20.sol\":735:745  msg.sender */\n      caller\n        /* \"contracts/EscrowERC20.sol\":747:758  amountTobuy */\n      dup5\n        /* \"contracts/EscrowERC20.sol\":720:759  token.transfer(msg.sender, amountTobuy) */\n      mload(0x40)\n      dup4\n      0xffffffff\n      and\n      0xe0\n      shl\n      dup2\n      mstore\n      0x04\n      add\n      tag_40\n      swap3\n      swap2\n      swap1\n      tag_41\n      jump\t// in\n    tag_40:\n      0x20\n      mload(0x40)\n      dup1\n      dup4\n      sub\n      dup2\n      0x00\n      dup8\n      dup1\n      extcodesize\n      iszero\n      dup1\n      iszero\n      tag_42\n      jumpi\n      0x00\n      dup1\n      revert\n    tag_42:\n      pop\n      gas\n      call\n      iszero\n      dup1\n      iszero\n      tag_44\n      jumpi\n      returndatasize\n      0x00\n      dup1\n      returndatacopy\n      revert(0x00, returndatasize)\n    tag_44:\n      pop\n      pop\n      pop\n      pop\n      mload(0x40)\n      returndatasize\n      not(0x1f)\n      0x1f\n      dup3\n      add\n      and\n      dup3\n      add\n      dup1\n      0x40\n      mstore\n      pop\n      dup2\n      add\n      swap1\n      tag_45\n      swap2\n      swap1\n      tag_46\n      jump\t// in\n    tag_45:\n      pop\n        /* \"contracts/EscrowERC20.sol\":774:793  Bought(amountTobuy) */\n      0x4e08ba899977cf7d4c2964bce71c6b9a7ef76ee5166a4c1249a1e08016e33ef1\n        /* \"contracts/EscrowERC20.sol\":781:792  amountTobuy */\n      dup3\n        /* \"contracts/EscrowERC20.sol\":774:793  Bought(amountTobuy) */\n      mload(0x40)\n      tag_47\n      swap2\n      swap1\n      tag_19\n      jump\t// in\n    tag_47:\n      mload(0x40)\n      dup1\n      swap2\n      sub\n      swap1\n      log1\n        /* \"contracts/EscrowERC20.sol\":463:800  {... */\n      pop\n      pop\n        /* \"contracts/EscrowERC20.sol\":433:800  function buy() payable public {... */\n      jump\t// out\n        /* \"contracts/EscrowERC20.sol\":175:238  mapping(address => mapping (address => uint256)) public balance */\n    tag_17:\n      mstore(0x20, 0x01)\n      dup2\n      0x00\n      mstore\n      mstore(0x20, keccak256(0x00, 0x40))\n      dup1\n      0x00\n      mstore\n      keccak256(0x00, 0x40)\n      0x00\n      swap2\n      pop\n      swap2\n      pop\n      pop\n      sload\n      dup2\n      jump\t// out\n        /* \"contracts/EscrowERC20.sol\":150:169  IERC20 public token */\n    tag_22:\n      0x00\n      dup1\n      sload\n      swap1\n      0x0100\n      exp\n      swap1\n      div\n      0xffffffffffffffffffffffffffffffffffffffff\n      and\n      dup2\n      jump\t// out\n        /* \"#utility.yul\":7:146   */\n    tag_49:\n        /* \"#utility.yul\":53:58   */\n      0x00\n        /* \"#utility.yul\":91:97   */\n      dup2\n        /* \"#utility.yul\":78:98   */\n      calldataload\n        /* \"#utility.yul\":69:98   */\n      swap1\n      pop\n        /* \"#utility.yul\":107:140   */\n      tag_51\n        /* \"#utility.yul\":134:139   */\n      dup2\n        /* \"#utility.yul\":107:140   */\n      tag_52\n      jump\t// in\n    tag_51:\n        /* \"#utility.yul\":7:146   */\n      swap3\n      swap2\n      pop\n      pop\n      jump\t// out\n        /* \"#utility.yul\":152:289   */\n    tag_53:\n        /* \"#utility.yul\":206:211   */\n      0x00\n        /* \"#utility.yul\":237:243   */\n      dup2\n        /* \"#utility.yul\":231:244   */\n      mload\n        /* \"#utility.yul\":222:244   */\n      swap1\n      pop\n        /* \"#utility.yul\":253:283   */\n      tag_55\n        /* \"#utility.yul\":277:282   */\n      dup2\n        /* \"#utility.yul\":253:283   */\n      tag_56\n      jump\t// in\n    tag_55:\n        /* \"#utility.yul\":152:289   */\n      swap3\n      swap2\n      pop\n      pop\n      jump\t// out\n        /* \"#utility.yul\":295:434   */\n    tag_57:\n        /* \"#utility.yul\":341:346   */\n      0x00\n        /* \"#utility.yul\":379:385   */\n      dup2\n        /* \"#utility.yul\":366:386   */\n      calldataload\n        /* \"#utility.yul\":357:386   */\n      swap1\n      pop\n        /* \"#utility.yul\":395:428   */\n      tag_59\n        /* \"#utility.yul\":422:427   */\n      dup2\n        /* \"#utility.yul\":395:428   */\n      tag_60\n      jump\t// in\n    tag_59:\n        /* \"#utility.yul\":295:434   */\n      swap3\n      swap2\n      pop\n      pop\n      jump\t// out\n        /* \"#utility.yul\":440:583   */\n    tag_61:\n        /* \"#utility.yul\":497:502   */\n      0x00\n        /* \"#utility.yul\":528:534   */\n      dup2\n        /* \"#utility.yul\":522:535   */\n      mload\n        /* \"#utility.yul\":513:535   */\n      swap1\n      pop\n        /* \"#utility.yul\":544:577   */\n      tag_63\n        /* \"#utility.yul\":571:576   */\n      dup2\n        /* \"#utility.yul\":544:577   */\n      tag_60\n      jump\t// in\n    tag_63:\n        /* \"#utility.yul\":440:583   */\n      swap3\n      swap2\n      pop\n      pop\n      jump\t// out\n        /* \"#utility.yul\":589:1063   */\n    tag_16:\n        /* \"#utility.yul\":657:663   */\n      0x00\n        /* \"#utility.yul\":665:671   */\n      dup1\n        /* \"#utility.yul\":714:716   */\n      0x40\n        /* \"#utility.yul\":702:711   */\n      dup4\n        /* \"#utility.yul\":693:700   */\n      dup6\n        /* \"#utility.yul\":689:712   */\n      sub\n        /* \"#utility.yul\":685:717   */\n      slt\n        /* \"#utility.yul\":682:801   */\n      iszero\n      tag_65\n      jumpi\n        /* \"#utility.yul\":720:799   */\n      tag_66\n      tag_67\n      jump\t// in\n    tag_66:\n        /* \"#utility.yul\":682:801   */\n    tag_65:\n        /* \"#utility.yul\":840:841   */\n      0x00\n        /* \"#utility.yul\":865:918   */\n      tag_68\n        /* \"#utility.yul\":910:917   */\n      dup6\n        /* \"#utility.yul\":901:907   */\n      dup3\n        /* \"#utility.yul\":890:899   */\n      dup7\n        /* \"#utility.yul\":886:908   */\n      add\n        /* \"#utility.yul\":865:918   */\n      tag_49\n      jump\t// in\n    tag_68:\n        /* \"#utility.yul\":855:918   */\n      swap3\n      pop\n        /* \"#utility.yul\":811:928   */\n      pop\n        /* \"#utility.yul\":967:969   */\n      0x20\n        /* \"#utility.yul\":993:1046   */\n      tag_69\n        /* \"#utility.yul\":1038:1045   */\n      dup6\n        /* \"#utility.yul\":1029:1035   */\n      dup3\n        /* \"#utility.yul\":1018:1027   */\n      dup7\n        /* \"#utility.yul\":1014:1036   */\n      add\n        /* \"#utility.yul\":993:1046   */\n      tag_49\n      jump\t// in\n    tag_69:\n        /* \"#utility.yul\":983:1046   */\n      swap2\n      pop\n        /* \"#utility.yul\":938:1056   */\n      pop\n        /* \"#utility.yul\":589:1063   */\n      swap3\n      pop\n      swap3\n      swap1\n      pop\n      jump\t// out\n        /* \"#utility.yul\":1069:1543   */\n    tag_9:\n        /* \"#utility.yul\":1137:1143   */\n      0x00\n        /* \"#utility.yul\":1145:1151   */\n      dup1\n        /* \"#utility.yul\":1194:1196   */\n      0x40\n        /* \"#utility.yul\":1182:1191   */\n      dup4\n        /* \"#utility.yul\":1173:1180   */\n      dup6\n        /* \"#utility.yul\":1169:1192   */\n      sub\n        /* \"#utility.yul\":1165:1197   */\n      slt\n        /* \"#utility.yul\":1162:1281   */\n      iszero\n      tag_71\n      jumpi\n        /* \"#utility.yul\":1200:1279   */\n      tag_72\n      tag_67\n      jump\t// in\n    tag_72:\n        /* \"#utility.yul\":1162:1281   */\n    tag_71:\n        /* \"#utility.yul\":1320:1321   */\n      0x00\n        /* \"#utility.yul\":1345:1398   */\n      tag_73\n        /* \"#utility.yul\":1390:1397   */\n      dup6\n        /* \"#utility.yul\":1381:1387   */\n      dup3\n        /* \"#utility.yul\":1370:1379   */\n      dup7\n        /* \"#utility.yul\":1366:1388   */\n      add\n        /* \"#utility.yul\":1345:1398   */\n      tag_49\n      jump\t// in\n    tag_73:\n        /* \"#utility.yul\":1335:1398   */\n      swap3\n      pop\n        /* \"#utility.yul\":1291:1408   */\n      pop\n        /* \"#utility.yul\":1447:1449   */\n      0x20\n        /* \"#utility.yul\":1473:1526   */\n      tag_74\n        /* \"#utility.yul\":1518:1525   */\n      dup6\n        /* \"#utility.yul\":1509:1515   */\n      dup3\n        /* \"#utility.yul\":1498:1507   */\n      dup7\n        /* \"#utility.yul\":1494:1516   */\n      add\n        /* \"#utility.yul\":1473:1526   */\n      tag_57\n      jump\t// in\n    tag_74:\n        /* \"#utility.yul\":1463:1526   */\n      swap2\n      pop\n        /* \"#utility.yul\":1418:1536   */\n      pop\n        /* \"#utility.yul\":1069:1543   */\n      swap3\n      pop\n      swap3\n      swap1\n      pop\n      jump\t// out\n        /* \"#utility.yul\":1549:1894   */\n    tag_46:\n        /* \"#utility.yul\":1616:1622   */\n      0x00\n        /* \"#utility.yul\":1665:1667   */\n      0x20\n        /* \"#utility.yul\":1653:1662   */\n      dup3\n        /* \"#utility.yul\":1644:1651   */\n      dup5\n        /* \"#utility.yul\":1640:1663   */\n      sub\n        /* \"#utility.yul\":1636:1668   */\n      slt\n        /* \"#utility.yul\":1633:1752   */\n      iszero\n      tag_76\n      jumpi\n        /* \"#utility.yul\":1671:1750   */\n      tag_77\n      tag_67\n      jump\t// in\n    tag_77:\n        /* \"#utility.yul\":1633:1752   */\n    tag_76:\n        /* \"#utility.yul\":1791:1792   */\n      0x00\n        /* \"#utility.yul\":1816:1877   */\n      tag_78\n        /* \"#utility.yul\":1869:1876   */\n      dup5\n        /* \"#utility.yul\":1860:1866   */\n      dup3\n        /* \"#utility.yul\":1849:1858   */\n      dup6\n        /* \"#utility.yul\":1845:1867   */\n      add\n        /* \"#utility.yul\":1816:1877   */\n      tag_53\n      jump\t// in\n    tag_78:\n        /* \"#utility.yul\":1806:1877   */\n      swap2\n      pop\n        /* \"#utility.yul\":1762:1887   */\n      pop\n        /* \"#utility.yul\":1549:1894   */\n      swap3\n      swap2\n      pop\n      pop\n      jump\t// out\n        /* \"#utility.yul\":1900:2251   */\n    tag_33:\n        /* \"#utility.yul\":1970:1976   */\n      0x00\n        /* \"#utility.yul\":2019:2021   */\n      0x20\n        /* \"#utility.yul\":2007:2016   */\n      dup3\n        /* \"#utility.yul\":1998:2005   */\n      dup5\n        /* \"#utility.yul\":1994:2017   */\n      sub\n        /* \"#utility.yul\":1990:2022   */\n      slt\n        /* \"#utility.yul\":1987:2106   */\n      iszero\n      tag_80\n      jumpi\n        /* \"#utility.yul\":2025:2104   */\n      tag_81\n      tag_67\n      jump\t// in\n    tag_81:\n        /* \"#utility.yul\":1987:2106   */\n    tag_80:\n        /* \"#utility.yul\":2145:2146   */\n      0x00\n        /* \"#utility.yul\":2170:2234   */\n      tag_82\n        /* \"#utility.yul\":2226:2233   */\n      dup5\n        /* \"#utility.yul\":2217:2223   */\n      dup3\n        /* \"#utility.yul\":2206:2215   */\n      dup6\n        /* \"#utility.yul\":2202:2224   */\n      add\n        /* \"#utility.yul\":2170:2234   */\n      tag_61\n      jump\t// in\n    tag_82:\n        /* \"#utility.yul\":2160:2234   */\n      swap2\n      pop\n        /* \"#utility.yul\":2116:2244   */\n      pop\n        /* \"#utility.yul\":1900:2251   */\n      swap3\n      swap2\n      pop\n      pop\n      jump\t// out\n        /* \"#utility.yul\":2257:2375   */\n    tag_83:\n        /* \"#utility.yul\":2344:2368   */\n      tag_85\n        /* \"#utility.yul\":2362:2367   */\n      dup2\n        /* \"#utility.yul\":2344:2368   */\n      tag_86\n      jump\t// in\n    tag_85:\n        /* \"#utility.yul\":2339:2342   */\n      dup3\n        /* \"#utility.yul\":2332:2369   */\n      mstore\n        /* \"#utility.yul\":2257:2375   */\n      pop\n      pop\n      jump\t// out\n        /* \"#utility.yul\":2381:2538   */\n    tag_87:\n        /* \"#utility.yul\":2481:2531   */\n      tag_89\n        /* \"#utility.yul\":2525:2530   */\n      dup2\n        /* \"#utility.yul\":2481:2531   */\n      tag_90\n      jump\t// in\n    tag_89:\n        /* \"#utility.yul\":2476:2479   */\n      dup3\n        /* \"#utility.yul\":2469:2532   */\n      mstore\n        /* \"#utility.yul\":2381:2538   */\n      pop\n      pop\n      jump\t// out\n        /* \"#utility.yul\":2544:2910   */\n    tag_91:\n        /* \"#utility.yul\":2686:2689   */\n      0x00\n        /* \"#utility.yul\":2707:2774   */\n      tag_93\n        /* \"#utility.yul\":2771:2773   */\n      0x20\n        /* \"#utility.yul\":2766:2769   */\n      dup4\n        /* \"#utility.yul\":2707:2774   */\n      tag_94\n      jump\t// in\n    tag_93:\n        /* \"#utility.yul\":2700:2774   */\n      swap2\n      pop\n        /* \"#utility.yul\":2783:2876   */\n      tag_95\n        /* \"#utility.yul\":2872:2875   */\n      dup3\n        /* \"#utility.yul\":2783:2876   */\n      tag_96\n      jump\t// in\n    tag_95:\n        /* \"#utility.yul\":2901:2903   */\n      0x20\n        /* \"#utility.yul\":2896:2899   */\n      dup3\n        /* \"#utility.yul\":2892:2904   */\n      add\n        /* \"#utility.yul\":2885:2904   */\n      swap1\n      pop\n        /* \"#utility.yul\":2544:2910   */\n      swap2\n      swap1\n      pop\n      jump\t// out\n        /* \"#utility.yul\":2916:3282   */\n    tag_97:\n        /* \"#utility.yul\":3058:3061   */\n      0x00\n        /* \"#utility.yul\":3079:3146   */\n      tag_99\n        /* \"#utility.yul\":3143:3145   */\n      0x1b\n        /* \"#utility.yul\":3138:3141   */\n      dup4\n        /* \"#utility.yul\":3079:3146   */\n      tag_94\n      jump\t// in\n    tag_99:\n        /* \"#utility.yul\":3072:3146   */\n      swap2\n      pop\n        /* \"#utility.yul\":3155:3248   */\n      tag_100\n        /* \"#utility.yul\":3244:3247   */\n      dup3\n        /* \"#utility.yul\":3155:3248   */\n      tag_101\n      jump\t// in\n    tag_100:\n        /* \"#utility.yul\":3273:3275   */\n      0x20\n        /* \"#utility.yul\":3268:3271   */\n      dup3\n        /* \"#utility.yul\":3264:3276   */\n      add\n        /* \"#utility.yul\":3257:3276   */\n      swap1\n      pop\n        /* \"#utility.yul\":2916:3282   */\n      swap2\n      swap1\n      pop\n      jump\t// out\n        /* \"#utility.yul\":3288:3406   */\n    tag_102:\n        /* \"#utility.yul\":3375:3399   */\n      tag_104\n        /* \"#utility.yul\":3393:3398   */\n      dup2\n        /* \"#utility.yul\":3375:3399   */\n      tag_105\n      jump\t// in\n    tag_104:\n        /* \"#utility.yul\":3370:3373   */\n      dup3\n        /* \"#utility.yul\":3363:3400   */\n      mstore\n        /* \"#utility.yul\":3288:3406   */\n      pop\n      pop\n      jump\t// out\n        /* \"#utility.yul\":3412:3634   */\n    tag_28:\n        /* \"#utility.yul\":3505:3509   */\n      0x00\n        /* \"#utility.yul\":3543:3545   */\n      0x20\n        /* \"#utility.yul\":3532:3541   */\n      dup3\n        /* \"#utility.yul\":3528:3546   */\n      add\n        /* \"#utility.yul\":3520:3546   */\n      swap1\n      pop\n        /* \"#utility.yul\":3556:3627   */\n      tag_107\n        /* \"#utility.yul\":3624:3625   */\n      0x00\n        /* \"#utility.yul\":3613:3622   */\n      dup4\n        /* \"#utility.yul\":3609:3626   */\n      add\n        /* \"#utility.yul\":3600:3606   */\n      dup5\n        /* \"#utility.yul\":3556:3627   */\n      tag_83\n      jump\t// in\n    tag_107:\n        /* \"#utility.yul\":3412:3634   */\n      swap3\n      swap2\n      pop\n      pop\n      jump\t// out\n        /* \"#utility.yul\":3640:3972   */\n    tag_41:\n        /* \"#utility.yul\":3761:3765   */\n      0x00\n        /* \"#utility.yul\":3799:3801   */\n      0x40\n        /* \"#utility.yul\":3788:3797   */\n      dup3\n        /* \"#utility.yul\":3784:3802   */\n      add\n        /* \"#utility.yul\":3776:3802   */\n      swap1\n      pop\n        /* \"#utility.yul\":3812:3883   */\n      tag_109\n        /* \"#utility.yul\":3880:3881   */\n      0x00\n        /* \"#utility.yul\":3869:3878   */\n      dup4\n        /* \"#utility.yul\":3865:3882   */\n      add\n        /* \"#utility.yul\":3856:3862   */\n      dup6\n        /* \"#utility.yul\":3812:3883   */\n      tag_83\n      jump\t// in\n    tag_109:\n        /* \"#utility.yul\":3893:3965   */\n      tag_110\n        /* \"#utility.yul\":3961:3963   */\n      0x20\n        /* \"#utility.yul\":3950:3959   */\n      dup4\n        /* \"#utility.yul\":3946:3964   */\n      add\n        /* \"#utility.yul\":3937:3943   */\n      dup5\n        /* \"#utility.yul\":3893:3965   */\n      tag_102\n      jump\t// in\n    tag_110:\n        /* \"#utility.yul\":3640:3972   */\n      swap4\n      swap3\n      pop\n      pop\n      pop\n      jump\t// out\n        /* \"#utility.yul\":3978:4226   */\n    tag_24:\n        /* \"#utility.yul\":4084:4088   */\n      0x00\n        /* \"#utility.yul\":4122:4124   */\n      0x20\n        /* \"#utility.yul\":4111:4120   */\n      dup3\n        /* \"#utility.yul\":4107:4125   */\n      add\n        /* \"#utility.yul\":4099:4125   */\n      swap1\n      pop\n        /* \"#utility.yul\":4135:4219   */\n      tag_112\n        /* \"#utility.yul\":4216:4217   */\n      0x00\n        /* \"#utility.yul\":4205:4214   */\n      dup4\n        /* \"#utility.yul\":4201:4218   */\n      add\n        /* \"#utility.yul\":4192:4198   */\n      dup5\n        /* \"#utility.yul\":4135:4219   */\n      tag_87\n      jump\t// in\n    tag_112:\n        /* \"#utility.yul\":3978:4226   */\n      swap3\n      swap2\n      pop\n      pop\n      jump\t// out\n        /* \"#utility.yul\":4232:4651   */\n    tag_39:\n        /* \"#utility.yul\":4398:4402   */\n      0x00\n        /* \"#utility.yul\":4436:4438   */\n      0x20\n        /* \"#utility.yul\":4425:4434   */\n      dup3\n        /* \"#utility.yul\":4421:4439   */\n      add\n        /* \"#utility.yul\":4413:4439   */\n      swap1\n      pop\n        /* \"#utility.yul\":4485:4494   */\n      dup2\n        /* \"#utility.yul\":4479:4483   */\n      dup2\n        /* \"#utility.yul\":4475:4495   */\n      sub\n        /* \"#utility.yul\":4471:4472   */\n      0x00\n        /* \"#utility.yul\":4460:4469   */\n      dup4\n        /* \"#utility.yul\":4456:4473   */\n      add\n        /* \"#utility.yul\":4449:4496   */\n      mstore\n        /* \"#utility.yul\":4513:4644   */\n      tag_114\n        /* \"#utility.yul\":4639:4643   */\n      dup2\n        /* \"#utility.yul\":4513:4644   */\n      tag_91\n      jump\t// in\n    tag_114:\n        /* \"#utility.yul\":4505:4644   */\n      swap1\n      pop\n        /* \"#utility.yul\":4232:4651   */\n      swap2\n      swap1\n      pop\n      jump\t// out\n        /* \"#utility.yul\":4657:5076   */\n    tag_36:\n        /* \"#utility.yul\":4823:4827   */\n      0x00\n        /* \"#utility.yul\":4861:4863   */\n      0x20\n        /* \"#utility.yul\":4850:4859   */\n      dup3\n        /* \"#utility.yul\":4846:4864   */\n      add\n        /* \"#utility.yul\":4838:4864   */\n      swap1\n      pop\n        /* \"#utility.yul\":4910:4919   */\n      dup2\n        /* \"#utility.yul\":4904:4908   */\n      dup2\n        /* \"#utility.yul\":4900:4920   */\n      sub\n        /* \"#utility.yul\":4896:4897   */\n      0x00\n        /* \"#utility.yul\":4885:4894   */\n      dup4\n        /* \"#utility.yul\":4881:4898   */\n      add\n        /* \"#utility.yul\":4874:4921   */\n      mstore\n        /* \"#utility.yul\":4938:5069   */\n      tag_116\n        /* \"#utility.yul\":5064:5068   */\n      dup2\n        /* \"#utility.yul\":4938:5069   */\n      tag_97\n      jump\t// in\n    tag_116:\n        /* \"#utility.yul\":4930:5069   */\n      swap1\n      pop\n        /* \"#utility.yul\":4657:5076   */\n      swap2\n      swap1\n      pop\n      jump\t// out\n        /* \"#utility.yul\":5082:5304   */\n    tag_19:\n        /* \"#utility.yul\":5175:5179   */\n      0x00\n        /* \"#utility.yul\":5213:5215   */\n      0x20\n        /* \"#utility.yul\":5202:5211   */\n      dup3\n        /* \"#utility.yul\":5198:5216   */\n      add\n        /* \"#utility.yul\":5190:5216   */\n      swap1\n      pop\n        /* \"#utility.yul\":5226:5297   */\n      tag_118\n        /* \"#utility.yul\":5294:5295   */\n      0x00\n        /* \"#utility.yul\":5283:5292   */\n      dup4\n        /* \"#utility.yul\":5279:5296   */\n      add\n        /* \"#utility.yul\":5270:5276   */\n      dup5\n        /* \"#utility.yul\":5226:5297   */\n      tag_102\n      jump\t// in\n    tag_118:\n        /* \"#utility.yul\":5082:5304   */\n      swap3\n      swap2\n      pop\n      pop\n      jump\t// out\n        /* \"#utility.yul\":5391:5560   */\n    tag_94:\n        /* \"#utility.yul\":5475:5486   */\n      0x00\n        /* \"#utility.yul\":5509:5515   */\n      dup3\n        /* \"#utility.yul\":5504:5507   */\n      dup3\n        /* \"#utility.yul\":5497:5516   */\n      mstore\n        /* \"#utility.yul\":5549:5553   */\n      0x20\n        /* \"#utility.yul\":5544:5547   */\n      dup3\n        /* \"#utility.yul\":5540:5554   */\n      add\n        /* \"#utility.yul\":5525:5554   */\n      swap1\n      pop\n        /* \"#utility.yul\":5391:5560   */\n      swap3\n      swap2\n      pop\n      pop\n      jump\t// out\n        /* \"#utility.yul\":5566:5662   */\n    tag_86:\n        /* \"#utility.yul\":5603:5610   */\n      0x00\n        /* \"#utility.yul\":5632:5656   */\n      tag_123\n        /* \"#utility.yul\":5650:5655   */\n      dup3\n        /* \"#utility.yul\":5632:5656   */\n      tag_124\n      jump\t// in\n    tag_123:\n        /* \"#utility.yul\":5621:5656   */\n      swap1\n      pop\n        /* \"#utility.yul\":5566:5662   */\n      swap2\n      swap1\n      pop\n      jump\t// out\n        /* \"#utility.yul\":5668:5758   */\n    tag_125:\n        /* \"#utility.yul\":5702:5709   */\n      0x00\n        /* \"#utility.yul\":5745:5750   */\n      dup2\n        /* \"#utility.yul\":5738:5751   */\n      iszero\n        /* \"#utility.yul\":5731:5752   */\n      iszero\n        /* \"#utility.yul\":5720:5752   */\n      swap1\n      pop\n        /* \"#utility.yul\":5668:5758   */\n      swap2\n      swap1\n      pop\n      jump\t// out\n        /* \"#utility.yul\":5764:5890   */\n    tag_124:\n        /* \"#utility.yul\":5801:5808   */\n      0x00\n        /* \"#utility.yul\":5841:5883   */\n      0xffffffffffffffffffffffffffffffffffffffff\n        /* \"#utility.yul\":5834:5839   */\n      dup3\n        /* \"#utility.yul\":5830:5884   */\n      and\n        /* \"#utility.yul\":5819:5884   */\n      swap1\n      pop\n        /* \"#utility.yul\":5764:5890   */\n      swap2\n      swap1\n      pop\n      jump\t// out\n        /* \"#utility.yul\":5896:5973   */\n    tag_105:\n        /* \"#utility.yul\":5933:5940   */\n      0x00\n        /* \"#utility.yul\":5962:5967   */\n      dup2\n        /* \"#utility.yul\":5951:5967   */\n      swap1\n      pop\n        /* \"#utility.yul\":5896:5973   */\n      swap2\n      swap1\n      pop\n      jump\t// out\n        /* \"#utility.yul\":5979:6118   */\n    tag_90:\n        /* \"#utility.yul\":6042:6051   */\n      0x00\n        /* \"#utility.yul\":6075:6112   */\n      tag_130\n        /* \"#utility.yul\":6106:6111   */\n      dup3\n        /* \"#utility.yul\":6075:6112   */\n      tag_131\n      jump\t// in\n    tag_130:\n        /* \"#utility.yul\":6062:6112   */\n      swap1\n      pop\n        /* \"#utility.yul\":5979:6118   */\n      swap2\n      swap1\n      pop\n      jump\t// out\n        /* \"#utility.yul\":6124:6250   */\n    tag_131:\n        /* \"#utility.yul\":6174:6183   */\n      0x00\n        /* \"#utility.yul\":6207:6244   */\n      tag_133\n        /* \"#utility.yul\":6238:6243   */\n      dup3\n        /* \"#utility.yul\":6207:6244   */\n      tag_134\n      jump\t// in\n    tag_133:\n        /* \"#utility.yul\":6194:6244   */\n      swap1\n      pop\n        /* \"#utility.yul\":6124:6250   */\n      swap2\n      swap1\n      pop\n      jump\t// out\n        /* \"#utility.yul\":6256:6369   */\n    tag_134:\n        /* \"#utility.yul\":6306:6315   */\n      0x00\n        /* \"#utility.yul\":6339:6363   */\n      tag_136\n        /* \"#utility.yul\":6357:6362   */\n      dup3\n        /* \"#utility.yul\":6339:6363   */\n      tag_124\n      jump\t// in\n    tag_136:\n        /* \"#utility.yul\":6326:6363   */\n      swap1\n      pop\n        /* \"#utility.yul\":6256:6369   */\n      swap2\n      swap1\n      pop\n      jump\t// out\n        /* \"#utility.yul\":6498:6615   */\n    tag_67:\n        /* \"#utility.yul\":6607:6608   */\n      0x00\n        /* \"#utility.yul\":6604:6605   */\n      dup1\n        /* \"#utility.yul\":6597:6609   */\n      revert\n        /* \"#utility.yul\":6621:6803   */\n    tag_96:\n        /* \"#utility.yul\":6761:6795   */\n      0x4e6f7420656e6f75676820746f6b656e7320696e207468652072657365727665\n        /* \"#utility.yul\":6757:6758   */\n      0x00\n        /* \"#utility.yul\":6749:6755   */\n      dup3\n        /* \"#utility.yul\":6745:6759   */\n      add\n        /* \"#utility.yul\":6738:6796   */\n      mstore\n        /* \"#utility.yul\":6621:6803   */\n      pop\n      jump\t// out\n        /* \"#utility.yul\":6809:6986   */\n    tag_101:\n        /* \"#utility.yul\":6949:6978   */\n      0x596f75206e65656420746f2073656e6420736f6d652065746865720000000000\n        /* \"#utility.yul\":6945:6946   */\n      0x00\n        /* \"#utility.yul\":6937:6943   */\n      dup3\n        /* \"#utility.yul\":6933:6947   */\n      add\n        /* \"#utility.yul\":6926:6979   */\n      mstore\n        /* \"#utility.yul\":6809:6986   */\n      pop\n      jump\t// out\n        /* \"#utility.yul\":6992:7114   */\n    tag_52:\n        /* \"#utility.yul\":7065:7089   */\n      tag_143\n        /* \"#utility.yul\":7083:7088   */\n      dup2\n        /* \"#utility.yul\":7065:7089   */\n      tag_86\n      jump\t// in\n    tag_143:\n        /* \"#utility.yul\":7058:7063   */\n      dup2\n        /* \"#utility.yul\":7055:7090   */\n      eq\n        /* \"#utility.yul\":7045:7108   */\n      tag_144\n      jumpi\n        /* \"#utility.yul\":7104:7105   */\n      0x00\n        /* \"#utility.yul\":7101:7102   */\n      dup1\n        /* \"#utility.yul\":7094:7106   */\n      revert\n        /* \"#utility.yul\":7045:7108   */\n    tag_144:\n        /* \"#utility.yul\":6992:7114   */\n      pop\n      jump\t// out\n        /* \"#utility.yul\":7120:7236   */\n    tag_56:\n        /* \"#utility.yul\":7190:7211   */\n      tag_146\n        /* \"#utility.yul\":7205:7210   */\n      dup2\n        /* \"#utility.yul\":7190:7211   */\n      tag_125\n      jump\t// in\n    tag_146:\n        /* \"#utility.yul\":7183:7188   */\n      dup2\n        /* \"#utility.yul\":7180:7212   */\n      eq\n        /* \"#utility.yul\":7170:7230   */\n      tag_147\n      jumpi\n        /* \"#utility.yul\":7226:7227   */\n      0x00\n        /* \"#utility.yul\":7223:7224   */\n      dup1\n        /* \"#utility.yul\":7216:7228   */\n      revert\n        /* \"#utility.yul\":7170:7230   */\n    tag_147:\n        /* \"#utility.yul\":7120:7236   */\n      pop\n      jump\t// out\n        /* \"#utility.yul\":7242:7364   */\n    tag_60:\n        /* \"#utility.yul\":7315:7339   */\n      tag_149\n        /* \"#utility.yul\":7333:7338   */\n      dup2\n        /* \"#utility.yul\":7315:7339   */\n      tag_105\n      jump\t// in\n    tag_149:\n        /* \"#utility.yul\":7308:7313   */\n      dup2\n        /* \"#utility.yul\":7305:7340   */\n      eq\n        /* \"#utility.yul\":7295:7358   */\n      tag_150\n      jumpi\n        /* \"#utility.yul\":7354:7355   */\n      0x00\n        /* \"#utility.yul\":7351:7352   */\n      dup1\n        /* \"#utility.yul\":7344:7356   */\n      revert\n        /* \"#utility.yul\":7295:7358   */\n    tag_150:\n        /* \"#utility.yul\":7242:7364   */\n      pop\n      jump\t// out\n\n    auxdata: 0xa26469706673582212209614bf023a0480c903e6ad3e12f0993d92c76b895067d98d970ce8cdb688b7cd64736f6c63430008070033\n}\n",
				"bytecode": {
					"linkReferences": {},
					"object": "608060405234801561001057600080fd5b506040516108213803806108218339818101604052810190610032919061008d565b806000806101000a81548173ffffffffffffffffffffffffffffffffffffffff021916908373ffffffffffffffffffffffffffffffffffffffff16021790555050610108565b600081519050610087816100f1565b92915050565b6000602082840312156100a3576100a26100ec565b5b60006100b184828501610078565b91505092915050565b60006100c5826100cc565b9050919050565b600073ffffffffffffffffffffffffffffffffffffffff82169050919050565b600080fd5b6100fa816100ba565b811461010557600080fd5b50565b61070a806101176000396000f3fe60806040526004361061003f5760003560e01c806347e7ef2414610044578063a6f2ae3a1461006d578063b203bb9914610077578063fc0c546a146100b4575b600080fd5b34801561005057600080fd5b5061006b600480360381019061006691906103e2565b6100df565b005b6100756100e3565b005b34801561008357600080fd5b5061009e600480360381019061009991906103a2565b610305565b6040516100ab919061058e565b60405180910390f35b3480156100c057600080fd5b506100c961032a565b6040516100d69190610533565b60405180910390f35b5050565b600034905060008060009054906101000a900473ffffffffffffffffffffffffffffffffffffffff1673ffffffffffffffffffffffffffffffffffffffff166370a08231306040518263ffffffff1660e01b815260040161014491906104ef565b60206040518083038186803b15801561015c57600080fd5b505afa158015610170573d6000803e3d6000fd5b505050506040513d601f19601f82011682018060405250810190610194919061044f565b9050600082116101d9576040517f08c379a00000000000000000000000000000000000000000000000000000000081526004016101d09061056e565b60405180910390fd5b8082111561021c576040517f08c379a00000000000000000000000000000000000000000000000000000000081526004016102139061054e565b60405180910390fd5b60008054906101000a900473ffffffffffffffffffffffffffffffffffffffff1673ffffffffffffffffffffffffffffffffffffffff1663a9059cbb33846040518363ffffffff1660e01b815260040161027792919061050a565b602060405180830381600087803b15801561029157600080fd5b505af11580156102a5573d6000803e3d6000fd5b505050506040513d601f19601f820116820180604052508101906102c99190610422565b507f4e08ba899977cf7d4c2964bce71c6b9a7ef76ee5166a4c1249a1e08016e33ef1826040516102f9919061058e565b60405180910390a15050565b6001602052816000526040600020602052806000526040600020600091509150505481565b60008054906101000a900473ffffffffffffffffffffffffffffffffffffffff1681565b60008135905061035d8161068f565b92915050565b600081519050610372816106a6565b92915050565b600081359050610387816106bd565b92915050565b60008151905061039c816106bd565b92915050565b600080604083850312156103b9576103b8610638565b5b60006103c78582860161034e565b92505060206103d88582860161034e565b9150509250929050565b600080604083850312156103f9576103f8610638565b5b60006104078582860161034e565b925050602061041885828601610378565b9150509250929050565b60006020828403121561043857610437610638565b5b600061044684828501610363565b91505092915050565b60006020828403121561046557610464610638565b5b60006104738482850161038d565b91505092915050565b610485816105ba565b82525050565b61049481610602565b82525050565b60006104a76020836105a9565b91506104b28261063d565b602082019050919050565b60006104ca601b836105a9565b91506104d582610666565b602082019050919050565b6104e9816105f8565b82525050565b6000602082019050610504600083018461047c565b92915050565b600060408201905061051f600083018561047c565b61052c60208301846104e0565b9392505050565b6000602082019050610548600083018461048b565b92915050565b600060208201905081810360008301526105678161049a565b9050919050565b60006020820190508181036000830152610587816104bd565b9050919050565b60006020820190506105a360008301846104e0565b92915050565b600082825260208201905092915050565b60006105c5826105d8565b9050919050565b60008115159050919050565b600073ffffffffffffffffffffffffffffffffffffffff82169050919050565b6000819050919050565b600061060d82610614565b9050919050565b600061061f82610626565b9050919050565b6000610631826105d8565b9050919050565b600080fd5b7f4e6f7420656e6f75676820746f6b656e7320696e207468652072657365727665600082015250565b7f596f75206e65656420746f2073656e6420736f6d652065746865720000000000600082015250565b610698816105ba565b81146106a357600080fd5b50565b6106af816105cc565b81146106ba57600080fd5b50565b6106c6816105f8565b81146106d157600080fd5b5056fea26469706673582212209614bf023a0480c903e6ad3e12f0993d92c76b895067d98d970ce8cdb688b7cd64736f6c63430008070033",
					"opcodes": "PUSH1 0x80 PUSH1 0x40 MSTORE CALLVALUE DUP1 ISZERO PUSH2 0x10 JUMPI PUSH1 0x0 DUP1 REVERT JUMPDEST POP PUSH1 0x40 MLOAD PUSH2 0x821 CODESIZE SUB DUP1 PUSH2 0x821 DUP4 CODECOPY DUP2 DUP2 ADD PUSH1 0x40 MSTORE DUP2 ADD SWAP1 PUSH2 0x32 SWAP2 SWAP1 PUSH2 0x8D JUMP JUMPDEST DUP1 PUSH1 0x0 DUP1 PUSH2 0x100 EXP DUP2 SLOAD DUP2 PUSH20 0xFFFFFFFFFFFFFFFFFFFFFFFFFFFFFFFFFFFFFFFF MUL NOT AND SWAP1 DUP4 PUSH20 0xFFFFFFFFFFFFFFFFFFFFFFFFFFFFFFFFFFFFFFFF AND MUL OR SWAP1 SSTORE POP POP PUSH2 0x108 JUMP JUMPDEST PUSH1 0x0 DUP2 MLOAD SWAP1 POP PUSH2 0x87 DUP2 PUSH2 0xF1 JUMP JUMPDEST SWAP3 SWAP2 POP POP JUMP JUMPDEST PUSH1 0x0 PUSH1 0x20 DUP3 DUP5 SUB SLT ISZERO PUSH2 0xA3 JUMPI PUSH2 0xA2 PUSH2 0xEC JUMP JUMPDEST JUMPDEST PUSH1 0x0 PUSH2 0xB1 DUP5 DUP3 DUP6 ADD PUSH2 0x78 JUMP JUMPDEST SWAP2 POP POP SWAP3 SWAP2 POP POP JUMP JUMPDEST PUSH1 0x0 PUSH2 0xC5 DUP3 PUSH2 0xCC JUMP JUMPDEST SWAP1 POP SWAP2 SWAP1 POP JUMP JUMPDEST PUSH1 0x0 PUSH20 0xFFFFFFFFFFFFFFFFFFFFFFFFFFFFFFFFFFFFFFFF DUP3 AND SWAP1 POP SWAP2 SWAP1 POP JUMP JUMPDEST PUSH1 0x0 DUP1 REVERT JUMPDEST PUSH2 0xFA DUP2 PUSH2 0xBA JUMP JUMPDEST DUP2 EQ PUSH2 0x105 JUMPI PUSH1 0x0 DUP1 REVERT JUMPDEST POP JUMP JUMPDEST PUSH2 0x70A DUP1 PUSH2 0x117 PUSH1 0x0 CODECOPY PUSH1 0x0 RETURN INVALID PUSH1 0x80 PUSH1 0x40 MSTORE PUSH1 0x4 CALLDATASIZE LT PUSH2 0x3F JUMPI PUSH1 0x0 CALLDATALOAD PUSH1 0xE0 SHR DUP1 PUSH4 0x47E7EF24 EQ PUSH2 0x44 JUMPI DUP1 PUSH4 0xA6F2AE3A EQ PUSH2 0x6D JUMPI DUP1 PUSH4 0xB203BB99 EQ PUSH2 0x77 JUMPI DUP1 PUSH4 0xFC0C546A EQ PUSH2 0xB4 JUMPI JUMPDEST PUSH1 0x0 DUP1 REVERT JUMPDEST CALLVALUE DUP1 ISZERO PUSH2 0x50 JUMPI PUSH1 0x0 DUP1 REVERT JUMPDEST POP PUSH2 0x6B PUSH1 0x4 DUP1 CALLDATASIZE SUB DUP2 ADD SWAP1 PUSH2 0x66 SWAP2 SWAP1 PUSH2 0x3E2 JUMP JUMPDEST PUSH2 0xDF JUMP JUMPDEST STOP JUMPDEST PUSH2 0x75 PUSH2 0xE3 JUMP JUMPDEST STOP JUMPDEST CALLVALUE DUP1 ISZERO PUSH2 0x83 JUMPI PUSH1 0x0 DUP1 REVERT JUMPDEST POP PUSH2 0x9E PUSH1 0x4 DUP1 CALLDATASIZE SUB DUP2 ADD SWAP1 PUSH2 0x99 SWAP2 SWAP1 PUSH2 0x3A2 JUMP JUMPDEST PUSH2 0x305 JUMP JUMPDEST PUSH1 0x40 MLOAD PUSH2 0xAB SWAP2 SWAP1 PUSH2 0x58E JUMP JUMPDEST PUSH1 0x40 MLOAD DUP1 SWAP2 SUB SWAP1 RETURN JUMPDEST CALLVALUE DUP1 ISZERO PUSH2 0xC0 JUMPI PUSH1 0x0 DUP1 REVERT JUMPDEST POP PUSH2 0xC9 PUSH2 0x32A JUMP JUMPDEST PUSH1 0x40 MLOAD PUSH2 0xD6 SWAP2 SWAP1 PUSH2 0x533 JUMP JUMPDEST PUSH1 0x40 MLOAD DUP1 SWAP2 SUB SWAP1 RETURN JUMPDEST POP POP JUMP JUMPDEST PUSH1 0x0 CALLVALUE SWAP1 POP PUSH1 0x0 DUP1 PUSH1 0x0 SWAP1 SLOAD SWAP1 PUSH2 0x100 EXP SWAP1 DIV PUSH20 0xFFFFFFFFFFFFFFFFFFFFFFFFFFFFFFFFFFFFFFFF AND PUSH20 0xFFFFFFFFFFFFFFFFFFFFFFFFFFFFFFFFFFFFFFFF AND PUSH4 0x70A08231 ADDRESS PUSH1 0x40 MLOAD DUP3 PUSH4 0xFFFFFFFF AND PUSH1 0xE0 SHL DUP2 MSTORE PUSH1 0x4 ADD PUSH2 0x144 SWAP2 SWAP1 PUSH2 0x4EF JUMP JUMPDEST PUSH1 0x20 PUSH1 0x40 MLOAD DUP1 DUP4 SUB DUP2 DUP7 DUP1 EXTCODESIZE ISZERO DUP1 ISZERO PUSH2 0x15C JUMPI PUSH1 0x0 DUP1 REVERT JUMPDEST POP GAS STATICCALL ISZERO DUP1 ISZERO PUSH2 0x170 JUMPI RETURNDATASIZE PUSH1 0x0 DUP1 RETURNDATACOPY RETURNDATASIZE PUSH1 0x0 REVERT JUMPDEST POP POP POP POP PUSH1 0x40 MLOAD RETURNDATASIZE PUSH1 0x1F NOT PUSH1 0x1F DUP3 ADD AND DUP3 ADD DUP1 PUSH1 0x40 MSTORE POP DUP2 ADD SWAP1 PUSH2 0x194 SWAP2 SWAP1 PUSH2 0x44F JUMP JUMPDEST SWAP1 POP PUSH1 0x0 DUP3 GT PUSH2 0x1D9 JUMPI PUSH1 0x40 MLOAD PUSH32 0x8C379A000000000000000000000000000000000000000000000000000000000 DUP2 MSTORE PUSH1 0x4 ADD PUSH2 0x1D0 SWAP1 PUSH2 0x56E JUMP JUMPDEST PUSH1 0x40 MLOAD DUP1 SWAP2 SUB SWAP1 REVERT JUMPDEST DUP1 DUP3 GT ISZERO PUSH2 0x21C JUMPI PUSH1 0x40 MLOAD PUSH32 0x8C379A000000000000000000000000000000000000000000000000000000000 DUP2 MSTORE PUSH1 0x4 ADD PUSH2 0x213 SWAP1 PUSH2 0x54E JUMP JUMPDEST PUSH1 0x40 MLOAD DUP1 SWAP2 SUB SWAP1 REVERT JUMPDEST PUSH1 0x0 DUP1 SLOAD SWAP1 PUSH2 0x100 EXP SWAP1 DIV PUSH20 0xFFFFFFFFFFFFFFFFFFFFFFFFFFFFFFFFFFFFFFFF AND PUSH20 0xFFFFFFFFFFFFFFFFFFFFFFFFFFFFFFFFFFFFFFFF AND PUSH4 0xA9059CBB CALLER DUP5 PUSH1 0x40 MLOAD DUP4 PUSH4 0xFFFFFFFF AND PUSH1 0xE0 SHL DUP2 MSTORE PUSH1 0x4 ADD PUSH2 0x277 SWAP3 SWAP2 SWAP1 PUSH2 0x50A JUMP JUMPDEST PUSH1 0x20 PUSH1 0x40 MLOAD DUP1 DUP4 SUB DUP2 PUSH1 0x0 DUP8 DUP1 EXTCODESIZE ISZERO DUP1 ISZERO PUSH2 0x291 JUMPI PUSH1 0x0 DUP1 REVERT JUMPDEST POP GAS CALL ISZERO DUP1 ISZERO PUSH2 0x2A5 JUMPI RETURNDATASIZE PUSH1 0x0 DUP1 RETURNDATACOPY RETURNDATASIZE PUSH1 0x0 REVERT JUMPDEST POP POP POP POP PUSH1 0x40 MLOAD RETURNDATASIZE PUSH1 0x1F NOT PUSH1 0x1F DUP3 ADD AND DUP3 ADD DUP1 PUSH1 0x40 MSTORE POP DUP2 ADD SWAP1 PUSH2 0x2C9 SWAP2 SWAP1 PUSH2 0x422 JUMP JUMPDEST POP PUSH32 0x4E08BA899977CF7D4C2964BCE71C6B9A7EF76EE5166A4C1249A1E08016E33EF1 DUP3 PUSH1 0x40 MLOAD PUSH2 0x2F9 SWAP2 SWAP1 PUSH2 0x58E JUMP JUMPDEST PUSH1 0x40 MLOAD DUP1 SWAP2 SUB SWAP1 LOG1 POP POP JUMP JUMPDEST PUSH1 0x1 PUSH1 0x20 MSTORE DUP2 PUSH1 0x0 MSTORE PUSH1 0x40 PUSH1 0x0 KECCAK256 PUSH1 0x20 MSTORE DUP1 PUSH1 0x0 MSTORE PUSH1 0x40 PUSH1 0x0 KECCAK256 PUSH1 0x0 SWAP2 POP SWAP2 POP POP SLOAD DUP2 JUMP JUMPDEST PUSH1 0x0 DUP1 SLOAD SWAP1 PUSH2 0x100 EXP SWAP1 DIV PUSH20 0xFFFFFFFFFFFFFFFFFFFFFFFFFFFFFFFFFFFFFFFF AND DUP2 JUMP JUMPDEST PUSH1 0x0 DUP2 CALLDATALOAD SWAP1 POP PUSH2 0x35D DUP2 PUSH2 0x68F JUMP JUMPDEST SWAP3 SWAP2 POP POP JUMP JUMPDEST PUSH1 0x0 DUP2 MLOAD SWAP1 POP PUSH2 0x372 DUP2 PUSH2 0x6A6 JUMP JUMPDEST SWAP3 SWAP2 POP POP JUMP JUMPDEST PUSH1 0x0 DUP2 CALLDATALOAD SWAP1 POP PUSH2 0x387 DUP2 PUSH2 0x6BD JUMP JUMPDEST SWAP3 SWAP2 POP POP JUMP JUMPDEST PUSH1 0x0 DUP2 MLOAD SWAP1 POP PUSH2 0x39C DUP2 PUSH2 0x6BD JUMP JUMPDEST SWAP3 SWAP2 POP POP JUMP JUMPDEST PUSH1 0x0 DUP1 PUSH1 0x40 DUP4 DUP6 SUB SLT ISZERO PUSH2 0x3B9 JUMPI PUSH2 0x3B8 PUSH2 0x638 JUMP JUMPDEST JUMPDEST PUSH1 0x0 PUSH2 0x3C7 DUP6 DUP3 DUP7 ADD PUSH2 0x34E JUMP JUMPDEST SWAP3 POP POP PUSH1 0x20 PUSH2 0x3D8 DUP6 DUP3 DUP7 ADD PUSH2 0x34E JUMP JUMPDEST SWAP2 POP POP SWAP3 POP SWAP3 SWAP1 POP JUMP JUMPDEST PUSH1 0x0 DUP1 PUSH1 0x40 DUP4 DUP6 SUB SLT ISZERO PUSH2 0x3F9 JUMPI PUSH2 0x3F8 PUSH2 0x638 JUMP JUMPDEST JUMPDEST PUSH1 0x0 PUSH2 0x407 DUP6 DUP3 DUP7 ADD PUSH2 0x34E JUMP JUMPDEST SWAP3 POP POP PUSH1 0x20 PUSH2 0x418 DUP6 DUP3 DUP7 ADD PUSH2 0x378 JUMP JUMPDEST SWAP2 POP POP SWAP3 POP SWAP3 SWAP1 POP JUMP JUMPDEST PUSH1 0x0 PUSH1 0x20 DUP3 DUP5 SUB SLT ISZERO PUSH2 0x438 JUMPI PUSH2 0x437 PUSH2 0x638 JUMP JUMPDEST JUMPDEST PUSH1 0x0 PUSH2 0x446 DUP5 DUP3 DUP6 ADD PUSH2 0x363 JUMP JUMPDEST SWAP2 POP POP SWAP3 SWAP2 POP POP JUMP JUMPDEST PUSH1 0x0 PUSH1 0x20 DUP3 DUP5 SUB SLT ISZERO PUSH2 0x465 JUMPI PUSH2 0x464 PUSH2 0x638 JUMP JUMPDEST JUMPDEST PUSH1 0x0 PUSH2 0x473 DUP5 DUP3 DUP6 ADD PUSH2 0x38D JUMP JUMPDEST SWAP2 POP POP SWAP3 SWAP2 POP POP JUMP JUMPDEST PUSH2 0x485 DUP2 PUSH2 0x5BA JUMP JUMPDEST DUP3 MSTORE POP POP JUMP JUMPDEST PUSH2 0x494 DUP2 PUSH2 0x602 JUMP JUMPDEST DUP3 MSTORE POP POP JUMP JUMPDEST PUSH1 0x0 PUSH2 0x4A7 PUSH1 0x20 DUP4 PUSH2 0x5A9 JUMP JUMPDEST SWAP2 POP PUSH2 0x4B2 DUP3 PUSH2 0x63D JUMP JUMPDEST PUSH1 0x20 DUP3 ADD SWAP1 POP SWAP2 SWAP1 POP JUMP JUMPDEST PUSH1 0x0 PUSH2 0x4CA PUSH1 0x1B DUP4 PUSH2 0x5A9 JUMP JUMPDEST SWAP2 POP PUSH2 0x4D5 DUP3 PUSH2 0x666 JUMP JUMPDEST PUSH1 0x20 DUP3 ADD SWAP1 POP SWAP2 SWAP1 POP JUMP JUMPDEST PUSH2 0x4E9 DUP2 PUSH2 0x5F8 JUMP JUMPDEST DUP3 MSTORE POP POP JUMP JUMPDEST PUSH1 0x0 PUSH1 0x20 DUP3 ADD SWAP1 POP PUSH2 0x504 PUSH1 0x0 DUP4 ADD DUP5 PUSH2 0x47C JUMP JUMPDEST SWAP3 SWAP2 POP POP JUMP JUMPDEST PUSH1 0x0 PUSH1 0x40 DUP3 ADD SWAP1 POP PUSH2 0x51F PUSH1 0x0 DUP4 ADD DUP6 PUSH2 0x47C JUMP JUMPDEST PUSH2 0x52C PUSH1 0x20 DUP4 ADD DUP5 PUSH2 0x4E0 JUMP JUMPDEST SWAP4 SWAP3 POP POP POP JUMP JUMPDEST PUSH1 0x0 PUSH1 0x20 DUP3 ADD SWAP1 POP PUSH2 0x548 PUSH1 0x0 DUP4 ADD DUP5 PUSH2 0x48B JUMP JUMPDEST SWAP3 SWAP2 POP POP JUMP JUMPDEST PUSH1 0x0 PUSH1 0x20 DUP3 ADD SWAP1 POP DUP2 DUP2 SUB PUSH1 0x0 DUP4 ADD MSTORE PUSH2 0x567 DUP2 PUSH2 0x49A JUMP JUMPDEST SWAP1 POP SWAP2 SWAP1 POP JUMP JUMPDEST PUSH1 0x0 PUSH1 0x20 DUP3 ADD SWAP1 POP DUP2 DUP2 SUB PUSH1 0x0 DUP4 ADD MSTORE PUSH2 0x587 DUP2 PUSH2 0x4BD JUMP JUMPDEST SWAP1 POP SWAP2 SWAP1 POP JUMP JUMPDEST PUSH1 0x0 PUSH1 0x20 DUP3 ADD SWAP1 POP PUSH2 0x5A3 PUSH1 0x0 DUP4 ADD DUP5 PUSH2 0x4E0 JUMP JUMPDEST SWAP3 SWAP2 POP POP JUMP JUMPDEST PUSH1 0x0 DUP3 DUP3 MSTORE PUSH1 0x20 DUP3 ADD SWAP1 POP SWAP3 SWAP2 POP POP JUMP JUMPDEST PUSH1 0x0 PUSH2 0x5C5 DUP3 PUSH2 0x5D8 JUMP JUMPDEST SWAP1 POP SWAP2 SWAP1 POP JUMP JUMPDEST PUSH1 0x0 DUP2 ISZERO ISZERO SWAP1 POP SWAP2 SWAP1 POP JUMP JUMPDEST PUSH1 0x0 PUSH20 0xFFFFFFFFFFFFFFFFFFFFFFFFFFFFFFFFFFFFFFFF DUP3 AND SWAP1 POP SWAP2 SWAP1 POP JUMP JUMPDEST PUSH1 0x0 DUP2 SWAP1 POP SWAP2 SWAP1 POP JUMP JUMPDEST PUSH1 0x0 PUSH2 0x60D DUP3 PUSH2 0x614 JUMP JUMPDEST SWAP1 POP SWAP2 SWAP1 POP JUMP JUMPDEST PUSH1 0x0 PUSH2 0x61F DUP3 PUSH2 0x626 JUMP JUMPDEST SWAP1 POP SWAP2 SWAP1 POP JUMP JUMPDEST PUSH1 0x0 PUSH2 0x631 DUP3 PUSH2 0x5D8 JUMP JUMPDEST SWAP1 POP SWAP2 SWAP1 POP JUMP JUMPDEST PUSH1 0x0 DUP1 REVERT JUMPDEST PUSH32 0x4E6F7420656E6F75676820746F6B656E7320696E207468652072657365727665 PUSH1 0x0 DUP3 ADD MSTORE POP JUMP JUMPDEST PUSH32 0x596F75206E65656420746F2073656E6420736F6D652065746865720000000000 PUSH1 0x0 DUP3 ADD MSTORE POP JUMP JUMPDEST PUSH2 0x698 DUP2 PUSH2 0x5BA JUMP JUMPDEST DUP2 EQ PUSH2 0x6A3 JUMPI PUSH1 0x0 DUP1 REVERT JUMPDEST POP JUMP JUMPDEST PUSH2 0x6AF DUP2 PUSH2 0x5CC JUMP JUMPDEST DUP2 EQ PUSH2 0x6BA JUMPI PUSH1 0x0 DUP1 REVERT JUMPDEST POP JUMP JUMPDEST PUSH2 0x6C6 DUP2 PUSH2 0x5F8 JUMP JUMPDEST DUP2 EQ PUSH2 0x6D1 JUMPI PUSH1 0x0 DUP1 REVERT JUMPDEST POP JUMP INVALID LOG2 PUSH5 0x6970667358 0x22 SLT KECCAK256 SWAP7 EQ 0xBF MUL GASPRICE DIV DUP1 0xC9 SUB 0xE6 0xAD RETURNDATACOPY SLT CREATE SWAP10 RETURNDATASIZE SWAP3 0xC7 PUSH12 0x895067D98D970CE8CDB688B7 0xCD PUSH5 0x736F6C6343 STOP ADDMOD SMOD STOP CALLER "
				},
				"gasEstimates": {
					"creation": {
						"codeDepositCost": "360400",
						"executionCost": "infinite",
						"totalCost": "infinite"
					},
					"external": {
						"balance(address,address)": "infinite",
						"buy()": "infinite",
						"deposit(address,uint256)": "606",
						"token()": "2641"
					}
				},
				"methodIdentifiers": {
					"balance(address,address)": "b203bb99",
					"buy()": "a6f2ae3a",
					"deposit(address,uint256)": "47e7ef24",
					"token()": "fc0c546a"
				}
			},
			"storageLayout": {
				"storage": [
					{
						"astId": 83,
						"contract": "contracts/EscrowERC20.sol:EscrowERC20",
						"label": "token",
						"offset": 0,
						"slot": "0",
						"type": "t_contract(IERC20)77"
					},
					{
						"astId": 89,
						"contract": "contracts/EscrowERC20.sol:EscrowERC20",
						"label": "balance",
						"offset": 0,
						"slot": "1",
						"type": "t_mapping(t_address,t_mapping(t_address,t_uint256))"
					}
				],
				"types": {
					"t_address": {
						"encoding": "inplace",
						"label": "address",
						"numberOfBytes": "20"
					},
					"t_contract(IERC20)77": {
						"encoding": "inplace",
						"label": "contract IERC20",
						"numberOfBytes": "20"
					},
					"t_mapping(t_address,t_mapping(t_address,t_uint256))": {
						"encoding": "mapping",
						"key": "t_address",
						"label": "mapping(address => mapping(address => uint256))",
						"numberOfBytes": "32",
						"value": "t_mapping(t_address,t_uint256)"
					},
					"t_mapping(t_address,t_uint256)": {
						"encoding": "mapping",
						"key": "t_address",
						"label": "mapping(address => uint256)",
						"numberOfBytes": "32",
						"value": "t_uint256"
					},
					"t_uint256": {
						"encoding": "inplace",
						"label": "uint256",
						"numberOfBytes": "32"
					}
				}
			},
			"userdoc": {
				"kind": "user",
				"methods": {},
				"version": 1
			}
		}
	}
}