{
	"contracts/Escrow.sol": {
		"Escrow": {
			"abi": [
				{
					"anonymous": false,
					"inputs": [
						{
							"indexed": false,
							"internalType": "address",
							"name": "receiver",
							"type": "address"
						},
						{
							"indexed": false,
							"internalType": "uint256",
							"name": "amount",
							"type": "uint256"
						}
					],
					"name": "Withdraw",
					"type": "event"
				},
				{
					"stateMutability": "payable",
					"type": "fallback"
				},
				{
					"inputs": [
						{
							"internalType": "address",
							"name": "",
							"type": "address"
						}
					],
					"name": "balance",
					"outputs": [
						{
							"internalType": "uint256",
							"name": "",
							"type": "uint256"
						}
					],
					"stateMutability": "view",
					"type": "function"
				},
				{
					"inputs": [
						{
							"internalType": "address payable",
							"name": "_receiver",
							"type": "address"
						}
					],
					"name": "deposit",
					"outputs": [],
					"stateMutability": "payable",
					"type": "function"
				},
				{
					"inputs": [],
					"name": "withdraw",
					"outputs": [],
					"stateMutability": "nonpayable",
					"type": "function"
				}
			],
			"devdoc": {
				"kind": "dev",
				"methods": {},
				"version": 1
			},
			"evm": {
				"assembly": "    /* \"contracts/Escrow.sol\":65:579  contract Escrow {... */\n  mstore(0x40, 0x80)\n  callvalue\n  dup1\n  iszero\n  tag_1\n  jumpi\n  0x00\n  dup1\n  revert\ntag_1:\n  pop\n  dataSize(sub_0)\n  dup1\n  dataOffset(sub_0)\n  0x00\n  codecopy\n  0x00\n  return\nstop\n\nsub_0: assembly {\n        /* \"contracts/Escrow.sol\":65:579  contract Escrow {... */\n      mstore(0x40, 0x80)\n      jumpi(tag_1, lt(calldatasize, 0x04))\n      shr(0xe0, calldataload(0x00))\n      dup1\n      0x3ccfd60b\n      eq\n      tag_3\n      jumpi\n      dup1\n      0xe3d670d7\n      eq\n      tag_4\n      jumpi\n      dup1\n      0xf340fa01\n      eq\n      tag_5\n      jumpi\n      jump(tag_2)\n    tag_1:\n    tag_2:\n        /* \"contracts/Escrow.sol\":490:518  deposit(payable(msg.sender)) */\n      tag_8\n        /* \"contracts/Escrow.sol\":506:516  msg.sender */\n      caller\n        /* \"contracts/Escrow.sol\":490:497  deposit */\n      tag_9\n        /* \"contracts/Escrow.sol\":490:518  deposit(payable(msg.sender)) */\n      jump\t// in\n    tag_8:\n        /* \"contracts/Escrow.sol\":65:579  contract Escrow {... */\n      stop\n        /* \"contracts/Escrow.sol\":247:446  function withdraw() public {... */\n    tag_3:\n      callvalue\n      dup1\n      iszero\n      tag_10\n      jumpi\n      0x00\n      dup1\n      revert\n    tag_10:\n      pop\n      tag_11\n      tag_12\n      jump\t// in\n    tag_11:\n      stop\n        /* \"contracts/Escrow.sol\":87:127  mapping (address => uint) public balance */\n    tag_4:\n      callvalue\n      dup1\n      iszero\n      tag_13\n      jumpi\n      0x00\n      dup1\n      revert\n    tag_13:\n      pop\n      tag_14\n      0x04\n      dup1\n      calldatasize\n      sub\n      dup2\n      add\n      swap1\n      tag_15\n      swap2\n      swap1\n      tag_16\n      jump\t// in\n    tag_15:\n      tag_17\n      jump\t// in\n    tag_14:\n      mload(0x40)\n      tag_18\n      swap2\n      swap1\n      tag_19\n      jump\t// in\n    tag_18:\n      mload(0x40)\n      dup1\n      swap2\n      sub\n      swap1\n      return\n        /* \"contracts/Escrow.sol\":134:241  function deposit(address payable _receiver) public payable {... */\n    tag_5:\n      tag_20\n      0x04\n      dup1\n      calldatasize\n      sub\n      dup2\n      add\n      swap1\n      tag_21\n      swap2\n      swap1\n      tag_22\n      jump\t// in\n    tag_21:\n      tag_9\n      jump\t// in\n    tag_20:\n      stop\n    tag_9:\n        /* \"contracts/Escrow.sol\":225:234  msg.value */\n      callvalue\n        /* \"contracts/Escrow.sol\":203:210  balance */\n      0x00\n        /* \"contracts/Escrow.sol\":203:221  balance[_receiver] */\n      dup1\n        /* \"contracts/Escrow.sol\":211:220  _receiver */\n      dup4\n        /* \"contracts/Escrow.sol\":203:221  balance[_receiver] */\n      0xffffffffffffffffffffffffffffffffffffffff\n      and\n      0xffffffffffffffffffffffffffffffffffffffff\n      and\n      dup2\n      mstore\n      0x20\n      add\n      swap1\n      dup2\n      mstore\n      0x20\n      add\n      0x00\n      keccak256\n      0x00\n        /* \"contracts/Escrow.sol\":203:234  balance[_receiver] += msg.value */\n      dup3\n      dup3\n      sload\n      tag_24\n      swap2\n      swap1\n      tag_25\n      jump\t// in\n    tag_24:\n      swap3\n      pop\n      pop\n      dup2\n      swap1\n      sstore\n      pop\n        /* \"contracts/Escrow.sol\":134:241  function deposit(address payable _receiver) public payable {... */\n      pop\n      jump\t// out\n        /* \"contracts/Escrow.sol\":247:446  function withdraw() public {... */\n    tag_12:\n        /* \"contracts/Escrow.sol\":284:295  uint amount */\n      0x00\n        /* \"contracts/Escrow.sol\":298:305  balance */\n      dup1\n        /* \"contracts/Escrow.sol\":298:317  balance[msg.sender] */\n      0x00\n        /* \"contracts/Escrow.sol\":306:316  msg.sender */\n      caller\n        /* \"contracts/Escrow.sol\":298:317  balance[msg.sender] */\n      0xffffffffffffffffffffffffffffffffffffffff\n      and\n      0xffffffffffffffffffffffffffffffffffffffff\n      and\n      dup2\n      mstore\n      0x20\n      add\n      swap1\n      dup2\n      mstore\n      0x20\n      add\n      0x00\n      keccak256\n      sload\n        /* \"contracts/Escrow.sol\":284:317  uint amount = balance[msg.sender] */\n      swap1\n      pop\n        /* \"contracts/Escrow.sol\":349:350  0 */\n      0x00\n        /* \"contracts/Escrow.sol\":327:334  balance */\n      dup1\n        /* \"contracts/Escrow.sol\":327:346  balance[msg.sender] */\n      0x00\n        /* \"contracts/Escrow.sol\":335:345  msg.sender */\n      caller\n        /* \"contracts/Escrow.sol\":327:346  balance[msg.sender] */\n      0xffffffffffffffffffffffffffffffffffffffff\n      and\n      0xffffffffffffffffffffffffffffffffffffffff\n      and\n      dup2\n      mstore\n      0x20\n      add\n      swap1\n      dup2\n      mstore\n      0x20\n      add\n      0x00\n      keccak256\n        /* \"contracts/Escrow.sol\":327:350  balance[msg.sender] = 0 */\n      dup2\n      swap1\n      sstore\n      pop\n        /* \"contracts/Escrow.sol\":368:378  msg.sender */\n      caller\n        /* \"contracts/Escrow.sol\":360:388  payable(msg.sender).transfer */\n      0xffffffffffffffffffffffffffffffffffffffff\n      and\n        /* \"contracts/Escrow.sol\":360:396  payable(msg.sender).transfer(amount) */\n      0x08fc\n        /* \"contracts/Escrow.sol\":389:395  amount */\n      dup3\n        /* \"contracts/Escrow.sol\":360:396  payable(msg.sender).transfer(amount) */\n      swap1\n      dup2\n      iszero\n      mul\n      swap1\n      mload(0x40)\n      0x00\n      mload(0x40)\n      dup1\n      dup4\n      sub\n      dup2\n      dup6\n      dup9\n      dup9\n      call\n      swap4\n      pop\n      pop\n      pop\n      pop\n      iszero\n      dup1\n      iszero\n      tag_28\n      jumpi\n      returndatasize\n      0x00\n      dup1\n      returndatacopy\n      revert(0x00, returndatasize)\n    tag_28:\n      pop\n        /* \"contracts/Escrow.sol\":411:439  Withdraw(msg.sender, amount) */\n      0x884edad9ce6fa2440d8a54cc123490eb96d2768479d49ff9c7366125a9424364\n        /* \"contracts/Escrow.sol\":420:430  msg.sender */\n      caller\n        /* \"contracts/Escrow.sol\":432:438  amount */\n      dup3\n        /* \"contracts/Escrow.sol\":411:439  Withdraw(msg.sender, amount) */\n      mload(0x40)\n      tag_29\n      swap3\n      swap2\n      swap1\n      tag_30\n      jump\t// in\n    tag_29:\n      mload(0x40)\n      dup1\n      swap2\n      sub\n      swap1\n      log1\n        /* \"contracts/Escrow.sol\":247:446  function withdraw() public {... */\n      pop\n      jump\t// out\n        /* \"contracts/Escrow.sol\":87:127  mapping (address => uint) public balance */\n    tag_17:\n      mstore(0x20, 0x00)\n      dup1\n      0x00\n      mstore\n      keccak256(0x00, 0x40)\n      0x00\n      swap2\n      pop\n      swap1\n      pop\n      sload\n      dup2\n      jump\t// out\n        /* \"#utility.yul\":7:146   */\n    tag_32:\n        /* \"#utility.yul\":53:58   */\n      0x00\n        /* \"#utility.yul\":91:97   */\n      dup2\n        /* \"#utility.yul\":78:98   */\n      calldataload\n        /* \"#utility.yul\":69:98   */\n      swap1\n      pop\n        /* \"#utility.yul\":107:140   */\n      tag_34\n        /* \"#utility.yul\":134:139   */\n      dup2\n        /* \"#utility.yul\":107:140   */\n      tag_35\n      jump\t// in\n    tag_34:\n        /* \"#utility.yul\":59:146   */\n      swap3\n      swap2\n      pop\n      pop\n      jump\t// out\n        /* \"#utility.yul\":152:307   */\n    tag_36:\n        /* \"#utility.yul\":206:211   */\n      0x00\n        /* \"#utility.yul\":244:250   */\n      dup2\n        /* \"#utility.yul\":231:251   */\n      calldataload\n        /* \"#utility.yul\":222:251   */\n      swap1\n      pop\n        /* \"#utility.yul\":260:301   */\n      tag_38\n        /* \"#utility.yul\":295:300   */\n      dup2\n        /* \"#utility.yul\":260:301   */\n      tag_39\n      jump\t// in\n    tag_38:\n        /* \"#utility.yul\":212:307   */\n      swap3\n      swap2\n      pop\n      pop\n      jump\t// out\n        /* \"#utility.yul\":313:575   */\n    tag_16:\n        /* \"#utility.yul\":372:378   */\n      0x00\n        /* \"#utility.yul\":421:423   */\n      0x20\n        /* \"#utility.yul\":409:418   */\n      dup3\n        /* \"#utility.yul\":400:407   */\n      dup5\n        /* \"#utility.yul\":396:419   */\n      sub\n        /* \"#utility.yul\":392:424   */\n      slt\n        /* \"#utility.yul\":389:391   */\n      iszero\n      tag_41\n      jumpi\n        /* \"#utility.yul\":437:438   */\n      0x00\n        /* \"#utility.yul\":434:435   */\n      dup1\n        /* \"#utility.yul\":427:439   */\n      revert\n        /* \"#utility.yul\":389:391   */\n    tag_41:\n        /* \"#utility.yul\":480:481   */\n      0x00\n        /* \"#utility.yul\":505:558   */\n      tag_42\n        /* \"#utility.yul\":550:557   */\n      dup5\n        /* \"#utility.yul\":541:547   */\n      dup3\n        /* \"#utility.yul\":530:539   */\n      dup6\n        /* \"#utility.yul\":526:548   */\n      add\n        /* \"#utility.yul\":505:558   */\n      tag_32\n      jump\t// in\n    tag_42:\n        /* \"#utility.yul\":495:558   */\n      swap2\n      pop\n        /* \"#utility.yul\":451:568   */\n      pop\n        /* \"#utility.yul\":379:575   */\n      swap3\n      swap2\n      pop\n      pop\n      jump\t// out\n        /* \"#utility.yul\":581:859   */\n    tag_22:\n        /* \"#utility.yul\":648:654   */\n      0x00\n        /* \"#utility.yul\":697:699   */\n      0x20\n        /* \"#utility.yul\":685:694   */\n      dup3\n        /* \"#utility.yul\":676:683   */\n      dup5\n        /* \"#utility.yul\":672:695   */\n      sub\n        /* \"#utility.yul\":668:700   */\n      slt\n        /* \"#utility.yul\":665:667   */\n      iszero\n      tag_44\n      jumpi\n        /* \"#utility.yul\":713:714   */\n      0x00\n        /* \"#utility.yul\":710:711   */\n      dup1\n        /* \"#utility.yul\":703:715   */\n      revert\n        /* \"#utility.yul\":665:667   */\n    tag_44:\n        /* \"#utility.yul\":756:757   */\n      0x00\n        /* \"#utility.yul\":781:842   */\n      tag_45\n        /* \"#utility.yul\":834:841   */\n      dup5\n        /* \"#utility.yul\":825:831   */\n      dup3\n        /* \"#utility.yul\":814:823   */\n      dup6\n        /* \"#utility.yul\":810:832   */\n      add\n        /* \"#utility.yul\":781:842   */\n      tag_36\n      jump\t// in\n    tag_45:\n        /* \"#utility.yul\":771:842   */\n      swap2\n      pop\n        /* \"#utility.yul\":727:852   */\n      pop\n        /* \"#utility.yul\":655:859   */\n      swap3\n      swap2\n      pop\n      pop\n      jump\t// out\n        /* \"#utility.yul\":865:983   */\n    tag_46:\n        /* \"#utility.yul\":952:976   */\n      tag_48\n        /* \"#utility.yul\":970:975   */\n      dup2\n        /* \"#utility.yul\":952:976   */\n      tag_49\n      jump\t// in\n    tag_48:\n        /* \"#utility.yul\":947:950   */\n      dup3\n        /* \"#utility.yul\":940:977   */\n      mstore\n        /* \"#utility.yul\":930:983   */\n      pop\n      pop\n      jump\t// out\n        /* \"#utility.yul\":989:1107   */\n    tag_50:\n        /* \"#utility.yul\":1076:1100   */\n      tag_52\n        /* \"#utility.yul\":1094:1099   */\n      dup2\n        /* \"#utility.yul\":1076:1100   */\n      tag_53\n      jump\t// in\n    tag_52:\n        /* \"#utility.yul\":1071:1074   */\n      dup3\n        /* \"#utility.yul\":1064:1101   */\n      mstore\n        /* \"#utility.yul\":1054:1107   */\n      pop\n      pop\n      jump\t// out\n        /* \"#utility.yul\":1113:1445   */\n    tag_30:\n        /* \"#utility.yul\":1234:1238   */\n      0x00\n        /* \"#utility.yul\":1272:1274   */\n      0x40\n        /* \"#utility.yul\":1261:1270   */\n      dup3\n        /* \"#utility.yul\":1257:1275   */\n      add\n        /* \"#utility.yul\":1249:1275   */\n      swap1\n      pop\n        /* \"#utility.yul\":1285:1356   */\n      tag_55\n        /* \"#utility.yul\":1353:1354   */\n      0x00\n        /* \"#utility.yul\":1342:1351   */\n      dup4\n        /* \"#utility.yul\":1338:1355   */\n      add\n        /* \"#utility.yul\":1329:1335   */\n      dup6\n        /* \"#utility.yul\":1285:1356   */\n      tag_46\n      jump\t// in\n    tag_55:\n        /* \"#utility.yul\":1366:1438   */\n      tag_56\n        /* \"#utility.yul\":1434:1436   */\n      0x20\n        /* \"#utility.yul\":1423:1432   */\n      dup4\n        /* \"#utility.yul\":1419:1437   */\n      add\n        /* \"#utility.yul\":1410:1416   */\n      dup5\n        /* \"#utility.yul\":1366:1438   */\n      tag_50\n      jump\t// in\n    tag_56:\n        /* \"#utility.yul\":1239:1445   */\n      swap4\n      swap3\n      pop\n      pop\n      pop\n      jump\t// out\n        /* \"#utility.yul\":1451:1673   */\n    tag_19:\n        /* \"#utility.yul\":1544:1548   */\n      0x00\n        /* \"#utility.yul\":1582:1584   */\n      0x20\n        /* \"#utility.yul\":1571:1580   */\n      dup3\n        /* \"#utility.yul\":1567:1585   */\n      add\n        /* \"#utility.yul\":1559:1585   */\n      swap1\n      pop\n        /* \"#utility.yul\":1595:1666   */\n      tag_58\n        /* \"#utility.yul\":1663:1664   */\n      0x00\n        /* \"#utility.yul\":1652:1661   */\n      dup4\n        /* \"#utility.yul\":1648:1665   */\n      add\n        /* \"#utility.yul\":1639:1645   */\n      dup5\n        /* \"#utility.yul\":1595:1666   */\n      tag_50\n      jump\t// in\n    tag_58:\n        /* \"#utility.yul\":1549:1673   */\n      swap3\n      swap2\n      pop\n      pop\n      jump\t// out\n        /* \"#utility.yul\":1679:1984   */\n    tag_25:\n        /* \"#utility.yul\":1719:1722   */\n      0x00\n        /* \"#utility.yul\":1738:1758   */\n      tag_60\n        /* \"#utility.yul\":1756:1757   */\n      dup3\n        /* \"#utility.yul\":1738:1758   */\n      tag_53\n      jump\t// in\n    tag_60:\n        /* \"#utility.yul\":1733:1758   */\n      swap2\n      pop\n        /* \"#utility.yul\":1772:1792   */\n      tag_61\n        /* \"#utility.yul\":1790:1791   */\n      dup4\n        /* \"#utility.yul\":1772:1792   */\n      tag_53\n      jump\t// in\n    tag_61:\n        /* \"#utility.yul\":1767:1792   */\n      swap3\n      pop\n        /* \"#utility.yul\":1926:1927   */\n      dup3\n        /* \"#utility.yul\":1858:1924   */\n      0xffffffffffffffffffffffffffffffffffffffffffffffffffffffffffffffff\n        /* \"#utility.yul\":1854:1928   */\n      sub\n        /* \"#utility.yul\":1851:1852   */\n      dup3\n        /* \"#utility.yul\":1848:1929   */\n      gt\n        /* \"#utility.yul\":1845:1847   */\n      iszero\n      tag_62\n      jumpi\n        /* \"#utility.yul\":1932:1950   */\n      tag_63\n      tag_64\n      jump\t// in\n    tag_63:\n        /* \"#utility.yul\":1845:1847   */\n    tag_62:\n        /* \"#utility.yul\":1976:1977   */\n      dup3\n        /* \"#utility.yul\":1973:1974   */\n      dup3\n        /* \"#utility.yul\":1969:1978   */\n      add\n        /* \"#utility.yul\":1962:1978   */\n      swap1\n      pop\n        /* \"#utility.yul\":1723:1984   */\n      swap3\n      swap2\n      pop\n      pop\n      jump\t// out\n        /* \"#utility.yul\":1990:2086   */\n    tag_49:\n        /* \"#utility.yul\":2027:2034   */\n      0x00\n        /* \"#utility.yul\":2056:2080   */\n      tag_66\n        /* \"#utility.yul\":2074:2079   */\n      dup3\n        /* \"#utility.yul\":2056:2080   */\n      tag_67\n      jump\t// in\n    tag_66:\n        /* \"#utility.yul\":2045:2080   */\n      swap1\n      pop\n        /* \"#utility.yul\":2035:2086   */\n      swap2\n      swap1\n      pop\n      jump\t// out\n        /* \"#utility.yul\":2092:2196   */\n    tag_68:\n        /* \"#utility.yul\":2137:2144   */\n      0x00\n        /* \"#utility.yul\":2166:2190   */\n      tag_70\n        /* \"#utility.yul\":2184:2189   */\n      dup3\n        /* \"#utility.yul\":2166:2190   */\n      tag_67\n      jump\t// in\n    tag_70:\n        /* \"#utility.yul\":2155:2190   */\n      swap1\n      pop\n        /* \"#utility.yul\":2145:2196   */\n      swap2\n      swap1\n      pop\n      jump\t// out\n        /* \"#utility.yul\":2202:2328   */\n    tag_67:\n        /* \"#utility.yul\":2239:2246   */\n      0x00\n        /* \"#utility.yul\":2279:2321   */\n      0xffffffffffffffffffffffffffffffffffffffff\n        /* \"#utility.yul\":2272:2277   */\n      dup3\n        /* \"#utility.yul\":2268:2322   */\n      and\n        /* \"#utility.yul\":2257:2322   */\n      swap1\n      pop\n        /* \"#utility.yul\":2247:2328   */\n      swap2\n      swap1\n      pop\n      jump\t// out\n        /* \"#utility.yul\":2334:2411   */\n    tag_53:\n        /* \"#utility.yul\":2371:2378   */\n      0x00\n        /* \"#utility.yul\":2400:2405   */\n      dup2\n        /* \"#utility.yul\":2389:2405   */\n      swap1\n      pop\n        /* \"#utility.yul\":2379:2411   */\n      swap2\n      swap1\n      pop\n      jump\t// out\n        /* \"#utility.yul\":2417:2597   */\n    tag_64:\n        /* \"#utility.yul\":2465:2542   */\n      0x4e487b7100000000000000000000000000000000000000000000000000000000\n        /* \"#utility.yul\":2462:2463   */\n      0x00\n        /* \"#utility.yul\":2455:2543   */\n      mstore\n        /* \"#utility.yul\":2562:2566   */\n      0x11\n        /* \"#utility.yul\":2559:2560   */\n      0x04\n        /* \"#utility.yul\":2552:2567   */\n      mstore\n        /* \"#utility.yul\":2586:2590   */\n      0x24\n        /* \"#utility.yul\":2583:2584   */\n      0x00\n        /* \"#utility.yul\":2576:2591   */\n      revert\n        /* \"#utility.yul\":2603:2725   */\n    tag_35:\n        /* \"#utility.yul\":2676:2700   */\n      tag_75\n        /* \"#utility.yul\":2694:2699   */\n      dup2\n        /* \"#utility.yul\":2676:2700   */\n      tag_49\n      jump\t// in\n    tag_75:\n        /* \"#utility.yul\":2669:2674   */\n      dup2\n        /* \"#utility.yul\":2666:2701   */\n      eq\n        /* \"#utility.yul\":2656:2658   */\n      tag_76\n      jumpi\n        /* \"#utility.yul\":2715:2716   */\n      0x00\n        /* \"#utility.yul\":2712:2713   */\n      dup1\n        /* \"#utility.yul\":2705:2717   */\n      revert\n        /* \"#utility.yul\":2656:2658   */\n    tag_76:\n        /* \"#utility.yul\":2646:2725   */\n      pop\n      jump\t// out\n        /* \"#utility.yul\":2731:2869   */\n    tag_39:\n        /* \"#utility.yul\":2812:2844   */\n      tag_78\n        /* \"#utility.yul\":2838:2843   */\n      dup2\n        /* \"#utility.yul\":2812:2844   */\n      tag_68\n      jump\t// in\n    tag_78:\n        /* \"#utility.yul\":2805:2810   */\n      dup2\n        /* \"#utility.yul\":2802:2845   */\n      eq\n        /* \"#utility.yul\":2792:2794   */\n      tag_79\n      jumpi\n        /* \"#utility.yul\":2859:2860   */\n      0x00\n        /* \"#utility.yul\":2856:2857   */\n      dup1\n        /* \"#utility.yul\":2849:2861   */\n      revert\n        /* \"#utility.yul\":2792:2794   */\n    tag_79:\n        /* \"#utility.yul\":2782:2869   */\n      pop\n      jump\t// out\n\n    auxdata: 0xa2646970667358221220dde07abc9ec4b7775147cc5c2adfa147ce37f07316938e45dbaef91fbbf769f064736f6c63430008040033\n}\n",
				"bytecode": {
					"linkReferences": {},
					"object": "608060405234801561001057600080fd5b50610443806100206000396000f3fe6080604052600436106100385760003560e01c80633ccfd60b14610044578063e3d670d71461005b578063f340fa011461009857610039565b5b610042336100b4565b005b34801561005057600080fd5b5061005961010c565b005b34801561006757600080fd5b50610082600480360381019061007d9190610258565b610216565b60405161008f91906102f1565b60405180910390f35b6100b260048036038101906100ad9190610281565b6100b4565b005b346000808373ffffffffffffffffffffffffffffffffffffffff1673ffffffffffffffffffffffffffffffffffffffff1681526020019081526020016000206000828254610102919061030c565b9250508190555050565b60008060003373ffffffffffffffffffffffffffffffffffffffff1673ffffffffffffffffffffffffffffffffffffffff16815260200190815260200160002054905060008060003373ffffffffffffffffffffffffffffffffffffffff1673ffffffffffffffffffffffffffffffffffffffff168152602001908152602001600020819055503373ffffffffffffffffffffffffffffffffffffffff166108fc829081150290604051600060405180830381858888f193505050501580156101d9573d6000803e3d6000fd5b507f884edad9ce6fa2440d8a54cc123490eb96d2768479d49ff9c7366125a9424364338260405161020b9291906102c8565b60405180910390a150565b60006020528060005260406000206000915090505481565b60008135905061023d816103df565b92915050565b600081359050610252816103f6565b92915050565b60006020828403121561026a57600080fd5b60006102788482850161022e565b91505092915050565b60006020828403121561029357600080fd5b60006102a184828501610243565b91505092915050565b6102b381610362565b82525050565b6102c2816103a6565b82525050565b60006040820190506102dd60008301856102aa565b6102ea60208301846102b9565b9392505050565b600060208201905061030660008301846102b9565b92915050565b6000610317826103a6565b9150610322836103a6565b9250827fffffffffffffffffffffffffffffffffffffffffffffffffffffffffffffffff03821115610357576103566103b0565b5b828201905092915050565b600061036d82610386565b9050919050565b600061037f82610386565b9050919050565b600073ffffffffffffffffffffffffffffffffffffffff82169050919050565b6000819050919050565b7f4e487b7100000000000000000000000000000000000000000000000000000000600052601160045260246000fd5b6103e881610362565b81146103f357600080fd5b50565b6103ff81610374565b811461040a57600080fd5b5056fea2646970667358221220dde07abc9ec4b7775147cc5c2adfa147ce37f07316938e45dbaef91fbbf769f064736f6c63430008040033",
					"opcodes": "PUSH1 0x80 PUSH1 0x40 MSTORE CALLVALUE DUP1 ISZERO PUSH2 0x10 JUMPI PUSH1 0x0 DUP1 REVERT JUMPDEST POP PUSH2 0x443 DUP1 PUSH2 0x20 PUSH1 0x0 CODECOPY PUSH1 0x0 RETURN INVALID PUSH1 0x80 PUSH1 0x40 MSTORE PUSH1 0x4 CALLDATASIZE LT PUSH2 0x38 JUMPI PUSH1 0x0 CALLDATALOAD PUSH1 0xE0 SHR DUP1 PUSH4 0x3CCFD60B EQ PUSH2 0x44 JUMPI DUP1 PUSH4 0xE3D670D7 EQ PUSH2 0x5B JUMPI DUP1 PUSH4 0xF340FA01 EQ PUSH2 0x98 JUMPI PUSH2 0x39 JUMP JUMPDEST JUMPDEST PUSH2 0x42 CALLER PUSH2 0xB4 JUMP JUMPDEST STOP JUMPDEST CALLVALUE DUP1 ISZERO PUSH2 0x50 JUMPI PUSH1 0x0 DUP1 REVERT JUMPDEST POP PUSH2 0x59 PUSH2 0x10C JUMP JUMPDEST STOP JUMPDEST CALLVALUE DUP1 ISZERO PUSH2 0x67 JUMPI PUSH1 0x0 DUP1 REVERT JUMPDEST POP PUSH2 0x82 PUSH1 0x4 DUP1 CALLDATASIZE SUB DUP2 ADD SWAP1 PUSH2 0x7D SWAP2 SWAP1 PUSH2 0x258 JUMP JUMPDEST PUSH2 0x216 JUMP JUMPDEST PUSH1 0x40 MLOAD PUSH2 0x8F SWAP2 SWAP1 PUSH2 0x2F1 JUMP JUMPDEST PUSH1 0x40 MLOAD DUP1 SWAP2 SUB SWAP1 RETURN JUMPDEST PUSH2 0xB2 PUSH1 0x4 DUP1 CALLDATASIZE SUB DUP2 ADD SWAP1 PUSH2 0xAD SWAP2 SWAP1 PUSH2 0x281 JUMP JUMPDEST PUSH2 0xB4 JUMP JUMPDEST STOP JUMPDEST CALLVALUE PUSH1 0x0 DUP1 DUP4 PUSH20 0xFFFFFFFFFFFFFFFFFFFFFFFFFFFFFFFFFFFFFFFF AND PUSH20 0xFFFFFFFFFFFFFFFFFFFFFFFFFFFFFFFFFFFFFFFF AND DUP2 MSTORE PUSH1 0x20 ADD SWAP1 DUP2 MSTORE PUSH1 0x20 ADD PUSH1 0x0 KECCAK256 PUSH1 0x0 DUP3 DUP3 SLOAD PUSH2 0x102 SWAP2 SWAP1 PUSH2 0x30C JUMP JUMPDEST SWAP3 POP POP DUP2 SWAP1 SSTORE POP POP JUMP JUMPDEST PUSH1 0x0 DUP1 PUSH1 0x0 CALLER PUSH20 0xFFFFFFFFFFFFFFFFFFFFFFFFFFFFFFFFFFFFFFFF AND PUSH20 0xFFFFFFFFFFFFFFFFFFFFFFFFFFFFFFFFFFFFFFFF AND DUP2 MSTORE PUSH1 0x20 ADD SWAP1 DUP2 MSTORE PUSH1 0x20 ADD PUSH1 0x0 KECCAK256 SLOAD SWAP1 POP PUSH1 0x0 DUP1 PUSH1 0x0 CALLER PUSH20 0xFFFFFFFFFFFFFFFFFFFFFFFFFFFFFFFFFFFFFFFF AND PUSH20 0xFFFFFFFFFFFFFFFFFFFFFFFFFFFFFFFFFFFFFFFF AND DUP2 MSTORE PUSH1 0x20 ADD SWAP1 DUP2 MSTORE PUSH1 0x20 ADD PUSH1 0x0 KECCAK256 DUP2 SWAP1 SSTORE POP CALLER PUSH20 0xFFFFFFFFFFFFFFFFFFFFFFFFFFFFFFFFFFFFFFFF AND PUSH2 0x8FC DUP3 SWAP1 DUP2 ISZERO MUL SWAP1 PUSH1 0x40 MLOAD PUSH1 0x0 PUSH1 0x40 MLOAD DUP1 DUP4 SUB DUP2 DUP6 DUP9 DUP9 CALL SWAP4 POP POP POP POP ISZERO DUP1 ISZERO PUSH2 0x1D9 JUMPI RETURNDATASIZE PUSH1 0x0 DUP1 RETURNDATACOPY RETURNDATASIZE PUSH1 0x0 REVERT JUMPDEST POP PUSH32 0x884EDAD9CE6FA2440D8A54CC123490EB96D2768479D49FF9C7366125A9424364 CALLER DUP3 PUSH1 0x40 MLOAD PUSH2 0x20B SWAP3 SWAP2 SWAP1 PUSH2 0x2C8 JUMP JUMPDEST PUSH1 0x40 MLOAD DUP1 SWAP2 SUB SWAP1 LOG1 POP JUMP JUMPDEST PUSH1 0x0 PUSH1 0x20 MSTORE DUP1 PUSH1 0x0 MSTORE PUSH1 0x40 PUSH1 0x0 KECCAK256 PUSH1 0x0 SWAP2 POP SWAP1 POP SLOAD DUP2 JUMP JUMPDEST PUSH1 0x0 DUP2 CALLDATALOAD SWAP1 POP PUSH2 0x23D DUP2 PUSH2 0x3DF JUMP JUMPDEST SWAP3 SWAP2 POP POP JUMP JUMPDEST PUSH1 0x0 DUP2 CALLDATALOAD SWAP1 POP PUSH2 0x252 DUP2 PUSH2 0x3F6 JUMP JUMPDEST SWAP3 SWAP2 POP POP JUMP JUMPDEST PUSH1 0x0 PUSH1 0x20 DUP3 DUP5 SUB SLT ISZERO PUSH2 0x26A JUMPI PUSH1 0x0 DUP1 REVERT JUMPDEST PUSH1 0x0 PUSH2 0x278 DUP5 DUP3 DUP6 ADD PUSH2 0x22E JUMP JUMPDEST SWAP2 POP POP SWAP3 SWAP2 POP POP JUMP JUMPDEST PUSH1 0x0 PUSH1 0x20 DUP3 DUP5 SUB SLT ISZERO PUSH2 0x293 JUMPI PUSH1 0x0 DUP1 REVERT JUMPDEST PUSH1 0x0 PUSH2 0x2A1 DUP5 DUP3 DUP6 ADD PUSH2 0x243 JUMP JUMPDEST SWAP2 POP POP SWAP3 SWAP2 POP POP JUMP JUMPDEST PUSH2 0x2B3 DUP2 PUSH2 0x362 JUMP JUMPDEST DUP3 MSTORE POP POP JUMP JUMPDEST PUSH2 0x2C2 DUP2 PUSH2 0x3A6 JUMP JUMPDEST DUP3 MSTORE POP POP JUMP JUMPDEST PUSH1 0x0 PUSH1 0x40 DUP3 ADD SWAP1 POP PUSH2 0x2DD PUSH1 0x0 DUP4 ADD DUP6 PUSH2 0x2AA JUMP JUMPDEST PUSH2 0x2EA PUSH1 0x20 DUP4 ADD DUP5 PUSH2 0x2B9 JUMP JUMPDEST SWAP4 SWAP3 POP POP POP JUMP JUMPDEST PUSH1 0x0 PUSH1 0x20 DUP3 ADD SWAP1 POP PUSH2 0x306 PUSH1 0x0 DUP4 ADD DUP5 PUSH2 0x2B9 JUMP JUMPDEST SWAP3 SWAP2 POP POP JUMP JUMPDEST PUSH1 0x0 PUSH2 0x317 DUP3 PUSH2 0x3A6 JUMP JUMPDEST SWAP2 POP PUSH2 0x322 DUP4 PUSH2 0x3A6 JUMP JUMPDEST SWAP3 POP DUP3 PUSH32 0xFFFFFFFFFFFFFFFFFFFFFFFFFFFFFFFFFFFFFFFFFFFFFFFFFFFFFFFFFFFFFFFF SUB DUP3 GT ISZERO PUSH2 0x357 JUMPI PUSH2 0x356 PUSH2 0x3B0 JUMP JUMPDEST JUMPDEST DUP3 DUP3 ADD SWAP1 POP SWAP3 SWAP2 POP POP JUMP JUMPDEST PUSH1 0x0 PUSH2 0x36D DUP3 PUSH2 0x386 JUMP JUMPDEST SWAP1 POP SWAP2 SWAP1 POP JUMP JUMPDEST PUSH1 0x0 PUSH2 0x37F DUP3 PUSH2 0x386 JUMP JUMPDEST SWAP1 POP SWAP2 SWAP1 POP JUMP JUMPDEST PUSH1 0x0 PUSH20 0xFFFFFFFFFFFFFFFFFFFFFFFFFFFFFFFFFFFFFFFF DUP3 AND SWAP1 POP SWAP2 SWAP1 POP JUMP JUMPDEST PUSH1 0x0 DUP2 SWAP1 POP SWAP2 SWAP1 POP JUMP JUMPDEST PUSH32 0x4E487B7100000000000000000000000000000000000000000000000000000000 PUSH1 0x0 MSTORE PUSH1 0x11 PUSH1 0x4 MSTORE PUSH1 0x24 PUSH1 0x0 REVERT JUMPDEST PUSH2 0x3E8 DUP2 PUSH2 0x362 JUMP JUMPDEST DUP2 EQ PUSH2 0x3F3 JUMPI PUSH1 0x0 DUP1 REVERT JUMPDEST POP JUMP JUMPDEST PUSH2 0x3FF DUP2 PUSH2 0x374 JUMP JUMPDEST DUP2 EQ PUSH2 0x40A JUMPI PUSH1 0x0 DUP1 REVERT JUMPDEST POP JUMP INVALID LOG2 PUSH5 0x6970667358 0x22 SLT KECCAK256 0xDD 0xE0 PUSH27 0xBC9EC4B7775147CC5C2ADFA147CE37F07316938E45DBAEF91FBBF7 PUSH10 0xF064736F6C6343000804 STOP CALLER "
				},
				"gasEstimates": {
					"creation": {
						"codeDepositCost": "218200",
						"executionCost": "263",
						"totalCost": "218463"
					},
					"external": {
						"": "infinite",
						"balance(address)": "1514",
						"deposit(address)": "infinite",
						"withdraw()": "infinite"
					}
				},
				"methodIdentifiers": {
					"balance(address)": "e3d670d7",
					"deposit(address)": "f340fa01",
					"withdraw()": "3ccfd60b"
				}
			},
			"storageLayout": {
				"storage": [
					{
						"astId": 5,
						"contract": "contracts/Escrow.sol:Escrow",
						"label": "balance",
						"offset": 0,
						"slot": "0",
						"type": "t_mapping(t_address,t_uint256)"
					}
				],
				"types": {
					"t_address": {
						"encoding": "inplace",
						"label": "address",
						"numberOfBytes": "20"
					},
					"t_mapping(t_address,t_uint256)": {
						"encoding": "mapping",
						"key": "t_address",
						"label": "mapping(address => uint256)",
						"numberOfBytes": "32",
						"value": "t_uint256"
					},
					"t_uint256": {
						"encoding": "inplace",
						"label": "uint256",
						"numberOfBytes": "32"
					}
				}
			},
			"userdoc": {
				"kind": "user",
				"methods": {},
				"version": 1
			}
		}
	}
}