{
	"contracts/DutchAuction.sol": {
		"DutchAuction": {
			"abi": [
				{
					"inputs": [
						{
							"internalType": "uint256",
							"name": "_startingPrice",
							"type": "uint256"
						},
						{
							"internalType": "uint256",
							"name": "_discountRate",
							"type": "uint256"
						},
						{
							"internalType": "address",
							"name": "_nft",
							"type": "address"
						},
						{
							"internalType": "uint256",
							"name": "_nftId",
							"type": "uint256"
						}
					],
					"stateMutability": "nonpayable",
					"type": "constructor"
				},
				{
					"inputs": [],
					"name": "buy",
					"outputs": [],
					"stateMutability": "payable",
					"type": "function"
				},
				{
					"inputs": [],
					"name": "discountRate",
					"outputs": [
						{
							"internalType": "uint256",
							"name": "",
							"type": "uint256"
						}
					],
					"stateMutability": "view",
					"type": "function"
				},
				{
					"inputs": [],
					"name": "expiresAt",
					"outputs": [
						{
							"internalType": "uint256",
							"name": "",
							"type": "uint256"
						}
					],
					"stateMutability": "view",
					"type": "function"
				},
				{
					"inputs": [],
					"name": "getPrice",
					"outputs": [
						{
							"internalType": "uint256",
							"name": "",
							"type": "uint256"
						}
					],
					"stateMutability": "view",
					"type": "function"
				},
				{
					"inputs": [],
					"name": "nft",
					"outputs": [
						{
							"internalType": "contract IERC721",
							"name": "",
							"type": "address"
						}
					],
					"stateMutability": "view",
					"type": "function"
				},
				{
					"inputs": [],
					"name": "nftId",
					"outputs": [
						{
							"internalType": "uint256",
							"name": "",
							"type": "uint256"
						}
					],
					"stateMutability": "view",
					"type": "function"
				},
				{
					"inputs": [],
					"name": "seller",
					"outputs": [
						{
							"internalType": "address payable",
							"name": "",
							"type": "address"
						}
					],
					"stateMutability": "view",
					"type": "function"
				},
				{
					"inputs": [],
					"name": "startAt",
					"outputs": [
						{
							"internalType": "uint256",
							"name": "",
							"type": "uint256"
						}
					],
					"stateMutability": "view",
					"type": "function"
				},
				{
					"inputs": [],
					"name": "startingPrice",
					"outputs": [
						{
							"internalType": "uint256",
							"name": "",
							"type": "uint256"
						}
					],
					"stateMutability": "view",
					"type": "function"
				}
			],
			"devdoc": {
				"kind": "dev",
				"methods": {},
				"version": 1
			},
			"evm": {
				"assembly": "    /* \"contracts/DutchAuction.sol\":190:1690  contract DutchAuction {... */\n  mstore(0x40, 0x0160)\n    /* \"contracts/DutchAuction.sol\":552:1059  constructor(... */\n  callvalue\n  dup1\n  iszero\n  tag_1\n  jumpi\n  0x00\n  dup1\n  revert\ntag_1:\n  pop\n  mload(0x40)\n  sub(codesize, bytecodeSize)\n  dup1\n  bytecodeSize\n  dup4\n  codecopy\n  dup2\n  dup2\n  add\n  0x40\n  mstore\n  dup2\n  add\n  swap1\n  tag_2\n  swap2\n  swap1\n  tag_3\n  jump\t// in\ntag_2:\n    /* \"contracts/DutchAuction.sol\":706:716  msg.sender */\n  caller\n    /* \"contracts/DutchAuction.sol\":689:717  seller = payable(msg.sender) */\n  0xffffffffffffffffffffffffffffffffffffffff\n  and\n  0xc0\n  dup2\n  0xffffffffffffffffffffffffffffffffffffffff\n  and\n  0x60\n  shl\n  dup2\n  mstore\n  pop\n  pop\n    /* \"contracts/DutchAuction.sol\":743:757  _startingPrice */\n  dup4\n    /* \"contracts/DutchAuction.sol\":727:757  startingPrice = _startingPrice */\n  0xe0\n  dup2\n  dup2\n  mstore\n  pop\n  pop\n    /* \"contracts/DutchAuction.sol\":777:792  block.timestamp */\n  timestamp\n    /* \"contracts/DutchAuction.sol\":767:792  startAt = block.timestamp */\n  0x0100\n  dup2\n  dup2\n  mstore\n  pop\n  pop\n    /* \"contracts/DutchAuction.sol\":254:263  7 minutes */\n  0x01a4\n    /* \"contracts/DutchAuction.sol\":814:829  block.timestamp */\n  timestamp\n    /* \"contracts/DutchAuction.sol\":814:840  block.timestamp + DURATION */\n  tag_6\n  swap2\n  swap1\n  tag_7\n  jump\t// in\ntag_6:\n    /* \"contracts/DutchAuction.sol\":802:840  expiresAt = block.timestamp + DURATION */\n  0x0120\n  dup2\n  dup2\n  mstore\n  pop\n  pop\n    /* \"contracts/DutchAuction.sol\":865:878  _discountRate */\n  dup3\n    /* \"contracts/DutchAuction.sol\":850:878  discountRate = _discountRate */\n  0x0140\n  dup2\n  dup2\n  mstore\n  pop\n  pop\n    /* \"contracts/DutchAuction.sol\":254:263  7 minutes */\n  0x01a4\n    /* \"contracts/DutchAuction.sol\":928:941  _discountRate */\n  dup4\n    /* \"contracts/DutchAuction.sol\":928:952  _discountRate * DURATION */\n  tag_8\n  swap2\n  swap1\n  tag_9\n  jump\t// in\ntag_8:\n    /* \"contracts/DutchAuction.sol\":910:924  _startingPrice */\n  dup5\n    /* \"contracts/DutchAuction.sol\":910:952  _startingPrice >= _discountRate * DURATION */\n  lt\n  iszero\n    /* \"contracts/DutchAuction.sol\":889:998  require(... */\n  tag_10\n  jumpi\n  mload(0x40)\n  0x08c379a000000000000000000000000000000000000000000000000000000000\n  dup2\n  mstore\n  0x04\n  add\n  tag_11\n  swap1\n  tag_12\n  jump\t// in\ntag_11:\n  mload(0x40)\n  dup1\n  swap2\n  sub\n  swap1\n  revert\ntag_10:\n    /* \"contracts/DutchAuction.sol\":1023:1027  _nft */\n  dup2\n    /* \"contracts/DutchAuction.sol\":1009:1028  nft = IERC721(_nft) */\n  0xffffffffffffffffffffffffffffffffffffffff\n  and\n  0x80\n  dup2\n  0xffffffffffffffffffffffffffffffffffffffff\n  and\n  0x60\n  shl\n  dup2\n  mstore\n  pop\n  pop\n    /* \"contracts/DutchAuction.sol\":1046:1052  _nftId */\n  dup1\n    /* \"contracts/DutchAuction.sol\":1038:1052  nftId = _nftId */\n  0xa0\n  dup2\n  dup2\n  mstore\n  pop\n  pop\n    /* \"contracts/DutchAuction.sol\":552:1059  constructor(... */\n  pop\n  pop\n  pop\n  pop\n    /* \"contracts/DutchAuction.sol\":190:1690  contract DutchAuction {... */\n  jump(tag_13)\n    /* \"#utility.yul\":7:150   */\ntag_15:\n    /* \"#utility.yul\":64:69   */\n  0x00\n    /* \"#utility.yul\":95:101   */\n  dup2\n    /* \"#utility.yul\":89:102   */\n  mload\n    /* \"#utility.yul\":80:102   */\n  swap1\n  pop\n    /* \"#utility.yul\":111:144   */\n  tag_17\n    /* \"#utility.yul\":138:143   */\n  dup2\n    /* \"#utility.yul\":111:144   */\n  tag_18\n  jump\t// in\ntag_17:\n    /* \"#utility.yul\":7:150   */\n  swap3\n  swap2\n  pop\n  pop\n  jump\t// out\n    /* \"#utility.yul\":156:299   */\ntag_19:\n    /* \"#utility.yul\":213:218   */\n  0x00\n    /* \"#utility.yul\":244:250   */\n  dup2\n    /* \"#utility.yul\":238:251   */\n  mload\n    /* \"#utility.yul\":229:251   */\n  swap1\n  pop\n    /* \"#utility.yul\":260:293   */\n  tag_21\n    /* \"#utility.yul\":287:292   */\n  dup2\n    /* \"#utility.yul\":260:293   */\n  tag_22\n  jump\t// in\ntag_21:\n    /* \"#utility.yul\":156:299   */\n  swap3\n  swap2\n  pop\n  pop\n  jump\t// out\n    /* \"#utility.yul\":305:1125   */\ntag_3:\n    /* \"#utility.yul\":402:408   */\n  0x00\n    /* \"#utility.yul\":410:416   */\n  dup1\n    /* \"#utility.yul\":418:424   */\n  0x00\n    /* \"#utility.yul\":426:432   */\n  dup1\n    /* \"#utility.yul\":475:478   */\n  0x80\n    /* \"#utility.yul\":463:472   */\n  dup6\n    /* \"#utility.yul\":454:461   */\n  dup8\n    /* \"#utility.yul\":450:473   */\n  sub\n    /* \"#utility.yul\":446:479   */\n  slt\n    /* \"#utility.yul\":443:563   */\n  iszero\n  tag_24\n  jumpi\n    /* \"#utility.yul\":482:561   */\n  tag_25\n  tag_26\n  jump\t// in\ntag_25:\n    /* \"#utility.yul\":443:563   */\ntag_24:\n    /* \"#utility.yul\":602:603   */\n  0x00\n    /* \"#utility.yul\":627:691   */\n  tag_27\n    /* \"#utility.yul\":683:690   */\n  dup8\n    /* \"#utility.yul\":674:680   */\n  dup3\n    /* \"#utility.yul\":663:672   */\n  dup9\n    /* \"#utility.yul\":659:681   */\n  add\n    /* \"#utility.yul\":627:691   */\n  tag_19\n  jump\t// in\ntag_27:\n    /* \"#utility.yul\":617:691   */\n  swap5\n  pop\n    /* \"#utility.yul\":573:701   */\n  pop\n    /* \"#utility.yul\":740:742   */\n  0x20\n    /* \"#utility.yul\":766:830   */\n  tag_28\n    /* \"#utility.yul\":822:829   */\n  dup8\n    /* \"#utility.yul\":813:819   */\n  dup3\n    /* \"#utility.yul\":802:811   */\n  dup9\n    /* \"#utility.yul\":798:820   */\n  add\n    /* \"#utility.yul\":766:830   */\n  tag_19\n  jump\t// in\ntag_28:\n    /* \"#utility.yul\":756:830   */\n  swap4\n  pop\n    /* \"#utility.yul\":711:840   */\n  pop\n    /* \"#utility.yul\":879:881   */\n  0x40\n    /* \"#utility.yul\":905:969   */\n  tag_29\n    /* \"#utility.yul\":961:968   */\n  dup8\n    /* \"#utility.yul\":952:958   */\n  dup3\n    /* \"#utility.yul\":941:950   */\n  dup9\n    /* \"#utility.yul\":937:959   */\n  add\n    /* \"#utility.yul\":905:969   */\n  tag_15\n  jump\t// in\ntag_29:\n    /* \"#utility.yul\":895:969   */\n  swap3\n  pop\n    /* \"#utility.yul\":850:979   */\n  pop\n    /* \"#utility.yul\":1018:1020   */\n  0x60\n    /* \"#utility.yul\":1044:1108   */\n  tag_30\n    /* \"#utility.yul\":1100:1107   */\n  dup8\n    /* \"#utility.yul\":1091:1097   */\n  dup3\n    /* \"#utility.yul\":1080:1089   */\n  dup9\n    /* \"#utility.yul\":1076:1098   */\n  add\n    /* \"#utility.yul\":1044:1108   */\n  tag_19\n  jump\t// in\ntag_30:\n    /* \"#utility.yul\":1034:1108   */\n  swap2\n  pop\n    /* \"#utility.yul\":989:1118   */\n  pop\n    /* \"#utility.yul\":305:1125   */\n  swap3\n  swap6\n  swap2\n  swap5\n  pop\n  swap3\n  pop\n  jump\t// out\n    /* \"#utility.yul\":1131:1497   */\ntag_31:\n    /* \"#utility.yul\":1273:1276   */\n  0x00\n    /* \"#utility.yul\":1294:1361   */\n  tag_33\n    /* \"#utility.yul\":1358:1360   */\n  0x14\n    /* \"#utility.yul\":1353:1356   */\n  dup4\n    /* \"#utility.yul\":1294:1361   */\n  tag_34\n  jump\t// in\ntag_33:\n    /* \"#utility.yul\":1287:1361   */\n  swap2\n  pop\n    /* \"#utility.yul\":1370:1463   */\n  tag_35\n    /* \"#utility.yul\":1459:1462   */\n  dup3\n    /* \"#utility.yul\":1370:1463   */\n  tag_36\n  jump\t// in\ntag_35:\n    /* \"#utility.yul\":1488:1490   */\n  0x20\n    /* \"#utility.yul\":1483:1486   */\n  dup3\n    /* \"#utility.yul\":1479:1491   */\n  add\n    /* \"#utility.yul\":1472:1491   */\n  swap1\n  pop\n    /* \"#utility.yul\":1131:1497   */\n  swap2\n  swap1\n  pop\n  jump\t// out\n    /* \"#utility.yul\":1503:1922   */\ntag_12:\n    /* \"#utility.yul\":1669:1673   */\n  0x00\n    /* \"#utility.yul\":1707:1709   */\n  0x20\n    /* \"#utility.yul\":1696:1705   */\n  dup3\n    /* \"#utility.yul\":1692:1710   */\n  add\n    /* \"#utility.yul\":1684:1710   */\n  swap1\n  pop\n    /* \"#utility.yul\":1756:1765   */\n  dup2\n    /* \"#utility.yul\":1750:1754   */\n  dup2\n    /* \"#utility.yul\":1746:1766   */\n  sub\n    /* \"#utility.yul\":1742:1743   */\n  0x00\n    /* \"#utility.yul\":1731:1740   */\n  dup4\n    /* \"#utility.yul\":1727:1744   */\n  add\n    /* \"#utility.yul\":1720:1767   */\n  mstore\n    /* \"#utility.yul\":1784:1915   */\n  tag_38\n    /* \"#utility.yul\":1910:1914   */\n  dup2\n    /* \"#utility.yul\":1784:1915   */\n  tag_31\n  jump\t// in\ntag_38:\n    /* \"#utility.yul\":1776:1915   */\n  swap1\n  pop\n    /* \"#utility.yul\":1503:1922   */\n  swap2\n  swap1\n  pop\n  jump\t// out\n    /* \"#utility.yul\":2009:2178   */\ntag_34:\n    /* \"#utility.yul\":2093:2104   */\n  0x00\n    /* \"#utility.yul\":2127:2133   */\n  dup3\n    /* \"#utility.yul\":2122:2125   */\n  dup3\n    /* \"#utility.yul\":2115:2134   */\n  mstore\n    /* \"#utility.yul\":2167:2171   */\n  0x20\n    /* \"#utility.yul\":2162:2165   */\n  dup3\n    /* \"#utility.yul\":2158:2172   */\n  add\n    /* \"#utility.yul\":2143:2172   */\n  swap1\n  pop\n    /* \"#utility.yul\":2009:2178   */\n  swap3\n  swap2\n  pop\n  pop\n  jump\t// out\n    /* \"#utility.yul\":2184:2489   */\ntag_7:\n    /* \"#utility.yul\":2224:2227   */\n  0x00\n    /* \"#utility.yul\":2243:2263   */\n  tag_43\n    /* \"#utility.yul\":2261:2262   */\n  dup3\n    /* \"#utility.yul\":2243:2263   */\n  tag_44\n  jump\t// in\ntag_43:\n    /* \"#utility.yul\":2238:2263   */\n  swap2\n  pop\n    /* \"#utility.yul\":2277:2297   */\n  tag_45\n    /* \"#utility.yul\":2295:2296   */\n  dup4\n    /* \"#utility.yul\":2277:2297   */\n  tag_44\n  jump\t// in\ntag_45:\n    /* \"#utility.yul\":2272:2297   */\n  swap3\n  pop\n    /* \"#utility.yul\":2431:2432   */\n  dup3\n    /* \"#utility.yul\":2363:2429   */\n  0xffffffffffffffffffffffffffffffffffffffffffffffffffffffffffffffff\n    /* \"#utility.yul\":2359:2433   */\n  sub\n    /* \"#utility.yul\":2356:2357   */\n  dup3\n    /* \"#utility.yul\":2353:2434   */\n  gt\n    /* \"#utility.yul\":2350:2457   */\n  iszero\n  tag_46\n  jumpi\n    /* \"#utility.yul\":2437:2455   */\n  tag_47\n  tag_48\n  jump\t// in\ntag_47:\n    /* \"#utility.yul\":2350:2457   */\ntag_46:\n    /* \"#utility.yul\":2481:2482   */\n  dup3\n    /* \"#utility.yul\":2478:2479   */\n  dup3\n    /* \"#utility.yul\":2474:2483   */\n  add\n    /* \"#utility.yul\":2467:2483   */\n  swap1\n  pop\n    /* \"#utility.yul\":2184:2489   */\n  swap3\n  swap2\n  pop\n  pop\n  jump\t// out\n    /* \"#utility.yul\":2495:2843   */\ntag_9:\n    /* \"#utility.yul\":2535:2542   */\n  0x00\n    /* \"#utility.yul\":2558:2578   */\n  tag_50\n    /* \"#utility.yul\":2576:2577   */\n  dup3\n    /* \"#utility.yul\":2558:2578   */\n  tag_44\n  jump\t// in\ntag_50:\n    /* \"#utility.yul\":2553:2578   */\n  swap2\n  pop\n    /* \"#utility.yul\":2592:2612   */\n  tag_51\n    /* \"#utility.yul\":2610:2611   */\n  dup4\n    /* \"#utility.yul\":2592:2612   */\n  tag_44\n  jump\t// in\ntag_51:\n    /* \"#utility.yul\":2587:2612   */\n  swap3\n  pop\n    /* \"#utility.yul\":2780:2781   */\n  dup2\n    /* \"#utility.yul\":2712:2778   */\n  0xffffffffffffffffffffffffffffffffffffffffffffffffffffffffffffffff\n    /* \"#utility.yul\":2708:2782   */\n  div\n    /* \"#utility.yul\":2705:2706   */\n  dup4\n    /* \"#utility.yul\":2702:2783   */\n  gt\n    /* \"#utility.yul\":2697:2698   */\n  dup3\n    /* \"#utility.yul\":2690:2699   */\n  iszero\n    /* \"#utility.yul\":2683:2700   */\n  iszero\n    /* \"#utility.yul\":2679:2784   */\n  and\n    /* \"#utility.yul\":2676:2807   */\n  iszero\n  tag_52\n  jumpi\n    /* \"#utility.yul\":2787:2805   */\n  tag_53\n  tag_48\n  jump\t// in\ntag_53:\n    /* \"#utility.yul\":2676:2807   */\ntag_52:\n    /* \"#utility.yul\":2835:2836   */\n  dup3\n    /* \"#utility.yul\":2832:2833   */\n  dup3\n    /* \"#utility.yul\":2828:2837   */\n  mul\n    /* \"#utility.yul\":2817:2837   */\n  swap1\n  pop\n    /* \"#utility.yul\":2495:2843   */\n  swap3\n  swap2\n  pop\n  pop\n  jump\t// out\n    /* \"#utility.yul\":2849:2945   */\ntag_54:\n    /* \"#utility.yul\":2886:2893   */\n  0x00\n    /* \"#utility.yul\":2915:2939   */\n  tag_56\n    /* \"#utility.yul\":2933:2938   */\n  dup3\n    /* \"#utility.yul\":2915:2939   */\n  tag_57\n  jump\t// in\ntag_56:\n    /* \"#utility.yul\":2904:2939   */\n  swap1\n  pop\n    /* \"#utility.yul\":2849:2945   */\n  swap2\n  swap1\n  pop\n  jump\t// out\n    /* \"#utility.yul\":2951:3077   */\ntag_57:\n    /* \"#utility.yul\":2988:2995   */\n  0x00\n    /* \"#utility.yul\":3028:3070   */\n  0xffffffffffffffffffffffffffffffffffffffff\n    /* \"#utility.yul\":3021:3026   */\n  dup3\n    /* \"#utility.yul\":3017:3071   */\n  and\n    /* \"#utility.yul\":3006:3071   */\n  swap1\n  pop\n    /* \"#utility.yul\":2951:3077   */\n  swap2\n  swap1\n  pop\n  jump\t// out\n    /* \"#utility.yul\":3083:3160   */\ntag_44:\n    /* \"#utility.yul\":3120:3127   */\n  0x00\n    /* \"#utility.yul\":3149:3154   */\n  dup2\n    /* \"#utility.yul\":3138:3154   */\n  swap1\n  pop\n    /* \"#utility.yul\":3083:3160   */\n  swap2\n  swap1\n  pop\n  jump\t// out\n    /* \"#utility.yul\":3166:3346   */\ntag_48:\n    /* \"#utility.yul\":3214:3291   */\n  0x4e487b7100000000000000000000000000000000000000000000000000000000\n    /* \"#utility.yul\":3211:3212   */\n  0x00\n    /* \"#utility.yul\":3204:3292   */\n  mstore\n    /* \"#utility.yul\":3311:3315   */\n  0x11\n    /* \"#utility.yul\":3308:3309   */\n  0x04\n    /* \"#utility.yul\":3301:3316   */\n  mstore\n    /* \"#utility.yul\":3335:3339   */\n  0x24\n    /* \"#utility.yul\":3332:3333   */\n  0x00\n    /* \"#utility.yul\":3325:3340   */\n  revert\n    /* \"#utility.yul\":3475:3592   */\ntag_26:\n    /* \"#utility.yul\":3584:3585   */\n  0x00\n    /* \"#utility.yul\":3581:3582   */\n  dup1\n    /* \"#utility.yul\":3574:3586   */\n  revert\n    /* \"#utility.yul\":3598:3768   */\ntag_36:\n    /* \"#utility.yul\":3738:3760   */\n  0x7374617274696e67207072696365203c206d696e000000000000000000000000\n    /* \"#utility.yul\":3734:3735   */\n  0x00\n    /* \"#utility.yul\":3726:3732   */\n  dup3\n    /* \"#utility.yul\":3722:3736   */\n  add\n    /* \"#utility.yul\":3715:3761   */\n  mstore\n    /* \"#utility.yul\":3598:3768   */\n  pop\n  jump\t// out\n    /* \"#utility.yul\":3774:3896   */\ntag_18:\n    /* \"#utility.yul\":3847:3871   */\n  tag_66\n    /* \"#utility.yul\":3865:3870   */\n  dup2\n    /* \"#utility.yul\":3847:3871   */\n  tag_54\n  jump\t// in\ntag_66:\n    /* \"#utility.yul\":3840:3845   */\n  dup2\n    /* \"#utility.yul\":3837:3872   */\n  eq\n    /* \"#utility.yul\":3827:3890   */\n  tag_67\n  jumpi\n    /* \"#utility.yul\":3886:3887   */\n  0x00\n    /* \"#utility.yul\":3883:3884   */\n  dup1\n    /* \"#utility.yul\":3876:3888   */\n  revert\n    /* \"#utility.yul\":3827:3890   */\ntag_67:\n    /* \"#utility.yul\":3774:3896   */\n  pop\n  jump\t// out\n    /* \"#utility.yul\":3902:4024   */\ntag_22:\n    /* \"#utility.yul\":3975:3999   */\n  tag_69\n    /* \"#utility.yul\":3993:3998   */\n  dup2\n    /* \"#utility.yul\":3975:3999   */\n  tag_44\n  jump\t// in\ntag_69:\n    /* \"#utility.yul\":3968:3973   */\n  dup2\n    /* \"#utility.yul\":3965:4000   */\n  eq\n    /* \"#utility.yul\":3955:4018   */\n  tag_70\n  jumpi\n    /* \"#utility.yul\":4014:4015   */\n  0x00\n    /* \"#utility.yul\":4011:4012   */\n  dup1\n    /* \"#utility.yul\":4004:4016   */\n  revert\n    /* \"#utility.yul\":3955:4018   */\ntag_70:\n    /* \"#utility.yul\":3902:4024   */\n  pop\n  jump\t// out\n    /* \"contracts/DutchAuction.sol\":190:1690  contract DutchAuction {... */\ntag_13:\n  shr(0x60, mload(0x80))\n  mload(0xa0)\n  shr(0x60, mload(0xc0))\n  mload(0xe0)\n  mload(0x0100)\n  mload(0x0120)\n  mload(0x0140)\n  codecopy(0x00, dataOffset(sub_0), dataSize(sub_0))\n  0x00\n  assignImmutable(\"0x7749cc8014201da2069c21d93ba99c584b6f62d393fde534ed47eac227e31561\")\n  0x00\n  assignImmutable(\"0x58a280f74f57bf051c40f060139dc747e015be52f68c57e2c4ab2e4bd4146f43\")\n  0x00\n  assignImmutable(\"0x81e080ffc23e8b8d44dd829bc823229e92b893eb1d8f624419d3f5682eb97fc3\")\n  0x00\n  assignImmutable(\"0x1572b593c53d839d80004aa4b8c51211864104f06ace9e22be9c4365b50655ea\")\n  0x00\n  assignImmutable(\"0xf4c2b5de886427473655d4c904c743576dc2d53249b7535d96c06cc97ae7216b\")\n  0x00\n  assignImmutable(\"0x939eb54753ed0cc7e2272bfb34cbe098308c93936ed54d79078f76ade0b2e789\")\n  0x00\n  assignImmutable(\"0x8e8fab5f003314da8d1873ea7720e8d9f47650136d916064d1edb8a11d682624\")\n  return(0x00, dataSize(sub_0))\nstop\n\nsub_0: assembly {\n        /* \"contracts/DutchAuction.sol\":190:1690  contract DutchAuction {... */\n      mstore(0x40, 0x80)\n      jumpi(tag_1, lt(calldatasize, 0x04))\n      shr(0xe0, calldataload(0x00))\n      dup1\n      0xa6f2ae3a\n      gt\n      tag_11\n      jumpi\n      dup1\n      0xa6f2ae3a\n      eq\n      tag_6\n      jumpi\n      dup1\n      0xc6bc5182\n      eq\n      tag_7\n      jumpi\n      dup1\n      0xc7446565\n      eq\n      tag_8\n      jumpi\n      dup1\n      0xd6fbf202\n      eq\n      tag_9\n      jumpi\n      dup1\n      0xe6c0e6d5\n      eq\n      tag_10\n      jumpi\n      jump(tag_1)\n    tag_11:\n      dup1\n      0x08551a53\n      eq\n      tag_2\n      jumpi\n      dup1\n      0x47ccca02\n      eq\n      tag_3\n      jumpi\n      dup1\n      0x8622a689\n      eq\n      tag_4\n      jumpi\n      dup1\n      0x98d5fdca\n      eq\n      tag_5\n      jumpi\n    tag_1:\n      0x00\n      dup1\n      revert\n        /* \"contracts/DutchAuction.sol\":341:380  address payable public immutable seller */\n    tag_2:\n      callvalue\n      dup1\n      iszero\n      tag_12\n      jumpi\n      0x00\n      dup1\n      revert\n    tag_12:\n      pop\n      tag_13\n      tag_14\n      jump\t// in\n    tag_13:\n      mload(0x40)\n      tag_15\n      swap2\n      swap1\n      tag_16\n      jump\t// in\n    tag_15:\n      mload(0x40)\n      dup1\n      swap2\n      sub\n      swap1\n      return\n        /* \"contracts/DutchAuction.sol\":270:298  IERC721 public immutable nft */\n    tag_3:\n      callvalue\n      dup1\n      iszero\n      tag_17\n      jumpi\n      0x00\n      dup1\n      revert\n    tag_17:\n      pop\n      tag_18\n      tag_19\n      jump\t// in\n    tag_18:\n      mload(0x40)\n      tag_20\n      swap2\n      swap1\n      tag_21\n      jump\t// in\n    tag_20:\n      mload(0x40)\n      dup1\n      swap2\n      sub\n      swap1\n      return\n        /* \"contracts/DutchAuction.sol\":468:502  uint256 public immutable expiresAt */\n    tag_4:\n      callvalue\n      dup1\n      iszero\n      tag_22\n      jumpi\n      0x00\n      dup1\n      revert\n    tag_22:\n      pop\n      tag_23\n      tag_24\n      jump\t// in\n    tag_23:\n      mload(0x40)\n      tag_25\n      swap2\n      swap1\n      tag_26\n      jump\t// in\n    tag_25:\n      mload(0x40)\n      dup1\n      swap2\n      sub\n      swap1\n      return\n        /* \"contracts/DutchAuction.sol\":1065:1275  function getPrice() public view returns (uint256) {... */\n    tag_5:\n      callvalue\n      dup1\n      iszero\n      tag_27\n      jumpi\n      0x00\n      dup1\n      revert\n    tag_27:\n      pop\n      tag_28\n      tag_29\n      jump\t// in\n    tag_28:\n      mload(0x40)\n      tag_30\n      swap2\n      swap1\n      tag_26\n      jump\t// in\n    tag_30:\n      mload(0x40)\n      dup1\n      swap2\n      sub\n      swap1\n      return\n        /* \"contracts/DutchAuction.sol\":1281:1688  function buy() external payable {... */\n    tag_6:\n      tag_31\n      tag_32\n      jump\t// in\n    tag_31:\n      stop\n        /* \"contracts/DutchAuction.sol\":304:334  uint256 public immutable nftId */\n    tag_7:\n      callvalue\n      dup1\n      iszero\n      tag_33\n      jumpi\n      0x00\n      dup1\n      revert\n    tag_33:\n      pop\n      tag_34\n      tag_35\n      jump\t// in\n    tag_34:\n      mload(0x40)\n      tag_36\n      swap2\n      swap1\n      tag_26\n      jump\t// in\n    tag_36:\n      mload(0x40)\n      dup1\n      swap2\n      sub\n      swap1\n      return\n        /* \"contracts/DutchAuction.sol\":430:462  uint256 public immutable startAt */\n    tag_8:\n      callvalue\n      dup1\n      iszero\n      tag_37\n      jumpi\n      0x00\n      dup1\n      revert\n    tag_37:\n      pop\n      tag_38\n      tag_39\n      jump\t// in\n    tag_38:\n      mload(0x40)\n      tag_40\n      swap2\n      swap1\n      tag_26\n      jump\t// in\n    tag_40:\n      mload(0x40)\n      dup1\n      swap2\n      sub\n      swap1\n      return\n        /* \"contracts/DutchAuction.sol\":386:424  uint256 public immutable startingPrice */\n    tag_9:\n      callvalue\n      dup1\n      iszero\n      tag_41\n      jumpi\n      0x00\n      dup1\n      revert\n    tag_41:\n      pop\n      tag_42\n      tag_43\n      jump\t// in\n    tag_42:\n      mload(0x40)\n      tag_44\n      swap2\n      swap1\n      tag_26\n      jump\t// in\n    tag_44:\n      mload(0x40)\n      dup1\n      swap2\n      sub\n      swap1\n      return\n        /* \"contracts/DutchAuction.sol\":508:545  uint256 public immutable discountRate */\n    tag_10:\n      callvalue\n      dup1\n      iszero\n      tag_45\n      jumpi\n      0x00\n      dup1\n      revert\n    tag_45:\n      pop\n      tag_46\n      tag_47\n      jump\t// in\n    tag_46:\n      mload(0x40)\n      tag_48\n      swap2\n      swap1\n      tag_26\n      jump\t// in\n    tag_48:\n      mload(0x40)\n      dup1\n      swap2\n      sub\n      swap1\n      return\n        /* \"contracts/DutchAuction.sol\":341:380  address payable public immutable seller */\n    tag_14:\n      immutable(\"0xf4c2b5de886427473655d4c904c743576dc2d53249b7535d96c06cc97ae7216b\")\n      dup2\n      jump\t// out\n        /* \"contracts/DutchAuction.sol\":270:298  IERC721 public immutable nft */\n    tag_19:\n      immutable(\"0x8e8fab5f003314da8d1873ea7720e8d9f47650136d916064d1edb8a11d682624\")\n      dup2\n      jump\t// out\n        /* \"contracts/DutchAuction.sol\":468:502  uint256 public immutable expiresAt */\n    tag_24:\n      immutable(\"0x58a280f74f57bf051c40f060139dc747e015be52f68c57e2c4ab2e4bd4146f43\")\n      dup2\n      jump\t// out\n        /* \"contracts/DutchAuction.sol\":1065:1275  function getPrice() public view returns (uint256) {... */\n    tag_29:\n        /* \"contracts/DutchAuction.sol\":1106:1113  uint256 */\n      0x00\n        /* \"contracts/DutchAuction.sol\":1125:1144  uint256 timeElapsed */\n      dup1\n        /* \"contracts/DutchAuction.sol\":1165:1172  startAt */\n      immutable(\"0x81e080ffc23e8b8d44dd829bc823229e92b893eb1d8f624419d3f5682eb97fc3\")\n        /* \"contracts/DutchAuction.sol\":1147:1162  block.timestamp */\n      timestamp\n        /* \"contracts/DutchAuction.sol\":1147:1172  block.timestamp - startAt */\n      tag_50\n      swap2\n      swap1\n      tag_51\n      jump\t// in\n    tag_50:\n        /* \"contracts/DutchAuction.sol\":1125:1172  uint256 timeElapsed = block.timestamp - startAt */\n      swap1\n      pop\n        /* \"contracts/DutchAuction.sol\":1182:1198  uint256 discount */\n      0x00\n        /* \"contracts/DutchAuction.sol\":1216:1227  timeElapsed */\n      dup2\n        /* \"contracts/DutchAuction.sol\":1201:1213  discountRate */\n      immutable(\"0x7749cc8014201da2069c21d93ba99c584b6f62d393fde534ed47eac227e31561\")\n        /* \"contracts/DutchAuction.sol\":1201:1227  discountRate * timeElapsed */\n      tag_52\n      swap2\n      swap1\n      tag_53\n      jump\t// in\n    tag_52:\n        /* \"contracts/DutchAuction.sol\":1182:1227  uint256 discount = discountRate * timeElapsed */\n      swap1\n      pop\n        /* \"contracts/DutchAuction.sol\":1260:1268  discount */\n      dup1\n        /* \"contracts/DutchAuction.sol\":1244:1257  startingPrice */\n      immutable(\"0x1572b593c53d839d80004aa4b8c51211864104f06ace9e22be9c4365b50655ea\")\n        /* \"contracts/DutchAuction.sol\":1244:1268  startingPrice - discount */\n      tag_54\n      swap2\n      swap1\n      tag_51\n      jump\t// in\n    tag_54:\n        /* \"contracts/DutchAuction.sol\":1237:1268  return startingPrice - discount */\n      swap3\n      pop\n      pop\n      pop\n        /* \"contracts/DutchAuction.sol\":1065:1275  function getPrice() public view returns (uint256) {... */\n      swap1\n      jump\t// out\n        /* \"contracts/DutchAuction.sol\":1281:1688  function buy() external payable {... */\n    tag_32:\n        /* \"contracts/DutchAuction.sol\":1349:1358  expiresAt */\n      immutable(\"0x58a280f74f57bf051c40f060139dc747e015be52f68c57e2c4ab2e4bd4146f43\")\n        /* \"contracts/DutchAuction.sol\":1331:1346  block.timestamp */\n      timestamp\n        /* \"contracts/DutchAuction.sol\":1331:1358  block.timestamp < expiresAt */\n      lt\n        /* \"contracts/DutchAuction.sol\":1323:1378  require(block.timestamp < expiresAt, \"auction expired\") */\n      tag_56\n      jumpi\n      mload(0x40)\n      0x08c379a000000000000000000000000000000000000000000000000000000000\n      dup2\n      mstore\n      0x04\n      add\n      tag_57\n      swap1\n      tag_58\n      jump\t// in\n    tag_57:\n      mload(0x40)\n      dup1\n      swap2\n      sub\n      swap1\n      revert\n    tag_56:\n        /* \"contracts/DutchAuction.sol\":1389:1402  uint256 price */\n      0x00\n        /* \"contracts/DutchAuction.sol\":1405:1415  getPrice() */\n      tag_59\n        /* \"contracts/DutchAuction.sol\":1405:1413  getPrice */\n      tag_29\n        /* \"contracts/DutchAuction.sol\":1405:1415  getPrice() */\n      jump\t// in\n    tag_59:\n        /* \"contracts/DutchAuction.sol\":1389:1415  uint256 price = getPrice() */\n      swap1\n      pop\n        /* \"contracts/DutchAuction.sol\":1446:1451  price */\n      dup1\n        /* \"contracts/DutchAuction.sol\":1433:1442  msg.value */\n      callvalue\n        /* \"contracts/DutchAuction.sol\":1433:1451  msg.value >= price */\n      lt\n      iszero\n        /* \"contracts/DutchAuction.sol\":1425:1467  require(msg.value >= price, \"ETH < price\") */\n      tag_60\n      jumpi\n      mload(0x40)\n      0x08c379a000000000000000000000000000000000000000000000000000000000\n      dup2\n      mstore\n      0x04\n      add\n      tag_61\n      swap1\n      tag_62\n      jump\t// in\n    tag_61:\n      mload(0x40)\n      dup1\n      swap2\n      sub\n      swap1\n      revert\n    tag_60:\n        /* \"contracts/DutchAuction.sol\":1478:1481  nft */\n      immutable(\"0x8e8fab5f003314da8d1873ea7720e8d9f47650136d916064d1edb8a11d682624\")\n        /* \"contracts/DutchAuction.sol\":1478:1494  nft.transferFrom */\n      0xffffffffffffffffffffffffffffffffffffffff\n      and\n      0x23b872dd\n        /* \"contracts/DutchAuction.sol\":1495:1501  seller */\n      immutable(\"0xf4c2b5de886427473655d4c904c743576dc2d53249b7535d96c06cc97ae7216b\")\n        /* \"contracts/DutchAuction.sol\":1503:1513  msg.sender */\n      caller\n        /* \"contracts/DutchAuction.sol\":1515:1520  nftId */\n      immutable(\"0x939eb54753ed0cc7e2272bfb34cbe098308c93936ed54d79078f76ade0b2e789\")\n        /* \"contracts/DutchAuction.sol\":1478:1521  nft.transferFrom(seller, msg.sender, nftId) */\n      mload(0x40)\n      dup5\n      0xffffffff\n      and\n      0xe0\n      shl\n      dup2\n      mstore\n      0x04\n      add\n      tag_63\n      swap4\n      swap3\n      swap2\n      swap1\n      tag_64\n      jump\t// in\n    tag_63:\n      0x00\n      mload(0x40)\n      dup1\n      dup4\n      sub\n      dup2\n      0x00\n      dup8\n      dup1\n      extcodesize\n      iszero\n      dup1\n      iszero\n      tag_65\n      jumpi\n      0x00\n      dup1\n      revert\n    tag_65:\n      pop\n      gas\n      call\n      iszero\n      dup1\n      iszero\n      tag_67\n      jumpi\n      returndatasize\n      0x00\n      dup1\n      returndatacopy\n      revert(0x00, returndatasize)\n    tag_67:\n      pop\n      pop\n      pop\n      pop\n        /* \"contracts/DutchAuction.sol\":1531:1545  uint256 refund */\n      0x00\n        /* \"contracts/DutchAuction.sol\":1560:1565  price */\n      dup2\n        /* \"contracts/DutchAuction.sol\":1548:1557  msg.value */\n      callvalue\n        /* \"contracts/DutchAuction.sol\":1548:1565  msg.value - price */\n      tag_68\n      swap2\n      swap1\n      tag_51\n      jump\t// in\n    tag_68:\n        /* \"contracts/DutchAuction.sol\":1531:1565  uint256 refund = msg.value - price */\n      swap1\n      pop\n        /* \"contracts/DutchAuction.sol\":1588:1589  0 */\n      0x00\n        /* \"contracts/DutchAuction.sol\":1579:1585  refund */\n      dup2\n        /* \"contracts/DutchAuction.sol\":1579:1589  refund > 0 */\n      gt\n        /* \"contracts/DutchAuction.sol\":1575:1652  if (refund > 0) {... */\n      iszero\n      tag_69\n      jumpi\n        /* \"contracts/DutchAuction.sol\":1613:1623  msg.sender */\n      caller\n        /* \"contracts/DutchAuction.sol\":1605:1633  payable(msg.sender).transfer */\n      0xffffffffffffffffffffffffffffffffffffffff\n      and\n        /* \"contracts/DutchAuction.sol\":1605:1641  payable(msg.sender).transfer(refund) */\n      0x08fc\n        /* \"contracts/DutchAuction.sol\":1634:1640  refund */\n      dup3\n        /* \"contracts/DutchAuction.sol\":1605:1641  payable(msg.sender).transfer(refund) */\n      swap1\n      dup2\n      iszero\n      mul\n      swap1\n      mload(0x40)\n      0x00\n      mload(0x40)\n      dup1\n      dup4\n      sub\n      dup2\n      dup6\n      dup9\n      dup9\n      call\n      swap4\n      pop\n      pop\n      pop\n      pop\n      iszero\n      dup1\n      iszero\n      tag_71\n      jumpi\n      returndatasize\n      0x00\n      dup1\n      returndatacopy\n      revert(0x00, returndatasize)\n    tag_71:\n      pop\n        /* \"contracts/DutchAuction.sol\":1575:1652  if (refund > 0) {... */\n    tag_69:\n        /* \"contracts/DutchAuction.sol\":1674:1680  seller */\n      immutable(\"0xf4c2b5de886427473655d4c904c743576dc2d53249b7535d96c06cc97ae7216b\")\n        /* \"contracts/DutchAuction.sol\":1661:1681  selfdestruct(seller) */\n      0xffffffffffffffffffffffffffffffffffffffff\n      and\n      selfdestruct\n        /* \"contracts/DutchAuction.sol\":304:334  uint256 public immutable nftId */\n    tag_35:\n      immutable(\"0x939eb54753ed0cc7e2272bfb34cbe098308c93936ed54d79078f76ade0b2e789\")\n      dup2\n      jump\t// out\n        /* \"contracts/DutchAuction.sol\":430:462  uint256 public immutable startAt */\n    tag_39:\n      immutable(\"0x81e080ffc23e8b8d44dd829bc823229e92b893eb1d8f624419d3f5682eb97fc3\")\n      dup2\n      jump\t// out\n        /* \"contracts/DutchAuction.sol\":386:424  uint256 public immutable startingPrice */\n    tag_43:\n      immutable(\"0x1572b593c53d839d80004aa4b8c51211864104f06ace9e22be9c4365b50655ea\")\n      dup2\n      jump\t// out\n        /* \"contracts/DutchAuction.sol\":508:545  uint256 public immutable discountRate */\n    tag_47:\n      immutable(\"0x7749cc8014201da2069c21d93ba99c584b6f62d393fde534ed47eac227e31561\")\n      dup2\n      jump\t// out\n        /* \"#utility.yul\":7:154   */\n    tag_73:\n        /* \"#utility.yul\":102:147   */\n      tag_75\n        /* \"#utility.yul\":141:146   */\n      dup2\n        /* \"#utility.yul\":102:147   */\n      tag_76\n      jump\t// in\n    tag_75:\n        /* \"#utility.yul\":97:100   */\n      dup3\n        /* \"#utility.yul\":90:148   */\n      mstore\n        /* \"#utility.yul\":7:154   */\n      pop\n      pop\n      jump\t// out\n        /* \"#utility.yul\":160:302   */\n    tag_77:\n        /* \"#utility.yul\":263:295   */\n      tag_79\n        /* \"#utility.yul\":289:294   */\n      dup2\n        /* \"#utility.yul\":263:295   */\n      tag_80\n      jump\t// in\n    tag_79:\n        /* \"#utility.yul\":258:261   */\n      dup3\n        /* \"#utility.yul\":251:296   */\n      mstore\n        /* \"#utility.yul\":160:302   */\n      pop\n      pop\n      jump\t// out\n        /* \"#utility.yul\":308:426   */\n    tag_81:\n        /* \"#utility.yul\":395:419   */\n      tag_83\n        /* \"#utility.yul\":413:418   */\n      dup2\n        /* \"#utility.yul\":395:419   */\n      tag_84\n      jump\t// in\n    tag_83:\n        /* \"#utility.yul\":390:393   */\n      dup3\n        /* \"#utility.yul\":383:420   */\n      mstore\n        /* \"#utility.yul\":308:426   */\n      pop\n      pop\n      jump\t// out\n        /* \"#utility.yul\":432:591   */\n    tag_85:\n        /* \"#utility.yul\":533:584   */\n      tag_87\n        /* \"#utility.yul\":578:583   */\n      dup2\n        /* \"#utility.yul\":533:584   */\n      tag_88\n      jump\t// in\n    tag_87:\n        /* \"#utility.yul\":528:531   */\n      dup3\n        /* \"#utility.yul\":521:585   */\n      mstore\n        /* \"#utility.yul\":432:591   */\n      pop\n      pop\n      jump\t// out\n        /* \"#utility.yul\":597:963   */\n    tag_89:\n        /* \"#utility.yul\":739:742   */\n      0x00\n        /* \"#utility.yul\":760:827   */\n      tag_91\n        /* \"#utility.yul\":824:826   */\n      0x0b\n        /* \"#utility.yul\":819:822   */\n      dup4\n        /* \"#utility.yul\":760:827   */\n      tag_92\n      jump\t// in\n    tag_91:\n        /* \"#utility.yul\":753:827   */\n      swap2\n      pop\n        /* \"#utility.yul\":836:929   */\n      tag_93\n        /* \"#utility.yul\":925:928   */\n      dup3\n        /* \"#utility.yul\":836:929   */\n      tag_94\n      jump\t// in\n    tag_93:\n        /* \"#utility.yul\":954:956   */\n      0x20\n        /* \"#utility.yul\":949:952   */\n      dup3\n        /* \"#utility.yul\":945:957   */\n      add\n        /* \"#utility.yul\":938:957   */\n      swap1\n      pop\n        /* \"#utility.yul\":597:963   */\n      swap2\n      swap1\n      pop\n      jump\t// out\n        /* \"#utility.yul\":969:1335   */\n    tag_95:\n        /* \"#utility.yul\":1111:1114   */\n      0x00\n        /* \"#utility.yul\":1132:1199   */\n      tag_97\n        /* \"#utility.yul\":1196:1198   */\n      0x0f\n        /* \"#utility.yul\":1191:1194   */\n      dup4\n        /* \"#utility.yul\":1132:1199   */\n      tag_92\n      jump\t// in\n    tag_97:\n        /* \"#utility.yul\":1125:1199   */\n      swap2\n      pop\n        /* \"#utility.yul\":1208:1301   */\n      tag_98\n        /* \"#utility.yul\":1297:1300   */\n      dup3\n        /* \"#utility.yul\":1208:1301   */\n      tag_99\n      jump\t// in\n    tag_98:\n        /* \"#utility.yul\":1326:1328   */\n      0x20\n        /* \"#utility.yul\":1321:1324   */\n      dup3\n        /* \"#utility.yul\":1317:1329   */\n      add\n        /* \"#utility.yul\":1310:1329   */\n      swap1\n      pop\n        /* \"#utility.yul\":969:1335   */\n      swap2\n      swap1\n      pop\n      jump\t// out\n        /* \"#utility.yul\":1341:1459   */\n    tag_100:\n        /* \"#utility.yul\":1428:1452   */\n      tag_102\n        /* \"#utility.yul\":1446:1451   */\n      dup2\n        /* \"#utility.yul\":1428:1452   */\n      tag_103\n      jump\t// in\n    tag_102:\n        /* \"#utility.yul\":1423:1426   */\n      dup3\n        /* \"#utility.yul\":1416:1453   */\n      mstore\n        /* \"#utility.yul\":1341:1459   */\n      pop\n      pop\n      jump\t// out\n        /* \"#utility.yul\":1465:1719   */\n    tag_16:\n        /* \"#utility.yul\":1574:1578   */\n      0x00\n        /* \"#utility.yul\":1612:1614   */\n      0x20\n        /* \"#utility.yul\":1601:1610   */\n      dup3\n        /* \"#utility.yul\":1597:1615   */\n      add\n        /* \"#utility.yul\":1589:1615   */\n      swap1\n      pop\n        /* \"#utility.yul\":1625:1712   */\n      tag_105\n        /* \"#utility.yul\":1709:1710   */\n      0x00\n        /* \"#utility.yul\":1698:1707   */\n      dup4\n        /* \"#utility.yul\":1694:1711   */\n      add\n        /* \"#utility.yul\":1685:1691   */\n      dup5\n        /* \"#utility.yul\":1625:1712   */\n      tag_77\n      jump\t// in\n    tag_105:\n        /* \"#utility.yul\":1465:1719   */\n      swap3\n      swap2\n      pop\n      pop\n      jump\t// out\n        /* \"#utility.yul\":1725:2183   */\n    tag_64:\n        /* \"#utility.yul\":1882:1886   */\n      0x00\n        /* \"#utility.yul\":1920:1922   */\n      0x60\n        /* \"#utility.yul\":1909:1918   */\n      dup3\n        /* \"#utility.yul\":1905:1923   */\n      add\n        /* \"#utility.yul\":1897:1923   */\n      swap1\n      pop\n        /* \"#utility.yul\":1933:2012   */\n      tag_107\n        /* \"#utility.yul\":2009:2010   */\n      0x00\n        /* \"#utility.yul\":1998:2007   */\n      dup4\n        /* \"#utility.yul\":1994:2011   */\n      add\n        /* \"#utility.yul\":1985:1991   */\n      dup7\n        /* \"#utility.yul\":1933:2012   */\n      tag_73\n      jump\t// in\n    tag_107:\n        /* \"#utility.yul\":2022:2094   */\n      tag_108\n        /* \"#utility.yul\":2090:2092   */\n      0x20\n        /* \"#utility.yul\":2079:2088   */\n      dup4\n        /* \"#utility.yul\":2075:2093   */\n      add\n        /* \"#utility.yul\":2066:2072   */\n      dup6\n        /* \"#utility.yul\":2022:2094   */\n      tag_81\n      jump\t// in\n    tag_108:\n        /* \"#utility.yul\":2104:2176   */\n      tag_109\n        /* \"#utility.yul\":2172:2174   */\n      0x40\n        /* \"#utility.yul\":2161:2170   */\n      dup4\n        /* \"#utility.yul\":2157:2175   */\n      add\n        /* \"#utility.yul\":2148:2154   */\n      dup5\n        /* \"#utility.yul\":2104:2176   */\n      tag_100\n      jump\t// in\n    tag_109:\n        /* \"#utility.yul\":1725:2183   */\n      swap5\n      swap4\n      pop\n      pop\n      pop\n      pop\n      jump\t// out\n        /* \"#utility.yul\":2189:2439   */\n    tag_21:\n        /* \"#utility.yul\":2296:2300   */\n      0x00\n        /* \"#utility.yul\":2334:2336   */\n      0x20\n        /* \"#utility.yul\":2323:2332   */\n      dup3\n        /* \"#utility.yul\":2319:2337   */\n      add\n        /* \"#utility.yul\":2311:2337   */\n      swap1\n      pop\n        /* \"#utility.yul\":2347:2432   */\n      tag_111\n        /* \"#utility.yul\":2429:2430   */\n      0x00\n        /* \"#utility.yul\":2418:2427   */\n      dup4\n        /* \"#utility.yul\":2414:2431   */\n      add\n        /* \"#utility.yul\":2405:2411   */\n      dup5\n        /* \"#utility.yul\":2347:2432   */\n      tag_85\n      jump\t// in\n    tag_111:\n        /* \"#utility.yul\":2189:2439   */\n      swap3\n      swap2\n      pop\n      pop\n      jump\t// out\n        /* \"#utility.yul\":2445:2864   */\n    tag_62:\n        /* \"#utility.yul\":2611:2615   */\n      0x00\n        /* \"#utility.yul\":2649:2651   */\n      0x20\n        /* \"#utility.yul\":2638:2647   */\n      dup3\n        /* \"#utility.yul\":2634:2652   */\n      add\n        /* \"#utility.yul\":2626:2652   */\n      swap1\n      pop\n        /* \"#utility.yul\":2698:2707   */\n      dup2\n        /* \"#utility.yul\":2692:2696   */\n      dup2\n        /* \"#utility.yul\":2688:2708   */\n      sub\n        /* \"#utility.yul\":2684:2685   */\n      0x00\n        /* \"#utility.yul\":2673:2682   */\n      dup4\n        /* \"#utility.yul\":2669:2686   */\n      add\n        /* \"#utility.yul\":2662:2709   */\n      mstore\n        /* \"#utility.yul\":2726:2857   */\n      tag_113\n        /* \"#utility.yul\":2852:2856   */\n      dup2\n        /* \"#utility.yul\":2726:2857   */\n      tag_89\n      jump\t// in\n    tag_113:\n        /* \"#utility.yul\":2718:2857   */\n      swap1\n      pop\n        /* \"#utility.yul\":2445:2864   */\n      swap2\n      swap1\n      pop\n      jump\t// out\n        /* \"#utility.yul\":2870:3289   */\n    tag_58:\n        /* \"#utility.yul\":3036:3040   */\n      0x00\n        /* \"#utility.yul\":3074:3076   */\n      0x20\n        /* \"#utility.yul\":3063:3072   */\n      dup3\n        /* \"#utility.yul\":3059:3077   */\n      add\n        /* \"#utility.yul\":3051:3077   */\n      swap1\n      pop\n        /* \"#utility.yul\":3123:3132   */\n      dup2\n        /* \"#utility.yul\":3117:3121   */\n      dup2\n        /* \"#utility.yul\":3113:3133   */\n      sub\n        /* \"#utility.yul\":3109:3110   */\n      0x00\n        /* \"#utility.yul\":3098:3107   */\n      dup4\n        /* \"#utility.yul\":3094:3111   */\n      add\n        /* \"#utility.yul\":3087:3134   */\n      mstore\n        /* \"#utility.yul\":3151:3282   */\n      tag_115\n        /* \"#utility.yul\":3277:3281   */\n      dup2\n        /* \"#utility.yul\":3151:3282   */\n      tag_95\n      jump\t// in\n    tag_115:\n        /* \"#utility.yul\":3143:3282   */\n      swap1\n      pop\n        /* \"#utility.yul\":2870:3289   */\n      swap2\n      swap1\n      pop\n      jump\t// out\n        /* \"#utility.yul\":3295:3517   */\n    tag_26:\n        /* \"#utility.yul\":3388:3392   */\n      0x00\n        /* \"#utility.yul\":3426:3428   */\n      0x20\n        /* \"#utility.yul\":3415:3424   */\n      dup3\n        /* \"#utility.yul\":3411:3429   */\n      add\n        /* \"#utility.yul\":3403:3429   */\n      swap1\n      pop\n        /* \"#utility.yul\":3439:3510   */\n      tag_117\n        /* \"#utility.yul\":3507:3508   */\n      0x00\n        /* \"#utility.yul\":3496:3505   */\n      dup4\n        /* \"#utility.yul\":3492:3509   */\n      add\n        /* \"#utility.yul\":3483:3489   */\n      dup5\n        /* \"#utility.yul\":3439:3510   */\n      tag_100\n      jump\t// in\n    tag_117:\n        /* \"#utility.yul\":3295:3517   */\n      swap3\n      swap2\n      pop\n      pop\n      jump\t// out\n        /* \"#utility.yul\":3523:3692   */\n    tag_92:\n        /* \"#utility.yul\":3607:3618   */\n      0x00\n        /* \"#utility.yul\":3641:3647   */\n      dup3\n        /* \"#utility.yul\":3636:3639   */\n      dup3\n        /* \"#utility.yul\":3629:3648   */\n      mstore\n        /* \"#utility.yul\":3681:3685   */\n      0x20\n        /* \"#utility.yul\":3676:3679   */\n      dup3\n        /* \"#utility.yul\":3672:3686   */\n      add\n        /* \"#utility.yul\":3657:3686   */\n      swap1\n      pop\n        /* \"#utility.yul\":3523:3692   */\n      swap3\n      swap2\n      pop\n      pop\n      jump\t// out\n        /* \"#utility.yul\":3698:4046   */\n    tag_53:\n        /* \"#utility.yul\":3738:3745   */\n      0x00\n        /* \"#utility.yul\":3761:3781   */\n      tag_120\n        /* \"#utility.yul\":3779:3780   */\n      dup3\n        /* \"#utility.yul\":3761:3781   */\n      tag_103\n      jump\t// in\n    tag_120:\n        /* \"#utility.yul\":3756:3781   */\n      swap2\n      pop\n        /* \"#utility.yul\":3795:3815   */\n      tag_121\n        /* \"#utility.yul\":3813:3814   */\n      dup4\n        /* \"#utility.yul\":3795:3815   */\n      tag_103\n      jump\t// in\n    tag_121:\n        /* \"#utility.yul\":3790:3815   */\n      swap3\n      pop\n        /* \"#utility.yul\":3983:3984   */\n      dup2\n        /* \"#utility.yul\":3915:3981   */\n      0xffffffffffffffffffffffffffffffffffffffffffffffffffffffffffffffff\n        /* \"#utility.yul\":3911:3985   */\n      div\n        /* \"#utility.yul\":3908:3909   */\n      dup4\n        /* \"#utility.yul\":3905:3986   */\n      gt\n        /* \"#utility.yul\":3900:3901   */\n      dup3\n        /* \"#utility.yul\":3893:3902   */\n      iszero\n        /* \"#utility.yul\":3886:3903   */\n      iszero\n        /* \"#utility.yul\":3882:3987   */\n      and\n        /* \"#utility.yul\":3879:4010   */\n      iszero\n      tag_122\n      jumpi\n        /* \"#utility.yul\":3990:4008   */\n      tag_123\n      tag_124\n      jump\t// in\n    tag_123:\n        /* \"#utility.yul\":3879:4010   */\n    tag_122:\n        /* \"#utility.yul\":4038:4039   */\n      dup3\n        /* \"#utility.yul\":4035:4036   */\n      dup3\n        /* \"#utility.yul\":4031:4040   */\n      mul\n        /* \"#utility.yul\":4020:4040   */\n      swap1\n      pop\n        /* \"#utility.yul\":3698:4046   */\n      swap3\n      swap2\n      pop\n      pop\n      jump\t// out\n        /* \"#utility.yul\":4052:4243   */\n    tag_51:\n        /* \"#utility.yul\":4092:4096   */\n      0x00\n        /* \"#utility.yul\":4112:4132   */\n      tag_126\n        /* \"#utility.yul\":4130:4131   */\n      dup3\n        /* \"#utility.yul\":4112:4132   */\n      tag_103\n      jump\t// in\n    tag_126:\n        /* \"#utility.yul\":4107:4132   */\n      swap2\n      pop\n        /* \"#utility.yul\":4146:4166   */\n      tag_127\n        /* \"#utility.yul\":4164:4165   */\n      dup4\n        /* \"#utility.yul\":4146:4166   */\n      tag_103\n      jump\t// in\n    tag_127:\n        /* \"#utility.yul\":4141:4166   */\n      swap3\n      pop\n        /* \"#utility.yul\":4185:4186   */\n      dup3\n        /* \"#utility.yul\":4182:4183   */\n      dup3\n        /* \"#utility.yul\":4179:4187   */\n      lt\n        /* \"#utility.yul\":4176:4210   */\n      iszero\n      tag_128\n      jumpi\n        /* \"#utility.yul\":4190:4208   */\n      tag_129\n      tag_124\n      jump\t// in\n    tag_129:\n        /* \"#utility.yul\":4176:4210   */\n    tag_128:\n        /* \"#utility.yul\":4235:4236   */\n      dup3\n        /* \"#utility.yul\":4232:4233   */\n      dup3\n        /* \"#utility.yul\":4228:4237   */\n      sub\n        /* \"#utility.yul\":4220:4237   */\n      swap1\n      pop\n        /* \"#utility.yul\":4052:4243   */\n      swap3\n      swap2\n      pop\n      pop\n      jump\t// out\n        /* \"#utility.yul\":4249:4345   */\n    tag_84:\n        /* \"#utility.yul\":4286:4293   */\n      0x00\n        /* \"#utility.yul\":4315:4339   */\n      tag_131\n        /* \"#utility.yul\":4333:4338   */\n      dup3\n        /* \"#utility.yul\":4315:4339   */\n      tag_132\n      jump\t// in\n    tag_131:\n        /* \"#utility.yul\":4304:4339   */\n      swap1\n      pop\n        /* \"#utility.yul\":4249:4345   */\n      swap2\n      swap1\n      pop\n      jump\t// out\n        /* \"#utility.yul\":4351:4455   */\n    tag_80:\n        /* \"#utility.yul\":4396:4403   */\n      0x00\n        /* \"#utility.yul\":4425:4449   */\n      tag_134\n        /* \"#utility.yul\":4443:4448   */\n      dup3\n        /* \"#utility.yul\":4425:4449   */\n      tag_132\n      jump\t// in\n    tag_134:\n        /* \"#utility.yul\":4414:4449   */\n      swap1\n      pop\n        /* \"#utility.yul\":4351:4455   */\n      swap2\n      swap1\n      pop\n      jump\t// out\n        /* \"#utility.yul\":4461:4587   */\n    tag_132:\n        /* \"#utility.yul\":4498:4505   */\n      0x00\n        /* \"#utility.yul\":4538:4580   */\n      0xffffffffffffffffffffffffffffffffffffffff\n        /* \"#utility.yul\":4531:4536   */\n      dup3\n        /* \"#utility.yul\":4527:4581   */\n      and\n        /* \"#utility.yul\":4516:4581   */\n      swap1\n      pop\n        /* \"#utility.yul\":4461:4587   */\n      swap2\n      swap1\n      pop\n      jump\t// out\n        /* \"#utility.yul\":4593:4670   */\n    tag_103:\n        /* \"#utility.yul\":4630:4637   */\n      0x00\n        /* \"#utility.yul\":4659:4664   */\n      dup2\n        /* \"#utility.yul\":4648:4664   */\n      swap1\n      pop\n        /* \"#utility.yul\":4593:4670   */\n      swap2\n      swap1\n      pop\n      jump\t// out\n        /* \"#utility.yul\":4676:4810   */\n    tag_76:\n        /* \"#utility.yul\":4734:4743   */\n      0x00\n        /* \"#utility.yul\":4767:4804   */\n      tag_138\n        /* \"#utility.yul\":4798:4803   */\n      dup3\n        /* \"#utility.yul\":4767:4804   */\n      tag_139\n      jump\t// in\n    tag_138:\n        /* \"#utility.yul\":4754:4804   */\n      swap1\n      pop\n        /* \"#utility.yul\":4676:4810   */\n      swap2\n      swap1\n      pop\n      jump\t// out\n        /* \"#utility.yul\":4816:4956   */\n    tag_88:\n        /* \"#utility.yul\":4880:4889   */\n      0x00\n        /* \"#utility.yul\":4913:4950   */\n      tag_141\n        /* \"#utility.yul\":4944:4949   */\n      dup3\n        /* \"#utility.yul\":4913:4950   */\n      tag_139\n      jump\t// in\n    tag_141:\n        /* \"#utility.yul\":4900:4950   */\n      swap1\n      pop\n        /* \"#utility.yul\":4816:4956   */\n      swap2\n      swap1\n      pop\n      jump\t// out\n        /* \"#utility.yul\":4962:5088   */\n    tag_139:\n        /* \"#utility.yul\":5012:5021   */\n      0x00\n        /* \"#utility.yul\":5045:5082   */\n      tag_143\n        /* \"#utility.yul\":5076:5081   */\n      dup3\n        /* \"#utility.yul\":5045:5082   */\n      tag_144\n      jump\t// in\n    tag_143:\n        /* \"#utility.yul\":5032:5082   */\n      swap1\n      pop\n        /* \"#utility.yul\":4962:5088   */\n      swap2\n      swap1\n      pop\n      jump\t// out\n        /* \"#utility.yul\":5094:5207   */\n    tag_144:\n        /* \"#utility.yul\":5144:5153   */\n      0x00\n        /* \"#utility.yul\":5177:5201   */\n      tag_146\n        /* \"#utility.yul\":5195:5200   */\n      dup3\n        /* \"#utility.yul\":5177:5201   */\n      tag_132\n      jump\t// in\n    tag_146:\n        /* \"#utility.yul\":5164:5201   */\n      swap1\n      pop\n        /* \"#utility.yul\":5094:5207   */\n      swap2\n      swap1\n      pop\n      jump\t// out\n        /* \"#utility.yul\":5213:5393   */\n    tag_124:\n        /* \"#utility.yul\":5261:5338   */\n      0x4e487b7100000000000000000000000000000000000000000000000000000000\n        /* \"#utility.yul\":5258:5259   */\n      0x00\n        /* \"#utility.yul\":5251:5339   */\n      mstore\n        /* \"#utility.yul\":5358:5362   */\n      0x11\n        /* \"#utility.yul\":5355:5356   */\n      0x04\n        /* \"#utility.yul\":5348:5363   */\n      mstore\n        /* \"#utility.yul\":5382:5386   */\n      0x24\n        /* \"#utility.yul\":5379:5380   */\n      0x00\n        /* \"#utility.yul\":5372:5387   */\n      revert\n        /* \"#utility.yul\":5399:5560   */\n    tag_94:\n        /* \"#utility.yul\":5539:5552   */\n      0x455448203c207072696365000000000000000000000000000000000000000000\n        /* \"#utility.yul\":5535:5536   */\n      0x00\n        /* \"#utility.yul\":5527:5533   */\n      dup3\n        /* \"#utility.yul\":5523:5537   */\n      add\n        /* \"#utility.yul\":5516:5553   */\n      mstore\n        /* \"#utility.yul\":5399:5560   */\n      pop\n      jump\t// out\n        /* \"#utility.yul\":5566:5731   */\n    tag_99:\n        /* \"#utility.yul\":5706:5723   */\n      0x61756374696f6e20657870697265640000000000000000000000000000000000\n        /* \"#utility.yul\":5702:5703   */\n      0x00\n        /* \"#utility.yul\":5694:5700   */\n      dup3\n        /* \"#utility.yul\":5690:5704   */\n      add\n        /* \"#utility.yul\":5683:5724   */\n      mstore\n        /* \"#utility.yul\":5566:5731   */\n      pop\n      jump\t// out\n\n    auxdata: 0xa264697066735822122094186e56eac105db9e6964acbe267f054a3b50f377d132eb9e6624260d6534aa64736f6c63430008070033\n}\n",
				"bytecode": {
					"linkReferences": {},
					"object": "6101606040523480156200001257600080fd5b5060405162000d3b38038062000d3b83398181016040528101906200003891906200016d565b3373ffffffffffffffffffffffffffffffffffffffff1660c08173ffffffffffffffffffffffffffffffffffffffff1660601b815250508360e081815250504261010081815250506101a44262000090919062000239565b61012081815250508261014081815250506101a483620000b1919062000296565b841015620000f6576040517f08c379a0000000000000000000000000000000000000000000000000000000008152600401620000ed9062000206565b60405180910390fd5b8173ffffffffffffffffffffffffffffffffffffffff1660808173ffffffffffffffffffffffffffffffffffffffff1660601b815250508060a0818152505050505050620003c6565b600081519050620001508162000392565b92915050565b6000815190506200016781620003ac565b92915050565b600080600080608085870312156200018a576200018962000364565b5b60006200019a8782880162000156565b9450506020620001ad8782880162000156565b9350506040620001c0878288016200013f565b9250506060620001d38782880162000156565b91505092959194509250565b6000620001ee60148362000228565b9150620001fb8262000369565b602082019050919050565b600060208201905081810360008301526200022181620001df565b9050919050565b600082825260208201905092915050565b600062000246826200032b565b915062000253836200032b565b9250827fffffffffffffffffffffffffffffffffffffffffffffffffffffffffffffffff038211156200028b576200028a62000335565b5b828201905092915050565b6000620002a3826200032b565b9150620002b0836200032b565b9250817fffffffffffffffffffffffffffffffffffffffffffffffffffffffffffffffff0483118215151615620002ec57620002eb62000335565b5b828202905092915050565b600062000304826200030b565b9050919050565b600073ffffffffffffffffffffffffffffffffffffffff82169050919050565b6000819050919050565b7f4e487b7100000000000000000000000000000000000000000000000000000000600052601160045260246000fd5b600080fd5b7f7374617274696e67207072696365203c206d696e000000000000000000000000600082015250565b6200039d81620002f7565b8114620003a957600080fd5b50565b620003b7816200032b565b8114620003c357600080fd5b50565b60805160601c60a05160c05160601c60e0516101005161012051610140516108dc6200045f6000396000818161028f015261057501526000818161023701526102ef01526000818161025e015261052d0152600081816102bd01526105510152600081816101ef015281816103dc01526104d00152600081816103fe015261050901526000818161021301526103a001526108dc6000f3fe6080604052600436106100865760003560e01c8063a6f2ae3a11610059578063a6f2ae3a14610137578063c6bc518214610141578063c74465651461016c578063d6fbf20214610197578063e6c0e6d5146101c257610086565b806308551a531461008b57806347ccca02146100b65780638622a689146100e157806398d5fdca1461010c575b600080fd5b34801561009757600080fd5b506100a06101ed565b6040516100ad9190610628565b60405180910390f35b3480156100c257600080fd5b506100cb610211565b6040516100d8919061067a565b60405180910390f35b3480156100ed57600080fd5b506100f6610235565b60405161010391906106d5565b60405180910390f35b34801561011857600080fd5b50610121610259565b60405161012e91906106d5565b60405180910390f35b61013f6102ed565b005b34801561014d57600080fd5b50610156610507565b60405161016391906106d5565b60405180910390f35b34801561017857600080fd5b5061018161052b565b60405161018e91906106d5565b60405180910390f35b3480156101a357600080fd5b506101ac61054f565b6040516101b991906106d5565b60405180910390f35b3480156101ce57600080fd5b506101d7610573565b6040516101e491906106d5565b60405180910390f35b7f000000000000000000000000000000000000000000000000000000000000000081565b7f000000000000000000000000000000000000000000000000000000000000000081565b7f000000000000000000000000000000000000000000000000000000000000000081565b6000807f000000000000000000000000000000000000000000000000000000000000000042610288919061075b565b90506000817f00000000000000000000000000000000000000000000000000000000000000006102b89190610701565b9050807f00000000000000000000000000000000000000000000000000000000000000006102e6919061075b565b9250505090565b7f0000000000000000000000000000000000000000000000000000000000000000421061034f576040517f08c379a0000000000000000000000000000000000000000000000000000000008152600401610346906106b5565b60405180910390fd5b6000610359610259565b90508034101561039e576040517f08c379a000000000000000000000000000000000000000000000000000000000815260040161039590610695565b60405180910390fd5b7f000000000000000000000000000000000000000000000000000000000000000073ffffffffffffffffffffffffffffffffffffffff166323b872dd7f0000000000000000000000000000000000000000000000000000000000000000337f00000000000000000000000000000000000000000000000000000000000000006040518463ffffffff1660e01b815260040161043b93929190610643565b600060405180830381600087803b15801561045557600080fd5b505af1158015610469573d6000803e3d6000fd5b505050506000813461047b919061075b565b905060008111156104ce573373ffffffffffffffffffffffffffffffffffffffff166108fc829081150290604051600060405180830381858888f193505050501580156104cc573d6000803e3d6000fd5b505b7f000000000000000000000000000000000000000000000000000000000000000073ffffffffffffffffffffffffffffffffffffffff16ff5b7f000000000000000000000000000000000000000000000000000000000000000081565b7f000000000000000000000000000000000000000000000000000000000000000081565b7f000000000000000000000000000000000000000000000000000000000000000081565b7f000000000000000000000000000000000000000000000000000000000000000081565b6105a0816107dd565b82525050565b6105af816107a1565b82525050565b6105be8161078f565b82525050565b6105cd816107ef565b82525050565b60006105e0600b836106f0565b91506105eb82610854565b602082019050919050565b6000610603600f836106f0565b915061060e8261087d565b602082019050919050565b610622816107d3565b82525050565b600060208201905061063d60008301846105a6565b92915050565b60006060820190506106586000830186610597565b61066560208301856105b5565b6106726040830184610619565b949350505050565b600060208201905061068f60008301846105c4565b92915050565b600060208201905081810360008301526106ae816105d3565b9050919050565b600060208201905081810360008301526106ce816105f6565b9050919050565b60006020820190506106ea6000830184610619565b92915050565b600082825260208201905092915050565b600061070c826107d3565b9150610717836107d3565b9250817fffffffffffffffffffffffffffffffffffffffffffffffffffffffffffffffff04831182151516156107505761074f610825565b5b828202905092915050565b6000610766826107d3565b9150610771836107d3565b92508282101561078457610783610825565b5b828203905092915050565b600061079a826107b3565b9050919050565b60006107ac826107b3565b9050919050565b600073ffffffffffffffffffffffffffffffffffffffff82169050919050565b6000819050919050565b60006107e882610801565b9050919050565b60006107fa82610801565b9050919050565b600061080c82610813565b9050919050565b600061081e826107b3565b9050919050565b7f4e487b7100000000000000000000000000000000000000000000000000000000600052601160045260246000fd5b7f455448203c207072696365000000000000000000000000000000000000000000600082015250565b7f61756374696f6e2065787069726564000000000000000000000000000000000060008201525056fea264697066735822122094186e56eac105db9e6964acbe267f054a3b50f377d132eb9e6624260d6534aa64736f6c63430008070033",
					"opcodes": "PUSH2 0x160 PUSH1 0x40 MSTORE CALLVALUE DUP1 ISZERO PUSH3 0x12 JUMPI PUSH1 0x0 DUP1 REVERT JUMPDEST POP PUSH1 0x40 MLOAD PUSH3 0xD3B CODESIZE SUB DUP1 PUSH3 0xD3B DUP4 CODECOPY DUP2 DUP2 ADD PUSH1 0x40 MSTORE DUP2 ADD SWAP1 PUSH3 0x38 SWAP2 SWAP1 PUSH3 0x16D JUMP JUMPDEST CALLER PUSH20 0xFFFFFFFFFFFFFFFFFFFFFFFFFFFFFFFFFFFFFFFF AND PUSH1 0xC0 DUP2 PUSH20 0xFFFFFFFFFFFFFFFFFFFFFFFFFFFFFFFFFFFFFFFF AND PUSH1 0x60 SHL DUP2 MSTORE POP POP DUP4 PUSH1 0xE0 DUP2 DUP2 MSTORE POP POP TIMESTAMP PUSH2 0x100 DUP2 DUP2 MSTORE POP POP PUSH2 0x1A4 TIMESTAMP PUSH3 0x90 SWAP2 SWAP1 PUSH3 0x239 JUMP JUMPDEST PUSH2 0x120 DUP2 DUP2 MSTORE POP POP DUP3 PUSH2 0x140 DUP2 DUP2 MSTORE POP POP PUSH2 0x1A4 DUP4 PUSH3 0xB1 SWAP2 SWAP1 PUSH3 0x296 JUMP JUMPDEST DUP5 LT ISZERO PUSH3 0xF6 JUMPI PUSH1 0x40 MLOAD PUSH32 0x8C379A000000000000000000000000000000000000000000000000000000000 DUP2 MSTORE PUSH1 0x4 ADD PUSH3 0xED SWAP1 PUSH3 0x206 JUMP JUMPDEST PUSH1 0x40 MLOAD DUP1 SWAP2 SUB SWAP1 REVERT JUMPDEST DUP2 PUSH20 0xFFFFFFFFFFFFFFFFFFFFFFFFFFFFFFFFFFFFFFFF AND PUSH1 0x80 DUP2 PUSH20 0xFFFFFFFFFFFFFFFFFFFFFFFFFFFFFFFFFFFFFFFF AND PUSH1 0x60 SHL DUP2 MSTORE POP POP DUP1 PUSH1 0xA0 DUP2 DUP2 MSTORE POP POP POP POP POP POP PUSH3 0x3C6 JUMP JUMPDEST PUSH1 0x0 DUP2 MLOAD SWAP1 POP PUSH3 0x150 DUP2 PUSH3 0x392 JUMP JUMPDEST SWAP3 SWAP2 POP POP JUMP JUMPDEST PUSH1 0x0 DUP2 MLOAD SWAP1 POP PUSH3 0x167 DUP2 PUSH3 0x3AC JUMP JUMPDEST SWAP3 SWAP2 POP POP JUMP JUMPDEST PUSH1 0x0 DUP1 PUSH1 0x0 DUP1 PUSH1 0x80 DUP6 DUP8 SUB SLT ISZERO PUSH3 0x18A JUMPI PUSH3 0x189 PUSH3 0x364 JUMP JUMPDEST JUMPDEST PUSH1 0x0 PUSH3 0x19A DUP8 DUP3 DUP9 ADD PUSH3 0x156 JUMP JUMPDEST SWAP5 POP POP PUSH1 0x20 PUSH3 0x1AD DUP8 DUP3 DUP9 ADD PUSH3 0x156 JUMP JUMPDEST SWAP4 POP POP PUSH1 0x40 PUSH3 0x1C0 DUP8 DUP3 DUP9 ADD PUSH3 0x13F JUMP JUMPDEST SWAP3 POP POP PUSH1 0x60 PUSH3 0x1D3 DUP8 DUP3 DUP9 ADD PUSH3 0x156 JUMP JUMPDEST SWAP2 POP POP SWAP3 SWAP6 SWAP2 SWAP5 POP SWAP3 POP JUMP JUMPDEST PUSH1 0x0 PUSH3 0x1EE PUSH1 0x14 DUP4 PUSH3 0x228 JUMP JUMPDEST SWAP2 POP PUSH3 0x1FB DUP3 PUSH3 0x369 JUMP JUMPDEST PUSH1 0x20 DUP3 ADD SWAP1 POP SWAP2 SWAP1 POP JUMP JUMPDEST PUSH1 0x0 PUSH1 0x20 DUP3 ADD SWAP1 POP DUP2 DUP2 SUB PUSH1 0x0 DUP4 ADD MSTORE PUSH3 0x221 DUP2 PUSH3 0x1DF JUMP JUMPDEST SWAP1 POP SWAP2 SWAP1 POP JUMP JUMPDEST PUSH1 0x0 DUP3 DUP3 MSTORE PUSH1 0x20 DUP3 ADD SWAP1 POP SWAP3 SWAP2 POP POP JUMP JUMPDEST PUSH1 0x0 PUSH3 0x246 DUP3 PUSH3 0x32B JUMP JUMPDEST SWAP2 POP PUSH3 0x253 DUP4 PUSH3 0x32B JUMP JUMPDEST SWAP3 POP DUP3 PUSH32 0xFFFFFFFFFFFFFFFFFFFFFFFFFFFFFFFFFFFFFFFFFFFFFFFFFFFFFFFFFFFFFFFF SUB DUP3 GT ISZERO PUSH3 0x28B JUMPI PUSH3 0x28A PUSH3 0x335 JUMP JUMPDEST JUMPDEST DUP3 DUP3 ADD SWAP1 POP SWAP3 SWAP2 POP POP JUMP JUMPDEST PUSH1 0x0 PUSH3 0x2A3 DUP3 PUSH3 0x32B JUMP JUMPDEST SWAP2 POP PUSH3 0x2B0 DUP4 PUSH3 0x32B JUMP JUMPDEST SWAP3 POP DUP2 PUSH32 0xFFFFFFFFFFFFFFFFFFFFFFFFFFFFFFFFFFFFFFFFFFFFFFFFFFFFFFFFFFFFFFFF DIV DUP4 GT DUP3 ISZERO ISZERO AND ISZERO PUSH3 0x2EC JUMPI PUSH3 0x2EB PUSH3 0x335 JUMP JUMPDEST JUMPDEST DUP3 DUP3 MUL SWAP1 POP SWAP3 SWAP2 POP POP JUMP JUMPDEST PUSH1 0x0 PUSH3 0x304 DUP3 PUSH3 0x30B JUMP JUMPDEST SWAP1 POP SWAP2 SWAP1 POP JUMP JUMPDEST PUSH1 0x0 PUSH20 0xFFFFFFFFFFFFFFFFFFFFFFFFFFFFFFFFFFFFFFFF DUP3 AND SWAP1 POP SWAP2 SWAP1 POP JUMP JUMPDEST PUSH1 0x0 DUP2 SWAP1 POP SWAP2 SWAP1 POP JUMP JUMPDEST PUSH32 0x4E487B7100000000000000000000000000000000000000000000000000000000 PUSH1 0x0 MSTORE PUSH1 0x11 PUSH1 0x4 MSTORE PUSH1 0x24 PUSH1 0x0 REVERT JUMPDEST PUSH1 0x0 DUP1 REVERT JUMPDEST PUSH32 0x7374617274696E67207072696365203C206D696E000000000000000000000000 PUSH1 0x0 DUP3 ADD MSTORE POP JUMP JUMPDEST PUSH3 0x39D DUP2 PUSH3 0x2F7 JUMP JUMPDEST DUP2 EQ PUSH3 0x3A9 JUMPI PUSH1 0x0 DUP1 REVERT JUMPDEST POP JUMP JUMPDEST PUSH3 0x3B7 DUP2 PUSH3 0x32B JUMP JUMPDEST DUP2 EQ PUSH3 0x3C3 JUMPI PUSH1 0x0 DUP1 REVERT JUMPDEST POP JUMP JUMPDEST PUSH1 0x80 MLOAD PUSH1 0x60 SHR PUSH1 0xA0 MLOAD PUSH1 0xC0 MLOAD PUSH1 0x60 SHR PUSH1 0xE0 MLOAD PUSH2 0x100 MLOAD PUSH2 0x120 MLOAD PUSH2 0x140 MLOAD PUSH2 0x8DC PUSH3 0x45F PUSH1 0x0 CODECOPY PUSH1 0x0 DUP2 DUP2 PUSH2 0x28F ADD MSTORE PUSH2 0x575 ADD MSTORE PUSH1 0x0 DUP2 DUP2 PUSH2 0x237 ADD MSTORE PUSH2 0x2EF ADD MSTORE PUSH1 0x0 DUP2 DUP2 PUSH2 0x25E ADD MSTORE PUSH2 0x52D ADD MSTORE PUSH1 0x0 DUP2 DUP2 PUSH2 0x2BD ADD MSTORE PUSH2 0x551 ADD MSTORE PUSH1 0x0 DUP2 DUP2 PUSH2 0x1EF ADD MSTORE DUP2 DUP2 PUSH2 0x3DC ADD MSTORE PUSH2 0x4D0 ADD MSTORE PUSH1 0x0 DUP2 DUP2 PUSH2 0x3FE ADD MSTORE PUSH2 0x509 ADD MSTORE PUSH1 0x0 DUP2 DUP2 PUSH2 0x213 ADD MSTORE PUSH2 0x3A0 ADD MSTORE PUSH2 0x8DC PUSH1 0x0 RETURN INVALID PUSH1 0x80 PUSH1 0x40 MSTORE PUSH1 0x4 CALLDATASIZE LT PUSH2 0x86 JUMPI PUSH1 0x0 CALLDATALOAD PUSH1 0xE0 SHR DUP1 PUSH4 0xA6F2AE3A GT PUSH2 0x59 JUMPI DUP1 PUSH4 0xA6F2AE3A EQ PUSH2 0x137 JUMPI DUP1 PUSH4 0xC6BC5182 EQ PUSH2 0x141 JUMPI DUP1 PUSH4 0xC7446565 EQ PUSH2 0x16C JUMPI DUP1 PUSH4 0xD6FBF202 EQ PUSH2 0x197 JUMPI DUP1 PUSH4 0xE6C0E6D5 EQ PUSH2 0x1C2 JUMPI PUSH2 0x86 JUMP JUMPDEST DUP1 PUSH4 0x8551A53 EQ PUSH2 0x8B JUMPI DUP1 PUSH4 0x47CCCA02 EQ PUSH2 0xB6 JUMPI DUP1 PUSH4 0x8622A689 EQ PUSH2 0xE1 JUMPI DUP1 PUSH4 0x98D5FDCA EQ PUSH2 0x10C JUMPI JUMPDEST PUSH1 0x0 DUP1 REVERT JUMPDEST CALLVALUE DUP1 ISZERO PUSH2 0x97 JUMPI PUSH1 0x0 DUP1 REVERT JUMPDEST POP PUSH2 0xA0 PUSH2 0x1ED JUMP JUMPDEST PUSH1 0x40 MLOAD PUSH2 0xAD SWAP2 SWAP1 PUSH2 0x628 JUMP JUMPDEST PUSH1 0x40 MLOAD DUP1 SWAP2 SUB SWAP1 RETURN JUMPDEST CALLVALUE DUP1 ISZERO PUSH2 0xC2 JUMPI PUSH1 0x0 DUP1 REVERT JUMPDEST POP PUSH2 0xCB PUSH2 0x211 JUMP JUMPDEST PUSH1 0x40 MLOAD PUSH2 0xD8 SWAP2 SWAP1 PUSH2 0x67A JUMP JUMPDEST PUSH1 0x40 MLOAD DUP1 SWAP2 SUB SWAP1 RETURN JUMPDEST CALLVALUE DUP1 ISZERO PUSH2 0xED JUMPI PUSH1 0x0 DUP1 REVERT JUMPDEST POP PUSH2 0xF6 PUSH2 0x235 JUMP JUMPDEST PUSH1 0x40 MLOAD PUSH2 0x103 SWAP2 SWAP1 PUSH2 0x6D5 JUMP JUMPDEST PUSH1 0x40 MLOAD DUP1 SWAP2 SUB SWAP1 RETURN JUMPDEST CALLVALUE DUP1 ISZERO PUSH2 0x118 JUMPI PUSH1 0x0 DUP1 REVERT JUMPDEST POP PUSH2 0x121 PUSH2 0x259 JUMP JUMPDEST PUSH1 0x40 MLOAD PUSH2 0x12E SWAP2 SWAP1 PUSH2 0x6D5 JUMP JUMPDEST PUSH1 0x40 MLOAD DUP1 SWAP2 SUB SWAP1 RETURN JUMPDEST PUSH2 0x13F PUSH2 0x2ED JUMP JUMPDEST STOP JUMPDEST CALLVALUE DUP1 ISZERO PUSH2 0x14D JUMPI PUSH1 0x0 DUP1 REVERT JUMPDEST POP PUSH2 0x156 PUSH2 0x507 JUMP JUMPDEST PUSH1 0x40 MLOAD PUSH2 0x163 SWAP2 SWAP1 PUSH2 0x6D5 JUMP JUMPDEST PUSH1 0x40 MLOAD DUP1 SWAP2 SUB SWAP1 RETURN JUMPDEST CALLVALUE DUP1 ISZERO PUSH2 0x178 JUMPI PUSH1 0x0 DUP1 REVERT JUMPDEST POP PUSH2 0x181 PUSH2 0x52B JUMP JUMPDEST PUSH1 0x40 MLOAD PUSH2 0x18E SWAP2 SWAP1 PUSH2 0x6D5 JUMP JUMPDEST PUSH1 0x40 MLOAD DUP1 SWAP2 SUB SWAP1 RETURN JUMPDEST CALLVALUE DUP1 ISZERO PUSH2 0x1A3 JUMPI PUSH1 0x0 DUP1 REVERT JUMPDEST POP PUSH2 0x1AC PUSH2 0x54F JUMP JUMPDEST PUSH1 0x40 MLOAD PUSH2 0x1B9 SWAP2 SWAP1 PUSH2 0x6D5 JUMP JUMPDEST PUSH1 0x40 MLOAD DUP1 SWAP2 SUB SWAP1 RETURN JUMPDEST CALLVALUE DUP1 ISZERO PUSH2 0x1CE JUMPI PUSH1 0x0 DUP1 REVERT JUMPDEST POP PUSH2 0x1D7 PUSH2 0x573 JUMP JUMPDEST PUSH1 0x40 MLOAD PUSH2 0x1E4 SWAP2 SWAP1 PUSH2 0x6D5 JUMP JUMPDEST PUSH1 0x40 MLOAD DUP1 SWAP2 SUB SWAP1 RETURN JUMPDEST PUSH32 0x0 DUP2 JUMP JUMPDEST PUSH32 0x0 DUP2 JUMP JUMPDEST PUSH32 0x0 DUP2 JUMP JUMPDEST PUSH1 0x0 DUP1 PUSH32 0x0 TIMESTAMP PUSH2 0x288 SWAP2 SWAP1 PUSH2 0x75B JUMP JUMPDEST SWAP1 POP PUSH1 0x0 DUP2 PUSH32 0x0 PUSH2 0x2B8 SWAP2 SWAP1 PUSH2 0x701 JUMP JUMPDEST SWAP1 POP DUP1 PUSH32 0x0 PUSH2 0x2E6 SWAP2 SWAP1 PUSH2 0x75B JUMP JUMPDEST SWAP3 POP POP POP SWAP1 JUMP JUMPDEST PUSH32 0x0 TIMESTAMP LT PUSH2 0x34F JUMPI PUSH1 0x40 MLOAD PUSH32 0x8C379A000000000000000000000000000000000000000000000000000000000 DUP2 MSTORE PUSH1 0x4 ADD PUSH2 0x346 SWAP1 PUSH2 0x6B5 JUMP JUMPDEST PUSH1 0x40 MLOAD DUP1 SWAP2 SUB SWAP1 REVERT JUMPDEST PUSH1 0x0 PUSH2 0x359 PUSH2 0x259 JUMP JUMPDEST SWAP1 POP DUP1 CALLVALUE LT ISZERO PUSH2 0x39E JUMPI PUSH1 0x40 MLOAD PUSH32 0x8C379A000000000000000000000000000000000000000000000000000000000 DUP2 MSTORE PUSH1 0x4 ADD PUSH2 0x395 SWAP1 PUSH2 0x695 JUMP JUMPDEST PUSH1 0x40 MLOAD DUP1 SWAP2 SUB SWAP1 REVERT JUMPDEST PUSH32 0x0 PUSH20 0xFFFFFFFFFFFFFFFFFFFFFFFFFFFFFFFFFFFFFFFF AND PUSH4 0x23B872DD PUSH32 0x0 CALLER PUSH32 0x0 PUSH1 0x40 MLOAD DUP5 PUSH4 0xFFFFFFFF AND PUSH1 0xE0 SHL DUP2 MSTORE PUSH1 0x4 ADD PUSH2 0x43B SWAP4 SWAP3 SWAP2 SWAP1 PUSH2 0x643 JUMP JUMPDEST PUSH1 0x0 PUSH1 0x40 MLOAD DUP1 DUP4 SUB DUP2 PUSH1 0x0 DUP8 DUP1 EXTCODESIZE ISZERO DUP1 ISZERO PUSH2 0x455 JUMPI PUSH1 0x0 DUP1 REVERT JUMPDEST POP GAS CALL ISZERO DUP1 ISZERO PUSH2 0x469 JUMPI RETURNDATASIZE PUSH1 0x0 DUP1 RETURNDATACOPY RETURNDATASIZE PUSH1 0x0 REVERT JUMPDEST POP POP POP POP PUSH1 0x0 DUP2 CALLVALUE PUSH2 0x47B SWAP2 SWAP1 PUSH2 0x75B JUMP JUMPDEST SWAP1 POP PUSH1 0x0 DUP2 GT ISZERO PUSH2 0x4CE JUMPI CALLER PUSH20 0xFFFFFFFFFFFFFFFFFFFFFFFFFFFFFFFFFFFFFFFF AND PUSH2 0x8FC DUP3 SWAP1 DUP2 ISZERO MUL SWAP1 PUSH1 0x40 MLOAD PUSH1 0x0 PUSH1 0x40 MLOAD DUP1 DUP4 SUB DUP2 DUP6 DUP9 DUP9 CALL SWAP4 POP POP POP POP ISZERO DUP1 ISZERO PUSH2 0x4CC JUMPI RETURNDATASIZE PUSH1 0x0 DUP1 RETURNDATACOPY RETURNDATASIZE PUSH1 0x0 REVERT JUMPDEST POP JUMPDEST PUSH32 0x0 PUSH20 0xFFFFFFFFFFFFFFFFFFFFFFFFFFFFFFFFFFFFFFFF AND SELFDESTRUCT JUMPDEST PUSH32 0x0 DUP2 JUMP JUMPDEST PUSH32 0x0 DUP2 JUMP JUMPDEST PUSH32 0x0 DUP2 JUMP JUMPDEST PUSH32 0x0 DUP2 JUMP JUMPDEST PUSH2 0x5A0 DUP2 PUSH2 0x7DD JUMP JUMPDEST DUP3 MSTORE POP POP JUMP JUMPDEST PUSH2 0x5AF DUP2 PUSH2 0x7A1 JUMP JUMPDEST DUP3 MSTORE POP POP JUMP JUMPDEST PUSH2 0x5BE DUP2 PUSH2 0x78F JUMP JUMPDEST DUP3 MSTORE POP POP JUMP JUMPDEST PUSH2 0x5CD DUP2 PUSH2 0x7EF JUMP JUMPDEST DUP3 MSTORE POP POP JUMP JUMPDEST PUSH1 0x0 PUSH2 0x5E0 PUSH1 0xB DUP4 PUSH2 0x6F0 JUMP JUMPDEST SWAP2 POP PUSH2 0x5EB DUP3 PUSH2 0x854 JUMP JUMPDEST PUSH1 0x20 DUP3 ADD SWAP1 POP SWAP2 SWAP1 POP JUMP JUMPDEST PUSH1 0x0 PUSH2 0x603 PUSH1 0xF DUP4 PUSH2 0x6F0 JUMP JUMPDEST SWAP2 POP PUSH2 0x60E DUP3 PUSH2 0x87D JUMP JUMPDEST PUSH1 0x20 DUP3 ADD SWAP1 POP SWAP2 SWAP1 POP JUMP JUMPDEST PUSH2 0x622 DUP2 PUSH2 0x7D3 JUMP JUMPDEST DUP3 MSTORE POP POP JUMP JUMPDEST PUSH1 0x0 PUSH1 0x20 DUP3 ADD SWAP1 POP PUSH2 0x63D PUSH1 0x0 DUP4 ADD DUP5 PUSH2 0x5A6 JUMP JUMPDEST SWAP3 SWAP2 POP POP JUMP JUMPDEST PUSH1 0x0 PUSH1 0x60 DUP3 ADD SWAP1 POP PUSH2 0x658 PUSH1 0x0 DUP4 ADD DUP7 PUSH2 0x597 JUMP JUMPDEST PUSH2 0x665 PUSH1 0x20 DUP4 ADD DUP6 PUSH2 0x5B5 JUMP JUMPDEST PUSH2 0x672 PUSH1 0x40 DUP4 ADD DUP5 PUSH2 0x619 JUMP JUMPDEST SWAP5 SWAP4 POP POP POP POP JUMP JUMPDEST PUSH1 0x0 PUSH1 0x20 DUP3 ADD SWAP1 POP PUSH2 0x68F PUSH1 0x0 DUP4 ADD DUP5 PUSH2 0x5C4 JUMP JUMPDEST SWAP3 SWAP2 POP POP JUMP JUMPDEST PUSH1 0x0 PUSH1 0x20 DUP3 ADD SWAP1 POP DUP2 DUP2 SUB PUSH1 0x0 DUP4 ADD MSTORE PUSH2 0x6AE DUP2 PUSH2 0x5D3 JUMP JUMPDEST SWAP1 POP SWAP2 SWAP1 POP JUMP JUMPDEST PUSH1 0x0 PUSH1 0x20 DUP3 ADD SWAP1 POP DUP2 DUP2 SUB PUSH1 0x0 DUP4 ADD MSTORE PUSH2 0x6CE DUP2 PUSH2 0x5F6 JUMP JUMPDEST SWAP1 POP SWAP2 SWAP1 POP JUMP JUMPDEST PUSH1 0x0 PUSH1 0x20 DUP3 ADD SWAP1 POP PUSH2 0x6EA PUSH1 0x0 DUP4 ADD DUP5 PUSH2 0x619 JUMP JUMPDEST SWAP3 SWAP2 POP POP JUMP JUMPDEST PUSH1 0x0 DUP3 DUP3 MSTORE PUSH1 0x20 DUP3 ADD SWAP1 POP SWAP3 SWAP2 POP POP JUMP JUMPDEST PUSH1 0x0 PUSH2 0x70C DUP3 PUSH2 0x7D3 JUMP JUMPDEST SWAP2 POP PUSH2 0x717 DUP4 PUSH2 0x7D3 JUMP JUMPDEST SWAP3 POP DUP2 PUSH32 0xFFFFFFFFFFFFFFFFFFFFFFFFFFFFFFFFFFFFFFFFFFFFFFFFFFFFFFFFFFFFFFFF DIV DUP4 GT DUP3 ISZERO ISZERO AND ISZERO PUSH2 0x750 JUMPI PUSH2 0x74F PUSH2 0x825 JUMP JUMPDEST JUMPDEST DUP3 DUP3 MUL SWAP1 POP SWAP3 SWAP2 POP POP JUMP JUMPDEST PUSH1 0x0 PUSH2 0x766 DUP3 PUSH2 0x7D3 JUMP JUMPDEST SWAP2 POP PUSH2 0x771 DUP4 PUSH2 0x7D3 JUMP JUMPDEST SWAP3 POP DUP3 DUP3 LT ISZERO PUSH2 0x784 JUMPI PUSH2 0x783 PUSH2 0x825 JUMP JUMPDEST JUMPDEST DUP3 DUP3 SUB SWAP1 POP SWAP3 SWAP2 POP POP JUMP JUMPDEST PUSH1 0x0 PUSH2 0x79A DUP3 PUSH2 0x7B3 JUMP JUMPDEST SWAP1 POP SWAP2 SWAP1 POP JUMP JUMPDEST PUSH1 0x0 PUSH2 0x7AC DUP3 PUSH2 0x7B3 JUMP JUMPDEST SWAP1 POP SWAP2 SWAP1 POP JUMP JUMPDEST PUSH1 0x0 PUSH20 0xFFFFFFFFFFFFFFFFFFFFFFFFFFFFFFFFFFFFFFFF DUP3 AND SWAP1 POP SWAP2 SWAP1 POP JUMP JUMPDEST PUSH1 0x0 DUP2 SWAP1 POP SWAP2 SWAP1 POP JUMP JUMPDEST PUSH1 0x0 PUSH2 0x7E8 DUP3 PUSH2 0x801 JUMP JUMPDEST SWAP1 POP SWAP2 SWAP1 POP JUMP JUMPDEST PUSH1 0x0 PUSH2 0x7FA DUP3 PUSH2 0x801 JUMP JUMPDEST SWAP1 POP SWAP2 SWAP1 POP JUMP JUMPDEST PUSH1 0x0 PUSH2 0x80C DUP3 PUSH2 0x813 JUMP JUMPDEST SWAP1 POP SWAP2 SWAP1 POP JUMP JUMPDEST PUSH1 0x0 PUSH2 0x81E DUP3 PUSH2 0x7B3 JUMP JUMPDEST SWAP1 POP SWAP2 SWAP1 POP JUMP JUMPDEST PUSH32 0x4E487B7100000000000000000000000000000000000000000000000000000000 PUSH1 0x0 MSTORE PUSH1 0x11 PUSH1 0x4 MSTORE PUSH1 0x24 PUSH1 0x0 REVERT JUMPDEST PUSH32 0x455448203C207072696365000000000000000000000000000000000000000000 PUSH1 0x0 DUP3 ADD MSTORE POP JUMP JUMPDEST PUSH32 0x61756374696F6E20657870697265640000000000000000000000000000000000 PUSH1 0x0 DUP3 ADD MSTORE POP JUMP INVALID LOG2 PUSH5 0x6970667358 0x22 SLT KECCAK256 SWAP5 XOR PUSH15 0x56EAC105DB9E6964ACBE267F054A3B POP RETURN PUSH24 0xD132EB9E6624260D6534AA64736F6C634300080700330000 "
				},
				"gasEstimates": {
					"creation": {
						"codeDepositCost": "453600",
						"executionCost": "infinite",
						"totalCost": "infinite"
					},
					"external": {
						"buy()": "infinite",
						"discountRate()": "infinite",
						"expiresAt()": "infinite",
						"getPrice()": "infinite",
						"nft()": "infinite",
						"nftId()": "infinite",
						"seller()": "infinite",
						"startAt()": "infinite",
						"startingPrice()": "infinite"
					}
				},
				"methodIdentifiers": {
					"buy()": "a6f2ae3a",
					"discountRate()": "e6c0e6d5",
					"expiresAt()": "8622a689",
					"getPrice()": "98d5fdca",
					"nft()": "47ccca02",
					"nftId()": "c6bc5182",
					"seller()": "08551a53",
					"startAt()": "c7446565",
					"startingPrice()": "d6fbf202"
				}
			},
			"storageLayout": {
				"storage": [],
				"types": null
			},
			"userdoc": {
				"kind": "user",
				"methods": {},
				"version": 1
			}
		}
	}
}