{
	"contracts/Escrow.sol": {
		"Escrow": {
			"abi": [
				{
					"anonymous": false,
					"inputs": [
						{
							"indexed": false,
							"internalType": "address",
							"name": "receiver",
							"type": "address"
						},
						{
							"indexed": false,
							"internalType": "uint256",
							"name": "amount",
							"type": "uint256"
						}
					],
					"name": "Withdraw",
					"type": "event"
				},
				{
					"stateMutability": "payable",
					"type": "fallback"
				},
				{
					"inputs": [
						{
							"internalType": "address",
							"name": "",
							"type": "address"
						}
					],
					"name": "balance",
					"outputs": [
						{
							"internalType": "uint256",
							"name": "",
							"type": "uint256"
						}
					],
					"stateMutability": "view",
					"type": "function"
				},
				{
					"inputs": [
						{
							"internalType": "address payable",
							"name": "_receiver",
							"type": "address"
						}
					],
					"name": "deposit",
					"outputs": [],
					"stateMutability": "payable",
					"type": "function"
				},
				{
					"inputs": [
						{
							"internalType": "address",
							"name": "_addr",
							"type": "address"
						}
					],
					"name": "getBalanceByAddr",
					"outputs": [
						{
							"internalType": "uint256",
							"name": "_amount",
							"type": "uint256"
						}
					],
					"stateMutability": "view",
					"type": "function"
				},
				{
					"inputs": [],
					"name": "withdraw",
					"outputs": [],
					"stateMutability": "payable",
					"type": "function"
				}
			],
			"devdoc": {
				"kind": "dev",
				"methods": {},
				"version": 1
			},
			"evm": {
				"assembly": "    /* \"contracts/Escrow.sol\":65:706  contract Escrow {... */\n  mstore(0x40, 0x80)\n  callvalue\n  dup1\n  iszero\n  tag_1\n  jumpi\n  0x00\n  dup1\n  revert\ntag_1:\n  pop\n  dataSize(sub_0)\n  dup1\n  dataOffset(sub_0)\n  0x00\n  codecopy\n  0x00\n  return\nstop\n\nsub_0: assembly {\n        /* \"contracts/Escrow.sol\":65:706  contract Escrow {... */\n      mstore(0x40, 0x80)\n      jumpi(tag_1, lt(calldatasize, 0x04))\n      shr(0xe0, calldataload(0x00))\n      dup1\n      0x3ccfd60b\n      eq\n      tag_3\n      jumpi\n      dup1\n      0x944419db\n      eq\n      tag_4\n      jumpi\n      dup1\n      0xe3d670d7\n      eq\n      tag_5\n      jumpi\n      dup1\n      0xf340fa01\n      eq\n      tag_6\n      jumpi\n      jump(tag_2)\n    tag_1:\n    tag_2:\n        /* \"contracts/Escrow.sol\":617:645  deposit(payable(msg.sender)) */\n      tag_9\n        /* \"contracts/Escrow.sol\":633:643  msg.sender */\n      caller\n        /* \"contracts/Escrow.sol\":617:624  deposit */\n      tag_10\n        /* \"contracts/Escrow.sol\":617:645  deposit(payable(msg.sender)) */\n      jump\t// in\n    tag_9:\n        /* \"contracts/Escrow.sol\":65:706  contract Escrow {... */\n      stop\n        /* \"contracts/Escrow.sol\":247:456  function withdraw() external payable {... */\n    tag_3:\n      tag_11\n      tag_12\n      jump\t// in\n    tag_11:\n      stop\n        /* \"contracts/Escrow.sol\":462:573  function getBalanceByAddr(address _addr) public view returns(uint _amount) {... */\n    tag_4:\n      callvalue\n      dup1\n      iszero\n      tag_13\n      jumpi\n      0x00\n      dup1\n      revert\n    tag_13:\n      pop\n      tag_14\n      0x04\n      dup1\n      calldatasize\n      sub\n      dup2\n      add\n      swap1\n      tag_15\n      swap2\n      swap1\n      tag_16\n      jump\t// in\n    tag_15:\n      tag_17\n      jump\t// in\n    tag_14:\n      mload(0x40)\n      tag_18\n      swap2\n      swap1\n      tag_19\n      jump\t// in\n    tag_18:\n      mload(0x40)\n      dup1\n      swap2\n      sub\n      swap1\n      return\n        /* \"contracts/Escrow.sol\":87:127  mapping (address => uint) public balance */\n    tag_5:\n      callvalue\n      dup1\n      iszero\n      tag_20\n      jumpi\n      0x00\n      dup1\n      revert\n    tag_20:\n      pop\n      tag_21\n      0x04\n      dup1\n      calldatasize\n      sub\n      dup2\n      add\n      swap1\n      tag_22\n      swap2\n      swap1\n      tag_16\n      jump\t// in\n    tag_22:\n      tag_23\n      jump\t// in\n    tag_21:\n      mload(0x40)\n      tag_24\n      swap2\n      swap1\n      tag_19\n      jump\t// in\n    tag_24:\n      mload(0x40)\n      dup1\n      swap2\n      sub\n      swap1\n      return\n        /* \"contracts/Escrow.sol\":134:241  function deposit(address payable _receiver) public payable {... */\n    tag_6:\n      tag_25\n      0x04\n      dup1\n      calldatasize\n      sub\n      dup2\n      add\n      swap1\n      tag_26\n      swap2\n      swap1\n      tag_27\n      jump\t// in\n    tag_26:\n      tag_10\n      jump\t// in\n    tag_25:\n      stop\n    tag_10:\n        /* \"contracts/Escrow.sol\":225:234  msg.value */\n      callvalue\n        /* \"contracts/Escrow.sol\":203:210  balance */\n      0x00\n        /* \"contracts/Escrow.sol\":203:221  balance[_receiver] */\n      dup1\n        /* \"contracts/Escrow.sol\":211:220  _receiver */\n      dup4\n        /* \"contracts/Escrow.sol\":203:221  balance[_receiver] */\n      0xffffffffffffffffffffffffffffffffffffffff\n      and\n      0xffffffffffffffffffffffffffffffffffffffff\n      and\n      dup2\n      mstore\n      0x20\n      add\n      swap1\n      dup2\n      mstore\n      0x20\n      add\n      0x00\n      keccak256\n      0x00\n        /* \"contracts/Escrow.sol\":203:234  balance[_receiver] += msg.value */\n      dup3\n      dup3\n      sload\n      tag_29\n      swap2\n      swap1\n      tag_30\n      jump\t// in\n    tag_29:\n      swap3\n      pop\n      pop\n      dup2\n      swap1\n      sstore\n      pop\n        /* \"contracts/Escrow.sol\":134:241  function deposit(address payable _receiver) public payable {... */\n      pop\n      jump\t// out\n        /* \"contracts/Escrow.sol\":247:456  function withdraw() external payable {... */\n    tag_12:\n        /* \"contracts/Escrow.sol\":294:305  uint amount */\n      0x00\n        /* \"contracts/Escrow.sol\":308:315  balance */\n      dup1\n        /* \"contracts/Escrow.sol\":308:327  balance[msg.sender] */\n      0x00\n        /* \"contracts/Escrow.sol\":316:326  msg.sender */\n      caller\n        /* \"contracts/Escrow.sol\":308:327  balance[msg.sender] */\n      0xffffffffffffffffffffffffffffffffffffffff\n      and\n      0xffffffffffffffffffffffffffffffffffffffff\n      and\n      dup2\n      mstore\n      0x20\n      add\n      swap1\n      dup2\n      mstore\n      0x20\n      add\n      0x00\n      keccak256\n      sload\n        /* \"contracts/Escrow.sol\":294:327  uint amount = balance[msg.sender] */\n      swap1\n      pop\n        /* \"contracts/Escrow.sol\":359:360  0 */\n      0x00\n        /* \"contracts/Escrow.sol\":337:344  balance */\n      dup1\n        /* \"contracts/Escrow.sol\":337:356  balance[msg.sender] */\n      0x00\n        /* \"contracts/Escrow.sol\":345:355  msg.sender */\n      caller\n        /* \"contracts/Escrow.sol\":337:356  balance[msg.sender] */\n      0xffffffffffffffffffffffffffffffffffffffff\n      and\n      0xffffffffffffffffffffffffffffffffffffffff\n      and\n      dup2\n      mstore\n      0x20\n      add\n      swap1\n      dup2\n      mstore\n      0x20\n      add\n      0x00\n      keccak256\n        /* \"contracts/Escrow.sol\":337:360  balance[msg.sender] = 0 */\n      dup2\n      swap1\n      sstore\n      pop\n        /* \"contracts/Escrow.sol\":378:388  msg.sender */\n      caller\n        /* \"contracts/Escrow.sol\":370:398  payable(msg.sender).transfer */\n      0xffffffffffffffffffffffffffffffffffffffff\n      and\n        /* \"contracts/Escrow.sol\":370:406  payable(msg.sender).transfer(amount) */\n      0x08fc\n        /* \"contracts/Escrow.sol\":399:405  amount */\n      dup3\n        /* \"contracts/Escrow.sol\":370:406  payable(msg.sender).transfer(amount) */\n      swap1\n      dup2\n      iszero\n      mul\n      swap1\n      mload(0x40)\n      0x00\n      mload(0x40)\n      dup1\n      dup4\n      sub\n      dup2\n      dup6\n      dup9\n      dup9\n      call\n      swap4\n      pop\n      pop\n      pop\n      pop\n      iszero\n      dup1\n      iszero\n      tag_33\n      jumpi\n      returndatasize\n      0x00\n      dup1\n      returndatacopy\n      revert(0x00, returndatasize)\n    tag_33:\n      pop\n        /* \"contracts/Escrow.sol\":421:449  Withdraw(msg.sender, amount) */\n      0x884edad9ce6fa2440d8a54cc123490eb96d2768479d49ff9c7366125a9424364\n        /* \"contracts/Escrow.sol\":430:440  msg.sender */\n      caller\n        /* \"contracts/Escrow.sol\":442:448  amount */\n      dup3\n        /* \"contracts/Escrow.sol\":421:449  Withdraw(msg.sender, amount) */\n      mload(0x40)\n      tag_34\n      swap3\n      swap2\n      swap1\n      tag_35\n      jump\t// in\n    tag_34:\n      mload(0x40)\n      dup1\n      swap2\n      sub\n      swap1\n      log1\n        /* \"contracts/Escrow.sol\":284:456  {... */\n      pop\n        /* \"contracts/Escrow.sol\":247:456  function withdraw() external payable {... */\n      jump\t// out\n        /* \"contracts/Escrow.sol\":462:573  function getBalanceByAddr(address _addr) public view returns(uint _amount) {... */\n    tag_17:\n        /* \"contracts/Escrow.sol\":523:535  uint _amount */\n      0x00\n        /* \"contracts/Escrow.sol\":552:559  balance */\n      dup1\n        /* \"contracts/Escrow.sol\":552:566  balance[_addr] */\n      0x00\n        /* \"contracts/Escrow.sol\":560:565  _addr */\n      dup4\n        /* \"contracts/Escrow.sol\":552:566  balance[_addr] */\n      0xffffffffffffffffffffffffffffffffffffffff\n      and\n      0xffffffffffffffffffffffffffffffffffffffff\n      and\n      dup2\n      mstore\n      0x20\n      add\n      swap1\n      dup2\n      mstore\n      0x20\n      add\n      0x00\n      keccak256\n      sload\n        /* \"contracts/Escrow.sol\":545:566  return balance[_addr] */\n      swap1\n      pop\n        /* \"contracts/Escrow.sol\":462:573  function getBalanceByAddr(address _addr) public view returns(uint _amount) {... */\n      swap2\n      swap1\n      pop\n      jump\t// out\n        /* \"contracts/Escrow.sol\":87:127  mapping (address => uint) public balance */\n    tag_23:\n      mstore(0x20, 0x00)\n      dup1\n      0x00\n      mstore\n      keccak256(0x00, 0x40)\n      0x00\n      swap2\n      pop\n      swap1\n      pop\n      sload\n      dup2\n      jump\t// out\n        /* \"#utility.yul\":7:146   */\n    tag_38:\n        /* \"#utility.yul\":53:58   */\n      0x00\n        /* \"#utility.yul\":91:97   */\n      dup2\n        /* \"#utility.yul\":78:98   */\n      calldataload\n        /* \"#utility.yul\":69:98   */\n      swap1\n      pop\n        /* \"#utility.yul\":107:140   */\n      tag_40\n        /* \"#utility.yul\":134:139   */\n      dup2\n        /* \"#utility.yul\":107:140   */\n      tag_41\n      jump\t// in\n    tag_40:\n        /* \"#utility.yul\":7:146   */\n      swap3\n      swap2\n      pop\n      pop\n      jump\t// out\n        /* \"#utility.yul\":152:307   */\n    tag_42:\n        /* \"#utility.yul\":206:211   */\n      0x00\n        /* \"#utility.yul\":244:250   */\n      dup2\n        /* \"#utility.yul\":231:251   */\n      calldataload\n        /* \"#utility.yul\":222:251   */\n      swap1\n      pop\n        /* \"#utility.yul\":260:301   */\n      tag_44\n        /* \"#utility.yul\":295:300   */\n      dup2\n        /* \"#utility.yul\":260:301   */\n      tag_45\n      jump\t// in\n    tag_44:\n        /* \"#utility.yul\":152:307   */\n      swap3\n      swap2\n      pop\n      pop\n      jump\t// out\n        /* \"#utility.yul\":313:642   */\n    tag_16:\n        /* \"#utility.yul\":372:378   */\n      0x00\n        /* \"#utility.yul\":421:423   */\n      0x20\n        /* \"#utility.yul\":409:418   */\n      dup3\n        /* \"#utility.yul\":400:407   */\n      dup5\n        /* \"#utility.yul\":396:419   */\n      sub\n        /* \"#utility.yul\":392:424   */\n      slt\n        /* \"#utility.yul\":389:508   */\n      iszero\n      tag_47\n      jumpi\n        /* \"#utility.yul\":427:506   */\n      tag_48\n      tag_49\n      jump\t// in\n    tag_48:\n        /* \"#utility.yul\":389:508   */\n    tag_47:\n        /* \"#utility.yul\":547:548   */\n      0x00\n        /* \"#utility.yul\":572:625   */\n      tag_50\n        /* \"#utility.yul\":617:624   */\n      dup5\n        /* \"#utility.yul\":608:614   */\n      dup3\n        /* \"#utility.yul\":597:606   */\n      dup6\n        /* \"#utility.yul\":593:615   */\n      add\n        /* \"#utility.yul\":572:625   */\n      tag_38\n      jump\t// in\n    tag_50:\n        /* \"#utility.yul\":562:625   */\n      swap2\n      pop\n        /* \"#utility.yul\":518:635   */\n      pop\n        /* \"#utility.yul\":313:642   */\n      swap3\n      swap2\n      pop\n      pop\n      jump\t// out\n        /* \"#utility.yul\":648:993   */\n    tag_27:\n        /* \"#utility.yul\":715:721   */\n      0x00\n        /* \"#utility.yul\":764:766   */\n      0x20\n        /* \"#utility.yul\":752:761   */\n      dup3\n        /* \"#utility.yul\":743:750   */\n      dup5\n        /* \"#utility.yul\":739:762   */\n      sub\n        /* \"#utility.yul\":735:767   */\n      slt\n        /* \"#utility.yul\":732:851   */\n      iszero\n      tag_52\n      jumpi\n        /* \"#utility.yul\":770:849   */\n      tag_53\n      tag_49\n      jump\t// in\n    tag_53:\n        /* \"#utility.yul\":732:851   */\n    tag_52:\n        /* \"#utility.yul\":890:891   */\n      0x00\n        /* \"#utility.yul\":915:976   */\n      tag_54\n        /* \"#utility.yul\":968:975   */\n      dup5\n        /* \"#utility.yul\":959:965   */\n      dup3\n        /* \"#utility.yul\":948:957   */\n      dup6\n        /* \"#utility.yul\":944:966   */\n      add\n        /* \"#utility.yul\":915:976   */\n      tag_42\n      jump\t// in\n    tag_54:\n        /* \"#utility.yul\":905:976   */\n      swap2\n      pop\n        /* \"#utility.yul\":861:986   */\n      pop\n        /* \"#utility.yul\":648:993   */\n      swap3\n      swap2\n      pop\n      pop\n      jump\t// out\n        /* \"#utility.yul\":999:1117   */\n    tag_55:\n        /* \"#utility.yul\":1086:1110   */\n      tag_57\n        /* \"#utility.yul\":1104:1109   */\n      dup2\n        /* \"#utility.yul\":1086:1110   */\n      tag_58\n      jump\t// in\n    tag_57:\n        /* \"#utility.yul\":1081:1084   */\n      dup3\n        /* \"#utility.yul\":1074:1111   */\n      mstore\n        /* \"#utility.yul\":999:1117   */\n      pop\n      pop\n      jump\t// out\n        /* \"#utility.yul\":1123:1241   */\n    tag_59:\n        /* \"#utility.yul\":1210:1234   */\n      tag_61\n        /* \"#utility.yul\":1228:1233   */\n      dup2\n        /* \"#utility.yul\":1210:1234   */\n      tag_62\n      jump\t// in\n    tag_61:\n        /* \"#utility.yul\":1205:1208   */\n      dup3\n        /* \"#utility.yul\":1198:1235   */\n      mstore\n        /* \"#utility.yul\":1123:1241   */\n      pop\n      pop\n      jump\t// out\n        /* \"#utility.yul\":1247:1579   */\n    tag_35:\n        /* \"#utility.yul\":1368:1372   */\n      0x00\n        /* \"#utility.yul\":1406:1408   */\n      0x40\n        /* \"#utility.yul\":1395:1404   */\n      dup3\n        /* \"#utility.yul\":1391:1409   */\n      add\n        /* \"#utility.yul\":1383:1409   */\n      swap1\n      pop\n        /* \"#utility.yul\":1419:1490   */\n      tag_64\n        /* \"#utility.yul\":1487:1488   */\n      0x00\n        /* \"#utility.yul\":1476:1485   */\n      dup4\n        /* \"#utility.yul\":1472:1489   */\n      add\n        /* \"#utility.yul\":1463:1469   */\n      dup6\n        /* \"#utility.yul\":1419:1490   */\n      tag_55\n      jump\t// in\n    tag_64:\n        /* \"#utility.yul\":1500:1572   */\n      tag_65\n        /* \"#utility.yul\":1568:1570   */\n      0x20\n        /* \"#utility.yul\":1557:1566   */\n      dup4\n        /* \"#utility.yul\":1553:1571   */\n      add\n        /* \"#utility.yul\":1544:1550   */\n      dup5\n        /* \"#utility.yul\":1500:1572   */\n      tag_59\n      jump\t// in\n    tag_65:\n        /* \"#utility.yul\":1247:1579   */\n      swap4\n      swap3\n      pop\n      pop\n      pop\n      jump\t// out\n        /* \"#utility.yul\":1585:1807   */\n    tag_19:\n        /* \"#utility.yul\":1678:1682   */\n      0x00\n        /* \"#utility.yul\":1716:1718   */\n      0x20\n        /* \"#utility.yul\":1705:1714   */\n      dup3\n        /* \"#utility.yul\":1701:1719   */\n      add\n        /* \"#utility.yul\":1693:1719   */\n      swap1\n      pop\n        /* \"#utility.yul\":1729:1800   */\n      tag_67\n        /* \"#utility.yul\":1797:1798   */\n      0x00\n        /* \"#utility.yul\":1786:1795   */\n      dup4\n        /* \"#utility.yul\":1782:1799   */\n      add\n        /* \"#utility.yul\":1773:1779   */\n      dup5\n        /* \"#utility.yul\":1729:1800   */\n      tag_59\n      jump\t// in\n    tag_67:\n        /* \"#utility.yul\":1585:1807   */\n      swap3\n      swap2\n      pop\n      pop\n      jump\t// out\n        /* \"#utility.yul\":1894:2199   */\n    tag_30:\n        /* \"#utility.yul\":1934:1937   */\n      0x00\n        /* \"#utility.yul\":1953:1973   */\n      tag_71\n        /* \"#utility.yul\":1971:1972   */\n      dup3\n        /* \"#utility.yul\":1953:1973   */\n      tag_62\n      jump\t// in\n    tag_71:\n        /* \"#utility.yul\":1948:1973   */\n      swap2\n      pop\n        /* \"#utility.yul\":1987:2007   */\n      tag_72\n        /* \"#utility.yul\":2005:2006   */\n      dup4\n        /* \"#utility.yul\":1987:2007   */\n      tag_62\n      jump\t// in\n    tag_72:\n        /* \"#utility.yul\":1982:2007   */\n      swap3\n      pop\n        /* \"#utility.yul\":2141:2142   */\n      dup3\n        /* \"#utility.yul\":2073:2139   */\n      0xffffffffffffffffffffffffffffffffffffffffffffffffffffffffffffffff\n        /* \"#utility.yul\":2069:2143   */\n      sub\n        /* \"#utility.yul\":2066:2067   */\n      dup3\n        /* \"#utility.yul\":2063:2144   */\n      gt\n        /* \"#utility.yul\":2060:2167   */\n      iszero\n      tag_73\n      jumpi\n        /* \"#utility.yul\":2147:2165   */\n      tag_74\n      tag_75\n      jump\t// in\n    tag_74:\n        /* \"#utility.yul\":2060:2167   */\n    tag_73:\n        /* \"#utility.yul\":2191:2192   */\n      dup3\n        /* \"#utility.yul\":2188:2189   */\n      dup3\n        /* \"#utility.yul\":2184:2193   */\n      add\n        /* \"#utility.yul\":2177:2193   */\n      swap1\n      pop\n        /* \"#utility.yul\":1894:2199   */\n      swap3\n      swap2\n      pop\n      pop\n      jump\t// out\n        /* \"#utility.yul\":2205:2301   */\n    tag_58:\n        /* \"#utility.yul\":2242:2249   */\n      0x00\n        /* \"#utility.yul\":2271:2295   */\n      tag_77\n        /* \"#utility.yul\":2289:2294   */\n      dup3\n        /* \"#utility.yul\":2271:2295   */\n      tag_78\n      jump\t// in\n    tag_77:\n        /* \"#utility.yul\":2260:2295   */\n      swap1\n      pop\n        /* \"#utility.yul\":2205:2301   */\n      swap2\n      swap1\n      pop\n      jump\t// out\n        /* \"#utility.yul\":2307:2411   */\n    tag_79:\n        /* \"#utility.yul\":2352:2359   */\n      0x00\n        /* \"#utility.yul\":2381:2405   */\n      tag_81\n        /* \"#utility.yul\":2399:2404   */\n      dup3\n        /* \"#utility.yul\":2381:2405   */\n      tag_78\n      jump\t// in\n    tag_81:\n        /* \"#utility.yul\":2370:2405   */\n      swap1\n      pop\n        /* \"#utility.yul\":2307:2411   */\n      swap2\n      swap1\n      pop\n      jump\t// out\n        /* \"#utility.yul\":2417:2543   */\n    tag_78:\n        /* \"#utility.yul\":2454:2461   */\n      0x00\n        /* \"#utility.yul\":2494:2536   */\n      0xffffffffffffffffffffffffffffffffffffffff\n        /* \"#utility.yul\":2487:2492   */\n      dup3\n        /* \"#utility.yul\":2483:2537   */\n      and\n        /* \"#utility.yul\":2472:2537   */\n      swap1\n      pop\n        /* \"#utility.yul\":2417:2543   */\n      swap2\n      swap1\n      pop\n      jump\t// out\n        /* \"#utility.yul\":2549:2626   */\n    tag_62:\n        /* \"#utility.yul\":2586:2593   */\n      0x00\n        /* \"#utility.yul\":2615:2620   */\n      dup2\n        /* \"#utility.yul\":2604:2620   */\n      swap1\n      pop\n        /* \"#utility.yul\":2549:2626   */\n      swap2\n      swap1\n      pop\n      jump\t// out\n        /* \"#utility.yul\":2632:2812   */\n    tag_75:\n        /* \"#utility.yul\":2680:2757   */\n      0x4e487b7100000000000000000000000000000000000000000000000000000000\n        /* \"#utility.yul\":2677:2678   */\n      0x00\n        /* \"#utility.yul\":2670:2758   */\n      mstore\n        /* \"#utility.yul\":2777:2781   */\n      0x11\n        /* \"#utility.yul\":2774:2775   */\n      0x04\n        /* \"#utility.yul\":2767:2782   */\n      mstore\n        /* \"#utility.yul\":2801:2805   */\n      0x24\n        /* \"#utility.yul\":2798:2799   */\n      0x00\n        /* \"#utility.yul\":2791:2806   */\n      revert\n        /* \"#utility.yul\":2941:3058   */\n    tag_49:\n        /* \"#utility.yul\":3050:3051   */\n      0x00\n        /* \"#utility.yul\":3047:3048   */\n      dup1\n        /* \"#utility.yul\":3040:3052   */\n      revert\n        /* \"#utility.yul\":3064:3186   */\n    tag_41:\n        /* \"#utility.yul\":3137:3161   */\n      tag_89\n        /* \"#utility.yul\":3155:3160   */\n      dup2\n        /* \"#utility.yul\":3137:3161   */\n      tag_58\n      jump\t// in\n    tag_89:\n        /* \"#utility.yul\":3130:3135   */\n      dup2\n        /* \"#utility.yul\":3127:3162   */\n      eq\n        /* \"#utility.yul\":3117:3180   */\n      tag_90\n      jumpi\n        /* \"#utility.yul\":3176:3177   */\n      0x00\n        /* \"#utility.yul\":3173:3174   */\n      dup1\n        /* \"#utility.yul\":3166:3178   */\n      revert\n        /* \"#utility.yul\":3117:3180   */\n    tag_90:\n        /* \"#utility.yul\":3064:3186   */\n      pop\n      jump\t// out\n        /* \"#utility.yul\":3192:3330   */\n    tag_45:\n        /* \"#utility.yul\":3273:3305   */\n      tag_92\n        /* \"#utility.yul\":3299:3304   */\n      dup2\n        /* \"#utility.yul\":3273:3305   */\n      tag_79\n      jump\t// in\n    tag_92:\n        /* \"#utility.yul\":3266:3271   */\n      dup2\n        /* \"#utility.yul\":3263:3306   */\n      eq\n        /* \"#utility.yul\":3253:3324   */\n      tag_93\n      jumpi\n        /* \"#utility.yul\":3320:3321   */\n      0x00\n        /* \"#utility.yul\":3317:3318   */\n      dup1\n        /* \"#utility.yul\":3310:3322   */\n      revert\n        /* \"#utility.yul\":3253:3324   */\n    tag_93:\n        /* \"#utility.yul\":3192:3330   */\n      pop\n      jump\t// out\n\n    auxdata: 0xa26469706673582212201f661ac64b0143c752332557a3c984804667b462e982b05d041144242898cc9864736f6c63430008070033\n}\n",
				"bytecode": {
					"linkReferences": {},
					"object": "608060405234801561001057600080fd5b506104d3806100206000396000f3fe6080604052600436106100435760003560e01c80633ccfd60b1461004f578063944419db14610059578063e3d670d714610096578063f340fa01146100d357610044565b5b61004d336100ef565b005b610057610147565b005b34801561006557600080fd5b50610080600480360381019061007b91906102db565b610251565b60405161008d919061037c565b60405180910390f35b3480156100a257600080fd5b506100bd60048036038101906100b891906102db565b610299565b6040516100ca919061037c565b60405180910390f35b6100ed60048036038101906100e89190610308565b6100ef565b005b346000808373ffffffffffffffffffffffffffffffffffffffff1673ffffffffffffffffffffffffffffffffffffffff168152602001908152602001600020600082825461013d9190610397565b9250508190555050565b60008060003373ffffffffffffffffffffffffffffffffffffffff1673ffffffffffffffffffffffffffffffffffffffff16815260200190815260200160002054905060008060003373ffffffffffffffffffffffffffffffffffffffff1673ffffffffffffffffffffffffffffffffffffffff168152602001908152602001600020819055503373ffffffffffffffffffffffffffffffffffffffff166108fc829081150290604051600060405180830381858888f19350505050158015610214573d6000803e3d6000fd5b507f884edad9ce6fa2440d8a54cc123490eb96d2768479d49ff9c7366125a94243643382604051610246929190610353565b60405180910390a150565b60008060008373ffffffffffffffffffffffffffffffffffffffff1673ffffffffffffffffffffffffffffffffffffffff168152602001908152602001600020549050919050565b60006020528060005260406000206000915090505481565b6000813590506102c08161046f565b92915050565b6000813590506102d581610486565b92915050565b6000602082840312156102f1576102f061046a565b5b60006102ff848285016102b1565b91505092915050565b60006020828403121561031e5761031d61046a565b5b600061032c848285016102c6565b91505092915050565b61033e816103ed565b82525050565b61034d81610431565b82525050565b60006040820190506103686000830185610335565b6103756020830184610344565b9392505050565b60006020820190506103916000830184610344565b92915050565b60006103a282610431565b91506103ad83610431565b9250827fffffffffffffffffffffffffffffffffffffffffffffffffffffffffffffffff038211156103e2576103e161043b565b5b828201905092915050565b60006103f882610411565b9050919050565b600061040a82610411565b9050919050565b600073ffffffffffffffffffffffffffffffffffffffff82169050919050565b6000819050919050565b7f4e487b7100000000000000000000000000000000000000000000000000000000600052601160045260246000fd5b600080fd5b610478816103ed565b811461048357600080fd5b50565b61048f816103ff565b811461049a57600080fd5b5056fea26469706673582212201f661ac64b0143c752332557a3c984804667b462e982b05d041144242898cc9864736f6c63430008070033",
					"opcodes": "PUSH1 0x80 PUSH1 0x40 MSTORE CALLVALUE DUP1 ISZERO PUSH2 0x10 JUMPI PUSH1 0x0 DUP1 REVERT JUMPDEST POP PUSH2 0x4D3 DUP1 PUSH2 0x20 PUSH1 0x0 CODECOPY PUSH1 0x0 RETURN INVALID PUSH1 0x80 PUSH1 0x40 MSTORE PUSH1 0x4 CALLDATASIZE LT PUSH2 0x43 JUMPI PUSH1 0x0 CALLDATALOAD PUSH1 0xE0 SHR DUP1 PUSH4 0x3CCFD60B EQ PUSH2 0x4F JUMPI DUP1 PUSH4 0x944419DB EQ PUSH2 0x59 JUMPI DUP1 PUSH4 0xE3D670D7 EQ PUSH2 0x96 JUMPI DUP1 PUSH4 0xF340FA01 EQ PUSH2 0xD3 JUMPI PUSH2 0x44 JUMP JUMPDEST JUMPDEST PUSH2 0x4D CALLER PUSH2 0xEF JUMP JUMPDEST STOP JUMPDEST PUSH2 0x57 PUSH2 0x147 JUMP JUMPDEST STOP JUMPDEST CALLVALUE DUP1 ISZERO PUSH2 0x65 JUMPI PUSH1 0x0 DUP1 REVERT JUMPDEST POP PUSH2 0x80 PUSH1 0x4 DUP1 CALLDATASIZE SUB DUP2 ADD SWAP1 PUSH2 0x7B SWAP2 SWAP1 PUSH2 0x2DB JUMP JUMPDEST PUSH2 0x251 JUMP JUMPDEST PUSH1 0x40 MLOAD PUSH2 0x8D SWAP2 SWAP1 PUSH2 0x37C JUMP JUMPDEST PUSH1 0x40 MLOAD DUP1 SWAP2 SUB SWAP1 RETURN JUMPDEST CALLVALUE DUP1 ISZERO PUSH2 0xA2 JUMPI PUSH1 0x0 DUP1 REVERT JUMPDEST POP PUSH2 0xBD PUSH1 0x4 DUP1 CALLDATASIZE SUB DUP2 ADD SWAP1 PUSH2 0xB8 SWAP2 SWAP1 PUSH2 0x2DB JUMP JUMPDEST PUSH2 0x299 JUMP JUMPDEST PUSH1 0x40 MLOAD PUSH2 0xCA SWAP2 SWAP1 PUSH2 0x37C JUMP JUMPDEST PUSH1 0x40 MLOAD DUP1 SWAP2 SUB SWAP1 RETURN JUMPDEST PUSH2 0xED PUSH1 0x4 DUP1 CALLDATASIZE SUB DUP2 ADD SWAP1 PUSH2 0xE8 SWAP2 SWAP1 PUSH2 0x308 JUMP JUMPDEST PUSH2 0xEF JUMP JUMPDEST STOP JUMPDEST CALLVALUE PUSH1 0x0 DUP1 DUP4 PUSH20 0xFFFFFFFFFFFFFFFFFFFFFFFFFFFFFFFFFFFFFFFF AND PUSH20 0xFFFFFFFFFFFFFFFFFFFFFFFFFFFFFFFFFFFFFFFF AND DUP2 MSTORE PUSH1 0x20 ADD SWAP1 DUP2 MSTORE PUSH1 0x20 ADD PUSH1 0x0 KECCAK256 PUSH1 0x0 DUP3 DUP3 SLOAD PUSH2 0x13D SWAP2 SWAP1 PUSH2 0x397 JUMP JUMPDEST SWAP3 POP POP DUP2 SWAP1 SSTORE POP POP JUMP JUMPDEST PUSH1 0x0 DUP1 PUSH1 0x0 CALLER PUSH20 0xFFFFFFFFFFFFFFFFFFFFFFFFFFFFFFFFFFFFFFFF AND PUSH20 0xFFFFFFFFFFFFFFFFFFFFFFFFFFFFFFFFFFFFFFFF AND DUP2 MSTORE PUSH1 0x20 ADD SWAP1 DUP2 MSTORE PUSH1 0x20 ADD PUSH1 0x0 KECCAK256 SLOAD SWAP1 POP PUSH1 0x0 DUP1 PUSH1 0x0 CALLER PUSH20 0xFFFFFFFFFFFFFFFFFFFFFFFFFFFFFFFFFFFFFFFF AND PUSH20 0xFFFFFFFFFFFFFFFFFFFFFFFFFFFFFFFFFFFFFFFF AND DUP2 MSTORE PUSH1 0x20 ADD SWAP1 DUP2 MSTORE PUSH1 0x20 ADD PUSH1 0x0 KECCAK256 DUP2 SWAP1 SSTORE POP CALLER PUSH20 0xFFFFFFFFFFFFFFFFFFFFFFFFFFFFFFFFFFFFFFFF AND PUSH2 0x8FC DUP3 SWAP1 DUP2 ISZERO MUL SWAP1 PUSH1 0x40 MLOAD PUSH1 0x0 PUSH1 0x40 MLOAD DUP1 DUP4 SUB DUP2 DUP6 DUP9 DUP9 CALL SWAP4 POP POP POP POP ISZERO DUP1 ISZERO PUSH2 0x214 JUMPI RETURNDATASIZE PUSH1 0x0 DUP1 RETURNDATACOPY RETURNDATASIZE PUSH1 0x0 REVERT JUMPDEST POP PUSH32 0x884EDAD9CE6FA2440D8A54CC123490EB96D2768479D49FF9C7366125A9424364 CALLER DUP3 PUSH1 0x40 MLOAD PUSH2 0x246 SWAP3 SWAP2 SWAP1 PUSH2 0x353 JUMP JUMPDEST PUSH1 0x40 MLOAD DUP1 SWAP2 SUB SWAP1 LOG1 POP JUMP JUMPDEST PUSH1 0x0 DUP1 PUSH1 0x0 DUP4 PUSH20 0xFFFFFFFFFFFFFFFFFFFFFFFFFFFFFFFFFFFFFFFF AND PUSH20 0xFFFFFFFFFFFFFFFFFFFFFFFFFFFFFFFFFFFFFFFF AND DUP2 MSTORE PUSH1 0x20 ADD SWAP1 DUP2 MSTORE PUSH1 0x20 ADD PUSH1 0x0 KECCAK256 SLOAD SWAP1 POP SWAP2 SWAP1 POP JUMP JUMPDEST PUSH1 0x0 PUSH1 0x20 MSTORE DUP1 PUSH1 0x0 MSTORE PUSH1 0x40 PUSH1 0x0 KECCAK256 PUSH1 0x0 SWAP2 POP SWAP1 POP SLOAD DUP2 JUMP JUMPDEST PUSH1 0x0 DUP2 CALLDATALOAD SWAP1 POP PUSH2 0x2C0 DUP2 PUSH2 0x46F JUMP JUMPDEST SWAP3 SWAP2 POP POP JUMP JUMPDEST PUSH1 0x0 DUP2 CALLDATALOAD SWAP1 POP PUSH2 0x2D5 DUP2 PUSH2 0x486 JUMP JUMPDEST SWAP3 SWAP2 POP POP JUMP JUMPDEST PUSH1 0x0 PUSH1 0x20 DUP3 DUP5 SUB SLT ISZERO PUSH2 0x2F1 JUMPI PUSH2 0x2F0 PUSH2 0x46A JUMP JUMPDEST JUMPDEST PUSH1 0x0 PUSH2 0x2FF DUP5 DUP3 DUP6 ADD PUSH2 0x2B1 JUMP JUMPDEST SWAP2 POP POP SWAP3 SWAP2 POP POP JUMP JUMPDEST PUSH1 0x0 PUSH1 0x20 DUP3 DUP5 SUB SLT ISZERO PUSH2 0x31E JUMPI PUSH2 0x31D PUSH2 0x46A JUMP JUMPDEST JUMPDEST PUSH1 0x0 PUSH2 0x32C DUP5 DUP3 DUP6 ADD PUSH2 0x2C6 JUMP JUMPDEST SWAP2 POP POP SWAP3 SWAP2 POP POP JUMP JUMPDEST PUSH2 0x33E DUP2 PUSH2 0x3ED JUMP JUMPDEST DUP3 MSTORE POP POP JUMP JUMPDEST PUSH2 0x34D DUP2 PUSH2 0x431 JUMP JUMPDEST DUP3 MSTORE POP POP JUMP JUMPDEST PUSH1 0x0 PUSH1 0x40 DUP3 ADD SWAP1 POP PUSH2 0x368 PUSH1 0x0 DUP4 ADD DUP6 PUSH2 0x335 JUMP JUMPDEST PUSH2 0x375 PUSH1 0x20 DUP4 ADD DUP5 PUSH2 0x344 JUMP JUMPDEST SWAP4 SWAP3 POP POP POP JUMP JUMPDEST PUSH1 0x0 PUSH1 0x20 DUP3 ADD SWAP1 POP PUSH2 0x391 PUSH1 0x0 DUP4 ADD DUP5 PUSH2 0x344 JUMP JUMPDEST SWAP3 SWAP2 POP POP JUMP JUMPDEST PUSH1 0x0 PUSH2 0x3A2 DUP3 PUSH2 0x431 JUMP JUMPDEST SWAP2 POP PUSH2 0x3AD DUP4 PUSH2 0x431 JUMP JUMPDEST SWAP3 POP DUP3 PUSH32 0xFFFFFFFFFFFFFFFFFFFFFFFFFFFFFFFFFFFFFFFFFFFFFFFFFFFFFFFFFFFFFFFF SUB DUP3 GT ISZERO PUSH2 0x3E2 JUMPI PUSH2 0x3E1 PUSH2 0x43B JUMP JUMPDEST JUMPDEST DUP3 DUP3 ADD SWAP1 POP SWAP3 SWAP2 POP POP JUMP JUMPDEST PUSH1 0x0 PUSH2 0x3F8 DUP3 PUSH2 0x411 JUMP JUMPDEST SWAP1 POP SWAP2 SWAP1 POP JUMP JUMPDEST PUSH1 0x0 PUSH2 0x40A DUP3 PUSH2 0x411 JUMP JUMPDEST SWAP1 POP SWAP2 SWAP1 POP JUMP JUMPDEST PUSH1 0x0 PUSH20 0xFFFFFFFFFFFFFFFFFFFFFFFFFFFFFFFFFFFFFFFF DUP3 AND SWAP1 POP SWAP2 SWAP1 POP JUMP JUMPDEST PUSH1 0x0 DUP2 SWAP1 POP SWAP2 SWAP1 POP JUMP JUMPDEST PUSH32 0x4E487B7100000000000000000000000000000000000000000000000000000000 PUSH1 0x0 MSTORE PUSH1 0x11 PUSH1 0x4 MSTORE PUSH1 0x24 PUSH1 0x0 REVERT JUMPDEST PUSH1 0x0 DUP1 REVERT JUMPDEST PUSH2 0x478 DUP2 PUSH2 0x3ED JUMP JUMPDEST DUP2 EQ PUSH2 0x483 JUMPI PUSH1 0x0 DUP1 REVERT JUMPDEST POP JUMP JUMPDEST PUSH2 0x48F DUP2 PUSH2 0x3FF JUMP JUMPDEST DUP2 EQ PUSH2 0x49A JUMPI PUSH1 0x0 DUP1 REVERT JUMPDEST POP JUMP INVALID LOG2 PUSH5 0x6970667358 0x22 SLT KECCAK256 0x1F PUSH7 0x1AC64B0143C752 CALLER 0x25 JUMPI LOG3 0xC9 DUP5 DUP1 CHAINID PUSH8 0xB462E982B05D0411 DIFFICULTY 0x24 0x28 SWAP9 0xCC SWAP9 PUSH5 0x736F6C6343 STOP ADDMOD SMOD STOP CALLER "
				},
				"gasEstimates": {
					"creation": {
						"codeDepositCost": "247000",
						"executionCost": "287",
						"totalCost": "247287"
					},
					"external": {
						"": "infinite",
						"balance(address)": "2836",
						"deposit(address)": "infinite",
						"getBalanceByAddr(address)": "2841",
						"withdraw()": "infinite"
					}
				},
				"methodIdentifiers": {
					"balance(address)": "e3d670d7",
					"deposit(address)": "f340fa01",
					"getBalanceByAddr(address)": "944419db",
					"withdraw()": "3ccfd60b"
				}
			},
			"storageLayout": {
				"storage": [
					{
						"astId": 5,
						"contract": "contracts/Escrow.sol:Escrow",
						"label": "balance",
						"offset": 0,
						"slot": "0",
						"type": "t_mapping(t_address,t_uint256)"
					}
				],
				"types": {
					"t_address": {
						"encoding": "inplace",
						"label": "address",
						"numberOfBytes": "20"
					},
					"t_mapping(t_address,t_uint256)": {
						"encoding": "mapping",
						"key": "t_address",
						"label": "mapping(address => uint256)",
						"numberOfBytes": "32",
						"value": "t_uint256"
					},
					"t_uint256": {
						"encoding": "inplace",
						"label": "uint256",
						"numberOfBytes": "32"
					}
				}
			},
			"userdoc": {
				"kind": "user",
				"methods": {},
				"version": 1
			}
		}
	}
}