{
	"contracts/EscrowERC20.sol": {
		"EscrowERC20": {
			"abi": [
				{
					"inputs": [
						{
							"internalType": "address",
							"name": "",
							"type": "address"
						},
						{
							"internalType": "address",
							"name": "",
							"type": "address"
						}
					],
					"name": "balance",
					"outputs": [
						{
							"internalType": "uint256",
							"name": "",
							"type": "uint256"
						}
					],
					"stateMutability": "view",
					"type": "function"
				},
				{
					"inputs": [
						{
							"internalType": "contract IERC20",
							"name": "token",
							"type": "address"
						},
						{
							"internalType": "address",
							"name": "receiver",
							"type": "address"
						},
						{
							"internalType": "uint256",
							"name": "amount",
							"type": "uint256"
						}
					],
					"name": "deposit2",
					"outputs": [],
					"stateMutability": "nonpayable",
					"type": "function"
				}
			],
			"devdoc": {
				"kind": "dev",
				"methods": {},
				"version": 1
			},
			"evm": {
				"assembly": "    /* \"contracts/EscrowERC20.sol\":123:366  contract EscrowERC20 {... */\n  mstore(0x40, 0x80)\n  callvalue\n  dup1\n  iszero\n  tag_1\n  jumpi\n  0x00\n  dup1\n  revert\ntag_1:\n  pop\n  dataSize(sub_0)\n  dup1\n  dataOffset(sub_0)\n  0x00\n  codecopy\n  0x00\n  return\nstop\n\nsub_0: assembly {\n        /* \"contracts/EscrowERC20.sol\":123:366  contract EscrowERC20 {... */\n      mstore(0x40, 0x80)\n      callvalue\n      dup1\n      iszero\n      tag_1\n      jumpi\n      0x00\n      dup1\n      revert\n    tag_1:\n      pop\n      jumpi(tag_2, lt(calldatasize, 0x04))\n      shr(0xe0, calldataload(0x00))\n      dup1\n      0x346f0fa7\n      eq\n      tag_3\n      jumpi\n      dup1\n      0xb203bb99\n      eq\n      tag_4\n      jumpi\n    tag_2:\n      0x00\n      dup1\n      revert\n        /* \"contracts/EscrowERC20.sol\":220:364  function deposit2(IERC20 token, address receiver, uint amount) public {... */\n    tag_3:\n      tag_5\n      0x04\n      dup1\n      calldatasize\n      sub\n      dup2\n      add\n      swap1\n      tag_6\n      swap2\n      swap1\n      tag_7\n      jump\t// in\n    tag_6:\n      tag_8\n      jump\t// in\n    tag_5:\n      stop\n        /* \"contracts/EscrowERC20.sol\":150:213  mapping(address => mapping (address => uint256)) public balance */\n    tag_4:\n      tag_9\n      0x04\n      dup1\n      calldatasize\n      sub\n      dup2\n      add\n      swap1\n      tag_10\n      swap2\n      swap1\n      tag_11\n      jump\t// in\n    tag_10:\n      tag_12\n      jump\t// in\n    tag_9:\n      mload(0x40)\n      tag_13\n      swap2\n      swap1\n      tag_14\n      jump\t// in\n    tag_13:\n      mload(0x40)\n      dup1\n      swap2\n      sub\n      swap1\n      return\n        /* \"contracts/EscrowERC20.sol\":220:364  function deposit2(IERC20 token, address receiver, uint amount) public {... */\n    tag_8:\n        /* \"contracts/EscrowERC20.sol\":308:313  token */\n      dup3\n        /* \"contracts/EscrowERC20.sol\":308:326  token.transferFrom */\n      0xffffffffffffffffffffffffffffffffffffffff\n      and\n      0x23b872dd\n        /* \"contracts/EscrowERC20.sol\":327:337  msg.sender */\n      caller\n        /* \"contracts/EscrowERC20.sol\":339:347  receiver */\n      dup5\n        /* \"contracts/EscrowERC20.sol\":349:355  amount */\n      dup5\n        /* \"contracts/EscrowERC20.sol\":308:356  token.transferFrom(msg.sender, receiver, amount) */\n      mload(0x40)\n      dup5\n      0xffffffff\n      and\n      0xe0\n      shl\n      dup2\n      mstore\n      0x04\n      add\n      tag_16\n      swap4\n      swap3\n      swap2\n      swap1\n      tag_17\n      jump\t// in\n    tag_16:\n      0x20\n      mload(0x40)\n      dup1\n      dup4\n      sub\n      dup2\n      0x00\n      dup8\n      dup1\n      extcodesize\n      iszero\n      dup1\n      iszero\n      tag_18\n      jumpi\n      0x00\n      dup1\n      revert\n    tag_18:\n      pop\n      gas\n      call\n      iszero\n      dup1\n      iszero\n      tag_20\n      jumpi\n      returndatasize\n      0x00\n      dup1\n      returndatacopy\n      revert(0x00, returndatasize)\n    tag_20:\n      pop\n      pop\n      pop\n      pop\n      mload(0x40)\n      returndatasize\n      not(0x1f)\n      0x1f\n      dup3\n      add\n      and\n      dup3\n      add\n      dup1\n      0x40\n      mstore\n      pop\n      dup2\n      add\n      swap1\n      tag_21\n      swap2\n      swap1\n      tag_22\n      jump\t// in\n    tag_21:\n        /* \"contracts/EscrowERC20.sol\":300:357  require(token.transferFrom(msg.sender, receiver, amount)) */\n      tag_23\n      jumpi\n      0x00\n      dup1\n      revert\n    tag_23:\n        /* \"contracts/EscrowERC20.sol\":220:364  function deposit2(IERC20 token, address receiver, uint amount) public {... */\n      pop\n      pop\n      pop\n      jump\t// out\n        /* \"contracts/EscrowERC20.sol\":150:213  mapping(address => mapping (address => uint256)) public balance */\n    tag_12:\n      mstore(0x20, 0x00)\n      dup2\n      0x00\n      mstore\n      mstore(0x20, keccak256(0x00, 0x40))\n      dup1\n      0x00\n      mstore\n      keccak256(0x00, 0x40)\n      0x00\n      swap2\n      pop\n      swap2\n      pop\n      pop\n      sload\n      dup2\n      jump\t// out\n        /* \"#utility.yul\":7:146   */\n    tag_25:\n        /* \"#utility.yul\":53:58   */\n      0x00\n        /* \"#utility.yul\":91:97   */\n      dup2\n        /* \"#utility.yul\":78:98   */\n      calldataload\n        /* \"#utility.yul\":69:98   */\n      swap1\n      pop\n        /* \"#utility.yul\":107:140   */\n      tag_27\n        /* \"#utility.yul\":134:139   */\n      dup2\n        /* \"#utility.yul\":107:140   */\n      tag_28\n      jump\t// in\n    tag_27:\n        /* \"#utility.yul\":7:146   */\n      swap3\n      swap2\n      pop\n      pop\n      jump\t// out\n        /* \"#utility.yul\":152:289   */\n    tag_29:\n        /* \"#utility.yul\":206:211   */\n      0x00\n        /* \"#utility.yul\":237:243   */\n      dup2\n        /* \"#utility.yul\":231:244   */\n      mload\n        /* \"#utility.yul\":222:244   */\n      swap1\n      pop\n        /* \"#utility.yul\":253:283   */\n      tag_31\n        /* \"#utility.yul\":277:282   */\n      dup2\n        /* \"#utility.yul\":253:283   */\n      tag_32\n      jump\t// in\n    tag_31:\n        /* \"#utility.yul\":152:289   */\n      swap3\n      swap2\n      pop\n      pop\n      jump\t// out\n        /* \"#utility.yul\":295:460   */\n    tag_33:\n        /* \"#utility.yul\":354:359   */\n      0x00\n        /* \"#utility.yul\":392:398   */\n      dup2\n        /* \"#utility.yul\":379:399   */\n      calldataload\n        /* \"#utility.yul\":370:399   */\n      swap1\n      pop\n        /* \"#utility.yul\":408:454   */\n      tag_35\n        /* \"#utility.yul\":448:453   */\n      dup2\n        /* \"#utility.yul\":408:454   */\n      tag_36\n      jump\t// in\n    tag_35:\n        /* \"#utility.yul\":295:460   */\n      swap3\n      swap2\n      pop\n      pop\n      jump\t// out\n        /* \"#utility.yul\":466:605   */\n    tag_37:\n        /* \"#utility.yul\":512:517   */\n      0x00\n        /* \"#utility.yul\":550:556   */\n      dup2\n        /* \"#utility.yul\":537:557   */\n      calldataload\n        /* \"#utility.yul\":528:557   */\n      swap1\n      pop\n        /* \"#utility.yul\":566:599   */\n      tag_39\n        /* \"#utility.yul\":593:598   */\n      dup2\n        /* \"#utility.yul\":566:599   */\n      tag_40\n      jump\t// in\n    tag_39:\n        /* \"#utility.yul\":466:605   */\n      swap3\n      swap2\n      pop\n      pop\n      jump\t// out\n        /* \"#utility.yul\":611:1085   */\n    tag_11:\n        /* \"#utility.yul\":679:685   */\n      0x00\n        /* \"#utility.yul\":687:693   */\n      dup1\n        /* \"#utility.yul\":736:738   */\n      0x40\n        /* \"#utility.yul\":724:733   */\n      dup4\n        /* \"#utility.yul\":715:722   */\n      dup6\n        /* \"#utility.yul\":711:734   */\n      sub\n        /* \"#utility.yul\":707:739   */\n      slt\n        /* \"#utility.yul\":704:823   */\n      iszero\n      tag_42\n      jumpi\n        /* \"#utility.yul\":742:821   */\n      tag_43\n      tag_44\n      jump\t// in\n    tag_43:\n        /* \"#utility.yul\":704:823   */\n    tag_42:\n        /* \"#utility.yul\":862:863   */\n      0x00\n        /* \"#utility.yul\":887:940   */\n      tag_45\n        /* \"#utility.yul\":932:939   */\n      dup6\n        /* \"#utility.yul\":923:929   */\n      dup3\n        /* \"#utility.yul\":912:921   */\n      dup7\n        /* \"#utility.yul\":908:930   */\n      add\n        /* \"#utility.yul\":887:940   */\n      tag_25\n      jump\t// in\n    tag_45:\n        /* \"#utility.yul\":877:940   */\n      swap3\n      pop\n        /* \"#utility.yul\":833:950   */\n      pop\n        /* \"#utility.yul\":989:991   */\n      0x20\n        /* \"#utility.yul\":1015:1068   */\n      tag_46\n        /* \"#utility.yul\":1060:1067   */\n      dup6\n        /* \"#utility.yul\":1051:1057   */\n      dup3\n        /* \"#utility.yul\":1040:1049   */\n      dup7\n        /* \"#utility.yul\":1036:1058   */\n      add\n        /* \"#utility.yul\":1015:1068   */\n      tag_25\n      jump\t// in\n    tag_46:\n        /* \"#utility.yul\":1005:1068   */\n      swap2\n      pop\n        /* \"#utility.yul\":960:1078   */\n      pop\n        /* \"#utility.yul\":611:1085   */\n      swap3\n      pop\n      swap3\n      swap1\n      pop\n      jump\t// out\n        /* \"#utility.yul\":1091:1436   */\n    tag_22:\n        /* \"#utility.yul\":1158:1164   */\n      0x00\n        /* \"#utility.yul\":1207:1209   */\n      0x20\n        /* \"#utility.yul\":1195:1204   */\n      dup3\n        /* \"#utility.yul\":1186:1193   */\n      dup5\n        /* \"#utility.yul\":1182:1205   */\n      sub\n        /* \"#utility.yul\":1178:1210   */\n      slt\n        /* \"#utility.yul\":1175:1294   */\n      iszero\n      tag_48\n      jumpi\n        /* \"#utility.yul\":1213:1292   */\n      tag_49\n      tag_44\n      jump\t// in\n    tag_49:\n        /* \"#utility.yul\":1175:1294   */\n    tag_48:\n        /* \"#utility.yul\":1333:1334   */\n      0x00\n        /* \"#utility.yul\":1358:1419   */\n      tag_50\n        /* \"#utility.yul\":1411:1418   */\n      dup5\n        /* \"#utility.yul\":1402:1408   */\n      dup3\n        /* \"#utility.yul\":1391:1400   */\n      dup6\n        /* \"#utility.yul\":1387:1409   */\n      add\n        /* \"#utility.yul\":1358:1419   */\n      tag_29\n      jump\t// in\n    tag_50:\n        /* \"#utility.yul\":1348:1419   */\n      swap2\n      pop\n        /* \"#utility.yul\":1304:1429   */\n      pop\n        /* \"#utility.yul\":1091:1436   */\n      swap3\n      swap2\n      pop\n      pop\n      jump\t// out\n        /* \"#utility.yul\":1442:2087   */\n    tag_7:\n        /* \"#utility.yul\":1532:1538   */\n      0x00\n        /* \"#utility.yul\":1540:1546   */\n      dup1\n        /* \"#utility.yul\":1548:1554   */\n      0x00\n        /* \"#utility.yul\":1597:1599   */\n      0x60\n        /* \"#utility.yul\":1585:1594   */\n      dup5\n        /* \"#utility.yul\":1576:1583   */\n      dup7\n        /* \"#utility.yul\":1572:1595   */\n      sub\n        /* \"#utility.yul\":1568:1600   */\n      slt\n        /* \"#utility.yul\":1565:1684   */\n      iszero\n      tag_52\n      jumpi\n        /* \"#utility.yul\":1603:1682   */\n      tag_53\n      tag_44\n      jump\t// in\n    tag_53:\n        /* \"#utility.yul\":1565:1684   */\n    tag_52:\n        /* \"#utility.yul\":1723:1724   */\n      0x00\n        /* \"#utility.yul\":1748:1814   */\n      tag_54\n        /* \"#utility.yul\":1806:1813   */\n      dup7\n        /* \"#utility.yul\":1797:1803   */\n      dup3\n        /* \"#utility.yul\":1786:1795   */\n      dup8\n        /* \"#utility.yul\":1782:1804   */\n      add\n        /* \"#utility.yul\":1748:1814   */\n      tag_33\n      jump\t// in\n    tag_54:\n        /* \"#utility.yul\":1738:1814   */\n      swap4\n      pop\n        /* \"#utility.yul\":1694:1824   */\n      pop\n        /* \"#utility.yul\":1863:1865   */\n      0x20\n        /* \"#utility.yul\":1889:1942   */\n      tag_55\n        /* \"#utility.yul\":1934:1941   */\n      dup7\n        /* \"#utility.yul\":1925:1931   */\n      dup3\n        /* \"#utility.yul\":1914:1923   */\n      dup8\n        /* \"#utility.yul\":1910:1932   */\n      add\n        /* \"#utility.yul\":1889:1942   */\n      tag_25\n      jump\t// in\n    tag_55:\n        /* \"#utility.yul\":1879:1942   */\n      swap3\n      pop\n        /* \"#utility.yul\":1834:1952   */\n      pop\n        /* \"#utility.yul\":1991:1993   */\n      0x40\n        /* \"#utility.yul\":2017:2070   */\n      tag_56\n        /* \"#utility.yul\":2062:2069   */\n      dup7\n        /* \"#utility.yul\":2053:2059   */\n      dup3\n        /* \"#utility.yul\":2042:2051   */\n      dup8\n        /* \"#utility.yul\":2038:2060   */\n      add\n        /* \"#utility.yul\":2017:2070   */\n      tag_37\n      jump\t// in\n    tag_56:\n        /* \"#utility.yul\":2007:2070   */\n      swap2\n      pop\n        /* \"#utility.yul\":1962:2080   */\n      pop\n        /* \"#utility.yul\":1442:2087   */\n      swap3\n      pop\n      swap3\n      pop\n      swap3\n      jump\t// out\n        /* \"#utility.yul\":2093:2211   */\n    tag_57:\n        /* \"#utility.yul\":2180:2204   */\n      tag_59\n        /* \"#utility.yul\":2198:2203   */\n      dup2\n        /* \"#utility.yul\":2180:2204   */\n      tag_60\n      jump\t// in\n    tag_59:\n        /* \"#utility.yul\":2175:2178   */\n      dup3\n        /* \"#utility.yul\":2168:2205   */\n      mstore\n        /* \"#utility.yul\":2093:2211   */\n      pop\n      pop\n      jump\t// out\n        /* \"#utility.yul\":2217:2335   */\n    tag_61:\n        /* \"#utility.yul\":2304:2328   */\n      tag_63\n        /* \"#utility.yul\":2322:2327   */\n      dup2\n        /* \"#utility.yul\":2304:2328   */\n      tag_64\n      jump\t// in\n    tag_63:\n        /* \"#utility.yul\":2299:2302   */\n      dup3\n        /* \"#utility.yul\":2292:2329   */\n      mstore\n        /* \"#utility.yul\":2217:2335   */\n      pop\n      pop\n      jump\t// out\n        /* \"#utility.yul\":2341:2783   */\n    tag_17:\n        /* \"#utility.yul\":2490:2494   */\n      0x00\n        /* \"#utility.yul\":2528:2530   */\n      0x60\n        /* \"#utility.yul\":2517:2526   */\n      dup3\n        /* \"#utility.yul\":2513:2531   */\n      add\n        /* \"#utility.yul\":2505:2531   */\n      swap1\n      pop\n        /* \"#utility.yul\":2541:2612   */\n      tag_66\n        /* \"#utility.yul\":2609:2610   */\n      0x00\n        /* \"#utility.yul\":2598:2607   */\n      dup4\n        /* \"#utility.yul\":2594:2611   */\n      add\n        /* \"#utility.yul\":2585:2591   */\n      dup7\n        /* \"#utility.yul\":2541:2612   */\n      tag_57\n      jump\t// in\n    tag_66:\n        /* \"#utility.yul\":2622:2694   */\n      tag_67\n        /* \"#utility.yul\":2690:2692   */\n      0x20\n        /* \"#utility.yul\":2679:2688   */\n      dup4\n        /* \"#utility.yul\":2675:2693   */\n      add\n        /* \"#utility.yul\":2666:2672   */\n      dup6\n        /* \"#utility.yul\":2622:2694   */\n      tag_57\n      jump\t// in\n    tag_67:\n        /* \"#utility.yul\":2704:2776   */\n      tag_68\n        /* \"#utility.yul\":2772:2774   */\n      0x40\n        /* \"#utility.yul\":2761:2770   */\n      dup4\n        /* \"#utility.yul\":2757:2775   */\n      add\n        /* \"#utility.yul\":2748:2754   */\n      dup5\n        /* \"#utility.yul\":2704:2776   */\n      tag_61\n      jump\t// in\n    tag_68:\n        /* \"#utility.yul\":2341:2783   */\n      swap5\n      swap4\n      pop\n      pop\n      pop\n      pop\n      jump\t// out\n        /* \"#utility.yul\":2789:3011   */\n    tag_14:\n        /* \"#utility.yul\":2882:2886   */\n      0x00\n        /* \"#utility.yul\":2920:2922   */\n      0x20\n        /* \"#utility.yul\":2909:2918   */\n      dup3\n        /* \"#utility.yul\":2905:2923   */\n      add\n        /* \"#utility.yul\":2897:2923   */\n      swap1\n      pop\n        /* \"#utility.yul\":2933:3004   */\n      tag_70\n        /* \"#utility.yul\":3001:3002   */\n      0x00\n        /* \"#utility.yul\":2990:2999   */\n      dup4\n        /* \"#utility.yul\":2986:3003   */\n      add\n        /* \"#utility.yul\":2977:2983   */\n      dup5\n        /* \"#utility.yul\":2933:3004   */\n      tag_61\n      jump\t// in\n    tag_70:\n        /* \"#utility.yul\":2789:3011   */\n      swap3\n      swap2\n      pop\n      pop\n      jump\t// out\n        /* \"#utility.yul\":3098:3194   */\n    tag_60:\n        /* \"#utility.yul\":3135:3142   */\n      0x00\n        /* \"#utility.yul\":3164:3188   */\n      tag_74\n        /* \"#utility.yul\":3182:3187   */\n      dup3\n        /* \"#utility.yul\":3164:3188   */\n      tag_75\n      jump\t// in\n    tag_74:\n        /* \"#utility.yul\":3153:3188   */\n      swap1\n      pop\n        /* \"#utility.yul\":3098:3194   */\n      swap2\n      swap1\n      pop\n      jump\t// out\n        /* \"#utility.yul\":3200:3290   */\n    tag_76:\n        /* \"#utility.yul\":3234:3241   */\n      0x00\n        /* \"#utility.yul\":3277:3282   */\n      dup2\n        /* \"#utility.yul\":3270:3283   */\n      iszero\n        /* \"#utility.yul\":3263:3284   */\n      iszero\n        /* \"#utility.yul\":3252:3284   */\n      swap1\n      pop\n        /* \"#utility.yul\":3200:3290   */\n      swap2\n      swap1\n      pop\n      jump\t// out\n        /* \"#utility.yul\":3296:3405   */\n    tag_78:\n        /* \"#utility.yul\":3346:3353   */\n      0x00\n        /* \"#utility.yul\":3375:3399   */\n      tag_80\n        /* \"#utility.yul\":3393:3398   */\n      dup3\n        /* \"#utility.yul\":3375:3399   */\n      tag_60\n      jump\t// in\n    tag_80:\n        /* \"#utility.yul\":3364:3399   */\n      swap1\n      pop\n        /* \"#utility.yul\":3296:3405   */\n      swap2\n      swap1\n      pop\n      jump\t// out\n        /* \"#utility.yul\":3411:3537   */\n    tag_75:\n        /* \"#utility.yul\":3448:3455   */\n      0x00\n        /* \"#utility.yul\":3488:3530   */\n      0xffffffffffffffffffffffffffffffffffffffff\n        /* \"#utility.yul\":3481:3486   */\n      dup3\n        /* \"#utility.yul\":3477:3531   */\n      and\n        /* \"#utility.yul\":3466:3531   */\n      swap1\n      pop\n        /* \"#utility.yul\":3411:3537   */\n      swap2\n      swap1\n      pop\n      jump\t// out\n        /* \"#utility.yul\":3543:3620   */\n    tag_64:\n        /* \"#utility.yul\":3580:3587   */\n      0x00\n        /* \"#utility.yul\":3609:3614   */\n      dup2\n        /* \"#utility.yul\":3598:3614   */\n      swap1\n      pop\n        /* \"#utility.yul\":3543:3620   */\n      swap2\n      swap1\n      pop\n      jump\t// out\n        /* \"#utility.yul\":3749:3866   */\n    tag_44:\n        /* \"#utility.yul\":3858:3859   */\n      0x00\n        /* \"#utility.yul\":3855:3856   */\n      dup1\n        /* \"#utility.yul\":3848:3860   */\n      revert\n        /* \"#utility.yul\":3872:3994   */\n    tag_28:\n        /* \"#utility.yul\":3945:3969   */\n      tag_87\n        /* \"#utility.yul\":3963:3968   */\n      dup2\n        /* \"#utility.yul\":3945:3969   */\n      tag_60\n      jump\t// in\n    tag_87:\n        /* \"#utility.yul\":3938:3943   */\n      dup2\n        /* \"#utility.yul\":3935:3970   */\n      eq\n        /* \"#utility.yul\":3925:3988   */\n      tag_88\n      jumpi\n        /* \"#utility.yul\":3984:3985   */\n      0x00\n        /* \"#utility.yul\":3981:3982   */\n      dup1\n        /* \"#utility.yul\":3974:3986   */\n      revert\n        /* \"#utility.yul\":3925:3988   */\n    tag_88:\n        /* \"#utility.yul\":3872:3994   */\n      pop\n      jump\t// out\n        /* \"#utility.yul\":4000:4116   */\n    tag_32:\n        /* \"#utility.yul\":4070:4091   */\n      tag_90\n        /* \"#utility.yul\":4085:4090   */\n      dup2\n        /* \"#utility.yul\":4070:4091   */\n      tag_76\n      jump\t// in\n    tag_90:\n        /* \"#utility.yul\":4063:4068   */\n      dup2\n        /* \"#utility.yul\":4060:4092   */\n      eq\n        /* \"#utility.yul\":4050:4110   */\n      tag_91\n      jumpi\n        /* \"#utility.yul\":4106:4107   */\n      0x00\n        /* \"#utility.yul\":4103:4104   */\n      dup1\n        /* \"#utility.yul\":4096:4108   */\n      revert\n        /* \"#utility.yul\":4050:4110   */\n    tag_91:\n        /* \"#utility.yul\":4000:4116   */\n      pop\n      jump\t// out\n        /* \"#utility.yul\":4122:4270   */\n    tag_36:\n        /* \"#utility.yul\":4208:4245   */\n      tag_93\n        /* \"#utility.yul\":4239:4244   */\n      dup2\n        /* \"#utility.yul\":4208:4245   */\n      tag_78\n      jump\t// in\n    tag_93:\n        /* \"#utility.yul\":4201:4206   */\n      dup2\n        /* \"#utility.yul\":4198:4246   */\n      eq\n        /* \"#utility.yul\":4188:4264   */\n      tag_94\n      jumpi\n        /* \"#utility.yul\":4260:4261   */\n      0x00\n        /* \"#utility.yul\":4257:4258   */\n      dup1\n        /* \"#utility.yul\":4250:4262   */\n      revert\n        /* \"#utility.yul\":4188:4264   */\n    tag_94:\n        /* \"#utility.yul\":4122:4270   */\n      pop\n      jump\t// out\n        /* \"#utility.yul\":4276:4398   */\n    tag_40:\n        /* \"#utility.yul\":4349:4373   */\n      tag_96\n        /* \"#utility.yul\":4367:4372   */\n      dup2\n        /* \"#utility.yul\":4349:4373   */\n      tag_64\n      jump\t// in\n    tag_96:\n        /* \"#utility.yul\":4342:4347   */\n      dup2\n        /* \"#utility.yul\":4339:4374   */\n      eq\n        /* \"#utility.yul\":4329:4392   */\n      tag_97\n      jumpi\n        /* \"#utility.yul\":4388:4389   */\n      0x00\n        /* \"#utility.yul\":4385:4386   */\n      dup1\n        /* \"#utility.yul\":4378:4390   */\n      revert\n        /* \"#utility.yul\":4329:4392   */\n    tag_97:\n        /* \"#utility.yul\":4276:4398   */\n      pop\n      jump\t// out\n\n    auxdata: 0xa2646970667358221220ca9d86b9a66735e28c9fefb07d6b66fa8596cb39561b5d2070fb65e11a6607b964736f6c63430008070033\n}\n",
				"bytecode": {
					"linkReferences": {},
					"object": "608060405234801561001057600080fd5b506103be806100206000396000f3fe608060405234801561001057600080fd5b50600436106100365760003560e01c8063346f0fa71461003b578063b203bb9914610057575b600080fd5b6100556004803603810190610050919061020a565b610087565b005b610071600480360381019061006c919061019d565b610124565b60405161007e91906102b2565b60405180910390f35b8273ffffffffffffffffffffffffffffffffffffffff166323b872dd3384846040518463ffffffff1660e01b81526004016100c49392919061027b565b602060405180830381600087803b1580156100de57600080fd5b505af11580156100f2573d6000803e3d6000fd5b505050506040513d601f19601f8201168201806040525081019061011691906101dd565b61011f57600080fd5b505050565b6000602052816000526040600020602052806000526040600020600091509150505481565b6000813590506101588161032c565b92915050565b60008151905061016d81610343565b92915050565b6000813590506101828161035a565b92915050565b60008135905061019781610371565b92915050565b600080604083850312156101b4576101b3610327565b5b60006101c285828601610149565b92505060206101d385828601610149565b9150509250929050565b6000602082840312156101f3576101f2610327565b5b60006102018482850161015e565b91505092915050565b60008060006060848603121561022357610222610327565b5b600061023186828701610173565b935050602061024286828701610149565b925050604061025386828701610188565b9150509250925092565b610266816102cd565b82525050565b6102758161031d565b82525050565b6000606082019050610290600083018661025d565b61029d602083018561025d565b6102aa604083018461026c565b949350505050565b60006020820190506102c7600083018461026c565b92915050565b60006102d8826102fd565b9050919050565b60008115159050919050565b60006102f6826102cd565b9050919050565b600073ffffffffffffffffffffffffffffffffffffffff82169050919050565b6000819050919050565b600080fd5b610335816102cd565b811461034057600080fd5b50565b61034c816102df565b811461035757600080fd5b50565b610363816102eb565b811461036e57600080fd5b50565b61037a8161031d565b811461038557600080fd5b5056fea2646970667358221220ca9d86b9a66735e28c9fefb07d6b66fa8596cb39561b5d2070fb65e11a6607b964736f6c63430008070033",
					"opcodes": "PUSH1 0x80 PUSH1 0x40 MSTORE CALLVALUE DUP1 ISZERO PUSH2 0x10 JUMPI PUSH1 0x0 DUP1 REVERT JUMPDEST POP PUSH2 0x3BE DUP1 PUSH2 0x20 PUSH1 0x0 CODECOPY PUSH1 0x0 RETURN INVALID PUSH1 0x80 PUSH1 0x40 MSTORE CALLVALUE DUP1 ISZERO PUSH2 0x10 JUMPI PUSH1 0x0 DUP1 REVERT JUMPDEST POP PUSH1 0x4 CALLDATASIZE LT PUSH2 0x36 JUMPI PUSH1 0x0 CALLDATALOAD PUSH1 0xE0 SHR DUP1 PUSH4 0x346F0FA7 EQ PUSH2 0x3B JUMPI DUP1 PUSH4 0xB203BB99 EQ PUSH2 0x57 JUMPI JUMPDEST PUSH1 0x0 DUP1 REVERT JUMPDEST PUSH2 0x55 PUSH1 0x4 DUP1 CALLDATASIZE SUB DUP2 ADD SWAP1 PUSH2 0x50 SWAP2 SWAP1 PUSH2 0x20A JUMP JUMPDEST PUSH2 0x87 JUMP JUMPDEST STOP JUMPDEST PUSH2 0x71 PUSH1 0x4 DUP1 CALLDATASIZE SUB DUP2 ADD SWAP1 PUSH2 0x6C SWAP2 SWAP1 PUSH2 0x19D JUMP JUMPDEST PUSH2 0x124 JUMP JUMPDEST PUSH1 0x40 MLOAD PUSH2 0x7E SWAP2 SWAP1 PUSH2 0x2B2 JUMP JUMPDEST PUSH1 0x40 MLOAD DUP1 SWAP2 SUB SWAP1 RETURN JUMPDEST DUP3 PUSH20 0xFFFFFFFFFFFFFFFFFFFFFFFFFFFFFFFFFFFFFFFF AND PUSH4 0x23B872DD CALLER DUP5 DUP5 PUSH1 0x40 MLOAD DUP5 PUSH4 0xFFFFFFFF AND PUSH1 0xE0 SHL DUP2 MSTORE PUSH1 0x4 ADD PUSH2 0xC4 SWAP4 SWAP3 SWAP2 SWAP1 PUSH2 0x27B JUMP JUMPDEST PUSH1 0x20 PUSH1 0x40 MLOAD DUP1 DUP4 SUB DUP2 PUSH1 0x0 DUP8 DUP1 EXTCODESIZE ISZERO DUP1 ISZERO PUSH2 0xDE JUMPI PUSH1 0x0 DUP1 REVERT JUMPDEST POP GAS CALL ISZERO DUP1 ISZERO PUSH2 0xF2 JUMPI RETURNDATASIZE PUSH1 0x0 DUP1 RETURNDATACOPY RETURNDATASIZE PUSH1 0x0 REVERT JUMPDEST POP POP POP POP PUSH1 0x40 MLOAD RETURNDATASIZE PUSH1 0x1F NOT PUSH1 0x1F DUP3 ADD AND DUP3 ADD DUP1 PUSH1 0x40 MSTORE POP DUP2 ADD SWAP1 PUSH2 0x116 SWAP2 SWAP1 PUSH2 0x1DD JUMP JUMPDEST PUSH2 0x11F JUMPI PUSH1 0x0 DUP1 REVERT JUMPDEST POP POP POP JUMP JUMPDEST PUSH1 0x0 PUSH1 0x20 MSTORE DUP2 PUSH1 0x0 MSTORE PUSH1 0x40 PUSH1 0x0 KECCAK256 PUSH1 0x20 MSTORE DUP1 PUSH1 0x0 MSTORE PUSH1 0x40 PUSH1 0x0 KECCAK256 PUSH1 0x0 SWAP2 POP SWAP2 POP POP SLOAD DUP2 JUMP JUMPDEST PUSH1 0x0 DUP2 CALLDATALOAD SWAP1 POP PUSH2 0x158 DUP2 PUSH2 0x32C JUMP JUMPDEST SWAP3 SWAP2 POP POP JUMP JUMPDEST PUSH1 0x0 DUP2 MLOAD SWAP1 POP PUSH2 0x16D DUP2 PUSH2 0x343 JUMP JUMPDEST SWAP3 SWAP2 POP POP JUMP JUMPDEST PUSH1 0x0 DUP2 CALLDATALOAD SWAP1 POP PUSH2 0x182 DUP2 PUSH2 0x35A JUMP JUMPDEST SWAP3 SWAP2 POP POP JUMP JUMPDEST PUSH1 0x0 DUP2 CALLDATALOAD SWAP1 POP PUSH2 0x197 DUP2 PUSH2 0x371 JUMP JUMPDEST SWAP3 SWAP2 POP POP JUMP JUMPDEST PUSH1 0x0 DUP1 PUSH1 0x40 DUP4 DUP6 SUB SLT ISZERO PUSH2 0x1B4 JUMPI PUSH2 0x1B3 PUSH2 0x327 JUMP JUMPDEST JUMPDEST PUSH1 0x0 PUSH2 0x1C2 DUP6 DUP3 DUP7 ADD PUSH2 0x149 JUMP JUMPDEST SWAP3 POP POP PUSH1 0x20 PUSH2 0x1D3 DUP6 DUP3 DUP7 ADD PUSH2 0x149 JUMP JUMPDEST SWAP2 POP POP SWAP3 POP SWAP3 SWAP1 POP JUMP JUMPDEST PUSH1 0x0 PUSH1 0x20 DUP3 DUP5 SUB SLT ISZERO PUSH2 0x1F3 JUMPI PUSH2 0x1F2 PUSH2 0x327 JUMP JUMPDEST JUMPDEST PUSH1 0x0 PUSH2 0x201 DUP5 DUP3 DUP6 ADD PUSH2 0x15E JUMP JUMPDEST SWAP2 POP POP SWAP3 SWAP2 POP POP JUMP JUMPDEST PUSH1 0x0 DUP1 PUSH1 0x0 PUSH1 0x60 DUP5 DUP7 SUB SLT ISZERO PUSH2 0x223 JUMPI PUSH2 0x222 PUSH2 0x327 JUMP JUMPDEST JUMPDEST PUSH1 0x0 PUSH2 0x231 DUP7 DUP3 DUP8 ADD PUSH2 0x173 JUMP JUMPDEST SWAP4 POP POP PUSH1 0x20 PUSH2 0x242 DUP7 DUP3 DUP8 ADD PUSH2 0x149 JUMP JUMPDEST SWAP3 POP POP PUSH1 0x40 PUSH2 0x253 DUP7 DUP3 DUP8 ADD PUSH2 0x188 JUMP JUMPDEST SWAP2 POP POP SWAP3 POP SWAP3 POP SWAP3 JUMP JUMPDEST PUSH2 0x266 DUP2 PUSH2 0x2CD JUMP JUMPDEST DUP3 MSTORE POP POP JUMP JUMPDEST PUSH2 0x275 DUP2 PUSH2 0x31D JUMP JUMPDEST DUP3 MSTORE POP POP JUMP JUMPDEST PUSH1 0x0 PUSH1 0x60 DUP3 ADD SWAP1 POP PUSH2 0x290 PUSH1 0x0 DUP4 ADD DUP7 PUSH2 0x25D JUMP JUMPDEST PUSH2 0x29D PUSH1 0x20 DUP4 ADD DUP6 PUSH2 0x25D JUMP JUMPDEST PUSH2 0x2AA PUSH1 0x40 DUP4 ADD DUP5 PUSH2 0x26C JUMP JUMPDEST SWAP5 SWAP4 POP POP POP POP JUMP JUMPDEST PUSH1 0x0 PUSH1 0x20 DUP3 ADD SWAP1 POP PUSH2 0x2C7 PUSH1 0x0 DUP4 ADD DUP5 PUSH2 0x26C JUMP JUMPDEST SWAP3 SWAP2 POP POP JUMP JUMPDEST PUSH1 0x0 PUSH2 0x2D8 DUP3 PUSH2 0x2FD JUMP JUMPDEST SWAP1 POP SWAP2 SWAP1 POP JUMP JUMPDEST PUSH1 0x0 DUP2 ISZERO ISZERO SWAP1 POP SWAP2 SWAP1 POP JUMP JUMPDEST PUSH1 0x0 PUSH2 0x2F6 DUP3 PUSH2 0x2CD JUMP JUMPDEST SWAP1 POP SWAP2 SWAP1 POP JUMP JUMPDEST PUSH1 0x0 PUSH20 0xFFFFFFFFFFFFFFFFFFFFFFFFFFFFFFFFFFFFFFFF DUP3 AND SWAP1 POP SWAP2 SWAP1 POP JUMP JUMPDEST PUSH1 0x0 DUP2 SWAP1 POP SWAP2 SWAP1 POP JUMP JUMPDEST PUSH1 0x0 DUP1 REVERT JUMPDEST PUSH2 0x335 DUP2 PUSH2 0x2CD JUMP JUMPDEST DUP2 EQ PUSH2 0x340 JUMPI PUSH1 0x0 DUP1 REVERT JUMPDEST POP JUMP JUMPDEST PUSH2 0x34C DUP2 PUSH2 0x2DF JUMP JUMPDEST DUP2 EQ PUSH2 0x357 JUMPI PUSH1 0x0 DUP1 REVERT JUMPDEST POP JUMP JUMPDEST PUSH2 0x363 DUP2 PUSH2 0x2EB JUMP JUMPDEST DUP2 EQ PUSH2 0x36E JUMPI PUSH1 0x0 DUP1 REVERT JUMPDEST POP JUMP JUMPDEST PUSH2 0x37A DUP2 PUSH2 0x31D JUMP JUMPDEST DUP2 EQ PUSH2 0x385 JUMPI PUSH1 0x0 DUP1 REVERT JUMPDEST POP JUMP INVALID LOG2 PUSH5 0x6970667358 0x22 SLT KECCAK256 0xCA SWAP14 DUP7 0xB9 0xA6 PUSH8 0x35E28C9FEFB07D6B PUSH7 0xFA8596CB39561B 0x5D KECCAK256 PUSH17 0xFB65E11A6607B964736F6C634300080700 CALLER "
				},
				"gasEstimates": {
					"creation": {
						"codeDepositCost": "191600",
						"executionCost": "232",
						"totalCost": "191832"
					},
					"external": {
						"balance(address,address)": "infinite",
						"deposit2(address,address,uint256)": "infinite"
					}
				},
				"methodIdentifiers": {
					"balance(address,address)": "b203bb99",
					"deposit2(address,address,uint256)": "346f0fa7"
				}
			},
			"storageLayout": {
				"storage": [
					{
						"astId": 86,
						"contract": "contracts/EscrowERC20.sol:EscrowERC20",
						"label": "balance",
						"offset": 0,
						"slot": "0",
						"type": "t_mapping(t_address,t_mapping(t_address,t_uint256))"
					}
				],
				"types": {
					"t_address": {
						"encoding": "inplace",
						"label": "address",
						"numberOfBytes": "20"
					},
					"t_mapping(t_address,t_mapping(t_address,t_uint256))": {
						"encoding": "mapping",
						"key": "t_address",
						"label": "mapping(address => mapping(address => uint256))",
						"numberOfBytes": "32",
						"value": "t_mapping(t_address,t_uint256)"
					},
					"t_mapping(t_address,t_uint256)": {
						"encoding": "mapping",
						"key": "t_address",
						"label": "mapping(address => uint256)",
						"numberOfBytes": "32",
						"value": "t_uint256"
					},
					"t_uint256": {
						"encoding": "inplace",
						"label": "uint256",
						"numberOfBytes": "32"
					}
				}
			},
			"userdoc": {
				"kind": "user",
				"methods": {},
				"version": 1
			}
		}
	}
}