{
	"contracts/EscrowERC20.sol": {
		"EscrowERC20": {
			"abi": [
				{
					"inputs": [
						{
							"internalType": "address",
							"name": "",
							"type": "address"
						},
						{
							"internalType": "address",
							"name": "",
							"type": "address"
						}
					],
					"name": "balance",
					"outputs": [
						{
							"internalType": "uint256",
							"name": "",
							"type": "uint256"
						}
					],
					"stateMutability": "view",
					"type": "function"
				},
				{
					"inputs": [
						{
							"internalType": "contract IERC20",
							"name": "token",
							"type": "address"
						},
						{
							"internalType": "address",
							"name": "receiver",
							"type": "address"
						},
						{
							"internalType": "uint256",
							"name": "amount",
							"type": "uint256"
						}
					],
					"name": "deposit2",
					"outputs": [],
					"stateMutability": "nonpayable",
					"type": "function"
				}
			],
			"devdoc": {
				"kind": "dev",
				"methods": {},
				"version": 1
			},
			"evm": {
				"assembly": "    /* \"contracts/EscrowERC20.sol\":123:418  contract EscrowERC20 {... */\n  mstore(0x40, 0x80)\n  callvalue\n  dup1\n  iszero\n  tag_1\n  jumpi\n  0x00\n  dup1\n  revert\ntag_1:\n  pop\n  dataSize(sub_0)\n  dup1\n  dataOffset(sub_0)\n  0x00\n  codecopy\n  0x00\n  return\nstop\n\nsub_0: assembly {\n        /* \"contracts/EscrowERC20.sol\":123:418  contract EscrowERC20 {... */\n      mstore(0x40, 0x80)\n      callvalue\n      dup1\n      iszero\n      tag_1\n      jumpi\n      0x00\n      dup1\n      revert\n    tag_1:\n      pop\n      jumpi(tag_2, lt(calldatasize, 0x04))\n      shr(0xe0, calldataload(0x00))\n      dup1\n      0x346f0fa7\n      eq\n      tag_3\n      jumpi\n      dup1\n      0xb203bb99\n      eq\n      tag_4\n      jumpi\n    tag_2:\n      0x00\n      dup1\n      revert\n        /* \"contracts/EscrowERC20.sol\":220:416  function deposit2(IERC20 token, address receiver, uint amount) public {... */\n    tag_3:\n      tag_5\n      0x04\n      dup1\n      calldatasize\n      sub\n      dup2\n      add\n      swap1\n      tag_6\n      swap2\n      swap1\n      tag_7\n      jump\t// in\n    tag_6:\n      tag_8\n      jump\t// in\n    tag_5:\n      stop\n        /* \"contracts/EscrowERC20.sol\":150:213  mapping(address => mapping (address => uint256)) public balance */\n    tag_4:\n      tag_9\n      0x04\n      dup1\n      calldatasize\n      sub\n      dup2\n      add\n      swap1\n      tag_10\n      swap2\n      swap1\n      tag_11\n      jump\t// in\n    tag_10:\n      tag_12\n      jump\t// in\n    tag_9:\n      mload(0x40)\n      tag_13\n      swap2\n      swap1\n      tag_14\n      jump\t// in\n    tag_13:\n      mload(0x40)\n      dup1\n      swap2\n      sub\n      swap1\n      return\n        /* \"contracts/EscrowERC20.sol\":220:416  function deposit2(IERC20 token, address receiver, uint amount) public {... */\n    tag_8:\n        /* \"contracts/EscrowERC20.sol\":308:313  token */\n      dup3\n        /* \"contracts/EscrowERC20.sol\":308:326  token.transferFrom */\n      0xffffffffffffffffffffffffffffffffffffffff\n      and\n      0x23b872dd\n        /* \"contracts/EscrowERC20.sol\":327:337  msg.sender */\n      caller\n        /* \"contracts/EscrowERC20.sol\":339:347  receiver */\n      dup5\n        /* \"contracts/EscrowERC20.sol\":349:355  amount */\n      dup5\n        /* \"contracts/EscrowERC20.sol\":308:356  token.transferFrom(msg.sender, receiver, amount) */\n      mload(0x40)\n      dup5\n      0xffffffff\n      and\n      0xe0\n      shl\n      dup2\n      mstore\n      0x04\n      add\n      tag_16\n      swap4\n      swap3\n      swap2\n      swap1\n      tag_17\n      jump\t// in\n    tag_16:\n      0x20\n      mload(0x40)\n      dup1\n      dup4\n      sub\n      dup2\n      0x00\n      dup8\n      dup1\n      extcodesize\n      iszero\n      dup1\n      iszero\n      tag_18\n      jumpi\n      0x00\n      dup1\n      revert\n    tag_18:\n      pop\n      gas\n      call\n      iszero\n      dup1\n      iszero\n      tag_20\n      jumpi\n      returndatasize\n      0x00\n      dup1\n      returndatacopy\n      revert(0x00, returndatasize)\n    tag_20:\n      pop\n      pop\n      pop\n      pop\n      mload(0x40)\n      returndatasize\n      not(0x1f)\n      0x1f\n      dup3\n      add\n      and\n      dup3\n      add\n      dup1\n      0x40\n      mstore\n      pop\n      dup2\n      add\n      swap1\n      tag_21\n      swap2\n      swap1\n      tag_22\n      jump\t// in\n    tag_21:\n        /* \"contracts/EscrowERC20.sol\":300:357  require(token.transferFrom(msg.sender, receiver, amount)) */\n      tag_23\n      jumpi\n      0x00\n      dup1\n      revert\n    tag_23:\n        /* \"contracts/EscrowERC20.sol\":403:409  amount */\n      dup1\n        /* \"contracts/EscrowERC20.sol\":367:374  balance */\n      0x00\n        /* \"contracts/EscrowERC20.sol\":367:384  balance[receiver] */\n      dup1\n        /* \"contracts/EscrowERC20.sol\":375:383  receiver */\n      dup5\n        /* \"contracts/EscrowERC20.sol\":367:384  balance[receiver] */\n      0xffffffffffffffffffffffffffffffffffffffff\n      and\n      0xffffffffffffffffffffffffffffffffffffffff\n      and\n      dup2\n      mstore\n      0x20\n      add\n      swap1\n      dup2\n      mstore\n      0x20\n      add\n      0x00\n      keccak256\n        /* \"contracts/EscrowERC20.sol\":367:400  balance[receiver][address(token)] */\n      0x00\n        /* \"contracts/EscrowERC20.sol\":393:398  token */\n      dup6\n        /* \"contracts/EscrowERC20.sol\":367:400  balance[receiver][address(token)] */\n      0xffffffffffffffffffffffffffffffffffffffff\n      and\n      0xffffffffffffffffffffffffffffffffffffffff\n      and\n      dup2\n      mstore\n      0x20\n      add\n      swap1\n      dup2\n      mstore\n      0x20\n      add\n      0x00\n      keccak256\n      0x00\n        /* \"contracts/EscrowERC20.sol\":367:409  balance[receiver][address(token)] +=amount */\n      dup3\n      dup3\n      sload\n      tag_24\n      swap2\n      swap1\n      tag_25\n      jump\t// in\n    tag_24:\n      swap3\n      pop\n      pop\n      dup2\n      swap1\n      sstore\n      pop\n        /* \"contracts/EscrowERC20.sol\":220:416  function deposit2(IERC20 token, address receiver, uint amount) public {... */\n      pop\n      pop\n      pop\n      jump\t// out\n        /* \"contracts/EscrowERC20.sol\":150:213  mapping(address => mapping (address => uint256)) public balance */\n    tag_12:\n      mstore(0x20, 0x00)\n      dup2\n      0x00\n      mstore\n      mstore(0x20, keccak256(0x00, 0x40))\n      dup1\n      0x00\n      mstore\n      keccak256(0x00, 0x40)\n      0x00\n      swap2\n      pop\n      swap2\n      pop\n      pop\n      sload\n      dup2\n      jump\t// out\n        /* \"#utility.yul\":7:146   */\n    tag_27:\n        /* \"#utility.yul\":53:58   */\n      0x00\n        /* \"#utility.yul\":91:97   */\n      dup2\n        /* \"#utility.yul\":78:98   */\n      calldataload\n        /* \"#utility.yul\":69:98   */\n      swap1\n      pop\n        /* \"#utility.yul\":107:140   */\n      tag_29\n        /* \"#utility.yul\":134:139   */\n      dup2\n        /* \"#utility.yul\":107:140   */\n      tag_30\n      jump\t// in\n    tag_29:\n        /* \"#utility.yul\":7:146   */\n      swap3\n      swap2\n      pop\n      pop\n      jump\t// out\n        /* \"#utility.yul\":152:289   */\n    tag_31:\n        /* \"#utility.yul\":206:211   */\n      0x00\n        /* \"#utility.yul\":237:243   */\n      dup2\n        /* \"#utility.yul\":231:244   */\n      mload\n        /* \"#utility.yul\":222:244   */\n      swap1\n      pop\n        /* \"#utility.yul\":253:283   */\n      tag_33\n        /* \"#utility.yul\":277:282   */\n      dup2\n        /* \"#utility.yul\":253:283   */\n      tag_34\n      jump\t// in\n    tag_33:\n        /* \"#utility.yul\":152:289   */\n      swap3\n      swap2\n      pop\n      pop\n      jump\t// out\n        /* \"#utility.yul\":295:460   */\n    tag_35:\n        /* \"#utility.yul\":354:359   */\n      0x00\n        /* \"#utility.yul\":392:398   */\n      dup2\n        /* \"#utility.yul\":379:399   */\n      calldataload\n        /* \"#utility.yul\":370:399   */\n      swap1\n      pop\n        /* \"#utility.yul\":408:454   */\n      tag_37\n        /* \"#utility.yul\":448:453   */\n      dup2\n        /* \"#utility.yul\":408:454   */\n      tag_38\n      jump\t// in\n    tag_37:\n        /* \"#utility.yul\":295:460   */\n      swap3\n      swap2\n      pop\n      pop\n      jump\t// out\n        /* \"#utility.yul\":466:605   */\n    tag_39:\n        /* \"#utility.yul\":512:517   */\n      0x00\n        /* \"#utility.yul\":550:556   */\n      dup2\n        /* \"#utility.yul\":537:557   */\n      calldataload\n        /* \"#utility.yul\":528:557   */\n      swap1\n      pop\n        /* \"#utility.yul\":566:599   */\n      tag_41\n        /* \"#utility.yul\":593:598   */\n      dup2\n        /* \"#utility.yul\":566:599   */\n      tag_42\n      jump\t// in\n    tag_41:\n        /* \"#utility.yul\":466:605   */\n      swap3\n      swap2\n      pop\n      pop\n      jump\t// out\n        /* \"#utility.yul\":611:1085   */\n    tag_11:\n        /* \"#utility.yul\":679:685   */\n      0x00\n        /* \"#utility.yul\":687:693   */\n      dup1\n        /* \"#utility.yul\":736:738   */\n      0x40\n        /* \"#utility.yul\":724:733   */\n      dup4\n        /* \"#utility.yul\":715:722   */\n      dup6\n        /* \"#utility.yul\":711:734   */\n      sub\n        /* \"#utility.yul\":707:739   */\n      slt\n        /* \"#utility.yul\":704:823   */\n      iszero\n      tag_44\n      jumpi\n        /* \"#utility.yul\":742:821   */\n      tag_45\n      tag_46\n      jump\t// in\n    tag_45:\n        /* \"#utility.yul\":704:823   */\n    tag_44:\n        /* \"#utility.yul\":862:863   */\n      0x00\n        /* \"#utility.yul\":887:940   */\n      tag_47\n        /* \"#utility.yul\":932:939   */\n      dup6\n        /* \"#utility.yul\":923:929   */\n      dup3\n        /* \"#utility.yul\":912:921   */\n      dup7\n        /* \"#utility.yul\":908:930   */\n      add\n        /* \"#utility.yul\":887:940   */\n      tag_27\n      jump\t// in\n    tag_47:\n        /* \"#utility.yul\":877:940   */\n      swap3\n      pop\n        /* \"#utility.yul\":833:950   */\n      pop\n        /* \"#utility.yul\":989:991   */\n      0x20\n        /* \"#utility.yul\":1015:1068   */\n      tag_48\n        /* \"#utility.yul\":1060:1067   */\n      dup6\n        /* \"#utility.yul\":1051:1057   */\n      dup3\n        /* \"#utility.yul\":1040:1049   */\n      dup7\n        /* \"#utility.yul\":1036:1058   */\n      add\n        /* \"#utility.yul\":1015:1068   */\n      tag_27\n      jump\t// in\n    tag_48:\n        /* \"#utility.yul\":1005:1068   */\n      swap2\n      pop\n        /* \"#utility.yul\":960:1078   */\n      pop\n        /* \"#utility.yul\":611:1085   */\n      swap3\n      pop\n      swap3\n      swap1\n      pop\n      jump\t// out\n        /* \"#utility.yul\":1091:1436   */\n    tag_22:\n        /* \"#utility.yul\":1158:1164   */\n      0x00\n        /* \"#utility.yul\":1207:1209   */\n      0x20\n        /* \"#utility.yul\":1195:1204   */\n      dup3\n        /* \"#utility.yul\":1186:1193   */\n      dup5\n        /* \"#utility.yul\":1182:1205   */\n      sub\n        /* \"#utility.yul\":1178:1210   */\n      slt\n        /* \"#utility.yul\":1175:1294   */\n      iszero\n      tag_50\n      jumpi\n        /* \"#utility.yul\":1213:1292   */\n      tag_51\n      tag_46\n      jump\t// in\n    tag_51:\n        /* \"#utility.yul\":1175:1294   */\n    tag_50:\n        /* \"#utility.yul\":1333:1334   */\n      0x00\n        /* \"#utility.yul\":1358:1419   */\n      tag_52\n        /* \"#utility.yul\":1411:1418   */\n      dup5\n        /* \"#utility.yul\":1402:1408   */\n      dup3\n        /* \"#utility.yul\":1391:1400   */\n      dup6\n        /* \"#utility.yul\":1387:1409   */\n      add\n        /* \"#utility.yul\":1358:1419   */\n      tag_31\n      jump\t// in\n    tag_52:\n        /* \"#utility.yul\":1348:1419   */\n      swap2\n      pop\n        /* \"#utility.yul\":1304:1429   */\n      pop\n        /* \"#utility.yul\":1091:1436   */\n      swap3\n      swap2\n      pop\n      pop\n      jump\t// out\n        /* \"#utility.yul\":1442:2087   */\n    tag_7:\n        /* \"#utility.yul\":1532:1538   */\n      0x00\n        /* \"#utility.yul\":1540:1546   */\n      dup1\n        /* \"#utility.yul\":1548:1554   */\n      0x00\n        /* \"#utility.yul\":1597:1599   */\n      0x60\n        /* \"#utility.yul\":1585:1594   */\n      dup5\n        /* \"#utility.yul\":1576:1583   */\n      dup7\n        /* \"#utility.yul\":1572:1595   */\n      sub\n        /* \"#utility.yul\":1568:1600   */\n      slt\n        /* \"#utility.yul\":1565:1684   */\n      iszero\n      tag_54\n      jumpi\n        /* \"#utility.yul\":1603:1682   */\n      tag_55\n      tag_46\n      jump\t// in\n    tag_55:\n        /* \"#utility.yul\":1565:1684   */\n    tag_54:\n        /* \"#utility.yul\":1723:1724   */\n      0x00\n        /* \"#utility.yul\":1748:1814   */\n      tag_56\n        /* \"#utility.yul\":1806:1813   */\n      dup7\n        /* \"#utility.yul\":1797:1803   */\n      dup3\n        /* \"#utility.yul\":1786:1795   */\n      dup8\n        /* \"#utility.yul\":1782:1804   */\n      add\n        /* \"#utility.yul\":1748:1814   */\n      tag_35\n      jump\t// in\n    tag_56:\n        /* \"#utility.yul\":1738:1814   */\n      swap4\n      pop\n        /* \"#utility.yul\":1694:1824   */\n      pop\n        /* \"#utility.yul\":1863:1865   */\n      0x20\n        /* \"#utility.yul\":1889:1942   */\n      tag_57\n        /* \"#utility.yul\":1934:1941   */\n      dup7\n        /* \"#utility.yul\":1925:1931   */\n      dup3\n        /* \"#utility.yul\":1914:1923   */\n      dup8\n        /* \"#utility.yul\":1910:1932   */\n      add\n        /* \"#utility.yul\":1889:1942   */\n      tag_27\n      jump\t// in\n    tag_57:\n        /* \"#utility.yul\":1879:1942   */\n      swap3\n      pop\n        /* \"#utility.yul\":1834:1952   */\n      pop\n        /* \"#utility.yul\":1991:1993   */\n      0x40\n        /* \"#utility.yul\":2017:2070   */\n      tag_58\n        /* \"#utility.yul\":2062:2069   */\n      dup7\n        /* \"#utility.yul\":2053:2059   */\n      dup3\n        /* \"#utility.yul\":2042:2051   */\n      dup8\n        /* \"#utility.yul\":2038:2060   */\n      add\n        /* \"#utility.yul\":2017:2070   */\n      tag_39\n      jump\t// in\n    tag_58:\n        /* \"#utility.yul\":2007:2070   */\n      swap2\n      pop\n        /* \"#utility.yul\":1962:2080   */\n      pop\n        /* \"#utility.yul\":1442:2087   */\n      swap3\n      pop\n      swap3\n      pop\n      swap3\n      jump\t// out\n        /* \"#utility.yul\":2093:2211   */\n    tag_59:\n        /* \"#utility.yul\":2180:2204   */\n      tag_61\n        /* \"#utility.yul\":2198:2203   */\n      dup2\n        /* \"#utility.yul\":2180:2204   */\n      tag_62\n      jump\t// in\n    tag_61:\n        /* \"#utility.yul\":2175:2178   */\n      dup3\n        /* \"#utility.yul\":2168:2205   */\n      mstore\n        /* \"#utility.yul\":2093:2211   */\n      pop\n      pop\n      jump\t// out\n        /* \"#utility.yul\":2217:2335   */\n    tag_63:\n        /* \"#utility.yul\":2304:2328   */\n      tag_65\n        /* \"#utility.yul\":2322:2327   */\n      dup2\n        /* \"#utility.yul\":2304:2328   */\n      tag_66\n      jump\t// in\n    tag_65:\n        /* \"#utility.yul\":2299:2302   */\n      dup3\n        /* \"#utility.yul\":2292:2329   */\n      mstore\n        /* \"#utility.yul\":2217:2335   */\n      pop\n      pop\n      jump\t// out\n        /* \"#utility.yul\":2341:2783   */\n    tag_17:\n        /* \"#utility.yul\":2490:2494   */\n      0x00\n        /* \"#utility.yul\":2528:2530   */\n      0x60\n        /* \"#utility.yul\":2517:2526   */\n      dup3\n        /* \"#utility.yul\":2513:2531   */\n      add\n        /* \"#utility.yul\":2505:2531   */\n      swap1\n      pop\n        /* \"#utility.yul\":2541:2612   */\n      tag_68\n        /* \"#utility.yul\":2609:2610   */\n      0x00\n        /* \"#utility.yul\":2598:2607   */\n      dup4\n        /* \"#utility.yul\":2594:2611   */\n      add\n        /* \"#utility.yul\":2585:2591   */\n      dup7\n        /* \"#utility.yul\":2541:2612   */\n      tag_59\n      jump\t// in\n    tag_68:\n        /* \"#utility.yul\":2622:2694   */\n      tag_69\n        /* \"#utility.yul\":2690:2692   */\n      0x20\n        /* \"#utility.yul\":2679:2688   */\n      dup4\n        /* \"#utility.yul\":2675:2693   */\n      add\n        /* \"#utility.yul\":2666:2672   */\n      dup6\n        /* \"#utility.yul\":2622:2694   */\n      tag_59\n      jump\t// in\n    tag_69:\n        /* \"#utility.yul\":2704:2776   */\n      tag_70\n        /* \"#utility.yul\":2772:2774   */\n      0x40\n        /* \"#utility.yul\":2761:2770   */\n      dup4\n        /* \"#utility.yul\":2757:2775   */\n      add\n        /* \"#utility.yul\":2748:2754   */\n      dup5\n        /* \"#utility.yul\":2704:2776   */\n      tag_63\n      jump\t// in\n    tag_70:\n        /* \"#utility.yul\":2341:2783   */\n      swap5\n      swap4\n      pop\n      pop\n      pop\n      pop\n      jump\t// out\n        /* \"#utility.yul\":2789:3011   */\n    tag_14:\n        /* \"#utility.yul\":2882:2886   */\n      0x00\n        /* \"#utility.yul\":2920:2922   */\n      0x20\n        /* \"#utility.yul\":2909:2918   */\n      dup3\n        /* \"#utility.yul\":2905:2923   */\n      add\n        /* \"#utility.yul\":2897:2923   */\n      swap1\n      pop\n        /* \"#utility.yul\":2933:3004   */\n      tag_72\n        /* \"#utility.yul\":3001:3002   */\n      0x00\n        /* \"#utility.yul\":2990:2999   */\n      dup4\n        /* \"#utility.yul\":2986:3003   */\n      add\n        /* \"#utility.yul\":2977:2983   */\n      dup5\n        /* \"#utility.yul\":2933:3004   */\n      tag_63\n      jump\t// in\n    tag_72:\n        /* \"#utility.yul\":2789:3011   */\n      swap3\n      swap2\n      pop\n      pop\n      jump\t// out\n        /* \"#utility.yul\":3098:3403   */\n    tag_25:\n        /* \"#utility.yul\":3138:3141   */\n      0x00\n        /* \"#utility.yul\":3157:3177   */\n      tag_76\n        /* \"#utility.yul\":3175:3176   */\n      dup3\n        /* \"#utility.yul\":3157:3177   */\n      tag_66\n      jump\t// in\n    tag_76:\n        /* \"#utility.yul\":3152:3177   */\n      swap2\n      pop\n        /* \"#utility.yul\":3191:3211   */\n      tag_77\n        /* \"#utility.yul\":3209:3210   */\n      dup4\n        /* \"#utility.yul\":3191:3211   */\n      tag_66\n      jump\t// in\n    tag_77:\n        /* \"#utility.yul\":3186:3211   */\n      swap3\n      pop\n        /* \"#utility.yul\":3345:3346   */\n      dup3\n        /* \"#utility.yul\":3277:3343   */\n      0xffffffffffffffffffffffffffffffffffffffffffffffffffffffffffffffff\n        /* \"#utility.yul\":3273:3347   */\n      sub\n        /* \"#utility.yul\":3270:3271   */\n      dup3\n        /* \"#utility.yul\":3267:3348   */\n      gt\n        /* \"#utility.yul\":3264:3371   */\n      iszero\n      tag_78\n      jumpi\n        /* \"#utility.yul\":3351:3369   */\n      tag_79\n      tag_80\n      jump\t// in\n    tag_79:\n        /* \"#utility.yul\":3264:3371   */\n    tag_78:\n        /* \"#utility.yul\":3395:3396   */\n      dup3\n        /* \"#utility.yul\":3392:3393   */\n      dup3\n        /* \"#utility.yul\":3388:3397   */\n      add\n        /* \"#utility.yul\":3381:3397   */\n      swap1\n      pop\n        /* \"#utility.yul\":3098:3403   */\n      swap3\n      swap2\n      pop\n      pop\n      jump\t// out\n        /* \"#utility.yul\":3409:3505   */\n    tag_62:\n        /* \"#utility.yul\":3446:3453   */\n      0x00\n        /* \"#utility.yul\":3475:3499   */\n      tag_82\n        /* \"#utility.yul\":3493:3498   */\n      dup3\n        /* \"#utility.yul\":3475:3499   */\n      tag_83\n      jump\t// in\n    tag_82:\n        /* \"#utility.yul\":3464:3499   */\n      swap1\n      pop\n        /* \"#utility.yul\":3409:3505   */\n      swap2\n      swap1\n      pop\n      jump\t// out\n        /* \"#utility.yul\":3511:3601   */\n    tag_84:\n        /* \"#utility.yul\":3545:3552   */\n      0x00\n        /* \"#utility.yul\":3588:3593   */\n      dup2\n        /* \"#utility.yul\":3581:3594   */\n      iszero\n        /* \"#utility.yul\":3574:3595   */\n      iszero\n        /* \"#utility.yul\":3563:3595   */\n      swap1\n      pop\n        /* \"#utility.yul\":3511:3601   */\n      swap2\n      swap1\n      pop\n      jump\t// out\n        /* \"#utility.yul\":3607:3716   */\n    tag_86:\n        /* \"#utility.yul\":3657:3664   */\n      0x00\n        /* \"#utility.yul\":3686:3710   */\n      tag_88\n        /* \"#utility.yul\":3704:3709   */\n      dup3\n        /* \"#utility.yul\":3686:3710   */\n      tag_62\n      jump\t// in\n    tag_88:\n        /* \"#utility.yul\":3675:3710   */\n      swap1\n      pop\n        /* \"#utility.yul\":3607:3716   */\n      swap2\n      swap1\n      pop\n      jump\t// out\n        /* \"#utility.yul\":3722:3848   */\n    tag_83:\n        /* \"#utility.yul\":3759:3766   */\n      0x00\n        /* \"#utility.yul\":3799:3841   */\n      0xffffffffffffffffffffffffffffffffffffffff\n        /* \"#utility.yul\":3792:3797   */\n      dup3\n        /* \"#utility.yul\":3788:3842   */\n      and\n        /* \"#utility.yul\":3777:3842   */\n      swap1\n      pop\n        /* \"#utility.yul\":3722:3848   */\n      swap2\n      swap1\n      pop\n      jump\t// out\n        /* \"#utility.yul\":3854:3931   */\n    tag_66:\n        /* \"#utility.yul\":3891:3898   */\n      0x00\n        /* \"#utility.yul\":3920:3925   */\n      dup2\n        /* \"#utility.yul\":3909:3925   */\n      swap1\n      pop\n        /* \"#utility.yul\":3854:3931   */\n      swap2\n      swap1\n      pop\n      jump\t// out\n        /* \"#utility.yul\":3937:4117   */\n    tag_80:\n        /* \"#utility.yul\":3985:4062   */\n      0x4e487b7100000000000000000000000000000000000000000000000000000000\n        /* \"#utility.yul\":3982:3983   */\n      0x00\n        /* \"#utility.yul\":3975:4063   */\n      mstore\n        /* \"#utility.yul\":4082:4086   */\n      0x11\n        /* \"#utility.yul\":4079:4080   */\n      0x04\n        /* \"#utility.yul\":4072:4087   */\n      mstore\n        /* \"#utility.yul\":4106:4110   */\n      0x24\n        /* \"#utility.yul\":4103:4104   */\n      0x00\n        /* \"#utility.yul\":4096:4111   */\n      revert\n        /* \"#utility.yul\":4246:4363   */\n    tag_46:\n        /* \"#utility.yul\":4355:4356   */\n      0x00\n        /* \"#utility.yul\":4352:4353   */\n      dup1\n        /* \"#utility.yul\":4345:4357   */\n      revert\n        /* \"#utility.yul\":4369:4491   */\n    tag_30:\n        /* \"#utility.yul\":4442:4466   */\n      tag_96\n        /* \"#utility.yul\":4460:4465   */\n      dup2\n        /* \"#utility.yul\":4442:4466   */\n      tag_62\n      jump\t// in\n    tag_96:\n        /* \"#utility.yul\":4435:4440   */\n      dup2\n        /* \"#utility.yul\":4432:4467   */\n      eq\n        /* \"#utility.yul\":4422:4485   */\n      tag_97\n      jumpi\n        /* \"#utility.yul\":4481:4482   */\n      0x00\n        /* \"#utility.yul\":4478:4479   */\n      dup1\n        /* \"#utility.yul\":4471:4483   */\n      revert\n        /* \"#utility.yul\":4422:4485   */\n    tag_97:\n        /* \"#utility.yul\":4369:4491   */\n      pop\n      jump\t// out\n        /* \"#utility.yul\":4497:4613   */\n    tag_34:\n        /* \"#utility.yul\":4567:4588   */\n      tag_99\n        /* \"#utility.yul\":4582:4587   */\n      dup2\n        /* \"#utility.yul\":4567:4588   */\n      tag_84\n      jump\t// in\n    tag_99:\n        /* \"#utility.yul\":4560:4565   */\n      dup2\n        /* \"#utility.yul\":4557:4589   */\n      eq\n        /* \"#utility.yul\":4547:4607   */\n      tag_100\n      jumpi\n        /* \"#utility.yul\":4603:4604   */\n      0x00\n        /* \"#utility.yul\":4600:4601   */\n      dup1\n        /* \"#utility.yul\":4593:4605   */\n      revert\n        /* \"#utility.yul\":4547:4607   */\n    tag_100:\n        /* \"#utility.yul\":4497:4613   */\n      pop\n      jump\t// out\n        /* \"#utility.yul\":4619:4767   */\n    tag_38:\n        /* \"#utility.yul\":4705:4742   */\n      tag_102\n        /* \"#utility.yul\":4736:4741   */\n      dup2\n        /* \"#utility.yul\":4705:4742   */\n      tag_86\n      jump\t// in\n    tag_102:\n        /* \"#utility.yul\":4698:4703   */\n      dup2\n        /* \"#utility.yul\":4695:4743   */\n      eq\n        /* \"#utility.yul\":4685:4761   */\n      tag_103\n      jumpi\n        /* \"#utility.yul\":4757:4758   */\n      0x00\n        /* \"#utility.yul\":4754:4755   */\n      dup1\n        /* \"#utility.yul\":4747:4759   */\n      revert\n        /* \"#utility.yul\":4685:4761   */\n    tag_103:\n        /* \"#utility.yul\":4619:4767   */\n      pop\n      jump\t// out\n        /* \"#utility.yul\":4773:4895   */\n    tag_42:\n        /* \"#utility.yul\":4846:4870   */\n      tag_105\n        /* \"#utility.yul\":4864:4869   */\n      dup2\n        /* \"#utility.yul\":4846:4870   */\n      tag_66\n      jump\t// in\n    tag_105:\n        /* \"#utility.yul\":4839:4844   */\n      dup2\n        /* \"#utility.yul\":4836:4871   */\n      eq\n        /* \"#utility.yul\":4826:4889   */\n      tag_106\n      jumpi\n        /* \"#utility.yul\":4885:4886   */\n      0x00\n        /* \"#utility.yul\":4882:4883   */\n      dup1\n        /* \"#utility.yul\":4875:4887   */\n      revert\n        /* \"#utility.yul\":4826:4889   */\n    tag_106:\n        /* \"#utility.yul\":4773:4895   */\n      pop\n      jump\t// out\n\n    auxdata: 0xa2646970667358221220888df562c77f4a2c75b57d35470a772df3da1d5927fe461a2f718e1509c3643e64736f6c63430008070033\n}\n",
				"bytecode": {
					"linkReferences": {},
					"object": "608060405234801561001057600080fd5b506104d5806100206000396000f3fe608060405234801561001057600080fd5b50600436106100365760003560e01c8063346f0fa71461003b578063b203bb9914610057575b600080fd5b6100556004803603810190610050919061029c565b610087565b005b610071600480360381019061006c919061022f565b6101b6565b60405161007e9190610344565b60405180910390f35b8273ffffffffffffffffffffffffffffffffffffffff166323b872dd3384846040518463ffffffff1660e01b81526004016100c49392919061030d565b602060405180830381600087803b1580156100de57600080fd5b505af11580156100f2573d6000803e3d6000fd5b505050506040513d601f19601f82011682018060405250810190610116919061026f565b61011f57600080fd5b806000808473ffffffffffffffffffffffffffffffffffffffff1673ffffffffffffffffffffffffffffffffffffffff16815260200190815260200160002060008573ffffffffffffffffffffffffffffffffffffffff1673ffffffffffffffffffffffffffffffffffffffff16815260200190815260200160002060008282546101aa919061035f565b92505081905550505050565b6000602052816000526040600020602052806000526040600020600091509150505481565b6000813590506101ea81610443565b92915050565b6000815190506101ff8161045a565b92915050565b60008135905061021481610471565b92915050565b60008135905061022981610488565b92915050565b600080604083850312156102465761024561043e565b5b6000610254858286016101db565b9250506020610265858286016101db565b9150509250929050565b6000602082840312156102855761028461043e565b5b6000610293848285016101f0565b91505092915050565b6000806000606084860312156102b5576102b461043e565b5b60006102c386828701610205565b93505060206102d4868287016101db565b92505060406102e58682870161021a565b9150509250925092565b6102f8816103b5565b82525050565b61030781610405565b82525050565b600060608201905061032260008301866102ef565b61032f60208301856102ef565b61033c60408301846102fe565b949350505050565b600060208201905061035960008301846102fe565b92915050565b600061036a82610405565b915061037583610405565b9250827fffffffffffffffffffffffffffffffffffffffffffffffffffffffffffffffff038211156103aa576103a961040f565b5b828201905092915050565b60006103c0826103e5565b9050919050565b60008115159050919050565b60006103de826103b5565b9050919050565b600073ffffffffffffffffffffffffffffffffffffffff82169050919050565b6000819050919050565b7f4e487b7100000000000000000000000000000000000000000000000000000000600052601160045260246000fd5b600080fd5b61044c816103b5565b811461045757600080fd5b50565b610463816103c7565b811461046e57600080fd5b50565b61047a816103d3565b811461048557600080fd5b50565b61049181610405565b811461049c57600080fd5b5056fea2646970667358221220888df562c77f4a2c75b57d35470a772df3da1d5927fe461a2f718e1509c3643e64736f6c63430008070033",
					"opcodes": "PUSH1 0x80 PUSH1 0x40 MSTORE CALLVALUE DUP1 ISZERO PUSH2 0x10 JUMPI PUSH1 0x0 DUP1 REVERT JUMPDEST POP PUSH2 0x4D5 DUP1 PUSH2 0x20 PUSH1 0x0 CODECOPY PUSH1 0x0 RETURN INVALID PUSH1 0x80 PUSH1 0x40 MSTORE CALLVALUE DUP1 ISZERO PUSH2 0x10 JUMPI PUSH1 0x0 DUP1 REVERT JUMPDEST POP PUSH1 0x4 CALLDATASIZE LT PUSH2 0x36 JUMPI PUSH1 0x0 CALLDATALOAD PUSH1 0xE0 SHR DUP1 PUSH4 0x346F0FA7 EQ PUSH2 0x3B JUMPI DUP1 PUSH4 0xB203BB99 EQ PUSH2 0x57 JUMPI JUMPDEST PUSH1 0x0 DUP1 REVERT JUMPDEST PUSH2 0x55 PUSH1 0x4 DUP1 CALLDATASIZE SUB DUP2 ADD SWAP1 PUSH2 0x50 SWAP2 SWAP1 PUSH2 0x29C JUMP JUMPDEST PUSH2 0x87 JUMP JUMPDEST STOP JUMPDEST PUSH2 0x71 PUSH1 0x4 DUP1 CALLDATASIZE SUB DUP2 ADD SWAP1 PUSH2 0x6C SWAP2 SWAP1 PUSH2 0x22F JUMP JUMPDEST PUSH2 0x1B6 JUMP JUMPDEST PUSH1 0x40 MLOAD PUSH2 0x7E SWAP2 SWAP1 PUSH2 0x344 JUMP JUMPDEST PUSH1 0x40 MLOAD DUP1 SWAP2 SUB SWAP1 RETURN JUMPDEST DUP3 PUSH20 0xFFFFFFFFFFFFFFFFFFFFFFFFFFFFFFFFFFFFFFFF AND PUSH4 0x23B872DD CALLER DUP5 DUP5 PUSH1 0x40 MLOAD DUP5 PUSH4 0xFFFFFFFF AND PUSH1 0xE0 SHL DUP2 MSTORE PUSH1 0x4 ADD PUSH2 0xC4 SWAP4 SWAP3 SWAP2 SWAP1 PUSH2 0x30D JUMP JUMPDEST PUSH1 0x20 PUSH1 0x40 MLOAD DUP1 DUP4 SUB DUP2 PUSH1 0x0 DUP8 DUP1 EXTCODESIZE ISZERO DUP1 ISZERO PUSH2 0xDE JUMPI PUSH1 0x0 DUP1 REVERT JUMPDEST POP GAS CALL ISZERO DUP1 ISZERO PUSH2 0xF2 JUMPI RETURNDATASIZE PUSH1 0x0 DUP1 RETURNDATACOPY RETURNDATASIZE PUSH1 0x0 REVERT JUMPDEST POP POP POP POP PUSH1 0x40 MLOAD RETURNDATASIZE PUSH1 0x1F NOT PUSH1 0x1F DUP3 ADD AND DUP3 ADD DUP1 PUSH1 0x40 MSTORE POP DUP2 ADD SWAP1 PUSH2 0x116 SWAP2 SWAP1 PUSH2 0x26F JUMP JUMPDEST PUSH2 0x11F JUMPI PUSH1 0x0 DUP1 REVERT JUMPDEST DUP1 PUSH1 0x0 DUP1 DUP5 PUSH20 0xFFFFFFFFFFFFFFFFFFFFFFFFFFFFFFFFFFFFFFFF AND PUSH20 0xFFFFFFFFFFFFFFFFFFFFFFFFFFFFFFFFFFFFFFFF AND DUP2 MSTORE PUSH1 0x20 ADD SWAP1 DUP2 MSTORE PUSH1 0x20 ADD PUSH1 0x0 KECCAK256 PUSH1 0x0 DUP6 PUSH20 0xFFFFFFFFFFFFFFFFFFFFFFFFFFFFFFFFFFFFFFFF AND PUSH20 0xFFFFFFFFFFFFFFFFFFFFFFFFFFFFFFFFFFFFFFFF AND DUP2 MSTORE PUSH1 0x20 ADD SWAP1 DUP2 MSTORE PUSH1 0x20 ADD PUSH1 0x0 KECCAK256 PUSH1 0x0 DUP3 DUP3 SLOAD PUSH2 0x1AA SWAP2 SWAP1 PUSH2 0x35F JUMP JUMPDEST SWAP3 POP POP DUP2 SWAP1 SSTORE POP POP POP POP JUMP JUMPDEST PUSH1 0x0 PUSH1 0x20 MSTORE DUP2 PUSH1 0x0 MSTORE PUSH1 0x40 PUSH1 0x0 KECCAK256 PUSH1 0x20 MSTORE DUP1 PUSH1 0x0 MSTORE PUSH1 0x40 PUSH1 0x0 KECCAK256 PUSH1 0x0 SWAP2 POP SWAP2 POP POP SLOAD DUP2 JUMP JUMPDEST PUSH1 0x0 DUP2 CALLDATALOAD SWAP1 POP PUSH2 0x1EA DUP2 PUSH2 0x443 JUMP JUMPDEST SWAP3 SWAP2 POP POP JUMP JUMPDEST PUSH1 0x0 DUP2 MLOAD SWAP1 POP PUSH2 0x1FF DUP2 PUSH2 0x45A JUMP JUMPDEST SWAP3 SWAP2 POP POP JUMP JUMPDEST PUSH1 0x0 DUP2 CALLDATALOAD SWAP1 POP PUSH2 0x214 DUP2 PUSH2 0x471 JUMP JUMPDEST SWAP3 SWAP2 POP POP JUMP JUMPDEST PUSH1 0x0 DUP2 CALLDATALOAD SWAP1 POP PUSH2 0x229 DUP2 PUSH2 0x488 JUMP JUMPDEST SWAP3 SWAP2 POP POP JUMP JUMPDEST PUSH1 0x0 DUP1 PUSH1 0x40 DUP4 DUP6 SUB SLT ISZERO PUSH2 0x246 JUMPI PUSH2 0x245 PUSH2 0x43E JUMP JUMPDEST JUMPDEST PUSH1 0x0 PUSH2 0x254 DUP6 DUP3 DUP7 ADD PUSH2 0x1DB JUMP JUMPDEST SWAP3 POP POP PUSH1 0x20 PUSH2 0x265 DUP6 DUP3 DUP7 ADD PUSH2 0x1DB JUMP JUMPDEST SWAP2 POP POP SWAP3 POP SWAP3 SWAP1 POP JUMP JUMPDEST PUSH1 0x0 PUSH1 0x20 DUP3 DUP5 SUB SLT ISZERO PUSH2 0x285 JUMPI PUSH2 0x284 PUSH2 0x43E JUMP JUMPDEST JUMPDEST PUSH1 0x0 PUSH2 0x293 DUP5 DUP3 DUP6 ADD PUSH2 0x1F0 JUMP JUMPDEST SWAP2 POP POP SWAP3 SWAP2 POP POP JUMP JUMPDEST PUSH1 0x0 DUP1 PUSH1 0x0 PUSH1 0x60 DUP5 DUP7 SUB SLT ISZERO PUSH2 0x2B5 JUMPI PUSH2 0x2B4 PUSH2 0x43E JUMP JUMPDEST JUMPDEST PUSH1 0x0 PUSH2 0x2C3 DUP7 DUP3 DUP8 ADD PUSH2 0x205 JUMP JUMPDEST SWAP4 POP POP PUSH1 0x20 PUSH2 0x2D4 DUP7 DUP3 DUP8 ADD PUSH2 0x1DB JUMP JUMPDEST SWAP3 POP POP PUSH1 0x40 PUSH2 0x2E5 DUP7 DUP3 DUP8 ADD PUSH2 0x21A JUMP JUMPDEST SWAP2 POP POP SWAP3 POP SWAP3 POP SWAP3 JUMP JUMPDEST PUSH2 0x2F8 DUP2 PUSH2 0x3B5 JUMP JUMPDEST DUP3 MSTORE POP POP JUMP JUMPDEST PUSH2 0x307 DUP2 PUSH2 0x405 JUMP JUMPDEST DUP3 MSTORE POP POP JUMP JUMPDEST PUSH1 0x0 PUSH1 0x60 DUP3 ADD SWAP1 POP PUSH2 0x322 PUSH1 0x0 DUP4 ADD DUP7 PUSH2 0x2EF JUMP JUMPDEST PUSH2 0x32F PUSH1 0x20 DUP4 ADD DUP6 PUSH2 0x2EF JUMP JUMPDEST PUSH2 0x33C PUSH1 0x40 DUP4 ADD DUP5 PUSH2 0x2FE JUMP JUMPDEST SWAP5 SWAP4 POP POP POP POP JUMP JUMPDEST PUSH1 0x0 PUSH1 0x20 DUP3 ADD SWAP1 POP PUSH2 0x359 PUSH1 0x0 DUP4 ADD DUP5 PUSH2 0x2FE JUMP JUMPDEST SWAP3 SWAP2 POP POP JUMP JUMPDEST PUSH1 0x0 PUSH2 0x36A DUP3 PUSH2 0x405 JUMP JUMPDEST SWAP2 POP PUSH2 0x375 DUP4 PUSH2 0x405 JUMP JUMPDEST SWAP3 POP DUP3 PUSH32 0xFFFFFFFFFFFFFFFFFFFFFFFFFFFFFFFFFFFFFFFFFFFFFFFFFFFFFFFFFFFFFFFF SUB DUP3 GT ISZERO PUSH2 0x3AA JUMPI PUSH2 0x3A9 PUSH2 0x40F JUMP JUMPDEST JUMPDEST DUP3 DUP3 ADD SWAP1 POP SWAP3 SWAP2 POP POP JUMP JUMPDEST PUSH1 0x0 PUSH2 0x3C0 DUP3 PUSH2 0x3E5 JUMP JUMPDEST SWAP1 POP SWAP2 SWAP1 POP JUMP JUMPDEST PUSH1 0x0 DUP2 ISZERO ISZERO SWAP1 POP SWAP2 SWAP1 POP JUMP JUMPDEST PUSH1 0x0 PUSH2 0x3DE DUP3 PUSH2 0x3B5 JUMP JUMPDEST SWAP1 POP SWAP2 SWAP1 POP JUMP JUMPDEST PUSH1 0x0 PUSH20 0xFFFFFFFFFFFFFFFFFFFFFFFFFFFFFFFFFFFFFFFF DUP3 AND SWAP1 POP SWAP2 SWAP1 POP JUMP JUMPDEST PUSH1 0x0 DUP2 SWAP1 POP SWAP2 SWAP1 POP JUMP JUMPDEST PUSH32 0x4E487B7100000000000000000000000000000000000000000000000000000000 PUSH1 0x0 MSTORE PUSH1 0x11 PUSH1 0x4 MSTORE PUSH1 0x24 PUSH1 0x0 REVERT JUMPDEST PUSH1 0x0 DUP1 REVERT JUMPDEST PUSH2 0x44C DUP2 PUSH2 0x3B5 JUMP JUMPDEST DUP2 EQ PUSH2 0x457 JUMPI PUSH1 0x0 DUP1 REVERT JUMPDEST POP JUMP JUMPDEST PUSH2 0x463 DUP2 PUSH2 0x3C7 JUMP JUMPDEST DUP2 EQ PUSH2 0x46E JUMPI PUSH1 0x0 DUP1 REVERT JUMPDEST POP JUMP JUMPDEST PUSH2 0x47A DUP2 PUSH2 0x3D3 JUMP JUMPDEST DUP2 EQ PUSH2 0x485 JUMPI PUSH1 0x0 DUP1 REVERT JUMPDEST POP JUMP JUMPDEST PUSH2 0x491 DUP2 PUSH2 0x405 JUMP JUMPDEST DUP2 EQ PUSH2 0x49C JUMPI PUSH1 0x0 DUP1 REVERT JUMPDEST POP JUMP INVALID LOG2 PUSH5 0x6970667358 0x22 SLT KECCAK256 DUP9 DUP14 CREATE2 PUSH3 0xC77F4A 0x2C PUSH22 0xB57D35470A772DF3DA1D5927FE461A2F718E1509C364 RETURNDATACOPY PUSH5 0x736F6C6343 STOP ADDMOD SMOD STOP CALLER "
				},
				"gasEstimates": {
					"creation": {
						"codeDepositCost": "247400",
						"executionCost": "287",
						"totalCost": "247687"
					},
					"external": {
						"balance(address,address)": "infinite",
						"deposit2(address,address,uint256)": "infinite"
					}
				},
				"methodIdentifiers": {
					"balance(address,address)": "b203bb99",
					"deposit2(address,address,uint256)": "346f0fa7"
				}
			},
			"storageLayout": {
				"storage": [
					{
						"astId": 86,
						"contract": "contracts/EscrowERC20.sol:EscrowERC20",
						"label": "balance",
						"offset": 0,
						"slot": "0",
						"type": "t_mapping(t_address,t_mapping(t_address,t_uint256))"
					}
				],
				"types": {
					"t_address": {
						"encoding": "inplace",
						"label": "address",
						"numberOfBytes": "20"
					},
					"t_mapping(t_address,t_mapping(t_address,t_uint256))": {
						"encoding": "mapping",
						"key": "t_address",
						"label": "mapping(address => mapping(address => uint256))",
						"numberOfBytes": "32",
						"value": "t_mapping(t_address,t_uint256)"
					},
					"t_mapping(t_address,t_uint256)": {
						"encoding": "mapping",
						"key": "t_address",
						"label": "mapping(address => uint256)",
						"numberOfBytes": "32",
						"value": "t_uint256"
					},
					"t_uint256": {
						"encoding": "inplace",
						"label": "uint256",
						"numberOfBytes": "32"
					}
				}
			},
			"userdoc": {
				"kind": "user",
				"methods": {},
				"version": 1
			}
		}
	}
}