{
  "_format": "hh-sol-artifact-1",
  "contractName": "Escrow",
  "sourceName": "contracts/Escrow.sol",
  "abi": [
    {
      "anonymous": false,
      "inputs": [
        {
          "indexed": false,
          "internalType": "address",
          "name": "receiver",
          "type": "address"
        },
        {
          "indexed": false,
          "internalType": "uint256",
          "name": "amount",
          "type": "uint256"
        }
      ],
      "name": "Withdrawal",
      "type": "event"
    },
    {
      "stateMutability": "payable",
      "type": "fallback"
    },
    {
      "inputs": [
        {
          "internalType": "address",
          "name": "",
          "type": "address"
        }
      ],
      "name": "balances",
      "outputs": [
        {
          "internalType": "uint256",
          "name": "",
          "type": "uint256"
        }
      ],
      "stateMutability": "view",
      "type": "function"
    },
    {
      "inputs": [
        {
          "internalType": "address payable",
          "name": "_receiver",
          "type": "address"
        }
      ],
      "name": "deposit",
      "outputs": [
        {
          "internalType": "uint256",
          "name": "",
          "type": "uint256"
        }
      ],
      "stateMutability": "payable",
      "type": "function"
    },
    {
      "inputs": [
        {
          "internalType": "address",
          "name": "_addr",
          "type": "address"
        }
      ],
      "name": "getBalanceByAddr",
      "outputs": [
        {
          "internalType": "uint256",
          "name": "_amount",
          "type": "uint256"
        }
      ],
      "stateMutability": "view",
      "type": "function"
    },
    {
      "inputs": [
        {
          "internalType": "uint256",
          "name": "transactionId",
          "type": "uint256"
        }
      ],
      "name": "rollback",
      "outputs": [],
      "stateMutability": "nonpayable",
      "type": "function"
    },
    {
      "inputs": [],
      "name": "withdraw",
      "outputs": [],
      "stateMutability": "payable",
      "type": "function"
    },
    {
      "stateMutability": "payable",
      "type": "receive"
    }
  ],
  "bytecode": "0x608060405234801561001057600080fd5b50610af0806100206000396000f3fe60806040526004361061004e5760003560e01c80630da9da20146100b757806327e235e3146100e05780633ccfd60b1461011d578063944419db14610127578063f340fa0114610164576100ab565b366100ab5734600160003373ffffffffffffffffffffffffffffffffffffffff1673ffffffffffffffffffffffffffffffffffffffff16815260200190815260200160002060008282546100a291906108f3565b92505081905550005b6100b433610194565b50005b3480156100c357600080fd5b506100de60048036038101906100d9919061078e565b61034e565b005b3480156100ec57600080fd5b506101076004803603810190610102919061073c565b61056c565b60405161011491906108c7565b60405180910390f35b610125610584565b005b34801561013357600080fd5b5061014e6004803603810190610149919061073c565b610690565b60405161015b91906108c7565b60405180910390f35b61017e60048036038101906101799190610765565b610194565b60405161018b91906108c7565b60405180910390f35b600068056bc75e2d631000003411156101e2576040517f08c379a00000000000000000000000000000000000000000000000000000000081526004016101d9906108a7565b60405180910390fd5b34600160008473ffffffffffffffffffffffffffffffffffffffff1673ffffffffffffffffffffffffffffffffffffffff168152602001908152602001600020600082825461023191906108f3565b92505081905550600061024460006106d9565b905060405180606001604052803373ffffffffffffffffffffffffffffffffffffffff1681526020018473ffffffffffffffffffffffffffffffffffffffff168152602001348152506002600083815260200190815260200160002060008201518160000160006101000a81548173ffffffffffffffffffffffffffffffffffffffff021916908373ffffffffffffffffffffffffffffffffffffffff16021790555060208201518160010160006101000a81548173ffffffffffffffffffffffffffffffffffffffff021916908373ffffffffffffffffffffffffffffffffffffffff1602179055506040820151816002015590505061034560006106e7565b80915050919050565b60006002600083815260200190815260200160002060010160009054906101000a900473ffffffffffffffffffffffffffffffffffffffff1690506000600260008481526020019081526020016000206002015490503373ffffffffffffffffffffffffffffffffffffffff166002600085815260200190815260200160002060000160009054906101000a900473ffffffffffffffffffffffffffffffffffffffff1673ffffffffffffffffffffffffffffffffffffffff1614610448576040517f08c379a000000000000000000000000000000000000000000000000000000000815260040161043f90610867565b60405180910390fd5b80600160008473ffffffffffffffffffffffffffffffffffffffff1673ffffffffffffffffffffffffffffffffffffffff1681526020019081526020016000205410156104ca576040517f08c379a00000000000000000000000000000000000000000000000000000000081526004016104c190610887565b60405180910390fd5b80600160008473ffffffffffffffffffffffffffffffffffffffff1673ffffffffffffffffffffffffffffffffffffffff16815260200190815260200160002060008282546105199190610949565b925050819055503373ffffffffffffffffffffffffffffffffffffffff166108fc829081150290604051600060405180830381858888f19350505050158015610566573d6000803e3d6000fd5b50505050565b60016020528060005260406000206000915090505481565b6000600160003373ffffffffffffffffffffffffffffffffffffffff1673ffffffffffffffffffffffffffffffffffffffff1681526020019081526020016000205490506000600160003373ffffffffffffffffffffffffffffffffffffffff1673ffffffffffffffffffffffffffffffffffffffff168152602001908152602001600020819055503373ffffffffffffffffffffffffffffffffffffffff166108fc829081150290604051600060405180830381858888f19350505050158015610653573d6000803e3d6000fd5b507f7fcf532c15f0a6db0bd6d0e038bea71d30d808c7d98cb3bf7268a95bf5081b65338260405161068592919061083e565b60405180910390a150565b6000600160008373ffffffffffffffffffffffffffffffffffffffff1673ffffffffffffffffffffffffffffffffffffffff168152602001908152602001600020549050919050565b600081600001549050919050565b6001816000016000828254019250508190555050565b60008135905061070c81610a75565b92915050565b60008135905061072181610a8c565b92915050565b60008135905061073681610aa3565b92915050565b60006020828403121561074e57600080fd5b600061075c848285016106fd565b91505092915050565b60006020828403121561077757600080fd5b600061078584828501610712565b91505092915050565b6000602082840312156107a057600080fd5b60006107ae84828501610727565b91505092915050565b6107c08161097d565b82525050565b60006107d3600c836108e2565b91506107de826109fa565b602082019050919050565b60006107f66012836108e2565b915061080182610a23565b602082019050919050565b60006108196010836108e2565b915061082482610a4c565b602082019050919050565b610838816109c1565b82525050565b600060408201905061085360008301856107b7565b610860602083018461082f565b9392505050565b60006020820190508181036000830152610880816107c6565b9050919050565b600060208201905081810360008301526108a0816107e9565b9050919050565b600060208201905081810360008301526108c08161080c565b9050919050565b60006020820190506108dc600083018461082f565b92915050565b600082825260208201905092915050565b60006108fe826109c1565b9150610909836109c1565b9250827fffffffffffffffffffffffffffffffffffffffffffffffffffffffffffffffff0382111561093e5761093d6109cb565b5b828201905092915050565b6000610954826109c1565b915061095f836109c1565b925082821015610972576109716109cb565b5b828203905092915050565b6000610988826109a1565b9050919050565b600061099a826109a1565b9050919050565b600073ffffffffffffffffffffffffffffffffffffffff82169050919050565b6000819050919050565b7f4e487b7100000000000000000000000000000000000000000000000000000000600052601160045260246000fd5b7f4e6f7420612073656e6465720000000000000000000000000000000000000000600082015250565b7f496e73756666696369656e742066756e64730000000000000000000000000000600082015250565b7f31303020657468657273206c696d697400000000000000000000000000000000600082015250565b610a7e8161097d565b8114610a8957600080fd5b50565b610a958161098f565b8114610aa057600080fd5b50565b610aac816109c1565b8114610ab757600080fd5b5056fea2646970667358221220936dcfb5c1e67fedd6955b251753cdbfb3b843b23a2f0f176c5bc4376acf79e164736f6c63430008040033",
  "linkReferences": {},
  "deployedLinkReferences": {}
}