{
  "_format": "hh-sol-artifact-1",
  "contractName": "Escrow",
  "sourceName": "contracts/Escrow.sol",
  "abi": [
    {
      "anonymous": false,
      "inputs": [
        {
          "indexed": false,
          "internalType": "address",
          "name": "receiver",
          "type": "address"
        },
        {
          "indexed": false,
          "internalType": "uint256",
          "name": "amount",
          "type": "uint256"
        }
      ],
      "name": "Withdraw",
      "type": "event"
    },
    {
      "stateMutability": "payable",
      "type": "fallback"
    },
    {
      "inputs": [
        {
          "internalType": "address",
          "name": "",
          "type": "address"
        }
      ],
      "name": "balances",
      "outputs": [
        {
          "internalType": "uint256",
          "name": "",
          "type": "uint256"
        }
      ],
      "stateMutability": "view",
      "type": "function"
    },
    {
      "inputs": [
        {
          "internalType": "address payable",
          "name": "_receiver",
          "type": "address"
        }
      ],
      "name": "deposit",
      "outputs": [],
      "stateMutability": "payable",
      "type": "function"
    },
    {
      "inputs": [
        {
          "internalType": "address",
          "name": "_addr",
          "type": "address"
        }
      ],
      "name": "getBalanceByAddr",
      "outputs": [
        {
          "internalType": "uint256",
          "name": "_amount",
          "type": "uint256"
        }
      ],
      "stateMutability": "view",
      "type": "function"
    },
    {
      "inputs": [],
      "name": "withdraw",
      "outputs": [],
      "stateMutability": "payable",
      "type": "function"
    },
    {
      "stateMutability": "payable",
      "type": "receive"
    }
  ],
  "bytecode": "0x608060405234801561001057600080fd5b50610610806100206000396000f3fe6080604052600436106100435760003560e01c806327e235e3146100aa5780633ccfd60b146100e7578063944419db146100f1578063f340fa011461012e5761009f565b3661009f57346000803373ffffffffffffffffffffffffffffffffffffffff1673ffffffffffffffffffffffffffffffffffffffff1681526020019081526020016000206000828254610096919061048a565b92505081905550005b6100a83361014a565b005b3480156100b657600080fd5b506100d160048036038101906100cc9190610382565b6101ee565b6040516100de919061045e565b60405180910390f35b6100ef610206565b005b3480156100fd57600080fd5b5061011860048036038101906101139190610382565b610310565b604051610125919061045e565b60405180910390f35b610148600480360381019061014391906103ab565b61014a565b005b68056bc75e2d63100000341115610196576040517f08c379a000000000000000000000000000000000000000000000000000000000815260040161018d9061043e565b60405180910390fd5b346000808373ffffffffffffffffffffffffffffffffffffffff1673ffffffffffffffffffffffffffffffffffffffff16815260200190815260200160002060008282546101e4919061048a565b9250508190555050565b60006020528060005260406000206000915090505481565b60008060003373ffffffffffffffffffffffffffffffffffffffff1673ffffffffffffffffffffffffffffffffffffffff16815260200190815260200160002054905060008060003373ffffffffffffffffffffffffffffffffffffffff1673ffffffffffffffffffffffffffffffffffffffff168152602001908152602001600020819055503373ffffffffffffffffffffffffffffffffffffffff166108fc829081150290604051600060405180830381858888f193505050501580156102d3573d6000803e3d6000fd5b507f884edad9ce6fa2440d8a54cc123490eb96d2768479d49ff9c7366125a94243643382604051610305929190610415565b60405180910390a150565b60008060008373ffffffffffffffffffffffffffffffffffffffff1673ffffffffffffffffffffffffffffffffffffffff168152602001908152602001600020549050919050565b600081359050610367816105ac565b92915050565b60008135905061037c816105c3565b92915050565b60006020828403121561039457600080fd5b60006103a284828501610358565b91505092915050565b6000602082840312156103bd57600080fd5b60006103cb8482850161036d565b91505092915050565b6103dd816104e0565b82525050565b60006103f0602583610479565b91506103fb8261055d565b604082019050919050565b61040f81610524565b82525050565b600060408201905061042a60008301856103d4565b6104376020830184610406565b9392505050565b60006020820190508181036000830152610457816103e3565b9050919050565b60006020820190506104736000830184610406565b92915050565b600082825260208201905092915050565b600061049582610524565b91506104a083610524565b9250827fffffffffffffffffffffffffffffffffffffffffffffffffffffffffffffffff038211156104d5576104d461052e565b5b828201905092915050565b60006104eb82610504565b9050919050565b60006104fd82610504565b9050919050565b600073ffffffffffffffffffffffffffffffffffffffff82169050919050565b6000819050919050565b7f4e487b7100000000000000000000000000000000000000000000000000000000600052601160045260246000fd5b7f596f752063616e206e6f742073656e64206d6f7265207468616e20313030206560008201527f7468657273000000000000000000000000000000000000000000000000000000602082015250565b6105b5816104e0565b81146105c057600080fd5b50565b6105cc816104f2565b81146105d757600080fd5b5056fea26469706673582212207eef0b334e6c716e1bb2b982b59db348dbb492dedd6c6b97213615100e08689664736f6c63430008040033",
  "linkReferences": {},
  "deployedLinkReferences": {}
}