{
  "_format": "hh-sol-artifact-1",
  "contractName": "Token",
  "sourceName": "contracts/Token.sol",
  "abi": [
    {
      "inputs": [
        {
          "internalType": "uint256",
          "name": "_initialSupply",
          "type": "uint256"
        }
      ],
      "stateMutability": "nonpayable",
      "type": "constructor"
    },
    {
      "anonymous": false,
      "inputs": [
        {
          "indexed": true,
          "internalType": "address",
          "name": "owner",
          "type": "address"
        },
        {
          "indexed": true,
          "internalType": "address",
          "name": "spender",
          "type": "address"
        },
        {
          "indexed": false,
          "internalType": "uint256",
          "name": "value",
          "type": "uint256"
        }
      ],
      "name": "Approval",
      "type": "event"
    },
    {
      "anonymous": false,
      "inputs": [
        {
          "indexed": false,
          "internalType": "uint256",
          "name": "amount",
          "type": "uint256"
        }
      ],
      "name": "TestEvent",
      "type": "event"
    },
    {
      "anonymous": false,
      "inputs": [
        {
          "indexed": true,
          "internalType": "address",
          "name": "from",
          "type": "address"
        },
        {
          "indexed": true,
          "internalType": "address",
          "name": "to",
          "type": "address"
        },
        {
          "indexed": false,
          "internalType": "uint256",
          "name": "value",
          "type": "uint256"
        }
      ],
      "name": "Transfer",
      "type": "event"
    },
    {
      "inputs": [
        {
          "internalType": "address",
          "name": "owner",
          "type": "address"
        },
        {
          "internalType": "address",
          "name": "spender",
          "type": "address"
        }
      ],
      "name": "allowance",
      "outputs": [
        {
          "internalType": "uint256",
          "name": "",
          "type": "uint256"
        }
      ],
      "stateMutability": "view",
      "type": "function"
    },
    {
      "inputs": [
        {
          "internalType": "address",
          "name": "spender",
          "type": "address"
        },
        {
          "internalType": "uint256",
          "name": "amount",
          "type": "uint256"
        }
      ],
      "name": "approve",
      "outputs": [
        {
          "internalType": "bool",
          "name": "",
          "type": "bool"
        }
      ],
      "stateMutability": "nonpayable",
      "type": "function"
    },
    {
      "inputs": [
        {
          "internalType": "address",
          "name": "account",
          "type": "address"
        }
      ],
      "name": "balanceOf",
      "outputs": [
        {
          "internalType": "uint256",
          "name": "",
          "type": "uint256"
        }
      ],
      "stateMutability": "view",
      "type": "function"
    },
    {
      "inputs": [],
      "name": "decimals",
      "outputs": [
        {
          "internalType": "uint8",
          "name": "",
          "type": "uint8"
        }
      ],
      "stateMutability": "view",
      "type": "function"
    },
    {
      "inputs": [
        {
          "internalType": "address",
          "name": "spender",
          "type": "address"
        },
        {
          "internalType": "uint256",
          "name": "subtractedValue",
          "type": "uint256"
        }
      ],
      "name": "decreaseAllowance",
      "outputs": [
        {
          "internalType": "bool",
          "name": "",
          "type": "bool"
        }
      ],
      "stateMutability": "nonpayable",
      "type": "function"
    },
    {
      "inputs": [
        {
          "internalType": "uint256",
          "name": "value",
          "type": "uint256"
        }
      ],
      "name": "helloWorld",
      "outputs": [
        {
          "internalType": "uint256",
          "name": "",
          "type": "uint256"
        }
      ],
      "stateMutability": "nonpayable",
      "type": "function"
    },
    {
      "inputs": [
        {
          "internalType": "address",
          "name": "spender",
          "type": "address"
        },
        {
          "internalType": "uint256",
          "name": "addedValue",
          "type": "uint256"
        }
      ],
      "name": "increaseAllowance",
      "outputs": [
        {
          "internalType": "bool",
          "name": "",
          "type": "bool"
        }
      ],
      "stateMutability": "nonpayable",
      "type": "function"
    },
    {
      "inputs": [],
      "name": "name",
      "outputs": [
        {
          "internalType": "string",
          "name": "",
          "type": "string"
        }
      ],
      "stateMutability": "view",
      "type": "function"
    },
    {
      "inputs": [],
      "name": "symbol",
      "outputs": [
        {
          "internalType": "string",
          "name": "",
          "type": "string"
        }
      ],
      "stateMutability": "view",
      "type": "function"
    },
    {
      "inputs": [],
      "name": "testValue",
      "outputs": [
        {
          "internalType": "uint256",
          "name": "",
          "type": "uint256"
        }
      ],
      "stateMutability": "view",
      "type": "function"
    },
    {
      "inputs": [],
      "name": "totalSupply",
      "outputs": [
        {
          "internalType": "uint256",
          "name": "",
          "type": "uint256"
        }
      ],
      "stateMutability": "view",
      "type": "function"
    },
    {
      "inputs": [
        {
          "internalType": "address",
          "name": "to",
          "type": "address"
        },
        {
          "internalType": "uint256",
          "name": "amount",
          "type": "uint256"
        }
      ],
      "name": "transfer",
      "outputs": [
        {
          "internalType": "bool",
          "name": "",
          "type": "bool"
        }
      ],
      "stateMutability": "nonpayable",
      "type": "function"
    },
    {
      "inputs": [
        {
          "internalType": "address",
          "name": "from",
          "type": "address"
        },
        {
          "internalType": "address",
          "name": "to",
          "type": "address"
        },
        {
          "internalType": "uint256",
          "name": "amount",
          "type": "uint256"
        }
      ],
      "name": "transferFrom",
      "outputs": [
        {
          "internalType": "bool",
          "name": "",
          "type": "bool"
        }
      ],
      "stateMutability": "nonpayable",
      "type": "function"
    }
  ],
  "bytecode": "0x60806040523480156200001157600080fd5b50604051620019293803806200192983398181016040528101906200003791906200033a565b6040518060400160405280600481526020017f47616d65000000000000000000000000000000000000000000000000000000008152506040518060400160405280600581526020017f2447414d450000000000000000000000000000000000000000000000000000008152508160039080519060200190620000bb92919062000273565b508060049080519060200190620000d492919062000273565b505050620000e93382620000f060201b60201c565b506200052c565b600073ffffffffffffffffffffffffffffffffffffffff168273ffffffffffffffffffffffffffffffffffffffff16141562000163576040517f08c379a00000000000000000000000000000000000000000000000000000000081526004016200015a906200039e565b60405180910390fd5b62000177600083836200026960201b60201c565b80600260008282546200018b9190620003ee565b92505081905550806000808473ffffffffffffffffffffffffffffffffffffffff1673ffffffffffffffffffffffffffffffffffffffff1681526020019081526020016000206000828254620001e29190620003ee565b925050819055508173ffffffffffffffffffffffffffffffffffffffff16600073ffffffffffffffffffffffffffffffffffffffff167fddf252ad1be2c89b69c2b068fc378daa952ba7f163c4a11628f55a4df523b3ef83604051620002499190620003c0565b60405180910390a362000265600083836200026e60201b60201c565b5050565b505050565b505050565b828054620002819062000455565b90600052602060002090601f016020900481019282620002a55760008555620002f1565b82601f10620002c057805160ff1916838001178555620002f1565b82800160010185558215620002f1579182015b82811115620002f0578251825591602001919060010190620002d3565b5b50905062000300919062000304565b5090565b5b808211156200031f57600081600090555060010162000305565b5090565b600081519050620003348162000512565b92915050565b6000602082840312156200034d57600080fd5b60006200035d8482850162000323565b91505092915050565b600062000375601f83620003dd565b91506200038282620004e9565b602082019050919050565b62000398816200044b565b82525050565b60006020820190508181036000830152620003b98162000366565b9050919050565b6000602082019050620003d760008301846200038d565b92915050565b600082825260208201905092915050565b6000620003fb826200044b565b915062000408836200044b565b9250827fffffffffffffffffffffffffffffffffffffffffffffffffffffffffffffffff0382111562000440576200043f6200048b565b5b828201905092915050565b6000819050919050565b600060028204905060018216806200046e57607f821691505b60208210811415620004855762000484620004ba565b5b50919050565b7f4e487b7100000000000000000000000000000000000000000000000000000000600052601160045260246000fd5b7f4e487b7100000000000000000000000000000000000000000000000000000000600052602260045260246000fd5b7f45524332303a206d696e7420746f20746865207a65726f206164647265737300600082015250565b6200051d816200044b565b81146200052957600080fd5b50565b6113ed806200053c6000396000f3fe608060405234801561001057600080fd5b50600436106100cf5760003560e01c80635d3a9c291161008c57806395d89b411161006657806395d89b411461023c578063a457c2d71461025a578063a9059cbb1461028a578063dd62ed3e146102ba576100cf565b80635d3a9c29146101be57806370a08231146101ee5780638af5de721461021e576100cf565b806306fdde03146100d4578063095ea7b3146100f257806318160ddd1461012257806323b872dd14610140578063313ce56714610170578063395093511461018e575b600080fd5b6100dc6102ea565b6040516100e99190610e6a565b60405180910390f35b61010c60048036038101906101079190610c6c565b61037c565b6040516101199190610e4f565b60405180910390f35b61012a61039f565b6040516101379190610f8c565b60405180910390f35b61015a60048036038101906101559190610c1d565b6103a9565b6040516101679190610e4f565b60405180910390f35b6101786103d8565b6040516101859190610fa7565b60405180910390f35b6101a860048036038101906101a39190610c6c565b6103e1565b6040516101b59190610e4f565b60405180910390f35b6101d860048036038101906101d39190610ca8565b610418565b6040516101e59190610f8c565b60405180910390f35b61020860048036038101906102039190610bb8565b6104a3565b6040516102159190610f8c565b60405180910390f35b6102266104eb565b6040516102339190610f8c565b60405180910390f35b6102446104f1565b6040516102519190610e6a565b60405180910390f35b610274600480360381019061026f9190610c6c565b610583565b6040516102819190610e4f565b60405180910390f35b6102a4600480360381019061029f9190610c6c565b6105fa565b6040516102b19190610e4f565b60405180910390f35b6102d460048036038101906102cf9190610be1565b61061d565b6040516102e19190610f8c565b60405180910390f35b6060600380546102f9906110bc565b80601f0160208091040260200160405190810160405280929190818152602001828054610325906110bc565b80156103725780601f1061034757610100808354040283529160200191610372565b820191906000526020600020905b81548152906001019060200180831161035557829003601f168201915b5050505050905090565b6000806103876106a4565b90506103948185856106ac565b600191505092915050565b6000600254905090565b6000806103b46106a4565b90506103c1858285610877565b6103cc858585610903565b60019150509392505050565b60006012905090565b6000806103ec6106a4565b905061040d8185856103fe858961061d565b6104089190610fde565b6106ac565b600191505092915050565b60006064821061045d576040517f08c379a000000000000000000000000000000000000000000000000000000000815260040161045490610f0c565b60405180910390fd5b816005819055507f1440c4dd67b4344ea1905ec0318995133b550f168b4ee959a0da6b503d7d2414826040516104939190610f8c565b60405180910390a1819050919050565b60008060008373ffffffffffffffffffffffffffffffffffffffff1673ffffffffffffffffffffffffffffffffffffffff168152602001908152602001600020549050919050565b60055481565b606060048054610500906110bc565b80601f016020809104026020016040519081016040528092919081815260200182805461052c906110bc565b80156105795780601f1061054e57610100808354040283529160200191610579565b820191906000526020600020905b81548152906001019060200180831161055c57829003601f168201915b5050505050905090565b60008061058e6106a4565b9050600061059c828661061d565b9050838110156105e1576040517f08c379a00000000000000000000000000000000000000000000000000000000081526004016105d890610f6c565b60405180910390fd5b6105ee82868684036106ac565b60019250505092915050565b6000806106056106a4565b9050610612818585610903565b600191505092915050565b6000600160008473ffffffffffffffffffffffffffffffffffffffff1673ffffffffffffffffffffffffffffffffffffffff16815260200190815260200160002060008373ffffffffffffffffffffffffffffffffffffffff1673ffffffffffffffffffffffffffffffffffffffff16815260200190815260200160002054905092915050565b600033905090565b600073ffffffffffffffffffffffffffffffffffffffff168373ffffffffffffffffffffffffffffffffffffffff16141561071c576040517f08c379a000000000000000000000000000000000000000000000000000000000815260040161071390610f4c565b60405180910390fd5b600073ffffffffffffffffffffffffffffffffffffffff168273ffffffffffffffffffffffffffffffffffffffff16141561078c576040517f08c379a000000000000000000000000000000000000000000000000000000000815260040161078390610eac565b60405180910390fd5b80600160008573ffffffffffffffffffffffffffffffffffffffff1673ffffffffffffffffffffffffffffffffffffffff16815260200190815260200160002060008473ffffffffffffffffffffffffffffffffffffffff1673ffffffffffffffffffffffffffffffffffffffff168152602001908152602001600020819055508173ffffffffffffffffffffffffffffffffffffffff168373ffffffffffffffffffffffffffffffffffffffff167f8c5be1e5ebec7d5bd14f71427d1e84f3dd0314c0f7b2291e5b200ac8c7c3b9258360405161086a9190610f8c565b60405180910390a3505050565b6000610883848461061d565b90507fffffffffffffffffffffffffffffffffffffffffffffffffffffffffffffffff81146108fd57818110156108ef576040517f08c379a00000000000000000000000000000000000000000000000000000000081526004016108e690610ecc565b60405180910390fd5b6108fc84848484036106ac565b5b50505050565b600073ffffffffffffffffffffffffffffffffffffffff168373ffffffffffffffffffffffffffffffffffffffff161415610973576040517f08c379a000000000000000000000000000000000000000000000000000000000815260040161096a90610f2c565b60405180910390fd5b600073ffffffffffffffffffffffffffffffffffffffff168273ffffffffffffffffffffffffffffffffffffffff1614156109e3576040517f08c379a00000000000000000000000000000000000000000000000000000000081526004016109da90610e8c565b60405180910390fd5b6109ee838383610b84565b60008060008573ffffffffffffffffffffffffffffffffffffffff1673ffffffffffffffffffffffffffffffffffffffff16815260200190815260200160002054905081811015610a74576040517f08c379a0000000000000000000000000000000000000000000000000000000008152600401610a6b90610eec565b60405180910390fd5b8181036000808673ffffffffffffffffffffffffffffffffffffffff1673ffffffffffffffffffffffffffffffffffffffff16815260200190815260200160002081905550816000808573ffffffffffffffffffffffffffffffffffffffff1673ffffffffffffffffffffffffffffffffffffffff1681526020019081526020016000206000828254610b079190610fde565b925050819055508273ffffffffffffffffffffffffffffffffffffffff168473ffffffffffffffffffffffffffffffffffffffff167fddf252ad1be2c89b69c2b068fc378daa952ba7f163c4a11628f55a4df523b3ef84604051610b6b9190610f8c565b60405180910390a3610b7e848484610b89565b50505050565b505050565b505050565b600081359050610b9d81611389565b92915050565b600081359050610bb2816113a0565b92915050565b600060208284031215610bca57600080fd5b6000610bd884828501610b8e565b91505092915050565b60008060408385031215610bf457600080fd5b6000610c0285828601610b8e565b9250506020610c1385828601610b8e565b9150509250929050565b600080600060608486031215610c3257600080fd5b6000610c4086828701610b8e565b9350506020610c5186828701610b8e565b9250506040610c6286828701610ba3565b9150509250925092565b60008060408385031215610c7f57600080fd5b6000610c8d85828601610b8e565b9250506020610c9e85828601610ba3565b9150509250929050565b600060208284031215610cba57600080fd5b6000610cc884828501610ba3565b91505092915050565b610cda81611046565b82525050565b6000610ceb82610fc2565b610cf58185610fcd565b9350610d05818560208601611089565b610d0e8161114c565b840191505092915050565b6000610d26602383610fcd565b9150610d318261115d565b604082019050919050565b6000610d49602283610fcd565b9150610d54826111ac565b604082019050919050565b6000610d6c601d83610fcd565b9150610d77826111fb565b602082019050919050565b6000610d8f602683610fcd565b9150610d9a82611224565b604082019050919050565b6000610db2600283610fcd565b9150610dbd82611273565b602082019050919050565b6000610dd5602583610fcd565b9150610de08261129c565b604082019050919050565b6000610df8602483610fcd565b9150610e03826112eb565b604082019050919050565b6000610e1b602583610fcd565b9150610e268261133a565b604082019050919050565b610e3a81611072565b82525050565b610e498161107c565b82525050565b6000602082019050610e646000830184610cd1565b92915050565b60006020820190508181036000830152610e848184610ce0565b905092915050565b60006020820190508181036000830152610ea581610d19565b9050919050565b60006020820190508181036000830152610ec581610d3c565b9050919050565b60006020820190508181036000830152610ee581610d5f565b9050919050565b60006020820190508181036000830152610f0581610d82565b9050919050565b60006020820190508181036000830152610f2581610da5565b9050919050565b60006020820190508181036000830152610f4581610dc8565b9050919050565b60006020820190508181036000830152610f6581610deb565b9050919050565b60006020820190508181036000830152610f8581610e0e565b9050919050565b6000602082019050610fa16000830184610e31565b92915050565b6000602082019050610fbc6000830184610e40565b92915050565b600081519050919050565b600082825260208201905092915050565b6000610fe982611072565b9150610ff483611072565b9250827fffffffffffffffffffffffffffffffffffffffffffffffffffffffffffffffff03821115611029576110286110ee565b5b828201905092915050565b600061103f82611052565b9050919050565b60008115159050919050565b600073ffffffffffffffffffffffffffffffffffffffff82169050919050565b6000819050919050565b600060ff82169050919050565b60005b838110156110a757808201518184015260208101905061108c565b838111156110b6576000848401525b50505050565b600060028204905060018216806110d457607f821691505b602082108114156110e8576110e761111d565b5b50919050565b7f4e487b7100000000000000000000000000000000000000000000000000000000600052601160045260246000fd5b7f4e487b7100000000000000000000000000000000000000000000000000000000600052602260045260246000fd5b6000601f19601f8301169050919050565b7f45524332303a207472616e7366657220746f20746865207a65726f206164647260008201527f6573730000000000000000000000000000000000000000000000000000000000602082015250565b7f45524332303a20617070726f766520746f20746865207a65726f20616464726560008201527f7373000000000000000000000000000000000000000000000000000000000000602082015250565b7f45524332303a20696e73756666696369656e7420616c6c6f77616e6365000000600082015250565b7f45524332303a207472616e7366657220616d6f756e742065786365656473206260008201527f616c616e63650000000000000000000000000000000000000000000000000000602082015250565b7f5631000000000000000000000000000000000000000000000000000000000000600082015250565b7f45524332303a207472616e736665722066726f6d20746865207a65726f20616460008201527f6472657373000000000000000000000000000000000000000000000000000000602082015250565b7f45524332303a20617070726f76652066726f6d20746865207a65726f2061646460008201527f7265737300000000000000000000000000000000000000000000000000000000602082015250565b7f45524332303a2064656372656173656420616c6c6f77616e63652062656c6f7760008201527f207a65726f000000000000000000000000000000000000000000000000000000602082015250565b61139281611034565b811461139d57600080fd5b50565b6113a981611072565b81146113b457600080fd5b5056fea26469706673582212204ee729bbf6ae3f1937b85ebc886e13e7d5cd0b55266bc475b964d51d4127a7e764736f6c63430008040033",
  "linkReferences": {},
  "deployedLinkReferences": {}
}