{
  "_format": "hh-sol-artifact-1",
  "contractName": "BasicToken",
  "sourceName": "contracts/BasicToken.sol",
  "abi": [
    {
      "inputs": [
        {
          "internalType": "uint256",
          "name": "_initSupply",
          "type": "uint256"
        }
      ],
      "stateMutability": "nonpayable",
      "type": "constructor"
    },
    {
      "inputs": [
        {
          "internalType": "address",
          "name": "_receiver",
          "type": "address"
        },
        {
          "internalType": "uint256",
          "name": "_amount",
          "type": "uint256"
        }
      ],
      "name": "transfer",
      "outputs": [
        {
          "internalType": "bool",
          "name": "success",
          "type": "bool"
        }
      ],
      "stateMutability": "nonpayable",
      "type": "function"
    }
  ],
  "bytecode": "0x608060405234801561001057600080fd5b506040516104d33803806104d383398181016040528101906100329190610090565b806000803373ffffffffffffffffffffffffffffffffffffffff1673ffffffffffffffffffffffffffffffffffffffff16815260200190815260200160002081905550506100da565b60008151905061008a816100c3565b92915050565b6000602082840312156100a257600080fd5b60006100b08482850161007b565b91505092915050565b6000819050919050565b6100cc816100b9565b81146100d757600080fd5b50565b6103ea806100e96000396000f3fe608060405234801561001057600080fd5b506004361061002b5760003560e01c8063a9059cbb14610030575b600080fd5b61004a6004803603810190610045919061021f565b610060565b604051610057919061026a565b60405180910390f35b6000816000803373ffffffffffffffffffffffffffffffffffffffff1673ffffffffffffffffffffffffffffffffffffffff1681526020019081526020016000205410156100ad57600080fd5b6000808473ffffffffffffffffffffffffffffffffffffffff1673ffffffffffffffffffffffffffffffffffffffff16815260200190815260200160002054826000808673ffffffffffffffffffffffffffffffffffffffff1673ffffffffffffffffffffffffffffffffffffffff168152602001908152602001600020546101369190610285565b101561014157600080fd5b816000803373ffffffffffffffffffffffffffffffffffffffff1673ffffffffffffffffffffffffffffffffffffffff168152602001908152602001600020600082825461018f91906102db565b92505081905550816000808573ffffffffffffffffffffffffffffffffffffffff1673ffffffffffffffffffffffffffffffffffffffff16815260200190815260200160002060008282546101e49190610285565b925050819055506001905092915050565b60008135905061020481610386565b92915050565b6000813590506102198161039d565b92915050565b6000806040838503121561023257600080fd5b6000610240858286016101f5565b92505060206102518582860161020a565b9150509250929050565b61026481610321565b82525050565b600060208201905061027f600083018461025b565b92915050565b60006102908261034d565b915061029b8361034d565b9250827fffffffffffffffffffffffffffffffffffffffffffffffffffffffffffffffff038211156102d0576102cf610357565b5b828201905092915050565b60006102e68261034d565b91506102f18361034d565b92508282101561030457610303610357565b5b828203905092915050565b600061031a8261032d565b9050919050565b60008115159050919050565b600073ffffffffffffffffffffffffffffffffffffffff82169050919050565b6000819050919050565b7f4e487b7100000000000000000000000000000000000000000000000000000000600052601160045260246000fd5b61038f8161030f565b811461039a57600080fd5b50565b6103a68161034d565b81146103b157600080fd5b5056fea26469706673582212206cd0e6f75ce405b26158aeb2b1abf7f499172e8623c14c23ee758679ece96e2764736f6c63430008040033",
  "linkReferences": {},
  "deployedLinkReferences": {}
}